{
	"Portfolio.sol": {
		"Portfolio": {
			"abi": [
				{
					"inputs": [],
					"stateMutability": "nonpayable",
					"type": "constructor"
				},
				{
					"inputs": [],
					"name": "allEduction",
					"outputs": [
						{
							"components": [
								{
									"internalType": "uint256",
									"name": "id",
									"type": "uint256"
								},
								{
									"internalType": "string",
									"name": "date",
									"type": "string"
								},
								{
									"internalType": "string",
									"name": "degree",
									"type": "string"
								},
								{
									"internalType": "string",
									"name": "instutionName",
									"type": "string"
								}
							],
							"internalType": "struct Portfolio.Education[3]",
							"name": "",
							"type": "tuple[3]"
						}
					],
					"stateMutability": "view",
					"type": "function"
				},
				{
					"inputs": [],
					"name": "allProject",
					"outputs": [
						{
							"components": [
								{
									"internalType": "uint256",
									"name": "id",
									"type": "uint256"
								},
								{
									"internalType": "string",
									"name": "name",
									"type": "string"
								},
								{
									"internalType": "string",
									"name": "description",
									"type": "string"
								},
								{
									"internalType": "string",
									"name": "image",
									"type": "string"
								},
								{
									"internalType": "string",
									"name": "githubLink",
									"type": "string"
								}
							],
							"internalType": "struct Portfolio.Project[3]",
							"name": "",
							"type": "tuple[3]"
						}
					],
					"stateMutability": "view",
					"type": "function"
				},
				{
					"inputs": [
						{
							"internalType": "string",
							"name": "_description",
							"type": "string"
						}
					],
					"name": "changeDescription",
					"outputs": [],
					"stateMutability": "nonpayable",
					"type": "function"
				},
				{
					"inputs": [
						{
							"internalType": "string",
							"name": "_date",
							"type": "string"
						},
						{
							"internalType": "string",
							"name": "_degree",
							"type": "string"
						},
						{
							"internalType": "string",
							"name": "_instutionName",
							"type": "string"
						},
						{
							"internalType": "uint256",
							"name": "_educationCount",
							"type": "uint256"
						}
					],
					"name": "changeEduction",
					"outputs": [],
					"stateMutability": "nonpayable",
					"type": "function"
				},
				{
					"inputs": [
						{
							"internalType": "string",
							"name": "_imageLink",
							"type": "string"
						}
					],
					"name": "changeImageLink",
					"outputs": [],
					"stateMutability": "nonpayable",
					"type": "function"
				},
				{
					"inputs": [
						{
							"internalType": "string",
							"name": "_name",
							"type": "string"
						},
						{
							"internalType": "string",
							"name": "_description",
							"type": "string"
						},
						{
							"internalType": "string",
							"name": "_image",
							"type": "string"
						},
						{
							"internalType": "string",
							"name": "_githubLink",
							"type": "string"
						},
						{
							"internalType": "uint256",
							"name": "_projectCount",
							"type": "uint256"
						}
					],
					"name": "changeProject",
					"outputs": [],
					"stateMutability": "nonpayable",
					"type": "function"
				},
				{
					"inputs": [
						{
							"internalType": "string",
							"name": "_resumeLink",
							"type": "string"
						}
					],
					"name": "changeResumeLink",
					"outputs": [],
					"stateMutability": "nonpayable",
					"type": "function"
				},
				{
					"inputs": [],
					"name": "description",
					"outputs": [
						{
							"internalType": "string",
							"name": "",
							"type": "string"
						}
					],
					"stateMutability": "view",
					"type": "function"
				},
				{
					"inputs": [],
					"name": "donate",
					"outputs": [],
					"stateMutability": "payable",
					"type": "function"
				},
				{
					"inputs": [
						{
							"internalType": "uint256",
							"name": "",
							"type": "uint256"
						}
					],
					"name": "educationDetails",
					"outputs": [
						{
							"internalType": "uint256",
							"name": "id",
							"type": "uint256"
						},
						{
							"internalType": "string",
							"name": "date",
							"type": "string"
						},
						{
							"internalType": "string",
							"name": "degree",
							"type": "string"
						},
						{
							"internalType": "string",
							"name": "instutionName",
							"type": "string"
						}
					],
					"stateMutability": "view",
					"type": "function"
				},
				{
					"inputs": [],
					"name": "imageLink",
					"outputs": [
						{
							"internalType": "string",
							"name": "",
							"type": "string"
						}
					],
					"stateMutability": "view",
					"type": "function"
				},
				{
					"inputs": [
						{
							"internalType": "string",
							"name": "_date",
							"type": "string"
						},
						{
							"internalType": "string",
							"name": "_degree",
							"type": "string"
						},
						{
							"internalType": "string",
							"name": "_instutionName",
							"type": "string"
						}
					],
					"name": "insertEduction",
					"outputs": [],
					"stateMutability": "nonpayable",
					"type": "function"
				},
				{
					"inputs": [
						{
							"internalType": "string",
							"name": "_name",
							"type": "string"
						},
						{
							"internalType": "string",
							"name": "_description",
							"type": "string"
						},
						{
							"internalType": "string",
							"name": "_image",
							"type": "string"
						},
						{
							"internalType": "string",
							"name": "_githubLink",
							"type": "string"
						}
					],
					"name": "insertProject",
					"outputs": [],
					"stateMutability": "nonpayable",
					"type": "function"
				},
				{
					"inputs": [],
					"name": "manager",
					"outputs": [
						{
							"internalType": "address",
							"name": "",
							"type": "address"
						}
					],
					"stateMutability": "view",
					"type": "function"
				},
				{
					"inputs": [
						{
							"internalType": "uint256",
							"name": "",
							"type": "uint256"
						}
					],
					"name": "projects",
					"outputs": [
						{
							"internalType": "uint256",
							"name": "id",
							"type": "uint256"
						},
						{
							"internalType": "string",
							"name": "name",
							"type": "string"
						},
						{
							"internalType": "string",
							"name": "description",
							"type": "string"
						},
						{
							"internalType": "string",
							"name": "image",
							"type": "string"
						},
						{
							"internalType": "string",
							"name": "githubLink",
							"type": "string"
						}
					],
					"stateMutability": "view",
					"type": "function"
				},
				{
					"inputs": [],
					"name": "resumeLink",
					"outputs": [
						{
							"internalType": "string",
							"name": "",
							"type": "string"
						}
					],
					"stateMutability": "view",
					"type": "function"
				}
			],
			"devdoc": {
				"kind": "dev",
				"methods": {},
				"version": 1
			},
			"evm": {
				"assembly": "    /* \"Portfolio.sol\":64:3016  contract Portfolio {... */\n  mstore(0x40, 0x80)\n    /* \"Portfolio.sol\":425:511  string public imageLink =\"bafkreiaycc5oz3ol33kufayne2mfjunslscqv6niwimgkvnl734c6kzdbm\" */\n  mload(0x40)\n  dup1\n  0x60\n  add\n  0x40\n  mstore\n  dup1\n  0x3b\n  dup2\n  mstore\n  0x20\n  add\n  data_f899fdf80fd94004f320b1892c64e9743ba86f2babf556180fec296a67b7f242\n  0x3b\n  swap2\n  codecopy\n  0x1b\n  swap1\n  dup2\n  tag_1\n  swap2\n  swap1\n  tag_2\n  jump\t// in\ntag_1:\n  pop\n    /* \"Portfolio.sol\":517:605  string public resumeLink = \"bafkreiho5y7fvqy3ry6jmmoa767q4vtndvo3nlpz2ajhr3wvksdch6z2uy\" */\n  mload(0x40)\n  dup1\n  0x60\n  add\n  0x40\n  mstore\n  dup1\n  0x3b\n  dup2\n  mstore\n  0x20\n  add\n  data_d76dae4f1d452d3bdf27e8f91f6f03931f1ca39030b14ca8062503ff327fbf6a\n  0x3b\n  swap2\n  codecopy\n  0x1c\n  swap1\n  dup2\n  tag_3\n  swap2\n  swap1\n  tag_2\n  jump\t// in\ntag_3:\n  pop\n    /* \"Portfolio.sol\":611:751  string public description = \"Hello! I'm Dhruvil Kasodariya, a passionate developer with experience in react.js ,node.js ,next.js ,solidity.\" */\n  mload(0x40)\n  dup1\n  0xa0\n  add\n  0x40\n  mstore\n  dup1\n  0x6e\n  dup2\n  mstore\n  0x20\n  add\n  data_298f99bb8ed636cd80d8d504d499909e98455eed8a6a29616f612e4623051a57\n  0x6e\n  swap2\n  codecopy\n  0x1d\n  swap1\n  dup2\n  tag_4\n  swap2\n  swap1\n  tag_2\n  jump\t// in\ntag_4:\n  pop\n    /* \"Portfolio.sol\":838:886  constructor(){... */\n  callvalue\n  dup1\n  iszero\n  tag_5\n  jumpi\n  0x00\n  dup1\n  revert\ntag_5:\n  pop\n    /* \"Portfolio.sol\":869:879  msg.sender */\n  caller\n    /* \"Portfolio.sol\":861:868  manager */\n  0x20\n  0x00\n    /* \"Portfolio.sol\":861:879  manager=msg.sender */\n  0x0100\n  exp\n  dup2\n  sload\n  dup2\n  0xffffffffffffffffffffffffffffffffffffffff\n  mul\n  not\n  and\n  swap1\n  dup4\n  0xffffffffffffffffffffffffffffffffffffffff\n  and\n  mul\n  or\n  swap1\n  sstore\n  pop\n    /* \"Portfolio.sol\":64:3016  contract Portfolio {... */\n  jump(tag_8)\n    /* \"#utility.yul\":7:106   */\ntag_9:\n    /* \"#utility.yul\":59:65   */\n  0x00\n    /* \"#utility.yul\":93:98   */\n  dup2\n    /* \"#utility.yul\":87:99   */\n  mload\n    /* \"#utility.yul\":77:99   */\n  swap1\n  pop\n    /* \"#utility.yul\":7:106   */\n  swap2\n  swap1\n  pop\n  jump\t// out\n    /* \"#utility.yul\":112:292   */\ntag_10:\n    /* \"#utility.yul\":160:237   */\n  0x4e487b7100000000000000000000000000000000000000000000000000000000\n    /* \"#utility.yul\":157:158   */\n  0x00\n    /* \"#utility.yul\":150:238   */\n  mstore\n    /* \"#utility.yul\":257:261   */\n  0x41\n    /* \"#utility.yul\":254:255   */\n  0x04\n    /* \"#utility.yul\":247:262   */\n  mstore\n    /* \"#utility.yul\":281:285   */\n  0x24\n    /* \"#utility.yul\":278:279   */\n  0x00\n    /* \"#utility.yul\":271:286   */\n  revert\n    /* \"#utility.yul\":298:478   */\ntag_11:\n    /* \"#utility.yul\":346:423   */\n  0x4e487b7100000000000000000000000000000000000000000000000000000000\n    /* \"#utility.yul\":343:344   */\n  0x00\n    /* \"#utility.yul\":336:424   */\n  mstore\n    /* \"#utility.yul\":443:447   */\n  0x22\n    /* \"#utility.yul\":440:441   */\n  0x04\n    /* \"#utility.yul\":433:448   */\n  mstore\n    /* \"#utility.yul\":467:471   */\n  0x24\n    /* \"#utility.yul\":464:465   */\n  0x00\n    /* \"#utility.yul\":457:472   */\n  revert\n    /* \"#utility.yul\":484:804   */\ntag_12:\n    /* \"#utility.yul\":528:534   */\n  0x00\n    /* \"#utility.yul\":565:566   */\n  0x02\n    /* \"#utility.yul\":559:563   */\n  dup3\n    /* \"#utility.yul\":555:567   */\n  div\n    /* \"#utility.yul\":545:567   */\n  swap1\n  pop\n    /* \"#utility.yul\":612:613   */\n  0x01\n    /* \"#utility.yul\":606:610   */\n  dup3\n    /* \"#utility.yul\":602:614   */\n  and\n    /* \"#utility.yul\":633:651   */\n  dup1\n    /* \"#utility.yul\":623:704   */\n  tag_34\n  jumpi\n    /* \"#utility.yul\":689:693   */\n  0x7f\n    /* \"#utility.yul\":681:687   */\n  dup3\n    /* \"#utility.yul\":677:694   */\n  and\n    /* \"#utility.yul\":667:694   */\n  swap2\n  pop\n    /* \"#utility.yul\":623:704   */\ntag_34:\n    /* \"#utility.yul\":751:753   */\n  0x20\n    /* \"#utility.yul\":743:749   */\n  dup3\n    /* \"#utility.yul\":740:754   */\n  lt\n    /* \"#utility.yul\":720:738   */\n  dup2\n    /* \"#utility.yul\":717:755   */\n  sub\n    /* \"#utility.yul\":714:798   */\n  tag_35\n  jumpi\n    /* \"#utility.yul\":770:788   */\n  tag_36\n  tag_11\n  jump\t// in\ntag_36:\n    /* \"#utility.yul\":714:798   */\ntag_35:\n    /* \"#utility.yul\":535:804   */\n  pop\n    /* \"#utility.yul\":484:804   */\n  swap2\n  swap1\n  pop\n  jump\t// out\n    /* \"#utility.yul\":810:951   */\ntag_13:\n    /* \"#utility.yul\":859:863   */\n  0x00\n    /* \"#utility.yul\":882:885   */\n  dup2\n    /* \"#utility.yul\":874:885   */\n  swap1\n  pop\n    /* \"#utility.yul\":905:908   */\n  dup2\n    /* \"#utility.yul\":902:903   */\n  0x00\n    /* \"#utility.yul\":895:909   */\n  mstore\n    /* \"#utility.yul\":939:943   */\n  0x20\n    /* \"#utility.yul\":936:937   */\n  0x00\n    /* \"#utility.yul\":926:944   */\n  keccak256\n    /* \"#utility.yul\":918:944   */\n  swap1\n  pop\n    /* \"#utility.yul\":810:951   */\n  swap2\n  swap1\n  pop\n  jump\t// out\n    /* \"#utility.yul\":957:1050   */\ntag_14:\n    /* \"#utility.yul\":994:1000   */\n  0x00\n    /* \"#utility.yul\":1041:1043   */\n  0x20\n    /* \"#utility.yul\":1036:1038   */\n  0x1f\n    /* \"#utility.yul\":1029:1034   */\n  dup4\n    /* \"#utility.yul\":1025:1039   */\n  add\n    /* \"#utility.yul\":1021:1044   */\n  div\n    /* \"#utility.yul\":1011:1044   */\n  swap1\n  pop\n    /* \"#utility.yul\":957:1050   */\n  swap2\n  swap1\n  pop\n  jump\t// out\n    /* \"#utility.yul\":1056:1163   */\ntag_15:\n    /* \"#utility.yul\":1100:1108   */\n  0x00\n    /* \"#utility.yul\":1150:1155   */\n  dup3\n    /* \"#utility.yul\":1144:1148   */\n  dup3\n    /* \"#utility.yul\":1140:1156   */\n  shl\n    /* \"#utility.yul\":1119:1156   */\n  swap1\n  pop\n    /* \"#utility.yul\":1056:1163   */\n  swap3\n  swap2\n  pop\n  pop\n  jump\t// out\n    /* \"#utility.yul\":1169:1562   */\ntag_16:\n    /* \"#utility.yul\":1238:1244   */\n  0x00\n    /* \"#utility.yul\":1288:1289   */\n  0x08\n    /* \"#utility.yul\":1276:1286   */\n  dup4\n    /* \"#utility.yul\":1272:1290   */\n  mul\n    /* \"#utility.yul\":1311:1408   */\n  tag_41\n    /* \"#utility.yul\":1341:1407   */\n  0xffffffffffffffffffffffffffffffffffffffffffffffffffffffffffffffff\n    /* \"#utility.yul\":1330:1339   */\n  dup3\n    /* \"#utility.yul\":1311:1408   */\n  tag_15\n  jump\t// in\ntag_41:\n    /* \"#utility.yul\":1429:1468   */\n  tag_42\n    /* \"#utility.yul\":1459:1467   */\n  dup7\n    /* \"#utility.yul\":1448:1457   */\n  dup4\n    /* \"#utility.yul\":1429:1468   */\n  tag_15\n  jump\t// in\ntag_42:\n    /* \"#utility.yul\":1417:1468   */\n  swap6\n  pop\n    /* \"#utility.yul\":1501:1505   */\n  dup1\n    /* \"#utility.yul\":1497:1506   */\n  not\n    /* \"#utility.yul\":1490:1495   */\n  dup5\n    /* \"#utility.yul\":1486:1507   */\n  and\n    /* \"#utility.yul\":1477:1507   */\n  swap4\n  pop\n    /* \"#utility.yul\":1550:1554   */\n  dup1\n    /* \"#utility.yul\":1540:1548   */\n  dup7\n    /* \"#utility.yul\":1536:1555   */\n  and\n    /* \"#utility.yul\":1529:1534   */\n  dup5\n    /* \"#utility.yul\":1526:1556   */\n  or\n    /* \"#utility.yul\":1516:1556   */\n  swap3\n  pop\n    /* \"#utility.yul\":1245:1562   */\n  pop\n  pop\n    /* \"#utility.yul\":1169:1562   */\n  swap4\n  swap3\n  pop\n  pop\n  pop\n  jump\t// out\n    /* \"#utility.yul\":1568:1645   */\ntag_17:\n    /* \"#utility.yul\":1605:1612   */\n  0x00\n    /* \"#utility.yul\":1634:1639   */\n  dup2\n    /* \"#utility.yul\":1623:1639   */\n  swap1\n  pop\n    /* \"#utility.yul\":1568:1645   */\n  swap2\n  swap1\n  pop\n  jump\t// out\n    /* \"#utility.yul\":1651:1711   */\ntag_18:\n    /* \"#utility.yul\":1679:1682   */\n  0x00\n    /* \"#utility.yul\":1700:1705   */\n  dup2\n    /* \"#utility.yul\":1693:1705   */\n  swap1\n  pop\n    /* \"#utility.yul\":1651:1711   */\n  swap2\n  swap1\n  pop\n  jump\t// out\n    /* \"#utility.yul\":1717:1859   */\ntag_19:\n    /* \"#utility.yul\":1767:1776   */\n  0x00\n    /* \"#utility.yul\":1800:1853   */\n  tag_46\n    /* \"#utility.yul\":1818:1852   */\n  tag_47\n    /* \"#utility.yul\":1827:1851   */\n  tag_48\n    /* \"#utility.yul\":1845:1850   */\n  dup5\n    /* \"#utility.yul\":1827:1851   */\n  tag_17\n  jump\t// in\ntag_48:\n    /* \"#utility.yul\":1818:1852   */\n  tag_18\n  jump\t// in\ntag_47:\n    /* \"#utility.yul\":1800:1853   */\n  tag_17\n  jump\t// in\ntag_46:\n    /* \"#utility.yul\":1787:1853   */\n  swap1\n  pop\n    /* \"#utility.yul\":1717:1859   */\n  swap2\n  swap1\n  pop\n  jump\t// out\n    /* \"#utility.yul\":1865:1940   */\ntag_20:\n    /* \"#utility.yul\":1908:1911   */\n  0x00\n    /* \"#utility.yul\":1929:1934   */\n  dup2\n    /* \"#utility.yul\":1922:1934   */\n  swap1\n  pop\n    /* \"#utility.yul\":1865:1940   */\n  swap2\n  swap1\n  pop\n  jump\t// out\n    /* \"#utility.yul\":1946:2215   */\ntag_21:\n    /* \"#utility.yul\":2056:2095   */\n  tag_51\n    /* \"#utility.yul\":2087:2094   */\n  dup4\n    /* \"#utility.yul\":2056:2095   */\n  tag_19\n  jump\t// in\ntag_51:\n    /* \"#utility.yul\":2117:2208   */\n  tag_52\n    /* \"#utility.yul\":2166:2207   */\n  tag_53\n    /* \"#utility.yul\":2190:2206   */\n  dup3\n    /* \"#utility.yul\":2166:2207   */\n  tag_20\n  jump\t// in\ntag_53:\n    /* \"#utility.yul\":2158:2164   */\n  dup5\n    /* \"#utility.yul\":2151:2155   */\n  dup5\n    /* \"#utility.yul\":2145:2156   */\n  sload\n    /* \"#utility.yul\":2117:2208   */\n  tag_16\n  jump\t// in\ntag_52:\n    /* \"#utility.yul\":2111:2115   */\n  dup3\n    /* \"#utility.yul\":2104:2209   */\n  sstore\n    /* \"#utility.yul\":2022:2215   */\n  pop\n    /* \"#utility.yul\":1946:2215   */\n  pop\n  pop\n  pop\n  jump\t// out\n    /* \"#utility.yul\":2221:2294   */\ntag_22:\n    /* \"#utility.yul\":2266:2269   */\n  0x00\n    /* \"#utility.yul\":2221:2294   */\n  swap1\n  jump\t// out\n    /* \"#utility.yul\":2300:2489   */\ntag_23:\n    /* \"#utility.yul\":2377:2409   */\n  tag_56\n  tag_22\n  jump\t// in\ntag_56:\n    /* \"#utility.yul\":2418:2483   */\n  tag_57\n    /* \"#utility.yul\":2476:2482   */\n  dup2\n    /* \"#utility.yul\":2468:2474   */\n  dup5\n    /* \"#utility.yul\":2462:2466   */\n  dup5\n    /* \"#utility.yul\":2418:2483   */\n  tag_21\n  jump\t// in\ntag_57:\n    /* \"#utility.yul\":2353:2489   */\n  pop\n    /* \"#utility.yul\":2300:2489   */\n  pop\n  pop\n  jump\t// out\n    /* \"#utility.yul\":2495:2681   */\ntag_24:\n    /* \"#utility.yul\":2555:2675   */\ntag_59:\n    /* \"#utility.yul\":2572:2575   */\n  dup2\n    /* \"#utility.yul\":2565:2570   */\n  dup2\n    /* \"#utility.yul\":2562:2576   */\n  lt\n    /* \"#utility.yul\":2555:2675   */\n  iszero\n  tag_61\n  jumpi\n    /* \"#utility.yul\":2626:2665   */\n  tag_62\n    /* \"#utility.yul\":2663:2664   */\n  0x00\n    /* \"#utility.yul\":2656:2661   */\n  dup3\n    /* \"#utility.yul\":2626:2665   */\n  tag_23\n  jump\t// in\ntag_62:\n    /* \"#utility.yul\":2599:2600   */\n  0x01\n    /* \"#utility.yul\":2592:2597   */\n  dup2\n    /* \"#utility.yul\":2588:2601   */\n  add\n    /* \"#utility.yul\":2579:2601   */\n  swap1\n  pop\n    /* \"#utility.yul\":2555:2675   */\n  jump(tag_59)\ntag_61:\n    /* \"#utility.yul\":2495:2681   */\n  pop\n  pop\n  jump\t// out\n    /* \"#utility.yul\":2687:3230   */\ntag_25:\n    /* \"#utility.yul\":2788:2790   */\n  0x1f\n    /* \"#utility.yul\":2783:2786   */\n  dup3\n    /* \"#utility.yul\":2780:2791   */\n  gt\n    /* \"#utility.yul\":2777:3223   */\n  iszero\n  tag_64\n  jumpi\n    /* \"#utility.yul\":2822:2860   */\n  tag_65\n    /* \"#utility.yul\":2854:2859   */\n  dup2\n    /* \"#utility.yul\":2822:2860   */\n  tag_13\n  jump\t// in\ntag_65:\n    /* \"#utility.yul\":2906:2935   */\n  tag_66\n    /* \"#utility.yul\":2924:2934   */\n  dup5\n    /* \"#utility.yul\":2906:2935   */\n  tag_14\n  jump\t// in\ntag_66:\n    /* \"#utility.yul\":2896:2904   */\n  dup2\n    /* \"#utility.yul\":2892:2936   */\n  add\n    /* \"#utility.yul\":3089:3091   */\n  0x20\n    /* \"#utility.yul\":3077:3087   */\n  dup6\n    /* \"#utility.yul\":3074:3092   */\n  lt\n    /* \"#utility.yul\":3071:3120   */\n  iszero\n  tag_67\n  jumpi\n    /* \"#utility.yul\":3110:3118   */\n  dup2\n    /* \"#utility.yul\":3095:3118   */\n  swap1\n  pop\n    /* \"#utility.yul\":3071:3120   */\ntag_67:\n    /* \"#utility.yul\":3133:3213   */\n  tag_68\n    /* \"#utility.yul\":3189:3211   */\n  tag_69\n    /* \"#utility.yul\":3207:3210   */\n  dup6\n    /* \"#utility.yul\":3189:3211   */\n  tag_14\n  jump\t// in\ntag_69:\n    /* \"#utility.yul\":3179:3187   */\n  dup4\n    /* \"#utility.yul\":3175:3212   */\n  add\n    /* \"#utility.yul\":3162:3173   */\n  dup3\n    /* \"#utility.yul\":3133:3213   */\n  tag_24\n  jump\t// in\ntag_68:\n    /* \"#utility.yul\":2792:3223   */\n  pop\n  pop\n    /* \"#utility.yul\":2777:3223   */\ntag_64:\n    /* \"#utility.yul\":2687:3230   */\n  pop\n  pop\n  pop\n  jump\t// out\n    /* \"#utility.yul\":3236:3353   */\ntag_26:\n    /* \"#utility.yul\":3290:3298   */\n  0x00\n    /* \"#utility.yul\":3340:3345   */\n  dup3\n    /* \"#utility.yul\":3334:3338   */\n  dup3\n    /* \"#utility.yul\":3330:3346   */\n  shr\n    /* \"#utility.yul\":3309:3346   */\n  swap1\n  pop\n    /* \"#utility.yul\":3236:3353   */\n  swap3\n  swap2\n  pop\n  pop\n  jump\t// out\n    /* \"#utility.yul\":3359:3528   */\ntag_27:\n    /* \"#utility.yul\":3403:3409   */\n  0x00\n    /* \"#utility.yul\":3436:3487   */\n  tag_72\n    /* \"#utility.yul\":3484:3485   */\n  0x00\n    /* \"#utility.yul\":3480:3486   */\n  not\n    /* \"#utility.yul\":3472:3477   */\n  dup5\n    /* \"#utility.yul\":3469:3470   */\n  0x08\n    /* \"#utility.yul\":3465:3478   */\n  mul\n    /* \"#utility.yul\":3436:3487   */\n  tag_26\n  jump\t// in\ntag_72:\n    /* \"#utility.yul\":3432:3488   */\n  not\n    /* \"#utility.yul\":3517:3521   */\n  dup1\n    /* \"#utility.yul\":3511:3515   */\n  dup4\n    /* \"#utility.yul\":3507:3522   */\n  and\n    /* \"#utility.yul\":3497:3522   */\n  swap2\n  pop\n    /* \"#utility.yul\":3410:3528   */\n  pop\n    /* \"#utility.yul\":3359:3528   */\n  swap3\n  swap2\n  pop\n  pop\n  jump\t// out\n    /* \"#utility.yul\":3533:3828   */\ntag_28:\n    /* \"#utility.yul\":3609:3613   */\n  0x00\n    /* \"#utility.yul\":3755:3784   */\n  tag_74\n    /* \"#utility.yul\":3780:3783   */\n  dup4\n    /* \"#utility.yul\":3774:3778   */\n  dup4\n    /* \"#utility.yul\":3755:3784   */\n  tag_27\n  jump\t// in\ntag_74:\n    /* \"#utility.yul\":3747:3784   */\n  swap2\n  pop\n    /* \"#utility.yul\":3817:3820   */\n  dup3\n    /* \"#utility.yul\":3814:3815   */\n  0x02\n    /* \"#utility.yul\":3810:3821   */\n  mul\n    /* \"#utility.yul\":3804:3808   */\n  dup3\n    /* \"#utility.yul\":3801:3822   */\n  or\n    /* \"#utility.yul\":3793:3822   */\n  swap1\n  pop\n    /* \"#utility.yul\":3533:3828   */\n  swap3\n  swap2\n  pop\n  pop\n  jump\t// out\n    /* \"#utility.yul\":3833:5228   */\ntag_2:\n    /* \"#utility.yul\":3950:3987   */\n  tag_76\n    /* \"#utility.yul\":3983:3986   */\n  dup3\n    /* \"#utility.yul\":3950:3987   */\n  tag_9\n  jump\t// in\ntag_76:\n    /* \"#utility.yul\":4052:4070   */\n  0xffffffffffffffff\n    /* \"#utility.yul\":4044:4050   */\n  dup2\n    /* \"#utility.yul\":4041:4071   */\n  gt\n    /* \"#utility.yul\":4038:4094   */\n  iszero\n  tag_77\n  jumpi\n    /* \"#utility.yul\":4074:4092   */\n  tag_78\n  tag_10\n  jump\t// in\ntag_78:\n    /* \"#utility.yul\":4038:4094   */\ntag_77:\n    /* \"#utility.yul\":4118:4156   */\n  tag_79\n    /* \"#utility.yul\":4150:4154   */\n  dup3\n    /* \"#utility.yul\":4144:4155   */\n  sload\n    /* \"#utility.yul\":4118:4156   */\n  tag_12\n  jump\t// in\ntag_79:\n    /* \"#utility.yul\":4203:4270   */\n  tag_80\n    /* \"#utility.yul\":4263:4269   */\n  dup3\n    /* \"#utility.yul\":4255:4261   */\n  dup3\n    /* \"#utility.yul\":4249:4253   */\n  dup6\n    /* \"#utility.yul\":4203:4270   */\n  tag_25\n  jump\t// in\ntag_80:\n    /* \"#utility.yul\":4297:4298   */\n  0x00\n    /* \"#utility.yul\":4321:4325   */\n  0x20\n    /* \"#utility.yul\":4308:4325   */\n  swap1\n  pop\n    /* \"#utility.yul\":4353:4355   */\n  0x1f\n    /* \"#utility.yul\":4345:4351   */\n  dup4\n    /* \"#utility.yul\":4342:4356   */\n  gt\n    /* \"#utility.yul\":4370:4371   */\n  0x01\n    /* \"#utility.yul\":4365:4983   */\n  dup2\n  eq\n  tag_82\n  jumpi\n    /* \"#utility.yul\":5027:5028   */\n  0x00\n    /* \"#utility.yul\":5044:5050   */\n  dup5\n    /* \"#utility.yul\":5041:5118   */\n  iszero\n  tag_83\n  jumpi\n    /* \"#utility.yul\":5093:5102   */\n  dup3\n    /* \"#utility.yul\":5088:5091   */\n  dup8\n    /* \"#utility.yul\":5084:5103   */\n  add\n    /* \"#utility.yul\":5078:5104   */\n  mload\n    /* \"#utility.yul\":5069:5104   */\n  swap1\n  pop\n    /* \"#utility.yul\":5041:5118   */\ntag_83:\n    /* \"#utility.yul\":5144:5211   */\n  tag_84\n    /* \"#utility.yul\":5204:5210   */\n  dup6\n    /* \"#utility.yul\":5197:5202   */\n  dup3\n    /* \"#utility.yul\":5144:5211   */\n  tag_28\n  jump\t// in\ntag_84:\n    /* \"#utility.yul\":5138:5142   */\n  dup7\n    /* \"#utility.yul\":5131:5212   */\n  sstore\n    /* \"#utility.yul\":5000:5222   */\n  pop\n    /* \"#utility.yul\":4335:5222   */\n  jump(tag_81)\n    /* \"#utility.yul\":4365:4983   */\ntag_82:\n    /* \"#utility.yul\":4417:4421   */\n  0x1f\n    /* \"#utility.yul\":4413:4422   */\n  not\n    /* \"#utility.yul\":4405:4411   */\n  dup5\n    /* \"#utility.yul\":4401:4423   */\n  and\n    /* \"#utility.yul\":4451:4488   */\n  tag_85\n    /* \"#utility.yul\":4483:4487   */\n  dup7\n    /* \"#utility.yul\":4451:4488   */\n  tag_13\n  jump\t// in\ntag_85:\n    /* \"#utility.yul\":4510:4511   */\n  0x00\n    /* \"#utility.yul\":4524:4732   */\ntag_86:\n    /* \"#utility.yul\":4538:4545   */\n  dup3\n    /* \"#utility.yul\":4535:4536   */\n  dup2\n    /* \"#utility.yul\":4532:4546   */\n  lt\n    /* \"#utility.yul\":4524:4732   */\n  iszero\n  tag_88\n  jumpi\n    /* \"#utility.yul\":4617:4626   */\n  dup5\n    /* \"#utility.yul\":4612:4615   */\n  dup10\n    /* \"#utility.yul\":4608:4627   */\n  add\n    /* \"#utility.yul\":4602:4628   */\n  mload\n    /* \"#utility.yul\":4594:4600   */\n  dup3\n    /* \"#utility.yul\":4587:4629   */\n  sstore\n    /* \"#utility.yul\":4668:4669   */\n  0x01\n    /* \"#utility.yul\":4660:4666   */\n  dup3\n    /* \"#utility.yul\":4656:4670   */\n  add\n    /* \"#utility.yul\":4646:4670   */\n  swap2\n  pop\n    /* \"#utility.yul\":4715:4717   */\n  0x20\n    /* \"#utility.yul\":4704:4713   */\n  dup6\n    /* \"#utility.yul\":4700:4718   */\n  add\n    /* \"#utility.yul\":4687:4718   */\n  swap5\n  pop\n    /* \"#utility.yul\":4561:4565   */\n  0x20\n    /* \"#utility.yul\":4558:4559   */\n  dup2\n    /* \"#utility.yul\":4554:4566   */\n  add\n    /* \"#utility.yul\":4549:4566   */\n  swap1\n  pop\n    /* \"#utility.yul\":4524:4732   */\n  jump(tag_86)\ntag_88:\n    /* \"#utility.yul\":4760:4766   */\n  dup7\n    /* \"#utility.yul\":4751:4758   */\n  dup4\n    /* \"#utility.yul\":4748:4767   */\n  lt\n    /* \"#utility.yul\":4745:4924   */\n  iszero\n  tag_89\n  jumpi\n    /* \"#utility.yul\":4818:4827   */\n  dup5\n    /* \"#utility.yul\":4813:4816   */\n  dup10\n    /* \"#utility.yul\":4809:4828   */\n  add\n    /* \"#utility.yul\":4803:4829   */\n  mload\n    /* \"#utility.yul\":4861:4909   */\n  tag_90\n    /* \"#utility.yul\":4903:4907   */\n  0x1f\n    /* \"#utility.yul\":4895:4901   */\n  dup10\n    /* \"#utility.yul\":4891:4908   */\n  and\n    /* \"#utility.yul\":4880:4889   */\n  dup3\n    /* \"#utility.yul\":4861:4909   */\n  tag_27\n  jump\t// in\ntag_90:\n    /* \"#utility.yul\":4853:4859   */\n  dup4\n    /* \"#utility.yul\":4846:4910   */\n  sstore\n    /* \"#utility.yul\":4768:4924   */\n  pop\n    /* \"#utility.yul\":4745:4924   */\ntag_89:\n    /* \"#utility.yul\":4970:4971   */\n  0x01\n    /* \"#utility.yul\":4966:4967   */\n  0x02\n    /* \"#utility.yul\":4958:4964   */\n  dup9\n    /* \"#utility.yul\":4954:4968   */\n  mul\n    /* \"#utility.yul\":4950:4972   */\n  add\n    /* \"#utility.yul\":4944:4948   */\n  dup9\n    /* \"#utility.yul\":4937:4973   */\n  sstore\n    /* \"#utility.yul\":4372:4983   */\n  pop\n  pop\n  pop\n    /* \"#utility.yul\":4335:5222   */\ntag_81:\n  pop\n    /* \"#utility.yul\":3925:5228   */\n  pop\n  pop\n  pop\n    /* \"#utility.yul\":3833:5228   */\n  pop\n  pop\n  jump\t// out\n    /* \"Portfolio.sol\":64:3016  contract Portfolio {... */\ntag_8:\n  dataSize(sub_0)\n  dup1\n  dataOffset(sub_0)\n  0x00\n  codecopy\n  0x00\n  return\nstop\ndata_298f99bb8ed636cd80d8d504d499909e98455eed8a6a29616f612e4623051a57 48656c6c6f212049276d204468727576696c204b61736f6461726979612c20612070617373696f6e61746520646576656c6f706572207769746820657870657269656e636520696e2072656163742e6a73202c6e6f64652e6a73202c6e6578742e6a73202c736f6c69646974792e\ndata_d76dae4f1d452d3bdf27e8f91f6f03931f1ca39030b14ca8062503ff327fbf6a 6261666b726569686f35793766767179337279366a6d6d6f61373637713476746e64766f336e6c707a32616a68723377766b73646368367a327579\ndata_f899fdf80fd94004f320b1892c64e9743ba86f2babf556180fec296a67b7f242 6261666b72656961796363356f7a336f6c33336b756661796e65326d666a756e736c73637176366e6977696d676b766e6c37333463366b7a64626d\n\nsub_0: assembly {\n        /* \"Portfolio.sol\":64:3016  contract Portfolio {... */\n      mstore(0x40, 0x80)\n      jumpi(tag_1, lt(calldatasize, 0x04))\n      shr(0xe0, calldataload(0x00))\n      dup1\n      0xa32ac35d\n      gt\n      tag_18\n      jumpi\n      dup1\n      0xe3763bcb\n      gt\n      tag_19\n      jumpi\n      dup1\n      0xe3763bcb\n      eq\n      tag_14\n      jumpi\n      dup1\n      0xe6120413\n      eq\n      tag_15\n      jumpi\n      dup1\n      0xed88c68e\n      eq\n      tag_16\n      jumpi\n      dup1\n      0xfe47e03e\n      eq\n      tag_17\n      jumpi\n      jump(tag_1)\n    tag_19:\n      dup1\n      0xa32ac35d\n      eq\n      tag_10\n      jumpi\n      dup1\n      0xbb33086f\n      eq\n      tag_11\n      jumpi\n      dup1\n      0xcaf7b759\n      eq\n      tag_12\n      jumpi\n      dup1\n      0xd3cedf11\n      eq\n      tag_13\n      jumpi\n      jump(tag_1)\n    tag_18:\n      dup1\n      0x6426d4c3\n      gt\n      tag_20\n      jumpi\n      dup1\n      0x6426d4c3\n      eq\n      tag_6\n      jumpi\n      dup1\n      0x6fe8e0bd\n      eq\n      tag_7\n      jumpi\n      dup1\n      0x7284e416\n      eq\n      tag_8\n      jumpi\n      dup1\n      0x7aea95aa\n      eq\n      tag_9\n      jumpi\n      jump(tag_1)\n    tag_20:\n      dup1\n      0x107046bd\n      eq\n      tag_2\n      jumpi\n      dup1\n      0x481c6a75\n      eq\n      tag_3\n      jumpi\n      dup1\n      0x598e7f37\n      eq\n      tag_4\n      jumpi\n      dup1\n      0x5cea6a7c\n      eq\n      tag_5\n      jumpi\n    tag_1:\n      0x00\n      dup1\n      revert\n        /* \"Portfolio.sol\":351:377  Project[3] public projects */\n    tag_2:\n      callvalue\n      dup1\n      iszero\n      tag_21\n      jumpi\n      0x00\n      dup1\n      revert\n    tag_21:\n      pop\n      tag_22\n      0x04\n      dup1\n      calldatasize\n      sub\n      dup2\n      add\n      swap1\n      tag_23\n      swap2\n      swap1\n      tag_24\n      jump\t// in\n    tag_23:\n      tag_25\n      jump\t// in\n    tag_22:\n      mload(0x40)\n      tag_26\n      swap6\n      swap5\n      swap4\n      swap3\n      swap2\n      swap1\n      tag_27\n      jump\t// in\n    tag_26:\n      mload(0x40)\n      dup1\n      swap2\n      sub\n      swap1\n      return\n        /* \"Portfolio.sol\":805:827  address public manager */\n    tag_3:\n      callvalue\n      dup1\n      iszero\n      tag_28\n      jumpi\n      0x00\n      dup1\n      revert\n    tag_28:\n      pop\n      tag_29\n      tag_30\n      jump\t// in\n    tag_29:\n      mload(0x40)\n      tag_31\n      swap2\n      swap1\n      tag_32\n      jump\t// in\n    tag_31:\n      mload(0x40)\n      dup1\n      swap2\n      sub\n      swap1\n      return\n        /* \"Portfolio.sol\":2689:2799  function changeImageLink(string calldata _imageLink) external onlyManager{... */\n    tag_4:\n      callvalue\n      dup1\n      iszero\n      tag_33\n      jumpi\n      0x00\n      dup1\n      revert\n    tag_33:\n      pop\n      tag_34\n      0x04\n      dup1\n      calldatasize\n      sub\n      dup2\n      add\n      swap1\n      tag_35\n      swap2\n      swap1\n      tag_36\n      jump\t// in\n    tag_35:\n      tag_37\n      jump\t// in\n    tag_34:\n      stop\n        /* \"Portfolio.sol\":517:605  string public resumeLink = \"bafkreiho5y7fvqy3ry6jmmoa767q4vtndvo3nlpz2ajhr3wvksdch6z2uy\" */\n    tag_5:\n      callvalue\n      dup1\n      iszero\n      tag_38\n      jumpi\n      0x00\n      dup1\n      revert\n    tag_38:\n      pop\n      tag_39\n      tag_40\n      jump\t// in\n    tag_39:\n      mload(0x40)\n      tag_41\n      swap2\n      swap1\n      tag_42\n      jump\t// in\n    tag_41:\n      mload(0x40)\n      dup1\n      swap2\n      sub\n      swap1\n      return\n        /* \"Portfolio.sol\":1002:1330  function insertProject(string calldata _name,string calldata _description,string calldata _image,string calldata _githubLink) external onlyManager{... */\n    tag_6:\n      callvalue\n      dup1\n      iszero\n      tag_43\n      jumpi\n      0x00\n      dup1\n      revert\n    tag_43:\n      pop\n      tag_44\n      0x04\n      dup1\n      calldatasize\n      sub\n      dup2\n      add\n      swap1\n      tag_45\n      swap2\n      swap1\n      tag_46\n      jump\t// in\n    tag_45:\n      tag_47\n      jump\t// in\n    tag_44:\n      stop\n        /* \"Portfolio.sol\":1336:1682  function changeProject(string calldata _name,string calldata _description,string calldata _image,string calldata _githubLink ,uint _projectCount) external onlyManager{... */\n    tag_7:\n      callvalue\n      dup1\n      iszero\n      tag_48\n      jumpi\n      0x00\n      dup1\n      revert\n    tag_48:\n      pop\n      tag_49\n      0x04\n      dup1\n      calldatasize\n      sub\n      dup2\n      add\n      swap1\n      tag_50\n      swap2\n      swap1\n      tag_51\n      jump\t// in\n    tag_50:\n      tag_52\n      jump\t// in\n    tag_49:\n      stop\n        /* \"Portfolio.sol\":611:751  string public description = \"Hello! I'm Dhruvil Kasodariya, a passionate developer with experience in react.js ,node.js ,next.js ,solidity.\" */\n    tag_8:\n      callvalue\n      dup1\n      iszero\n      tag_53\n      jumpi\n      0x00\n      dup1\n      revert\n    tag_53:\n      pop\n      tag_54\n      tag_55\n      jump\t// in\n    tag_54:\n      mload(0x40)\n      tag_56\n      swap2\n      swap1\n      tag_42\n      jump\t// in\n    tag_56:\n      mload(0x40)\n      dup1\n      swap2\n      sub\n      swap1\n      return\n        /* \"Portfolio.sol\":383:419  Education[3] public educationDetails */\n    tag_9:\n      callvalue\n      dup1\n      iszero\n      tag_57\n      jumpi\n      0x00\n      dup1\n      revert\n    tag_57:\n      pop\n      tag_58\n      0x04\n      dup1\n      calldatasize\n      sub\n      dup2\n      add\n      swap1\n      tag_59\n      swap2\n      swap1\n      tag_24\n      jump\t// in\n    tag_59:\n      tag_60\n      jump\t// in\n    tag_58:\n      mload(0x40)\n      tag_61\n      swap5\n      swap4\n      swap3\n      swap2\n      swap1\n      tag_62\n      jump\t// in\n    tag_61:\n      mload(0x40)\n      dup1\n      swap2\n      sub\n      swap1\n      return\n        /* \"Portfolio.sol\":2450:2556  function allEduction() external view returns (Education[3] memory){... */\n    tag_10:\n      callvalue\n      dup1\n      iszero\n      tag_63\n      jumpi\n      0x00\n      dup1\n      revert\n    tag_63:\n      pop\n      tag_64\n      tag_65\n      jump\t// in\n    tag_64:\n      mload(0x40)\n      tag_66\n      swap2\n      swap1\n      tag_67\n      jump\t// in\n    tag_66:\n      mload(0x40)\n      dup1\n      swap2\n      sub\n      swap1\n      return\n        /* \"Portfolio.sol\":2110:2444  function changeEduction(string calldata _date,string calldata _degree,string calldata _instutionName,uint _educationCount) external onlyManager{... */\n    tag_11:\n      callvalue\n      dup1\n      iszero\n      tag_68\n      jumpi\n      0x00\n      dup1\n      revert\n    tag_68:\n      pop\n      tag_69\n      0x04\n      dup1\n      calldatasize\n      sub\n      dup2\n      add\n      swap1\n      tag_70\n      swap2\n      swap1\n      tag_71\n      jump\t// in\n    tag_70:\n      tag_72\n      jump\t// in\n    tag_69:\n      stop\n        /* \"Portfolio.sol\":425:511  string public imageLink =\"bafkreiaycc5oz3ol33kufayne2mfjunslscqv6niwimgkvnl734c6kzdbm\" */\n    tag_12:\n      callvalue\n      dup1\n      iszero\n      tag_73\n      jumpi\n      0x00\n      dup1\n      revert\n    tag_73:\n      pop\n      tag_74\n      tag_75\n      jump\t// in\n    tag_74:\n      mload(0x40)\n      tag_76\n      swap2\n      swap1\n      tag_42\n      jump\t// in\n    tag_76:\n      mload(0x40)\n      dup1\n      swap2\n      sub\n      swap1\n      return\n        /* \"Portfolio.sol\":2808:2922  function changeResumeLink(string calldata _resumeLink) external onlyManager{... */\n    tag_13:\n      callvalue\n      dup1\n      iszero\n      tag_77\n      jumpi\n      0x00\n      dup1\n      revert\n    tag_77:\n      pop\n      tag_78\n      0x04\n      dup1\n      calldatasize\n      sub\n      dup2\n      add\n      swap1\n      tag_79\n      swap2\n      swap1\n      tag_36\n      jump\t// in\n    tag_79:\n      tag_80\n      jump\t// in\n    tag_78:\n      stop\n        /* \"Portfolio.sol\":1789:2104  function insertEduction(string calldata _date,string calldata _degree,string calldata _instutionName) external onlyManager{... */\n    tag_14:\n      callvalue\n      dup1\n      iszero\n      tag_81\n      jumpi\n      0x00\n      dup1\n      revert\n    tag_81:\n      pop\n      tag_82\n      0x04\n      dup1\n      calldatasize\n      sub\n      dup2\n      add\n      swap1\n      tag_83\n      swap2\n      swap1\n      tag_84\n      jump\t// in\n    tag_83:\n      tag_85\n      jump\t// in\n    tag_82:\n      stop\n        /* \"Portfolio.sol\":2562:2680  function changeDescription(string calldata _description) external onlyManager{... */\n    tag_15:\n      callvalue\n      dup1\n      iszero\n      tag_86\n      jumpi\n      0x00\n      dup1\n      revert\n    tag_86:\n      pop\n      tag_87\n      0x04\n      dup1\n      calldatasize\n      sub\n      dup2\n      add\n      swap1\n      tag_88\n      swap2\n      swap1\n      tag_36\n      jump\t// in\n    tag_88:\n      tag_89\n      jump\t// in\n    tag_87:\n      stop\n        /* \"Portfolio.sol\":2928:3014  function donate() public payable {... */\n    tag_16:\n      tag_90\n      tag_91\n      jump\t// in\n    tag_90:\n      stop\n        /* \"Portfolio.sol\":1688:1783  function allProject() external view returns (Project[3] memory){... */\n    tag_17:\n      callvalue\n      dup1\n      iszero\n      tag_92\n      jumpi\n      0x00\n      dup1\n      revert\n    tag_92:\n      pop\n      tag_93\n      tag_94\n      jump\t// in\n    tag_93:\n      mload(0x40)\n      tag_95\n      swap2\n      swap1\n      tag_96\n      jump\t// in\n    tag_95:\n      mload(0x40)\n      dup1\n      swap2\n      sub\n      swap1\n      return\n        /* \"Portfolio.sol\":351:377  Project[3] public projects */\n    tag_25:\n      0x00\n      dup2\n      0x03\n      dup2\n      lt\n      tag_97\n      jumpi\n      0x00\n      dup1\n      revert\n    tag_97:\n      0x05\n      mul\n      add\n      0x00\n      swap2\n      pop\n      swap1\n      pop\n      dup1\n      0x00\n      add\n      sload\n      swap1\n      dup1\n      0x01\n      add\n      dup1\n      sload\n      tag_99\n      swap1\n      tag_100\n      jump\t// in\n    tag_99:\n      dup1\n      0x1f\n      add\n      0x20\n      dup1\n      swap2\n      div\n      mul\n      0x20\n      add\n      mload(0x40)\n      swap1\n      dup2\n      add\n      0x40\n      mstore\n      dup1\n      swap3\n      swap2\n      swap1\n      dup2\n      dup2\n      mstore\n      0x20\n      add\n      dup3\n      dup1\n      sload\n      tag_101\n      swap1\n      tag_100\n      jump\t// in\n    tag_101:\n      dup1\n      iszero\n      tag_102\n      jumpi\n      dup1\n      0x1f\n      lt\n      tag_103\n      jumpi\n      0x0100\n      dup1\n      dup4\n      sload\n      div\n      mul\n      dup4\n      mstore\n      swap2\n      0x20\n      add\n      swap2\n      jump(tag_102)\n    tag_103:\n      dup3\n      add\n      swap2\n      swap1\n      0x00\n      mstore\n      keccak256(0x00, 0x20)\n      swap1\n    tag_104:\n      dup2\n      sload\n      dup2\n      mstore\n      swap1\n      0x01\n      add\n      swap1\n      0x20\n      add\n      dup1\n      dup4\n      gt\n      tag_104\n      jumpi\n      dup3\n      swap1\n      sub\n      0x1f\n      and\n      dup3\n      add\n      swap2\n    tag_102:\n      pop\n      pop\n      pop\n      pop\n      pop\n      swap1\n      dup1\n      0x02\n      add\n      dup1\n      sload\n      tag_105\n      swap1\n      tag_100\n      jump\t// in\n    tag_105:\n      dup1\n      0x1f\n      add\n      0x20\n      dup1\n      swap2\n      div\n      mul\n      0x20\n      add\n      mload(0x40)\n      swap1\n      dup2\n      add\n      0x40\n      mstore\n      dup1\n      swap3\n      swap2\n      swap1\n      dup2\n      dup2\n      mstore\n      0x20\n      add\n      dup3\n      dup1\n      sload\n      tag_106\n      swap1\n      tag_100\n      jump\t// in\n    tag_106:\n      dup1\n      iszero\n      tag_107\n      jumpi\n      dup1\n      0x1f\n      lt\n      tag_108\n      jumpi\n      0x0100\n      dup1\n      dup4\n      sload\n      div\n      mul\n      dup4\n      mstore\n      swap2\n      0x20\n      add\n      swap2\n      jump(tag_107)\n    tag_108:\n      dup3\n      add\n      swap2\n      swap1\n      0x00\n      mstore\n      keccak256(0x00, 0x20)\n      swap1\n    tag_109:\n      dup2\n      sload\n      dup2\n      mstore\n      swap1\n      0x01\n      add\n      swap1\n      0x20\n      add\n      dup1\n      dup4\n      gt\n      tag_109\n      jumpi\n      dup3\n      swap1\n      sub\n      0x1f\n      and\n      dup3\n      add\n      swap2\n    tag_107:\n      pop\n      pop\n      pop\n      pop\n      pop\n      swap1\n      dup1\n      0x03\n      add\n      dup1\n      sload\n      tag_110\n      swap1\n      tag_100\n      jump\t// in\n    tag_110:\n      dup1\n      0x1f\n      add\n      0x20\n      dup1\n      swap2\n      div\n      mul\n      0x20\n      add\n      mload(0x40)\n      swap1\n      dup2\n      add\n      0x40\n      mstore\n      dup1\n      swap3\n      swap2\n      swap1\n      dup2\n      dup2\n      mstore\n      0x20\n      add\n      dup3\n      dup1\n      sload\n      tag_111\n      swap1\n      tag_100\n      jump\t// in\n    tag_111:\n      dup1\n      iszero\n      tag_112\n      jumpi\n      dup1\n      0x1f\n      lt\n      tag_113\n      jumpi\n      0x0100\n      dup1\n      dup4\n      sload\n      div\n      mul\n      dup4\n      mstore\n      swap2\n      0x20\n      add\n      swap2\n      jump(tag_112)\n    tag_113:\n      dup3\n      add\n      swap2\n      swap1\n      0x00\n      mstore\n      keccak256(0x00, 0x20)\n      swap1\n    tag_114:\n      dup2\n      sload\n      dup2\n      mstore\n      swap1\n      0x01\n      add\n      swap1\n      0x20\n      add\n      dup1\n      dup4\n      gt\n      tag_114\n      jumpi\n      dup3\n      swap1\n      sub\n      0x1f\n      and\n      dup3\n      add\n      swap2\n    tag_112:\n      pop\n      pop\n      pop\n      pop\n      pop\n      swap1\n      dup1\n      0x04\n      add\n      dup1\n      sload\n      tag_115\n      swap1\n      tag_100\n      jump\t// in\n    tag_115:\n      dup1\n      0x1f\n      add\n      0x20\n      dup1\n      swap2\n      div\n      mul\n      0x20\n      add\n      mload(0x40)\n      swap1\n      dup2\n      add\n      0x40\n      mstore\n      dup1\n      swap3\n      swap2\n      swap1\n      dup2\n      dup2\n      mstore\n      0x20\n      add\n      dup3\n      dup1\n      sload\n      tag_116\n      swap1\n      tag_100\n      jump\t// in\n    tag_116:\n      dup1\n      iszero\n      tag_117\n      jumpi\n      dup1\n      0x1f\n      lt\n      tag_118\n      jumpi\n      0x0100\n      dup1\n      dup4\n      sload\n      div\n      mul\n      dup4\n      mstore\n      swap2\n      0x20\n      add\n      swap2\n      jump(tag_117)\n    tag_118:\n      dup3\n      add\n      swap2\n      swap1\n      0x00\n      mstore\n      keccak256(0x00, 0x20)\n      swap1\n    tag_119:\n      dup2\n      sload\n      dup2\n      mstore\n      swap1\n      0x01\n      add\n      swap1\n      0x20\n      add\n      dup1\n      dup4\n      gt\n      tag_119\n      jumpi\n      dup3\n      swap1\n      sub\n      0x1f\n      and\n      dup3\n      add\n      swap2\n    tag_117:\n      pop\n      pop\n      pop\n      pop\n      pop\n      swap1\n      pop\n      dup6\n      jump\t// out\n        /* \"Portfolio.sol\":805:827  address public manager */\n    tag_30:\n      0x20\n      0x00\n      swap1\n      sload\n      swap1\n      0x0100\n      exp\n      swap1\n      div\n      0xffffffffffffffffffffffffffffffffffffffff\n      and\n      dup2\n      jump\t// out\n        /* \"Portfolio.sol\":2689:2799  function changeImageLink(string calldata _imageLink) external onlyManager{... */\n    tag_37:\n        /* \"Portfolio.sol\":941:951  msg.sender */\n      caller\n        /* \"Portfolio.sol\":932:951  manager==msg.sender */\n      0xffffffffffffffffffffffffffffffffffffffff\n      and\n        /* \"Portfolio.sol\":932:939  manager */\n      0x20\n      0x00\n      swap1\n      sload\n      swap1\n      0x0100\n      exp\n      swap1\n      div\n      0xffffffffffffffffffffffffffffffffffffffff\n      and\n        /* \"Portfolio.sol\":932:951  manager==msg.sender */\n      0xffffffffffffffffffffffffffffffffffffffff\n      and\n      eq\n        /* \"Portfolio.sol\":924:978  require(manager==msg.sender,\"you are not the manager\") */\n      tag_121\n      jumpi\n      mload(0x40)\n      0x08c379a000000000000000000000000000000000000000000000000000000000\n      dup2\n      mstore\n      0x04\n      add\n      tag_122\n      swap1\n      tag_123\n      jump\t// in\n    tag_122:\n      mload(0x40)\n      dup1\n      swap2\n      sub\n      swap1\n      revert\n    tag_121:\n        /* \"Portfolio.sol\":2782:2792  _imageLink */\n      dup2\n      dup2\n        /* \"Portfolio.sol\":2772:2781  imageLink */\n      0x1b\n        /* \"Portfolio.sol\":2772:2792  imageLink=_imageLink */\n      swap2\n      dup3\n      tag_125\n      swap3\n      swap2\n      swap1\n      tag_126\n      jump\t// in\n    tag_125:\n      pop\n        /* \"Portfolio.sol\":2689:2799  function changeImageLink(string calldata _imageLink) external onlyManager{... */\n      pop\n      pop\n      jump\t// out\n        /* \"Portfolio.sol\":517:605  string public resumeLink = \"bafkreiho5y7fvqy3ry6jmmoa767q4vtndvo3nlpz2ajhr3wvksdch6z2uy\" */\n    tag_40:\n      0x1c\n      dup1\n      sload\n      tag_127\n      swap1\n      tag_100\n      jump\t// in\n    tag_127:\n      dup1\n      0x1f\n      add\n      0x20\n      dup1\n      swap2\n      div\n      mul\n      0x20\n      add\n      mload(0x40)\n      swap1\n      dup2\n      add\n      0x40\n      mstore\n      dup1\n      swap3\n      swap2\n      swap1\n      dup2\n      dup2\n      mstore\n      0x20\n      add\n      dup3\n      dup1\n      sload\n      tag_128\n      swap1\n      tag_100\n      jump\t// in\n    tag_128:\n      dup1\n      iszero\n      tag_129\n      jumpi\n      dup1\n      0x1f\n      lt\n      tag_130\n      jumpi\n      0x0100\n      dup1\n      dup4\n      sload\n      div\n      mul\n      dup4\n      mstore\n      swap2\n      0x20\n      add\n      swap2\n      jump(tag_129)\n    tag_130:\n      dup3\n      add\n      swap2\n      swap1\n      0x00\n      mstore\n      keccak256(0x00, 0x20)\n      swap1\n    tag_131:\n      dup2\n      sload\n      dup2\n      mstore\n      swap1\n      0x01\n      add\n      swap1\n      0x20\n      add\n      dup1\n      dup4\n      gt\n      tag_131\n      jumpi\n      dup3\n      swap1\n      sub\n      0x1f\n      and\n      dup3\n      add\n      swap2\n    tag_129:\n      pop\n      pop\n      pop\n      pop\n      pop\n      dup2\n      jump\t// out\n        /* \"Portfolio.sol\":1002:1330  function insertProject(string calldata _name,string calldata _description,string calldata _image,string calldata _githubLink) external onlyManager{... */\n    tag_47:\n        /* \"Portfolio.sol\":941:951  msg.sender */\n      caller\n        /* \"Portfolio.sol\":932:951  manager==msg.sender */\n      0xffffffffffffffffffffffffffffffffffffffff\n      and\n        /* \"Portfolio.sol\":932:939  manager */\n      0x20\n      0x00\n      swap1\n      sload\n      swap1\n      0x0100\n      exp\n      swap1\n      div\n      0xffffffffffffffffffffffffffffffffffffffff\n      and\n        /* \"Portfolio.sol\":932:951  manager==msg.sender */\n      0xffffffffffffffffffffffffffffffffffffffff\n      and\n      eq\n        /* \"Portfolio.sol\":924:978  require(manager==msg.sender,\"you are not the manager\") */\n      tag_133\n      jumpi\n      mload(0x40)\n      0x08c379a000000000000000000000000000000000000000000000000000000000\n      dup2\n      mstore\n      0x04\n      add\n      tag_134\n      swap1\n      tag_123\n      jump\t// in\n    tag_134:\n      mload(0x40)\n      dup1\n      swap2\n      sub\n      swap1\n      revert\n    tag_133:\n        /* \"Portfolio.sol\":1179:1180  3 */\n      0x03\n        /* \"Portfolio.sol\":1166:1178  projectCount */\n      sload(0x1e)\n        /* \"Portfolio.sol\":1166:1180  projectCount<3 */\n      lt\n        /* \"Portfolio.sol\":1158:1206  require(projectCount<3,\"Only 3 project allowed\") */\n      tag_136\n      jumpi\n      mload(0x40)\n      0x08c379a000000000000000000000000000000000000000000000000000000000\n      dup2\n      mstore\n      0x04\n      add\n      tag_137\n      swap1\n      tag_138\n      jump\t// in\n    tag_137:\n      mload(0x40)\n      dup1\n      swap2\n      sub\n      swap1\n      revert\n    tag_136:\n        /* \"Portfolio.sol\":1240:1299  Project(projectCount,_name,_description,_image,_githubLink) */\n      mload(0x40)\n      dup1\n      0xa0\n      add\n      0x40\n      mstore\n      dup1\n        /* \"Portfolio.sol\":1248:1260  projectCount */\n      sload(0x1e)\n        /* \"Portfolio.sol\":1240:1299  Project(projectCount,_name,_description,_image,_githubLink) */\n      dup2\n      mstore\n      0x20\n      add\n        /* \"Portfolio.sol\":1261:1266  _name */\n      dup10\n      dup10\n        /* \"Portfolio.sol\":1240:1299  Project(projectCount,_name,_description,_image,_githubLink) */\n      dup1\n      dup1\n      0x1f\n      add\n      0x20\n      dup1\n      swap2\n      div\n      mul\n      0x20\n      add\n      mload(0x40)\n      swap1\n      dup2\n      add\n      0x40\n      mstore\n      dup1\n      swap4\n      swap3\n      swap2\n      swap1\n      dup2\n      dup2\n      mstore\n      0x20\n      add\n      dup4\n      dup4\n      dup1\n      dup3\n      dup5\n      calldatacopy\n      0x00\n      dup2\n      dup5\n      add\n      mstore\n      not(0x1f)\n      0x1f\n      dup3\n      add\n      and\n      swap1\n      pop\n      dup1\n      dup4\n      add\n      swap3\n      pop\n      pop\n      pop\n      pop\n      pop\n      pop\n      pop\n      dup2\n      mstore\n      0x20\n      add\n        /* \"Portfolio.sol\":1267:1279  _description */\n      dup8\n      dup8\n        /* \"Portfolio.sol\":1240:1299  Project(projectCount,_name,_description,_image,_githubLink) */\n      dup1\n      dup1\n      0x1f\n      add\n      0x20\n      dup1\n      swap2\n      div\n      mul\n      0x20\n      add\n      mload(0x40)\n      swap1\n      dup2\n      add\n      0x40\n      mstore\n      dup1\n      swap4\n      swap3\n      swap2\n      swap1\n      dup2\n      dup2\n      mstore\n      0x20\n      add\n      dup4\n      dup4\n      dup1\n      dup3\n      dup5\n      calldatacopy\n      0x00\n      dup2\n      dup5\n      add\n      mstore\n      not(0x1f)\n      0x1f\n      dup3\n      add\n      and\n      swap1\n      pop\n      dup1\n      dup4\n      add\n      swap3\n      pop\n      pop\n      pop\n      pop\n      pop\n      pop\n      pop\n      dup2\n      mstore\n      0x20\n      add\n        /* \"Portfolio.sol\":1280:1286  _image */\n      dup6\n      dup6\n        /* \"Portfolio.sol\":1240:1299  Project(projectCount,_name,_description,_image,_githubLink) */\n      dup1\n      dup1\n      0x1f\n      add\n      0x20\n      dup1\n      swap2\n      div\n      mul\n      0x20\n      add\n      mload(0x40)\n      swap1\n      dup2\n      add\n      0x40\n      mstore\n      dup1\n      swap4\n      swap3\n      swap2\n      swap1\n      dup2\n      dup2\n      mstore\n      0x20\n      add\n      dup4\n      dup4\n      dup1\n      dup3\n      dup5\n      calldatacopy\n      0x00\n      dup2\n      dup5\n      add\n      mstore\n      not(0x1f)\n      0x1f\n      dup3\n      add\n      and\n      swap1\n      pop\n      dup1\n      dup4\n      add\n      swap3\n      pop\n      pop\n      pop\n      pop\n      pop\n      pop\n      pop\n      dup2\n      mstore\n      0x20\n      add\n        /* \"Portfolio.sol\":1287:1298  _githubLink */\n      dup4\n      dup4\n        /* \"Portfolio.sol\":1240:1299  Project(projectCount,_name,_description,_image,_githubLink) */\n      dup1\n      dup1\n      0x1f\n      add\n      0x20\n      dup1\n      swap2\n      div\n      mul\n      0x20\n      add\n      mload(0x40)\n      swap1\n      dup2\n      add\n      0x40\n      mstore\n      dup1\n      swap4\n      swap3\n      swap2\n      swap1\n      dup2\n      dup2\n      mstore\n      0x20\n      add\n      dup4\n      dup4\n      dup1\n      dup3\n      dup5\n      calldatacopy\n      0x00\n      dup2\n      dup5\n      add\n      mstore\n      not(0x1f)\n      0x1f\n      dup3\n      add\n      and\n      swap1\n      pop\n      dup1\n      dup4\n      add\n      swap3\n      pop\n      pop\n      pop\n      pop\n      pop\n      pop\n      pop\n      dup2\n      mstore\n      pop\n        /* \"Portfolio.sol\":1216:1224  projects */\n      0x00\n        /* \"Portfolio.sol\":1225:1237  projectCount */\n      sload(0x1e)\n        /* \"Portfolio.sol\":1216:1238  projects[projectCount] */\n      0x03\n      dup2\n      lt\n      tag_139\n      jumpi\n      tag_140\n      tag_141\n      jump\t// in\n    tag_140:\n    tag_139:\n      0x05\n      mul\n      add\n        /* \"Portfolio.sol\":1216:1299  projects[projectCount] =Project(projectCount,_name,_description,_image,_githubLink) */\n      0x00\n      dup3\n      add\n      mload\n      dup2\n      0x00\n      add\n      sstore\n      0x20\n      dup3\n      add\n      mload\n      dup2\n      0x01\n      add\n      swap1\n      dup2\n      tag_143\n      swap2\n      swap1\n      tag_144\n      jump\t// in\n    tag_143:\n      pop\n      0x40\n      dup3\n      add\n      mload\n      dup2\n      0x02\n      add\n      swap1\n      dup2\n      tag_145\n      swap2\n      swap1\n      tag_144\n      jump\t// in\n    tag_145:\n      pop\n      0x60\n      dup3\n      add\n      mload\n      dup2\n      0x03\n      add\n      swap1\n      dup2\n      tag_146\n      swap2\n      swap1\n      tag_144\n      jump\t// in\n    tag_146:\n      pop\n      0x80\n      dup3\n      add\n      mload\n      dup2\n      0x04\n      add\n      swap1\n      dup2\n      tag_147\n      swap2\n      swap1\n      tag_144\n      jump\t// in\n    tag_147:\n      pop\n      swap1\n      pop\n      pop\n        /* \"Portfolio.sol\":1309:1321  projectCount */\n      0x1e\n      0x00\n        /* \"Portfolio.sol\":1309:1323  projectCount++ */\n      dup2\n      sload\n      dup1\n      swap3\n      swap2\n      swap1\n      tag_148\n      swap1\n      tag_149\n      jump\t// in\n    tag_148:\n      swap2\n      swap1\n      pop\n      sstore\n      pop\n        /* \"Portfolio.sol\":1002:1330  function insertProject(string calldata _name,string calldata _description,string calldata _image,string calldata _githubLink) external onlyManager{... */\n      pop\n      pop\n      pop\n      pop\n      pop\n      pop\n      pop\n      pop\n      jump\t// out\n        /* \"Portfolio.sol\":1336:1682  function changeProject(string calldata _name,string calldata _description,string calldata _image,string calldata _githubLink ,uint _projectCount) external onlyManager{... */\n    tag_52:\n        /* \"Portfolio.sol\":941:951  msg.sender */\n      caller\n        /* \"Portfolio.sol\":932:951  manager==msg.sender */\n      0xffffffffffffffffffffffffffffffffffffffff\n      and\n        /* \"Portfolio.sol\":932:939  manager */\n      0x20\n      0x00\n      swap1\n      sload\n      swap1\n      0x0100\n      exp\n      swap1\n      div\n      0xffffffffffffffffffffffffffffffffffffffff\n      and\n        /* \"Portfolio.sol\":932:951  manager==msg.sender */\n      0xffffffffffffffffffffffffffffffffffffffff\n      and\n      eq\n        /* \"Portfolio.sol\":924:978  require(manager==msg.sender,\"you are not the manager\") */\n      tag_151\n      jumpi\n      mload(0x40)\n      0x08c379a000000000000000000000000000000000000000000000000000000000\n      dup2\n      mstore\n      0x04\n      add\n      tag_152\n      swap1\n      tag_123\n      jump\t// in\n    tag_152:\n      mload(0x40)\n      dup1\n      swap2\n      sub\n      swap1\n      revert\n    tag_151:\n        /* \"Portfolio.sol\":1534:1535  0 */\n      0x00\n        /* \"Portfolio.sol\":1519:1532  _projectCount */\n      dup2\n        /* \"Portfolio.sol\":1519:1535  _projectCount>=0 */\n      lt\n      iszero\n        /* \"Portfolio.sol\":1519:1554  _projectCount>=0 && _projectCount<3 */\n      dup1\n      iszero\n      tag_154\n      jumpi\n      pop\n        /* \"Portfolio.sol\":1553:1554  3 */\n      0x03\n        /* \"Portfolio.sol\":1539:1552  _projectCount */\n      dup2\n        /* \"Portfolio.sol\":1539:1554  _projectCount<3 */\n      lt\n        /* \"Portfolio.sol\":1519:1554  _projectCount>=0 && _projectCount<3 */\n    tag_154:\n        /* \"Portfolio.sol\":1511:1580  require(_projectCount>=0 && _projectCount<3,\"Only 3 project allowed\") */\n      tag_155\n      jumpi\n      mload(0x40)\n      0x08c379a000000000000000000000000000000000000000000000000000000000\n      dup2\n      mstore\n      0x04\n      add\n      tag_156\n      swap1\n      tag_138\n      jump\t// in\n    tag_156:\n      mload(0x40)\n      dup1\n      swap2\n      sub\n      swap1\n      revert\n    tag_155:\n        /* \"Portfolio.sol\":1614:1674  Project(_projectCount,_name,_description,_image,_githubLink) */\n      mload(0x40)\n      dup1\n      0xa0\n      add\n      0x40\n      mstore\n      dup1\n        /* \"Portfolio.sol\":1622:1635  _projectCount */\n      dup3\n        /* \"Portfolio.sol\":1614:1674  Project(_projectCount,_name,_description,_image,_githubLink) */\n      dup2\n      mstore\n      0x20\n      add\n        /* \"Portfolio.sol\":1636:1641  _name */\n      dup11\n      dup11\n        /* \"Portfolio.sol\":1614:1674  Project(_projectCount,_name,_description,_image,_githubLink) */\n      dup1\n      dup1\n      0x1f\n      add\n      0x20\n      dup1\n      swap2\n      div\n      mul\n      0x20\n      add\n      mload(0x40)\n      swap1\n      dup2\n      add\n      0x40\n      mstore\n      dup1\n      swap4\n      swap3\n      swap2\n      swap1\n      dup2\n      dup2\n      mstore\n      0x20\n      add\n      dup4\n      dup4\n      dup1\n      dup3\n      dup5\n      calldatacopy\n      0x00\n      dup2\n      dup5\n      add\n      mstore\n      not(0x1f)\n      0x1f\n      dup3\n      add\n      and\n      swap1\n      pop\n      dup1\n      dup4\n      add\n      swap3\n      pop\n      pop\n      pop\n      pop\n      pop\n      pop\n      pop\n      dup2\n      mstore\n      0x20\n      add\n        /* \"Portfolio.sol\":1642:1654  _description */\n      dup9\n      dup9\n        /* \"Portfolio.sol\":1614:1674  Project(_projectCount,_name,_description,_image,_githubLink) */\n      dup1\n      dup1\n      0x1f\n      add\n      0x20\n      dup1\n      swap2\n      div\n      mul\n      0x20\n      add\n      mload(0x40)\n      swap1\n      dup2\n      add\n      0x40\n      mstore\n      dup1\n      swap4\n      swap3\n      swap2\n      swap1\n      dup2\n      dup2\n      mstore\n      0x20\n      add\n      dup4\n      dup4\n      dup1\n      dup3\n      dup5\n      calldatacopy\n      0x00\n      dup2\n      dup5\n      add\n      mstore\n      not(0x1f)\n      0x1f\n      dup3\n      add\n      and\n      swap1\n      pop\n      dup1\n      dup4\n      add\n      swap3\n      pop\n      pop\n      pop\n      pop\n      pop\n      pop\n      pop\n      dup2\n      mstore\n      0x20\n      add\n        /* \"Portfolio.sol\":1655:1661  _image */\n      dup7\n      dup7\n        /* \"Portfolio.sol\":1614:1674  Project(_projectCount,_name,_description,_image,_githubLink) */\n      dup1\n      dup1\n      0x1f\n      add\n      0x20\n      dup1\n      swap2\n      div\n      mul\n      0x20\n      add\n      mload(0x40)\n      swap1\n      dup2\n      add\n      0x40\n      mstore\n      dup1\n      swap4\n      swap3\n      swap2\n      swap1\n      dup2\n      dup2\n      mstore\n      0x20\n      add\n      dup4\n      dup4\n      dup1\n      dup3\n      dup5\n      calldatacopy\n      0x00\n      dup2\n      dup5\n      add\n      mstore\n      not(0x1f)\n      0x1f\n      dup3\n      add\n      and\n      swap1\n      pop\n      dup1\n      dup4\n      add\n      swap3\n      pop\n      pop\n      pop\n      pop\n      pop\n      pop\n      pop\n      dup2\n      mstore\n      0x20\n      add\n        /* \"Portfolio.sol\":1662:1673  _githubLink */\n      dup5\n      dup5\n        /* \"Portfolio.sol\":1614:1674  Project(_projectCount,_name,_description,_image,_githubLink) */\n      dup1\n      dup1\n      0x1f\n      add\n      0x20\n      dup1\n      swap2\n      div\n      mul\n      0x20\n      add\n      mload(0x40)\n      swap1\n      dup2\n      add\n      0x40\n      mstore\n      dup1\n      swap4\n      swap3\n      swap2\n      swap1\n      dup2\n      dup2\n      mstore\n      0x20\n      add\n      dup4\n      dup4\n      dup1\n      dup3\n      dup5\n      calldatacopy\n      0x00\n      dup2\n      dup5\n      add\n      mstore\n      not(0x1f)\n      0x1f\n      dup3\n      add\n      and\n      swap1\n      pop\n      dup1\n      dup4\n      add\n      swap3\n      pop\n      pop\n      pop\n      pop\n      pop\n      pop\n      pop\n      dup2\n      mstore\n      pop\n        /* \"Portfolio.sol\":1589:1597  projects */\n      0x00\n        /* \"Portfolio.sol\":1598:1611  _projectCount */\n      dup3\n        /* \"Portfolio.sol\":1589:1612  projects[_projectCount] */\n      0x03\n      dup2\n      lt\n      tag_157\n      jumpi\n      tag_158\n      tag_141\n      jump\t// in\n    tag_158:\n    tag_157:\n      0x05\n      mul\n      add\n        /* \"Portfolio.sol\":1589:1674  projects[_projectCount] =Project(_projectCount,_name,_description,_image,_githubLink) */\n      0x00\n      dup3\n      add\n      mload\n      dup2\n      0x00\n      add\n      sstore\n      0x20\n      dup3\n      add\n      mload\n      dup2\n      0x01\n      add\n      swap1\n      dup2\n      tag_160\n      swap2\n      swap1\n      tag_144\n      jump\t// in\n    tag_160:\n      pop\n      0x40\n      dup3\n      add\n      mload\n      dup2\n      0x02\n      add\n      swap1\n      dup2\n      tag_161\n      swap2\n      swap1\n      tag_144\n      jump\t// in\n    tag_161:\n      pop\n      0x60\n      dup3\n      add\n      mload\n      dup2\n      0x03\n      add\n      swap1\n      dup2\n      tag_162\n      swap2\n      swap1\n      tag_144\n      jump\t// in\n    tag_162:\n      pop\n      0x80\n      dup3\n      add\n      mload\n      dup2\n      0x04\n      add\n      swap1\n      dup2\n      tag_163\n      swap2\n      swap1\n      tag_144\n      jump\t// in\n    tag_163:\n      pop\n      swap1\n      pop\n      pop\n        /* \"Portfolio.sol\":1336:1682  function changeProject(string calldata _name,string calldata _description,string calldata _image,string calldata _githubLink ,uint _projectCount) external onlyManager{... */\n      pop\n      pop\n      pop\n      pop\n      pop\n      pop\n      pop\n      pop\n      pop\n      jump\t// out\n        /* \"Portfolio.sol\":611:751  string public description = \"Hello! I'm Dhruvil Kasodariya, a passionate developer with experience in react.js ,node.js ,next.js ,solidity.\" */\n    tag_55:\n      0x1d\n      dup1\n      sload\n      tag_164\n      swap1\n      tag_100\n      jump\t// in\n    tag_164:\n      dup1\n      0x1f\n      add\n      0x20\n      dup1\n      swap2\n      div\n      mul\n      0x20\n      add\n      mload(0x40)\n      swap1\n      dup2\n      add\n      0x40\n      mstore\n      dup1\n      swap3\n      swap2\n      swap1\n      dup2\n      dup2\n      mstore\n      0x20\n      add\n      dup3\n      dup1\n      sload\n      tag_165\n      swap1\n      tag_100\n      jump\t// in\n    tag_165:\n      dup1\n      iszero\n      tag_166\n      jumpi\n      dup1\n      0x1f\n      lt\n      tag_167\n      jumpi\n      0x0100\n      dup1\n      dup4\n      sload\n      div\n      mul\n      dup4\n      mstore\n      swap2\n      0x20\n      add\n      swap2\n      jump(tag_166)\n    tag_167:\n      dup3\n      add\n      swap2\n      swap1\n      0x00\n      mstore\n      keccak256(0x00, 0x20)\n      swap1\n    tag_168:\n      dup2\n      sload\n      dup2\n      mstore\n      swap1\n      0x01\n      add\n      swap1\n      0x20\n      add\n      dup1\n      dup4\n      gt\n      tag_168\n      jumpi\n      dup3\n      swap1\n      sub\n      0x1f\n      and\n      dup3\n      add\n      swap2\n    tag_166:\n      pop\n      pop\n      pop\n      pop\n      pop\n      dup2\n      jump\t// out\n        /* \"Portfolio.sol\":383:419  Education[3] public educationDetails */\n    tag_60:\n      0x0f\n      dup2\n      0x03\n      dup2\n      lt\n      tag_169\n      jumpi\n      0x00\n      dup1\n      revert\n    tag_169:\n      0x04\n      mul\n      add\n      0x00\n      swap2\n      pop\n      swap1\n      pop\n      dup1\n      0x00\n      add\n      sload\n      swap1\n      dup1\n      0x01\n      add\n      dup1\n      sload\n      tag_171\n      swap1\n      tag_100\n      jump\t// in\n    tag_171:\n      dup1\n      0x1f\n      add\n      0x20\n      dup1\n      swap2\n      div\n      mul\n      0x20\n      add\n      mload(0x40)\n      swap1\n      dup2\n      add\n      0x40\n      mstore\n      dup1\n      swap3\n      swap2\n      swap1\n      dup2\n      dup2\n      mstore\n      0x20\n      add\n      dup3\n      dup1\n      sload\n      tag_172\n      swap1\n      tag_100\n      jump\t// in\n    tag_172:\n      dup1\n      iszero\n      tag_173\n      jumpi\n      dup1\n      0x1f\n      lt\n      tag_174\n      jumpi\n      0x0100\n      dup1\n      dup4\n      sload\n      div\n      mul\n      dup4\n      mstore\n      swap2\n      0x20\n      add\n      swap2\n      jump(tag_173)\n    tag_174:\n      dup3\n      add\n      swap2\n      swap1\n      0x00\n      mstore\n      keccak256(0x00, 0x20)\n      swap1\n    tag_175:\n      dup2\n      sload\n      dup2\n      mstore\n      swap1\n      0x01\n      add\n      swap1\n      0x20\n      add\n      dup1\n      dup4\n      gt\n      tag_175\n      jumpi\n      dup3\n      swap1\n      sub\n      0x1f\n      and\n      dup3\n      add\n      swap2\n    tag_173:\n      pop\n      pop\n      pop\n      pop\n      pop\n      swap1\n      dup1\n      0x02\n      add\n      dup1\n      sload\n      tag_176\n      swap1\n      tag_100\n      jump\t// in\n    tag_176:\n      dup1\n      0x1f\n      add\n      0x20\n      dup1\n      swap2\n      div\n      mul\n      0x20\n      add\n      mload(0x40)\n      swap1\n      dup2\n      add\n      0x40\n      mstore\n      dup1\n      swap3\n      swap2\n      swap1\n      dup2\n      dup2\n      mstore\n      0x20\n      add\n      dup3\n      dup1\n      sload\n      tag_177\n      swap1\n      tag_100\n      jump\t// in\n    tag_177:\n      dup1\n      iszero\n      tag_178\n      jumpi\n      dup1\n      0x1f\n      lt\n      tag_179\n      jumpi\n      0x0100\n      dup1\n      dup4\n      sload\n      div\n      mul\n      dup4\n      mstore\n      swap2\n      0x20\n      add\n      swap2\n      jump(tag_178)\n    tag_179:\n      dup3\n      add\n      swap2\n      swap1\n      0x00\n      mstore\n      keccak256(0x00, 0x20)\n      swap1\n    tag_180:\n      dup2\n      sload\n      dup2\n      mstore\n      swap1\n      0x01\n      add\n      swap1\n      0x20\n      add\n      dup1\n      dup4\n      gt\n      tag_180\n      jumpi\n      dup3\n      swap1\n      sub\n      0x1f\n      and\n      dup3\n      add\n      swap2\n    tag_178:\n      pop\n      pop\n      pop\n      pop\n      pop\n      swap1\n      dup1\n      0x03\n      add\n      dup1\n      sload\n      tag_181\n      swap1\n      tag_100\n      jump\t// in\n    tag_181:\n      dup1\n      0x1f\n      add\n      0x20\n      dup1\n      swap2\n      div\n      mul\n      0x20\n      add\n      mload(0x40)\n      swap1\n      dup2\n      add\n      0x40\n      mstore\n      dup1\n      swap3\n      swap2\n      swap1\n      dup2\n      dup2\n      mstore\n      0x20\n      add\n      dup3\n      dup1\n      sload\n      tag_182\n      swap1\n      tag_100\n      jump\t// in\n    tag_182:\n      dup1\n      iszero\n      tag_183\n      jumpi\n      dup1\n      0x1f\n      lt\n      tag_184\n      jumpi\n      0x0100\n      dup1\n      dup4\n      sload\n      div\n      mul\n      dup4\n      mstore\n      swap2\n      0x20\n      add\n      swap2\n      jump(tag_183)\n    tag_184:\n      dup3\n      add\n      swap2\n      swap1\n      0x00\n      mstore\n      keccak256(0x00, 0x20)\n      swap1\n    tag_185:\n      dup2\n      sload\n      dup2\n      mstore\n      swap1\n      0x01\n      add\n      swap1\n      0x20\n      add\n      dup1\n      dup4\n      gt\n      tag_185\n      jumpi\n      dup3\n      swap1\n      sub\n      0x1f\n      and\n      dup3\n      add\n      swap2\n    tag_183:\n      pop\n      pop\n      pop\n      pop\n      pop\n      swap1\n      pop\n      dup5\n      jump\t// out\n        /* \"Portfolio.sol\":2450:2556  function allEduction() external view returns (Education[3] memory){... */\n    tag_65:\n        /* \"Portfolio.sol\":2496:2515  Education[3] memory */\n      tag_186\n      tag_187\n      jump\t// in\n    tag_186:\n        /* \"Portfolio.sol\":2533:2549  educationDetails */\n      0x0f\n        /* \"Portfolio.sol\":2526:2549  return educationDetails */\n      0x03\n      dup1\n      0x20\n      mul\n      mload(0x40)\n      swap1\n      dup2\n      add\n      0x40\n      mstore\n      dup1\n      swap3\n      swap2\n      swap1\n      0x00\n      swap1\n    tag_189:\n      dup3\n      dup3\n      lt\n      iszero\n      tag_190\n      jumpi\n      dup4\n      dup3\n      0x04\n      mul\n      add\n      mload(0x40)\n      dup1\n      0x80\n      add\n      0x40\n      mstore\n      swap1\n      dup2\n      0x00\n      dup3\n      add\n      sload\n      dup2\n      mstore\n      0x20\n      add\n      0x01\n      dup3\n      add\n      dup1\n      sload\n      tag_192\n      swap1\n      tag_100\n      jump\t// in\n    tag_192:\n      dup1\n      0x1f\n      add\n      0x20\n      dup1\n      swap2\n      div\n      mul\n      0x20\n      add\n      mload(0x40)\n      swap1\n      dup2\n      add\n      0x40\n      mstore\n      dup1\n      swap3\n      swap2\n      swap1\n      dup2\n      dup2\n      mstore\n      0x20\n      add\n      dup3\n      dup1\n      sload\n      tag_193\n      swap1\n      tag_100\n      jump\t// in\n    tag_193:\n      dup1\n      iszero\n      tag_194\n      jumpi\n      dup1\n      0x1f\n      lt\n      tag_195\n      jumpi\n      0x0100\n      dup1\n      dup4\n      sload\n      div\n      mul\n      dup4\n      mstore\n      swap2\n      0x20\n      add\n      swap2\n      jump(tag_194)\n    tag_195:\n      dup3\n      add\n      swap2\n      swap1\n      0x00\n      mstore\n      keccak256(0x00, 0x20)\n      swap1\n    tag_196:\n      dup2\n      sload\n      dup2\n      mstore\n      swap1\n      0x01\n      add\n      swap1\n      0x20\n      add\n      dup1\n      dup4\n      gt\n      tag_196\n      jumpi\n      dup3\n      swap1\n      sub\n      0x1f\n      and\n      dup3\n      add\n      swap2\n    tag_194:\n      pop\n      pop\n      pop\n      pop\n      pop\n      dup2\n      mstore\n      0x20\n      add\n      0x02\n      dup3\n      add\n      dup1\n      sload\n      tag_197\n      swap1\n      tag_100\n      jump\t// in\n    tag_197:\n      dup1\n      0x1f\n      add\n      0x20\n      dup1\n      swap2\n      div\n      mul\n      0x20\n      add\n      mload(0x40)\n      swap1\n      dup2\n      add\n      0x40\n      mstore\n      dup1\n      swap3\n      swap2\n      swap1\n      dup2\n      dup2\n      mstore\n      0x20\n      add\n      dup3\n      dup1\n      sload\n      tag_198\n      swap1\n      tag_100\n      jump\t// in\n    tag_198:\n      dup1\n      iszero\n      tag_199\n      jumpi\n      dup1\n      0x1f\n      lt\n      tag_200\n      jumpi\n      0x0100\n      dup1\n      dup4\n      sload\n      div\n      mul\n      dup4\n      mstore\n      swap2\n      0x20\n      add\n      swap2\n      jump(tag_199)\n    tag_200:\n      dup3\n      add\n      swap2\n      swap1\n      0x00\n      mstore\n      keccak256(0x00, 0x20)\n      swap1\n    tag_201:\n      dup2\n      sload\n      dup2\n      mstore\n      swap1\n      0x01\n      add\n      swap1\n      0x20\n      add\n      dup1\n      dup4\n      gt\n      tag_201\n      jumpi\n      dup3\n      swap1\n      sub\n      0x1f\n      and\n      dup3\n      add\n      swap2\n    tag_199:\n      pop\n      pop\n      pop\n      pop\n      pop\n      dup2\n      mstore\n      0x20\n      add\n      0x03\n      dup3\n      add\n      dup1\n      sload\n      tag_202\n      swap1\n      tag_100\n      jump\t// in\n    tag_202:\n      dup1\n      0x1f\n      add\n      0x20\n      dup1\n      swap2\n      div\n      mul\n      0x20\n      add\n      mload(0x40)\n      swap1\n      dup2\n      add\n      0x40\n      mstore\n      dup1\n      swap3\n      swap2\n      swap1\n      dup2\n      dup2\n      mstore\n      0x20\n      add\n      dup3\n      dup1\n      sload\n      tag_203\n      swap1\n      tag_100\n      jump\t// in\n    tag_203:\n      dup1\n      iszero\n      tag_204\n      jumpi\n      dup1\n      0x1f\n      lt\n      tag_205\n      jumpi\n      0x0100\n      dup1\n      dup4\n      sload\n      div\n      mul\n      dup4\n      mstore\n      swap2\n      0x20\n      add\n      swap2\n      jump(tag_204)\n    tag_205:\n      dup3\n      add\n      swap2\n      swap1\n      0x00\n      mstore\n      keccak256(0x00, 0x20)\n      swap1\n    tag_206:\n      dup2\n      sload\n      dup2\n      mstore\n      swap1\n      0x01\n      add\n      swap1\n      0x20\n      add\n      dup1\n      dup4\n      gt\n      tag_206\n      jumpi\n      dup3\n      swap1\n      sub\n      0x1f\n      and\n      dup3\n      add\n      swap2\n    tag_204:\n      pop\n      pop\n      pop\n      pop\n      pop\n      dup2\n      mstore\n      pop\n      pop\n      dup2\n      mstore\n      0x20\n      add\n      swap1\n      0x01\n      add\n      swap1\n      jump(tag_189)\n    tag_190:\n      pop\n      pop\n      pop\n      pop\n      swap1\n      pop\n        /* \"Portfolio.sol\":2450:2556  function allEduction() external view returns (Education[3] memory){... */\n      swap1\n      jump\t// out\n        /* \"Portfolio.sol\":2110:2444  function changeEduction(string calldata _date,string calldata _degree,string calldata _instutionName,uint _educationCount) external onlyManager{... */\n    tag_72:\n        /* \"Portfolio.sol\":941:951  msg.sender */\n      caller\n        /* \"Portfolio.sol\":932:951  manager==msg.sender */\n      0xffffffffffffffffffffffffffffffffffffffff\n      and\n        /* \"Portfolio.sol\":932:939  manager */\n      0x20\n      0x00\n      swap1\n      sload\n      swap1\n      0x0100\n      exp\n      swap1\n      div\n      0xffffffffffffffffffffffffffffffffffffffff\n      and\n        /* \"Portfolio.sol\":932:951  manager==msg.sender */\n      0xffffffffffffffffffffffffffffffffffffffff\n      and\n      eq\n        /* \"Portfolio.sol\":924:978  require(manager==msg.sender,\"you are not the manager\") */\n      tag_208\n      jumpi\n      mload(0x40)\n      0x08c379a000000000000000000000000000000000000000000000000000000000\n      dup2\n      mstore\n      0x04\n      add\n      tag_209\n      swap1\n      tag_123\n      jump\t// in\n    tag_209:\n      mload(0x40)\n      dup1\n      swap2\n      sub\n      swap1\n      revert\n    tag_208:\n        /* \"Portfolio.sol\":2287:2288  0 */\n      0x00\n        /* \"Portfolio.sol\":2270:2285  _educationCount */\n      dup2\n        /* \"Portfolio.sol\":2270:2288  _educationCount>=0 */\n      lt\n      iszero\n        /* \"Portfolio.sol\":2270:2309  _educationCount>=0 && _educationCount<3 */\n      dup1\n      iszero\n      tag_211\n      jumpi\n      pop\n        /* \"Portfolio.sol\":2308:2309  3 */\n      0x03\n        /* \"Portfolio.sol\":2292:2307  _educationCount */\n      dup2\n        /* \"Portfolio.sol\":2292:2309  _educationCount<3 */\n      lt\n        /* \"Portfolio.sol\":2270:2309  _educationCount>=0 && _educationCount<3 */\n    tag_211:\n        /* \"Portfolio.sol\":2262:2337  require(_educationCount>=0 && _educationCount<3,\"Only 3 education allowed\") */\n      tag_212\n      jumpi\n      mload(0x40)\n      0x08c379a000000000000000000000000000000000000000000000000000000000\n      dup2\n      mstore\n      0x04\n      add\n      tag_213\n      swap1\n      tag_214\n      jump\t// in\n    tag_213:\n      mload(0x40)\n      dup1\n      swap2\n      sub\n      swap1\n      revert\n    tag_212:\n        /* \"Portfolio.sol\":2381:2436  Education(_educationCount,_date,_degree,_instutionName) */\n      mload(0x40)\n      dup1\n      0x80\n      add\n      0x40\n      mstore\n      dup1\n        /* \"Portfolio.sol\":2391:2406  _educationCount */\n      dup3\n        /* \"Portfolio.sol\":2381:2436  Education(_educationCount,_date,_degree,_instutionName) */\n      dup2\n      mstore\n      0x20\n      add\n        /* \"Portfolio.sol\":2407:2412  _date */\n      dup9\n      dup9\n        /* \"Portfolio.sol\":2381:2436  Education(_educationCount,_date,_degree,_instutionName) */\n      dup1\n      dup1\n      0x1f\n      add\n      0x20\n      dup1\n      swap2\n      div\n      mul\n      0x20\n      add\n      mload(0x40)\n      swap1\n      dup2\n      add\n      0x40\n      mstore\n      dup1\n      swap4\n      swap3\n      swap2\n      swap1\n      dup2\n      dup2\n      mstore\n      0x20\n      add\n      dup4\n      dup4\n      dup1\n      dup3\n      dup5\n      calldatacopy\n      0x00\n      dup2\n      dup5\n      add\n      mstore\n      not(0x1f)\n      0x1f\n      dup3\n      add\n      and\n      swap1\n      pop\n      dup1\n      dup4\n      add\n      swap3\n      pop\n      pop\n      pop\n      pop\n      pop\n      pop\n      pop\n      dup2\n      mstore\n      0x20\n      add\n        /* \"Portfolio.sol\":2413:2420  _degree */\n      dup7\n      dup7\n        /* \"Portfolio.sol\":2381:2436  Education(_educationCount,_date,_degree,_instutionName) */\n      dup1\n      dup1\n      0x1f\n      add\n      0x20\n      dup1\n      swap2\n      div\n      mul\n      0x20\n      add\n      mload(0x40)\n      swap1\n      dup2\n      add\n      0x40\n      mstore\n      dup1\n      swap4\n      swap3\n      swap2\n      swap1\n      dup2\n      dup2\n      mstore\n      0x20\n      add\n      dup4\n      dup4\n      dup1\n      dup3\n      dup5\n      calldatacopy\n      0x00\n      dup2\n      dup5\n      add\n      mstore\n      not(0x1f)\n      0x1f\n      dup3\n      add\n      and\n      swap1\n      pop\n      dup1\n      dup4\n      add\n      swap3\n      pop\n      pop\n      pop\n      pop\n      pop\n      pop\n      pop\n      dup2\n      mstore\n      0x20\n      add\n        /* \"Portfolio.sol\":2421:2435  _instutionName */\n      dup5\n      dup5\n        /* \"Portfolio.sol\":2381:2436  Education(_educationCount,_date,_degree,_instutionName) */\n      dup1\n      dup1\n      0x1f\n      add\n      0x20\n      dup1\n      swap2\n      div\n      mul\n      0x20\n      add\n      mload(0x40)\n      swap1\n      dup2\n      add\n      0x40\n      mstore\n      dup1\n      swap4\n      swap3\n      swap2\n      swap1\n      dup2\n      dup2\n      mstore\n      0x20\n      add\n      dup4\n      dup4\n      dup1\n      dup3\n      dup5\n      calldatacopy\n      0x00\n      dup2\n      dup5\n      add\n      mstore\n      not(0x1f)\n      0x1f\n      dup3\n      add\n      and\n      swap1\n      pop\n      dup1\n      dup4\n      add\n      swap3\n      pop\n      pop\n      pop\n      pop\n      pop\n      pop\n      pop\n      dup2\n      mstore\n      pop\n        /* \"Portfolio.sol\":2346:2362  educationDetails */\n      0x0f\n        /* \"Portfolio.sol\":2363:2378  _educationCount */\n      dup3\n        /* \"Portfolio.sol\":2346:2379  educationDetails[_educationCount] */\n      0x03\n      dup2\n      lt\n      tag_215\n      jumpi\n      tag_216\n      tag_141\n      jump\t// in\n    tag_216:\n    tag_215:\n      0x04\n      mul\n      add\n        /* \"Portfolio.sol\":2346:2436  educationDetails[_educationCount] =Education(_educationCount,_date,_degree,_instutionName) */\n      0x00\n      dup3\n      add\n      mload\n      dup2\n      0x00\n      add\n      sstore\n      0x20\n      dup3\n      add\n      mload\n      dup2\n      0x01\n      add\n      swap1\n      dup2\n      tag_218\n      swap2\n      swap1\n      tag_144\n      jump\t// in\n    tag_218:\n      pop\n      0x40\n      dup3\n      add\n      mload\n      dup2\n      0x02\n      add\n      swap1\n      dup2\n      tag_219\n      swap2\n      swap1\n      tag_144\n      jump\t// in\n    tag_219:\n      pop\n      0x60\n      dup3\n      add\n      mload\n      dup2\n      0x03\n      add\n      swap1\n      dup2\n      tag_220\n      swap2\n      swap1\n      tag_144\n      jump\t// in\n    tag_220:\n      pop\n      swap1\n      pop\n      pop\n        /* \"Portfolio.sol\":2110:2444  function changeEduction(string calldata _date,string calldata _degree,string calldata _instutionName,uint _educationCount) external onlyManager{... */\n      pop\n      pop\n      pop\n      pop\n      pop\n      pop\n      pop\n      jump\t// out\n        /* \"Portfolio.sol\":425:511  string public imageLink =\"bafkreiaycc5oz3ol33kufayne2mfjunslscqv6niwimgkvnl734c6kzdbm\" */\n    tag_75:\n      0x1b\n      dup1\n      sload\n      tag_221\n      swap1\n      tag_100\n      jump\t// in\n    tag_221:\n      dup1\n      0x1f\n      add\n      0x20\n      dup1\n      swap2\n      div\n      mul\n      0x20\n      add\n      mload(0x40)\n      swap1\n      dup2\n      add\n      0x40\n      mstore\n      dup1\n      swap3\n      swap2\n      swap1\n      dup2\n      dup2\n      mstore\n      0x20\n      add\n      dup3\n      dup1\n      sload\n      tag_222\n      swap1\n      tag_100\n      jump\t// in\n    tag_222:\n      dup1\n      iszero\n      tag_223\n      jumpi\n      dup1\n      0x1f\n      lt\n      tag_224\n      jumpi\n      0x0100\n      dup1\n      dup4\n      sload\n      div\n      mul\n      dup4\n      mstore\n      swap2\n      0x20\n      add\n      swap2\n      jump(tag_223)\n    tag_224:\n      dup3\n      add\n      swap2\n      swap1\n      0x00\n      mstore\n      keccak256(0x00, 0x20)\n      swap1\n    tag_225:\n      dup2\n      sload\n      dup2\n      mstore\n      swap1\n      0x01\n      add\n      swap1\n      0x20\n      add\n      dup1\n      dup4\n      gt\n      tag_225\n      jumpi\n      dup3\n      swap1\n      sub\n      0x1f\n      and\n      dup3\n      add\n      swap2\n    tag_223:\n      pop\n      pop\n      pop\n      pop\n      pop\n      dup2\n      jump\t// out\n        /* \"Portfolio.sol\":2808:2922  function changeResumeLink(string calldata _resumeLink) external onlyManager{... */\n    tag_80:\n        /* \"Portfolio.sol\":941:951  msg.sender */\n      caller\n        /* \"Portfolio.sol\":932:951  manager==msg.sender */\n      0xffffffffffffffffffffffffffffffffffffffff\n      and\n        /* \"Portfolio.sol\":932:939  manager */\n      0x20\n      0x00\n      swap1\n      sload\n      swap1\n      0x0100\n      exp\n      swap1\n      div\n      0xffffffffffffffffffffffffffffffffffffffff\n      and\n        /* \"Portfolio.sol\":932:951  manager==msg.sender */\n      0xffffffffffffffffffffffffffffffffffffffff\n      and\n      eq\n        /* \"Portfolio.sol\":924:978  require(manager==msg.sender,\"you are not the manager\") */\n      tag_227\n      jumpi\n      mload(0x40)\n      0x08c379a000000000000000000000000000000000000000000000000000000000\n      dup2\n      mstore\n      0x04\n      add\n      tag_228\n      swap1\n      tag_123\n      jump\t// in\n    tag_228:\n      mload(0x40)\n      dup1\n      swap2\n      sub\n      swap1\n      revert\n    tag_227:\n        /* \"Portfolio.sol\":2904:2915  _resumeLink */\n      dup2\n      dup2\n        /* \"Portfolio.sol\":2893:2903  resumeLink */\n      0x1c\n        /* \"Portfolio.sol\":2893:2915  resumeLink=_resumeLink */\n      swap2\n      dup3\n      tag_230\n      swap3\n      swap2\n      swap1\n      tag_126\n      jump\t// in\n    tag_230:\n      pop\n        /* \"Portfolio.sol\":2808:2922  function changeResumeLink(string calldata _resumeLink) external onlyManager{... */\n      pop\n      pop\n      jump\t// out\n        /* \"Portfolio.sol\":1789:2104  function insertEduction(string calldata _date,string calldata _degree,string calldata _instutionName) external onlyManager{... */\n    tag_85:\n        /* \"Portfolio.sol\":941:951  msg.sender */\n      caller\n        /* \"Portfolio.sol\":932:951  manager==msg.sender */\n      0xffffffffffffffffffffffffffffffffffffffff\n      and\n        /* \"Portfolio.sol\":932:939  manager */\n      0x20\n      0x00\n      swap1\n      sload\n      swap1\n      0x0100\n      exp\n      swap1\n      div\n      0xffffffffffffffffffffffffffffffffffffffff\n      and\n        /* \"Portfolio.sol\":932:951  manager==msg.sender */\n      0xffffffffffffffffffffffffffffffffffffffff\n      and\n      eq\n        /* \"Portfolio.sol\":924:978  require(manager==msg.sender,\"you are not the manager\") */\n      tag_232\n      jumpi\n      mload(0x40)\n      0x08c379a000000000000000000000000000000000000000000000000000000000\n      dup2\n      mstore\n      0x04\n      add\n      tag_233\n      swap1\n      tag_123\n      jump\t// in\n    tag_233:\n      mload(0x40)\n      dup1\n      swap2\n      sub\n      swap1\n      revert\n    tag_232:\n        /* \"Portfolio.sol\":1944:1945  3 */\n      0x03\n        /* \"Portfolio.sol\":1929:1943  educationCount */\n      sload(0x1f)\n        /* \"Portfolio.sol\":1929:1945  educationCount<3 */\n      lt\n        /* \"Portfolio.sol\":1921:1973  require(educationCount<3,\"Only 3 education allowed\") */\n      tag_235\n      jumpi\n      mload(0x40)\n      0x08c379a000000000000000000000000000000000000000000000000000000000\n      dup2\n      mstore\n      0x04\n      add\n      tag_236\n      swap1\n      tag_214\n      jump\t// in\n    tag_236:\n      mload(0x40)\n      dup1\n      swap2\n      sub\n      swap1\n      revert\n    tag_235:\n        /* \"Portfolio.sol\":2017:2071  Education(educationCount,_date,_degree,_instutionName) */\n      mload(0x40)\n      dup1\n      0x80\n      add\n      0x40\n      mstore\n      dup1\n        /* \"Portfolio.sol\":2027:2041  educationCount */\n      sload(0x1f)\n        /* \"Portfolio.sol\":2017:2071  Education(educationCount,_date,_degree,_instutionName) */\n      dup2\n      mstore\n      0x20\n      add\n        /* \"Portfolio.sol\":2042:2047  _date */\n      dup8\n      dup8\n        /* \"Portfolio.sol\":2017:2071  Education(educationCount,_date,_degree,_instutionName) */\n      dup1\n      dup1\n      0x1f\n      add\n      0x20\n      dup1\n      swap2\n      div\n      mul\n      0x20\n      add\n      mload(0x40)\n      swap1\n      dup2\n      add\n      0x40\n      mstore\n      dup1\n      swap4\n      swap3\n      swap2\n      swap1\n      dup2\n      dup2\n      mstore\n      0x20\n      add\n      dup4\n      dup4\n      dup1\n      dup3\n      dup5\n      calldatacopy\n      0x00\n      dup2\n      dup5\n      add\n      mstore\n      not(0x1f)\n      0x1f\n      dup3\n      add\n      and\n      swap1\n      pop\n      dup1\n      dup4\n      add\n      swap3\n      pop\n      pop\n      pop\n      pop\n      pop\n      pop\n      pop\n      dup2\n      mstore\n      0x20\n      add\n        /* \"Portfolio.sol\":2048:2055  _degree */\n      dup6\n      dup6\n        /* \"Portfolio.sol\":2017:2071  Education(educationCount,_date,_degree,_instutionName) */\n      dup1\n      dup1\n      0x1f\n      add\n      0x20\n      dup1\n      swap2\n      div\n      mul\n      0x20\n      add\n      mload(0x40)\n      swap1\n      dup2\n      add\n      0x40\n      mstore\n      dup1\n      swap4\n      swap3\n      swap2\n      swap1\n      dup2\n      dup2\n      mstore\n      0x20\n      add\n      dup4\n      dup4\n      dup1\n      dup3\n      dup5\n      calldatacopy\n      0x00\n      dup2\n      dup5\n      add\n      mstore\n      not(0x1f)\n      0x1f\n      dup3\n      add\n      and\n      swap1\n      pop\n      dup1\n      dup4\n      add\n      swap3\n      pop\n      pop\n      pop\n      pop\n      pop\n      pop\n      pop\n      dup2\n      mstore\n      0x20\n      add\n        /* \"Portfolio.sol\":2056:2070  _instutionName */\n      dup4\n      dup4\n        /* \"Portfolio.sol\":2017:2071  Education(educationCount,_date,_degree,_instutionName) */\n      dup1\n      dup1\n      0x1f\n      add\n      0x20\n      dup1\n      swap2\n      div\n      mul\n      0x20\n      add\n      mload(0x40)\n      swap1\n      dup2\n      add\n      0x40\n      mstore\n      dup1\n      swap4\n      swap3\n      swap2\n      swap1\n      dup2\n      dup2\n      mstore\n      0x20\n      add\n      dup4\n      dup4\n      dup1\n      dup3\n      dup5\n      calldatacopy\n      0x00\n      dup2\n      dup5\n      add\n      mstore\n      not(0x1f)\n      0x1f\n      dup3\n      add\n      and\n      swap1\n      pop\n      dup1\n      dup4\n      add\n      swap3\n      pop\n      pop\n      pop\n      pop\n      pop\n      pop\n      pop\n      dup2\n      mstore\n      pop\n        /* \"Portfolio.sol\":1983:1999  educationDetails */\n      0x0f\n        /* \"Portfolio.sol\":2000:2014  educationCount */\n      sload(0x1f)\n        /* \"Portfolio.sol\":1983:2015  educationDetails[educationCount] */\n      0x03\n      dup2\n      lt\n      tag_237\n      jumpi\n      tag_238\n      tag_141\n      jump\t// in\n    tag_238:\n    tag_237:\n      0x04\n      mul\n      add\n        /* \"Portfolio.sol\":1983:2071  educationDetails[educationCount] =Education(educationCount,_date,_degree,_instutionName) */\n      0x00\n      dup3\n      add\n      mload\n      dup2\n      0x00\n      add\n      sstore\n      0x20\n      dup3\n      add\n      mload\n      dup2\n      0x01\n      add\n      swap1\n      dup2\n      tag_240\n      swap2\n      swap1\n      tag_144\n      jump\t// in\n    tag_240:\n      pop\n      0x40\n      dup3\n      add\n      mload\n      dup2\n      0x02\n      add\n      swap1\n      dup2\n      tag_241\n      swap2\n      swap1\n      tag_144\n      jump\t// in\n    tag_241:\n      pop\n      0x60\n      dup3\n      add\n      mload\n      dup2\n      0x03\n      add\n      swap1\n      dup2\n      tag_242\n      swap2\n      swap1\n      tag_144\n      jump\t// in\n    tag_242:\n      pop\n      swap1\n      pop\n      pop\n        /* \"Portfolio.sol\":2081:2095  educationCount */\n      0x1f\n      0x00\n        /* \"Portfolio.sol\":2081:2097  educationCount++ */\n      dup2\n      sload\n      dup1\n      swap3\n      swap2\n      swap1\n      tag_243\n      swap1\n      tag_149\n      jump\t// in\n    tag_243:\n      swap2\n      swap1\n      pop\n      sstore\n      pop\n        /* \"Portfolio.sol\":1789:2104  function insertEduction(string calldata _date,string calldata _degree,string calldata _instutionName) external onlyManager{... */\n      pop\n      pop\n      pop\n      pop\n      pop\n      pop\n      jump\t// out\n        /* \"Portfolio.sol\":2562:2680  function changeDescription(string calldata _description) external onlyManager{... */\n    tag_89:\n        /* \"Portfolio.sol\":941:951  msg.sender */\n      caller\n        /* \"Portfolio.sol\":932:951  manager==msg.sender */\n      0xffffffffffffffffffffffffffffffffffffffff\n      and\n        /* \"Portfolio.sol\":932:939  manager */\n      0x20\n      0x00\n      swap1\n      sload\n      swap1\n      0x0100\n      exp\n      swap1\n      div\n      0xffffffffffffffffffffffffffffffffffffffff\n      and\n        /* \"Portfolio.sol\":932:951  manager==msg.sender */\n      0xffffffffffffffffffffffffffffffffffffffff\n      and\n      eq\n        /* \"Portfolio.sol\":924:978  require(manager==msg.sender,\"you are not the manager\") */\n      tag_245\n      jumpi\n      mload(0x40)\n      0x08c379a000000000000000000000000000000000000000000000000000000000\n      dup2\n      mstore\n      0x04\n      add\n      tag_246\n      swap1\n      tag_123\n      jump\t// in\n    tag_246:\n      mload(0x40)\n      dup1\n      swap2\n      sub\n      swap1\n      revert\n    tag_245:\n        /* \"Portfolio.sol\":2661:2673  _description */\n      dup2\n      dup2\n        /* \"Portfolio.sol\":2649:2660  description */\n      0x1d\n        /* \"Portfolio.sol\":2649:2673  description=_description */\n      swap2\n      dup3\n      tag_248\n      swap3\n      swap2\n      swap1\n      tag_126\n      jump\t// in\n    tag_248:\n      pop\n        /* \"Portfolio.sol\":2562:2680  function changeDescription(string calldata _description) external onlyManager{... */\n      pop\n      pop\n      jump\t// out\n        /* \"Portfolio.sol\":2928:3014  function donate() public payable {... */\n    tag_91:\n        /* \"Portfolio.sol\":2979:2986  manager */\n      0x20\n      0x00\n      swap1\n      sload\n      swap1\n      0x0100\n      exp\n      swap1\n      div\n      0xffffffffffffffffffffffffffffffffffffffff\n      and\n        /* \"Portfolio.sol\":2971:2996  payable(manager).transfer */\n      0xffffffffffffffffffffffffffffffffffffffff\n      and\n        /* \"Portfolio.sol\":2971:3007  payable(manager).transfer(msg.value) */\n      0x08fc\n        /* \"Portfolio.sol\":2997:3006  msg.value */\n      callvalue\n        /* \"Portfolio.sol\":2971:3007  payable(manager).transfer(msg.value) */\n      swap1\n      dup2\n      iszero\n      mul\n      swap1\n      mload(0x40)\n      0x00\n      mload(0x40)\n      dup1\n      dup4\n      sub\n      dup2\n      dup6\n      dup9\n      dup9\n      call\n      swap4\n      pop\n      pop\n      pop\n      pop\n      iszero\n      dup1\n      iszero\n      tag_251\n      jumpi\n      returndatasize\n      0x00\n      dup1\n      returndatacopy\n      revert(0x00, returndatasize)\n    tag_251:\n      pop\n        /* \"Portfolio.sol\":2928:3014  function donate() public payable {... */\n      jump\t// out\n        /* \"Portfolio.sol\":1688:1783  function allProject() external view returns (Project[3] memory){... */\n    tag_94:\n        /* \"Portfolio.sol\":1733:1750  Project[3] memory */\n      tag_252\n      tag_253\n      jump\t// in\n    tag_252:\n        /* \"Portfolio.sol\":1768:1776  projects */\n      0x00\n        /* \"Portfolio.sol\":1761:1776  return projects */\n      0x03\n      dup1\n      0x20\n      mul\n      mload(0x40)\n      swap1\n      dup2\n      add\n      0x40\n      mstore\n      dup1\n      swap3\n      swap2\n      swap1\n      0x00\n      swap1\n    tag_255:\n      dup3\n      dup3\n      lt\n      iszero\n      tag_256\n      jumpi\n      dup4\n      dup3\n      0x05\n      mul\n      add\n      mload(0x40)\n      dup1\n      0xa0\n      add\n      0x40\n      mstore\n      swap1\n      dup2\n      0x00\n      dup3\n      add\n      sload\n      dup2\n      mstore\n      0x20\n      add\n      0x01\n      dup3\n      add\n      dup1\n      sload\n      tag_258\n      swap1\n      tag_100\n      jump\t// in\n    tag_258:\n      dup1\n      0x1f\n      add\n      0x20\n      dup1\n      swap2\n      div\n      mul\n      0x20\n      add\n      mload(0x40)\n      swap1\n      dup2\n      add\n      0x40\n      mstore\n      dup1\n      swap3\n      swap2\n      swap1\n      dup2\n      dup2\n      mstore\n      0x20\n      add\n      dup3\n      dup1\n      sload\n      tag_259\n      swap1\n      tag_100\n      jump\t// in\n    tag_259:\n      dup1\n      iszero\n      tag_260\n      jumpi\n      dup1\n      0x1f\n      lt\n      tag_261\n      jumpi\n      0x0100\n      dup1\n      dup4\n      sload\n      div\n      mul\n      dup4\n      mstore\n      swap2\n      0x20\n      add\n      swap2\n      jump(tag_260)\n    tag_261:\n      dup3\n      add\n      swap2\n      swap1\n      0x00\n      mstore\n      keccak256(0x00, 0x20)\n      swap1\n    tag_262:\n      dup2\n      sload\n      dup2\n      mstore\n      swap1\n      0x01\n      add\n      swap1\n      0x20\n      add\n      dup1\n      dup4\n      gt\n      tag_262\n      jumpi\n      dup3\n      swap1\n      sub\n      0x1f\n      and\n      dup3\n      add\n      swap2\n    tag_260:\n      pop\n      pop\n      pop\n      pop\n      pop\n      dup2\n      mstore\n      0x20\n      add\n      0x02\n      dup3\n      add\n      dup1\n      sload\n      tag_263\n      swap1\n      tag_100\n      jump\t// in\n    tag_263:\n      dup1\n      0x1f\n      add\n      0x20\n      dup1\n      swap2\n      div\n      mul\n      0x20\n      add\n      mload(0x40)\n      swap1\n      dup2\n      add\n      0x40\n      mstore\n      dup1\n      swap3\n      swap2\n      swap1\n      dup2\n      dup2\n      mstore\n      0x20\n      add\n      dup3\n      dup1\n      sload\n      tag_264\n      swap1\n      tag_100\n      jump\t// in\n    tag_264:\n      dup1\n      iszero\n      tag_265\n      jumpi\n      dup1\n      0x1f\n      lt\n      tag_266\n      jumpi\n      0x0100\n      dup1\n      dup4\n      sload\n      div\n      mul\n      dup4\n      mstore\n      swap2\n      0x20\n      add\n      swap2\n      jump(tag_265)\n    tag_266:\n      dup3\n      add\n      swap2\n      swap1\n      0x00\n      mstore\n      keccak256(0x00, 0x20)\n      swap1\n    tag_267:\n      dup2\n      sload\n      dup2\n      mstore\n      swap1\n      0x01\n      add\n      swap1\n      0x20\n      add\n      dup1\n      dup4\n      gt\n      tag_267\n      jumpi\n      dup3\n      swap1\n      sub\n      0x1f\n      and\n      dup3\n      add\n      swap2\n    tag_265:\n      pop\n      pop\n      pop\n      pop\n      pop\n      dup2\n      mstore\n      0x20\n      add\n      0x03\n      dup3\n      add\n      dup1\n      sload\n      tag_268\n      swap1\n      tag_100\n      jump\t// in\n    tag_268:\n      dup1\n      0x1f\n      add\n      0x20\n      dup1\n      swap2\n      div\n      mul\n      0x20\n      add\n      mload(0x40)\n      swap1\n      dup2\n      add\n      0x40\n      mstore\n      dup1\n      swap3\n      swap2\n      swap1\n      dup2\n      dup2\n      mstore\n      0x20\n      add\n      dup3\n      dup1\n      sload\n      tag_269\n      swap1\n      tag_100\n      jump\t// in\n    tag_269:\n      dup1\n      iszero\n      tag_270\n      jumpi\n      dup1\n      0x1f\n      lt\n      tag_271\n      jumpi\n      0x0100\n      dup1\n      dup4\n      sload\n      div\n      mul\n      dup4\n      mstore\n      swap2\n      0x20\n      add\n      swap2\n      jump(tag_270)\n    tag_271:\n      dup3\n      add\n      swap2\n      swap1\n      0x00\n      mstore\n      keccak256(0x00, 0x20)\n      swap1\n    tag_272:\n      dup2\n      sload\n      dup2\n      mstore\n      swap1\n      0x01\n      add\n      swap1\n      0x20\n      add\n      dup1\n      dup4\n      gt\n      tag_272\n      jumpi\n      dup3\n      swap1\n      sub\n      0x1f\n      and\n      dup3\n      add\n      swap2\n    tag_270:\n      pop\n      pop\n      pop\n      pop\n      pop\n      dup2\n      mstore\n      0x20\n      add\n      0x04\n      dup3\n      add\n      dup1\n      sload\n      tag_273\n      swap1\n      tag_100\n      jump\t// in\n    tag_273:\n      dup1\n      0x1f\n      add\n      0x20\n      dup1\n      swap2\n      div\n      mul\n      0x20\n      add\n      mload(0x40)\n      swap1\n      dup2\n      add\n      0x40\n      mstore\n      dup1\n      swap3\n      swap2\n      swap1\n      dup2\n      dup2\n      mstore\n      0x20\n      add\n      dup3\n      dup1\n      sload\n      tag_274\n      swap1\n      tag_100\n      jump\t// in\n    tag_274:\n      dup1\n      iszero\n      tag_275\n      jumpi\n      dup1\n      0x1f\n      lt\n      tag_276\n      jumpi\n      0x0100\n      dup1\n      dup4\n      sload\n      div\n      mul\n      dup4\n      mstore\n      swap2\n      0x20\n      add\n      swap2\n      jump(tag_275)\n    tag_276:\n      dup3\n      add\n      swap2\n      swap1\n      0x00\n      mstore\n      keccak256(0x00, 0x20)\n      swap1\n    tag_277:\n      dup2\n      sload\n      dup2\n      mstore\n      swap1\n      0x01\n      add\n      swap1\n      0x20\n      add\n      dup1\n      dup4\n      gt\n      tag_277\n      jumpi\n      dup3\n      swap1\n      sub\n      0x1f\n      and\n      dup3\n      add\n      swap2\n    tag_275:\n      pop\n      pop\n      pop\n      pop\n      pop\n      dup2\n      mstore\n      pop\n      pop\n      dup2\n      mstore\n      0x20\n      add\n      swap1\n      0x01\n      add\n      swap1\n      jump(tag_255)\n    tag_256:\n      pop\n      pop\n      pop\n      pop\n      swap1\n      pop\n        /* \"Portfolio.sol\":1688:1783  function allProject() external view returns (Project[3] memory){... */\n      swap1\n      jump\t// out\n    tag_187:\n      mload(0x40)\n      dup1\n      0x60\n      add\n      0x40\n      mstore\n      dup1\n      0x03\n      swap1\n    tag_278:\n      tag_279\n      tag_280\n      jump\t// in\n    tag_279:\n      dup2\n      mstore\n      0x20\n      add\n      swap1\n      0x01\n      swap1\n      sub\n      swap1\n      dup2\n      tag_278\n      jumpi\n      swap1\n      pop\n      pop\n      swap1\n      jump\t// out\n    tag_253:\n      mload(0x40)\n      dup1\n      0x60\n      add\n      0x40\n      mstore\n      dup1\n      0x03\n      swap1\n    tag_281:\n      tag_282\n      tag_283\n      jump\t// in\n    tag_282:\n      dup2\n      mstore\n      0x20\n      add\n      swap1\n      0x01\n      swap1\n      sub\n      swap1\n      dup2\n      tag_281\n      jumpi\n      swap1\n      pop\n      pop\n      swap1\n      jump\t// out\n    tag_280:\n      mload(0x40)\n      dup1\n      0x80\n      add\n      0x40\n      mstore\n      dup1\n      0x00\n      dup2\n      mstore\n      0x20\n      add\n      0x60\n      dup2\n      mstore\n      0x20\n      add\n      0x60\n      dup2\n      mstore\n      0x20\n      add\n      0x60\n      dup2\n      mstore\n      pop\n      swap1\n      jump\t// out\n    tag_283:\n      mload(0x40)\n      dup1\n      0xa0\n      add\n      0x40\n      mstore\n      dup1\n      0x00\n      dup2\n      mstore\n      0x20\n      add\n      0x60\n      dup2\n      mstore\n      0x20\n      add\n      0x60\n      dup2\n      mstore\n      0x20\n      add\n      0x60\n      dup2\n      mstore\n      0x20\n      add\n      0x60\n      dup2\n      mstore\n      pop\n      swap1\n      jump\t// out\n        /* \"#utility.yul\":88:205   */\n    tag_285:\n        /* \"#utility.yul\":197:198   */\n      0x00\n        /* \"#utility.yul\":194:195   */\n      dup1\n        /* \"#utility.yul\":187:199   */\n      revert\n        /* \"#utility.yul\":211:328   */\n    tag_286:\n        /* \"#utility.yul\":320:321   */\n      0x00\n        /* \"#utility.yul\":317:318   */\n      dup1\n        /* \"#utility.yul\":310:322   */\n      revert\n        /* \"#utility.yul\":334:411   */\n    tag_287:\n        /* \"#utility.yul\":371:378   */\n      0x00\n        /* \"#utility.yul\":400:405   */\n      dup2\n        /* \"#utility.yul\":389:405   */\n      swap1\n      pop\n        /* \"#utility.yul\":334:411   */\n      swap2\n      swap1\n      pop\n      jump\t// out\n        /* \"#utility.yul\":417:539   */\n    tag_288:\n        /* \"#utility.yul\":490:514   */\n      tag_351\n        /* \"#utility.yul\":508:513   */\n      dup2\n        /* \"#utility.yul\":490:514   */\n      tag_287\n      jump\t// in\n    tag_351:\n        /* \"#utility.yul\":483:488   */\n      dup2\n        /* \"#utility.yul\":480:515   */\n      eq\n        /* \"#utility.yul\":470:533   */\n      tag_352\n      jumpi\n        /* \"#utility.yul\":529:530   */\n      0x00\n        /* \"#utility.yul\":526:527   */\n      dup1\n        /* \"#utility.yul\":519:531   */\n      revert\n        /* \"#utility.yul\":470:533   */\n    tag_352:\n        /* \"#utility.yul\":417:539   */\n      pop\n      jump\t// out\n        /* \"#utility.yul\":545:684   */\n    tag_289:\n        /* \"#utility.yul\":591:596   */\n      0x00\n        /* \"#utility.yul\":629:635   */\n      dup2\n        /* \"#utility.yul\":616:636   */\n      calldataload\n        /* \"#utility.yul\":607:636   */\n      swap1\n      pop\n        /* \"#utility.yul\":645:678   */\n      tag_354\n        /* \"#utility.yul\":672:677   */\n      dup2\n        /* \"#utility.yul\":645:678   */\n      tag_288\n      jump\t// in\n    tag_354:\n        /* \"#utility.yul\":545:684   */\n      swap3\n      swap2\n      pop\n      pop\n      jump\t// out\n        /* \"#utility.yul\":690:1019   */\n    tag_24:\n        /* \"#utility.yul\":749:755   */\n      0x00\n        /* \"#utility.yul\":798:800   */\n      0x20\n        /* \"#utility.yul\":786:795   */\n      dup3\n        /* \"#utility.yul\":777:784   */\n      dup5\n        /* \"#utility.yul\":773:796   */\n      sub\n        /* \"#utility.yul\":769:801   */\n      slt\n        /* \"#utility.yul\":766:885   */\n      iszero\n      tag_356\n      jumpi\n        /* \"#utility.yul\":804:883   */\n      tag_357\n      tag_285\n      jump\t// in\n    tag_357:\n        /* \"#utility.yul\":766:885   */\n    tag_356:\n        /* \"#utility.yul\":924:925   */\n      0x00\n        /* \"#utility.yul\":949:1002   */\n      tag_358\n        /* \"#utility.yul\":994:1001   */\n      dup5\n        /* \"#utility.yul\":985:991   */\n      dup3\n        /* \"#utility.yul\":974:983   */\n      dup6\n        /* \"#utility.yul\":970:992   */\n      add\n        /* \"#utility.yul\":949:1002   */\n      tag_289\n      jump\t// in\n    tag_358:\n        /* \"#utility.yul\":939:1002   */\n      swap2\n      pop\n        /* \"#utility.yul\":895:1012   */\n      pop\n        /* \"#utility.yul\":690:1019   */\n      swap3\n      swap2\n      pop\n      pop\n      jump\t// out\n        /* \"#utility.yul\":1025:1143   */\n    tag_290:\n        /* \"#utility.yul\":1112:1136   */\n      tag_360\n        /* \"#utility.yul\":1130:1135   */\n      dup2\n        /* \"#utility.yul\":1112:1136   */\n      tag_287\n      jump\t// in\n    tag_360:\n        /* \"#utility.yul\":1107:1110   */\n      dup3\n        /* \"#utility.yul\":1100:1137   */\n      mstore\n        /* \"#utility.yul\":1025:1143   */\n      pop\n      pop\n      jump\t// out\n        /* \"#utility.yul\":1149:1248   */\n    tag_291:\n        /* \"#utility.yul\":1201:1207   */\n      0x00\n        /* \"#utility.yul\":1235:1240   */\n      dup2\n        /* \"#utility.yul\":1229:1241   */\n      mload\n        /* \"#utility.yul\":1219:1241   */\n      swap1\n      pop\n        /* \"#utility.yul\":1149:1248   */\n      swap2\n      swap1\n      pop\n      jump\t// out\n        /* \"#utility.yul\":1254:1423   */\n    tag_292:\n        /* \"#utility.yul\":1338:1349   */\n      0x00\n        /* \"#utility.yul\":1372:1378   */\n      dup3\n        /* \"#utility.yul\":1367:1370   */\n      dup3\n        /* \"#utility.yul\":1360:1379   */\n      mstore\n        /* \"#utility.yul\":1412:1416   */\n      0x20\n        /* \"#utility.yul\":1407:1410   */\n      dup3\n        /* \"#utility.yul\":1403:1417   */\n      add\n        /* \"#utility.yul\":1388:1417   */\n      swap1\n      pop\n        /* \"#utility.yul\":1254:1423   */\n      swap3\n      swap2\n      pop\n      pop\n      jump\t// out\n        /* \"#utility.yul\":1429:1568   */\n    tag_293:\n        /* \"#utility.yul\":1518:1524   */\n      dup3\n        /* \"#utility.yul\":1513:1516   */\n      dup2\n        /* \"#utility.yul\":1508:1511   */\n      dup4\n        /* \"#utility.yul\":1502:1525   */\n      mcopy\n        /* \"#utility.yul\":1559:1560   */\n      0x00\n        /* \"#utility.yul\":1550:1556   */\n      dup4\n        /* \"#utility.yul\":1545:1548   */\n      dup4\n        /* \"#utility.yul\":1541:1557   */\n      add\n        /* \"#utility.yul\":1534:1561   */\n      mstore\n        /* \"#utility.yul\":1429:1568   */\n      pop\n      pop\n      pop\n      jump\t// out\n        /* \"#utility.yul\":1574:1676   */\n    tag_294:\n        /* \"#utility.yul\":1615:1621   */\n      0x00\n        /* \"#utility.yul\":1666:1668   */\n      0x1f\n        /* \"#utility.yul\":1662:1669   */\n      not\n        /* \"#utility.yul\":1657:1659   */\n      0x1f\n        /* \"#utility.yul\":1650:1655   */\n      dup4\n        /* \"#utility.yul\":1646:1660   */\n      add\n        /* \"#utility.yul\":1642:1670   */\n      and\n        /* \"#utility.yul\":1632:1670   */\n      swap1\n      pop\n        /* \"#utility.yul\":1574:1676   */\n      swap2\n      swap1\n      pop\n      jump\t// out\n        /* \"#utility.yul\":1682:2059   */\n    tag_295:\n        /* \"#utility.yul\":1770:1773   */\n      0x00\n        /* \"#utility.yul\":1798:1837   */\n      tag_366\n        /* \"#utility.yul\":1831:1836   */\n      dup3\n        /* \"#utility.yul\":1798:1837   */\n      tag_291\n      jump\t// in\n    tag_366:\n        /* \"#utility.yul\":1853:1924   */\n      tag_367\n        /* \"#utility.yul\":1917:1923   */\n      dup2\n        /* \"#utility.yul\":1912:1915   */\n      dup6\n        /* \"#utility.yul\":1853:1924   */\n      tag_292\n      jump\t// in\n    tag_367:\n        /* \"#utility.yul\":1846:1924   */\n      swap4\n      pop\n        /* \"#utility.yul\":1933:1998   */\n      tag_368\n        /* \"#utility.yul\":1991:1997   */\n      dup2\n        /* \"#utility.yul\":1986:1989   */\n      dup6\n        /* \"#utility.yul\":1979:1983   */\n      0x20\n        /* \"#utility.yul\":1972:1977   */\n      dup7\n        /* \"#utility.yul\":1968:1984   */\n      add\n        /* \"#utility.yul\":1933:1998   */\n      tag_293\n      jump\t// in\n    tag_368:\n        /* \"#utility.yul\":2023:2052   */\n      tag_369\n        /* \"#utility.yul\":2045:2051   */\n      dup2\n        /* \"#utility.yul\":2023:2052   */\n      tag_294\n      jump\t// in\n    tag_369:\n        /* \"#utility.yul\":2018:2021   */\n      dup5\n        /* \"#utility.yul\":2014:2053   */\n      add\n        /* \"#utility.yul\":2007:2053   */\n      swap2\n      pop\n        /* \"#utility.yul\":1774:2059   */\n      pop\n        /* \"#utility.yul\":1682:2059   */\n      swap3\n      swap2\n      pop\n      pop\n      jump\t// out\n        /* \"#utility.yul\":2065:3093   */\n    tag_27:\n        /* \"#utility.yul\":2350:2354   */\n      0x00\n        /* \"#utility.yul\":2388:2391   */\n      0xa0\n        /* \"#utility.yul\":2377:2386   */\n      dup3\n        /* \"#utility.yul\":2373:2392   */\n      add\n        /* \"#utility.yul\":2365:2392   */\n      swap1\n      pop\n        /* \"#utility.yul\":2402:2473   */\n      tag_371\n        /* \"#utility.yul\":2470:2471   */\n      0x00\n        /* \"#utility.yul\":2459:2468   */\n      dup4\n        /* \"#utility.yul\":2455:2472   */\n      add\n        /* \"#utility.yul\":2446:2452   */\n      dup9\n        /* \"#utility.yul\":2402:2473   */\n      tag_290\n      jump\t// in\n    tag_371:\n        /* \"#utility.yul\":2520:2529   */\n      dup2\n        /* \"#utility.yul\":2514:2518   */\n      dup2\n        /* \"#utility.yul\":2510:2530   */\n      sub\n        /* \"#utility.yul\":2505:2507   */\n      0x20\n        /* \"#utility.yul\":2494:2503   */\n      dup4\n        /* \"#utility.yul\":2490:2508   */\n      add\n        /* \"#utility.yul\":2483:2531   */\n      mstore\n        /* \"#utility.yul\":2548:2626   */\n      tag_372\n        /* \"#utility.yul\":2621:2625   */\n      dup2\n        /* \"#utility.yul\":2612:2618   */\n      dup8\n        /* \"#utility.yul\":2548:2626   */\n      tag_295\n      jump\t// in\n    tag_372:\n        /* \"#utility.yul\":2540:2626   */\n      swap1\n      pop\n        /* \"#utility.yul\":2673:2682   */\n      dup2\n        /* \"#utility.yul\":2667:2671   */\n      dup2\n        /* \"#utility.yul\":2663:2683   */\n      sub\n        /* \"#utility.yul\":2658:2660   */\n      0x40\n        /* \"#utility.yul\":2647:2656   */\n      dup4\n        /* \"#utility.yul\":2643:2661   */\n      add\n        /* \"#utility.yul\":2636:2684   */\n      mstore\n        /* \"#utility.yul\":2701:2779   */\n      tag_373\n        /* \"#utility.yul\":2774:2778   */\n      dup2\n        /* \"#utility.yul\":2765:2771   */\n      dup7\n        /* \"#utility.yul\":2701:2779   */\n      tag_295\n      jump\t// in\n    tag_373:\n        /* \"#utility.yul\":2693:2779   */\n      swap1\n      pop\n        /* \"#utility.yul\":2826:2835   */\n      dup2\n        /* \"#utility.yul\":2820:2824   */\n      dup2\n        /* \"#utility.yul\":2816:2836   */\n      sub\n        /* \"#utility.yul\":2811:2813   */\n      0x60\n        /* \"#utility.yul\":2800:2809   */\n      dup4\n        /* \"#utility.yul\":2796:2814   */\n      add\n        /* \"#utility.yul\":2789:2837   */\n      mstore\n        /* \"#utility.yul\":2854:2932   */\n      tag_374\n        /* \"#utility.yul\":2927:2931   */\n      dup2\n        /* \"#utility.yul\":2918:2924   */\n      dup6\n        /* \"#utility.yul\":2854:2932   */\n      tag_295\n      jump\t// in\n    tag_374:\n        /* \"#utility.yul\":2846:2932   */\n      swap1\n      pop\n        /* \"#utility.yul\":2980:2989   */\n      dup2\n        /* \"#utility.yul\":2974:2978   */\n      dup2\n        /* \"#utility.yul\":2970:2990   */\n      sub\n        /* \"#utility.yul\":2964:2967   */\n      0x80\n        /* \"#utility.yul\":2953:2962   */\n      dup4\n        /* \"#utility.yul\":2949:2968   */\n      add\n        /* \"#utility.yul\":2942:2991   */\n      mstore\n        /* \"#utility.yul\":3008:3086   */\n      tag_375\n        /* \"#utility.yul\":3081:3085   */\n      dup2\n        /* \"#utility.yul\":3072:3078   */\n      dup5\n        /* \"#utility.yul\":3008:3086   */\n      tag_295\n      jump\t// in\n    tag_375:\n        /* \"#utility.yul\":3000:3086   */\n      swap1\n      pop\n        /* \"#utility.yul\":2065:3093   */\n      swap7\n      swap6\n      pop\n      pop\n      pop\n      pop\n      pop\n      pop\n      jump\t// out\n        /* \"#utility.yul\":3099:3225   */\n    tag_296:\n        /* \"#utility.yul\":3136:3143   */\n      0x00\n        /* \"#utility.yul\":3176:3218   */\n      0xffffffffffffffffffffffffffffffffffffffff\n        /* \"#utility.yul\":3169:3174   */\n      dup3\n        /* \"#utility.yul\":3165:3219   */\n      and\n        /* \"#utility.yul\":3154:3219   */\n      swap1\n      pop\n        /* \"#utility.yul\":3099:3225   */\n      swap2\n      swap1\n      pop\n      jump\t// out\n        /* \"#utility.yul\":3231:3327   */\n    tag_297:\n        /* \"#utility.yul\":3268:3275   */\n      0x00\n        /* \"#utility.yul\":3297:3321   */\n      tag_378\n        /* \"#utility.yul\":3315:3320   */\n      dup3\n        /* \"#utility.yul\":3297:3321   */\n      tag_296\n      jump\t// in\n    tag_378:\n        /* \"#utility.yul\":3286:3321   */\n      swap1\n      pop\n        /* \"#utility.yul\":3231:3327   */\n      swap2\n      swap1\n      pop\n      jump\t// out\n        /* \"#utility.yul\":3333:3451   */\n    tag_298:\n        /* \"#utility.yul\":3420:3444   */\n      tag_380\n        /* \"#utility.yul\":3438:3443   */\n      dup2\n        /* \"#utility.yul\":3420:3444   */\n      tag_297\n      jump\t// in\n    tag_380:\n        /* \"#utility.yul\":3415:3418   */\n      dup3\n        /* \"#utility.yul\":3408:3445   */\n      mstore\n        /* \"#utility.yul\":3333:3451   */\n      pop\n      pop\n      jump\t// out\n        /* \"#utility.yul\":3457:3679   */\n    tag_32:\n        /* \"#utility.yul\":3550:3554   */\n      0x00\n        /* \"#utility.yul\":3588:3590   */\n      0x20\n        /* \"#utility.yul\":3577:3586   */\n      dup3\n        /* \"#utility.yul\":3573:3591   */\n      add\n        /* \"#utility.yul\":3565:3591   */\n      swap1\n      pop\n        /* \"#utility.yul\":3601:3672   */\n      tag_382\n        /* \"#utility.yul\":3669:3670   */\n      0x00\n        /* \"#utility.yul\":3658:3667   */\n      dup4\n        /* \"#utility.yul\":3654:3671   */\n      add\n        /* \"#utility.yul\":3645:3651   */\n      dup5\n        /* \"#utility.yul\":3601:3672   */\n      tag_298\n      jump\t// in\n    tag_382:\n        /* \"#utility.yul\":3457:3679   */\n      swap3\n      swap2\n      pop\n      pop\n      jump\t// out\n        /* \"#utility.yul\":3685:3802   */\n    tag_299:\n        /* \"#utility.yul\":3794:3795   */\n      0x00\n        /* \"#utility.yul\":3791:3792   */\n      dup1\n        /* \"#utility.yul\":3784:3796   */\n      revert\n        /* \"#utility.yul\":3808:3925   */\n    tag_300:\n        /* \"#utility.yul\":3917:3918   */\n      0x00\n        /* \"#utility.yul\":3914:3915   */\n      dup1\n        /* \"#utility.yul\":3907:3919   */\n      revert\n        /* \"#utility.yul\":3931:4048   */\n    tag_301:\n        /* \"#utility.yul\":4040:4041   */\n      0x00\n        /* \"#utility.yul\":4037:4038   */\n      dup1\n        /* \"#utility.yul\":4030:4042   */\n      revert\n        /* \"#utility.yul\":4068:4621   */\n    tag_302:\n        /* \"#utility.yul\":4126:4134   */\n      0x00\n        /* \"#utility.yul\":4136:4142   */\n      dup1\n        /* \"#utility.yul\":4186:4189   */\n      dup4\n        /* \"#utility.yul\":4179:4183   */\n      0x1f\n        /* \"#utility.yul\":4171:4177   */\n      dup5\n        /* \"#utility.yul\":4167:4184   */\n      add\n        /* \"#utility.yul\":4163:4190   */\n      slt\n        /* \"#utility.yul\":4153:4275   */\n      tag_387\n      jumpi\n        /* \"#utility.yul\":4194:4273   */\n      tag_388\n      tag_299\n      jump\t// in\n    tag_388:\n        /* \"#utility.yul\":4153:4275   */\n    tag_387:\n        /* \"#utility.yul\":4307:4313   */\n      dup3\n        /* \"#utility.yul\":4294:4314   */\n      calldataload\n        /* \"#utility.yul\":4284:4314   */\n      swap1\n      pop\n        /* \"#utility.yul\":4337:4355   */\n      0xffffffffffffffff\n        /* \"#utility.yul\":4329:4335   */\n      dup2\n        /* \"#utility.yul\":4326:4356   */\n      gt\n        /* \"#utility.yul\":4323:4440   */\n      iszero\n      tag_389\n      jumpi\n        /* \"#utility.yul\":4359:4438   */\n      tag_390\n      tag_300\n      jump\t// in\n    tag_390:\n        /* \"#utility.yul\":4323:4440   */\n    tag_389:\n        /* \"#utility.yul\":4473:4477   */\n      0x20\n        /* \"#utility.yul\":4465:4471   */\n      dup4\n        /* \"#utility.yul\":4461:4478   */\n      add\n        /* \"#utility.yul\":4449:4478   */\n      swap2\n      pop\n        /* \"#utility.yul\":4527:4530   */\n      dup4\n        /* \"#utility.yul\":4519:4523   */\n      0x01\n        /* \"#utility.yul\":4511:4517   */\n      dup3\n        /* \"#utility.yul\":4507:4524   */\n      mul\n        /* \"#utility.yul\":4497:4505   */\n      dup4\n        /* \"#utility.yul\":4493:4525   */\n      add\n        /* \"#utility.yul\":4490:4531   */\n      gt\n        /* \"#utility.yul\":4487:4615   */\n      iszero\n      tag_391\n      jumpi\n        /* \"#utility.yul\":4534:4613   */\n      tag_392\n      tag_301\n      jump\t// in\n    tag_392:\n        /* \"#utility.yul\":4487:4615   */\n    tag_391:\n        /* \"#utility.yul\":4068:4621   */\n      swap3\n      pop\n      swap3\n      swap1\n      pop\n      jump\t// out\n        /* \"#utility.yul\":4627:5156   */\n    tag_36:\n        /* \"#utility.yul\":4698:4704   */\n      0x00\n        /* \"#utility.yul\":4706:4712   */\n      dup1\n        /* \"#utility.yul\":4755:4757   */\n      0x20\n        /* \"#utility.yul\":4743:4752   */\n      dup4\n        /* \"#utility.yul\":4734:4741   */\n      dup6\n        /* \"#utility.yul\":4730:4753   */\n      sub\n        /* \"#utility.yul\":4726:4758   */\n      slt\n        /* \"#utility.yul\":4723:4842   */\n      iszero\n      tag_394\n      jumpi\n        /* \"#utility.yul\":4761:4840   */\n      tag_395\n      tag_285\n      jump\t// in\n    tag_395:\n        /* \"#utility.yul\":4723:4842   */\n    tag_394:\n        /* \"#utility.yul\":4909:4910   */\n      0x00\n        /* \"#utility.yul\":4898:4907   */\n      dup4\n        /* \"#utility.yul\":4894:4911   */\n      add\n        /* \"#utility.yul\":4881:4912   */\n      calldataload\n        /* \"#utility.yul\":4939:4957   */\n      0xffffffffffffffff\n        /* \"#utility.yul\":4931:4937   */\n      dup2\n        /* \"#utility.yul\":4928:4958   */\n      gt\n        /* \"#utility.yul\":4925:5042   */\n      iszero\n      tag_396\n      jumpi\n        /* \"#utility.yul\":4961:5040   */\n      tag_397\n      tag_286\n      jump\t// in\n    tag_397:\n        /* \"#utility.yul\":4925:5042   */\n    tag_396:\n        /* \"#utility.yul\":5074:5139   */\n      tag_398\n        /* \"#utility.yul\":5131:5138   */\n      dup6\n        /* \"#utility.yul\":5122:5128   */\n      dup3\n        /* \"#utility.yul\":5111:5120   */\n      dup7\n        /* \"#utility.yul\":5107:5129   */\n      add\n        /* \"#utility.yul\":5074:5139   */\n      tag_302\n      jump\t// in\n    tag_398:\n        /* \"#utility.yul\":5056:5139   */\n      swap3\n      pop\n      swap3\n      pop\n        /* \"#utility.yul\":4852:5149   */\n      pop\n        /* \"#utility.yul\":4627:5156   */\n      swap3\n      pop\n      swap3\n      swap1\n      pop\n      jump\t// out\n        /* \"#utility.yul\":5162:5475   */\n    tag_42:\n        /* \"#utility.yul\":5275:5279   */\n      0x00\n        /* \"#utility.yul\":5313:5315   */\n      0x20\n        /* \"#utility.yul\":5302:5311   */\n      dup3\n        /* \"#utility.yul\":5298:5316   */\n      add\n        /* \"#utility.yul\":5290:5316   */\n      swap1\n      pop\n        /* \"#utility.yul\":5362:5371   */\n      dup2\n        /* \"#utility.yul\":5356:5360   */\n      dup2\n        /* \"#utility.yul\":5352:5372   */\n      sub\n        /* \"#utility.yul\":5348:5349   */\n      0x00\n        /* \"#utility.yul\":5337:5346   */\n      dup4\n        /* \"#utility.yul\":5333:5350   */\n      add\n        /* \"#utility.yul\":5326:5373   */\n      mstore\n        /* \"#utility.yul\":5390:5468   */\n      tag_400\n        /* \"#utility.yul\":5463:5467   */\n      dup2\n        /* \"#utility.yul\":5454:5460   */\n      dup5\n        /* \"#utility.yul\":5390:5468   */\n      tag_295\n      jump\t// in\n    tag_400:\n        /* \"#utility.yul\":5382:5468   */\n      swap1\n      pop\n        /* \"#utility.yul\":5162:5475   */\n      swap3\n      swap2\n      pop\n      pop\n      jump\t// out\n        /* \"#utility.yul\":5481:7046   */\n    tag_46:\n        /* \"#utility.yul\":5615:5621   */\n      0x00\n        /* \"#utility.yul\":5623:5629   */\n      dup1\n        /* \"#utility.yul\":5631:5637   */\n      0x00\n        /* \"#utility.yul\":5639:5645   */\n      dup1\n        /* \"#utility.yul\":5647:5653   */\n      0x00\n        /* \"#utility.yul\":5655:5661   */\n      dup1\n        /* \"#utility.yul\":5663:5669   */\n      0x00\n        /* \"#utility.yul\":5671:5677   */\n      dup1\n        /* \"#utility.yul\":5720:5723   */\n      0x80\n        /* \"#utility.yul\":5708:5717   */\n      dup10\n        /* \"#utility.yul\":5699:5706   */\n      dup12\n        /* \"#utility.yul\":5695:5718   */\n      sub\n        /* \"#utility.yul\":5691:5724   */\n      slt\n        /* \"#utility.yul\":5688:5808   */\n      iszero\n      tag_402\n      jumpi\n        /* \"#utility.yul\":5727:5806   */\n      tag_403\n      tag_285\n      jump\t// in\n    tag_403:\n        /* \"#utility.yul\":5688:5808   */\n    tag_402:\n        /* \"#utility.yul\":5875:5876   */\n      0x00\n        /* \"#utility.yul\":5864:5873   */\n      dup10\n        /* \"#utility.yul\":5860:5877   */\n      add\n        /* \"#utility.yul\":5847:5878   */\n      calldataload\n        /* \"#utility.yul\":5905:5923   */\n      0xffffffffffffffff\n        /* \"#utility.yul\":5897:5903   */\n      dup2\n        /* \"#utility.yul\":5894:5924   */\n      gt\n        /* \"#utility.yul\":5891:6008   */\n      iszero\n      tag_404\n      jumpi\n        /* \"#utility.yul\":5927:6006   */\n      tag_405\n      tag_286\n      jump\t// in\n    tag_405:\n        /* \"#utility.yul\":5891:6008   */\n    tag_404:\n        /* \"#utility.yul\":6040:6105   */\n      tag_406\n        /* \"#utility.yul\":6097:6104   */\n      dup12\n        /* \"#utility.yul\":6088:6094   */\n      dup3\n        /* \"#utility.yul\":6077:6086   */\n      dup13\n        /* \"#utility.yul\":6073:6095   */\n      add\n        /* \"#utility.yul\":6040:6105   */\n      tag_302\n      jump\t// in\n    tag_406:\n        /* \"#utility.yul\":6022:6105   */\n      swap9\n      pop\n      swap9\n      pop\n        /* \"#utility.yul\":5818:6115   */\n      pop\n        /* \"#utility.yul\":6182:6184   */\n      0x20\n        /* \"#utility.yul\":6171:6180   */\n      dup10\n        /* \"#utility.yul\":6167:6185   */\n      add\n        /* \"#utility.yul\":6154:6186   */\n      calldataload\n        /* \"#utility.yul\":6213:6231   */\n      0xffffffffffffffff\n        /* \"#utility.yul\":6205:6211   */\n      dup2\n        /* \"#utility.yul\":6202:6232   */\n      gt\n        /* \"#utility.yul\":6199:6316   */\n      iszero\n      tag_407\n      jumpi\n        /* \"#utility.yul\":6235:6314   */\n      tag_408\n      tag_286\n      jump\t// in\n    tag_408:\n        /* \"#utility.yul\":6199:6316   */\n    tag_407:\n        /* \"#utility.yul\":6348:6413   */\n      tag_409\n        /* \"#utility.yul\":6405:6412   */\n      dup12\n        /* \"#utility.yul\":6396:6402   */\n      dup3\n        /* \"#utility.yul\":6385:6394   */\n      dup13\n        /* \"#utility.yul\":6381:6403   */\n      add\n        /* \"#utility.yul\":6348:6413   */\n      tag_302\n      jump\t// in\n    tag_409:\n        /* \"#utility.yul\":6330:6413   */\n      swap7\n      pop\n      swap7\n      pop\n        /* \"#utility.yul\":6125:6423   */\n      pop\n        /* \"#utility.yul\":6490:6492   */\n      0x40\n        /* \"#utility.yul\":6479:6488   */\n      dup10\n        /* \"#utility.yul\":6475:6493   */\n      add\n        /* \"#utility.yul\":6462:6494   */\n      calldataload\n        /* \"#utility.yul\":6521:6539   */\n      0xffffffffffffffff\n        /* \"#utility.yul\":6513:6519   */\n      dup2\n        /* \"#utility.yul\":6510:6540   */\n      gt\n        /* \"#utility.yul\":6507:6624   */\n      iszero\n      tag_410\n      jumpi\n        /* \"#utility.yul\":6543:6622   */\n      tag_411\n      tag_286\n      jump\t// in\n    tag_411:\n        /* \"#utility.yul\":6507:6624   */\n    tag_410:\n        /* \"#utility.yul\":6656:6721   */\n      tag_412\n        /* \"#utility.yul\":6713:6720   */\n      dup12\n        /* \"#utility.yul\":6704:6710   */\n      dup3\n        /* \"#utility.yul\":6693:6702   */\n      dup13\n        /* \"#utility.yul\":6689:6711   */\n      add\n        /* \"#utility.yul\":6656:6721   */\n      tag_302\n      jump\t// in\n    tag_412:\n        /* \"#utility.yul\":6638:6721   */\n      swap5\n      pop\n      swap5\n      pop\n        /* \"#utility.yul\":6433:6731   */\n      pop\n        /* \"#utility.yul\":6798:6800   */\n      0x60\n        /* \"#utility.yul\":6787:6796   */\n      dup10\n        /* \"#utility.yul\":6783:6801   */\n      add\n        /* \"#utility.yul\":6770:6802   */\n      calldataload\n        /* \"#utility.yul\":6829:6847   */\n      0xffffffffffffffff\n        /* \"#utility.yul\":6821:6827   */\n      dup2\n        /* \"#utility.yul\":6818:6848   */\n      gt\n        /* \"#utility.yul\":6815:6932   */\n      iszero\n      tag_413\n      jumpi\n        /* \"#utility.yul\":6851:6930   */\n      tag_414\n      tag_286\n      jump\t// in\n    tag_414:\n        /* \"#utility.yul\":6815:6932   */\n    tag_413:\n        /* \"#utility.yul\":6964:7029   */\n      tag_415\n        /* \"#utility.yul\":7021:7028   */\n      dup12\n        /* \"#utility.yul\":7012:7018   */\n      dup3\n        /* \"#utility.yul\":7001:7010   */\n      dup13\n        /* \"#utility.yul\":6997:7019   */\n      add\n        /* \"#utility.yul\":6964:7029   */\n      tag_302\n      jump\t// in\n    tag_415:\n        /* \"#utility.yul\":6946:7029   */\n      swap3\n      pop\n      swap3\n      pop\n        /* \"#utility.yul\":6741:7039   */\n      pop\n        /* \"#utility.yul\":5481:7046   */\n      swap3\n      swap6\n      swap9\n      pop\n      swap3\n      swap6\n      swap9\n      swap1\n      swap4\n      swap7\n      pop\n      jump\t// out\n        /* \"#utility.yul\":7052:8763   */\n    tag_51:\n        /* \"#utility.yul\":7195:7201   */\n      0x00\n        /* \"#utility.yul\":7203:7209   */\n      dup1\n        /* \"#utility.yul\":7211:7217   */\n      0x00\n        /* \"#utility.yul\":7219:7225   */\n      dup1\n        /* \"#utility.yul\":7227:7233   */\n      0x00\n        /* \"#utility.yul\":7235:7241   */\n      dup1\n        /* \"#utility.yul\":7243:7249   */\n      0x00\n        /* \"#utility.yul\":7251:7257   */\n      dup1\n        /* \"#utility.yul\":7259:7265   */\n      0x00\n        /* \"#utility.yul\":7308:7311   */\n      0xa0\n        /* \"#utility.yul\":7296:7305   */\n      dup11\n        /* \"#utility.yul\":7287:7294   */\n      dup13\n        /* \"#utility.yul\":7283:7306   */\n      sub\n        /* \"#utility.yul\":7279:7312   */\n      slt\n        /* \"#utility.yul\":7276:7396   */\n      iszero\n      tag_417\n      jumpi\n        /* \"#utility.yul\":7315:7394   */\n      tag_418\n      tag_285\n      jump\t// in\n    tag_418:\n        /* \"#utility.yul\":7276:7396   */\n    tag_417:\n        /* \"#utility.yul\":7463:7464   */\n      0x00\n        /* \"#utility.yul\":7452:7461   */\n      dup11\n        /* \"#utility.yul\":7448:7465   */\n      add\n        /* \"#utility.yul\":7435:7466   */\n      calldataload\n        /* \"#utility.yul\":7493:7511   */\n      0xffffffffffffffff\n        /* \"#utility.yul\":7485:7491   */\n      dup2\n        /* \"#utility.yul\":7482:7512   */\n      gt\n        /* \"#utility.yul\":7479:7596   */\n      iszero\n      tag_419\n      jumpi\n        /* \"#utility.yul\":7515:7594   */\n      tag_420\n      tag_286\n      jump\t// in\n    tag_420:\n        /* \"#utility.yul\":7479:7596   */\n    tag_419:\n        /* \"#utility.yul\":7628:7693   */\n      tag_421\n        /* \"#utility.yul\":7685:7692   */\n      dup13\n        /* \"#utility.yul\":7676:7682   */\n      dup3\n        /* \"#utility.yul\":7665:7674   */\n      dup14\n        /* \"#utility.yul\":7661:7683   */\n      add\n        /* \"#utility.yul\":7628:7693   */\n      tag_302\n      jump\t// in\n    tag_421:\n        /* \"#utility.yul\":7610:7693   */\n      swap10\n      pop\n      swap10\n      pop\n        /* \"#utility.yul\":7406:7703   */\n      pop\n        /* \"#utility.yul\":7770:7772   */\n      0x20\n        /* \"#utility.yul\":7759:7768   */\n      dup11\n        /* \"#utility.yul\":7755:7773   */\n      add\n        /* \"#utility.yul\":7742:7774   */\n      calldataload\n        /* \"#utility.yul\":7801:7819   */\n      0xffffffffffffffff\n        /* \"#utility.yul\":7793:7799   */\n      dup2\n        /* \"#utility.yul\":7790:7820   */\n      gt\n        /* \"#utility.yul\":7787:7904   */\n      iszero\n      tag_422\n      jumpi\n        /* \"#utility.yul\":7823:7902   */\n      tag_423\n      tag_286\n      jump\t// in\n    tag_423:\n        /* \"#utility.yul\":7787:7904   */\n    tag_422:\n        /* \"#utility.yul\":7936:8001   */\n      tag_424\n        /* \"#utility.yul\":7993:8000   */\n      dup13\n        /* \"#utility.yul\":7984:7990   */\n      dup3\n        /* \"#utility.yul\":7973:7982   */\n      dup14\n        /* \"#utility.yul\":7969:7991   */\n      add\n        /* \"#utility.yul\":7936:8001   */\n      tag_302\n      jump\t// in\n    tag_424:\n        /* \"#utility.yul\":7918:8001   */\n      swap8\n      pop\n      swap8\n      pop\n        /* \"#utility.yul\":7713:8011   */\n      pop\n        /* \"#utility.yul\":8078:8080   */\n      0x40\n        /* \"#utility.yul\":8067:8076   */\n      dup11\n        /* \"#utility.yul\":8063:8081   */\n      add\n        /* \"#utility.yul\":8050:8082   */\n      calldataload\n        /* \"#utility.yul\":8109:8127   */\n      0xffffffffffffffff\n        /* \"#utility.yul\":8101:8107   */\n      dup2\n        /* \"#utility.yul\":8098:8128   */\n      gt\n        /* \"#utility.yul\":8095:8212   */\n      iszero\n      tag_425\n      jumpi\n        /* \"#utility.yul\":8131:8210   */\n      tag_426\n      tag_286\n      jump\t// in\n    tag_426:\n        /* \"#utility.yul\":8095:8212   */\n    tag_425:\n        /* \"#utility.yul\":8244:8309   */\n      tag_427\n        /* \"#utility.yul\":8301:8308   */\n      dup13\n        /* \"#utility.yul\":8292:8298   */\n      dup3\n        /* \"#utility.yul\":8281:8290   */\n      dup14\n        /* \"#utility.yul\":8277:8299   */\n      add\n        /* \"#utility.yul\":8244:8309   */\n      tag_302\n      jump\t// in\n    tag_427:\n        /* \"#utility.yul\":8226:8309   */\n      swap6\n      pop\n      swap6\n      pop\n        /* \"#utility.yul\":8021:8319   */\n      pop\n        /* \"#utility.yul\":8386:8388   */\n      0x60\n        /* \"#utility.yul\":8375:8384   */\n      dup11\n        /* \"#utility.yul\":8371:8389   */\n      add\n        /* \"#utility.yul\":8358:8390   */\n      calldataload\n        /* \"#utility.yul\":8417:8435   */\n      0xffffffffffffffff\n        /* \"#utility.yul\":8409:8415   */\n      dup2\n        /* \"#utility.yul\":8406:8436   */\n      gt\n        /* \"#utility.yul\":8403:8520   */\n      iszero\n      tag_428\n      jumpi\n        /* \"#utility.yul\":8439:8518   */\n      tag_429\n      tag_286\n      jump\t// in\n    tag_429:\n        /* \"#utility.yul\":8403:8520   */\n    tag_428:\n        /* \"#utility.yul\":8552:8617   */\n      tag_430\n        /* \"#utility.yul\":8609:8616   */\n      dup13\n        /* \"#utility.yul\":8600:8606   */\n      dup3\n        /* \"#utility.yul\":8589:8598   */\n      dup14\n        /* \"#utility.yul\":8585:8607   */\n      add\n        /* \"#utility.yul\":8552:8617   */\n      tag_302\n      jump\t// in\n    tag_430:\n        /* \"#utility.yul\":8534:8617   */\n      swap4\n      pop\n      swap4\n      pop\n        /* \"#utility.yul\":8329:8627   */\n      pop\n        /* \"#utility.yul\":8666:8669   */\n      0x80\n        /* \"#utility.yul\":8693:8746   */\n      tag_431\n        /* \"#utility.yul\":8738:8745   */\n      dup13\n        /* \"#utility.yul\":8729:8735   */\n      dup3\n        /* \"#utility.yul\":8718:8727   */\n      dup14\n        /* \"#utility.yul\":8714:8736   */\n      add\n        /* \"#utility.yul\":8693:8746   */\n      tag_289\n      jump\t// in\n    tag_431:\n        /* \"#utility.yul\":8683:8746   */\n      swap2\n      pop\n        /* \"#utility.yul\":8637:8756   */\n      pop\n        /* \"#utility.yul\":7052:8763   */\n      swap3\n      swap6\n      swap9\n      pop\n      swap3\n      swap6\n      swap9\n      pop\n      swap3\n      swap6\n      swap9\n      jump\t// out\n        /* \"#utility.yul\":8769:9595   */\n    tag_62:\n        /* \"#utility.yul\":9006:9010   */\n      0x00\n        /* \"#utility.yul\":9044:9047   */\n      0x80\n        /* \"#utility.yul\":9033:9042   */\n      dup3\n        /* \"#utility.yul\":9029:9048   */\n      add\n        /* \"#utility.yul\":9021:9048   */\n      swap1\n      pop\n        /* \"#utility.yul\":9058:9129   */\n      tag_433\n        /* \"#utility.yul\":9126:9127   */\n      0x00\n        /* \"#utility.yul\":9115:9124   */\n      dup4\n        /* \"#utility.yul\":9111:9128   */\n      add\n        /* \"#utility.yul\":9102:9108   */\n      dup8\n        /* \"#utility.yul\":9058:9129   */\n      tag_290\n      jump\t// in\n    tag_433:\n        /* \"#utility.yul\":9176:9185   */\n      dup2\n        /* \"#utility.yul\":9170:9174   */\n      dup2\n        /* \"#utility.yul\":9166:9186   */\n      sub\n        /* \"#utility.yul\":9161:9163   */\n      0x20\n        /* \"#utility.yul\":9150:9159   */\n      dup4\n        /* \"#utility.yul\":9146:9164   */\n      add\n        /* \"#utility.yul\":9139:9187   */\n      mstore\n        /* \"#utility.yul\":9204:9282   */\n      tag_434\n        /* \"#utility.yul\":9277:9281   */\n      dup2\n        /* \"#utility.yul\":9268:9274   */\n      dup7\n        /* \"#utility.yul\":9204:9282   */\n      tag_295\n      jump\t// in\n    tag_434:\n        /* \"#utility.yul\":9196:9282   */\n      swap1\n      pop\n        /* \"#utility.yul\":9329:9338   */\n      dup2\n        /* \"#utility.yul\":9323:9327   */\n      dup2\n        /* \"#utility.yul\":9319:9339   */\n      sub\n        /* \"#utility.yul\":9314:9316   */\n      0x40\n        /* \"#utility.yul\":9303:9312   */\n      dup4\n        /* \"#utility.yul\":9299:9317   */\n      add\n        /* \"#utility.yul\":9292:9340   */\n      mstore\n        /* \"#utility.yul\":9357:9435   */\n      tag_435\n        /* \"#utility.yul\":9430:9434   */\n      dup2\n        /* \"#utility.yul\":9421:9427   */\n      dup6\n        /* \"#utility.yul\":9357:9435   */\n      tag_295\n      jump\t// in\n    tag_435:\n        /* \"#utility.yul\":9349:9435   */\n      swap1\n      pop\n        /* \"#utility.yul\":9482:9491   */\n      dup2\n        /* \"#utility.yul\":9476:9480   */\n      dup2\n        /* \"#utility.yul\":9472:9492   */\n      sub\n        /* \"#utility.yul\":9467:9469   */\n      0x60\n        /* \"#utility.yul\":9456:9465   */\n      dup4\n        /* \"#utility.yul\":9452:9470   */\n      add\n        /* \"#utility.yul\":9445:9493   */\n      mstore\n        /* \"#utility.yul\":9510:9588   */\n      tag_436\n        /* \"#utility.yul\":9583:9587   */\n      dup2\n        /* \"#utility.yul\":9574:9580   */\n      dup5\n        /* \"#utility.yul\":9510:9588   */\n      tag_295\n      jump\t// in\n    tag_436:\n        /* \"#utility.yul\":9502:9588   */\n      swap1\n      pop\n        /* \"#utility.yul\":8769:9595   */\n      swap6\n      swap5\n      pop\n      pop\n      pop\n      pop\n      pop\n      jump\t// out\n        /* \"#utility.yul\":9601:9730   */\n    tag_303:\n        /* \"#utility.yul\":9691:9697   */\n      0x00\n        /* \"#utility.yul\":9719:9723   */\n      0x03\n        /* \"#utility.yul\":9709:9723   */\n      swap1\n      pop\n        /* \"#utility.yul\":9601:9730   */\n      swap2\n      swap1\n      pop\n      jump\t// out\n        /* \"#utility.yul\":9736:9904   */\n    tag_304:\n        /* \"#utility.yul\":9858:9869   */\n      0x00\n        /* \"#utility.yul\":9895:9898   */\n      dup2\n        /* \"#utility.yul\":9880:9898   */\n      swap1\n      pop\n        /* \"#utility.yul\":9736:9904   */\n      swap3\n      swap2\n      pop\n      pop\n      jump\t// out\n        /* \"#utility.yul\":9910:10033   */\n    tag_305:\n        /* \"#utility.yul\":10000:10004   */\n      0x00\n        /* \"#utility.yul\":10023:10026   */\n      dup2\n        /* \"#utility.yul\":10015:10026   */\n      swap1\n      pop\n        /* \"#utility.yul\":9910:10033   */\n      swap2\n      swap1\n      pop\n      jump\t// out\n        /* \"#utility.yul\":10039:10147   */\n    tag_306:\n        /* \"#utility.yul\":10116:10140   */\n      tag_441\n        /* \"#utility.yul\":10134:10139   */\n      dup2\n        /* \"#utility.yul\":10116:10140   */\n      tag_287\n      jump\t// in\n    tag_441:\n        /* \"#utility.yul\":10111:10114   */\n      dup3\n        /* \"#utility.yul\":10104:10141   */\n      mstore\n        /* \"#utility.yul\":10039:10147   */\n      pop\n      pop\n      jump\t// out\n        /* \"#utility.yul\":10153:10312   */\n    tag_307:\n        /* \"#utility.yul\":10227:10238   */\n      0x00\n        /* \"#utility.yul\":10261:10267   */\n      dup3\n        /* \"#utility.yul\":10256:10259   */\n      dup3\n        /* \"#utility.yul\":10249:10268   */\n      mstore\n        /* \"#utility.yul\":10301:10305   */\n      0x20\n        /* \"#utility.yul\":10296:10299   */\n      dup3\n        /* \"#utility.yul\":10292:10306   */\n      add\n        /* \"#utility.yul\":10277:10306   */\n      swap1\n      pop\n        /* \"#utility.yul\":10153:10312   */\n      swap3\n      swap2\n      pop\n      pop\n      jump\t// out\n        /* \"#utility.yul\":10318:10675   */\n    tag_308:\n        /* \"#utility.yul\":10396:10399   */\n      0x00\n        /* \"#utility.yul\":10424:10463   */\n      tag_444\n        /* \"#utility.yul\":10457:10462   */\n      dup3\n        /* \"#utility.yul\":10424:10463   */\n      tag_291\n      jump\t// in\n    tag_444:\n        /* \"#utility.yul\":10479:10540   */\n      tag_445\n        /* \"#utility.yul\":10533:10539   */\n      dup2\n        /* \"#utility.yul\":10528:10531   */\n      dup6\n        /* \"#utility.yul\":10479:10540   */\n      tag_307\n      jump\t// in\n    tag_445:\n        /* \"#utility.yul\":10472:10540   */\n      swap4\n      pop\n        /* \"#utility.yul\":10549:10614   */\n      tag_446\n        /* \"#utility.yul\":10607:10613   */\n      dup2\n        /* \"#utility.yul\":10602:10605   */\n      dup6\n        /* \"#utility.yul\":10595:10599   */\n      0x20\n        /* \"#utility.yul\":10588:10593   */\n      dup7\n        /* \"#utility.yul\":10584:10600   */\n      add\n        /* \"#utility.yul\":10549:10614   */\n      tag_293\n      jump\t// in\n    tag_446:\n        /* \"#utility.yul\":10639:10668   */\n      tag_447\n        /* \"#utility.yul\":10661:10667   */\n      dup2\n        /* \"#utility.yul\":10639:10668   */\n      tag_294\n      jump\t// in\n    tag_447:\n        /* \"#utility.yul\":10634:10637   */\n      dup5\n        /* \"#utility.yul\":10630:10669   */\n      add\n        /* \"#utility.yul\":10623:10669   */\n      swap2\n      pop\n        /* \"#utility.yul\":10400:10675   */\n      pop\n        /* \"#utility.yul\":10318:10675   */\n      swap3\n      swap2\n      pop\n      pop\n      jump\t// out\n        /* \"#utility.yul\":10745:11840   */\n    tag_309:\n        /* \"#utility.yul\":10854:10857   */\n      0x00\n        /* \"#utility.yul\":10890:10894   */\n      0x80\n        /* \"#utility.yul\":10885:10888   */\n      dup4\n        /* \"#utility.yul\":10881:10895   */\n      add\n        /* \"#utility.yul\":10975:10979   */\n      0x00\n        /* \"#utility.yul\":10968:10973   */\n      dup4\n        /* \"#utility.yul\":10964:10980   */\n      add\n        /* \"#utility.yul\":10958:10981   */\n      mload\n        /* \"#utility.yul\":10994:11057   */\n      tag_449\n        /* \"#utility.yul\":11051:11055   */\n      0x00\n        /* \"#utility.yul\":11046:11049   */\n      dup7\n        /* \"#utility.yul\":11042:11056   */\n      add\n        /* \"#utility.yul\":11028:11040   */\n      dup3\n        /* \"#utility.yul\":10994:11057   */\n      tag_306\n      jump\t// in\n    tag_449:\n        /* \"#utility.yul\":10905:11067   */\n      pop\n        /* \"#utility.yul\":11149:11153   */\n      0x20\n        /* \"#utility.yul\":11142:11147   */\n      dup4\n        /* \"#utility.yul\":11138:11154   */\n      add\n        /* \"#utility.yul\":11132:11155   */\n      mload\n        /* \"#utility.yul\":11202:11205   */\n      dup5\n        /* \"#utility.yul\":11196:11200   */\n      dup3\n        /* \"#utility.yul\":11192:11206   */\n      sub\n        /* \"#utility.yul\":11185:11189   */\n      0x20\n        /* \"#utility.yul\":11180:11183   */\n      dup7\n        /* \"#utility.yul\":11176:11190   */\n      add\n        /* \"#utility.yul\":11169:11207   */\n      mstore\n        /* \"#utility.yul\":11228:11301   */\n      tag_450\n        /* \"#utility.yul\":11296:11300   */\n      dup3\n        /* \"#utility.yul\":11282:11294   */\n      dup3\n        /* \"#utility.yul\":11228:11301   */\n      tag_308\n      jump\t// in\n    tag_450:\n        /* \"#utility.yul\":11220:11301   */\n      swap2\n      pop\n        /* \"#utility.yul\":11077:11312   */\n      pop\n        /* \"#utility.yul\":11396:11400   */\n      0x40\n        /* \"#utility.yul\":11389:11394   */\n      dup4\n        /* \"#utility.yul\":11385:11401   */\n      add\n        /* \"#utility.yul\":11379:11402   */\n      mload\n        /* \"#utility.yul\":11449:11452   */\n      dup5\n        /* \"#utility.yul\":11443:11447   */\n      dup3\n        /* \"#utility.yul\":11439:11453   */\n      sub\n        /* \"#utility.yul\":11432:11436   */\n      0x40\n        /* \"#utility.yul\":11427:11430   */\n      dup7\n        /* \"#utility.yul\":11423:11437   */\n      add\n        /* \"#utility.yul\":11416:11454   */\n      mstore\n        /* \"#utility.yul\":11475:11548   */\n      tag_451\n        /* \"#utility.yul\":11543:11547   */\n      dup3\n        /* \"#utility.yul\":11529:11541   */\n      dup3\n        /* \"#utility.yul\":11475:11548   */\n      tag_308\n      jump\t// in\n    tag_451:\n        /* \"#utility.yul\":11467:11548   */\n      swap2\n      pop\n        /* \"#utility.yul\":11322:11559   */\n      pop\n        /* \"#utility.yul\":11650:11654   */\n      0x60\n        /* \"#utility.yul\":11643:11648   */\n      dup4\n        /* \"#utility.yul\":11639:11655   */\n      add\n        /* \"#utility.yul\":11633:11656   */\n      mload\n        /* \"#utility.yul\":11703:11706   */\n      dup5\n        /* \"#utility.yul\":11697:11701   */\n      dup3\n        /* \"#utility.yul\":11693:11707   */\n      sub\n        /* \"#utility.yul\":11686:11690   */\n      0x60\n        /* \"#utility.yul\":11681:11684   */\n      dup7\n        /* \"#utility.yul\":11677:11691   */\n      add\n        /* \"#utility.yul\":11670:11708   */\n      mstore\n        /* \"#utility.yul\":11729:11802   */\n      tag_452\n        /* \"#utility.yul\":11797:11801   */\n      dup3\n        /* \"#utility.yul\":11783:11795   */\n      dup3\n        /* \"#utility.yul\":11729:11802   */\n      tag_308\n      jump\t// in\n    tag_452:\n        /* \"#utility.yul\":11721:11802   */\n      swap2\n      pop\n        /* \"#utility.yul\":11569:11813   */\n      pop\n        /* \"#utility.yul\":11830:11834   */\n      dup1\n        /* \"#utility.yul\":11823:11834   */\n      swap2\n      pop\n        /* \"#utility.yul\":10859:11840   */\n      pop\n        /* \"#utility.yul\":10745:11840   */\n      swap3\n      swap2\n      pop\n      pop\n      jump\t// out\n        /* \"#utility.yul\":11846:12102   */\n    tag_310:\n        /* \"#utility.yul\":11965:11975   */\n      0x00\n        /* \"#utility.yul\":12000:12096   */\n      tag_454\n        /* \"#utility.yul\":12092:12095   */\n      dup4\n        /* \"#utility.yul\":12084:12090   */\n      dup4\n        /* \"#utility.yul\":12000:12096   */\n      tag_309\n      jump\t// in\n    tag_454:\n        /* \"#utility.yul\":11986:12096   */\n      swap1\n      pop\n        /* \"#utility.yul\":11846:12102   */\n      swap3\n      swap2\n      pop\n      pop\n      jump\t// out\n        /* \"#utility.yul\":12108:12244   */\n    tag_311:\n        /* \"#utility.yul\":12201:12205   */\n      0x00\n        /* \"#utility.yul\":12233:12237   */\n      0x20\n        /* \"#utility.yul\":12228:12231   */\n      dup3\n        /* \"#utility.yul\":12224:12238   */\n      add\n        /* \"#utility.yul\":12216:12238   */\n      swap1\n      pop\n        /* \"#utility.yul\":12108:12244   */\n      swap2\n      swap1\n      pop\n      jump\t// out\n        /* \"#utility.yul\":12320:13419   */\n    tag_312:\n        /* \"#utility.yul\":12485:12488   */\n      0x00\n        /* \"#utility.yul\":12514:12591   */\n      tag_457\n        /* \"#utility.yul\":12585:12590   */\n      dup3\n        /* \"#utility.yul\":12514:12591   */\n      tag_303\n      jump\t// in\n    tag_457:\n        /* \"#utility.yul\":12607:12716   */\n      tag_458\n        /* \"#utility.yul\":12709:12715   */\n      dup2\n        /* \"#utility.yul\":12704:12707   */\n      dup6\n        /* \"#utility.yul\":12607:12716   */\n      tag_304\n      jump\t// in\n    tag_458:\n        /* \"#utility.yul\":12600:12716   */\n      swap4\n      pop\n        /* \"#utility.yul\":12742:12745   */\n      dup4\n        /* \"#utility.yul\":12787:12791   */\n      0x20\n        /* \"#utility.yul\":12779:12785   */\n      dup3\n        /* \"#utility.yul\":12775:12792   */\n      mul\n        /* \"#utility.yul\":12770:12773   */\n      dup6\n        /* \"#utility.yul\":12766:12793   */\n      add\n        /* \"#utility.yul\":12817:12896   */\n      tag_459\n        /* \"#utility.yul\":12890:12895   */\n      dup6\n        /* \"#utility.yul\":12817:12896   */\n      tag_305\n      jump\t// in\n    tag_459:\n        /* \"#utility.yul\":12919:12926   */\n      dup1\n        /* \"#utility.yul\":12950:12951   */\n      0x00\n        /* \"#utility.yul\":12935:13374   */\n    tag_460:\n        /* \"#utility.yul\":12960:12966   */\n      dup6\n        /* \"#utility.yul\":12957:12958   */\n      dup2\n        /* \"#utility.yul\":12954:12967   */\n      lt\n        /* \"#utility.yul\":12935:13374   */\n      iszero\n      tag_462\n      jumpi\n        /* \"#utility.yul\":13031:13040   */\n      dup5\n        /* \"#utility.yul\":13025:13029   */\n      dup5\n        /* \"#utility.yul\":13021:13041   */\n      sub\n        /* \"#utility.yul\":13016:13019   */\n      dup10\n        /* \"#utility.yul\":13009:13042   */\n      mstore\n        /* \"#utility.yul\":13082:13088   */\n      dup2\n        /* \"#utility.yul\":13076:13089   */\n      mload\n        /* \"#utility.yul\":13110:13224   */\n      tag_463\n        /* \"#utility.yul\":13219:13223   */\n      dup6\n        /* \"#utility.yul\":13204:13217   */\n      dup3\n        /* \"#utility.yul\":13110:13224   */\n      tag_310\n      jump\t// in\n    tag_463:\n        /* \"#utility.yul\":13102:13224   */\n      swap5\n      pop\n        /* \"#utility.yul\":13247:13330   */\n      tag_464\n        /* \"#utility.yul\":13323:13329   */\n      dup4\n        /* \"#utility.yul\":13247:13330   */\n      tag_311\n      jump\t// in\n    tag_464:\n        /* \"#utility.yul\":13237:13330   */\n      swap3\n      pop\n        /* \"#utility.yul\":13359:13363   */\n      0x20\n        /* \"#utility.yul\":13354:13357   */\n      dup11\n        /* \"#utility.yul\":13350:13364   */\n      add\n        /* \"#utility.yul\":13343:13364   */\n      swap10\n      pop\n        /* \"#utility.yul\":12995:13374   */\n      pop\n        /* \"#utility.yul\":12982:12983   */\n      0x01\n        /* \"#utility.yul\":12979:12980   */\n      dup2\n        /* \"#utility.yul\":12975:12984   */\n      add\n        /* \"#utility.yul\":12970:12984   */\n      swap1\n      pop\n        /* \"#utility.yul\":12935:13374   */\n      jump(tag_460)\n    tag_462:\n        /* \"#utility.yul\":12939:12953   */\n      pop\n        /* \"#utility.yul\":13390:13394   */\n      dup3\n        /* \"#utility.yul\":13383:13394   */\n      swap8\n      pop\n        /* \"#utility.yul\":13410:13413   */\n      dup8\n        /* \"#utility.yul\":13403:13413   */\n      swap6\n      pop\n        /* \"#utility.yul\":12490:13419   */\n      pop\n      pop\n      pop\n      pop\n      pop\n        /* \"#utility.yul\":12320:13419   */\n      swap3\n      swap2\n      pop\n      pop\n      jump\t// out\n        /* \"#utility.yul\":13425:13890   */\n    tag_67:\n        /* \"#utility.yul\":13614:13618   */\n      0x00\n        /* \"#utility.yul\":13652:13654   */\n      0x20\n        /* \"#utility.yul\":13641:13650   */\n      dup3\n        /* \"#utility.yul\":13637:13655   */\n      add\n        /* \"#utility.yul\":13629:13655   */\n      swap1\n      pop\n        /* \"#utility.yul\":13701:13710   */\n      dup2\n        /* \"#utility.yul\":13695:13699   */\n      dup2\n        /* \"#utility.yul\":13691:13711   */\n      sub\n        /* \"#utility.yul\":13687:13688   */\n      0x00\n        /* \"#utility.yul\":13676:13685   */\n      dup4\n        /* \"#utility.yul\":13672:13689   */\n      add\n        /* \"#utility.yul\":13665:13712   */\n      mstore\n        /* \"#utility.yul\":13729:13883   */\n      tag_466\n        /* \"#utility.yul\":13878:13882   */\n      dup2\n        /* \"#utility.yul\":13869:13875   */\n      dup5\n        /* \"#utility.yul\":13729:13883   */\n      tag_312\n      jump\t// in\n    tag_466:\n        /* \"#utility.yul\":13721:13883   */\n      swap1\n      pop\n        /* \"#utility.yul\":13425:13890   */\n      swap3\n      swap2\n      pop\n      pop\n      jump\t// out\n        /* \"#utility.yul\":13896:15261   */\n    tag_71:\n        /* \"#utility.yul\":14018:14024   */\n      0x00\n        /* \"#utility.yul\":14026:14032   */\n      dup1\n        /* \"#utility.yul\":14034:14040   */\n      0x00\n        /* \"#utility.yul\":14042:14048   */\n      dup1\n        /* \"#utility.yul\":14050:14056   */\n      0x00\n        /* \"#utility.yul\":14058:14064   */\n      dup1\n        /* \"#utility.yul\":14066:14072   */\n      0x00\n        /* \"#utility.yul\":14115:14118   */\n      0x80\n        /* \"#utility.yul\":14103:14112   */\n      dup9\n        /* \"#utility.yul\":14094:14101   */\n      dup11\n        /* \"#utility.yul\":14090:14113   */\n      sub\n        /* \"#utility.yul\":14086:14119   */\n      slt\n        /* \"#utility.yul\":14083:14203   */\n      iszero\n      tag_468\n      jumpi\n        /* \"#utility.yul\":14122:14201   */\n      tag_469\n      tag_285\n      jump\t// in\n    tag_469:\n        /* \"#utility.yul\":14083:14203   */\n    tag_468:\n        /* \"#utility.yul\":14270:14271   */\n      0x00\n        /* \"#utility.yul\":14259:14268   */\n      dup9\n        /* \"#utility.yul\":14255:14272   */\n      add\n        /* \"#utility.yul\":14242:14273   */\n      calldataload\n        /* \"#utility.yul\":14300:14318   */\n      0xffffffffffffffff\n        /* \"#utility.yul\":14292:14298   */\n      dup2\n        /* \"#utility.yul\":14289:14319   */\n      gt\n        /* \"#utility.yul\":14286:14403   */\n      iszero\n      tag_470\n      jumpi\n        /* \"#utility.yul\":14322:14401   */\n      tag_471\n      tag_286\n      jump\t// in\n    tag_471:\n        /* \"#utility.yul\":14286:14403   */\n    tag_470:\n        /* \"#utility.yul\":14435:14500   */\n      tag_472\n        /* \"#utility.yul\":14492:14499   */\n      dup11\n        /* \"#utility.yul\":14483:14489   */\n      dup3\n        /* \"#utility.yul\":14472:14481   */\n      dup12\n        /* \"#utility.yul\":14468:14490   */\n      add\n        /* \"#utility.yul\":14435:14500   */\n      tag_302\n      jump\t// in\n    tag_472:\n        /* \"#utility.yul\":14417:14500   */\n      swap8\n      pop\n      swap8\n      pop\n        /* \"#utility.yul\":14213:14510   */\n      pop\n        /* \"#utility.yul\":14577:14579   */\n      0x20\n        /* \"#utility.yul\":14566:14575   */\n      dup9\n        /* \"#utility.yul\":14562:14580   */\n      add\n        /* \"#utility.yul\":14549:14581   */\n      calldataload\n        /* \"#utility.yul\":14608:14626   */\n      0xffffffffffffffff\n        /* \"#utility.yul\":14600:14606   */\n      dup2\n        /* \"#utility.yul\":14597:14627   */\n      gt\n        /* \"#utility.yul\":14594:14711   */\n      iszero\n      tag_473\n      jumpi\n        /* \"#utility.yul\":14630:14709   */\n      tag_474\n      tag_286\n      jump\t// in\n    tag_474:\n        /* \"#utility.yul\":14594:14711   */\n    tag_473:\n        /* \"#utility.yul\":14743:14808   */\n      tag_475\n        /* \"#utility.yul\":14800:14807   */\n      dup11\n        /* \"#utility.yul\":14791:14797   */\n      dup3\n        /* \"#utility.yul\":14780:14789   */\n      dup12\n        /* \"#utility.yul\":14776:14798   */\n      add\n        /* \"#utility.yul\":14743:14808   */\n      tag_302\n      jump\t// in\n    tag_475:\n        /* \"#utility.yul\":14725:14808   */\n      swap6\n      pop\n      swap6\n      pop\n        /* \"#utility.yul\":14520:14818   */\n      pop\n        /* \"#utility.yul\":14885:14887   */\n      0x40\n        /* \"#utility.yul\":14874:14883   */\n      dup9\n        /* \"#utility.yul\":14870:14888   */\n      add\n        /* \"#utility.yul\":14857:14889   */\n      calldataload\n        /* \"#utility.yul\":14916:14934   */\n      0xffffffffffffffff\n        /* \"#utility.yul\":14908:14914   */\n      dup2\n        /* \"#utility.yul\":14905:14935   */\n      gt\n        /* \"#utility.yul\":14902:15019   */\n      iszero\n      tag_476\n      jumpi\n        /* \"#utility.yul\":14938:15017   */\n      tag_477\n      tag_286\n      jump\t// in\n    tag_477:\n        /* \"#utility.yul\":14902:15019   */\n    tag_476:\n        /* \"#utility.yul\":15051:15116   */\n      tag_478\n        /* \"#utility.yul\":15108:15115   */\n      dup11\n        /* \"#utility.yul\":15099:15105   */\n      dup3\n        /* \"#utility.yul\":15088:15097   */\n      dup12\n        /* \"#utility.yul\":15084:15106   */\n      add\n        /* \"#utility.yul\":15051:15116   */\n      tag_302\n      jump\t// in\n    tag_478:\n        /* \"#utility.yul\":15033:15116   */\n      swap4\n      pop\n      swap4\n      pop\n        /* \"#utility.yul\":14828:15126   */\n      pop\n        /* \"#utility.yul\":15165:15167   */\n      0x60\n        /* \"#utility.yul\":15191:15244   */\n      tag_479\n        /* \"#utility.yul\":15236:15243   */\n      dup11\n        /* \"#utility.yul\":15227:15233   */\n      dup3\n        /* \"#utility.yul\":15216:15225   */\n      dup12\n        /* \"#utility.yul\":15212:15234   */\n      add\n        /* \"#utility.yul\":15191:15244   */\n      tag_289\n      jump\t// in\n    tag_479:\n        /* \"#utility.yul\":15181:15244   */\n      swap2\n      pop\n        /* \"#utility.yul\":15136:15254   */\n      pop\n        /* \"#utility.yul\":13896:15261   */\n      swap3\n      swap6\n      swap9\n      swap2\n      swap5\n      swap8\n      pop\n      swap3\n      swap6\n      pop\n      jump\t// out\n        /* \"#utility.yul\":15267:16486   */\n    tag_84:\n        /* \"#utility.yul\":15380:15386   */\n      0x00\n        /* \"#utility.yul\":15388:15394   */\n      dup1\n        /* \"#utility.yul\":15396:15402   */\n      0x00\n        /* \"#utility.yul\":15404:15410   */\n      dup1\n        /* \"#utility.yul\":15412:15418   */\n      0x00\n        /* \"#utility.yul\":15420:15426   */\n      dup1\n        /* \"#utility.yul\":15469:15471   */\n      0x60\n        /* \"#utility.yul\":15457:15466   */\n      dup8\n        /* \"#utility.yul\":15448:15455   */\n      dup10\n        /* \"#utility.yul\":15444:15467   */\n      sub\n        /* \"#utility.yul\":15440:15472   */\n      slt\n        /* \"#utility.yul\":15437:15556   */\n      iszero\n      tag_481\n      jumpi\n        /* \"#utility.yul\":15475:15554   */\n      tag_482\n      tag_285\n      jump\t// in\n    tag_482:\n        /* \"#utility.yul\":15437:15556   */\n    tag_481:\n        /* \"#utility.yul\":15623:15624   */\n      0x00\n        /* \"#utility.yul\":15612:15621   */\n      dup8\n        /* \"#utility.yul\":15608:15625   */\n      add\n        /* \"#utility.yul\":15595:15626   */\n      calldataload\n        /* \"#utility.yul\":15653:15671   */\n      0xffffffffffffffff\n        /* \"#utility.yul\":15645:15651   */\n      dup2\n        /* \"#utility.yul\":15642:15672   */\n      gt\n        /* \"#utility.yul\":15639:15756   */\n      iszero\n      tag_483\n      jumpi\n        /* \"#utility.yul\":15675:15754   */\n      tag_484\n      tag_286\n      jump\t// in\n    tag_484:\n        /* \"#utility.yul\":15639:15756   */\n    tag_483:\n        /* \"#utility.yul\":15788:15853   */\n      tag_485\n        /* \"#utility.yul\":15845:15852   */\n      dup10\n        /* \"#utility.yul\":15836:15842   */\n      dup3\n        /* \"#utility.yul\":15825:15834   */\n      dup11\n        /* \"#utility.yul\":15821:15843   */\n      add\n        /* \"#utility.yul\":15788:15853   */\n      tag_302\n      jump\t// in\n    tag_485:\n        /* \"#utility.yul\":15770:15853   */\n      swap7\n      pop\n      swap7\n      pop\n        /* \"#utility.yul\":15566:15863   */\n      pop\n        /* \"#utility.yul\":15930:15932   */\n      0x20\n        /* \"#utility.yul\":15919:15928   */\n      dup8\n        /* \"#utility.yul\":15915:15933   */\n      add\n        /* \"#utility.yul\":15902:15934   */\n      calldataload\n        /* \"#utility.yul\":15961:15979   */\n      0xffffffffffffffff\n        /* \"#utility.yul\":15953:15959   */\n      dup2\n        /* \"#utility.yul\":15950:15980   */\n      gt\n        /* \"#utility.yul\":15947:16064   */\n      iszero\n      tag_486\n      jumpi\n        /* \"#utility.yul\":15983:16062   */\n      tag_487\n      tag_286\n      jump\t// in\n    tag_487:\n        /* \"#utility.yul\":15947:16064   */\n    tag_486:\n        /* \"#utility.yul\":16096:16161   */\n      tag_488\n        /* \"#utility.yul\":16153:16160   */\n      dup10\n        /* \"#utility.yul\":16144:16150   */\n      dup3\n        /* \"#utility.yul\":16133:16142   */\n      dup11\n        /* \"#utility.yul\":16129:16151   */\n      add\n        /* \"#utility.yul\":16096:16161   */\n      tag_302\n      jump\t// in\n    tag_488:\n        /* \"#utility.yul\":16078:16161   */\n      swap5\n      pop\n      swap5\n      pop\n        /* \"#utility.yul\":15873:16171   */\n      pop\n        /* \"#utility.yul\":16238:16240   */\n      0x40\n        /* \"#utility.yul\":16227:16236   */\n      dup8\n        /* \"#utility.yul\":16223:16241   */\n      add\n        /* \"#utility.yul\":16210:16242   */\n      calldataload\n        /* \"#utility.yul\":16269:16287   */\n      0xffffffffffffffff\n        /* \"#utility.yul\":16261:16267   */\n      dup2\n        /* \"#utility.yul\":16258:16288   */\n      gt\n        /* \"#utility.yul\":16255:16372   */\n      iszero\n      tag_489\n      jumpi\n        /* \"#utility.yul\":16291:16370   */\n      tag_490\n      tag_286\n      jump\t// in\n    tag_490:\n        /* \"#utility.yul\":16255:16372   */\n    tag_489:\n        /* \"#utility.yul\":16404:16469   */\n      tag_491\n        /* \"#utility.yul\":16461:16468   */\n      dup10\n        /* \"#utility.yul\":16452:16458   */\n      dup3\n        /* \"#utility.yul\":16441:16450   */\n      dup11\n        /* \"#utility.yul\":16437:16459   */\n      add\n        /* \"#utility.yul\":16404:16469   */\n      tag_302\n      jump\t// in\n    tag_491:\n        /* \"#utility.yul\":16386:16469   */\n      swap3\n      pop\n      swap3\n      pop\n        /* \"#utility.yul\":16181:16479   */\n      pop\n        /* \"#utility.yul\":15267:16486   */\n      swap3\n      swap6\n      pop\n      swap3\n      swap6\n      pop\n      swap3\n      swap6\n      jump\t// out\n        /* \"#utility.yul\":16492:16619   */\n    tag_313:\n        /* \"#utility.yul\":16580:16586   */\n      0x00\n        /* \"#utility.yul\":16608:16612   */\n      0x03\n        /* \"#utility.yul\":16598:16612   */\n      swap1\n      pop\n        /* \"#utility.yul\":16492:16619   */\n      swap2\n      swap1\n      pop\n      jump\t// out\n        /* \"#utility.yul\":16625:16791   */\n    tag_314:\n        /* \"#utility.yul\":16745:16756   */\n      0x00\n        /* \"#utility.yul\":16782:16785   */\n      dup2\n        /* \"#utility.yul\":16767:16785   */\n      swap1\n      pop\n        /* \"#utility.yul\":16625:16791   */\n      swap3\n      swap2\n      pop\n      pop\n      jump\t// out\n        /* \"#utility.yul\":16797:16918   */\n    tag_315:\n        /* \"#utility.yul\":16885:16889   */\n      0x00\n        /* \"#utility.yul\":16908:16911   */\n      dup2\n        /* \"#utility.yul\":16900:16911   */\n      swap1\n      pop\n        /* \"#utility.yul\":16797:16918   */\n      swap2\n      swap1\n      pop\n      jump\t// out\n        /* \"#utility.yul\":16984:18323   */\n    tag_316:\n        /* \"#utility.yul\":17089:17092   */\n      0x00\n        /* \"#utility.yul\":17125:17129   */\n      0xa0\n        /* \"#utility.yul\":17120:17123   */\n      dup4\n        /* \"#utility.yul\":17116:17130   */\n      add\n        /* \"#utility.yul\":17210:17214   */\n      0x00\n        /* \"#utility.yul\":17203:17208   */\n      dup4\n        /* \"#utility.yul\":17199:17215   */\n      add\n        /* \"#utility.yul\":17193:17216   */\n      mload\n        /* \"#utility.yul\":17229:17292   */\n      tag_496\n        /* \"#utility.yul\":17286:17290   */\n      0x00\n        /* \"#utility.yul\":17281:17284   */\n      dup7\n        /* \"#utility.yul\":17277:17291   */\n      add\n        /* \"#utility.yul\":17263:17275   */\n      dup3\n        /* \"#utility.yul\":17229:17292   */\n      tag_306\n      jump\t// in\n    tag_496:\n        /* \"#utility.yul\":17140:17302   */\n      pop\n        /* \"#utility.yul\":17384:17388   */\n      0x20\n        /* \"#utility.yul\":17377:17382   */\n      dup4\n        /* \"#utility.yul\":17373:17389   */\n      add\n        /* \"#utility.yul\":17367:17390   */\n      mload\n        /* \"#utility.yul\":17437:17440   */\n      dup5\n        /* \"#utility.yul\":17431:17435   */\n      dup3\n        /* \"#utility.yul\":17427:17441   */\n      sub\n        /* \"#utility.yul\":17420:17424   */\n      0x20\n        /* \"#utility.yul\":17415:17418   */\n      dup7\n        /* \"#utility.yul\":17411:17425   */\n      add\n        /* \"#utility.yul\":17404:17442   */\n      mstore\n        /* \"#utility.yul\":17463:17536   */\n      tag_497\n        /* \"#utility.yul\":17531:17535   */\n      dup3\n        /* \"#utility.yul\":17517:17529   */\n      dup3\n        /* \"#utility.yul\":17463:17536   */\n      tag_308\n      jump\t// in\n    tag_497:\n        /* \"#utility.yul\":17455:17536   */\n      swap2\n      pop\n        /* \"#utility.yul\":17312:17547   */\n      pop\n        /* \"#utility.yul\":17636:17640   */\n      0x40\n        /* \"#utility.yul\":17629:17634   */\n      dup4\n        /* \"#utility.yul\":17625:17641   */\n      add\n        /* \"#utility.yul\":17619:17642   */\n      mload\n        /* \"#utility.yul\":17689:17692   */\n      dup5\n        /* \"#utility.yul\":17683:17687   */\n      dup3\n        /* \"#utility.yul\":17679:17693   */\n      sub\n        /* \"#utility.yul\":17672:17676   */\n      0x40\n        /* \"#utility.yul\":17667:17670   */\n      dup7\n        /* \"#utility.yul\":17663:17677   */\n      add\n        /* \"#utility.yul\":17656:17694   */\n      mstore\n        /* \"#utility.yul\":17715:17788   */\n      tag_498\n        /* \"#utility.yul\":17783:17787   */\n      dup3\n        /* \"#utility.yul\":17769:17781   */\n      dup3\n        /* \"#utility.yul\":17715:17788   */\n      tag_308\n      jump\t// in\n    tag_498:\n        /* \"#utility.yul\":17707:17788   */\n      swap2\n      pop\n        /* \"#utility.yul\":17557:17799   */\n      pop\n        /* \"#utility.yul\":17882:17886   */\n      0x60\n        /* \"#utility.yul\":17875:17880   */\n      dup4\n        /* \"#utility.yul\":17871:17887   */\n      add\n        /* \"#utility.yul\":17865:17888   */\n      mload\n        /* \"#utility.yul\":17935:17938   */\n      dup5\n        /* \"#utility.yul\":17929:17933   */\n      dup3\n        /* \"#utility.yul\":17925:17939   */\n      sub\n        /* \"#utility.yul\":17918:17922   */\n      0x60\n        /* \"#utility.yul\":17913:17916   */\n      dup7\n        /* \"#utility.yul\":17909:17923   */\n      add\n        /* \"#utility.yul\":17902:17940   */\n      mstore\n        /* \"#utility.yul\":17961:18034   */\n      tag_499\n        /* \"#utility.yul\":18029:18033   */\n      dup3\n        /* \"#utility.yul\":18015:18027   */\n      dup3\n        /* \"#utility.yul\":17961:18034   */\n      tag_308\n      jump\t// in\n    tag_499:\n        /* \"#utility.yul\":17953:18034   */\n      swap2\n      pop\n        /* \"#utility.yul\":17809:18045   */\n      pop\n        /* \"#utility.yul\":18133:18137   */\n      0x80\n        /* \"#utility.yul\":18126:18131   */\n      dup4\n        /* \"#utility.yul\":18122:18138   */\n      add\n        /* \"#utility.yul\":18116:18139   */\n      mload\n        /* \"#utility.yul\":18186:18189   */\n      dup5\n        /* \"#utility.yul\":18180:18184   */\n      dup3\n        /* \"#utility.yul\":18176:18190   */\n      sub\n        /* \"#utility.yul\":18169:18173   */\n      0x80\n        /* \"#utility.yul\":18164:18167   */\n      dup7\n        /* \"#utility.yul\":18160:18174   */\n      add\n        /* \"#utility.yul\":18153:18191   */\n      mstore\n        /* \"#utility.yul\":18212:18285   */\n      tag_500\n        /* \"#utility.yul\":18280:18284   */\n      dup3\n        /* \"#utility.yul\":18266:18278   */\n      dup3\n        /* \"#utility.yul\":18212:18285   */\n      tag_308\n      jump\t// in\n    tag_500:\n        /* \"#utility.yul\":18204:18285   */\n      swap2\n      pop\n        /* \"#utility.yul\":18055:18296   */\n      pop\n        /* \"#utility.yul\":18313:18317   */\n      dup1\n        /* \"#utility.yul\":18306:18317   */\n      swap2\n      pop\n        /* \"#utility.yul\":17094:18323   */\n      pop\n        /* \"#utility.yul\":16984:18323   */\n      swap3\n      swap2\n      pop\n      pop\n      jump\t// out\n        /* \"#utility.yul\":18329:18577   */\n    tag_317:\n        /* \"#utility.yul\":18444:18454   */\n      0x00\n        /* \"#utility.yul\":18479:18571   */\n      tag_502\n        /* \"#utility.yul\":18567:18570   */\n      dup4\n        /* \"#utility.yul\":18559:18565   */\n      dup4\n        /* \"#utility.yul\":18479:18571   */\n      tag_316\n      jump\t// in\n    tag_502:\n        /* \"#utility.yul\":18465:18571   */\n      swap1\n      pop\n        /* \"#utility.yul\":18329:18577   */\n      swap3\n      swap2\n      pop\n      pop\n      jump\t// out\n        /* \"#utility.yul\":18583:18717   */\n    tag_318:\n        /* \"#utility.yul\":18674:18678   */\n      0x00\n        /* \"#utility.yul\":18706:18710   */\n      0x20\n        /* \"#utility.yul\":18701:18704   */\n      dup3\n        /* \"#utility.yul\":18697:18711   */\n      add\n        /* \"#utility.yul\":18689:18711   */\n      swap1\n      pop\n        /* \"#utility.yul\":18583:18717   */\n      swap2\n      swap1\n      pop\n      jump\t// out\n        /* \"#utility.yul\":18789:19872   */\n    tag_319:\n        /* \"#utility.yul\":18950:18953   */\n      0x00\n        /* \"#utility.yul\":18979:19054   */\n      tag_505\n        /* \"#utility.yul\":19048:19053   */\n      dup3\n        /* \"#utility.yul\":18979:19054   */\n      tag_313\n      jump\t// in\n    tag_505:\n        /* \"#utility.yul\":19070:19177   */\n      tag_506\n        /* \"#utility.yul\":19170:19176   */\n      dup2\n        /* \"#utility.yul\":19165:19168   */\n      dup6\n        /* \"#utility.yul\":19070:19177   */\n      tag_314\n      jump\t// in\n    tag_506:\n        /* \"#utility.yul\":19063:19177   */\n      swap4\n      pop\n        /* \"#utility.yul\":19203:19206   */\n      dup4\n        /* \"#utility.yul\":19248:19252   */\n      0x20\n        /* \"#utility.yul\":19240:19246   */\n      dup3\n        /* \"#utility.yul\":19236:19253   */\n      mul\n        /* \"#utility.yul\":19231:19234   */\n      dup6\n        /* \"#utility.yul\":19227:19254   */\n      add\n        /* \"#utility.yul\":19278:19355   */\n      tag_507\n        /* \"#utility.yul\":19349:19354   */\n      dup6\n        /* \"#utility.yul\":19278:19355   */\n      tag_315\n      jump\t// in\n    tag_507:\n        /* \"#utility.yul\":19378:19385   */\n      dup1\n        /* \"#utility.yul\":19409:19410   */\n      0x00\n        /* \"#utility.yul\":19394:19827   */\n    tag_508:\n        /* \"#utility.yul\":19419:19425   */\n      dup6\n        /* \"#utility.yul\":19416:19417   */\n      dup2\n        /* \"#utility.yul\":19413:19426   */\n      lt\n        /* \"#utility.yul\":19394:19827   */\n      iszero\n      tag_510\n      jumpi\n        /* \"#utility.yul\":19490:19499   */\n      dup5\n        /* \"#utility.yul\":19484:19488   */\n      dup5\n        /* \"#utility.yul\":19480:19500   */\n      sub\n        /* \"#utility.yul\":19475:19478   */\n      dup10\n        /* \"#utility.yul\":19468:19501   */\n      mstore\n        /* \"#utility.yul\":19541:19547   */\n      dup2\n        /* \"#utility.yul\":19535:19548   */\n      mload\n        /* \"#utility.yul\":19569:19679   */\n      tag_511\n        /* \"#utility.yul\":19674:19678   */\n      dup6\n        /* \"#utility.yul\":19659:19672   */\n      dup3\n        /* \"#utility.yul\":19569:19679   */\n      tag_317\n      jump\t// in\n    tag_511:\n        /* \"#utility.yul\":19561:19679   */\n      swap5\n      pop\n        /* \"#utility.yul\":19702:19783   */\n      tag_512\n        /* \"#utility.yul\":19776:19782   */\n      dup4\n        /* \"#utility.yul\":19702:19783   */\n      tag_318\n      jump\t// in\n    tag_512:\n        /* \"#utility.yul\":19692:19783   */\n      swap3\n      pop\n        /* \"#utility.yul\":19812:19816   */\n      0x20\n        /* \"#utility.yul\":19807:19810   */\n      dup11\n        /* \"#utility.yul\":19803:19817   */\n      add\n        /* \"#utility.yul\":19796:19817   */\n      swap10\n      pop\n        /* \"#utility.yul\":19454:19827   */\n      pop\n        /* \"#utility.yul\":19441:19442   */\n      0x01\n        /* \"#utility.yul\":19438:19439   */\n      dup2\n        /* \"#utility.yul\":19434:19443   */\n      add\n        /* \"#utility.yul\":19429:19443   */\n      swap1\n      pop\n        /* \"#utility.yul\":19394:19827   */\n      jump(tag_508)\n    tag_510:\n        /* \"#utility.yul\":19398:19412   */\n      pop\n        /* \"#utility.yul\":19843:19847   */\n      dup3\n        /* \"#utility.yul\":19836:19847   */\n      swap8\n      pop\n        /* \"#utility.yul\":19863:19866   */\n      dup8\n        /* \"#utility.yul\":19856:19866   */\n      swap6\n      pop\n        /* \"#utility.yul\":18955:19872   */\n      pop\n      pop\n      pop\n      pop\n      pop\n        /* \"#utility.yul\":18789:19872   */\n      swap3\n      swap2\n      pop\n      pop\n      jump\t// out\n        /* \"#utility.yul\":19878:20335   */\n    tag_96:\n        /* \"#utility.yul\":20063:20067   */\n      0x00\n        /* \"#utility.yul\":20101:20103   */\n      0x20\n        /* \"#utility.yul\":20090:20099   */\n      dup3\n        /* \"#utility.yul\":20086:20104   */\n      add\n        /* \"#utility.yul\":20078:20104   */\n      swap1\n      pop\n        /* \"#utility.yul\":20150:20159   */\n      dup2\n        /* \"#utility.yul\":20144:20148   */\n      dup2\n        /* \"#utility.yul\":20140:20160   */\n      sub\n        /* \"#utility.yul\":20136:20137   */\n      0x00\n        /* \"#utility.yul\":20125:20134   */\n      dup4\n        /* \"#utility.yul\":20121:20138   */\n      add\n        /* \"#utility.yul\":20114:20161   */\n      mstore\n        /* \"#utility.yul\":20178:20328   */\n      tag_514\n        /* \"#utility.yul\":20323:20327   */\n      dup2\n        /* \"#utility.yul\":20314:20320   */\n      dup5\n        /* \"#utility.yul\":20178:20328   */\n      tag_319\n      jump\t// in\n    tag_514:\n        /* \"#utility.yul\":20170:20328   */\n      swap1\n      pop\n        /* \"#utility.yul\":19878:20335   */\n      swap3\n      swap2\n      pop\n      pop\n      jump\t// out\n        /* \"#utility.yul\":20341:20521   */\n    tag_320:\n        /* \"#utility.yul\":20389:20466   */\n      0x4e487b7100000000000000000000000000000000000000000000000000000000\n        /* \"#utility.yul\":20386:20387   */\n      0x00\n        /* \"#utility.yul\":20379:20467   */\n      mstore\n        /* \"#utility.yul\":20486:20490   */\n      0x22\n        /* \"#utility.yul\":20483:20484   */\n      0x04\n        /* \"#utility.yul\":20476:20491   */\n      mstore\n        /* \"#utility.yul\":20510:20514   */\n      0x24\n        /* \"#utility.yul\":20507:20508   */\n      0x00\n        /* \"#utility.yul\":20500:20515   */\n      revert\n        /* \"#utility.yul\":20527:20847   */\n    tag_100:\n        /* \"#utility.yul\":20571:20577   */\n      0x00\n        /* \"#utility.yul\":20608:20609   */\n      0x02\n        /* \"#utility.yul\":20602:20606   */\n      dup3\n        /* \"#utility.yul\":20598:20610   */\n      div\n        /* \"#utility.yul\":20588:20610   */\n      swap1\n      pop\n        /* \"#utility.yul\":20655:20656   */\n      0x01\n        /* \"#utility.yul\":20649:20653   */\n      dup3\n        /* \"#utility.yul\":20645:20657   */\n      and\n        /* \"#utility.yul\":20676:20694   */\n      dup1\n        /* \"#utility.yul\":20666:20747   */\n      tag_517\n      jumpi\n        /* \"#utility.yul\":20732:20736   */\n      0x7f\n        /* \"#utility.yul\":20724:20730   */\n      dup3\n        /* \"#utility.yul\":20720:20737   */\n      and\n        /* \"#utility.yul\":20710:20737   */\n      swap2\n      pop\n        /* \"#utility.yul\":20666:20747   */\n    tag_517:\n        /* \"#utility.yul\":20794:20796   */\n      0x20\n        /* \"#utility.yul\":20786:20792   */\n      dup3\n        /* \"#utility.yul\":20783:20797   */\n      lt\n        /* \"#utility.yul\":20763:20781   */\n      dup2\n        /* \"#utility.yul\":20760:20798   */\n      sub\n        /* \"#utility.yul\":20757:20841   */\n      tag_518\n      jumpi\n        /* \"#utility.yul\":20813:20831   */\n      tag_519\n      tag_320\n      jump\t// in\n    tag_519:\n        /* \"#utility.yul\":20757:20841   */\n    tag_518:\n        /* \"#utility.yul\":20578:20847   */\n      pop\n        /* \"#utility.yul\":20527:20847   */\n      swap2\n      swap1\n      pop\n      jump\t// out\n        /* \"#utility.yul\":20853:21026   */\n    tag_321:\n        /* \"#utility.yul\":20993:21018   */\n      0x796f7520617265206e6f7420746865206d616e61676572000000000000000000\n        /* \"#utility.yul\":20989:20990   */\n      0x00\n        /* \"#utility.yul\":20981:20987   */\n      dup3\n        /* \"#utility.yul\":20977:20991   */\n      add\n        /* \"#utility.yul\":20970:21019   */\n      mstore\n        /* \"#utility.yul\":20853:21026   */\n      pop\n      jump\t// out\n        /* \"#utility.yul\":21032:21398   */\n    tag_322:\n        /* \"#utility.yul\":21174:21177   */\n      0x00\n        /* \"#utility.yul\":21195:21262   */\n      tag_522\n        /* \"#utility.yul\":21259:21261   */\n      0x17\n        /* \"#utility.yul\":21254:21257   */\n      dup4\n        /* \"#utility.yul\":21195:21262   */\n      tag_292\n      jump\t// in\n    tag_522:\n        /* \"#utility.yul\":21188:21262   */\n      swap2\n      pop\n        /* \"#utility.yul\":21271:21364   */\n      tag_523\n        /* \"#utility.yul\":21360:21363   */\n      dup3\n        /* \"#utility.yul\":21271:21364   */\n      tag_321\n      jump\t// in\n    tag_523:\n        /* \"#utility.yul\":21389:21391   */\n      0x20\n        /* \"#utility.yul\":21384:21387   */\n      dup3\n        /* \"#utility.yul\":21380:21392   */\n      add\n        /* \"#utility.yul\":21373:21392   */\n      swap1\n      pop\n        /* \"#utility.yul\":21032:21398   */\n      swap2\n      swap1\n      pop\n      jump\t// out\n        /* \"#utility.yul\":21404:21823   */\n    tag_123:\n        /* \"#utility.yul\":21570:21574   */\n      0x00\n        /* \"#utility.yul\":21608:21610   */\n      0x20\n        /* \"#utility.yul\":21597:21606   */\n      dup3\n        /* \"#utility.yul\":21593:21611   */\n      add\n        /* \"#utility.yul\":21585:21611   */\n      swap1\n      pop\n        /* \"#utility.yul\":21657:21666   */\n      dup2\n        /* \"#utility.yul\":21651:21655   */\n      dup2\n        /* \"#utility.yul\":21647:21667   */\n      sub\n        /* \"#utility.yul\":21643:21644   */\n      0x00\n        /* \"#utility.yul\":21632:21641   */\n      dup4\n        /* \"#utility.yul\":21628:21645   */\n      add\n        /* \"#utility.yul\":21621:21668   */\n      mstore\n        /* \"#utility.yul\":21685:21816   */\n      tag_525\n        /* \"#utility.yul\":21811:21815   */\n      dup2\n        /* \"#utility.yul\":21685:21816   */\n      tag_322\n      jump\t// in\n    tag_525:\n        /* \"#utility.yul\":21677:21816   */\n      swap1\n      pop\n        /* \"#utility.yul\":21404:21823   */\n      swap2\n      swap1\n      pop\n      jump\t// out\n        /* \"#utility.yul\":21829:21926   */\n    tag_323:\n        /* \"#utility.yul\":21888:21894   */\n      0x00\n        /* \"#utility.yul\":21916:21919   */\n      dup3\n        /* \"#utility.yul\":21906:21919   */\n      swap1\n      pop\n        /* \"#utility.yul\":21829:21926   */\n      swap3\n      swap2\n      pop\n      pop\n      jump\t// out\n        /* \"#utility.yul\":21932:22112   */\n    tag_324:\n        /* \"#utility.yul\":21980:22057   */\n      0x4e487b7100000000000000000000000000000000000000000000000000000000\n        /* \"#utility.yul\":21977:21978   */\n      0x00\n        /* \"#utility.yul\":21970:22058   */\n      mstore\n        /* \"#utility.yul\":22077:22081   */\n      0x41\n        /* \"#utility.yul\":22074:22075   */\n      0x04\n        /* \"#utility.yul\":22067:22082   */\n      mstore\n        /* \"#utility.yul\":22101:22105   */\n      0x24\n        /* \"#utility.yul\":22098:22099   */\n      0x00\n        /* \"#utility.yul\":22091:22106   */\n      revert\n        /* \"#utility.yul\":22118:22259   */\n    tag_325:\n        /* \"#utility.yul\":22167:22171   */\n      0x00\n        /* \"#utility.yul\":22190:22193   */\n      dup2\n        /* \"#utility.yul\":22182:22193   */\n      swap1\n      pop\n        /* \"#utility.yul\":22213:22216   */\n      dup2\n        /* \"#utility.yul\":22210:22211   */\n      0x00\n        /* \"#utility.yul\":22203:22217   */\n      mstore\n        /* \"#utility.yul\":22247:22251   */\n      0x20\n        /* \"#utility.yul\":22244:22245   */\n      0x00\n        /* \"#utility.yul\":22234:22252   */\n      keccak256\n        /* \"#utility.yul\":22226:22252   */\n      swap1\n      pop\n        /* \"#utility.yul\":22118:22259   */\n      swap2\n      swap1\n      pop\n      jump\t// out\n        /* \"#utility.yul\":22265:22358   */\n    tag_326:\n        /* \"#utility.yul\":22302:22308   */\n      0x00\n        /* \"#utility.yul\":22349:22351   */\n      0x20\n        /* \"#utility.yul\":22344:22346   */\n      0x1f\n        /* \"#utility.yul\":22337:22342   */\n      dup4\n        /* \"#utility.yul\":22333:22347   */\n      add\n        /* \"#utility.yul\":22329:22352   */\n      div\n        /* \"#utility.yul\":22319:22352   */\n      swap1\n      pop\n        /* \"#utility.yul\":22265:22358   */\n      swap2\n      swap1\n      pop\n      jump\t// out\n        /* \"#utility.yul\":22364:22471   */\n    tag_327:\n        /* \"#utility.yul\":22408:22416   */\n      0x00\n        /* \"#utility.yul\":22458:22463   */\n      dup3\n        /* \"#utility.yul\":22452:22456   */\n      dup3\n        /* \"#utility.yul\":22448:22464   */\n      shl\n        /* \"#utility.yul\":22427:22464   */\n      swap1\n      pop\n        /* \"#utility.yul\":22364:22471   */\n      swap3\n      swap2\n      pop\n      pop\n      jump\t// out\n        /* \"#utility.yul\":22477:22870   */\n    tag_328:\n        /* \"#utility.yul\":22546:22552   */\n      0x00\n        /* \"#utility.yul\":22596:22597   */\n      0x08\n        /* \"#utility.yul\":22584:22594   */\n      dup4\n        /* \"#utility.yul\":22580:22598   */\n      mul\n        /* \"#utility.yul\":22619:22716   */\n      tag_532\n        /* \"#utility.yul\":22649:22715   */\n      0xffffffffffffffffffffffffffffffffffffffffffffffffffffffffffffffff\n        /* \"#utility.yul\":22638:22647   */\n      dup3\n        /* \"#utility.yul\":22619:22716   */\n      tag_327\n      jump\t// in\n    tag_532:\n        /* \"#utility.yul\":22737:22776   */\n      tag_533\n        /* \"#utility.yul\":22767:22775   */\n      dup7\n        /* \"#utility.yul\":22756:22765   */\n      dup4\n        /* \"#utility.yul\":22737:22776   */\n      tag_327\n      jump\t// in\n    tag_533:\n        /* \"#utility.yul\":22725:22776   */\n      swap6\n      pop\n        /* \"#utility.yul\":22809:22813   */\n      dup1\n        /* \"#utility.yul\":22805:22814   */\n      not\n        /* \"#utility.yul\":22798:22803   */\n      dup5\n        /* \"#utility.yul\":22794:22815   */\n      and\n        /* \"#utility.yul\":22785:22815   */\n      swap4\n      pop\n        /* \"#utility.yul\":22858:22862   */\n      dup1\n        /* \"#utility.yul\":22848:22856   */\n      dup7\n        /* \"#utility.yul\":22844:22863   */\n      and\n        /* \"#utility.yul\":22837:22842   */\n      dup5\n        /* \"#utility.yul\":22834:22864   */\n      or\n        /* \"#utility.yul\":22824:22864   */\n      swap3\n      pop\n        /* \"#utility.yul\":22553:22870   */\n      pop\n      pop\n        /* \"#utility.yul\":22477:22870   */\n      swap4\n      swap3\n      pop\n      pop\n      pop\n      jump\t// out\n        /* \"#utility.yul\":22876:22936   */\n    tag_329:\n        /* \"#utility.yul\":22904:22907   */\n      0x00\n        /* \"#utility.yul\":22925:22930   */\n      dup2\n        /* \"#utility.yul\":22918:22930   */\n      swap1\n      pop\n        /* \"#utility.yul\":22876:22936   */\n      swap2\n      swap1\n      pop\n      jump\t// out\n        /* \"#utility.yul\":22942:23084   */\n    tag_330:\n        /* \"#utility.yul\":22992:23001   */\n      0x00\n        /* \"#utility.yul\":23025:23078   */\n      tag_536\n        /* \"#utility.yul\":23043:23077   */\n      tag_537\n        /* \"#utility.yul\":23052:23076   */\n      tag_538\n        /* \"#utility.yul\":23070:23075   */\n      dup5\n        /* \"#utility.yul\":23052:23076   */\n      tag_287\n      jump\t// in\n    tag_538:\n        /* \"#utility.yul\":23043:23077   */\n      tag_329\n      jump\t// in\n    tag_537:\n        /* \"#utility.yul\":23025:23078   */\n      tag_287\n      jump\t// in\n    tag_536:\n        /* \"#utility.yul\":23012:23078   */\n      swap1\n      pop\n        /* \"#utility.yul\":22942:23084   */\n      swap2\n      swap1\n      pop\n      jump\t// out\n        /* \"#utility.yul\":23090:23165   */\n    tag_331:\n        /* \"#utility.yul\":23133:23136   */\n      0x00\n        /* \"#utility.yul\":23154:23159   */\n      dup2\n        /* \"#utility.yul\":23147:23159   */\n      swap1\n      pop\n        /* \"#utility.yul\":23090:23165   */\n      swap2\n      swap1\n      pop\n      jump\t// out\n        /* \"#utility.yul\":23171:23440   */\n    tag_332:\n        /* \"#utility.yul\":23281:23320   */\n      tag_541\n        /* \"#utility.yul\":23312:23319   */\n      dup4\n        /* \"#utility.yul\":23281:23320   */\n      tag_330\n      jump\t// in\n    tag_541:\n        /* \"#utility.yul\":23342:23433   */\n      tag_542\n        /* \"#utility.yul\":23391:23432   */\n      tag_543\n        /* \"#utility.yul\":23415:23431   */\n      dup3\n        /* \"#utility.yul\":23391:23432   */\n      tag_331\n      jump\t// in\n    tag_543:\n        /* \"#utility.yul\":23383:23389   */\n      dup5\n        /* \"#utility.yul\":23376:23380   */\n      dup5\n        /* \"#utility.yul\":23370:23381   */\n      sload\n        /* \"#utility.yul\":23342:23433   */\n      tag_328\n      jump\t// in\n    tag_542:\n        /* \"#utility.yul\":23336:23340   */\n      dup3\n        /* \"#utility.yul\":23329:23434   */\n      sstore\n        /* \"#utility.yul\":23247:23440   */\n      pop\n        /* \"#utility.yul\":23171:23440   */\n      pop\n      pop\n      pop\n      jump\t// out\n        /* \"#utility.yul\":23446:23519   */\n    tag_333:\n        /* \"#utility.yul\":23491:23494   */\n      0x00\n        /* \"#utility.yul\":23446:23519   */\n      swap1\n      jump\t// out\n        /* \"#utility.yul\":23525:23714   */\n    tag_334:\n        /* \"#utility.yul\":23602:23634   */\n      tag_546\n      tag_333\n      jump\t// in\n    tag_546:\n        /* \"#utility.yul\":23643:23708   */\n      tag_547\n        /* \"#utility.yul\":23701:23707   */\n      dup2\n        /* \"#utility.yul\":23693:23699   */\n      dup5\n        /* \"#utility.yul\":23687:23691   */\n      dup5\n        /* \"#utility.yul\":23643:23708   */\n      tag_332\n      jump\t// in\n    tag_547:\n        /* \"#utility.yul\":23578:23714   */\n      pop\n        /* \"#utility.yul\":23525:23714   */\n      pop\n      pop\n      jump\t// out\n        /* \"#utility.yul\":23720:23906   */\n    tag_335:\n        /* \"#utility.yul\":23780:23900   */\n    tag_549:\n        /* \"#utility.yul\":23797:23800   */\n      dup2\n        /* \"#utility.yul\":23790:23795   */\n      dup2\n        /* \"#utility.yul\":23787:23801   */\n      lt\n        /* \"#utility.yul\":23780:23900   */\n      iszero\n      tag_551\n      jumpi\n        /* \"#utility.yul\":23851:23890   */\n      tag_552\n        /* \"#utility.yul\":23888:23889   */\n      0x00\n        /* \"#utility.yul\":23881:23886   */\n      dup3\n        /* \"#utility.yul\":23851:23890   */\n      tag_334\n      jump\t// in\n    tag_552:\n        /* \"#utility.yul\":23824:23825   */\n      0x01\n        /* \"#utility.yul\":23817:23822   */\n      dup2\n        /* \"#utility.yul\":23813:23826   */\n      add\n        /* \"#utility.yul\":23804:23826   */\n      swap1\n      pop\n        /* \"#utility.yul\":23780:23900   */\n      jump(tag_549)\n    tag_551:\n        /* \"#utility.yul\":23720:23906   */\n      pop\n      pop\n      jump\t// out\n        /* \"#utility.yul\":23912:24455   */\n    tag_336:\n        /* \"#utility.yul\":24013:24015   */\n      0x1f\n        /* \"#utility.yul\":24008:24011   */\n      dup3\n        /* \"#utility.yul\":24005:24016   */\n      gt\n        /* \"#utility.yul\":24002:24448   */\n      iszero\n      tag_554\n      jumpi\n        /* \"#utility.yul\":24047:24085   */\n      tag_555\n        /* \"#utility.yul\":24079:24084   */\n      dup2\n        /* \"#utility.yul\":24047:24085   */\n      tag_325\n      jump\t// in\n    tag_555:\n        /* \"#utility.yul\":24131:24160   */\n      tag_556\n        /* \"#utility.yul\":24149:24159   */\n      dup5\n        /* \"#utility.yul\":24131:24160   */\n      tag_326\n      jump\t// in\n    tag_556:\n        /* \"#utility.yul\":24121:24129   */\n      dup2\n        /* \"#utility.yul\":24117:24161   */\n      add\n        /* \"#utility.yul\":24314:24316   */\n      0x20\n        /* \"#utility.yul\":24302:24312   */\n      dup6\n        /* \"#utility.yul\":24299:24317   */\n      lt\n        /* \"#utility.yul\":24296:24345   */\n      iszero\n      tag_557\n      jumpi\n        /* \"#utility.yul\":24335:24343   */\n      dup2\n        /* \"#utility.yul\":24320:24343   */\n      swap1\n      pop\n        /* \"#utility.yul\":24296:24345   */\n    tag_557:\n        /* \"#utility.yul\":24358:24438   */\n      tag_558\n        /* \"#utility.yul\":24414:24436   */\n      tag_559\n        /* \"#utility.yul\":24432:24435   */\n      dup6\n        /* \"#utility.yul\":24414:24436   */\n      tag_326\n      jump\t// in\n    tag_559:\n        /* \"#utility.yul\":24404:24412   */\n      dup4\n        /* \"#utility.yul\":24400:24437   */\n      add\n        /* \"#utility.yul\":24387:24398   */\n      dup3\n        /* \"#utility.yul\":24358:24438   */\n      tag_335\n      jump\t// in\n    tag_558:\n        /* \"#utility.yul\":24017:24448   */\n      pop\n      pop\n        /* \"#utility.yul\":24002:24448   */\n    tag_554:\n        /* \"#utility.yul\":23912:24455   */\n      pop\n      pop\n      pop\n      jump\t// out\n        /* \"#utility.yul\":24461:24578   */\n    tag_337:\n        /* \"#utility.yul\":24515:24523   */\n      0x00\n        /* \"#utility.yul\":24565:24570   */\n      dup3\n        /* \"#utility.yul\":24559:24563   */\n      dup3\n        /* \"#utility.yul\":24555:24571   */\n      shr\n        /* \"#utility.yul\":24534:24571   */\n      swap1\n      pop\n        /* \"#utility.yul\":24461:24578   */\n      swap3\n      swap2\n      pop\n      pop\n      jump\t// out\n        /* \"#utility.yul\":24584:24753   */\n    tag_338:\n        /* \"#utility.yul\":24628:24634   */\n      0x00\n        /* \"#utility.yul\":24661:24712   */\n      tag_562\n        /* \"#utility.yul\":24709:24710   */\n      0x00\n        /* \"#utility.yul\":24705:24711   */\n      not\n        /* \"#utility.yul\":24697:24702   */\n      dup5\n        /* \"#utility.yul\":24694:24695   */\n      0x08\n        /* \"#utility.yul\":24690:24703   */\n      mul\n        /* \"#utility.yul\":24661:24712   */\n      tag_337\n      jump\t// in\n    tag_562:\n        /* \"#utility.yul\":24657:24713   */\n      not\n        /* \"#utility.yul\":24742:24746   */\n      dup1\n        /* \"#utility.yul\":24736:24740   */\n      dup4\n        /* \"#utility.yul\":24732:24747   */\n      and\n        /* \"#utility.yul\":24722:24747   */\n      swap2\n      pop\n        /* \"#utility.yul\":24635:24753   */\n      pop\n        /* \"#utility.yul\":24584:24753   */\n      swap3\n      swap2\n      pop\n      pop\n      jump\t// out\n        /* \"#utility.yul\":24758:25053   */\n    tag_339:\n        /* \"#utility.yul\":24834:24838   */\n      0x00\n        /* \"#utility.yul\":24980:25009   */\n      tag_564\n        /* \"#utility.yul\":25005:25008   */\n      dup4\n        /* \"#utility.yul\":24999:25003   */\n      dup4\n        /* \"#utility.yul\":24980:25009   */\n      tag_338\n      jump\t// in\n    tag_564:\n        /* \"#utility.yul\":24972:25009   */\n      swap2\n      pop\n        /* \"#utility.yul\":25042:25045   */\n      dup3\n        /* \"#utility.yul\":25039:25040   */\n      0x02\n        /* \"#utility.yul\":25035:25046   */\n      mul\n        /* \"#utility.yul\":25029:25033   */\n      dup3\n        /* \"#utility.yul\":25026:25047   */\n      or\n        /* \"#utility.yul\":25018:25047   */\n      swap1\n      pop\n        /* \"#utility.yul\":24758:25053   */\n      swap3\n      swap2\n      pop\n      pop\n      jump\t// out\n        /* \"#utility.yul\":25058:26461   */\n    tag_126:\n        /* \"#utility.yul\":25182:25226   */\n      tag_566\n        /* \"#utility.yul\":25222:25225   */\n      dup4\n        /* \"#utility.yul\":25217:25220   */\n      dup4\n        /* \"#utility.yul\":25182:25226   */\n      tag_323\n      jump\t// in\n    tag_566:\n        /* \"#utility.yul\":25291:25309   */\n      0xffffffffffffffff\n        /* \"#utility.yul\":25283:25289   */\n      dup2\n        /* \"#utility.yul\":25280:25310   */\n      gt\n        /* \"#utility.yul\":25277:25333   */\n      iszero\n      tag_567\n      jumpi\n        /* \"#utility.yul\":25313:25331   */\n      tag_568\n      tag_324\n      jump\t// in\n    tag_568:\n        /* \"#utility.yul\":25277:25333   */\n    tag_567:\n        /* \"#utility.yul\":25357:25395   */\n      tag_569\n        /* \"#utility.yul\":25389:25393   */\n      dup3\n        /* \"#utility.yul\":25383:25394   */\n      sload\n        /* \"#utility.yul\":25357:25395   */\n      tag_100\n      jump\t// in\n    tag_569:\n        /* \"#utility.yul\":25442:25509   */\n      tag_570\n        /* \"#utility.yul\":25502:25508   */\n      dup3\n        /* \"#utility.yul\":25494:25500   */\n      dup3\n        /* \"#utility.yul\":25488:25492   */\n      dup6\n        /* \"#utility.yul\":25442:25509   */\n      tag_336\n      jump\t// in\n    tag_570:\n        /* \"#utility.yul\":25536:25537   */\n      0x00\n        /* \"#utility.yul\":25565:25567   */\n      0x1f\n        /* \"#utility.yul\":25557:25563   */\n      dup4\n        /* \"#utility.yul\":25554:25568   */\n      gt\n        /* \"#utility.yul\":25582:25583   */\n      0x01\n        /* \"#utility.yul\":25577:26209   */\n      dup2\n      eq\n      tag_572\n      jumpi\n        /* \"#utility.yul\":26253:26254   */\n      0x00\n        /* \"#utility.yul\":26270:26276   */\n      dup5\n        /* \"#utility.yul\":26267:26351   */\n      iszero\n      tag_573\n      jumpi\n        /* \"#utility.yul\":26326:26335   */\n      dup3\n        /* \"#utility.yul\":26321:26324   */\n      dup8\n        /* \"#utility.yul\":26317:26336   */\n      add\n        /* \"#utility.yul\":26304:26337   */\n      calldataload\n        /* \"#utility.yul\":26295:26337   */\n      swap1\n      pop\n        /* \"#utility.yul\":26267:26351   */\n    tag_573:\n        /* \"#utility.yul\":26377:26444   */\n      tag_574\n        /* \"#utility.yul\":26437:26443   */\n      dup6\n        /* \"#utility.yul\":26430:26435   */\n      dup3\n        /* \"#utility.yul\":26377:26444   */\n      tag_339\n      jump\t// in\n    tag_574:\n        /* \"#utility.yul\":26371:26375   */\n      dup7\n        /* \"#utility.yul\":26364:26445   */\n      sstore\n        /* \"#utility.yul\":26226:26455   */\n      pop\n        /* \"#utility.yul\":25547:26455   */\n      jump(tag_571)\n        /* \"#utility.yul\":25577:26209   */\n    tag_572:\n        /* \"#utility.yul\":25629:25633   */\n      0x1f\n        /* \"#utility.yul\":25625:25634   */\n      not\n        /* \"#utility.yul\":25617:25623   */\n      dup5\n        /* \"#utility.yul\":25613:25635   */\n      and\n        /* \"#utility.yul\":25663:25700   */\n      tag_575\n        /* \"#utility.yul\":25695:25699   */\n      dup7\n        /* \"#utility.yul\":25663:25700   */\n      tag_325\n      jump\t// in\n    tag_575:\n        /* \"#utility.yul\":25722:25723   */\n      0x00\n        /* \"#utility.yul\":25736:25951   */\n    tag_576:\n        /* \"#utility.yul\":25750:25757   */\n      dup3\n        /* \"#utility.yul\":25747:25748   */\n      dup2\n        /* \"#utility.yul\":25744:25758   */\n      lt\n        /* \"#utility.yul\":25736:25951   */\n      iszero\n      tag_578\n      jumpi\n        /* \"#utility.yul\":25836:25845   */\n      dup5\n        /* \"#utility.yul\":25831:25834   */\n      dup10\n        /* \"#utility.yul\":25827:25846   */\n      add\n        /* \"#utility.yul\":25814:25847   */\n      calldataload\n        /* \"#utility.yul\":25806:25812   */\n      dup3\n        /* \"#utility.yul\":25799:25848   */\n      sstore\n        /* \"#utility.yul\":25887:25888   */\n      0x01\n        /* \"#utility.yul\":25879:25885   */\n      dup3\n        /* \"#utility.yul\":25875:25889   */\n      add\n        /* \"#utility.yul\":25865:25889   */\n      swap2\n      pop\n        /* \"#utility.yul\":25934:25936   */\n      0x20\n        /* \"#utility.yul\":25923:25932   */\n      dup6\n        /* \"#utility.yul\":25919:25937   */\n      add\n        /* \"#utility.yul\":25906:25937   */\n      swap5\n      pop\n        /* \"#utility.yul\":25773:25777   */\n      0x20\n        /* \"#utility.yul\":25770:25771   */\n      dup2\n        /* \"#utility.yul\":25766:25778   */\n      add\n        /* \"#utility.yul\":25761:25778   */\n      swap1\n      pop\n        /* \"#utility.yul\":25736:25951   */\n      jump(tag_576)\n    tag_578:\n        /* \"#utility.yul\":25979:25985   */\n      dup7\n        /* \"#utility.yul\":25970:25977   */\n      dup4\n        /* \"#utility.yul\":25967:25986   */\n      lt\n        /* \"#utility.yul\":25964:26150   */\n      iszero\n      tag_579\n      jumpi\n        /* \"#utility.yul\":26044:26053   */\n      dup5\n        /* \"#utility.yul\":26039:26042   */\n      dup10\n        /* \"#utility.yul\":26035:26054   */\n      add\n        /* \"#utility.yul\":26022:26055   */\n      calldataload\n        /* \"#utility.yul\":26087:26135   */\n      tag_580\n        /* \"#utility.yul\":26129:26133   */\n      0x1f\n        /* \"#utility.yul\":26121:26127   */\n      dup10\n        /* \"#utility.yul\":26117:26134   */\n      and\n        /* \"#utility.yul\":26106:26115   */\n      dup3\n        /* \"#utility.yul\":26087:26135   */\n      tag_338\n      jump\t// in\n    tag_580:\n        /* \"#utility.yul\":26079:26085   */\n      dup4\n        /* \"#utility.yul\":26072:26136   */\n      sstore\n        /* \"#utility.yul\":25987:26150   */\n      pop\n        /* \"#utility.yul\":25964:26150   */\n    tag_579:\n        /* \"#utility.yul\":26196:26197   */\n      0x01\n        /* \"#utility.yul\":26192:26193   */\n      0x02\n        /* \"#utility.yul\":26184:26190   */\n      dup9\n        /* \"#utility.yul\":26180:26194   */\n      mul\n        /* \"#utility.yul\":26176:26198   */\n      add\n        /* \"#utility.yul\":26170:26174   */\n      dup9\n        /* \"#utility.yul\":26163:26199   */\n      sstore\n        /* \"#utility.yul\":25584:26209   */\n      pop\n      pop\n      pop\n        /* \"#utility.yul\":25547:26455   */\n    tag_571:\n      pop\n        /* \"#utility.yul\":25157:26461   */\n      pop\n      pop\n      pop\n        /* \"#utility.yul\":25058:26461   */\n      pop\n      pop\n      pop\n      jump\t// out\n        /* \"#utility.yul\":26467:26639   */\n    tag_340:\n        /* \"#utility.yul\":26607:26631   */\n      0x4f6e6c7920332070726f6a65637420616c6c6f77656400000000000000000000\n        /* \"#utility.yul\":26603:26604   */\n      0x00\n        /* \"#utility.yul\":26595:26601   */\n      dup3\n        /* \"#utility.yul\":26591:26605   */\n      add\n        /* \"#utility.yul\":26584:26632   */\n      mstore\n        /* \"#utility.yul\":26467:26639   */\n      pop\n      jump\t// out\n        /* \"#utility.yul\":26645:27011   */\n    tag_341:\n        /* \"#utility.yul\":26787:26790   */\n      0x00\n        /* \"#utility.yul\":26808:26875   */\n      tag_583\n        /* \"#utility.yul\":26872:26874   */\n      0x16\n        /* \"#utility.yul\":26867:26870   */\n      dup4\n        /* \"#utility.yul\":26808:26875   */\n      tag_292\n      jump\t// in\n    tag_583:\n        /* \"#utility.yul\":26801:26875   */\n      swap2\n      pop\n        /* \"#utility.yul\":26884:26977   */\n      tag_584\n        /* \"#utility.yul\":26973:26976   */\n      dup3\n        /* \"#utility.yul\":26884:26977   */\n      tag_340\n      jump\t// in\n    tag_584:\n        /* \"#utility.yul\":27002:27004   */\n      0x20\n        /* \"#utility.yul\":26997:27000   */\n      dup3\n        /* \"#utility.yul\":26993:27005   */\n      add\n        /* \"#utility.yul\":26986:27005   */\n      swap1\n      pop\n        /* \"#utility.yul\":26645:27011   */\n      swap2\n      swap1\n      pop\n      jump\t// out\n        /* \"#utility.yul\":27017:27436   */\n    tag_138:\n        /* \"#utility.yul\":27183:27187   */\n      0x00\n        /* \"#utility.yul\":27221:27223   */\n      0x20\n        /* \"#utility.yul\":27210:27219   */\n      dup3\n        /* \"#utility.yul\":27206:27224   */\n      add\n        /* \"#utility.yul\":27198:27224   */\n      swap1\n      pop\n        /* \"#utility.yul\":27270:27279   */\n      dup2\n        /* \"#utility.yul\":27264:27268   */\n      dup2\n        /* \"#utility.yul\":27260:27280   */\n      sub\n        /* \"#utility.yul\":27256:27257   */\n      0x00\n        /* \"#utility.yul\":27245:27254   */\n      dup4\n        /* \"#utility.yul\":27241:27258   */\n      add\n        /* \"#utility.yul\":27234:27281   */\n      mstore\n        /* \"#utility.yul\":27298:27429   */\n      tag_586\n        /* \"#utility.yul\":27424:27428   */\n      dup2\n        /* \"#utility.yul\":27298:27429   */\n      tag_341\n      jump\t// in\n    tag_586:\n        /* \"#utility.yul\":27290:27429   */\n      swap1\n      pop\n        /* \"#utility.yul\":27017:27436   */\n      swap2\n      swap1\n      pop\n      jump\t// out\n        /* \"#utility.yul\":27442:27622   */\n    tag_141:\n        /* \"#utility.yul\":27490:27567   */\n      0x4e487b7100000000000000000000000000000000000000000000000000000000\n        /* \"#utility.yul\":27487:27488   */\n      0x00\n        /* \"#utility.yul\":27480:27568   */\n      mstore\n        /* \"#utility.yul\":27587:27591   */\n      0x32\n        /* \"#utility.yul\":27584:27585   */\n      0x04\n        /* \"#utility.yul\":27577:27592   */\n      mstore\n        /* \"#utility.yul\":27611:27615   */\n      0x24\n        /* \"#utility.yul\":27608:27609   */\n      0x00\n        /* \"#utility.yul\":27601:27616   */\n      revert\n        /* \"#utility.yul\":27628:29023   */\n    tag_144:\n        /* \"#utility.yul\":27745:27782   */\n      tag_589\n        /* \"#utility.yul\":27778:27781   */\n      dup3\n        /* \"#utility.yul\":27745:27782   */\n      tag_291\n      jump\t// in\n    tag_589:\n        /* \"#utility.yul\":27847:27865   */\n      0xffffffffffffffff\n        /* \"#utility.yul\":27839:27845   */\n      dup2\n        /* \"#utility.yul\":27836:27866   */\n      gt\n        /* \"#utility.yul\":27833:27889   */\n      iszero\n      tag_590\n      jumpi\n        /* \"#utility.yul\":27869:27887   */\n      tag_591\n      tag_324\n      jump\t// in\n    tag_591:\n        /* \"#utility.yul\":27833:27889   */\n    tag_590:\n        /* \"#utility.yul\":27913:27951   */\n      tag_592\n        /* \"#utility.yul\":27945:27949   */\n      dup3\n        /* \"#utility.yul\":27939:27950   */\n      sload\n        /* \"#utility.yul\":27913:27951   */\n      tag_100\n      jump\t// in\n    tag_592:\n        /* \"#utility.yul\":27998:28065   */\n      tag_593\n        /* \"#utility.yul\":28058:28064   */\n      dup3\n        /* \"#utility.yul\":28050:28056   */\n      dup3\n        /* \"#utility.yul\":28044:28048   */\n      dup6\n        /* \"#utility.yul\":27998:28065   */\n      tag_336\n      jump\t// in\n    tag_593:\n        /* \"#utility.yul\":28092:28093   */\n      0x00\n        /* \"#utility.yul\":28116:28120   */\n      0x20\n        /* \"#utility.yul\":28103:28120   */\n      swap1\n      pop\n        /* \"#utility.yul\":28148:28150   */\n      0x1f\n        /* \"#utility.yul\":28140:28146   */\n      dup4\n        /* \"#utility.yul\":28137:28151   */\n      gt\n        /* \"#utility.yul\":28165:28166   */\n      0x01\n        /* \"#utility.yul\":28160:28778   */\n      dup2\n      eq\n      tag_595\n      jumpi\n        /* \"#utility.yul\":28822:28823   */\n      0x00\n        /* \"#utility.yul\":28839:28845   */\n      dup5\n        /* \"#utility.yul\":28836:28913   */\n      iszero\n      tag_596\n      jumpi\n        /* \"#utility.yul\":28888:28897   */\n      dup3\n        /* \"#utility.yul\":28883:28886   */\n      dup8\n        /* \"#utility.yul\":28879:28898   */\n      add\n        /* \"#utility.yul\":28873:28899   */\n      mload\n        /* \"#utility.yul\":28864:28899   */\n      swap1\n      pop\n        /* \"#utility.yul\":28836:28913   */\n    tag_596:\n        /* \"#utility.yul\":28939:29006   */\n      tag_597\n        /* \"#utility.yul\":28999:29005   */\n      dup6\n        /* \"#utility.yul\":28992:28997   */\n      dup3\n        /* \"#utility.yul\":28939:29006   */\n      tag_339\n      jump\t// in\n    tag_597:\n        /* \"#utility.yul\":28933:28937   */\n      dup7\n        /* \"#utility.yul\":28926:29007   */\n      sstore\n        /* \"#utility.yul\":28795:29017   */\n      pop\n        /* \"#utility.yul\":28130:29017   */\n      jump(tag_594)\n        /* \"#utility.yul\":28160:28778   */\n    tag_595:\n        /* \"#utility.yul\":28212:28216   */\n      0x1f\n        /* \"#utility.yul\":28208:28217   */\n      not\n        /* \"#utility.yul\":28200:28206   */\n      dup5\n        /* \"#utility.yul\":28196:28218   */\n      and\n        /* \"#utility.yul\":28246:28283   */\n      tag_598\n        /* \"#utility.yul\":28278:28282   */\n      dup7\n        /* \"#utility.yul\":28246:28283   */\n      tag_325\n      jump\t// in\n    tag_598:\n        /* \"#utility.yul\":28305:28306   */\n      0x00\n        /* \"#utility.yul\":28319:28527   */\n    tag_599:\n        /* \"#utility.yul\":28333:28340   */\n      dup3\n        /* \"#utility.yul\":28330:28331   */\n      dup2\n        /* \"#utility.yul\":28327:28341   */\n      lt\n        /* \"#utility.yul\":28319:28527   */\n      iszero\n      tag_601\n      jumpi\n        /* \"#utility.yul\":28412:28421   */\n      dup5\n        /* \"#utility.yul\":28407:28410   */\n      dup10\n        /* \"#utility.yul\":28403:28422   */\n      add\n        /* \"#utility.yul\":28397:28423   */\n      mload\n        /* \"#utility.yul\":28389:28395   */\n      dup3\n        /* \"#utility.yul\":28382:28424   */\n      sstore\n        /* \"#utility.yul\":28463:28464   */\n      0x01\n        /* \"#utility.yul\":28455:28461   */\n      dup3\n        /* \"#utility.yul\":28451:28465   */\n      add\n        /* \"#utility.yul\":28441:28465   */\n      swap2\n      pop\n        /* \"#utility.yul\":28510:28512   */\n      0x20\n        /* \"#utility.yul\":28499:28508   */\n      dup6\n        /* \"#utility.yul\":28495:28513   */\n      add\n        /* \"#utility.yul\":28482:28513   */\n      swap5\n      pop\n        /* \"#utility.yul\":28356:28360   */\n      0x20\n        /* \"#utility.yul\":28353:28354   */\n      dup2\n        /* \"#utility.yul\":28349:28361   */\n      add\n        /* \"#utility.yul\":28344:28361   */\n      swap1\n      pop\n        /* \"#utility.yul\":28319:28527   */\n      jump(tag_599)\n    tag_601:\n        /* \"#utility.yul\":28555:28561   */\n      dup7\n        /* \"#utility.yul\":28546:28553   */\n      dup4\n        /* \"#utility.yul\":28543:28562   */\n      lt\n        /* \"#utility.yul\":28540:28719   */\n      iszero\n      tag_602\n      jumpi\n        /* \"#utility.yul\":28613:28622   */\n      dup5\n        /* \"#utility.yul\":28608:28611   */\n      dup10\n        /* \"#utility.yul\":28604:28623   */\n      add\n        /* \"#utility.yul\":28598:28624   */\n      mload\n        /* \"#utility.yul\":28656:28704   */\n      tag_603\n        /* \"#utility.yul\":28698:28702   */\n      0x1f\n        /* \"#utility.yul\":28690:28696   */\n      dup10\n        /* \"#utility.yul\":28686:28703   */\n      and\n        /* \"#utility.yul\":28675:28684   */\n      dup3\n        /* \"#utility.yul\":28656:28704   */\n      tag_338\n      jump\t// in\n    tag_603:\n        /* \"#utility.yul\":28648:28654   */\n      dup4\n        /* \"#utility.yul\":28641:28705   */\n      sstore\n        /* \"#utility.yul\":28563:28719   */\n      pop\n        /* \"#utility.yul\":28540:28719   */\n    tag_602:\n        /* \"#utility.yul\":28765:28766   */\n      0x01\n        /* \"#utility.yul\":28761:28762   */\n      0x02\n        /* \"#utility.yul\":28753:28759   */\n      dup9\n        /* \"#utility.yul\":28749:28763   */\n      mul\n        /* \"#utility.yul\":28745:28767   */\n      add\n        /* \"#utility.yul\":28739:28743   */\n      dup9\n        /* \"#utility.yul\":28732:28768   */\n      sstore\n        /* \"#utility.yul\":28167:28778   */\n      pop\n      pop\n      pop\n        /* \"#utility.yul\":28130:29017   */\n    tag_594:\n      pop\n        /* \"#utility.yul\":27720:29023   */\n      pop\n      pop\n      pop\n        /* \"#utility.yul\":27628:29023   */\n      pop\n      pop\n      jump\t// out\n        /* \"#utility.yul\":29029:29209   */\n    tag_342:\n        /* \"#utility.yul\":29077:29154   */\n      0x4e487b7100000000000000000000000000000000000000000000000000000000\n        /* \"#utility.yul\":29074:29075   */\n      0x00\n        /* \"#utility.yul\":29067:29155   */\n      mstore\n        /* \"#utility.yul\":29174:29178   */\n      0x11\n        /* \"#utility.yul\":29171:29172   */\n      0x04\n        /* \"#utility.yul\":29164:29179   */\n      mstore\n        /* \"#utility.yul\":29198:29202   */\n      0x24\n        /* \"#utility.yul\":29195:29196   */\n      0x00\n        /* \"#utility.yul\":29188:29203   */\n      revert\n        /* \"#utility.yul\":29215:29448   */\n    tag_149:\n        /* \"#utility.yul\":29254:29257   */\n      0x00\n        /* \"#utility.yul\":29277:29301   */\n      tag_606\n        /* \"#utility.yul\":29295:29300   */\n      dup3\n        /* \"#utility.yul\":29277:29301   */\n      tag_287\n      jump\t// in\n    tag_606:\n        /* \"#utility.yul\":29268:29301   */\n      swap2\n      pop\n        /* \"#utility.yul\":29323:29389   */\n      0xffffffffffffffffffffffffffffffffffffffffffffffffffffffffffffffff\n        /* \"#utility.yul\":29316:29321   */\n      dup3\n        /* \"#utility.yul\":29313:29390   */\n      sub\n        /* \"#utility.yul\":29310:29413   */\n      tag_607\n      jumpi\n        /* \"#utility.yul\":29393:29411   */\n      tag_608\n      tag_342\n      jump\t// in\n    tag_608:\n        /* \"#utility.yul\":29310:29413   */\n    tag_607:\n        /* \"#utility.yul\":29440:29441   */\n      0x01\n        /* \"#utility.yul\":29433:29438   */\n      dup3\n        /* \"#utility.yul\":29429:29442   */\n      add\n        /* \"#utility.yul\":29422:29442   */\n      swap1\n      pop\n        /* \"#utility.yul\":29215:29448   */\n      swap2\n      swap1\n      pop\n      jump\t// out\n        /* \"#utility.yul\":29454:29628   */\n    tag_343:\n        /* \"#utility.yul\":29594:29620   */\n      0x4f6e6c79203320656475636174696f6e20616c6c6f7765640000000000000000\n        /* \"#utility.yul\":29590:29591   */\n      0x00\n        /* \"#utility.yul\":29582:29588   */\n      dup3\n        /* \"#utility.yul\":29578:29592   */\n      add\n        /* \"#utility.yul\":29571:29621   */\n      mstore\n        /* \"#utility.yul\":29454:29628   */\n      pop\n      jump\t// out\n        /* \"#utility.yul\":29634:30000   */\n    tag_344:\n        /* \"#utility.yul\":29776:29779   */\n      0x00\n        /* \"#utility.yul\":29797:29864   */\n      tag_611\n        /* \"#utility.yul\":29861:29863   */\n      0x18\n        /* \"#utility.yul\":29856:29859   */\n      dup4\n        /* \"#utility.yul\":29797:29864   */\n      tag_292\n      jump\t// in\n    tag_611:\n        /* \"#utility.yul\":29790:29864   */\n      swap2\n      pop\n        /* \"#utility.yul\":29873:29966   */\n      tag_612\n        /* \"#utility.yul\":29962:29965   */\n      dup3\n        /* \"#utility.yul\":29873:29966   */\n      tag_343\n      jump\t// in\n    tag_612:\n        /* \"#utility.yul\":29991:29993   */\n      0x20\n        /* \"#utility.yul\":29986:29989   */\n      dup3\n        /* \"#utility.yul\":29982:29994   */\n      add\n        /* \"#utility.yul\":29975:29994   */\n      swap1\n      pop\n        /* \"#utility.yul\":29634:30000   */\n      swap2\n      swap1\n      pop\n      jump\t// out\n        /* \"#utility.yul\":30006:30425   */\n    tag_214:\n        /* \"#utility.yul\":30172:30176   */\n      0x00\n        /* \"#utility.yul\":30210:30212   */\n      0x20\n        /* \"#utility.yul\":30199:30208   */\n      dup3\n        /* \"#utility.yul\":30195:30213   */\n      add\n        /* \"#utility.yul\":30187:30213   */\n      swap1\n      pop\n        /* \"#utility.yul\":30259:30268   */\n      dup2\n        /* \"#utility.yul\":30253:30257   */\n      dup2\n        /* \"#utility.yul\":30249:30269   */\n      sub\n        /* \"#utility.yul\":30245:30246   */\n      0x00\n        /* \"#utility.yul\":30234:30243   */\n      dup4\n        /* \"#utility.yul\":30230:30247   */\n      add\n        /* \"#utility.yul\":30223:30270   */\n      mstore\n        /* \"#utility.yul\":30287:30418   */\n      tag_614\n        /* \"#utility.yul\":30413:30417   */\n      dup2\n        /* \"#utility.yul\":30287:30418   */\n      tag_344\n      jump\t// in\n    tag_614:\n        /* \"#utility.yul\":30279:30418   */\n      swap1\n      pop\n        /* \"#utility.yul\":30006:30425   */\n      swap2\n      swap1\n      pop\n      jump\t// out\n\n    auxdata: 0xa2646970667358221220184b8a4ef6e35f339f5eb8f91567d581134244744ca3da1b3949552fd5876cfa64736f6c634300081a0033\n}\n",
				"bytecode": {
					"linkReferences": {},
					"object": "60806040526040518060600160405280603b8152602001612e40603b9139601b908161002b9190610307565b506040518060600160405280603b8152602001612e05603b9139601c90816100539190610307565b506040518060a00160405280606e8152602001612d97606e9139601d908161007b9190610307565b50348015610087575f80fd5b503360205f6101000a81548173ffffffffffffffffffffffffffffffffffffffff021916908373ffffffffffffffffffffffffffffffffffffffff1602179055506103d6565b5f81519050919050565b7f4e487b71000000000000000000000000000000000000000000000000000000005f52604160045260245ffd5b7f4e487b71000000000000000000000000000000000000000000000000000000005f52602260045260245ffd5b5f600282049050600182168061014857607f821691505b60208210810361015b5761015a610104565b5b50919050565b5f819050815f5260205f209050919050565b5f6020601f8301049050919050565b5f82821b905092915050565b5f600883026101bd7fffffffffffffffffffffffffffffffffffffffffffffffffffffffffffffffff82610182565b6101c78683610182565b95508019841693508086168417925050509392505050565b5f819050919050565b5f819050919050565b5f61020b610206610201846101df565b6101e8565b6101df565b9050919050565b5f819050919050565b610224836101f1565b61023861023082610212565b84845461018e565b825550505050565b5f90565b61024c610240565b61025781848461021b565b505050565b5b8181101561027a5761026f5f82610244565b60018101905061025d565b5050565b601f8211156102bf5761029081610161565b61029984610173565b810160208510156102a8578190505b6102bc6102b485610173565b83018261025c565b50505b505050565b5f82821c905092915050565b5f6102df5f19846008026102c4565b1980831691505092915050565b5f6102f783836102d0565b9150826002028217905092915050565b610310826100cd565b67ffffffffffffffff811115610329576103286100d7565b5b6103338254610131565b61033e82828561027e565b5f60209050601f83116001811461036f575f841561035d578287015190505b61036785826102ec565b8655506103ce565b601f19841661037d86610161565b5f5b828110156103a45784890151825560018201915060208501945060208101905061037f565b868310156103c157848901516103bd601f8916826102d0565b8355505b6001600288020188555050505b505050505050565b6129b4806103e35f395ff3fe6080604052600436106100f2575f3560e01c8063a32ac35d11610089578063e3763bcb11610058578063e3763bcb1461030f578063e612041314610337578063ed88c68e1461035f578063fe47e03e14610369576100f2565b8063a32ac35d1461026b578063bb33086f14610295578063caf7b759146102bd578063d3cedf11146102e7576100f2565b80636426d4c3116100c55780636426d4c3146101b25780636fe8e0bd146101da5780637284e416146102025780637aea95aa1461022c576100f2565b8063107046bd146100f6578063481c6a7514610136578063598e7f37146101605780635cea6a7c14610188575b5f80fd5b348015610101575f80fd5b5061011c60048036038101906101179190611b0c565b610393565b60405161012d959493929190611bb6565b60405180910390f35b348015610141575f80fd5b5061014a6105e3565b6040516101579190611c62565b60405180910390f35b34801561016b575f80fd5b5061018660048036038101906101819190611cdc565b610608565b005b348015610193575f80fd5b5061019c6106ad565b6040516101a99190611d27565b60405180910390f35b3480156101bd575f80fd5b506101d860048036038101906101d39190611d47565b610739565b005b3480156101e5575f80fd5b5061020060048036038101906101fb9190611e2b565b6109df565b005b34801561020d575f80fd5b50610216610c75565b6040516102239190611d27565b60405180910390f35b348015610237575f80fd5b50610252600480360381019061024d9190611b0c565b610d01565b6040516102629493929190611f21565b60405180910390f35b348015610276575f80fd5b5061027f610ec6565b60405161028c91906120ed565b60405180910390f35b3480156102a0575f80fd5b506102bb60048036038101906102b6919061210d565b6110d0565b005b3480156102c8575f80fd5b506102d1611306565b6040516102de9190611d27565b60405180910390f35b3480156102f2575f80fd5b5061030d60048036038101906103089190611cdc565b611392565b005b34801561031a575f80fd5b50610335600480360381019061033091906121d1565b611437565b005b348015610342575f80fd5b5061035d60048036038101906103589190611cdc565b61167d565b005b610367611722565b005b348015610374575f80fd5b5061037d611789565b60405161038a91906123b8565b60405180910390f35b5f81600381106103a1575f80fd5b600502015f91509050805f0154908060010180546103be90612405565b80601f01602080910402602001604051908101604052809291908181526020018280546103ea90612405565b80156104355780601f1061040c57610100808354040283529160200191610435565b820191905f5260205f20905b81548152906001019060200180831161041857829003601f168201915b50505050509080600201805461044a90612405565b80601f016020809104026020016040519081016040528092919081815260200182805461047690612405565b80156104c15780601f10610498576101008083540402835291602001916104c1565b820191905f5260205f20905b8154815290600101906020018083116104a457829003601f168201915b5050505050908060030180546104d690612405565b80601f016020809104026020016040519081016040528092919081815260200182805461050290612405565b801561054d5780601f106105245761010080835404028352916020019161054d565b820191905f5260205f20905b81548152906001019060200180831161053057829003601f168201915b50505050509080600401805461056290612405565b80601f016020809104026020016040519081016040528092919081815260200182805461058e90612405565b80156105d95780601f106105b0576101008083540402835291602001916105d9565b820191905f5260205f20905b8154815290600101906020018083116105bc57829003601f168201915b5050505050905085565b60205f9054906101000a900473ffffffffffffffffffffffffffffffffffffffff1681565b3373ffffffffffffffffffffffffffffffffffffffff1660205f9054906101000a900473ffffffffffffffffffffffffffffffffffffffff1673ffffffffffffffffffffffffffffffffffffffff1614610697576040517f08c379a000000000000000000000000000000000000000000000000000000000815260040161068e9061247f565b60405180910390fd5b8181601b91826106a8929190612671565b505050565b601c80546106ba90612405565b80601f01602080910402602001604051908101604052809291908181526020018280546106e690612405565b80156107315780601f1061070857610100808354040283529160200191610731565b820191905f5260205f20905b81548152906001019060200180831161071457829003601f168201915b505050505081565b3373ffffffffffffffffffffffffffffffffffffffff1660205f9054906101000a900473ffffffffffffffffffffffffffffffffffffffff1673ffffffffffffffffffffffffffffffffffffffff16146107c8576040517f08c379a00000000000000000000000000000000000000000000000000000000081526004016107bf9061247f565b60405180910390fd5b6003601e541061080d576040517f08c379a000000000000000000000000000000000000000000000000000000000815260040161080490612788565b60405180910390fd5b6040518060a00160405280601e54815260200189898080601f0160208091040260200160405190810160405280939291908181526020018383808284375f81840152601f19601f82011690508083019250505050505050815260200187878080601f0160208091040260200160405190810160405280939291908181526020018383808284375f81840152601f19601f82011690508083019250505050505050815260200185858080601f0160208091040260200160405190810160405280939291908181526020018383808284375f81840152601f19601f82011690508083019250505050505050815260200183838080601f0160208091040260200160405190810160405280939291908181526020018383808284375f81840152601f19601f820116905080830192505050505050508152505f601e5460038110610957576109566127a6565b5b600502015f820151815f0155602082015181600101908161097891906127d3565b50604082015181600201908161098e91906127d3565b5060608201518160030190816109a491906127d3565b5060808201518160040190816109ba91906127d3565b50905050601e5f8154809291906109d0906128cf565b91905055505050505050505050565b3373ffffffffffffffffffffffffffffffffffffffff1660205f9054906101000a900473ffffffffffffffffffffffffffffffffffffffff1673ffffffffffffffffffffffffffffffffffffffff1614610a6e576040517f08c379a0000000000000000000000000000000000000000000000000000000008152600401610a659061247f565b60405180910390fd5b5f8110158015610a7e5750600381105b610abd576040517f08c379a0000000000000000000000000000000000000000000000000000000008152600401610ab490612788565b60405180910390fd5b6040518060a001604052808281526020018a8a8080601f0160208091040260200160405190810160405280939291908181526020018383808284375f81840152601f19601f82011690508083019250505050505050815260200188888080601f0160208091040260200160405190810160405280939291908181526020018383808284375f81840152601f19601f82011690508083019250505050505050815260200186868080601f0160208091040260200160405190810160405280939291908181526020018383808284375f81840152601f19601f82011690508083019250505050505050815260200184848080601f0160208091040260200160405190810160405280939291908181526020018383808284375f81840152601f19601f820116905080830192505050505050508152505f8260038110610c0357610c026127a6565b5b600502015f820151815f01556020820151816001019081610c2491906127d3565b506040820151816002019081610c3a91906127d3565b506060820151816003019081610c5091906127d3565b506080820151816004019081610c6691906127d3565b50905050505050505050505050565b601d8054610c8290612405565b80601f0160208091040260200160405190810160405280929190818152602001828054610cae90612405565b8015610cf95780601f10610cd057610100808354040283529160200191610cf9565b820191905f5260205f20905b815481529060010190602001808311610cdc57829003601f168201915b505050505081565b600f8160038110610d10575f80fd5b600402015f91509050805f015490806001018054610d2d90612405565b80601f0160208091040260200160405190810160405280929190818152602001828054610d5990612405565b8015610da45780601f10610d7b57610100808354040283529160200191610da4565b820191905f5260205f20905b815481529060010190602001808311610d8757829003601f168201915b505050505090806002018054610db990612405565b80601f0160208091040260200160405190810160405280929190818152602001828054610de590612405565b8015610e305780601f10610e0757610100808354040283529160200191610e30565b820191905f5260205f20905b815481529060010190602001808311610e1357829003601f168201915b505050505090806003018054610e4590612405565b80601f0160208091040260200160405190810160405280929190818152602001828054610e7190612405565b8015610ebc5780601f10610e9357610100808354040283529160200191610ebc565b820191905f5260205f20905b815481529060010190602001808311610e9f57829003601f168201915b5050505050905084565b610ece611a22565b600f600380602002604051908101604052809291905f905b828210156110c7578382600402016040518060800160405290815f8201548152602001600182018054610f1890612405565b80601f0160208091040260200160405190810160405280929190818152602001828054610f4490612405565b8015610f8f5780601f10610f6657610100808354040283529160200191610f8f565b820191905f5260205f20905b815481529060010190602001808311610f7257829003601f168201915b50505050508152602001600282018054610fa890612405565b80601f0160208091040260200160405190810160405280929190818152602001828054610fd490612405565b801561101f5780601f10610ff65761010080835404028352916020019161101f565b820191905f5260205f20905b81548152906001019060200180831161100257829003601f168201915b5050505050815260200160038201805461103890612405565b80601f016020809104026020016040519081016040528092919081815260200182805461106490612405565b80156110af5780601f10611086576101008083540402835291602001916110af565b820191905f5260205f20905b81548152906001019060200180831161109257829003601f168201915b50505050508152505081526020019060010190610ee6565b50505050905090565b3373ffffffffffffffffffffffffffffffffffffffff1660205f9054906101000a900473ffffffffffffffffffffffffffffffffffffffff1673ffffffffffffffffffffffffffffffffffffffff161461115f576040517f08c379a00000000000000000000000000000000000000000000000000000000081526004016111569061247f565b60405180910390fd5b5f811015801561116f5750600381105b6111ae576040517f08c379a00000000000000000000000000000000000000000000000000000000081526004016111a590612960565b60405180910390fd5b604051806080016040528082815260200188888080601f0160208091040260200160405190810160405280939291908181526020018383808284375f81840152601f19601f82011690508083019250505050505050815260200186868080601f0160208091040260200160405190810160405280939291908181526020018383808284375f81840152601f19601f82011690508083019250505050505050815260200184848080601f0160208091040260200160405190810160405280939291908181526020018383808284375f81840152601f19601f82011690508083019250505050505050815250600f82600381106112ac576112ab6127a6565b5b600402015f820151815f015560208201518160010190816112cd91906127d3565b5060408201518160020190816112e391906127d3565b5060608201518160030190816112f991906127d3565b5090505050505050505050565b601b805461131390612405565b80601f016020809104026020016040519081016040528092919081815260200182805461133f90612405565b801561138a5780601f106113615761010080835404028352916020019161138a565b820191905f5260205f20905b81548152906001019060200180831161136d57829003601f168201915b505050505081565b3373ffffffffffffffffffffffffffffffffffffffff1660205f9054906101000a900473ffffffffffffffffffffffffffffffffffffffff1673ffffffffffffffffffffffffffffffffffffffff1614611421576040517f08c379a00000000000000000000000000000000000000000000000000000000081526004016114189061247f565b60405180910390fd5b8181601c9182611432929190612671565b505050565b3373ffffffffffffffffffffffffffffffffffffffff1660205f9054906101000a900473ffffffffffffffffffffffffffffffffffffffff1673ffffffffffffffffffffffffffffffffffffffff16146114c6576040517f08c379a00000000000000000000000000000000000000000000000000000000081526004016114bd9061247f565b60405180910390fd5b6003601f541061150b576040517f08c379a000000000000000000000000000000000000000000000000000000000815260040161150290612960565b60405180910390fd5b6040518060800160405280601f54815260200187878080601f0160208091040260200160405190810160405280939291908181526020018383808284375f81840152601f19601f82011690508083019250505050505050815260200185858080601f0160208091040260200160405190810160405280939291908181526020018383808284375f81840152601f19601f82011690508083019250505050505050815260200183838080601f0160208091040260200160405190810160405280939291908181526020018383808284375f81840152601f19601f82011690508083019250505050505050815250600f601f546003811061160d5761160c6127a6565b5b600402015f820151815f0155602082015181600101908161162e91906127d3565b50604082015181600201908161164491906127d3565b50606082015181600301908161165a91906127d3565b50905050601f5f815480929190611670906128cf565b9190505550505050505050565b3373ffffffffffffffffffffffffffffffffffffffff1660205f9054906101000a900473ffffffffffffffffffffffffffffffffffffffff1673ffffffffffffffffffffffffffffffffffffffff161461170c576040517f08c379a00000000000000000000000000000000000000000000000000000000081526004016117039061247f565b60405180910390fd5b8181601d918261171d929190612671565b505050565b60205f9054906101000a900473ffffffffffffffffffffffffffffffffffffffff1673ffffffffffffffffffffffffffffffffffffffff166108fc3490811502906040515f60405180830381858888f19350505050158015611786573d5f803e3d5ffd5b50565b611791611a4f565b5f600380602002604051908101604052809291905f905b82821015611a19578382600502016040518060a00160405290815f82015481526020016001820180546117da90612405565b80601f016020809104026020016040519081016040528092919081815260200182805461180690612405565b80156118515780601f1061182857610100808354040283529160200191611851565b820191905f5260205f20905b81548152906001019060200180831161183457829003601f168201915b5050505050815260200160028201805461186a90612405565b80601f016020809104026020016040519081016040528092919081815260200182805461189690612405565b80156118e15780601f106118b8576101008083540402835291602001916118e1565b820191905f5260205f20905b8154815290600101906020018083116118c457829003601f168201915b505050505081526020016003820180546118fa90612405565b80601f016020809104026020016040519081016040528092919081815260200182805461192690612405565b80156119715780601f1061194857610100808354040283529160200191611971565b820191905f5260205f20905b81548152906001019060200180831161195457829003601f168201915b5050505050815260200160048201805461198a90612405565b80601f01602080910402602001604051908101604052809291908181526020018280546119b690612405565b8015611a015780601f106119d857610100808354040283529160200191611a01565b820191905f5260205f20905b8154815290600101906020018083116119e457829003601f168201915b505050505081525050815260200190600101906117a8565b50505050905090565b60405180606001604052806003905b611a39611a7c565b815260200190600190039081611a315790505090565b60405180606001604052806003905b611a66611aa3565b815260200190600190039081611a5e5790505090565b60405180608001604052805f81526020016060815260200160608152602001606081525090565b6040518060a001604052805f8152602001606081526020016060815260200160608152602001606081525090565b5f80fd5b5f80fd5b5f819050919050565b611aeb81611ad9565b8114611af5575f80fd5b50565b5f81359050611b0681611ae2565b92915050565b5f60208284031215611b2157611b20611ad1565b5b5f611b2e84828501611af8565b91505092915050565b611b4081611ad9565b82525050565b5f81519050919050565b5f82825260208201905092915050565b8281835e5f83830152505050565b5f601f19601f8301169050919050565b5f611b8882611b46565b611b928185611b50565b9350611ba2818560208601611b60565b611bab81611b6e565b840191505092915050565b5f60a082019050611bc95f830188611b37565b8181036020830152611bdb8187611b7e565b90508181036040830152611bef8186611b7e565b90508181036060830152611c038185611b7e565b90508181036080830152611c178184611b7e565b90509695505050505050565b5f73ffffffffffffffffffffffffffffffffffffffff82169050919050565b5f611c4c82611c23565b9050919050565b611c5c81611c42565b82525050565b5f602082019050611c755f830184611c53565b92915050565b5f80fd5b5f80fd5b5f80fd5b5f8083601f840112611c9c57611c9b611c7b565b5b8235905067ffffffffffffffff811115611cb957611cb8611c7f565b5b602083019150836001820283011115611cd557611cd4611c83565b5b9250929050565b5f8060208385031215611cf257611cf1611ad1565b5b5f83013567ffffffffffffffff811115611d0f57611d0e611ad5565b5b611d1b85828601611c87565b92509250509250929050565b5f6020820190508181035f830152611d3f8184611b7e565b905092915050565b5f805f805f805f806080898b031215611d6357611d62611ad1565b5b5f89013567ffffffffffffffff811115611d8057611d7f611ad5565b5b611d8c8b828c01611c87565b9850985050602089013567ffffffffffffffff811115611daf57611dae611ad5565b5b611dbb8b828c01611c87565b9650965050604089013567ffffffffffffffff811115611dde57611ddd611ad5565b5b611dea8b828c01611c87565b9450945050606089013567ffffffffffffffff811115611e0d57611e0c611ad5565b5b611e198b828c01611c87565b92509250509295985092959890939650565b5f805f805f805f805f60a08a8c031215611e4857611e47611ad1565b5b5f8a013567ffffffffffffffff811115611e6557611e64611ad5565b5b611e718c828d01611c87565b995099505060208a013567ffffffffffffffff811115611e9457611e93611ad5565b5b611ea08c828d01611c87565b975097505060408a013567ffffffffffffffff811115611ec357611ec2611ad5565b5b611ecf8c828d01611c87565b955095505060608a013567ffffffffffffffff811115611ef257611ef1611ad5565b5b611efe8c828d01611c87565b93509350506080611f118c828d01611af8565b9150509295985092959850929598565b5f608082019050611f345f830187611b37565b8181036020830152611f468186611b7e565b90508181036040830152611f5a8185611b7e565b90508181036060830152611f6e8184611b7e565b905095945050505050565b5f60039050919050565b5f81905092915050565b5f819050919050565b611f9f81611ad9565b82525050565b5f82825260208201905092915050565b5f611fbf82611b46565b611fc98185611fa5565b9350611fd9818560208601611b60565b611fe281611b6e565b840191505092915050565b5f608083015f8301516120025f860182611f96565b506020830151848203602086015261201a8282611fb5565b915050604083015184820360408601526120348282611fb5565b9150506060830151848203606086015261204e8282611fb5565b9150508091505092915050565b5f6120668383611fed565b905092915050565b5f602082019050919050565b5f61208482611f79565b61208e8185611f83565b9350836020820285016120a085611f8d565b805f5b858110156120db57848403895281516120bc858261205b565b94506120c78361206e565b925060208a019950506001810190506120a3565b50829750879550505050505092915050565b5f6020820190508181035f830152612105818461207a565b905092915050565b5f805f805f805f6080888a03121561212857612127611ad1565b5b5f88013567ffffffffffffffff81111561214557612144611ad5565b5b6121518a828b01611c87565b9750975050602088013567ffffffffffffffff81111561217457612173611ad5565b5b6121808a828b01611c87565b9550955050604088013567ffffffffffffffff8111156121a3576121a2611ad5565b5b6121af8a828b01611c87565b935093505060606121c28a828b01611af8565b91505092959891949750929550565b5f805f805f80606087890312156121eb576121ea611ad1565b5b5f87013567ffffffffffffffff81111561220857612207611ad5565b5b61221489828a01611c87565b9650965050602087013567ffffffffffffffff81111561223757612236611ad5565b5b61224389828a01611c87565b9450945050604087013567ffffffffffffffff81111561226657612265611ad5565b5b61227289828a01611c87565b92509250509295509295509295565b5f60039050919050565b5f81905092915050565b5f819050919050565b5f60a083015f8301516122b35f860182611f96565b50602083015184820360208601526122cb8282611fb5565b915050604083015184820360408601526122e58282611fb5565b915050606083015184820360608601526122ff8282611fb5565b915050608083015184820360808601526123198282611fb5565b9150508091505092915050565b5f612331838361229e565b905092915050565b5f602082019050919050565b5f61234f82612281565b612359818561228b565b93508360208202850161236b85612295565b805f5b858110156123a657848403895281516123878582612326565b945061239283612339565b925060208a0199505060018101905061236e565b50829750879550505050505092915050565b5f6020820190508181035f8301526123d08184612345565b905092915050565b7f4e487b71000000000000000000000000000000000000000000000000000000005f52602260045260245ffd5b5f600282049050600182168061241c57607f821691505b60208210810361242f5761242e6123d8565b5b50919050565b7f796f7520617265206e6f7420746865206d616e616765720000000000000000005f82015250565b5f612469601783611b50565b915061247482612435565b602082019050919050565b5f6020820190508181035f8301526124968161245d565b9050919050565b5f82905092915050565b7f4e487b71000000000000000000000000000000000000000000000000000000005f52604160045260245ffd5b5f819050815f5260205f209050919050565b5f6020601f8301049050919050565b5f82821b905092915050565b5f600883026125307fffffffffffffffffffffffffffffffffffffffffffffffffffffffffffffffff826124f5565b61253a86836124f5565b95508019841693508086168417925050509392505050565b5f819050919050565b5f61257561257061256b84611ad9565b612552565b611ad9565b9050919050565b5f819050919050565b61258e8361255b565b6125a261259a8261257c565b848454612501565b825550505050565b5f90565b6125b66125aa565b6125c1818484612585565b505050565b5b818110156125e4576125d95f826125ae565b6001810190506125c7565b5050565b601f821115612629576125fa816124d4565b612603846124e6565b81016020851015612612578190505b61262661261e856124e6565b8301826125c6565b50505b505050565b5f82821c905092915050565b5f6126495f198460080261262e565b1980831691505092915050565b5f612661838361263a565b9150826002028217905092915050565b61267b838361249d565b67ffffffffffffffff811115612694576126936124a7565b5b61269e8254612405565b6126a98282856125e8565b5f601f8311600181146126d6575f84156126c4578287013590505b6126ce8582612656565b865550612735565b601f1984166126e4866124d4565b5f5b8281101561270b578489013582556001820191506020850194506020810190506126e6565b868310156127285784890135612724601f89168261263a565b8355505b6001600288020188555050505b50505050505050565b7f4f6e6c7920332070726f6a65637420616c6c6f776564000000000000000000005f82015250565b5f612772601683611b50565b915061277d8261273e565b602082019050919050565b5f6020820190508181035f83015261279f81612766565b9050919050565b7f4e487b71000000000000000000000000000000000000000000000000000000005f52603260045260245ffd5b6127dc82611b46565b67ffffffffffffffff8111156127f5576127f46124a7565b5b6127ff8254612405565b61280a8282856125e8565b5f60209050601f83116001811461283b575f8415612829578287015190505b6128338582612656565b86555061289a565b601f198416612849866124d4565b5f5b828110156128705784890151825560018201915060208501945060208101905061284b565b8683101561288d5784890151612889601f89168261263a565b8355505b6001600288020188555050505b505050505050565b7f4e487b71000000000000000000000000000000000000000000000000000000005f52601160045260245ffd5b5f6128d982611ad9565b91507fffffffffffffffffffffffffffffffffffffffffffffffffffffffffffffffff820361290b5761290a6128a2565b5b600182019050919050565b7f4f6e6c79203320656475636174696f6e20616c6c6f77656400000000000000005f82015250565b5f61294a601883611b50565b915061295582612916565b602082019050919050565b5f6020820190508181035f8301526129778161293e565b905091905056fea2646970667358221220184b8a4ef6e35f339f5eb8f91567d581134244744ca3da1b3949552fd5876cfa64736f6c634300081a003348656c6c6f212049276d204468727576696c204b61736f6461726979612c20612070617373696f6e61746520646576656c6f706572207769746820657870657269656e636520696e2072656163742e6a73202c6e6f64652e6a73202c6e6578742e6a73202c736f6c69646974792e6261666b726569686f35793766767179337279366a6d6d6f61373637713476746e64766f336e6c707a32616a68723377766b73646368367a3275796261666b72656961796363356f7a336f6c33336b756661796e65326d666a756e736c73637176366e6977696d676b766e6c37333463366b7a64626d",
					"opcodes": "PUSH1 0x80 PUSH1 0x40 MSTORE PUSH1 0x40 MLOAD DUP1 PUSH1 0x60 ADD PUSH1 0x40 MSTORE DUP1 PUSH1 0x3B DUP2 MSTORE PUSH1 0x20 ADD PUSH2 0x2E40 PUSH1 0x3B SWAP2 CODECOPY PUSH1 0x1B SWAP1 DUP2 PUSH2 0x2B SWAP2 SWAP1 PUSH2 0x307 JUMP JUMPDEST POP PUSH1 0x40 MLOAD DUP1 PUSH1 0x60 ADD PUSH1 0x40 MSTORE DUP1 PUSH1 0x3B DUP2 MSTORE PUSH1 0x20 ADD PUSH2 0x2E05 PUSH1 0x3B SWAP2 CODECOPY PUSH1 0x1C SWAP1 DUP2 PUSH2 0x53 SWAP2 SWAP1 PUSH2 0x307 JUMP JUMPDEST POP PUSH1 0x40 MLOAD DUP1 PUSH1 0xA0 ADD PUSH1 0x40 MSTORE DUP1 PUSH1 0x6E DUP2 MSTORE PUSH1 0x20 ADD PUSH2 0x2D97 PUSH1 0x6E SWAP2 CODECOPY PUSH1 0x1D SWAP1 DUP2 PUSH2 0x7B SWAP2 SWAP1 PUSH2 0x307 JUMP JUMPDEST POP CALLVALUE DUP1 ISZERO PUSH2 0x87 JUMPI PUSH0 DUP1 REVERT JUMPDEST POP CALLER PUSH1 0x20 PUSH0 PUSH2 0x100 EXP DUP2 SLOAD DUP2 PUSH20 0xFFFFFFFFFFFFFFFFFFFFFFFFFFFFFFFFFFFFFFFF MUL NOT AND SWAP1 DUP4 PUSH20 0xFFFFFFFFFFFFFFFFFFFFFFFFFFFFFFFFFFFFFFFF AND MUL OR SWAP1 SSTORE POP PUSH2 0x3D6 JUMP JUMPDEST PUSH0 DUP2 MLOAD SWAP1 POP SWAP2 SWAP1 POP JUMP JUMPDEST PUSH32 0x4E487B7100000000000000000000000000000000000000000000000000000000 PUSH0 MSTORE PUSH1 0x41 PUSH1 0x4 MSTORE PUSH1 0x24 PUSH0 REVERT JUMPDEST PUSH32 0x4E487B7100000000000000000000000000000000000000000000000000000000 PUSH0 MSTORE PUSH1 0x22 PUSH1 0x4 MSTORE PUSH1 0x24 PUSH0 REVERT JUMPDEST PUSH0 PUSH1 0x2 DUP3 DIV SWAP1 POP PUSH1 0x1 DUP3 AND DUP1 PUSH2 0x148 JUMPI PUSH1 0x7F DUP3 AND SWAP2 POP JUMPDEST PUSH1 0x20 DUP3 LT DUP2 SUB PUSH2 0x15B JUMPI PUSH2 0x15A PUSH2 0x104 JUMP JUMPDEST JUMPDEST POP SWAP2 SWAP1 POP JUMP JUMPDEST PUSH0 DUP2 SWAP1 POP DUP2 PUSH0 MSTORE PUSH1 0x20 PUSH0 KECCAK256 SWAP1 POP SWAP2 SWAP1 POP JUMP JUMPDEST PUSH0 PUSH1 0x20 PUSH1 0x1F DUP4 ADD DIV SWAP1 POP SWAP2 SWAP1 POP JUMP JUMPDEST PUSH0 DUP3 DUP3 SHL SWAP1 POP SWAP3 SWAP2 POP POP JUMP JUMPDEST PUSH0 PUSH1 0x8 DUP4 MUL PUSH2 0x1BD PUSH32 0xFFFFFFFFFFFFFFFFFFFFFFFFFFFFFFFFFFFFFFFFFFFFFFFFFFFFFFFFFFFFFFFF DUP3 PUSH2 0x182 JUMP JUMPDEST PUSH2 0x1C7 DUP7 DUP4 PUSH2 0x182 JUMP JUMPDEST SWAP6 POP DUP1 NOT DUP5 AND SWAP4 POP DUP1 DUP7 AND DUP5 OR SWAP3 POP POP POP SWAP4 SWAP3 POP POP POP JUMP JUMPDEST PUSH0 DUP2 SWAP1 POP SWAP2 SWAP1 POP JUMP JUMPDEST PUSH0 DUP2 SWAP1 POP SWAP2 SWAP1 POP JUMP JUMPDEST PUSH0 PUSH2 0x20B PUSH2 0x206 PUSH2 0x201 DUP5 PUSH2 0x1DF JUMP JUMPDEST PUSH2 0x1E8 JUMP JUMPDEST PUSH2 0x1DF JUMP JUMPDEST SWAP1 POP SWAP2 SWAP1 POP JUMP JUMPDEST PUSH0 DUP2 SWAP1 POP SWAP2 SWAP1 POP JUMP JUMPDEST PUSH2 0x224 DUP4 PUSH2 0x1F1 JUMP JUMPDEST PUSH2 0x238 PUSH2 0x230 DUP3 PUSH2 0x212 JUMP JUMPDEST DUP5 DUP5 SLOAD PUSH2 0x18E JUMP JUMPDEST DUP3 SSTORE POP POP POP POP JUMP JUMPDEST PUSH0 SWAP1 JUMP JUMPDEST PUSH2 0x24C PUSH2 0x240 JUMP JUMPDEST PUSH2 0x257 DUP2 DUP5 DUP5 PUSH2 0x21B JUMP JUMPDEST POP POP POP JUMP JUMPDEST JUMPDEST DUP2 DUP2 LT ISZERO PUSH2 0x27A JUMPI PUSH2 0x26F PUSH0 DUP3 PUSH2 0x244 JUMP JUMPDEST PUSH1 0x1 DUP2 ADD SWAP1 POP PUSH2 0x25D JUMP JUMPDEST POP POP JUMP JUMPDEST PUSH1 0x1F DUP3 GT ISZERO PUSH2 0x2BF JUMPI PUSH2 0x290 DUP2 PUSH2 0x161 JUMP JUMPDEST PUSH2 0x299 DUP5 PUSH2 0x173 JUMP JUMPDEST DUP2 ADD PUSH1 0x20 DUP6 LT ISZERO PUSH2 0x2A8 JUMPI DUP2 SWAP1 POP JUMPDEST PUSH2 0x2BC PUSH2 0x2B4 DUP6 PUSH2 0x173 JUMP JUMPDEST DUP4 ADD DUP3 PUSH2 0x25C JUMP JUMPDEST POP POP JUMPDEST POP POP POP JUMP JUMPDEST PUSH0 DUP3 DUP3 SHR SWAP1 POP SWAP3 SWAP2 POP POP JUMP JUMPDEST PUSH0 PUSH2 0x2DF PUSH0 NOT DUP5 PUSH1 0x8 MUL PUSH2 0x2C4 JUMP JUMPDEST NOT DUP1 DUP4 AND SWAP2 POP POP SWAP3 SWAP2 POP POP JUMP JUMPDEST PUSH0 PUSH2 0x2F7 DUP4 DUP4 PUSH2 0x2D0 JUMP JUMPDEST SWAP2 POP DUP3 PUSH1 0x2 MUL DUP3 OR SWAP1 POP SWAP3 SWAP2 POP POP JUMP JUMPDEST PUSH2 0x310 DUP3 PUSH2 0xCD JUMP JUMPDEST PUSH8 0xFFFFFFFFFFFFFFFF DUP2 GT ISZERO PUSH2 0x329 JUMPI PUSH2 0x328 PUSH2 0xD7 JUMP JUMPDEST JUMPDEST PUSH2 0x333 DUP3 SLOAD PUSH2 0x131 JUMP JUMPDEST PUSH2 0x33E DUP3 DUP3 DUP6 PUSH2 0x27E JUMP JUMPDEST PUSH0 PUSH1 0x20 SWAP1 POP PUSH1 0x1F DUP4 GT PUSH1 0x1 DUP2 EQ PUSH2 0x36F JUMPI PUSH0 DUP5 ISZERO PUSH2 0x35D JUMPI DUP3 DUP8 ADD MLOAD SWAP1 POP JUMPDEST PUSH2 0x367 DUP6 DUP3 PUSH2 0x2EC JUMP JUMPDEST DUP7 SSTORE POP PUSH2 0x3CE JUMP JUMPDEST PUSH1 0x1F NOT DUP5 AND PUSH2 0x37D DUP7 PUSH2 0x161 JUMP JUMPDEST PUSH0 JUMPDEST DUP3 DUP2 LT ISZERO PUSH2 0x3A4 JUMPI DUP5 DUP10 ADD MLOAD DUP3 SSTORE PUSH1 0x1 DUP3 ADD SWAP2 POP PUSH1 0x20 DUP6 ADD SWAP5 POP PUSH1 0x20 DUP2 ADD SWAP1 POP PUSH2 0x37F JUMP JUMPDEST DUP7 DUP4 LT ISZERO PUSH2 0x3C1 JUMPI DUP5 DUP10 ADD MLOAD PUSH2 0x3BD PUSH1 0x1F DUP10 AND DUP3 PUSH2 0x2D0 JUMP JUMPDEST DUP4 SSTORE POP JUMPDEST PUSH1 0x1 PUSH1 0x2 DUP9 MUL ADD DUP9 SSTORE POP POP POP JUMPDEST POP POP POP POP POP POP JUMP JUMPDEST PUSH2 0x29B4 DUP1 PUSH2 0x3E3 PUSH0 CODECOPY PUSH0 RETURN INVALID PUSH1 0x80 PUSH1 0x40 MSTORE PUSH1 0x4 CALLDATASIZE LT PUSH2 0xF2 JUMPI PUSH0 CALLDATALOAD PUSH1 0xE0 SHR DUP1 PUSH4 0xA32AC35D GT PUSH2 0x89 JUMPI DUP1 PUSH4 0xE3763BCB GT PUSH2 0x58 JUMPI DUP1 PUSH4 0xE3763BCB EQ PUSH2 0x30F JUMPI DUP1 PUSH4 0xE6120413 EQ PUSH2 0x337 JUMPI DUP1 PUSH4 0xED88C68E EQ PUSH2 0x35F JUMPI DUP1 PUSH4 0xFE47E03E EQ PUSH2 0x369 JUMPI PUSH2 0xF2 JUMP JUMPDEST DUP1 PUSH4 0xA32AC35D EQ PUSH2 0x26B JUMPI DUP1 PUSH4 0xBB33086F EQ PUSH2 0x295 JUMPI DUP1 PUSH4 0xCAF7B759 EQ PUSH2 0x2BD JUMPI DUP1 PUSH4 0xD3CEDF11 EQ PUSH2 0x2E7 JUMPI PUSH2 0xF2 JUMP JUMPDEST DUP1 PUSH4 0x6426D4C3 GT PUSH2 0xC5 JUMPI DUP1 PUSH4 0x6426D4C3 EQ PUSH2 0x1B2 JUMPI DUP1 PUSH4 0x6FE8E0BD EQ PUSH2 0x1DA JUMPI DUP1 PUSH4 0x7284E416 EQ PUSH2 0x202 JUMPI DUP1 PUSH4 0x7AEA95AA EQ PUSH2 0x22C JUMPI PUSH2 0xF2 JUMP JUMPDEST DUP1 PUSH4 0x107046BD EQ PUSH2 0xF6 JUMPI DUP1 PUSH4 0x481C6A75 EQ PUSH2 0x136 JUMPI DUP1 PUSH4 0x598E7F37 EQ PUSH2 0x160 JUMPI DUP1 PUSH4 0x5CEA6A7C EQ PUSH2 0x188 JUMPI JUMPDEST PUSH0 DUP1 REVERT JUMPDEST CALLVALUE DUP1 ISZERO PUSH2 0x101 JUMPI PUSH0 DUP1 REVERT JUMPDEST POP PUSH2 0x11C PUSH1 0x4 DUP1 CALLDATASIZE SUB DUP2 ADD SWAP1 PUSH2 0x117 SWAP2 SWAP1 PUSH2 0x1B0C JUMP JUMPDEST PUSH2 0x393 JUMP JUMPDEST PUSH1 0x40 MLOAD PUSH2 0x12D SWAP6 SWAP5 SWAP4 SWAP3 SWAP2 SWAP1 PUSH2 0x1BB6 JUMP JUMPDEST PUSH1 0x40 MLOAD DUP1 SWAP2 SUB SWAP1 RETURN JUMPDEST CALLVALUE DUP1 ISZERO PUSH2 0x141 JUMPI PUSH0 DUP1 REVERT JUMPDEST POP PUSH2 0x14A PUSH2 0x5E3 JUMP JUMPDEST PUSH1 0x40 MLOAD PUSH2 0x157 SWAP2 SWAP1 PUSH2 0x1C62 JUMP JUMPDEST PUSH1 0x40 MLOAD DUP1 SWAP2 SUB SWAP1 RETURN JUMPDEST CALLVALUE DUP1 ISZERO PUSH2 0x16B JUMPI PUSH0 DUP1 REVERT JUMPDEST POP PUSH2 0x186 PUSH1 0x4 DUP1 CALLDATASIZE SUB DUP2 ADD SWAP1 PUSH2 0x181 SWAP2 SWAP1 PUSH2 0x1CDC JUMP JUMPDEST PUSH2 0x608 JUMP JUMPDEST STOP JUMPDEST CALLVALUE DUP1 ISZERO PUSH2 0x193 JUMPI PUSH0 DUP1 REVERT JUMPDEST POP PUSH2 0x19C PUSH2 0x6AD JUMP JUMPDEST PUSH1 0x40 MLOAD PUSH2 0x1A9 SWAP2 SWAP1 PUSH2 0x1D27 JUMP JUMPDEST PUSH1 0x40 MLOAD DUP1 SWAP2 SUB SWAP1 RETURN JUMPDEST CALLVALUE DUP1 ISZERO PUSH2 0x1BD JUMPI PUSH0 DUP1 REVERT JUMPDEST POP PUSH2 0x1D8 PUSH1 0x4 DUP1 CALLDATASIZE SUB DUP2 ADD SWAP1 PUSH2 0x1D3 SWAP2 SWAP1 PUSH2 0x1D47 JUMP JUMPDEST PUSH2 0x739 JUMP JUMPDEST STOP JUMPDEST CALLVALUE DUP1 ISZERO PUSH2 0x1E5 JUMPI PUSH0 DUP1 REVERT JUMPDEST POP PUSH2 0x200 PUSH1 0x4 DUP1 CALLDATASIZE SUB DUP2 ADD SWAP1 PUSH2 0x1FB SWAP2 SWAP1 PUSH2 0x1E2B JUMP JUMPDEST PUSH2 0x9DF JUMP JUMPDEST STOP JUMPDEST CALLVALUE DUP1 ISZERO PUSH2 0x20D JUMPI PUSH0 DUP1 REVERT JUMPDEST POP PUSH2 0x216 PUSH2 0xC75 JUMP JUMPDEST PUSH1 0x40 MLOAD PUSH2 0x223 SWAP2 SWAP1 PUSH2 0x1D27 JUMP JUMPDEST PUSH1 0x40 MLOAD DUP1 SWAP2 SUB SWAP1 RETURN JUMPDEST CALLVALUE DUP1 ISZERO PUSH2 0x237 JUMPI PUSH0 DUP1 REVERT JUMPDEST POP PUSH2 0x252 PUSH1 0x4 DUP1 CALLDATASIZE SUB DUP2 ADD SWAP1 PUSH2 0x24D SWAP2 SWAP1 PUSH2 0x1B0C JUMP JUMPDEST PUSH2 0xD01 JUMP JUMPDEST PUSH1 0x40 MLOAD PUSH2 0x262 SWAP5 SWAP4 SWAP3 SWAP2 SWAP1 PUSH2 0x1F21 JUMP JUMPDEST PUSH1 0x40 MLOAD DUP1 SWAP2 SUB SWAP1 RETURN JUMPDEST CALLVALUE DUP1 ISZERO PUSH2 0x276 JUMPI PUSH0 DUP1 REVERT JUMPDEST POP PUSH2 0x27F PUSH2 0xEC6 JUMP JUMPDEST PUSH1 0x40 MLOAD PUSH2 0x28C SWAP2 SWAP1 PUSH2 0x20ED JUMP JUMPDEST PUSH1 0x40 MLOAD DUP1 SWAP2 SUB SWAP1 RETURN JUMPDEST CALLVALUE DUP1 ISZERO PUSH2 0x2A0 JUMPI PUSH0 DUP1 REVERT JUMPDEST POP PUSH2 0x2BB PUSH1 0x4 DUP1 CALLDATASIZE SUB DUP2 ADD SWAP1 PUSH2 0x2B6 SWAP2 SWAP1 PUSH2 0x210D JUMP JUMPDEST PUSH2 0x10D0 JUMP JUMPDEST STOP JUMPDEST CALLVALUE DUP1 ISZERO PUSH2 0x2C8 JUMPI PUSH0 DUP1 REVERT JUMPDEST POP PUSH2 0x2D1 PUSH2 0x1306 JUMP JUMPDEST PUSH1 0x40 MLOAD PUSH2 0x2DE SWAP2 SWAP1 PUSH2 0x1D27 JUMP JUMPDEST PUSH1 0x40 MLOAD DUP1 SWAP2 SUB SWAP1 RETURN JUMPDEST CALLVALUE DUP1 ISZERO PUSH2 0x2F2 JUMPI PUSH0 DUP1 REVERT JUMPDEST POP PUSH2 0x30D PUSH1 0x4 DUP1 CALLDATASIZE SUB DUP2 ADD SWAP1 PUSH2 0x308 SWAP2 SWAP1 PUSH2 0x1CDC JUMP JUMPDEST PUSH2 0x1392 JUMP JUMPDEST STOP JUMPDEST CALLVALUE DUP1 ISZERO PUSH2 0x31A JUMPI PUSH0 DUP1 REVERT JUMPDEST POP PUSH2 0x335 PUSH1 0x4 DUP1 CALLDATASIZE SUB DUP2 ADD SWAP1 PUSH2 0x330 SWAP2 SWAP1 PUSH2 0x21D1 JUMP JUMPDEST PUSH2 0x1437 JUMP JUMPDEST STOP JUMPDEST CALLVALUE DUP1 ISZERO PUSH2 0x342 JUMPI PUSH0 DUP1 REVERT JUMPDEST POP PUSH2 0x35D PUSH1 0x4 DUP1 CALLDATASIZE SUB DUP2 ADD SWAP1 PUSH2 0x358 SWAP2 SWAP1 PUSH2 0x1CDC JUMP JUMPDEST PUSH2 0x167D JUMP JUMPDEST STOP JUMPDEST PUSH2 0x367 PUSH2 0x1722 JUMP JUMPDEST STOP JUMPDEST CALLVALUE DUP1 ISZERO PUSH2 0x374 JUMPI PUSH0 DUP1 REVERT JUMPDEST POP PUSH2 0x37D PUSH2 0x1789 JUMP JUMPDEST PUSH1 0x40 MLOAD PUSH2 0x38A SWAP2 SWAP1 PUSH2 0x23B8 JUMP JUMPDEST PUSH1 0x40 MLOAD DUP1 SWAP2 SUB SWAP1 RETURN JUMPDEST PUSH0 DUP2 PUSH1 0x3 DUP2 LT PUSH2 0x3A1 JUMPI PUSH0 DUP1 REVERT JUMPDEST PUSH1 0x5 MUL ADD PUSH0 SWAP2 POP SWAP1 POP DUP1 PUSH0 ADD SLOAD SWAP1 DUP1 PUSH1 0x1 ADD DUP1 SLOAD PUSH2 0x3BE SWAP1 PUSH2 0x2405 JUMP JUMPDEST DUP1 PUSH1 0x1F ADD PUSH1 0x20 DUP1 SWAP2 DIV MUL PUSH1 0x20 ADD PUSH1 0x40 MLOAD SWAP1 DUP2 ADD PUSH1 0x40 MSTORE DUP1 SWAP3 SWAP2 SWAP1 DUP2 DUP2 MSTORE PUSH1 0x20 ADD DUP3 DUP1 SLOAD PUSH2 0x3EA SWAP1 PUSH2 0x2405 JUMP JUMPDEST DUP1 ISZERO PUSH2 0x435 JUMPI DUP1 PUSH1 0x1F LT PUSH2 0x40C JUMPI PUSH2 0x100 DUP1 DUP4 SLOAD DIV MUL DUP4 MSTORE SWAP2 PUSH1 0x20 ADD SWAP2 PUSH2 0x435 JUMP JUMPDEST DUP3 ADD SWAP2 SWAP1 PUSH0 MSTORE PUSH1 0x20 PUSH0 KECCAK256 SWAP1 JUMPDEST DUP2 SLOAD DUP2 MSTORE SWAP1 PUSH1 0x1 ADD SWAP1 PUSH1 0x20 ADD DUP1 DUP4 GT PUSH2 0x418 JUMPI DUP3 SWAP1 SUB PUSH1 0x1F AND DUP3 ADD SWAP2 JUMPDEST POP POP POP POP POP SWAP1 DUP1 PUSH1 0x2 ADD DUP1 SLOAD PUSH2 0x44A SWAP1 PUSH2 0x2405 JUMP JUMPDEST DUP1 PUSH1 0x1F ADD PUSH1 0x20 DUP1 SWAP2 DIV MUL PUSH1 0x20 ADD PUSH1 0x40 MLOAD SWAP1 DUP2 ADD PUSH1 0x40 MSTORE DUP1 SWAP3 SWAP2 SWAP1 DUP2 DUP2 MSTORE PUSH1 0x20 ADD DUP3 DUP1 SLOAD PUSH2 0x476 SWAP1 PUSH2 0x2405 JUMP JUMPDEST DUP1 ISZERO PUSH2 0x4C1 JUMPI DUP1 PUSH1 0x1F LT PUSH2 0x498 JUMPI PUSH2 0x100 DUP1 DUP4 SLOAD DIV MUL DUP4 MSTORE SWAP2 PUSH1 0x20 ADD SWAP2 PUSH2 0x4C1 JUMP JUMPDEST DUP3 ADD SWAP2 SWAP1 PUSH0 MSTORE PUSH1 0x20 PUSH0 KECCAK256 SWAP1 JUMPDEST DUP2 SLOAD DUP2 MSTORE SWAP1 PUSH1 0x1 ADD SWAP1 PUSH1 0x20 ADD DUP1 DUP4 GT PUSH2 0x4A4 JUMPI DUP3 SWAP1 SUB PUSH1 0x1F AND DUP3 ADD SWAP2 JUMPDEST POP POP POP POP POP SWAP1 DUP1 PUSH1 0x3 ADD DUP1 SLOAD PUSH2 0x4D6 SWAP1 PUSH2 0x2405 JUMP JUMPDEST DUP1 PUSH1 0x1F ADD PUSH1 0x20 DUP1 SWAP2 DIV MUL PUSH1 0x20 ADD PUSH1 0x40 MLOAD SWAP1 DUP2 ADD PUSH1 0x40 MSTORE DUP1 SWAP3 SWAP2 SWAP1 DUP2 DUP2 MSTORE PUSH1 0x20 ADD DUP3 DUP1 SLOAD PUSH2 0x502 SWAP1 PUSH2 0x2405 JUMP JUMPDEST DUP1 ISZERO PUSH2 0x54D JUMPI DUP1 PUSH1 0x1F LT PUSH2 0x524 JUMPI PUSH2 0x100 DUP1 DUP4 SLOAD DIV MUL DUP4 MSTORE SWAP2 PUSH1 0x20 ADD SWAP2 PUSH2 0x54D JUMP JUMPDEST DUP3 ADD SWAP2 SWAP1 PUSH0 MSTORE PUSH1 0x20 PUSH0 KECCAK256 SWAP1 JUMPDEST DUP2 SLOAD DUP2 MSTORE SWAP1 PUSH1 0x1 ADD SWAP1 PUSH1 0x20 ADD DUP1 DUP4 GT PUSH2 0x530 JUMPI DUP3 SWAP1 SUB PUSH1 0x1F AND DUP3 ADD SWAP2 JUMPDEST POP POP POP POP POP SWAP1 DUP1 PUSH1 0x4 ADD DUP1 SLOAD PUSH2 0x562 SWAP1 PUSH2 0x2405 JUMP JUMPDEST DUP1 PUSH1 0x1F ADD PUSH1 0x20 DUP1 SWAP2 DIV MUL PUSH1 0x20 ADD PUSH1 0x40 MLOAD SWAP1 DUP2 ADD PUSH1 0x40 MSTORE DUP1 SWAP3 SWAP2 SWAP1 DUP2 DUP2 MSTORE PUSH1 0x20 ADD DUP3 DUP1 SLOAD PUSH2 0x58E SWAP1 PUSH2 0x2405 JUMP JUMPDEST DUP1 ISZERO PUSH2 0x5D9 JUMPI DUP1 PUSH1 0x1F LT PUSH2 0x5B0 JUMPI PUSH2 0x100 DUP1 DUP4 SLOAD DIV MUL DUP4 MSTORE SWAP2 PUSH1 0x20 ADD SWAP2 PUSH2 0x5D9 JUMP JUMPDEST DUP3 ADD SWAP2 SWAP1 PUSH0 MSTORE PUSH1 0x20 PUSH0 KECCAK256 SWAP1 JUMPDEST DUP2 SLOAD DUP2 MSTORE SWAP1 PUSH1 0x1 ADD SWAP1 PUSH1 0x20 ADD DUP1 DUP4 GT PUSH2 0x5BC JUMPI DUP3 SWAP1 SUB PUSH1 0x1F AND DUP3 ADD SWAP2 JUMPDEST POP POP POP POP POP SWAP1 POP DUP6 JUMP JUMPDEST PUSH1 0x20 PUSH0 SWAP1 SLOAD SWAP1 PUSH2 0x100 EXP SWAP1 DIV PUSH20 0xFFFFFFFFFFFFFFFFFFFFFFFFFFFFFFFFFFFFFFFF AND DUP2 JUMP JUMPDEST CALLER PUSH20 0xFFFFFFFFFFFFFFFFFFFFFFFFFFFFFFFFFFFFFFFF AND PUSH1 0x20 PUSH0 SWAP1 SLOAD SWAP1 PUSH2 0x100 EXP SWAP1 DIV PUSH20 0xFFFFFFFFFFFFFFFFFFFFFFFFFFFFFFFFFFFFFFFF AND PUSH20 0xFFFFFFFFFFFFFFFFFFFFFFFFFFFFFFFFFFFFFFFF AND EQ PUSH2 0x697 JUMPI PUSH1 0x40 MLOAD PUSH32 0x8C379A000000000000000000000000000000000000000000000000000000000 DUP2 MSTORE PUSH1 0x4 ADD PUSH2 0x68E SWAP1 PUSH2 0x247F JUMP JUMPDEST PUSH1 0x40 MLOAD DUP1 SWAP2 SUB SWAP1 REVERT JUMPDEST DUP2 DUP2 PUSH1 0x1B SWAP2 DUP3 PUSH2 0x6A8 SWAP3 SWAP2 SWAP1 PUSH2 0x2671 JUMP JUMPDEST POP POP POP JUMP JUMPDEST PUSH1 0x1C DUP1 SLOAD PUSH2 0x6BA SWAP1 PUSH2 0x2405 JUMP JUMPDEST DUP1 PUSH1 0x1F ADD PUSH1 0x20 DUP1 SWAP2 DIV MUL PUSH1 0x20 ADD PUSH1 0x40 MLOAD SWAP1 DUP2 ADD PUSH1 0x40 MSTORE DUP1 SWAP3 SWAP2 SWAP1 DUP2 DUP2 MSTORE PUSH1 0x20 ADD DUP3 DUP1 SLOAD PUSH2 0x6E6 SWAP1 PUSH2 0x2405 JUMP JUMPDEST DUP1 ISZERO PUSH2 0x731 JUMPI DUP1 PUSH1 0x1F LT PUSH2 0x708 JUMPI PUSH2 0x100 DUP1 DUP4 SLOAD DIV MUL DUP4 MSTORE SWAP2 PUSH1 0x20 ADD SWAP2 PUSH2 0x731 JUMP JUMPDEST DUP3 ADD SWAP2 SWAP1 PUSH0 MSTORE PUSH1 0x20 PUSH0 KECCAK256 SWAP1 JUMPDEST DUP2 SLOAD DUP2 MSTORE SWAP1 PUSH1 0x1 ADD SWAP1 PUSH1 0x20 ADD DUP1 DUP4 GT PUSH2 0x714 JUMPI DUP3 SWAP1 SUB PUSH1 0x1F AND DUP3 ADD SWAP2 JUMPDEST POP POP POP POP POP DUP2 JUMP JUMPDEST CALLER PUSH20 0xFFFFFFFFFFFFFFFFFFFFFFFFFFFFFFFFFFFFFFFF AND PUSH1 0x20 PUSH0 SWAP1 SLOAD SWAP1 PUSH2 0x100 EXP SWAP1 DIV PUSH20 0xFFFFFFFFFFFFFFFFFFFFFFFFFFFFFFFFFFFFFFFF AND PUSH20 0xFFFFFFFFFFFFFFFFFFFFFFFFFFFFFFFFFFFFFFFF AND EQ PUSH2 0x7C8 JUMPI PUSH1 0x40 MLOAD PUSH32 0x8C379A000000000000000000000000000000000000000000000000000000000 DUP2 MSTORE PUSH1 0x4 ADD PUSH2 0x7BF SWAP1 PUSH2 0x247F JUMP JUMPDEST PUSH1 0x40 MLOAD DUP1 SWAP2 SUB SWAP1 REVERT JUMPDEST PUSH1 0x3 PUSH1 0x1E SLOAD LT PUSH2 0x80D JUMPI PUSH1 0x40 MLOAD PUSH32 0x8C379A000000000000000000000000000000000000000000000000000000000 DUP2 MSTORE PUSH1 0x4 ADD PUSH2 0x804 SWAP1 PUSH2 0x2788 JUMP JUMPDEST PUSH1 0x40 MLOAD DUP1 SWAP2 SUB SWAP1 REVERT JUMPDEST PUSH1 0x40 MLOAD DUP1 PUSH1 0xA0 ADD PUSH1 0x40 MSTORE DUP1 PUSH1 0x1E SLOAD DUP2 MSTORE PUSH1 0x20 ADD DUP10 DUP10 DUP1 DUP1 PUSH1 0x1F ADD PUSH1 0x20 DUP1 SWAP2 DIV MUL PUSH1 0x20 ADD PUSH1 0x40 MLOAD SWAP1 DUP2 ADD PUSH1 0x40 MSTORE DUP1 SWAP4 SWAP3 SWAP2 SWAP1 DUP2 DUP2 MSTORE PUSH1 0x20 ADD DUP4 DUP4 DUP1 DUP3 DUP5 CALLDATACOPY PUSH0 DUP2 DUP5 ADD MSTORE PUSH1 0x1F NOT PUSH1 0x1F DUP3 ADD AND SWAP1 POP DUP1 DUP4 ADD SWAP3 POP POP POP POP POP POP POP DUP2 MSTORE PUSH1 0x20 ADD DUP8 DUP8 DUP1 DUP1 PUSH1 0x1F ADD PUSH1 0x20 DUP1 SWAP2 DIV MUL PUSH1 0x20 ADD PUSH1 0x40 MLOAD SWAP1 DUP2 ADD PUSH1 0x40 MSTORE DUP1 SWAP4 SWAP3 SWAP2 SWAP1 DUP2 DUP2 MSTORE PUSH1 0x20 ADD DUP4 DUP4 DUP1 DUP3 DUP5 CALLDATACOPY PUSH0 DUP2 DUP5 ADD MSTORE PUSH1 0x1F NOT PUSH1 0x1F DUP3 ADD AND SWAP1 POP DUP1 DUP4 ADD SWAP3 POP POP POP POP POP POP POP DUP2 MSTORE PUSH1 0x20 ADD DUP6 DUP6 DUP1 DUP1 PUSH1 0x1F ADD PUSH1 0x20 DUP1 SWAP2 DIV MUL PUSH1 0x20 ADD PUSH1 0x40 MLOAD SWAP1 DUP2 ADD PUSH1 0x40 MSTORE DUP1 SWAP4 SWAP3 SWAP2 SWAP1 DUP2 DUP2 MSTORE PUSH1 0x20 ADD DUP4 DUP4 DUP1 DUP3 DUP5 CALLDATACOPY PUSH0 DUP2 DUP5 ADD MSTORE PUSH1 0x1F NOT PUSH1 0x1F DUP3 ADD AND SWAP1 POP DUP1 DUP4 ADD SWAP3 POP POP POP POP POP POP POP DUP2 MSTORE PUSH1 0x20 ADD DUP4 DUP4 DUP1 DUP1 PUSH1 0x1F ADD PUSH1 0x20 DUP1 SWAP2 DIV MUL PUSH1 0x20 ADD PUSH1 0x40 MLOAD SWAP1 DUP2 ADD PUSH1 0x40 MSTORE DUP1 SWAP4 SWAP3 SWAP2 SWAP1 DUP2 DUP2 MSTORE PUSH1 0x20 ADD DUP4 DUP4 DUP1 DUP3 DUP5 CALLDATACOPY PUSH0 DUP2 DUP5 ADD MSTORE PUSH1 0x1F NOT PUSH1 0x1F DUP3 ADD AND SWAP1 POP DUP1 DUP4 ADD SWAP3 POP POP POP POP POP POP POP DUP2 MSTORE POP PUSH0 PUSH1 0x1E SLOAD PUSH1 0x3 DUP2 LT PUSH2 0x957 JUMPI PUSH2 0x956 PUSH2 0x27A6 JUMP JUMPDEST JUMPDEST PUSH1 0x5 MUL ADD PUSH0 DUP3 ADD MLOAD DUP2 PUSH0 ADD SSTORE PUSH1 0x20 DUP3 ADD MLOAD DUP2 PUSH1 0x1 ADD SWAP1 DUP2 PUSH2 0x978 SWAP2 SWAP1 PUSH2 0x27D3 JUMP JUMPDEST POP PUSH1 0x40 DUP3 ADD MLOAD DUP2 PUSH1 0x2 ADD SWAP1 DUP2 PUSH2 0x98E SWAP2 SWAP1 PUSH2 0x27D3 JUMP JUMPDEST POP PUSH1 0x60 DUP3 ADD MLOAD DUP2 PUSH1 0x3 ADD SWAP1 DUP2 PUSH2 0x9A4 SWAP2 SWAP1 PUSH2 0x27D3 JUMP JUMPDEST POP PUSH1 0x80 DUP3 ADD MLOAD DUP2 PUSH1 0x4 ADD SWAP1 DUP2 PUSH2 0x9BA SWAP2 SWAP1 PUSH2 0x27D3 JUMP JUMPDEST POP SWAP1 POP POP PUSH1 0x1E PUSH0 DUP2 SLOAD DUP1 SWAP3 SWAP2 SWAP1 PUSH2 0x9D0 SWAP1 PUSH2 0x28CF JUMP JUMPDEST SWAP2 SWAP1 POP SSTORE POP POP POP POP POP POP POP POP POP JUMP JUMPDEST CALLER PUSH20 0xFFFFFFFFFFFFFFFFFFFFFFFFFFFFFFFFFFFFFFFF AND PUSH1 0x20 PUSH0 SWAP1 SLOAD SWAP1 PUSH2 0x100 EXP SWAP1 DIV PUSH20 0xFFFFFFFFFFFFFFFFFFFFFFFFFFFFFFFFFFFFFFFF AND PUSH20 0xFFFFFFFFFFFFFFFFFFFFFFFFFFFFFFFFFFFFFFFF AND EQ PUSH2 0xA6E JUMPI PUSH1 0x40 MLOAD PUSH32 0x8C379A000000000000000000000000000000000000000000000000000000000 DUP2 MSTORE PUSH1 0x4 ADD PUSH2 0xA65 SWAP1 PUSH2 0x247F JUMP JUMPDEST PUSH1 0x40 MLOAD DUP1 SWAP2 SUB SWAP1 REVERT JUMPDEST PUSH0 DUP2 LT ISZERO DUP1 ISZERO PUSH2 0xA7E JUMPI POP PUSH1 0x3 DUP2 LT JUMPDEST PUSH2 0xABD JUMPI PUSH1 0x40 MLOAD PUSH32 0x8C379A000000000000000000000000000000000000000000000000000000000 DUP2 MSTORE PUSH1 0x4 ADD PUSH2 0xAB4 SWAP1 PUSH2 0x2788 JUMP JUMPDEST PUSH1 0x40 MLOAD DUP1 SWAP2 SUB SWAP1 REVERT JUMPDEST PUSH1 0x40 MLOAD DUP1 PUSH1 0xA0 ADD PUSH1 0x40 MSTORE DUP1 DUP3 DUP2 MSTORE PUSH1 0x20 ADD DUP11 DUP11 DUP1 DUP1 PUSH1 0x1F ADD PUSH1 0x20 DUP1 SWAP2 DIV MUL PUSH1 0x20 ADD PUSH1 0x40 MLOAD SWAP1 DUP2 ADD PUSH1 0x40 MSTORE DUP1 SWAP4 SWAP3 SWAP2 SWAP1 DUP2 DUP2 MSTORE PUSH1 0x20 ADD DUP4 DUP4 DUP1 DUP3 DUP5 CALLDATACOPY PUSH0 DUP2 DUP5 ADD MSTORE PUSH1 0x1F NOT PUSH1 0x1F DUP3 ADD AND SWAP1 POP DUP1 DUP4 ADD SWAP3 POP POP POP POP POP POP POP DUP2 MSTORE PUSH1 0x20 ADD DUP9 DUP9 DUP1 DUP1 PUSH1 0x1F ADD PUSH1 0x20 DUP1 SWAP2 DIV MUL PUSH1 0x20 ADD PUSH1 0x40 MLOAD SWAP1 DUP2 ADD PUSH1 0x40 MSTORE DUP1 SWAP4 SWAP3 SWAP2 SWAP1 DUP2 DUP2 MSTORE PUSH1 0x20 ADD DUP4 DUP4 DUP1 DUP3 DUP5 CALLDATACOPY PUSH0 DUP2 DUP5 ADD MSTORE PUSH1 0x1F NOT PUSH1 0x1F DUP3 ADD AND SWAP1 POP DUP1 DUP4 ADD SWAP3 POP POP POP POP POP POP POP DUP2 MSTORE PUSH1 0x20 ADD DUP7 DUP7 DUP1 DUP1 PUSH1 0x1F ADD PUSH1 0x20 DUP1 SWAP2 DIV MUL PUSH1 0x20 ADD PUSH1 0x40 MLOAD SWAP1 DUP2 ADD PUSH1 0x40 MSTORE DUP1 SWAP4 SWAP3 SWAP2 SWAP1 DUP2 DUP2 MSTORE PUSH1 0x20 ADD DUP4 DUP4 DUP1 DUP3 DUP5 CALLDATACOPY PUSH0 DUP2 DUP5 ADD MSTORE PUSH1 0x1F NOT PUSH1 0x1F DUP3 ADD AND SWAP1 POP DUP1 DUP4 ADD SWAP3 POP POP POP POP POP POP POP DUP2 MSTORE PUSH1 0x20 ADD DUP5 DUP5 DUP1 DUP1 PUSH1 0x1F ADD PUSH1 0x20 DUP1 SWAP2 DIV MUL PUSH1 0x20 ADD PUSH1 0x40 MLOAD SWAP1 DUP2 ADD PUSH1 0x40 MSTORE DUP1 SWAP4 SWAP3 SWAP2 SWAP1 DUP2 DUP2 MSTORE PUSH1 0x20 ADD DUP4 DUP4 DUP1 DUP3 DUP5 CALLDATACOPY PUSH0 DUP2 DUP5 ADD MSTORE PUSH1 0x1F NOT PUSH1 0x1F DUP3 ADD AND SWAP1 POP DUP1 DUP4 ADD SWAP3 POP POP POP POP POP POP POP DUP2 MSTORE POP PUSH0 DUP3 PUSH1 0x3 DUP2 LT PUSH2 0xC03 JUMPI PUSH2 0xC02 PUSH2 0x27A6 JUMP JUMPDEST JUMPDEST PUSH1 0x5 MUL ADD PUSH0 DUP3 ADD MLOAD DUP2 PUSH0 ADD SSTORE PUSH1 0x20 DUP3 ADD MLOAD DUP2 PUSH1 0x1 ADD SWAP1 DUP2 PUSH2 0xC24 SWAP2 SWAP1 PUSH2 0x27D3 JUMP JUMPDEST POP PUSH1 0x40 DUP3 ADD MLOAD DUP2 PUSH1 0x2 ADD SWAP1 DUP2 PUSH2 0xC3A SWAP2 SWAP1 PUSH2 0x27D3 JUMP JUMPDEST POP PUSH1 0x60 DUP3 ADD MLOAD DUP2 PUSH1 0x3 ADD SWAP1 DUP2 PUSH2 0xC50 SWAP2 SWAP1 PUSH2 0x27D3 JUMP JUMPDEST POP PUSH1 0x80 DUP3 ADD MLOAD DUP2 PUSH1 0x4 ADD SWAP1 DUP2 PUSH2 0xC66 SWAP2 SWAP1 PUSH2 0x27D3 JUMP JUMPDEST POP SWAP1 POP POP POP POP POP POP POP POP POP POP POP JUMP JUMPDEST PUSH1 0x1D DUP1 SLOAD PUSH2 0xC82 SWAP1 PUSH2 0x2405 JUMP JUMPDEST DUP1 PUSH1 0x1F ADD PUSH1 0x20 DUP1 SWAP2 DIV MUL PUSH1 0x20 ADD PUSH1 0x40 MLOAD SWAP1 DUP2 ADD PUSH1 0x40 MSTORE DUP1 SWAP3 SWAP2 SWAP1 DUP2 DUP2 MSTORE PUSH1 0x20 ADD DUP3 DUP1 SLOAD PUSH2 0xCAE SWAP1 PUSH2 0x2405 JUMP JUMPDEST DUP1 ISZERO PUSH2 0xCF9 JUMPI DUP1 PUSH1 0x1F LT PUSH2 0xCD0 JUMPI PUSH2 0x100 DUP1 DUP4 SLOAD DIV MUL DUP4 MSTORE SWAP2 PUSH1 0x20 ADD SWAP2 PUSH2 0xCF9 JUMP JUMPDEST DUP3 ADD SWAP2 SWAP1 PUSH0 MSTORE PUSH1 0x20 PUSH0 KECCAK256 SWAP1 JUMPDEST DUP2 SLOAD DUP2 MSTORE SWAP1 PUSH1 0x1 ADD SWAP1 PUSH1 0x20 ADD DUP1 DUP4 GT PUSH2 0xCDC JUMPI DUP3 SWAP1 SUB PUSH1 0x1F AND DUP3 ADD SWAP2 JUMPDEST POP POP POP POP POP DUP2 JUMP JUMPDEST PUSH1 0xF DUP2 PUSH1 0x3 DUP2 LT PUSH2 0xD10 JUMPI PUSH0 DUP1 REVERT JUMPDEST PUSH1 0x4 MUL ADD PUSH0 SWAP2 POP SWAP1 POP DUP1 PUSH0 ADD SLOAD SWAP1 DUP1 PUSH1 0x1 ADD DUP1 SLOAD PUSH2 0xD2D SWAP1 PUSH2 0x2405 JUMP JUMPDEST DUP1 PUSH1 0x1F ADD PUSH1 0x20 DUP1 SWAP2 DIV MUL PUSH1 0x20 ADD PUSH1 0x40 MLOAD SWAP1 DUP2 ADD PUSH1 0x40 MSTORE DUP1 SWAP3 SWAP2 SWAP1 DUP2 DUP2 MSTORE PUSH1 0x20 ADD DUP3 DUP1 SLOAD PUSH2 0xD59 SWAP1 PUSH2 0x2405 JUMP JUMPDEST DUP1 ISZERO PUSH2 0xDA4 JUMPI DUP1 PUSH1 0x1F LT PUSH2 0xD7B JUMPI PUSH2 0x100 DUP1 DUP4 SLOAD DIV MUL DUP4 MSTORE SWAP2 PUSH1 0x20 ADD SWAP2 PUSH2 0xDA4 JUMP JUMPDEST DUP3 ADD SWAP2 SWAP1 PUSH0 MSTORE PUSH1 0x20 PUSH0 KECCAK256 SWAP1 JUMPDEST DUP2 SLOAD DUP2 MSTORE SWAP1 PUSH1 0x1 ADD SWAP1 PUSH1 0x20 ADD DUP1 DUP4 GT PUSH2 0xD87 JUMPI DUP3 SWAP1 SUB PUSH1 0x1F AND DUP3 ADD SWAP2 JUMPDEST POP POP POP POP POP SWAP1 DUP1 PUSH1 0x2 ADD DUP1 SLOAD PUSH2 0xDB9 SWAP1 PUSH2 0x2405 JUMP JUMPDEST DUP1 PUSH1 0x1F ADD PUSH1 0x20 DUP1 SWAP2 DIV MUL PUSH1 0x20 ADD PUSH1 0x40 MLOAD SWAP1 DUP2 ADD PUSH1 0x40 MSTORE DUP1 SWAP3 SWAP2 SWAP1 DUP2 DUP2 MSTORE PUSH1 0x20 ADD DUP3 DUP1 SLOAD PUSH2 0xDE5 SWAP1 PUSH2 0x2405 JUMP JUMPDEST DUP1 ISZERO PUSH2 0xE30 JUMPI DUP1 PUSH1 0x1F LT PUSH2 0xE07 JUMPI PUSH2 0x100 DUP1 DUP4 SLOAD DIV MUL DUP4 MSTORE SWAP2 PUSH1 0x20 ADD SWAP2 PUSH2 0xE30 JUMP JUMPDEST DUP3 ADD SWAP2 SWAP1 PUSH0 MSTORE PUSH1 0x20 PUSH0 KECCAK256 SWAP1 JUMPDEST DUP2 SLOAD DUP2 MSTORE SWAP1 PUSH1 0x1 ADD SWAP1 PUSH1 0x20 ADD DUP1 DUP4 GT PUSH2 0xE13 JUMPI DUP3 SWAP1 SUB PUSH1 0x1F AND DUP3 ADD SWAP2 JUMPDEST POP POP POP POP POP SWAP1 DUP1 PUSH1 0x3 ADD DUP1 SLOAD PUSH2 0xE45 SWAP1 PUSH2 0x2405 JUMP JUMPDEST DUP1 PUSH1 0x1F ADD PUSH1 0x20 DUP1 SWAP2 DIV MUL PUSH1 0x20 ADD PUSH1 0x40 MLOAD SWAP1 DUP2 ADD PUSH1 0x40 MSTORE DUP1 SWAP3 SWAP2 SWAP1 DUP2 DUP2 MSTORE PUSH1 0x20 ADD DUP3 DUP1 SLOAD PUSH2 0xE71 SWAP1 PUSH2 0x2405 JUMP JUMPDEST DUP1 ISZERO PUSH2 0xEBC JUMPI DUP1 PUSH1 0x1F LT PUSH2 0xE93 JUMPI PUSH2 0x100 DUP1 DUP4 SLOAD DIV MUL DUP4 MSTORE SWAP2 PUSH1 0x20 ADD SWAP2 PUSH2 0xEBC JUMP JUMPDEST DUP3 ADD SWAP2 SWAP1 PUSH0 MSTORE PUSH1 0x20 PUSH0 KECCAK256 SWAP1 JUMPDEST DUP2 SLOAD DUP2 MSTORE SWAP1 PUSH1 0x1 ADD SWAP1 PUSH1 0x20 ADD DUP1 DUP4 GT PUSH2 0xE9F JUMPI DUP3 SWAP1 SUB PUSH1 0x1F AND DUP3 ADD SWAP2 JUMPDEST POP POP POP POP POP SWAP1 POP DUP5 JUMP JUMPDEST PUSH2 0xECE PUSH2 0x1A22 JUMP JUMPDEST PUSH1 0xF PUSH1 0x3 DUP1 PUSH1 0x20 MUL PUSH1 0x40 MLOAD SWAP1 DUP2 ADD PUSH1 0x40 MSTORE DUP1 SWAP3 SWAP2 SWAP1 PUSH0 SWAP1 JUMPDEST DUP3 DUP3 LT ISZERO PUSH2 0x10C7 JUMPI DUP4 DUP3 PUSH1 0x4 MUL ADD PUSH1 0x40 MLOAD DUP1 PUSH1 0x80 ADD PUSH1 0x40 MSTORE SWAP1 DUP2 PUSH0 DUP3 ADD SLOAD DUP2 MSTORE PUSH1 0x20 ADD PUSH1 0x1 DUP3 ADD DUP1 SLOAD PUSH2 0xF18 SWAP1 PUSH2 0x2405 JUMP JUMPDEST DUP1 PUSH1 0x1F ADD PUSH1 0x20 DUP1 SWAP2 DIV MUL PUSH1 0x20 ADD PUSH1 0x40 MLOAD SWAP1 DUP2 ADD PUSH1 0x40 MSTORE DUP1 SWAP3 SWAP2 SWAP1 DUP2 DUP2 MSTORE PUSH1 0x20 ADD DUP3 DUP1 SLOAD PUSH2 0xF44 SWAP1 PUSH2 0x2405 JUMP JUMPDEST DUP1 ISZERO PUSH2 0xF8F JUMPI DUP1 PUSH1 0x1F LT PUSH2 0xF66 JUMPI PUSH2 0x100 DUP1 DUP4 SLOAD DIV MUL DUP4 MSTORE SWAP2 PUSH1 0x20 ADD SWAP2 PUSH2 0xF8F JUMP JUMPDEST DUP3 ADD SWAP2 SWAP1 PUSH0 MSTORE PUSH1 0x20 PUSH0 KECCAK256 SWAP1 JUMPDEST DUP2 SLOAD DUP2 MSTORE SWAP1 PUSH1 0x1 ADD SWAP1 PUSH1 0x20 ADD DUP1 DUP4 GT PUSH2 0xF72 JUMPI DUP3 SWAP1 SUB PUSH1 0x1F AND DUP3 ADD SWAP2 JUMPDEST POP POP POP POP POP DUP2 MSTORE PUSH1 0x20 ADD PUSH1 0x2 DUP3 ADD DUP1 SLOAD PUSH2 0xFA8 SWAP1 PUSH2 0x2405 JUMP JUMPDEST DUP1 PUSH1 0x1F ADD PUSH1 0x20 DUP1 SWAP2 DIV MUL PUSH1 0x20 ADD PUSH1 0x40 MLOAD SWAP1 DUP2 ADD PUSH1 0x40 MSTORE DUP1 SWAP3 SWAP2 SWAP1 DUP2 DUP2 MSTORE PUSH1 0x20 ADD DUP3 DUP1 SLOAD PUSH2 0xFD4 SWAP1 PUSH2 0x2405 JUMP JUMPDEST DUP1 ISZERO PUSH2 0x101F JUMPI DUP1 PUSH1 0x1F LT PUSH2 0xFF6 JUMPI PUSH2 0x100 DUP1 DUP4 SLOAD DIV MUL DUP4 MSTORE SWAP2 PUSH1 0x20 ADD SWAP2 PUSH2 0x101F JUMP JUMPDEST DUP3 ADD SWAP2 SWAP1 PUSH0 MSTORE PUSH1 0x20 PUSH0 KECCAK256 SWAP1 JUMPDEST DUP2 SLOAD DUP2 MSTORE SWAP1 PUSH1 0x1 ADD SWAP1 PUSH1 0x20 ADD DUP1 DUP4 GT PUSH2 0x1002 JUMPI DUP3 SWAP1 SUB PUSH1 0x1F AND DUP3 ADD SWAP2 JUMPDEST POP POP POP POP POP DUP2 MSTORE PUSH1 0x20 ADD PUSH1 0x3 DUP3 ADD DUP1 SLOAD PUSH2 0x1038 SWAP1 PUSH2 0x2405 JUMP JUMPDEST DUP1 PUSH1 0x1F ADD PUSH1 0x20 DUP1 SWAP2 DIV MUL PUSH1 0x20 ADD PUSH1 0x40 MLOAD SWAP1 DUP2 ADD PUSH1 0x40 MSTORE DUP1 SWAP3 SWAP2 SWAP1 DUP2 DUP2 MSTORE PUSH1 0x20 ADD DUP3 DUP1 SLOAD PUSH2 0x1064 SWAP1 PUSH2 0x2405 JUMP JUMPDEST DUP1 ISZERO PUSH2 0x10AF JUMPI DUP1 PUSH1 0x1F LT PUSH2 0x1086 JUMPI PUSH2 0x100 DUP1 DUP4 SLOAD DIV MUL DUP4 MSTORE SWAP2 PUSH1 0x20 ADD SWAP2 PUSH2 0x10AF JUMP JUMPDEST DUP3 ADD SWAP2 SWAP1 PUSH0 MSTORE PUSH1 0x20 PUSH0 KECCAK256 SWAP1 JUMPDEST DUP2 SLOAD DUP2 MSTORE SWAP1 PUSH1 0x1 ADD SWAP1 PUSH1 0x20 ADD DUP1 DUP4 GT PUSH2 0x1092 JUMPI DUP3 SWAP1 SUB PUSH1 0x1F AND DUP3 ADD SWAP2 JUMPDEST POP POP POP POP POP DUP2 MSTORE POP POP DUP2 MSTORE PUSH1 0x20 ADD SWAP1 PUSH1 0x1 ADD SWAP1 PUSH2 0xEE6 JUMP JUMPDEST POP POP POP POP SWAP1 POP SWAP1 JUMP JUMPDEST CALLER PUSH20 0xFFFFFFFFFFFFFFFFFFFFFFFFFFFFFFFFFFFFFFFF AND PUSH1 0x20 PUSH0 SWAP1 SLOAD SWAP1 PUSH2 0x100 EXP SWAP1 DIV PUSH20 0xFFFFFFFFFFFFFFFFFFFFFFFFFFFFFFFFFFFFFFFF AND PUSH20 0xFFFFFFFFFFFFFFFFFFFFFFFFFFFFFFFFFFFFFFFF AND EQ PUSH2 0x115F JUMPI PUSH1 0x40 MLOAD PUSH32 0x8C379A000000000000000000000000000000000000000000000000000000000 DUP2 MSTORE PUSH1 0x4 ADD PUSH2 0x1156 SWAP1 PUSH2 0x247F JUMP JUMPDEST PUSH1 0x40 MLOAD DUP1 SWAP2 SUB SWAP1 REVERT JUMPDEST PUSH0 DUP2 LT ISZERO DUP1 ISZERO PUSH2 0x116F JUMPI POP PUSH1 0x3 DUP2 LT JUMPDEST PUSH2 0x11AE JUMPI PUSH1 0x40 MLOAD PUSH32 0x8C379A000000000000000000000000000000000000000000000000000000000 DUP2 MSTORE PUSH1 0x4 ADD PUSH2 0x11A5 SWAP1 PUSH2 0x2960 JUMP JUMPDEST PUSH1 0x40 MLOAD DUP1 SWAP2 SUB SWAP1 REVERT JUMPDEST PUSH1 0x40 MLOAD DUP1 PUSH1 0x80 ADD PUSH1 0x40 MSTORE DUP1 DUP3 DUP2 MSTORE PUSH1 0x20 ADD DUP9 DUP9 DUP1 DUP1 PUSH1 0x1F ADD PUSH1 0x20 DUP1 SWAP2 DIV MUL PUSH1 0x20 ADD PUSH1 0x40 MLOAD SWAP1 DUP2 ADD PUSH1 0x40 MSTORE DUP1 SWAP4 SWAP3 SWAP2 SWAP1 DUP2 DUP2 MSTORE PUSH1 0x20 ADD DUP4 DUP4 DUP1 DUP3 DUP5 CALLDATACOPY PUSH0 DUP2 DUP5 ADD MSTORE PUSH1 0x1F NOT PUSH1 0x1F DUP3 ADD AND SWAP1 POP DUP1 DUP4 ADD SWAP3 POP POP POP POP POP POP POP DUP2 MSTORE PUSH1 0x20 ADD DUP7 DUP7 DUP1 DUP1 PUSH1 0x1F ADD PUSH1 0x20 DUP1 SWAP2 DIV MUL PUSH1 0x20 ADD PUSH1 0x40 MLOAD SWAP1 DUP2 ADD PUSH1 0x40 MSTORE DUP1 SWAP4 SWAP3 SWAP2 SWAP1 DUP2 DUP2 MSTORE PUSH1 0x20 ADD DUP4 DUP4 DUP1 DUP3 DUP5 CALLDATACOPY PUSH0 DUP2 DUP5 ADD MSTORE PUSH1 0x1F NOT PUSH1 0x1F DUP3 ADD AND SWAP1 POP DUP1 DUP4 ADD SWAP3 POP POP POP POP POP POP POP DUP2 MSTORE PUSH1 0x20 ADD DUP5 DUP5 DUP1 DUP1 PUSH1 0x1F ADD PUSH1 0x20 DUP1 SWAP2 DIV MUL PUSH1 0x20 ADD PUSH1 0x40 MLOAD SWAP1 DUP2 ADD PUSH1 0x40 MSTORE DUP1 SWAP4 SWAP3 SWAP2 SWAP1 DUP2 DUP2 MSTORE PUSH1 0x20 ADD DUP4 DUP4 DUP1 DUP3 DUP5 CALLDATACOPY PUSH0 DUP2 DUP5 ADD MSTORE PUSH1 0x1F NOT PUSH1 0x1F DUP3 ADD AND SWAP1 POP DUP1 DUP4 ADD SWAP3 POP POP POP POP POP POP POP DUP2 MSTORE POP PUSH1 0xF DUP3 PUSH1 0x3 DUP2 LT PUSH2 0x12AC JUMPI PUSH2 0x12AB PUSH2 0x27A6 JUMP JUMPDEST JUMPDEST PUSH1 0x4 MUL ADD PUSH0 DUP3 ADD MLOAD DUP2 PUSH0 ADD SSTORE PUSH1 0x20 DUP3 ADD MLOAD DUP2 PUSH1 0x1 ADD SWAP1 DUP2 PUSH2 0x12CD SWAP2 SWAP1 PUSH2 0x27D3 JUMP JUMPDEST POP PUSH1 0x40 DUP3 ADD MLOAD DUP2 PUSH1 0x2 ADD SWAP1 DUP2 PUSH2 0x12E3 SWAP2 SWAP1 PUSH2 0x27D3 JUMP JUMPDEST POP PUSH1 0x60 DUP3 ADD MLOAD DUP2 PUSH1 0x3 ADD SWAP1 DUP2 PUSH2 0x12F9 SWAP2 SWAP1 PUSH2 0x27D3 JUMP JUMPDEST POP SWAP1 POP POP POP POP POP POP POP POP POP JUMP JUMPDEST PUSH1 0x1B DUP1 SLOAD PUSH2 0x1313 SWAP1 PUSH2 0x2405 JUMP JUMPDEST DUP1 PUSH1 0x1F ADD PUSH1 0x20 DUP1 SWAP2 DIV MUL PUSH1 0x20 ADD PUSH1 0x40 MLOAD SWAP1 DUP2 ADD PUSH1 0x40 MSTORE DUP1 SWAP3 SWAP2 SWAP1 DUP2 DUP2 MSTORE PUSH1 0x20 ADD DUP3 DUP1 SLOAD PUSH2 0x133F SWAP1 PUSH2 0x2405 JUMP JUMPDEST DUP1 ISZERO PUSH2 0x138A JUMPI DUP1 PUSH1 0x1F LT PUSH2 0x1361 JUMPI PUSH2 0x100 DUP1 DUP4 SLOAD DIV MUL DUP4 MSTORE SWAP2 PUSH1 0x20 ADD SWAP2 PUSH2 0x138A JUMP JUMPDEST DUP3 ADD SWAP2 SWAP1 PUSH0 MSTORE PUSH1 0x20 PUSH0 KECCAK256 SWAP1 JUMPDEST DUP2 SLOAD DUP2 MSTORE SWAP1 PUSH1 0x1 ADD SWAP1 PUSH1 0x20 ADD DUP1 DUP4 GT PUSH2 0x136D JUMPI DUP3 SWAP1 SUB PUSH1 0x1F AND DUP3 ADD SWAP2 JUMPDEST POP POP POP POP POP DUP2 JUMP JUMPDEST CALLER PUSH20 0xFFFFFFFFFFFFFFFFFFFFFFFFFFFFFFFFFFFFFFFF AND PUSH1 0x20 PUSH0 SWAP1 SLOAD SWAP1 PUSH2 0x100 EXP SWAP1 DIV PUSH20 0xFFFFFFFFFFFFFFFFFFFFFFFFFFFFFFFFFFFFFFFF AND PUSH20 0xFFFFFFFFFFFFFFFFFFFFFFFFFFFFFFFFFFFFFFFF AND EQ PUSH2 0x1421 JUMPI PUSH1 0x40 MLOAD PUSH32 0x8C379A000000000000000000000000000000000000000000000000000000000 DUP2 MSTORE PUSH1 0x4 ADD PUSH2 0x1418 SWAP1 PUSH2 0x247F JUMP JUMPDEST PUSH1 0x40 MLOAD DUP1 SWAP2 SUB SWAP1 REVERT JUMPDEST DUP2 DUP2 PUSH1 0x1C SWAP2 DUP3 PUSH2 0x1432 SWAP3 SWAP2 SWAP1 PUSH2 0x2671 JUMP JUMPDEST POP POP POP JUMP JUMPDEST CALLER PUSH20 0xFFFFFFFFFFFFFFFFFFFFFFFFFFFFFFFFFFFFFFFF AND PUSH1 0x20 PUSH0 SWAP1 SLOAD SWAP1 PUSH2 0x100 EXP SWAP1 DIV PUSH20 0xFFFFFFFFFFFFFFFFFFFFFFFFFFFFFFFFFFFFFFFF AND PUSH20 0xFFFFFFFFFFFFFFFFFFFFFFFFFFFFFFFFFFFFFFFF AND EQ PUSH2 0x14C6 JUMPI PUSH1 0x40 MLOAD PUSH32 0x8C379A000000000000000000000000000000000000000000000000000000000 DUP2 MSTORE PUSH1 0x4 ADD PUSH2 0x14BD SWAP1 PUSH2 0x247F JUMP JUMPDEST PUSH1 0x40 MLOAD DUP1 SWAP2 SUB SWAP1 REVERT JUMPDEST PUSH1 0x3 PUSH1 0x1F SLOAD LT PUSH2 0x150B JUMPI PUSH1 0x40 MLOAD PUSH32 0x8C379A000000000000000000000000000000000000000000000000000000000 DUP2 MSTORE PUSH1 0x4 ADD PUSH2 0x1502 SWAP1 PUSH2 0x2960 JUMP JUMPDEST PUSH1 0x40 MLOAD DUP1 SWAP2 SUB SWAP1 REVERT JUMPDEST PUSH1 0x40 MLOAD DUP1 PUSH1 0x80 ADD PUSH1 0x40 MSTORE DUP1 PUSH1 0x1F SLOAD DUP2 MSTORE PUSH1 0x20 ADD DUP8 DUP8 DUP1 DUP1 PUSH1 0x1F ADD PUSH1 0x20 DUP1 SWAP2 DIV MUL PUSH1 0x20 ADD PUSH1 0x40 MLOAD SWAP1 DUP2 ADD PUSH1 0x40 MSTORE DUP1 SWAP4 SWAP3 SWAP2 SWAP1 DUP2 DUP2 MSTORE PUSH1 0x20 ADD DUP4 DUP4 DUP1 DUP3 DUP5 CALLDATACOPY PUSH0 DUP2 DUP5 ADD MSTORE PUSH1 0x1F NOT PUSH1 0x1F DUP3 ADD AND SWAP1 POP DUP1 DUP4 ADD SWAP3 POP POP POP POP POP POP POP DUP2 MSTORE PUSH1 0x20 ADD DUP6 DUP6 DUP1 DUP1 PUSH1 0x1F ADD PUSH1 0x20 DUP1 SWAP2 DIV MUL PUSH1 0x20 ADD PUSH1 0x40 MLOAD SWAP1 DUP2 ADD PUSH1 0x40 MSTORE DUP1 SWAP4 SWAP3 SWAP2 SWAP1 DUP2 DUP2 MSTORE PUSH1 0x20 ADD DUP4 DUP4 DUP1 DUP3 DUP5 CALLDATACOPY PUSH0 DUP2 DUP5 ADD MSTORE PUSH1 0x1F NOT PUSH1 0x1F DUP3 ADD AND SWAP1 POP DUP1 DUP4 ADD SWAP3 POP POP POP POP POP POP POP DUP2 MSTORE PUSH1 0x20 ADD DUP4 DUP4 DUP1 DUP1 PUSH1 0x1F ADD PUSH1 0x20 DUP1 SWAP2 DIV MUL PUSH1 0x20 ADD PUSH1 0x40 MLOAD SWAP1 DUP2 ADD PUSH1 0x40 MSTORE DUP1 SWAP4 SWAP3 SWAP2 SWAP1 DUP2 DUP2 MSTORE PUSH1 0x20 ADD DUP4 DUP4 DUP1 DUP3 DUP5 CALLDATACOPY PUSH0 DUP2 DUP5 ADD MSTORE PUSH1 0x1F NOT PUSH1 0x1F DUP3 ADD AND SWAP1 POP DUP1 DUP4 ADD SWAP3 POP POP POP POP POP POP POP DUP2 MSTORE POP PUSH1 0xF PUSH1 0x1F SLOAD PUSH1 0x3 DUP2 LT PUSH2 0x160D JUMPI PUSH2 0x160C PUSH2 0x27A6 JUMP JUMPDEST JUMPDEST PUSH1 0x4 MUL ADD PUSH0 DUP3 ADD MLOAD DUP2 PUSH0 ADD SSTORE PUSH1 0x20 DUP3 ADD MLOAD DUP2 PUSH1 0x1 ADD SWAP1 DUP2 PUSH2 0x162E SWAP2 SWAP1 PUSH2 0x27D3 JUMP JUMPDEST POP PUSH1 0x40 DUP3 ADD MLOAD DUP2 PUSH1 0x2 ADD SWAP1 DUP2 PUSH2 0x1644 SWAP2 SWAP1 PUSH2 0x27D3 JUMP JUMPDEST POP PUSH1 0x60 DUP3 ADD MLOAD DUP2 PUSH1 0x3 ADD SWAP1 DUP2 PUSH2 0x165A SWAP2 SWAP1 PUSH2 0x27D3 JUMP JUMPDEST POP SWAP1 POP POP PUSH1 0x1F PUSH0 DUP2 SLOAD DUP1 SWAP3 SWAP2 SWAP1 PUSH2 0x1670 SWAP1 PUSH2 0x28CF JUMP JUMPDEST SWAP2 SWAP1 POP SSTORE POP POP POP POP POP POP POP JUMP JUMPDEST CALLER PUSH20 0xFFFFFFFFFFFFFFFFFFFFFFFFFFFFFFFFFFFFFFFF AND PUSH1 0x20 PUSH0 SWAP1 SLOAD SWAP1 PUSH2 0x100 EXP SWAP1 DIV PUSH20 0xFFFFFFFFFFFFFFFFFFFFFFFFFFFFFFFFFFFFFFFF AND PUSH20 0xFFFFFFFFFFFFFFFFFFFFFFFFFFFFFFFFFFFFFFFF AND EQ PUSH2 0x170C JUMPI PUSH1 0x40 MLOAD PUSH32 0x8C379A000000000000000000000000000000000000000000000000000000000 DUP2 MSTORE PUSH1 0x4 ADD PUSH2 0x1703 SWAP1 PUSH2 0x247F JUMP JUMPDEST PUSH1 0x40 MLOAD DUP1 SWAP2 SUB SWAP1 REVERT JUMPDEST DUP2 DUP2 PUSH1 0x1D SWAP2 DUP3 PUSH2 0x171D SWAP3 SWAP2 SWAP1 PUSH2 0x2671 JUMP JUMPDEST POP POP POP JUMP JUMPDEST PUSH1 0x20 PUSH0 SWAP1 SLOAD SWAP1 PUSH2 0x100 EXP SWAP1 DIV PUSH20 0xFFFFFFFFFFFFFFFFFFFFFFFFFFFFFFFFFFFFFFFF AND PUSH20 0xFFFFFFFFFFFFFFFFFFFFFFFFFFFFFFFFFFFFFFFF AND PUSH2 0x8FC CALLVALUE SWAP1 DUP2 ISZERO MUL SWAP1 PUSH1 0x40 MLOAD PUSH0 PUSH1 0x40 MLOAD DUP1 DUP4 SUB DUP2 DUP6 DUP9 DUP9 CALL SWAP4 POP POP POP POP ISZERO DUP1 ISZERO PUSH2 0x1786 JUMPI RETURNDATASIZE PUSH0 DUP1 RETURNDATACOPY RETURNDATASIZE PUSH0 REVERT JUMPDEST POP JUMP JUMPDEST PUSH2 0x1791 PUSH2 0x1A4F JUMP JUMPDEST PUSH0 PUSH1 0x3 DUP1 PUSH1 0x20 MUL PUSH1 0x40 MLOAD SWAP1 DUP2 ADD PUSH1 0x40 MSTORE DUP1 SWAP3 SWAP2 SWAP1 PUSH0 SWAP1 JUMPDEST DUP3 DUP3 LT ISZERO PUSH2 0x1A19 JUMPI DUP4 DUP3 PUSH1 0x5 MUL ADD PUSH1 0x40 MLOAD DUP1 PUSH1 0xA0 ADD PUSH1 0x40 MSTORE SWAP1 DUP2 PUSH0 DUP3 ADD SLOAD DUP2 MSTORE PUSH1 0x20 ADD PUSH1 0x1 DUP3 ADD DUP1 SLOAD PUSH2 0x17DA SWAP1 PUSH2 0x2405 JUMP JUMPDEST DUP1 PUSH1 0x1F ADD PUSH1 0x20 DUP1 SWAP2 DIV MUL PUSH1 0x20 ADD PUSH1 0x40 MLOAD SWAP1 DUP2 ADD PUSH1 0x40 MSTORE DUP1 SWAP3 SWAP2 SWAP1 DUP2 DUP2 MSTORE PUSH1 0x20 ADD DUP3 DUP1 SLOAD PUSH2 0x1806 SWAP1 PUSH2 0x2405 JUMP JUMPDEST DUP1 ISZERO PUSH2 0x1851 JUMPI DUP1 PUSH1 0x1F LT PUSH2 0x1828 JUMPI PUSH2 0x100 DUP1 DUP4 SLOAD DIV MUL DUP4 MSTORE SWAP2 PUSH1 0x20 ADD SWAP2 PUSH2 0x1851 JUMP JUMPDEST DUP3 ADD SWAP2 SWAP1 PUSH0 MSTORE PUSH1 0x20 PUSH0 KECCAK256 SWAP1 JUMPDEST DUP2 SLOAD DUP2 MSTORE SWAP1 PUSH1 0x1 ADD SWAP1 PUSH1 0x20 ADD DUP1 DUP4 GT PUSH2 0x1834 JUMPI DUP3 SWAP1 SUB PUSH1 0x1F AND DUP3 ADD SWAP2 JUMPDEST POP POP POP POP POP DUP2 MSTORE PUSH1 0x20 ADD PUSH1 0x2 DUP3 ADD DUP1 SLOAD PUSH2 0x186A SWAP1 PUSH2 0x2405 JUMP JUMPDEST DUP1 PUSH1 0x1F ADD PUSH1 0x20 DUP1 SWAP2 DIV MUL PUSH1 0x20 ADD PUSH1 0x40 MLOAD SWAP1 DUP2 ADD PUSH1 0x40 MSTORE DUP1 SWAP3 SWAP2 SWAP1 DUP2 DUP2 MSTORE PUSH1 0x20 ADD DUP3 DUP1 SLOAD PUSH2 0x1896 SWAP1 PUSH2 0x2405 JUMP JUMPDEST DUP1 ISZERO PUSH2 0x18E1 JUMPI DUP1 PUSH1 0x1F LT PUSH2 0x18B8 JUMPI PUSH2 0x100 DUP1 DUP4 SLOAD DIV MUL DUP4 MSTORE SWAP2 PUSH1 0x20 ADD SWAP2 PUSH2 0x18E1 JUMP JUMPDEST DUP3 ADD SWAP2 SWAP1 PUSH0 MSTORE PUSH1 0x20 PUSH0 KECCAK256 SWAP1 JUMPDEST DUP2 SLOAD DUP2 MSTORE SWAP1 PUSH1 0x1 ADD SWAP1 PUSH1 0x20 ADD DUP1 DUP4 GT PUSH2 0x18C4 JUMPI DUP3 SWAP1 SUB PUSH1 0x1F AND DUP3 ADD SWAP2 JUMPDEST POP POP POP POP POP DUP2 MSTORE PUSH1 0x20 ADD PUSH1 0x3 DUP3 ADD DUP1 SLOAD PUSH2 0x18FA SWAP1 PUSH2 0x2405 JUMP JUMPDEST DUP1 PUSH1 0x1F ADD PUSH1 0x20 DUP1 SWAP2 DIV MUL PUSH1 0x20 ADD PUSH1 0x40 MLOAD SWAP1 DUP2 ADD PUSH1 0x40 MSTORE DUP1 SWAP3 SWAP2 SWAP1 DUP2 DUP2 MSTORE PUSH1 0x20 ADD DUP3 DUP1 SLOAD PUSH2 0x1926 SWAP1 PUSH2 0x2405 JUMP JUMPDEST DUP1 ISZERO PUSH2 0x1971 JUMPI DUP1 PUSH1 0x1F LT PUSH2 0x1948 JUMPI PUSH2 0x100 DUP1 DUP4 SLOAD DIV MUL DUP4 MSTORE SWAP2 PUSH1 0x20 ADD SWAP2 PUSH2 0x1971 JUMP JUMPDEST DUP3 ADD SWAP2 SWAP1 PUSH0 MSTORE PUSH1 0x20 PUSH0 KECCAK256 SWAP1 JUMPDEST DUP2 SLOAD DUP2 MSTORE SWAP1 PUSH1 0x1 ADD SWAP1 PUSH1 0x20 ADD DUP1 DUP4 GT PUSH2 0x1954 JUMPI DUP3 SWAP1 SUB PUSH1 0x1F AND DUP3 ADD SWAP2 JUMPDEST POP POP POP POP POP DUP2 MSTORE PUSH1 0x20 ADD PUSH1 0x4 DUP3 ADD DUP1 SLOAD PUSH2 0x198A SWAP1 PUSH2 0x2405 JUMP JUMPDEST DUP1 PUSH1 0x1F ADD PUSH1 0x20 DUP1 SWAP2 DIV MUL PUSH1 0x20 ADD PUSH1 0x40 MLOAD SWAP1 DUP2 ADD PUSH1 0x40 MSTORE DUP1 SWAP3 SWAP2 SWAP1 DUP2 DUP2 MSTORE PUSH1 0x20 ADD DUP3 DUP1 SLOAD PUSH2 0x19B6 SWAP1 PUSH2 0x2405 JUMP JUMPDEST DUP1 ISZERO PUSH2 0x1A01 JUMPI DUP1 PUSH1 0x1F LT PUSH2 0x19D8 JUMPI PUSH2 0x100 DUP1 DUP4 SLOAD DIV MUL DUP4 MSTORE SWAP2 PUSH1 0x20 ADD SWAP2 PUSH2 0x1A01 JUMP JUMPDEST DUP3 ADD SWAP2 SWAP1 PUSH0 MSTORE PUSH1 0x20 PUSH0 KECCAK256 SWAP1 JUMPDEST DUP2 SLOAD DUP2 MSTORE SWAP1 PUSH1 0x1 ADD SWAP1 PUSH1 0x20 ADD DUP1 DUP4 GT PUSH2 0x19E4 JUMPI DUP3 SWAP1 SUB PUSH1 0x1F AND DUP3 ADD SWAP2 JUMPDEST POP POP POP POP POP DUP2 MSTORE POP POP DUP2 MSTORE PUSH1 0x20 ADD SWAP1 PUSH1 0x1 ADD SWAP1 PUSH2 0x17A8 JUMP JUMPDEST POP POP POP POP SWAP1 POP SWAP1 JUMP JUMPDEST PUSH1 0x40 MLOAD DUP1 PUSH1 0x60 ADD PUSH1 0x40 MSTORE DUP1 PUSH1 0x3 SWAP1 JUMPDEST PUSH2 0x1A39 PUSH2 0x1A7C JUMP JUMPDEST DUP2 MSTORE PUSH1 0x20 ADD SWAP1 PUSH1 0x1 SWAP1 SUB SWAP1 DUP2 PUSH2 0x1A31 JUMPI SWAP1 POP POP SWAP1 JUMP JUMPDEST PUSH1 0x40 MLOAD DUP1 PUSH1 0x60 ADD PUSH1 0x40 MSTORE DUP1 PUSH1 0x3 SWAP1 JUMPDEST PUSH2 0x1A66 PUSH2 0x1AA3 JUMP JUMPDEST DUP2 MSTORE PUSH1 0x20 ADD SWAP1 PUSH1 0x1 SWAP1 SUB SWAP1 DUP2 PUSH2 0x1A5E JUMPI SWAP1 POP POP SWAP1 JUMP JUMPDEST PUSH1 0x40 MLOAD DUP1 PUSH1 0x80 ADD PUSH1 0x40 MSTORE DUP1 PUSH0 DUP2 MSTORE PUSH1 0x20 ADD PUSH1 0x60 DUP2 MSTORE PUSH1 0x20 ADD PUSH1 0x60 DUP2 MSTORE PUSH1 0x20 ADD PUSH1 0x60 DUP2 MSTORE POP SWAP1 JUMP JUMPDEST PUSH1 0x40 MLOAD DUP1 PUSH1 0xA0 ADD PUSH1 0x40 MSTORE DUP1 PUSH0 DUP2 MSTORE PUSH1 0x20 ADD PUSH1 0x60 DUP2 MSTORE PUSH1 0x20 ADD PUSH1 0x60 DUP2 MSTORE PUSH1 0x20 ADD PUSH1 0x60 DUP2 MSTORE PUSH1 0x20 ADD PUSH1 0x60 DUP2 MSTORE POP SWAP1 JUMP JUMPDEST PUSH0 DUP1 REVERT JUMPDEST PUSH0 DUP1 REVERT JUMPDEST PUSH0 DUP2 SWAP1 POP SWAP2 SWAP1 POP JUMP JUMPDEST PUSH2 0x1AEB DUP2 PUSH2 0x1AD9 JUMP JUMPDEST DUP2 EQ PUSH2 0x1AF5 JUMPI PUSH0 DUP1 REVERT JUMPDEST POP JUMP JUMPDEST PUSH0 DUP2 CALLDATALOAD SWAP1 POP PUSH2 0x1B06 DUP2 PUSH2 0x1AE2 JUMP JUMPDEST SWAP3 SWAP2 POP POP JUMP JUMPDEST PUSH0 PUSH1 0x20 DUP3 DUP5 SUB SLT ISZERO PUSH2 0x1B21 JUMPI PUSH2 0x1B20 PUSH2 0x1AD1 JUMP JUMPDEST JUMPDEST PUSH0 PUSH2 0x1B2E DUP5 DUP3 DUP6 ADD PUSH2 0x1AF8 JUMP JUMPDEST SWAP2 POP POP SWAP3 SWAP2 POP POP JUMP JUMPDEST PUSH2 0x1B40 DUP2 PUSH2 0x1AD9 JUMP JUMPDEST DUP3 MSTORE POP POP JUMP JUMPDEST PUSH0 DUP2 MLOAD SWAP1 POP SWAP2 SWAP1 POP JUMP JUMPDEST PUSH0 DUP3 DUP3 MSTORE PUSH1 0x20 DUP3 ADD SWAP1 POP SWAP3 SWAP2 POP POP JUMP JUMPDEST DUP3 DUP2 DUP4 MCOPY PUSH0 DUP4 DUP4 ADD MSTORE POP POP POP JUMP JUMPDEST PUSH0 PUSH1 0x1F NOT PUSH1 0x1F DUP4 ADD AND SWAP1 POP SWAP2 SWAP1 POP JUMP JUMPDEST PUSH0 PUSH2 0x1B88 DUP3 PUSH2 0x1B46 JUMP JUMPDEST PUSH2 0x1B92 DUP2 DUP6 PUSH2 0x1B50 JUMP JUMPDEST SWAP4 POP PUSH2 0x1BA2 DUP2 DUP6 PUSH1 0x20 DUP7 ADD PUSH2 0x1B60 JUMP JUMPDEST PUSH2 0x1BAB DUP2 PUSH2 0x1B6E JUMP JUMPDEST DUP5 ADD SWAP2 POP POP SWAP3 SWAP2 POP POP JUMP JUMPDEST PUSH0 PUSH1 0xA0 DUP3 ADD SWAP1 POP PUSH2 0x1BC9 PUSH0 DUP4 ADD DUP9 PUSH2 0x1B37 JUMP JUMPDEST DUP2 DUP2 SUB PUSH1 0x20 DUP4 ADD MSTORE PUSH2 0x1BDB DUP2 DUP8 PUSH2 0x1B7E JUMP JUMPDEST SWAP1 POP DUP2 DUP2 SUB PUSH1 0x40 DUP4 ADD MSTORE PUSH2 0x1BEF DUP2 DUP7 PUSH2 0x1B7E JUMP JUMPDEST SWAP1 POP DUP2 DUP2 SUB PUSH1 0x60 DUP4 ADD MSTORE PUSH2 0x1C03 DUP2 DUP6 PUSH2 0x1B7E JUMP JUMPDEST SWAP1 POP DUP2 DUP2 SUB PUSH1 0x80 DUP4 ADD MSTORE PUSH2 0x1C17 DUP2 DUP5 PUSH2 0x1B7E JUMP JUMPDEST SWAP1 POP SWAP7 SWAP6 POP POP POP POP POP POP JUMP JUMPDEST PUSH0 PUSH20 0xFFFFFFFFFFFFFFFFFFFFFFFFFFFFFFFFFFFFFFFF DUP3 AND SWAP1 POP SWAP2 SWAP1 POP JUMP JUMPDEST PUSH0 PUSH2 0x1C4C DUP3 PUSH2 0x1C23 JUMP JUMPDEST SWAP1 POP SWAP2 SWAP1 POP JUMP JUMPDEST PUSH2 0x1C5C DUP2 PUSH2 0x1C42 JUMP JUMPDEST DUP3 MSTORE POP POP JUMP JUMPDEST PUSH0 PUSH1 0x20 DUP3 ADD SWAP1 POP PUSH2 0x1C75 PUSH0 DUP4 ADD DUP5 PUSH2 0x1C53 JUMP JUMPDEST SWAP3 SWAP2 POP POP JUMP JUMPDEST PUSH0 DUP1 REVERT JUMPDEST PUSH0 DUP1 REVERT JUMPDEST PUSH0 DUP1 REVERT JUMPDEST PUSH0 DUP1 DUP4 PUSH1 0x1F DUP5 ADD SLT PUSH2 0x1C9C JUMPI PUSH2 0x1C9B PUSH2 0x1C7B JUMP JUMPDEST JUMPDEST DUP3 CALLDATALOAD SWAP1 POP PUSH8 0xFFFFFFFFFFFFFFFF DUP2 GT ISZERO PUSH2 0x1CB9 JUMPI PUSH2 0x1CB8 PUSH2 0x1C7F JUMP JUMPDEST JUMPDEST PUSH1 0x20 DUP4 ADD SWAP2 POP DUP4 PUSH1 0x1 DUP3 MUL DUP4 ADD GT ISZERO PUSH2 0x1CD5 JUMPI PUSH2 0x1CD4 PUSH2 0x1C83 JUMP JUMPDEST JUMPDEST SWAP3 POP SWAP3 SWAP1 POP JUMP JUMPDEST PUSH0 DUP1 PUSH1 0x20 DUP4 DUP6 SUB SLT ISZERO PUSH2 0x1CF2 JUMPI PUSH2 0x1CF1 PUSH2 0x1AD1 JUMP JUMPDEST JUMPDEST PUSH0 DUP4 ADD CALLDATALOAD PUSH8 0xFFFFFFFFFFFFFFFF DUP2 GT ISZERO PUSH2 0x1D0F JUMPI PUSH2 0x1D0E PUSH2 0x1AD5 JUMP JUMPDEST JUMPDEST PUSH2 0x1D1B DUP6 DUP3 DUP7 ADD PUSH2 0x1C87 JUMP JUMPDEST SWAP3 POP SWAP3 POP POP SWAP3 POP SWAP3 SWAP1 POP JUMP JUMPDEST PUSH0 PUSH1 0x20 DUP3 ADD SWAP1 POP DUP2 DUP2 SUB PUSH0 DUP4 ADD MSTORE PUSH2 0x1D3F DUP2 DUP5 PUSH2 0x1B7E JUMP JUMPDEST SWAP1 POP SWAP3 SWAP2 POP POP JUMP JUMPDEST PUSH0 DUP1 PUSH0 DUP1 PUSH0 DUP1 PUSH0 DUP1 PUSH1 0x80 DUP10 DUP12 SUB SLT ISZERO PUSH2 0x1D63 JUMPI PUSH2 0x1D62 PUSH2 0x1AD1 JUMP JUMPDEST JUMPDEST PUSH0 DUP10 ADD CALLDATALOAD PUSH8 0xFFFFFFFFFFFFFFFF DUP2 GT ISZERO PUSH2 0x1D80 JUMPI PUSH2 0x1D7F PUSH2 0x1AD5 JUMP JUMPDEST JUMPDEST PUSH2 0x1D8C DUP12 DUP3 DUP13 ADD PUSH2 0x1C87 JUMP JUMPDEST SWAP9 POP SWAP9 POP POP PUSH1 0x20 DUP10 ADD CALLDATALOAD PUSH8 0xFFFFFFFFFFFFFFFF DUP2 GT ISZERO PUSH2 0x1DAF JUMPI PUSH2 0x1DAE PUSH2 0x1AD5 JUMP JUMPDEST JUMPDEST PUSH2 0x1DBB DUP12 DUP3 DUP13 ADD PUSH2 0x1C87 JUMP JUMPDEST SWAP7 POP SWAP7 POP POP PUSH1 0x40 DUP10 ADD CALLDATALOAD PUSH8 0xFFFFFFFFFFFFFFFF DUP2 GT ISZERO PUSH2 0x1DDE JUMPI PUSH2 0x1DDD PUSH2 0x1AD5 JUMP JUMPDEST JUMPDEST PUSH2 0x1DEA DUP12 DUP3 DUP13 ADD PUSH2 0x1C87 JUMP JUMPDEST SWAP5 POP SWAP5 POP POP PUSH1 0x60 DUP10 ADD CALLDATALOAD PUSH8 0xFFFFFFFFFFFFFFFF DUP2 GT ISZERO PUSH2 0x1E0D JUMPI PUSH2 0x1E0C PUSH2 0x1AD5 JUMP JUMPDEST JUMPDEST PUSH2 0x1E19 DUP12 DUP3 DUP13 ADD PUSH2 0x1C87 JUMP JUMPDEST SWAP3 POP SWAP3 POP POP SWAP3 SWAP6 SWAP9 POP SWAP3 SWAP6 SWAP9 SWAP1 SWAP4 SWAP7 POP JUMP JUMPDEST PUSH0 DUP1 PUSH0 DUP1 PUSH0 DUP1 PUSH0 DUP1 PUSH0 PUSH1 0xA0 DUP11 DUP13 SUB SLT ISZERO PUSH2 0x1E48 JUMPI PUSH2 0x1E47 PUSH2 0x1AD1 JUMP JUMPDEST JUMPDEST PUSH0 DUP11 ADD CALLDATALOAD PUSH8 0xFFFFFFFFFFFFFFFF DUP2 GT ISZERO PUSH2 0x1E65 JUMPI PUSH2 0x1E64 PUSH2 0x1AD5 JUMP JUMPDEST JUMPDEST PUSH2 0x1E71 DUP13 DUP3 DUP14 ADD PUSH2 0x1C87 JUMP JUMPDEST SWAP10 POP SWAP10 POP POP PUSH1 0x20 DUP11 ADD CALLDATALOAD PUSH8 0xFFFFFFFFFFFFFFFF DUP2 GT ISZERO PUSH2 0x1E94 JUMPI PUSH2 0x1E93 PUSH2 0x1AD5 JUMP JUMPDEST JUMPDEST PUSH2 0x1EA0 DUP13 DUP3 DUP14 ADD PUSH2 0x1C87 JUMP JUMPDEST SWAP8 POP SWAP8 POP POP PUSH1 0x40 DUP11 ADD CALLDATALOAD PUSH8 0xFFFFFFFFFFFFFFFF DUP2 GT ISZERO PUSH2 0x1EC3 JUMPI PUSH2 0x1EC2 PUSH2 0x1AD5 JUMP JUMPDEST JUMPDEST PUSH2 0x1ECF DUP13 DUP3 DUP14 ADD PUSH2 0x1C87 JUMP JUMPDEST SWAP6 POP SWAP6 POP POP PUSH1 0x60 DUP11 ADD CALLDATALOAD PUSH8 0xFFFFFFFFFFFFFFFF DUP2 GT ISZERO PUSH2 0x1EF2 JUMPI PUSH2 0x1EF1 PUSH2 0x1AD5 JUMP JUMPDEST JUMPDEST PUSH2 0x1EFE DUP13 DUP3 DUP14 ADD PUSH2 0x1C87 JUMP JUMPDEST SWAP4 POP SWAP4 POP POP PUSH1 0x80 PUSH2 0x1F11 DUP13 DUP3 DUP14 ADD PUSH2 0x1AF8 JUMP JUMPDEST SWAP2 POP POP SWAP3 SWAP6 SWAP9 POP SWAP3 SWAP6 SWAP9 POP SWAP3 SWAP6 SWAP9 JUMP JUMPDEST PUSH0 PUSH1 0x80 DUP3 ADD SWAP1 POP PUSH2 0x1F34 PUSH0 DUP4 ADD DUP8 PUSH2 0x1B37 JUMP JUMPDEST DUP2 DUP2 SUB PUSH1 0x20 DUP4 ADD MSTORE PUSH2 0x1F46 DUP2 DUP7 PUSH2 0x1B7E JUMP JUMPDEST SWAP1 POP DUP2 DUP2 SUB PUSH1 0x40 DUP4 ADD MSTORE PUSH2 0x1F5A DUP2 DUP6 PUSH2 0x1B7E JUMP JUMPDEST SWAP1 POP DUP2 DUP2 SUB PUSH1 0x60 DUP4 ADD MSTORE PUSH2 0x1F6E DUP2 DUP5 PUSH2 0x1B7E JUMP JUMPDEST SWAP1 POP SWAP6 SWAP5 POP POP POP POP POP JUMP JUMPDEST PUSH0 PUSH1 0x3 SWAP1 POP SWAP2 SWAP1 POP JUMP JUMPDEST PUSH0 DUP2 SWAP1 POP SWAP3 SWAP2 POP POP JUMP JUMPDEST PUSH0 DUP2 SWAP1 POP SWAP2 SWAP1 POP JUMP JUMPDEST PUSH2 0x1F9F DUP2 PUSH2 0x1AD9 JUMP JUMPDEST DUP3 MSTORE POP POP JUMP JUMPDEST PUSH0 DUP3 DUP3 MSTORE PUSH1 0x20 DUP3 ADD SWAP1 POP SWAP3 SWAP2 POP POP JUMP JUMPDEST PUSH0 PUSH2 0x1FBF DUP3 PUSH2 0x1B46 JUMP JUMPDEST PUSH2 0x1FC9 DUP2 DUP6 PUSH2 0x1FA5 JUMP JUMPDEST SWAP4 POP PUSH2 0x1FD9 DUP2 DUP6 PUSH1 0x20 DUP7 ADD PUSH2 0x1B60 JUMP JUMPDEST PUSH2 0x1FE2 DUP2 PUSH2 0x1B6E JUMP JUMPDEST DUP5 ADD SWAP2 POP POP SWAP3 SWAP2 POP POP JUMP JUMPDEST PUSH0 PUSH1 0x80 DUP4 ADD PUSH0 DUP4 ADD MLOAD PUSH2 0x2002 PUSH0 DUP7 ADD DUP3 PUSH2 0x1F96 JUMP JUMPDEST POP PUSH1 0x20 DUP4 ADD MLOAD DUP5 DUP3 SUB PUSH1 0x20 DUP7 ADD MSTORE PUSH2 0x201A DUP3 DUP3 PUSH2 0x1FB5 JUMP JUMPDEST SWAP2 POP POP PUSH1 0x40 DUP4 ADD MLOAD DUP5 DUP3 SUB PUSH1 0x40 DUP7 ADD MSTORE PUSH2 0x2034 DUP3 DUP3 PUSH2 0x1FB5 JUMP JUMPDEST SWAP2 POP POP PUSH1 0x60 DUP4 ADD MLOAD DUP5 DUP3 SUB PUSH1 0x60 DUP7 ADD MSTORE PUSH2 0x204E DUP3 DUP3 PUSH2 0x1FB5 JUMP JUMPDEST SWAP2 POP POP DUP1 SWAP2 POP POP SWAP3 SWAP2 POP POP JUMP JUMPDEST PUSH0 PUSH2 0x2066 DUP4 DUP4 PUSH2 0x1FED JUMP JUMPDEST SWAP1 POP SWAP3 SWAP2 POP POP JUMP JUMPDEST PUSH0 PUSH1 0x20 DUP3 ADD SWAP1 POP SWAP2 SWAP1 POP JUMP JUMPDEST PUSH0 PUSH2 0x2084 DUP3 PUSH2 0x1F79 JUMP JUMPDEST PUSH2 0x208E DUP2 DUP6 PUSH2 0x1F83 JUMP JUMPDEST SWAP4 POP DUP4 PUSH1 0x20 DUP3 MUL DUP6 ADD PUSH2 0x20A0 DUP6 PUSH2 0x1F8D JUMP JUMPDEST DUP1 PUSH0 JUMPDEST DUP6 DUP2 LT ISZERO PUSH2 0x20DB JUMPI DUP5 DUP5 SUB DUP10 MSTORE DUP2 MLOAD PUSH2 0x20BC DUP6 DUP3 PUSH2 0x205B JUMP JUMPDEST SWAP5 POP PUSH2 0x20C7 DUP4 PUSH2 0x206E JUMP JUMPDEST SWAP3 POP PUSH1 0x20 DUP11 ADD SWAP10 POP POP PUSH1 0x1 DUP2 ADD SWAP1 POP PUSH2 0x20A3 JUMP JUMPDEST POP DUP3 SWAP8 POP DUP8 SWAP6 POP POP POP POP POP POP SWAP3 SWAP2 POP POP JUMP JUMPDEST PUSH0 PUSH1 0x20 DUP3 ADD SWAP1 POP DUP2 DUP2 SUB PUSH0 DUP4 ADD MSTORE PUSH2 0x2105 DUP2 DUP5 PUSH2 0x207A JUMP JUMPDEST SWAP1 POP SWAP3 SWAP2 POP POP JUMP JUMPDEST PUSH0 DUP1 PUSH0 DUP1 PUSH0 DUP1 PUSH0 PUSH1 0x80 DUP9 DUP11 SUB SLT ISZERO PUSH2 0x2128 JUMPI PUSH2 0x2127 PUSH2 0x1AD1 JUMP JUMPDEST JUMPDEST PUSH0 DUP9 ADD CALLDATALOAD PUSH8 0xFFFFFFFFFFFFFFFF DUP2 GT ISZERO PUSH2 0x2145 JUMPI PUSH2 0x2144 PUSH2 0x1AD5 JUMP JUMPDEST JUMPDEST PUSH2 0x2151 DUP11 DUP3 DUP12 ADD PUSH2 0x1C87 JUMP JUMPDEST SWAP8 POP SWAP8 POP POP PUSH1 0x20 DUP9 ADD CALLDATALOAD PUSH8 0xFFFFFFFFFFFFFFFF DUP2 GT ISZERO PUSH2 0x2174 JUMPI PUSH2 0x2173 PUSH2 0x1AD5 JUMP JUMPDEST JUMPDEST PUSH2 0x2180 DUP11 DUP3 DUP12 ADD PUSH2 0x1C87 JUMP JUMPDEST SWAP6 POP SWAP6 POP POP PUSH1 0x40 DUP9 ADD CALLDATALOAD PUSH8 0xFFFFFFFFFFFFFFFF DUP2 GT ISZERO PUSH2 0x21A3 JUMPI PUSH2 0x21A2 PUSH2 0x1AD5 JUMP JUMPDEST JUMPDEST PUSH2 0x21AF DUP11 DUP3 DUP12 ADD PUSH2 0x1C87 JUMP JUMPDEST SWAP4 POP SWAP4 POP POP PUSH1 0x60 PUSH2 0x21C2 DUP11 DUP3 DUP12 ADD PUSH2 0x1AF8 JUMP JUMPDEST SWAP2 POP POP SWAP3 SWAP6 SWAP9 SWAP2 SWAP5 SWAP8 POP SWAP3 SWAP6 POP JUMP JUMPDEST PUSH0 DUP1 PUSH0 DUP1 PUSH0 DUP1 PUSH1 0x60 DUP8 DUP10 SUB SLT ISZERO PUSH2 0x21EB JUMPI PUSH2 0x21EA PUSH2 0x1AD1 JUMP JUMPDEST JUMPDEST PUSH0 DUP8 ADD CALLDATALOAD PUSH8 0xFFFFFFFFFFFFFFFF DUP2 GT ISZERO PUSH2 0x2208 JUMPI PUSH2 0x2207 PUSH2 0x1AD5 JUMP JUMPDEST JUMPDEST PUSH2 0x2214 DUP10 DUP3 DUP11 ADD PUSH2 0x1C87 JUMP JUMPDEST SWAP7 POP SWAP7 POP POP PUSH1 0x20 DUP8 ADD CALLDATALOAD PUSH8 0xFFFFFFFFFFFFFFFF DUP2 GT ISZERO PUSH2 0x2237 JUMPI PUSH2 0x2236 PUSH2 0x1AD5 JUMP JUMPDEST JUMPDEST PUSH2 0x2243 DUP10 DUP3 DUP11 ADD PUSH2 0x1C87 JUMP JUMPDEST SWAP5 POP SWAP5 POP POP PUSH1 0x40 DUP8 ADD CALLDATALOAD PUSH8 0xFFFFFFFFFFFFFFFF DUP2 GT ISZERO PUSH2 0x2266 JUMPI PUSH2 0x2265 PUSH2 0x1AD5 JUMP JUMPDEST JUMPDEST PUSH2 0x2272 DUP10 DUP3 DUP11 ADD PUSH2 0x1C87 JUMP JUMPDEST SWAP3 POP SWAP3 POP POP SWAP3 SWAP6 POP SWAP3 SWAP6 POP SWAP3 SWAP6 JUMP JUMPDEST PUSH0 PUSH1 0x3 SWAP1 POP SWAP2 SWAP1 POP JUMP JUMPDEST PUSH0 DUP2 SWAP1 POP SWAP3 SWAP2 POP POP JUMP JUMPDEST PUSH0 DUP2 SWAP1 POP SWAP2 SWAP1 POP JUMP JUMPDEST PUSH0 PUSH1 0xA0 DUP4 ADD PUSH0 DUP4 ADD MLOAD PUSH2 0x22B3 PUSH0 DUP7 ADD DUP3 PUSH2 0x1F96 JUMP JUMPDEST POP PUSH1 0x20 DUP4 ADD MLOAD DUP5 DUP3 SUB PUSH1 0x20 DUP7 ADD MSTORE PUSH2 0x22CB DUP3 DUP3 PUSH2 0x1FB5 JUMP JUMPDEST SWAP2 POP POP PUSH1 0x40 DUP4 ADD MLOAD DUP5 DUP3 SUB PUSH1 0x40 DUP7 ADD MSTORE PUSH2 0x22E5 DUP3 DUP3 PUSH2 0x1FB5 JUMP JUMPDEST SWAP2 POP POP PUSH1 0x60 DUP4 ADD MLOAD DUP5 DUP3 SUB PUSH1 0x60 DUP7 ADD MSTORE PUSH2 0x22FF DUP3 DUP3 PUSH2 0x1FB5 JUMP JUMPDEST SWAP2 POP POP PUSH1 0x80 DUP4 ADD MLOAD DUP5 DUP3 SUB PUSH1 0x80 DUP7 ADD MSTORE PUSH2 0x2319 DUP3 DUP3 PUSH2 0x1FB5 JUMP JUMPDEST SWAP2 POP POP DUP1 SWAP2 POP POP SWAP3 SWAP2 POP POP JUMP JUMPDEST PUSH0 PUSH2 0x2331 DUP4 DUP4 PUSH2 0x229E JUMP JUMPDEST SWAP1 POP SWAP3 SWAP2 POP POP JUMP JUMPDEST PUSH0 PUSH1 0x20 DUP3 ADD SWAP1 POP SWAP2 SWAP1 POP JUMP JUMPDEST PUSH0 PUSH2 0x234F DUP3 PUSH2 0x2281 JUMP JUMPDEST PUSH2 0x2359 DUP2 DUP6 PUSH2 0x228B JUMP JUMPDEST SWAP4 POP DUP4 PUSH1 0x20 DUP3 MUL DUP6 ADD PUSH2 0x236B DUP6 PUSH2 0x2295 JUMP JUMPDEST DUP1 PUSH0 JUMPDEST DUP6 DUP2 LT ISZERO PUSH2 0x23A6 JUMPI DUP5 DUP5 SUB DUP10 MSTORE DUP2 MLOAD PUSH2 0x2387 DUP6 DUP3 PUSH2 0x2326 JUMP JUMPDEST SWAP5 POP PUSH2 0x2392 DUP4 PUSH2 0x2339 JUMP JUMPDEST SWAP3 POP PUSH1 0x20 DUP11 ADD SWAP10 POP POP PUSH1 0x1 DUP2 ADD SWAP1 POP PUSH2 0x236E JUMP JUMPDEST POP DUP3 SWAP8 POP DUP8 SWAP6 POP POP POP POP POP POP SWAP3 SWAP2 POP POP JUMP JUMPDEST PUSH0 PUSH1 0x20 DUP3 ADD SWAP1 POP DUP2 DUP2 SUB PUSH0 DUP4 ADD MSTORE PUSH2 0x23D0 DUP2 DUP5 PUSH2 0x2345 JUMP JUMPDEST SWAP1 POP SWAP3 SWAP2 POP POP JUMP JUMPDEST PUSH32 0x4E487B7100000000000000000000000000000000000000000000000000000000 PUSH0 MSTORE PUSH1 0x22 PUSH1 0x4 MSTORE PUSH1 0x24 PUSH0 REVERT JUMPDEST PUSH0 PUSH1 0x2 DUP3 DIV SWAP1 POP PUSH1 0x1 DUP3 AND DUP1 PUSH2 0x241C JUMPI PUSH1 0x7F DUP3 AND SWAP2 POP JUMPDEST PUSH1 0x20 DUP3 LT DUP2 SUB PUSH2 0x242F JUMPI PUSH2 0x242E PUSH2 0x23D8 JUMP JUMPDEST JUMPDEST POP SWAP2 SWAP1 POP JUMP JUMPDEST PUSH32 0x796F7520617265206E6F7420746865206D616E61676572000000000000000000 PUSH0 DUP3 ADD MSTORE POP JUMP JUMPDEST PUSH0 PUSH2 0x2469 PUSH1 0x17 DUP4 PUSH2 0x1B50 JUMP JUMPDEST SWAP2 POP PUSH2 0x2474 DUP3 PUSH2 0x2435 JUMP JUMPDEST PUSH1 0x20 DUP3 ADD SWAP1 POP SWAP2 SWAP1 POP JUMP JUMPDEST PUSH0 PUSH1 0x20 DUP3 ADD SWAP1 POP DUP2 DUP2 SUB PUSH0 DUP4 ADD MSTORE PUSH2 0x2496 DUP2 PUSH2 0x245D JUMP JUMPDEST SWAP1 POP SWAP2 SWAP1 POP JUMP JUMPDEST PUSH0 DUP3 SWAP1 POP SWAP3 SWAP2 POP POP JUMP JUMPDEST PUSH32 0x4E487B7100000000000000000000000000000000000000000000000000000000 PUSH0 MSTORE PUSH1 0x41 PUSH1 0x4 MSTORE PUSH1 0x24 PUSH0 REVERT JUMPDEST PUSH0 DUP2 SWAP1 POP DUP2 PUSH0 MSTORE PUSH1 0x20 PUSH0 KECCAK256 SWAP1 POP SWAP2 SWAP1 POP JUMP JUMPDEST PUSH0 PUSH1 0x20 PUSH1 0x1F DUP4 ADD DIV SWAP1 POP SWAP2 SWAP1 POP JUMP JUMPDEST PUSH0 DUP3 DUP3 SHL SWAP1 POP SWAP3 SWAP2 POP POP JUMP JUMPDEST PUSH0 PUSH1 0x8 DUP4 MUL PUSH2 0x2530 PUSH32 0xFFFFFFFFFFFFFFFFFFFFFFFFFFFFFFFFFFFFFFFFFFFFFFFFFFFFFFFFFFFFFFFF DUP3 PUSH2 0x24F5 JUMP JUMPDEST PUSH2 0x253A DUP7 DUP4 PUSH2 0x24F5 JUMP JUMPDEST SWAP6 POP DUP1 NOT DUP5 AND SWAP4 POP DUP1 DUP7 AND DUP5 OR SWAP3 POP POP POP SWAP4 SWAP3 POP POP POP JUMP JUMPDEST PUSH0 DUP2 SWAP1 POP SWAP2 SWAP1 POP JUMP JUMPDEST PUSH0 PUSH2 0x2575 PUSH2 0x2570 PUSH2 0x256B DUP5 PUSH2 0x1AD9 JUMP JUMPDEST PUSH2 0x2552 JUMP JUMPDEST PUSH2 0x1AD9 JUMP JUMPDEST SWAP1 POP SWAP2 SWAP1 POP JUMP JUMPDEST PUSH0 DUP2 SWAP1 POP SWAP2 SWAP1 POP JUMP JUMPDEST PUSH2 0x258E DUP4 PUSH2 0x255B JUMP JUMPDEST PUSH2 0x25A2 PUSH2 0x259A DUP3 PUSH2 0x257C JUMP JUMPDEST DUP5 DUP5 SLOAD PUSH2 0x2501 JUMP JUMPDEST DUP3 SSTORE POP POP POP POP JUMP JUMPDEST PUSH0 SWAP1 JUMP JUMPDEST PUSH2 0x25B6 PUSH2 0x25AA JUMP JUMPDEST PUSH2 0x25C1 DUP2 DUP5 DUP5 PUSH2 0x2585 JUMP JUMPDEST POP POP POP JUMP JUMPDEST JUMPDEST DUP2 DUP2 LT ISZERO PUSH2 0x25E4 JUMPI PUSH2 0x25D9 PUSH0 DUP3 PUSH2 0x25AE JUMP JUMPDEST PUSH1 0x1 DUP2 ADD SWAP1 POP PUSH2 0x25C7 JUMP JUMPDEST POP POP JUMP JUMPDEST PUSH1 0x1F DUP3 GT ISZERO PUSH2 0x2629 JUMPI PUSH2 0x25FA DUP2 PUSH2 0x24D4 JUMP JUMPDEST PUSH2 0x2603 DUP5 PUSH2 0x24E6 JUMP JUMPDEST DUP2 ADD PUSH1 0x20 DUP6 LT ISZERO PUSH2 0x2612 JUMPI DUP2 SWAP1 POP JUMPDEST PUSH2 0x2626 PUSH2 0x261E DUP6 PUSH2 0x24E6 JUMP JUMPDEST DUP4 ADD DUP3 PUSH2 0x25C6 JUMP JUMPDEST POP POP JUMPDEST POP POP POP JUMP JUMPDEST PUSH0 DUP3 DUP3 SHR SWAP1 POP SWAP3 SWAP2 POP POP JUMP JUMPDEST PUSH0 PUSH2 0x2649 PUSH0 NOT DUP5 PUSH1 0x8 MUL PUSH2 0x262E JUMP JUMPDEST NOT DUP1 DUP4 AND SWAP2 POP POP SWAP3 SWAP2 POP POP JUMP JUMPDEST PUSH0 PUSH2 0x2661 DUP4 DUP4 PUSH2 0x263A JUMP JUMPDEST SWAP2 POP DUP3 PUSH1 0x2 MUL DUP3 OR SWAP1 POP SWAP3 SWAP2 POP POP JUMP JUMPDEST PUSH2 0x267B DUP4 DUP4 PUSH2 0x249D JUMP JUMPDEST PUSH8 0xFFFFFFFFFFFFFFFF DUP2 GT ISZERO PUSH2 0x2694 JUMPI PUSH2 0x2693 PUSH2 0x24A7 JUMP JUMPDEST JUMPDEST PUSH2 0x269E DUP3 SLOAD PUSH2 0x2405 JUMP JUMPDEST PUSH2 0x26A9 DUP3 DUP3 DUP6 PUSH2 0x25E8 JUMP JUMPDEST PUSH0 PUSH1 0x1F DUP4 GT PUSH1 0x1 DUP2 EQ PUSH2 0x26D6 JUMPI PUSH0 DUP5 ISZERO PUSH2 0x26C4 JUMPI DUP3 DUP8 ADD CALLDATALOAD SWAP1 POP JUMPDEST PUSH2 0x26CE DUP6 DUP3 PUSH2 0x2656 JUMP JUMPDEST DUP7 SSTORE POP PUSH2 0x2735 JUMP JUMPDEST PUSH1 0x1F NOT DUP5 AND PUSH2 0x26E4 DUP7 PUSH2 0x24D4 JUMP JUMPDEST PUSH0 JUMPDEST DUP3 DUP2 LT ISZERO PUSH2 0x270B JUMPI DUP5 DUP10 ADD CALLDATALOAD DUP3 SSTORE PUSH1 0x1 DUP3 ADD SWAP2 POP PUSH1 0x20 DUP6 ADD SWAP5 POP PUSH1 0x20 DUP2 ADD SWAP1 POP PUSH2 0x26E6 JUMP JUMPDEST DUP7 DUP4 LT ISZERO PUSH2 0x2728 JUMPI DUP5 DUP10 ADD CALLDATALOAD PUSH2 0x2724 PUSH1 0x1F DUP10 AND DUP3 PUSH2 0x263A JUMP JUMPDEST DUP4 SSTORE POP JUMPDEST PUSH1 0x1 PUSH1 0x2 DUP9 MUL ADD DUP9 SSTORE POP POP POP JUMPDEST POP POP POP POP POP POP POP JUMP JUMPDEST PUSH32 0x4F6E6C7920332070726F6A65637420616C6C6F77656400000000000000000000 PUSH0 DUP3 ADD MSTORE POP JUMP JUMPDEST PUSH0 PUSH2 0x2772 PUSH1 0x16 DUP4 PUSH2 0x1B50 JUMP JUMPDEST SWAP2 POP PUSH2 0x277D DUP3 PUSH2 0x273E JUMP JUMPDEST PUSH1 0x20 DUP3 ADD SWAP1 POP SWAP2 SWAP1 POP JUMP JUMPDEST PUSH0 PUSH1 0x20 DUP3 ADD SWAP1 POP DUP2 DUP2 SUB PUSH0 DUP4 ADD MSTORE PUSH2 0x279F DUP2 PUSH2 0x2766 JUMP JUMPDEST SWAP1 POP SWAP2 SWAP1 POP JUMP JUMPDEST PUSH32 0x4E487B7100000000000000000000000000000000000000000000000000000000 PUSH0 MSTORE PUSH1 0x32 PUSH1 0x4 MSTORE PUSH1 0x24 PUSH0 REVERT JUMPDEST PUSH2 0x27DC DUP3 PUSH2 0x1B46 JUMP JUMPDEST PUSH8 0xFFFFFFFFFFFFFFFF DUP2 GT ISZERO PUSH2 0x27F5 JUMPI PUSH2 0x27F4 PUSH2 0x24A7 JUMP JUMPDEST JUMPDEST PUSH2 0x27FF DUP3 SLOAD PUSH2 0x2405 JUMP JUMPDEST PUSH2 0x280A DUP3 DUP3 DUP6 PUSH2 0x25E8 JUMP JUMPDEST PUSH0 PUSH1 0x20 SWAP1 POP PUSH1 0x1F DUP4 GT PUSH1 0x1 DUP2 EQ PUSH2 0x283B JUMPI PUSH0 DUP5 ISZERO PUSH2 0x2829 JUMPI DUP3 DUP8 ADD MLOAD SWAP1 POP JUMPDEST PUSH2 0x2833 DUP6 DUP3 PUSH2 0x2656 JUMP JUMPDEST DUP7 SSTORE POP PUSH2 0x289A JUMP JUMPDEST PUSH1 0x1F NOT DUP5 AND PUSH2 0x2849 DUP7 PUSH2 0x24D4 JUMP JUMPDEST PUSH0 JUMPDEST DUP3 DUP2 LT ISZERO PUSH2 0x2870 JUMPI DUP5 DUP10 ADD MLOAD DUP3 SSTORE PUSH1 0x1 DUP3 ADD SWAP2 POP PUSH1 0x20 DUP6 ADD SWAP5 POP PUSH1 0x20 DUP2 ADD SWAP1 POP PUSH2 0x284B JUMP JUMPDEST DUP7 DUP4 LT ISZERO PUSH2 0x288D JUMPI DUP5 DUP10 ADD MLOAD PUSH2 0x2889 PUSH1 0x1F DUP10 AND DUP3 PUSH2 0x263A JUMP JUMPDEST DUP4 SSTORE POP JUMPDEST PUSH1 0x1 PUSH1 0x2 DUP9 MUL ADD DUP9 SSTORE POP POP POP JUMPDEST POP POP POP POP POP POP JUMP JUMPDEST PUSH32 0x4E487B7100000000000000000000000000000000000000000000000000000000 PUSH0 MSTORE PUSH1 0x11 PUSH1 0x4 MSTORE PUSH1 0x24 PUSH0 REVERT JUMPDEST PUSH0 PUSH2 0x28D9 DUP3 PUSH2 0x1AD9 JUMP JUMPDEST SWAP2 POP PUSH32 0xFFFFFFFFFFFFFFFFFFFFFFFFFFFFFFFFFFFFFFFFFFFFFFFFFFFFFFFFFFFFFFFF DUP3 SUB PUSH2 0x290B JUMPI PUSH2 0x290A PUSH2 0x28A2 JUMP JUMPDEST JUMPDEST PUSH1 0x1 DUP3 ADD SWAP1 POP SWAP2 SWAP1 POP JUMP JUMPDEST PUSH32 0x4F6E6C79203320656475636174696F6E20616C6C6F7765640000000000000000 PUSH0 DUP3 ADD MSTORE POP JUMP JUMPDEST PUSH0 PUSH2 0x294A PUSH1 0x18 DUP4 PUSH2 0x1B50 JUMP JUMPDEST SWAP2 POP PUSH2 0x2955 DUP3 PUSH2 0x2916 JUMP JUMPDEST PUSH1 0x20 DUP3 ADD SWAP1 POP SWAP2 SWAP1 POP JUMP JUMPDEST PUSH0 PUSH1 0x20 DUP3 ADD SWAP1 POP DUP2 DUP2 SUB PUSH0 DUP4 ADD MSTORE PUSH2 0x2977 DUP2 PUSH2 0x293E JUMP JUMPDEST SWAP1 POP SWAP2 SWAP1 POP JUMP INVALID LOG2 PUSH5 0x6970667358 0x22 SLT KECCAK256 XOR 0x4B DUP11 0x4E 0xF6 0xE3 PUSH0 CALLER SWAP16 MCOPY 0xB8 0xF9 ISZERO PUSH8 0xD581134244744CA3 0xDA SHL CODECOPY BLOBHASH SSTORE 0x2F 0xD5 DUP8 PUSH13 0xFA64736F6C634300081A003348 PUSH6 0x6C6C6F212049 0x27 PUSH14 0x204468727576696C204B61736F64 PUSH2 0x7269 PUSH26 0x612C20612070617373696F6E61746520646576656C6F70657220 PUSH24 0x69746820657870657269656E636520696E2072656163742E PUSH11 0x73202C6E6F64652E6A7320 0x2C PUSH15 0x6578742E6A73202C736F6C69646974 PUSH26 0x2E6261666B726569686F35793766767179337279366A6D6D6F61 CALLDATACOPY CALLDATASIZE CALLDATACOPY PUSH18 0x3476746E64766F336E6C707A32616A687233 PUSH24 0x766B73646368367A3275796261666B72656961796363356F PUSH27 0x336F6C33336B756661796E65326D666A756E736C73637176366E69 PUSH24 0x696D676B766E6C37333463366B7A64626D00000000000000 "
				},
				"gasEstimates": {
					"creation": {
						"codeDepositCost": "2135200",
						"executionCost": "infinite",
						"totalCost": "infinite"
					},
					"external": {
						"allEduction()": "infinite",
						"allProject()": "infinite",
						"changeDescription(string)": "infinite",
						"changeEduction(string,string,string,uint256)": "infinite",
						"changeImageLink(string)": "infinite",
						"changeProject(string,string,string,string,uint256)": "infinite",
						"changeResumeLink(string)": "infinite",
						"description()": "infinite",
						"donate()": "infinite",
						"educationDetails(uint256)": "infinite",
						"imageLink()": "infinite",
						"insertEduction(string,string,string)": "infinite",
						"insertProject(string,string,string,string)": "infinite",
						"manager()": "2554",
						"projects(uint256)": "infinite",
						"resumeLink()": "infinite"
					}
				},
				"methodIdentifiers": {
					"allEduction()": "a32ac35d",
					"allProject()": "fe47e03e",
					"changeDescription(string)": "e6120413",
					"changeEduction(string,string,string,uint256)": "bb33086f",
					"changeImageLink(string)": "598e7f37",
					"changeProject(string,string,string,string,uint256)": "6fe8e0bd",
					"changeResumeLink(string)": "d3cedf11",
					"description()": "7284e416",
					"donate()": "ed88c68e",
					"educationDetails(uint256)": "7aea95aa",
					"imageLink()": "caf7b759",
					"insertEduction(string,string,string)": "e3763bcb",
					"insertProject(string,string,string,string)": "6426d4c3",
					"manager()": "481c6a75",
					"projects(uint256)": "107046bd",
					"resumeLink()": "5cea6a7c"
				}
			},
			"storageLayout": {
				"storage": [
					{
						"astId": 26,
						"contract": "Portfolio.sol:Portfolio",
						"label": "projects",
						"offset": 0,
						"slot": "0",
						"type": "t_array(t_struct(Project)12_storage)3_storage"
					},
					{
						"astId": 31,
						"contract": "Portfolio.sol:Portfolio",
						"label": "educationDetails",
						"offset": 0,
						"slot": "15",
						"type": "t_array(t_struct(Education)21_storage)3_storage"
					},
					{
						"astId": 34,
						"contract": "Portfolio.sol:Portfolio",
						"label": "imageLink",
						"offset": 0,
						"slot": "27",
						"type": "t_string_storage"
					},
					{
						"astId": 37,
						"contract": "Portfolio.sol:Portfolio",
						"label": "resumeLink",
						"offset": 0,
						"slot": "28",
						"type": "t_string_storage"
					},
					{
						"astId": 40,
						"contract": "Portfolio.sol:Portfolio",
						"label": "description",
						"offset": 0,
						"slot": "29",
						"type": "t_string_storage"
					},
					{
						"astId": 42,
						"contract": "Portfolio.sol:Portfolio",
						"label": "projectCount",
						"offset": 0,
						"slot": "30",
						"type": "t_uint256"
					},
					{
						"astId": 44,
						"contract": "Portfolio.sol:Portfolio",
						"label": "educationCount",
						"offset": 0,
						"slot": "31",
						"type": "t_uint256"
					},
					{
						"astId": 46,
						"contract": "Portfolio.sol:Portfolio",
						"label": "manager",
						"offset": 0,
						"slot": "32",
						"type": "t_address"
					}
				],
				"types": {
					"t_address": {
						"encoding": "inplace",
						"label": "address",
						"numberOfBytes": "20"
					},
					"t_array(t_struct(Education)21_storage)3_storage": {
						"base": "t_struct(Education)21_storage",
						"encoding": "inplace",
						"label": "struct Portfolio.Education[3]",
						"numberOfBytes": "384"
					},
					"t_array(t_struct(Project)12_storage)3_storage": {
						"base": "t_struct(Project)12_storage",
						"encoding": "inplace",
						"label": "struct Portfolio.Project[3]",
						"numberOfBytes": "480"
					},
					"t_string_storage": {
						"encoding": "bytes",
						"label": "string",
						"numberOfBytes": "32"
					},
					"t_struct(Education)21_storage": {
						"encoding": "inplace",
						"label": "struct Portfolio.Education",
						"members": [
							{
								"astId": 14,
								"contract": "Portfolio.sol:Portfolio",
								"label": "id",
								"offset": 0,
								"slot": "0",
								"type": "t_uint256"
							},
							{
								"astId": 16,
								"contract": "Portfolio.sol:Portfolio",
								"label": "date",
								"offset": 0,
								"slot": "1",
								"type": "t_string_storage"
							},
							{
								"astId": 18,
								"contract": "Portfolio.sol:Portfolio",
								"label": "degree",
								"offset": 0,
								"slot": "2",
								"type": "t_string_storage"
							},
							{
								"astId": 20,
								"contract": "Portfolio.sol:Portfolio",
								"label": "instutionName",
								"offset": 0,
								"slot": "3",
								"type": "t_string_storage"
							}
						],
						"numberOfBytes": "128"
					},
					"t_struct(Project)12_storage": {
						"encoding": "inplace",
						"label": "struct Portfolio.Project",
						"members": [
							{
								"astId": 3,
								"contract": "Portfolio.sol:Portfolio",
								"label": "id",
								"offset": 0,
								"slot": "0",
								"type": "t_uint256"
							},
							{
								"astId": 5,
								"contract": "Portfolio.sol:Portfolio",
								"label": "name",
								"offset": 0,
								"slot": "1",
								"type": "t_string_storage"
							},
							{
								"astId": 7,
								"contract": "Portfolio.sol:Portfolio",
								"label": "description",
								"offset": 0,
								"slot": "2",
								"type": "t_string_storage"
							},
							{
								"astId": 9,
								"contract": "Portfolio.sol:Portfolio",
								"label": "image",
								"offset": 0,
								"slot": "3",
								"type": "t_string_storage"
							},
							{
								"astId": 11,
								"contract": "Portfolio.sol:Portfolio",
								"label": "githubLink",
								"offset": 0,
								"slot": "4",
								"type": "t_string_storage"
							}
						],
						"numberOfBytes": "160"
					},
					"t_uint256": {
						"encoding": "inplace",
						"label": "uint256",
						"numberOfBytes": "32"
					}
				}
			},
			"userdoc": {
				"kind": "user",
				"methods": {},
				"version": 1
			}
		}
	}
}