{
	"Calculator.sol": {
		"Calculator": {
			"abi": [
				{
					"inputs": [
						{
							"internalType": "int256",
							"name": "a",
							"type": "int256"
						},
						{
							"internalType": "int256",
							"name": "b",
							"type": "int256"
						}
					],
					"name": "addition",
					"outputs": [
						{
							"internalType": "int256",
							"name": "",
							"type": "int256"
						}
					],
					"stateMutability": "pure",
					"type": "function"
				},
				{
					"inputs": [
						{
							"internalType": "int256",
							"name": "a",
							"type": "int256"
						},
						{
							"internalType": "int256",
							"name": "b",
							"type": "int256"
						}
					],
					"name": "division",
					"outputs": [
						{
							"internalType": "int256",
							"name": "",
							"type": "int256"
						}
					],
					"stateMutability": "pure",
					"type": "function"
				},
				{
					"inputs": [
						{
							"internalType": "int256",
							"name": "a",
							"type": "int256"
						},
						{
							"internalType": "int256",
							"name": "b",
							"type": "int256"
						}
					],
					"name": "multiplication",
					"outputs": [
						{
							"internalType": "int256",
							"name": "",
							"type": "int256"
						}
					],
					"stateMutability": "pure",
					"type": "function"
				},
				{
					"inputs": [
						{
							"internalType": "int256",
							"name": "a",
							"type": "int256"
						},
						{
							"internalType": "int256",
							"name": "b",
							"type": "int256"
						}
					],
					"name": "subtraction",
					"outputs": [
						{
							"internalType": "int256",
							"name": "",
							"type": "int256"
						}
					],
					"stateMutability": "pure",
					"type": "function"
				}
			],
			"devdoc": {
				"kind": "dev",
				"methods": {},
				"version": 1
			},
			"evm": {
				"assembly": "    /* \"Calculator.sol\":57:461  contract Calculator{... */\n  mstore(0x40, 0x80)\n  callvalue\n  dup1\n  iszero\n  tag_1\n  jumpi\n  0x00\n  dup1\n  revert\ntag_1:\n  pop\n  dataSize(sub_0)\n  dup1\n  dataOffset(sub_0)\n  0x00\n  codecopy\n  0x00\n  return\nstop\n\nsub_0: assembly {\n        /* \"Calculator.sol\":57:461  contract Calculator{... */\n      mstore(0x40, 0x80)\n      callvalue\n      dup1\n      iszero\n      tag_1\n      jumpi\n      0x00\n      dup1\n      revert\n    tag_1:\n      pop\n      jumpi(tag_2, lt(calldatasize, 0x04))\n      shr(0xe0, calldataload(0x00))\n      dup1\n      0x09b7cdda\n      eq\n      tag_3\n      jumpi\n      dup1\n      0x3b904fd9\n      eq\n      tag_4\n      jumpi\n      dup1\n      0x609e076f\n      eq\n      tag_5\n      jumpi\n      dup1\n      0xc2d85baf\n      eq\n      tag_6\n      jumpi\n    tag_2:\n      0x00\n      dup1\n      revert\n        /* \"Calculator.sol\":325:458  function division(int a ,int b) public pure returns (int) {... */\n    tag_3:\n      tag_7\n      0x04\n      dup1\n      calldatasize\n      sub\n      dup2\n      add\n      swap1\n      tag_8\n      swap2\n      swap1\n      tag_9\n      jump\t// in\n    tag_8:\n      tag_10\n      jump\t// in\n    tag_7:\n      mload(0x40)\n      tag_11\n      swap2\n      swap1\n      tag_12\n      jump\t// in\n    tag_11:\n      mload(0x40)\n      dup1\n      swap2\n      sub\n      swap1\n      return\n        /* \"Calculator.sol\":240:323  function multiplication(int a ,int b) public pure returns (int) {... */\n    tag_4:\n      tag_13\n      0x04\n      dup1\n      calldatasize\n      sub\n      dup2\n      add\n      swap1\n      tag_14\n      swap2\n      swap1\n      tag_9\n      jump\t// in\n    tag_14:\n      tag_15\n      jump\t// in\n    tag_13:\n      mload(0x40)\n      tag_16\n      swap2\n      swap1\n      tag_12\n      jump\t// in\n    tag_16:\n      mload(0x40)\n      dup1\n      swap2\n      sub\n      swap1\n      return\n        /* \"Calculator.sol\":158:238  function subtraction(int a ,int b) public pure returns (int) {... */\n    tag_5:\n      tag_17\n      0x04\n      dup1\n      calldatasize\n      sub\n      dup2\n      add\n      swap1\n      tag_18\n      swap2\n      swap1\n      tag_9\n      jump\t// in\n    tag_18:\n      tag_19\n      jump\t// in\n    tag_17:\n      mload(0x40)\n      tag_20\n      swap2\n      swap1\n      tag_12\n      jump\t// in\n    tag_20:\n      mload(0x40)\n      dup1\n      swap2\n      sub\n      swap1\n      return\n        /* \"Calculator.sol\":79:156  function addition(int a ,int b) public pure returns (int) {... */\n    tag_6:\n      tag_21\n      0x04\n      dup1\n      calldatasize\n      sub\n      dup2\n      add\n      swap1\n      tag_22\n      swap2\n      swap1\n      tag_9\n      jump\t// in\n    tag_22:\n      tag_23\n      jump\t// in\n    tag_21:\n      mload(0x40)\n      tag_24\n      swap2\n      swap1\n      tag_12\n      jump\t// in\n    tag_24:\n      mload(0x40)\n      dup1\n      swap2\n      sub\n      swap1\n      return\n        /* \"Calculator.sol\":325:458  function division(int a ,int b) public pure returns (int) {... */\n    tag_10:\n        /* \"Calculator.sol\":378:381  int */\n      0x00\n        /* \"Calculator.sol\":402:403  0 */\n      dup1\n        /* \"Calculator.sol\":397:398  b */\n      dup3\n        /* \"Calculator.sol\":397:403  b != 0 */\n      sub\n        /* \"Calculator.sol\":389:439  require(b != 0 ,\"Division by zero is not allowed\") */\n      tag_26\n      jumpi\n      mload(0x40)\n      0x08c379a000000000000000000000000000000000000000000000000000000000\n      dup2\n      mstore\n      0x04\n      add\n      tag_27\n      swap1\n      tag_28\n      jump\t// in\n    tag_27:\n      mload(0x40)\n      dup1\n      swap2\n      sub\n      swap1\n      revert\n    tag_26:\n        /* \"Calculator.sol\":454:455  b */\n      dup2\n        /* \"Calculator.sol\":452:453  a */\n      dup4\n        /* \"Calculator.sol\":452:455  a/b */\n      tag_29\n      swap2\n      swap1\n      tag_30\n      jump\t// in\n    tag_29:\n        /* \"Calculator.sol\":445:455  return a/b */\n      swap1\n      pop\n        /* \"Calculator.sol\":325:458  function division(int a ,int b) public pure returns (int) {... */\n      swap3\n      swap2\n      pop\n      pop\n      jump\t// out\n        /* \"Calculator.sol\":240:323  function multiplication(int a ,int b) public pure returns (int) {... */\n    tag_15:\n        /* \"Calculator.sol\":299:302  int */\n      0x00\n        /* \"Calculator.sol\":319:320  b */\n      dup2\n        /* \"Calculator.sol\":317:318  a */\n      dup4\n        /* \"Calculator.sol\":317:320  a*b */\n      tag_32\n      swap2\n      swap1\n      tag_33\n      jump\t// in\n    tag_32:\n        /* \"Calculator.sol\":310:320  return a*b */\n      swap1\n      pop\n        /* \"Calculator.sol\":240:323  function multiplication(int a ,int b) public pure returns (int) {... */\n      swap3\n      swap2\n      pop\n      pop\n      jump\t// out\n        /* \"Calculator.sol\":158:238  function subtraction(int a ,int b) public pure returns (int) {... */\n    tag_19:\n        /* \"Calculator.sol\":214:217  int */\n      0x00\n        /* \"Calculator.sol\":234:235  b */\n      dup2\n        /* \"Calculator.sol\":232:233  a */\n      dup4\n        /* \"Calculator.sol\":232:235  a-b */\n      tag_35\n      swap2\n      swap1\n      tag_36\n      jump\t// in\n    tag_35:\n        /* \"Calculator.sol\":225:235  return a-b */\n      swap1\n      pop\n        /* \"Calculator.sol\":158:238  function subtraction(int a ,int b) public pure returns (int) {... */\n      swap3\n      swap2\n      pop\n      pop\n      jump\t// out\n        /* \"Calculator.sol\":79:156  function addition(int a ,int b) public pure returns (int) {... */\n    tag_23:\n        /* \"Calculator.sol\":132:135  int */\n      0x00\n        /* \"Calculator.sol\":152:153  b */\n      dup2\n        /* \"Calculator.sol\":150:151  a */\n      dup4\n        /* \"Calculator.sol\":150:153  a+b */\n      tag_38\n      swap2\n      swap1\n      tag_39\n      jump\t// in\n    tag_38:\n        /* \"Calculator.sol\":143:153  return a+b */\n      swap1\n      pop\n        /* \"Calculator.sol\":79:156  function addition(int a ,int b) public pure returns (int) {... */\n      swap3\n      swap2\n      pop\n      pop\n      jump\t// out\n        /* \"#utility.yul\":88:205   */\n    tag_41:\n        /* \"#utility.yul\":197:198   */\n      0x00\n        /* \"#utility.yul\":194:195   */\n      dup1\n        /* \"#utility.yul\":187:199   */\n      revert\n        /* \"#utility.yul\":334:410   */\n    tag_43:\n        /* \"#utility.yul\":370:377   */\n      0x00\n        /* \"#utility.yul\":399:404   */\n      dup2\n        /* \"#utility.yul\":388:404   */\n      swap1\n      pop\n        /* \"#utility.yul\":334:410   */\n      swap2\n      swap1\n      pop\n      jump\t// out\n        /* \"#utility.yul\":416:536   */\n    tag_44:\n        /* \"#utility.yul\":488:511   */\n      tag_58\n        /* \"#utility.yul\":505:510   */\n      dup2\n        /* \"#utility.yul\":488:511   */\n      tag_43\n      jump\t// in\n    tag_58:\n        /* \"#utility.yul\":481:486   */\n      dup2\n        /* \"#utility.yul\":478:512   */\n      eq\n        /* \"#utility.yul\":468:530   */\n      tag_59\n      jumpi\n        /* \"#utility.yul\":526:527   */\n      0x00\n        /* \"#utility.yul\":523:524   */\n      dup1\n        /* \"#utility.yul\":516:528   */\n      revert\n        /* \"#utility.yul\":468:530   */\n    tag_59:\n        /* \"#utility.yul\":416:536   */\n      pop\n      jump\t// out\n        /* \"#utility.yul\":542:679   */\n    tag_45:\n        /* \"#utility.yul\":587:592   */\n      0x00\n        /* \"#utility.yul\":625:631   */\n      dup2\n        /* \"#utility.yul\":612:632   */\n      calldataload\n        /* \"#utility.yul\":603:632   */\n      swap1\n      pop\n        /* \"#utility.yul\":641:673   */\n      tag_61\n        /* \"#utility.yul\":667:672   */\n      dup2\n        /* \"#utility.yul\":641:673   */\n      tag_44\n      jump\t// in\n    tag_61:\n        /* \"#utility.yul\":542:679   */\n      swap3\n      swap2\n      pop\n      pop\n      jump\t// out\n        /* \"#utility.yul\":685:1155   */\n    tag_9:\n        /* \"#utility.yul\":751:757   */\n      0x00\n        /* \"#utility.yul\":759:765   */\n      dup1\n        /* \"#utility.yul\":808:810   */\n      0x40\n        /* \"#utility.yul\":796:805   */\n      dup4\n        /* \"#utility.yul\":787:794   */\n      dup6\n        /* \"#utility.yul\":783:806   */\n      sub\n        /* \"#utility.yul\":779:811   */\n      slt\n        /* \"#utility.yul\":776:895   */\n      iszero\n      tag_63\n      jumpi\n        /* \"#utility.yul\":814:893   */\n      tag_64\n      tag_41\n      jump\t// in\n    tag_64:\n        /* \"#utility.yul\":776:895   */\n    tag_63:\n        /* \"#utility.yul\":934:935   */\n      0x00\n        /* \"#utility.yul\":959:1011   */\n      tag_65\n        /* \"#utility.yul\":1003:1010   */\n      dup6\n        /* \"#utility.yul\":994:1000   */\n      dup3\n        /* \"#utility.yul\":983:992   */\n      dup7\n        /* \"#utility.yul\":979:1001   */\n      add\n        /* \"#utility.yul\":959:1011   */\n      tag_45\n      jump\t// in\n    tag_65:\n        /* \"#utility.yul\":949:1011   */\n      swap3\n      pop\n        /* \"#utility.yul\":905:1021   */\n      pop\n        /* \"#utility.yul\":1060:1062   */\n      0x20\n        /* \"#utility.yul\":1086:1138   */\n      tag_66\n        /* \"#utility.yul\":1130:1137   */\n      dup6\n        /* \"#utility.yul\":1121:1127   */\n      dup3\n        /* \"#utility.yul\":1110:1119   */\n      dup7\n        /* \"#utility.yul\":1106:1128   */\n      add\n        /* \"#utility.yul\":1086:1138   */\n      tag_45\n      jump\t// in\n    tag_66:\n        /* \"#utility.yul\":1076:1138   */\n      swap2\n      pop\n        /* \"#utility.yul\":1031:1148   */\n      pop\n        /* \"#utility.yul\":685:1155   */\n      swap3\n      pop\n      swap3\n      swap1\n      pop\n      jump\t// out\n        /* \"#utility.yul\":1161:1276   */\n    tag_46:\n        /* \"#utility.yul\":1246:1269   */\n      tag_68\n        /* \"#utility.yul\":1263:1268   */\n      dup2\n        /* \"#utility.yul\":1246:1269   */\n      tag_43\n      jump\t// in\n    tag_68:\n        /* \"#utility.yul\":1241:1244   */\n      dup3\n        /* \"#utility.yul\":1234:1270   */\n      mstore\n        /* \"#utility.yul\":1161:1276   */\n      pop\n      pop\n      jump\t// out\n        /* \"#utility.yul\":1282:1500   */\n    tag_12:\n        /* \"#utility.yul\":1373:1377   */\n      0x00\n        /* \"#utility.yul\":1411:1413   */\n      0x20\n        /* \"#utility.yul\":1400:1409   */\n      dup3\n        /* \"#utility.yul\":1396:1414   */\n      add\n        /* \"#utility.yul\":1388:1414   */\n      swap1\n      pop\n        /* \"#utility.yul\":1424:1493   */\n      tag_70\n        /* \"#utility.yul\":1490:1491   */\n      0x00\n        /* \"#utility.yul\":1479:1488   */\n      dup4\n        /* \"#utility.yul\":1475:1492   */\n      add\n        /* \"#utility.yul\":1466:1472   */\n      dup5\n        /* \"#utility.yul\":1424:1493   */\n      tag_46\n      jump\t// in\n    tag_70:\n        /* \"#utility.yul\":1282:1500   */\n      swap3\n      swap2\n      pop\n      pop\n      jump\t// out\n        /* \"#utility.yul\":1506:1675   */\n    tag_47:\n        /* \"#utility.yul\":1590:1601   */\n      0x00\n        /* \"#utility.yul\":1624:1630   */\n      dup3\n        /* \"#utility.yul\":1619:1622   */\n      dup3\n        /* \"#utility.yul\":1612:1631   */\n      mstore\n        /* \"#utility.yul\":1664:1668   */\n      0x20\n        /* \"#utility.yul\":1659:1662   */\n      dup3\n        /* \"#utility.yul\":1655:1669   */\n      add\n        /* \"#utility.yul\":1640:1669   */\n      swap1\n      pop\n        /* \"#utility.yul\":1506:1675   */\n      swap3\n      swap2\n      pop\n      pop\n      jump\t// out\n        /* \"#utility.yul\":1681:1862   */\n    tag_48:\n        /* \"#utility.yul\":1821:1854   */\n      0x4469766973696f6e206279207a65726f206973206e6f7420616c6c6f77656400\n        /* \"#utility.yul\":1817:1818   */\n      0x00\n        /* \"#utility.yul\":1809:1815   */\n      dup3\n        /* \"#utility.yul\":1805:1819   */\n      add\n        /* \"#utility.yul\":1798:1855   */\n      mstore\n        /* \"#utility.yul\":1681:1862   */\n      pop\n      jump\t// out\n        /* \"#utility.yul\":1868:2234   */\n    tag_49:\n        /* \"#utility.yul\":2010:2013   */\n      0x00\n        /* \"#utility.yul\":2031:2098   */\n      tag_74\n        /* \"#utility.yul\":2095:2097   */\n      0x1f\n        /* \"#utility.yul\":2090:2093   */\n      dup4\n        /* \"#utility.yul\":2031:2098   */\n      tag_47\n      jump\t// in\n    tag_74:\n        /* \"#utility.yul\":2024:2098   */\n      swap2\n      pop\n        /* \"#utility.yul\":2107:2200   */\n      tag_75\n        /* \"#utility.yul\":2196:2199   */\n      dup3\n        /* \"#utility.yul\":2107:2200   */\n      tag_48\n      jump\t// in\n    tag_75:\n        /* \"#utility.yul\":2225:2227   */\n      0x20\n        /* \"#utility.yul\":2220:2223   */\n      dup3\n        /* \"#utility.yul\":2216:2228   */\n      add\n        /* \"#utility.yul\":2209:2228   */\n      swap1\n      pop\n        /* \"#utility.yul\":1868:2234   */\n      swap2\n      swap1\n      pop\n      jump\t// out\n        /* \"#utility.yul\":2240:2659   */\n    tag_28:\n        /* \"#utility.yul\":2406:2410   */\n      0x00\n        /* \"#utility.yul\":2444:2446   */\n      0x20\n        /* \"#utility.yul\":2433:2442   */\n      dup3\n        /* \"#utility.yul\":2429:2447   */\n      add\n        /* \"#utility.yul\":2421:2447   */\n      swap1\n      pop\n        /* \"#utility.yul\":2493:2502   */\n      dup2\n        /* \"#utility.yul\":2487:2491   */\n      dup2\n        /* \"#utility.yul\":2483:2503   */\n      sub\n        /* \"#utility.yul\":2479:2480   */\n      0x00\n        /* \"#utility.yul\":2468:2477   */\n      dup4\n        /* \"#utility.yul\":2464:2481   */\n      add\n        /* \"#utility.yul\":2457:2504   */\n      mstore\n        /* \"#utility.yul\":2521:2652   */\n      tag_77\n        /* \"#utility.yul\":2647:2651   */\n      dup2\n        /* \"#utility.yul\":2521:2652   */\n      tag_49\n      jump\t// in\n    tag_77:\n        /* \"#utility.yul\":2513:2652   */\n      swap1\n      pop\n        /* \"#utility.yul\":2240:2659   */\n      swap2\n      swap1\n      pop\n      jump\t// out\n        /* \"#utility.yul\":2665:2845   */\n    tag_50:\n        /* \"#utility.yul\":2713:2790   */\n      0x4e487b7100000000000000000000000000000000000000000000000000000000\n        /* \"#utility.yul\":2710:2711   */\n      0x00\n        /* \"#utility.yul\":2703:2791   */\n      mstore\n        /* \"#utility.yul\":2810:2814   */\n      0x12\n        /* \"#utility.yul\":2807:2808   */\n      0x04\n        /* \"#utility.yul\":2800:2815   */\n      mstore\n        /* \"#utility.yul\":2834:2838   */\n      0x24\n        /* \"#utility.yul\":2831:2832   */\n      0x00\n        /* \"#utility.yul\":2824:2839   */\n      revert\n        /* \"#utility.yul\":2851:3031   */\n    tag_51:\n        /* \"#utility.yul\":2899:2976   */\n      0x4e487b7100000000000000000000000000000000000000000000000000000000\n        /* \"#utility.yul\":2896:2897   */\n      0x00\n        /* \"#utility.yul\":2889:2977   */\n      mstore\n        /* \"#utility.yul\":2996:3000   */\n      0x11\n        /* \"#utility.yul\":2993:2994   */\n      0x04\n        /* \"#utility.yul\":2986:3001   */\n      mstore\n        /* \"#utility.yul\":3020:3024   */\n      0x24\n        /* \"#utility.yul\":3017:3018   */\n      0x00\n        /* \"#utility.yul\":3010:3025   */\n      revert\n        /* \"#utility.yul\":3037:3422   */\n    tag_30:\n        /* \"#utility.yul\":3076:3077   */\n      0x00\n        /* \"#utility.yul\":3093:3112   */\n      tag_81\n        /* \"#utility.yul\":3110:3111   */\n      dup3\n        /* \"#utility.yul\":3093:3112   */\n      tag_43\n      jump\t// in\n    tag_81:\n        /* \"#utility.yul\":3088:3112   */\n      swap2\n      pop\n        /* \"#utility.yul\":3126:3145   */\n      tag_82\n        /* \"#utility.yul\":3143:3144   */\n      dup4\n        /* \"#utility.yul\":3126:3145   */\n      tag_43\n      jump\t// in\n    tag_82:\n        /* \"#utility.yul\":3121:3145   */\n      swap3\n      pop\n        /* \"#utility.yul\":3164:3165   */\n      dup3\n        /* \"#utility.yul\":3154:3189   */\n      tag_83\n      jumpi\n        /* \"#utility.yul\":3169:3187   */\n      tag_84\n      tag_50\n      jump\t// in\n    tag_84:\n        /* \"#utility.yul\":3154:3189   */\n    tag_83:\n        /* \"#utility.yul\":3355:3356   */\n      0x01\n        /* \"#utility.yul\":3352:3353   */\n      0x00\n        /* \"#utility.yul\":3348:3357   */\n      sub\n        /* \"#utility.yul\":3345:3346   */\n      dup4\n        /* \"#utility.yul\":3342:3358   */\n      eq\n        /* \"#utility.yul\":3261:3327   */\n      0x8000000000000000000000000000000000000000000000000000000000000000\n        /* \"#utility.yul\":3258:3259   */\n      dup4\n        /* \"#utility.yul\":3255:3328   */\n      eq\n        /* \"#utility.yul\":3238:3368   */\n      and\n        /* \"#utility.yul\":3235:3391   */\n      iszero\n      tag_85\n      jumpi\n        /* \"#utility.yul\":3371:3389   */\n      tag_86\n      tag_51\n      jump\t// in\n    tag_86:\n        /* \"#utility.yul\":3235:3391   */\n    tag_85:\n        /* \"#utility.yul\":3414:3415   */\n      dup3\n        /* \"#utility.yul\":3411:3412   */\n      dup3\n        /* \"#utility.yul\":3406:3416   */\n      sdiv\n        /* \"#utility.yul\":3401:3416   */\n      swap1\n      pop\n        /* \"#utility.yul\":3037:3422   */\n      swap3\n      swap2\n      pop\n      pop\n      jump\t// out\n        /* \"#utility.yul\":3428:3984   */\n    tag_33:\n        /* \"#utility.yul\":3467:3474   */\n      0x00\n        /* \"#utility.yul\":3490:3509   */\n      tag_88\n        /* \"#utility.yul\":3507:3508   */\n      dup3\n        /* \"#utility.yul\":3490:3509   */\n      tag_43\n      jump\t// in\n    tag_88:\n        /* \"#utility.yul\":3485:3509   */\n      swap2\n      pop\n        /* \"#utility.yul\":3523:3542   */\n      tag_89\n        /* \"#utility.yul\":3540:3541   */\n      dup4\n        /* \"#utility.yul\":3523:3542   */\n      tag_43\n      jump\t// in\n    tag_89:\n        /* \"#utility.yul\":3518:3542   */\n      swap3\n      pop\n        /* \"#utility.yul\":3577:3578   */\n      dup3\n        /* \"#utility.yul\":3574:3575   */\n      dup3\n        /* \"#utility.yul\":3570:3579   */\n      mul\n        /* \"#utility.yul\":3599:3628   */\n      tag_90\n        /* \"#utility.yul\":3616:3627   */\n      dup2\n        /* \"#utility.yul\":3599:3628   */\n      tag_43\n      jump\t// in\n    tag_90:\n        /* \"#utility.yul\":3588:3628   */\n      swap2\n      pop\n        /* \"#utility.yul\":3686:3752   */\n      0x8000000000000000000000000000000000000000000000000000000000000000\n        /* \"#utility.yul\":3683:3684   */\n      dup5\n        /* \"#utility.yul\":3680:3753   */\n      eq\n        /* \"#utility.yul\":3676:3677   */\n      0x00\n        /* \"#utility.yul\":3673:3674   */\n      dup5\n        /* \"#utility.yul\":3669:3678   */\n      slt\n        /* \"#utility.yul\":3665:3754   */\n      and\n        /* \"#utility.yul\":3662:3777   */\n      iszero\n      tag_91\n      jumpi\n        /* \"#utility.yul\":3757:3775   */\n      tag_92\n      tag_51\n      jump\t// in\n    tag_92:\n        /* \"#utility.yul\":3662:3777   */\n    tag_91:\n        /* \"#utility.yul\":3927:3928   */\n      dup3\n        /* \"#utility.yul\":3918:3925   */\n      dup3\n        /* \"#utility.yul\":3913:3929   */\n      sdiv\n        /* \"#utility.yul\":3910:3911   */\n      dup5\n        /* \"#utility.yul\":3907:3930   */\n      eq\n        /* \"#utility.yul\":3887:3888   */\n      dup4\n        /* \"#utility.yul\":3880:3889   */\n      iszero\n        /* \"#utility.yul\":3860:3944   */\n      or\n        /* \"#utility.yul\":3837:3977   */\n      tag_93\n      jumpi\n        /* \"#utility.yul\":3957:3975   */\n      tag_94\n      tag_51\n      jump\t// in\n    tag_94:\n        /* \"#utility.yul\":3837:3977   */\n    tag_93:\n        /* \"#utility.yul\":3475:3984   */\n      pop\n        /* \"#utility.yul\":3428:3984   */\n      swap3\n      swap2\n      pop\n      pop\n      jump\t// out\n        /* \"#utility.yul\":3990:4362   */\n    tag_36:\n        /* \"#utility.yul\":4029:4033   */\n      0x00\n        /* \"#utility.yul\":4049:4068   */\n      tag_96\n        /* \"#utility.yul\":4066:4067   */\n      dup3\n        /* \"#utility.yul\":4049:4068   */\n      tag_43\n      jump\t// in\n    tag_96:\n        /* \"#utility.yul\":4044:4068   */\n      swap2\n      pop\n        /* \"#utility.yul\":4082:4101   */\n      tag_97\n        /* \"#utility.yul\":4099:4100   */\n      dup4\n        /* \"#utility.yul\":4082:4101   */\n      tag_43\n      jump\t// in\n    tag_97:\n        /* \"#utility.yul\":4077:4101   */\n      swap3\n      pop\n        /* \"#utility.yul\":4125:4126   */\n      dup3\n        /* \"#utility.yul\":4122:4123   */\n      dup3\n        /* \"#utility.yul\":4118:4127   */\n      sub\n        /* \"#utility.yul\":4110:4127   */\n      swap1\n      pop\n        /* \"#utility.yul\":4319:4320   */\n      dup2\n        /* \"#utility.yul\":4313:4317   */\n      dup2\n        /* \"#utility.yul\":4309:4321   */\n      slt\n        /* \"#utility.yul\":4305:4306   */\n      0x00\n        /* \"#utility.yul\":4302:4303   */\n      dup5\n        /* \"#utility.yul\":4298:4307   */\n      slt\n        /* \"#utility.yul\":4294:4322   */\n      and\n        /* \"#utility.yul\":4277:4278   */\n      dup3\n        /* \"#utility.yul\":4271:4275   */\n      dup3\n        /* \"#utility.yul\":4267:4279   */\n      sgt\n        /* \"#utility.yul\":4262:4263   */\n      0x00\n        /* \"#utility.yul\":4259:4260   */\n      dup6\n        /* \"#utility.yul\":4255:4264   */\n      slt\n        /* \"#utility.yul\":4248:4265   */\n      iszero\n        /* \"#utility.yul\":4244:4280   */\n      and\n        /* \"#utility.yul\":4228:4332   */\n      or\n        /* \"#utility.yul\":4225:4355   */\n      iszero\n      tag_98\n      jumpi\n        /* \"#utility.yul\":4335:4353   */\n      tag_99\n      tag_51\n      jump\t// in\n    tag_99:\n        /* \"#utility.yul\":4225:4355   */\n    tag_98:\n        /* \"#utility.yul\":3990:4362   */\n      swap3\n      swap2\n      pop\n      pop\n      jump\t// out\n        /* \"#utility.yul\":4368:4743   */\n    tag_39:\n        /* \"#utility.yul\":4407:4410   */\n      0x00\n        /* \"#utility.yul\":4426:4445   */\n      tag_101\n        /* \"#utility.yul\":4443:4444   */\n      dup3\n        /* \"#utility.yul\":4426:4445   */\n      tag_43\n      jump\t// in\n    tag_101:\n        /* \"#utility.yul\":4421:4445   */\n      swap2\n      pop\n        /* \"#utility.yul\":4459:4478   */\n      tag_102\n        /* \"#utility.yul\":4476:4477   */\n      dup4\n        /* \"#utility.yul\":4459:4478   */\n      tag_43\n      jump\t// in\n    tag_102:\n        /* \"#utility.yul\":4454:4478   */\n      swap3\n      pop\n        /* \"#utility.yul\":4501:4502   */\n      dup3\n        /* \"#utility.yul\":4498:4499   */\n      dup3\n        /* \"#utility.yul\":4494:4503   */\n      add\n        /* \"#utility.yul\":4487:4503   */\n      swap1\n      pop\n        /* \"#utility.yul\":4699:4700   */\n      dup3\n        /* \"#utility.yul\":4694:4697   */\n      dup2\n        /* \"#utility.yul\":4690:4701   */\n      slt\n        /* \"#utility.yul\":4683:4702   */\n      iszero\n        /* \"#utility.yul\":4679:4680   */\n      0x00\n        /* \"#utility.yul\":4676:4677   */\n      dup4\n        /* \"#utility.yul\":4672:4681   */\n      slt\n        /* \"#utility.yul\":4668:4703   */\n      and\n        /* \"#utility.yul\":4651:4652   */\n      dup4\n        /* \"#utility.yul\":4646:4649   */\n      dup3\n        /* \"#utility.yul\":4642:4653   */\n      slt\n        /* \"#utility.yul\":4637:4638   */\n      0x00\n        /* \"#utility.yul\":4634:4635   */\n      dup5\n        /* \"#utility.yul\":4630:4639   */\n      slt\n        /* \"#utility.yul\":4623:4640   */\n      iszero\n        /* \"#utility.yul\":4619:4654   */\n      and\n        /* \"#utility.yul\":4603:4713   */\n      or\n        /* \"#utility.yul\":4600:4736   */\n      iszero\n      tag_103\n      jumpi\n        /* \"#utility.yul\":4716:4734   */\n      tag_104\n      tag_51\n      jump\t// in\n    tag_104:\n        /* \"#utility.yul\":4600:4736   */\n    tag_103:\n        /* \"#utility.yul\":4368:4743   */\n      swap3\n      swap2\n      pop\n      pop\n      jump\t// out\n\n    auxdata: 0xa2646970667358221220a8f7443dd08114bf4d3353bd0a702adef79769ef14f994881631106a02209b8c64736f6c63430008140033\n}\n",
				"bytecode": {
					"linkReferences": {},
					"object": "608060405234801561000f575f80fd5b506104a88061001d5f395ff3fe608060405234801561000f575f80fd5b506004361061004a575f3560e01c806309b7cdda1461004e5780633b904fd91461007e578063609e076f146100ae578063c2d85baf146100de575b5f80fd5b610068600480360381019061006391906101db565b61010e565b6040516100759190610228565b60405180910390f35b610098600480360381019061009391906101db565b610165565b6040516100a59190610228565b60405180910390f35b6100c860048036038101906100c391906101db565b61017a565b6040516100d59190610228565b60405180910390f35b6100f860048036038101906100f391906101db565b61018f565b6040516101059190610228565b60405180910390f35b5f808203610151576040517f08c379a00000000000000000000000000000000000000000000000000000000081526004016101489061029b565b60405180910390fd5b818361015d9190610313565b905092915050565b5f8183610172919061037b565b905092915050565b5f818361018791906103f1565b905092915050565b5f818361019c9190610431565b905092915050565b5f80fd5b5f819050919050565b6101ba816101a8565b81146101c4575f80fd5b50565b5f813590506101d5816101b1565b92915050565b5f80604083850312156101f1576101f06101a4565b5b5f6101fe858286016101c7565b925050602061020f858286016101c7565b9150509250929050565b610222816101a8565b82525050565b5f60208201905061023b5f830184610219565b92915050565b5f82825260208201905092915050565b7f4469766973696f6e206279207a65726f206973206e6f7420616c6c6f776564005f82015250565b5f610285601f83610241565b915061029082610251565b602082019050919050565b5f6020820190508181035f8301526102b281610279565b9050919050565b7f4e487b71000000000000000000000000000000000000000000000000000000005f52601260045260245ffd5b7f4e487b71000000000000000000000000000000000000000000000000000000005f52601160045260245ffd5b5f61031d826101a8565b9150610328836101a8565b925082610338576103376102b9565b5b60015f0383147f8000000000000000000000000000000000000000000000000000000000000000831416156103705761036f6102e6565b5b828205905092915050565b5f610385826101a8565b9150610390836101a8565b925082820261039e816101a8565b91507f800000000000000000000000000000000000000000000000000000000000000084145f841216156103d5576103d46102e6565b5b82820584148315176103ea576103e96102e6565b5b5092915050565b5f6103fb826101a8565b9150610406836101a8565b925082820390508181125f8412168282135f85121516171561042b5761042a6102e6565b5b92915050565b5f61043b826101a8565b9150610446836101a8565b92508282019050828112155f8312168382125f84121516171561046c5761046b6102e6565b5b9291505056fea2646970667358221220a8f7443dd08114bf4d3353bd0a702adef79769ef14f994881631106a02209b8c64736f6c63430008140033",
					"opcodes": "PUSH1 0x80 PUSH1 0x40 MSTORE CALLVALUE DUP1 ISZERO PUSH2 0xF JUMPI PUSH0 DUP1 REVERT JUMPDEST POP PUSH2 0x4A8 DUP1 PUSH2 0x1D PUSH0 CODECOPY PUSH0 RETURN INVALID PUSH1 0x80 PUSH1 0x40 MSTORE CALLVALUE DUP1 ISZERO PUSH2 0xF JUMPI PUSH0 DUP1 REVERT JUMPDEST POP PUSH1 0x4 CALLDATASIZE LT PUSH2 0x4A JUMPI PUSH0 CALLDATALOAD PUSH1 0xE0 SHR DUP1 PUSH4 0x9B7CDDA EQ PUSH2 0x4E JUMPI DUP1 PUSH4 0x3B904FD9 EQ PUSH2 0x7E JUMPI DUP1 PUSH4 0x609E076F EQ PUSH2 0xAE JUMPI DUP1 PUSH4 0xC2D85BAF EQ PUSH2 0xDE JUMPI JUMPDEST PUSH0 DUP1 REVERT JUMPDEST PUSH2 0x68 PUSH1 0x4 DUP1 CALLDATASIZE SUB DUP2 ADD SWAP1 PUSH2 0x63 SWAP2 SWAP1 PUSH2 0x1DB JUMP JUMPDEST PUSH2 0x10E JUMP JUMPDEST PUSH1 0x40 MLOAD PUSH2 0x75 SWAP2 SWAP1 PUSH2 0x228 JUMP JUMPDEST PUSH1 0x40 MLOAD DUP1 SWAP2 SUB SWAP1 RETURN JUMPDEST PUSH2 0x98 PUSH1 0x4 DUP1 CALLDATASIZE SUB DUP2 ADD SWAP1 PUSH2 0x93 SWAP2 SWAP1 PUSH2 0x1DB JUMP JUMPDEST PUSH2 0x165 JUMP JUMPDEST PUSH1 0x40 MLOAD PUSH2 0xA5 SWAP2 SWAP1 PUSH2 0x228 JUMP JUMPDEST PUSH1 0x40 MLOAD DUP1 SWAP2 SUB SWAP1 RETURN JUMPDEST PUSH2 0xC8 PUSH1 0x4 DUP1 CALLDATASIZE SUB DUP2 ADD SWAP1 PUSH2 0xC3 SWAP2 SWAP1 PUSH2 0x1DB JUMP JUMPDEST PUSH2 0x17A JUMP JUMPDEST PUSH1 0x40 MLOAD PUSH2 0xD5 SWAP2 SWAP1 PUSH2 0x228 JUMP JUMPDEST PUSH1 0x40 MLOAD DUP1 SWAP2 SUB SWAP1 RETURN JUMPDEST PUSH2 0xF8 PUSH1 0x4 DUP1 CALLDATASIZE SUB DUP2 ADD SWAP1 PUSH2 0xF3 SWAP2 SWAP1 PUSH2 0x1DB JUMP JUMPDEST PUSH2 0x18F JUMP JUMPDEST PUSH1 0x40 MLOAD PUSH2 0x105 SWAP2 SWAP1 PUSH2 0x228 JUMP JUMPDEST PUSH1 0x40 MLOAD DUP1 SWAP2 SUB SWAP1 RETURN JUMPDEST PUSH0 DUP1 DUP3 SUB PUSH2 0x151 JUMPI PUSH1 0x40 MLOAD PUSH32 0x8C379A000000000000000000000000000000000000000000000000000000000 DUP2 MSTORE PUSH1 0x4 ADD PUSH2 0x148 SWAP1 PUSH2 0x29B JUMP JUMPDEST PUSH1 0x40 MLOAD DUP1 SWAP2 SUB SWAP1 REVERT JUMPDEST DUP2 DUP4 PUSH2 0x15D SWAP2 SWAP1 PUSH2 0x313 JUMP JUMPDEST SWAP1 POP SWAP3 SWAP2 POP POP JUMP JUMPDEST PUSH0 DUP2 DUP4 PUSH2 0x172 SWAP2 SWAP1 PUSH2 0x37B JUMP JUMPDEST SWAP1 POP SWAP3 SWAP2 POP POP JUMP JUMPDEST PUSH0 DUP2 DUP4 PUSH2 0x187 SWAP2 SWAP1 PUSH2 0x3F1 JUMP JUMPDEST SWAP1 POP SWAP3 SWAP2 POP POP JUMP JUMPDEST PUSH0 DUP2 DUP4 PUSH2 0x19C SWAP2 SWAP1 PUSH2 0x431 JUMP JUMPDEST SWAP1 POP SWAP3 SWAP2 POP POP JUMP JUMPDEST PUSH0 DUP1 REVERT JUMPDEST PUSH0 DUP2 SWAP1 POP SWAP2 SWAP1 POP JUMP JUMPDEST PUSH2 0x1BA DUP2 PUSH2 0x1A8 JUMP JUMPDEST DUP2 EQ PUSH2 0x1C4 JUMPI PUSH0 DUP1 REVERT JUMPDEST POP JUMP JUMPDEST PUSH0 DUP2 CALLDATALOAD SWAP1 POP PUSH2 0x1D5 DUP2 PUSH2 0x1B1 JUMP JUMPDEST SWAP3 SWAP2 POP POP JUMP JUMPDEST PUSH0 DUP1 PUSH1 0x40 DUP4 DUP6 SUB SLT ISZERO PUSH2 0x1F1 JUMPI PUSH2 0x1F0 PUSH2 0x1A4 JUMP JUMPDEST JUMPDEST PUSH0 PUSH2 0x1FE DUP6 DUP3 DUP7 ADD PUSH2 0x1C7 JUMP JUMPDEST SWAP3 POP POP PUSH1 0x20 PUSH2 0x20F DUP6 DUP3 DUP7 ADD PUSH2 0x1C7 JUMP JUMPDEST SWAP2 POP POP SWAP3 POP SWAP3 SWAP1 POP JUMP JUMPDEST PUSH2 0x222 DUP2 PUSH2 0x1A8 JUMP JUMPDEST DUP3 MSTORE POP POP JUMP JUMPDEST PUSH0 PUSH1 0x20 DUP3 ADD SWAP1 POP PUSH2 0x23B PUSH0 DUP4 ADD DUP5 PUSH2 0x219 JUMP JUMPDEST SWAP3 SWAP2 POP POP JUMP JUMPDEST PUSH0 DUP3 DUP3 MSTORE PUSH1 0x20 DUP3 ADD SWAP1 POP SWAP3 SWAP2 POP POP JUMP JUMPDEST PUSH32 0x4469766973696F6E206279207A65726F206973206E6F7420616C6C6F77656400 PUSH0 DUP3 ADD MSTORE POP JUMP JUMPDEST PUSH0 PUSH2 0x285 PUSH1 0x1F DUP4 PUSH2 0x241 JUMP JUMPDEST SWAP2 POP PUSH2 0x290 DUP3 PUSH2 0x251 JUMP JUMPDEST PUSH1 0x20 DUP3 ADD SWAP1 POP SWAP2 SWAP1 POP JUMP JUMPDEST PUSH0 PUSH1 0x20 DUP3 ADD SWAP1 POP DUP2 DUP2 SUB PUSH0 DUP4 ADD MSTORE PUSH2 0x2B2 DUP2 PUSH2 0x279 JUMP JUMPDEST SWAP1 POP SWAP2 SWAP1 POP JUMP JUMPDEST PUSH32 0x4E487B7100000000000000000000000000000000000000000000000000000000 PUSH0 MSTORE PUSH1 0x12 PUSH1 0x4 MSTORE PUSH1 0x24 PUSH0 REVERT JUMPDEST PUSH32 0x4E487B7100000000000000000000000000000000000000000000000000000000 PUSH0 MSTORE PUSH1 0x11 PUSH1 0x4 MSTORE PUSH1 0x24 PUSH0 REVERT JUMPDEST PUSH0 PUSH2 0x31D DUP3 PUSH2 0x1A8 JUMP JUMPDEST SWAP2 POP PUSH2 0x328 DUP4 PUSH2 0x1A8 JUMP JUMPDEST SWAP3 POP DUP3 PUSH2 0x338 JUMPI PUSH2 0x337 PUSH2 0x2B9 JUMP JUMPDEST JUMPDEST PUSH1 0x1 PUSH0 SUB DUP4 EQ PUSH32 0x8000000000000000000000000000000000000000000000000000000000000000 DUP4 EQ AND ISZERO PUSH2 0x370 JUMPI PUSH2 0x36F PUSH2 0x2E6 JUMP JUMPDEST JUMPDEST DUP3 DUP3 SDIV SWAP1 POP SWAP3 SWAP2 POP POP JUMP JUMPDEST PUSH0 PUSH2 0x385 DUP3 PUSH2 0x1A8 JUMP JUMPDEST SWAP2 POP PUSH2 0x390 DUP4 PUSH2 0x1A8 JUMP JUMPDEST SWAP3 POP DUP3 DUP3 MUL PUSH2 0x39E DUP2 PUSH2 0x1A8 JUMP JUMPDEST SWAP2 POP PUSH32 0x8000000000000000000000000000000000000000000000000000000000000000 DUP5 EQ PUSH0 DUP5 SLT AND ISZERO PUSH2 0x3D5 JUMPI PUSH2 0x3D4 PUSH2 0x2E6 JUMP JUMPDEST JUMPDEST DUP3 DUP3 SDIV DUP5 EQ DUP4 ISZERO OR PUSH2 0x3EA JUMPI PUSH2 0x3E9 PUSH2 0x2E6 JUMP JUMPDEST JUMPDEST POP SWAP3 SWAP2 POP POP JUMP JUMPDEST PUSH0 PUSH2 0x3FB DUP3 PUSH2 0x1A8 JUMP JUMPDEST SWAP2 POP PUSH2 0x406 DUP4 PUSH2 0x1A8 JUMP JUMPDEST SWAP3 POP DUP3 DUP3 SUB SWAP1 POP DUP2 DUP2 SLT PUSH0 DUP5 SLT AND DUP3 DUP3 SGT PUSH0 DUP6 SLT ISZERO AND OR ISZERO PUSH2 0x42B JUMPI PUSH2 0x42A PUSH2 0x2E6 JUMP JUMPDEST JUMPDEST SWAP3 SWAP2 POP POP JUMP JUMPDEST PUSH0 PUSH2 0x43B DUP3 PUSH2 0x1A8 JUMP JUMPDEST SWAP2 POP PUSH2 0x446 DUP4 PUSH2 0x1A8 JUMP JUMPDEST SWAP3 POP DUP3 DUP3 ADD SWAP1 POP DUP3 DUP2 SLT ISZERO PUSH0 DUP4 SLT AND DUP4 DUP3 SLT PUSH0 DUP5 SLT ISZERO AND OR ISZERO PUSH2 0x46C JUMPI PUSH2 0x46B PUSH2 0x2E6 JUMP JUMPDEST JUMPDEST SWAP3 SWAP2 POP POP JUMP INVALID LOG2 PUSH5 0x6970667358 0x22 SLT KECCAK256 0xA8 0xF7 PREVRANDAO RETURNDATASIZE 0xD0 DUP2 EQ 0xBF 0x4D CALLER MSTORE8 0xBD EXP PUSH17 0x2ADEF79769EF14F994881631106A02209B DUP13 PUSH5 0x736F6C6343 STOP ADDMOD EQ STOP CALLER "
				},
				"gasEstimates": {
					"creation": {
						"codeDepositCost": "238400",
						"executionCost": "279",
						"totalCost": "238679"
					},
					"external": {
						"addition(int256,int256)": "infinite",
						"division(int256,int256)": "infinite",
						"multiplication(int256,int256)": "infinite",
						"subtraction(int256,int256)": "infinite"
					}
				},
				"methodIdentifiers": {
					"addition(int256,int256)": "c2d85baf",
					"division(int256,int256)": "09b7cdda",
					"multiplication(int256,int256)": "3b904fd9",
					"subtraction(int256,int256)": "609e076f"
				}
			},
			"storageLayout": {
				"storage": [],
				"types": null
			},
			"userdoc": {
				"kind": "user",
				"methods": {},
				"version": 1
			}
		}
	}
}