{
	"struct.sol": {
		"StructExample": {
			"abi": [
				{
					"inputs": [],
					"name": "Student1",
					"outputs": [
						{
							"internalType": "uint256",
							"name": "RollNo",
							"type": "uint256"
						},
						{
							"internalType": "string",
							"name": "Name",
							"type": "string"
						},
						{
							"internalType": "string",
							"name": "Email",
							"type": "string"
						},
						{
							"internalType": "uint256",
							"name": "Mobile",
							"type": "uint256"
						},
						{
							"internalType": "uint256",
							"name": "TotalMark",
							"type": "uint256"
						}
					],
					"stateMutability": "view",
					"type": "function"
				},
				{
					"inputs": [
						{
							"internalType": "uint256",
							"name": "rollNo",
							"type": "uint256"
						},
						{
							"internalType": "string",
							"name": "name",
							"type": "string"
						},
						{
							"internalType": "string",
							"name": "email",
							"type": "string"
						},
						{
							"internalType": "uint256",
							"name": "mobile",
							"type": "uint256"
						},
						{
							"internalType": "uint256",
							"name": "totalMark",
							"type": "uint256"
						}
					],
					"name": "setStruct",
					"outputs": [],
					"stateMutability": "nonpayable",
					"type": "function"
				}
			],
			"devdoc": {
				"kind": "dev",
				"methods": {},
				"version": 1
			},
			"evm": {
				"assembly": "    /* \"struct.sol\":57:734  contract StructExample {... */\n  mstore(0x40, 0x80)\n  callvalue\n  dup1\n  iszero\n  tag_1\n  jumpi\n  0x00\n  dup1\n  revert\ntag_1:\n  pop\n  dataSize(sub_0)\n  dup1\n  dataOffset(sub_0)\n  0x00\n  codecopy\n  0x00\n  return\nstop\n\nsub_0: assembly {\n        /* \"struct.sol\":57:734  contract StructExample {... */\n      mstore(0x40, 0x80)\n      callvalue\n      dup1\n      iszero\n      tag_1\n      jumpi\n      0x00\n      dup1\n      revert\n    tag_1:\n      pop\n      jumpi(tag_2, lt(calldatasize, 0x04))\n      shr(0xe0, calldataload(0x00))\n      dup1\n      0x4ced0428\n      eq\n      tag_3\n      jumpi\n      dup1\n      0x59ca098b\n      eq\n      tag_4\n      jumpi\n    tag_2:\n      0x00\n      dup1\n      revert\n        /* \"struct.sol\":262:732  function setStruct(... */\n    tag_3:\n      tag_5\n      0x04\n      dup1\n      calldatasize\n      sub\n      dup2\n      add\n      swap1\n      tag_6\n      swap2\n      swap1\n      tag_7\n      jump\t// in\n    tag_6:\n      tag_8\n      jump\t// in\n    tag_5:\n      stop\n        /* \"struct.sol\":232:255  student public Student1 */\n    tag_4:\n      tag_9\n      tag_10\n      jump\t// in\n    tag_9:\n      mload(0x40)\n      tag_11\n      swap6\n      swap5\n      swap4\n      swap3\n      swap2\n      swap1\n      tag_12\n      jump\t// in\n    tag_11:\n      mload(0x40)\n      dup1\n      swap2\n      sub\n      swap1\n      return\n        /* \"struct.sol\":262:732  function setStruct(... */\n    tag_8:\n        /* \"struct.sol\":453:454  0 */\n      0x00\n        /* \"struct.sol\":444:450  rollNo */\n      dup6\n        /* \"struct.sol\":444:454  rollNo > 0 */\n      gt\n        /* \"struct.sol\":436:478  require(rollNo > 0, \"Invalid roll number\") */\n      tag_14\n      jumpi\n      mload(0x40)\n      0x08c379a000000000000000000000000000000000000000000000000000000000\n      dup2\n      mstore\n      0x04\n      add\n      tag_15\n      swap1\n      tag_16\n      jump\t// in\n    tag_15:\n      mload(0x40)\n      dup1\n      swap2\n      sub\n      swap1\n      revert\n    tag_14:\n        /* \"struct.sol\":509:510  0 */\n      0x00\n        /* \"struct.sol\":496:505  totalMark */\n      dup2\n        /* \"struct.sol\":496:510  totalMark >= 0 */\n      lt\n      iszero\n        /* \"struct.sol\":488:533  require(totalMark >= 0, \"Invalid total mark\") */\n      tag_17\n      jumpi\n      mload(0x40)\n      0x08c379a000000000000000000000000000000000000000000000000000000000\n      dup2\n      mstore\n      0x04\n      add\n      tag_18\n      swap1\n      tag_19\n      jump\t// in\n    tag_18:\n      mload(0x40)\n      dup1\n      swap2\n      sub\n      swap1\n      revert\n    tag_17:\n        /* \"struct.sol\":575:585  1000000000 */\n      0x3b9aca00\n        /* \"struct.sol\":565:571  mobile */\n      dup3\n        /* \"struct.sol\":565:585  mobile >= 1000000000 */\n      lt\n      iszero\n        /* \"struct.sol\":565:609  mobile >= 1000000000 && mobile <= 9999999999 */\n      dup1\n      iszero\n      tag_20\n      jumpi\n      pop\n        /* \"struct.sol\":599:609  9999999999 */\n      0x02540be3ff\n        /* \"struct.sol\":589:595  mobile */\n      dup3\n        /* \"struct.sol\":589:609  mobile <= 9999999999 */\n      gt\n      iszero\n        /* \"struct.sol\":565:609  mobile >= 1000000000 && mobile <= 9999999999 */\n    tag_20:\n        /* \"struct.sol\":543:657  require(... */\n      tag_21\n      jumpi\n      mload(0x40)\n      0x08c379a000000000000000000000000000000000000000000000000000000000\n      dup2\n      mstore\n      0x04\n      add\n      tag_22\n      swap1\n      tag_23\n      jump\t// in\n    tag_22:\n      mload(0x40)\n      dup1\n      swap2\n      sub\n      swap1\n      revert\n    tag_21:\n        /* \"struct.sol\":678:725  student(rollNo, name, email, mobile, totalMark) */\n      mload(0x40)\n      dup1\n      0xa0\n      add\n      0x40\n      mstore\n      dup1\n        /* \"struct.sol\":686:692  rollNo */\n      dup7\n        /* \"struct.sol\":678:725  student(rollNo, name, email, mobile, totalMark) */\n      dup2\n      mstore\n      0x20\n      add\n        /* \"struct.sol\":694:698  name */\n      dup6\n        /* \"struct.sol\":678:725  student(rollNo, name, email, mobile, totalMark) */\n      dup2\n      mstore\n      0x20\n      add\n        /* \"struct.sol\":700:705  email */\n      dup5\n        /* \"struct.sol\":678:725  student(rollNo, name, email, mobile, totalMark) */\n      dup2\n      mstore\n      0x20\n      add\n        /* \"struct.sol\":707:713  mobile */\n      dup4\n        /* \"struct.sol\":678:725  student(rollNo, name, email, mobile, totalMark) */\n      dup2\n      mstore\n      0x20\n      add\n        /* \"struct.sol\":715:724  totalMark */\n      dup3\n        /* \"struct.sol\":678:725  student(rollNo, name, email, mobile, totalMark) */\n      dup2\n      mstore\n      pop\n        /* \"struct.sol\":667:675  Student1 */\n      0x00\n        /* \"struct.sol\":667:725  Student1 = student(rollNo, name, email, mobile, totalMark) */\n      dup1\n      dup3\n      add\n      mload\n      dup2\n      0x00\n      add\n      sstore\n      0x20\n      dup3\n      add\n      mload\n      dup2\n      0x01\n      add\n      swap1\n      dup2\n      tag_24\n      swap2\n      swap1\n      tag_25\n      jump\t// in\n    tag_24:\n      pop\n      0x40\n      dup3\n      add\n      mload\n      dup2\n      0x02\n      add\n      swap1\n      dup2\n      tag_26\n      swap2\n      swap1\n      tag_25\n      jump\t// in\n    tag_26:\n      pop\n      0x60\n      dup3\n      add\n      mload\n      dup2\n      0x03\n      add\n      sstore\n      0x80\n      dup3\n      add\n      mload\n      dup2\n      0x04\n      add\n      sstore\n      swap1\n      pop\n      pop\n        /* \"struct.sol\":262:732  function setStruct(... */\n      pop\n      pop\n      pop\n      pop\n      pop\n      jump\t// out\n        /* \"struct.sol\":232:255  student public Student1 */\n    tag_10:\n      0x00\n      dup1\n      0x00\n      add\n      sload\n      swap1\n      dup1\n      0x01\n      add\n      dup1\n      sload\n      tag_27\n      swap1\n      tag_28\n      jump\t// in\n    tag_27:\n      dup1\n      0x1f\n      add\n      0x20\n      dup1\n      swap2\n      div\n      mul\n      0x20\n      add\n      mload(0x40)\n      swap1\n      dup2\n      add\n      0x40\n      mstore\n      dup1\n      swap3\n      swap2\n      swap1\n      dup2\n      dup2\n      mstore\n      0x20\n      add\n      dup3\n      dup1\n      sload\n      tag_29\n      swap1\n      tag_28\n      jump\t// in\n    tag_29:\n      dup1\n      iszero\n      tag_30\n      jumpi\n      dup1\n      0x1f\n      lt\n      tag_31\n      jumpi\n      0x0100\n      dup1\n      dup4\n      sload\n      div\n      mul\n      dup4\n      mstore\n      swap2\n      0x20\n      add\n      swap2\n      jump(tag_30)\n    tag_31:\n      dup3\n      add\n      swap2\n      swap1\n      0x00\n      mstore\n      keccak256(0x00, 0x20)\n      swap1\n    tag_32:\n      dup2\n      sload\n      dup2\n      mstore\n      swap1\n      0x01\n      add\n      swap1\n      0x20\n      add\n      dup1\n      dup4\n      gt\n      tag_32\n      jumpi\n      dup3\n      swap1\n      sub\n      0x1f\n      and\n      dup3\n      add\n      swap2\n    tag_30:\n      pop\n      pop\n      pop\n      pop\n      pop\n      swap1\n      dup1\n      0x02\n      add\n      dup1\n      sload\n      tag_33\n      swap1\n      tag_28\n      jump\t// in\n    tag_33:\n      dup1\n      0x1f\n      add\n      0x20\n      dup1\n      swap2\n      div\n      mul\n      0x20\n      add\n      mload(0x40)\n      swap1\n      dup2\n      add\n      0x40\n      mstore\n      dup1\n      swap3\n      swap2\n      swap1\n      dup2\n      dup2\n      mstore\n      0x20\n      add\n      dup3\n      dup1\n      sload\n      tag_34\n      swap1\n      tag_28\n      jump\t// in\n    tag_34:\n      dup1\n      iszero\n      tag_35\n      jumpi\n      dup1\n      0x1f\n      lt\n      tag_36\n      jumpi\n      0x0100\n      dup1\n      dup4\n      sload\n      div\n      mul\n      dup4\n      mstore\n      swap2\n      0x20\n      add\n      swap2\n      jump(tag_35)\n    tag_36:\n      dup3\n      add\n      swap2\n      swap1\n      0x00\n      mstore\n      keccak256(0x00, 0x20)\n      swap1\n    tag_37:\n      dup2\n      sload\n      dup2\n      mstore\n      swap1\n      0x01\n      add\n      swap1\n      0x20\n      add\n      dup1\n      dup4\n      gt\n      tag_37\n      jumpi\n      dup3\n      swap1\n      sub\n      0x1f\n      and\n      dup3\n      add\n      swap2\n    tag_35:\n      pop\n      pop\n      pop\n      pop\n      pop\n      swap1\n      dup1\n      0x03\n      add\n      sload\n      swap1\n      dup1\n      0x04\n      add\n      sload\n      swap1\n      pop\n      dup6\n      jump\t// out\n        /* \"#utility.yul\":7:82   */\n    tag_38:\n        /* \"#utility.yul\":40:46   */\n      0x00\n        /* \"#utility.yul\":73:75   */\n      0x40\n        /* \"#utility.yul\":67:76   */\n      mload\n        /* \"#utility.yul\":57:76   */\n      swap1\n      pop\n        /* \"#utility.yul\":7:82   */\n      swap1\n      jump\t// out\n        /* \"#utility.yul\":88:205   */\n    tag_39:\n        /* \"#utility.yul\":197:198   */\n      0x00\n        /* \"#utility.yul\":194:195   */\n      dup1\n        /* \"#utility.yul\":187:199   */\n      revert\n        /* \"#utility.yul\":211:328   */\n    tag_40:\n        /* \"#utility.yul\":320:321   */\n      0x00\n        /* \"#utility.yul\":317:318   */\n      dup1\n        /* \"#utility.yul\":310:322   */\n      revert\n        /* \"#utility.yul\":334:411   */\n    tag_41:\n        /* \"#utility.yul\":371:378   */\n      0x00\n        /* \"#utility.yul\":400:405   */\n      dup2\n        /* \"#utility.yul\":389:405   */\n      swap1\n      pop\n        /* \"#utility.yul\":334:411   */\n      swap2\n      swap1\n      pop\n      jump\t// out\n        /* \"#utility.yul\":417:539   */\n    tag_42:\n        /* \"#utility.yul\":490:514   */\n      tag_87\n        /* \"#utility.yul\":508:513   */\n      dup2\n        /* \"#utility.yul\":490:514   */\n      tag_41\n      jump\t// in\n    tag_87:\n        /* \"#utility.yul\":483:488   */\n      dup2\n        /* \"#utility.yul\":480:515   */\n      eq\n        /* \"#utility.yul\":470:533   */\n      tag_88\n      jumpi\n        /* \"#utility.yul\":529:530   */\n      0x00\n        /* \"#utility.yul\":526:527   */\n      dup1\n        /* \"#utility.yul\":519:531   */\n      revert\n        /* \"#utility.yul\":470:533   */\n    tag_88:\n        /* \"#utility.yul\":417:539   */\n      pop\n      jump\t// out\n        /* \"#utility.yul\":545:684   */\n    tag_43:\n        /* \"#utility.yul\":591:596   */\n      0x00\n        /* \"#utility.yul\":629:635   */\n      dup2\n        /* \"#utility.yul\":616:636   */\n      calldataload\n        /* \"#utility.yul\":607:636   */\n      swap1\n      pop\n        /* \"#utility.yul\":645:678   */\n      tag_90\n        /* \"#utility.yul\":672:677   */\n      dup2\n        /* \"#utility.yul\":645:678   */\n      tag_42\n      jump\t// in\n    tag_90:\n        /* \"#utility.yul\":545:684   */\n      swap3\n      swap2\n      pop\n      pop\n      jump\t// out\n        /* \"#utility.yul\":690:807   */\n    tag_44:\n        /* \"#utility.yul\":799:800   */\n      0x00\n        /* \"#utility.yul\":796:797   */\n      dup1\n        /* \"#utility.yul\":789:801   */\n      revert\n        /* \"#utility.yul\":813:930   */\n    tag_45:\n        /* \"#utility.yul\":922:923   */\n      0x00\n        /* \"#utility.yul\":919:920   */\n      dup1\n        /* \"#utility.yul\":912:924   */\n      revert\n        /* \"#utility.yul\":936:1038   */\n    tag_46:\n        /* \"#utility.yul\":977:983   */\n      0x00\n        /* \"#utility.yul\":1028:1030   */\n      0x1f\n        /* \"#utility.yul\":1024:1031   */\n      not\n        /* \"#utility.yul\":1019:1021   */\n      0x1f\n        /* \"#utility.yul\":1012:1017   */\n      dup4\n        /* \"#utility.yul\":1008:1022   */\n      add\n        /* \"#utility.yul\":1004:1032   */\n      and\n        /* \"#utility.yul\":994:1032   */\n      swap1\n      pop\n        /* \"#utility.yul\":936:1038   */\n      swap2\n      swap1\n      pop\n      jump\t// out\n        /* \"#utility.yul\":1044:1224   */\n    tag_47:\n        /* \"#utility.yul\":1092:1169   */\n      0x4e487b7100000000000000000000000000000000000000000000000000000000\n        /* \"#utility.yul\":1089:1090   */\n      0x00\n        /* \"#utility.yul\":1082:1170   */\n      mstore\n        /* \"#utility.yul\":1189:1193   */\n      0x41\n        /* \"#utility.yul\":1186:1187   */\n      0x04\n        /* \"#utility.yul\":1179:1194   */\n      mstore\n        /* \"#utility.yul\":1213:1217   */\n      0x24\n        /* \"#utility.yul\":1210:1211   */\n      0x00\n        /* \"#utility.yul\":1203:1218   */\n      revert\n        /* \"#utility.yul\":1230:1511   */\n    tag_48:\n        /* \"#utility.yul\":1313:1340   */\n      tag_96\n        /* \"#utility.yul\":1335:1339   */\n      dup3\n        /* \"#utility.yul\":1313:1340   */\n      tag_46\n      jump\t// in\n    tag_96:\n        /* \"#utility.yul\":1305:1311   */\n      dup2\n        /* \"#utility.yul\":1301:1341   */\n      add\n        /* \"#utility.yul\":1443:1449   */\n      dup2\n        /* \"#utility.yul\":1431:1441   */\n      dup2\n        /* \"#utility.yul\":1428:1450   */\n      lt\n        /* \"#utility.yul\":1407:1425   */\n      0xffffffffffffffff\n        /* \"#utility.yul\":1395:1405   */\n      dup3\n        /* \"#utility.yul\":1392:1426   */\n      gt\n        /* \"#utility.yul\":1389:1451   */\n      or\n        /* \"#utility.yul\":1386:1474   */\n      iszero\n      tag_97\n      jumpi\n        /* \"#utility.yul\":1454:1472   */\n      tag_98\n      tag_47\n      jump\t// in\n    tag_98:\n        /* \"#utility.yul\":1386:1474   */\n    tag_97:\n        /* \"#utility.yul\":1494:1504   */\n      dup1\n        /* \"#utility.yul\":1490:1492   */\n      0x40\n        /* \"#utility.yul\":1483:1505   */\n      mstore\n        /* \"#utility.yul\":1273:1511   */\n      pop\n        /* \"#utility.yul\":1230:1511   */\n      pop\n      pop\n      jump\t// out\n        /* \"#utility.yul\":1517:1646   */\n    tag_49:\n        /* \"#utility.yul\":1551:1557   */\n      0x00\n        /* \"#utility.yul\":1578:1598   */\n      tag_100\n      tag_38\n      jump\t// in\n    tag_100:\n        /* \"#utility.yul\":1568:1598   */\n      swap1\n      pop\n        /* \"#utility.yul\":1607:1640   */\n      tag_101\n        /* \"#utility.yul\":1635:1639   */\n      dup3\n        /* \"#utility.yul\":1627:1633   */\n      dup3\n        /* \"#utility.yul\":1607:1640   */\n      tag_48\n      jump\t// in\n    tag_101:\n        /* \"#utility.yul\":1517:1646   */\n      swap2\n      swap1\n      pop\n      jump\t// out\n        /* \"#utility.yul\":1652:1960   */\n    tag_50:\n        /* \"#utility.yul\":1714:1718   */\n      0x00\n        /* \"#utility.yul\":1804:1822   */\n      0xffffffffffffffff\n        /* \"#utility.yul\":1796:1802   */\n      dup3\n        /* \"#utility.yul\":1793:1823   */\n      gt\n        /* \"#utility.yul\":1790:1846   */\n      iszero\n      tag_103\n      jumpi\n        /* \"#utility.yul\":1826:1844   */\n      tag_104\n      tag_47\n      jump\t// in\n    tag_104:\n        /* \"#utility.yul\":1790:1846   */\n    tag_103:\n        /* \"#utility.yul\":1864:1893   */\n      tag_105\n        /* \"#utility.yul\":1886:1892   */\n      dup3\n        /* \"#utility.yul\":1864:1893   */\n      tag_46\n      jump\t// in\n    tag_105:\n        /* \"#utility.yul\":1856:1893   */\n      swap1\n      pop\n        /* \"#utility.yul\":1948:1952   */\n      0x20\n        /* \"#utility.yul\":1942:1946   */\n      dup2\n        /* \"#utility.yul\":1938:1953   */\n      add\n        /* \"#utility.yul\":1930:1953   */\n      swap1\n      pop\n        /* \"#utility.yul\":1652:1960   */\n      swap2\n      swap1\n      pop\n      jump\t// out\n        /* \"#utility.yul\":1966:2112   */\n    tag_51:\n        /* \"#utility.yul\":2063:2069   */\n      dup3\n        /* \"#utility.yul\":2058:2061   */\n      dup2\n        /* \"#utility.yul\":2053:2056   */\n      dup4\n        /* \"#utility.yul\":2040:2070   */\n      calldatacopy\n        /* \"#utility.yul\":2104:2105   */\n      0x00\n        /* \"#utility.yul\":2095:2101   */\n      dup4\n        /* \"#utility.yul\":2090:2093   */\n      dup4\n        /* \"#utility.yul\":2086:2102   */\n      add\n        /* \"#utility.yul\":2079:2106   */\n      mstore\n        /* \"#utility.yul\":1966:2112   */\n      pop\n      pop\n      pop\n      jump\t// out\n        /* \"#utility.yul\":2118:2543   */\n    tag_52:\n        /* \"#utility.yul\":2196:2201   */\n      0x00\n        /* \"#utility.yul\":2221:2287   */\n      tag_108\n        /* \"#utility.yul\":2237:2286   */\n      tag_109\n        /* \"#utility.yul\":2279:2285   */\n      dup5\n        /* \"#utility.yul\":2237:2286   */\n      tag_50\n      jump\t// in\n    tag_109:\n        /* \"#utility.yul\":2221:2287   */\n      tag_49\n      jump\t// in\n    tag_108:\n        /* \"#utility.yul\":2212:2287   */\n      swap1\n      pop\n        /* \"#utility.yul\":2310:2316   */\n      dup3\n        /* \"#utility.yul\":2303:2308   */\n      dup2\n        /* \"#utility.yul\":2296:2317   */\n      mstore\n        /* \"#utility.yul\":2348:2352   */\n      0x20\n        /* \"#utility.yul\":2341:2346   */\n      dup2\n        /* \"#utility.yul\":2337:2353   */\n      add\n        /* \"#utility.yul\":2386:2389   */\n      dup5\n        /* \"#utility.yul\":2377:2383   */\n      dup5\n        /* \"#utility.yul\":2372:2375   */\n      dup5\n        /* \"#utility.yul\":2368:2384   */\n      add\n        /* \"#utility.yul\":2365:2390   */\n      gt\n        /* \"#utility.yul\":2362:2474   */\n      iszero\n      tag_110\n      jumpi\n        /* \"#utility.yul\":2393:2472   */\n      tag_111\n      tag_45\n      jump\t// in\n    tag_111:\n        /* \"#utility.yul\":2362:2474   */\n    tag_110:\n        /* \"#utility.yul\":2483:2537   */\n      tag_112\n        /* \"#utility.yul\":2530:2536   */\n      dup5\n        /* \"#utility.yul\":2525:2528   */\n      dup3\n        /* \"#utility.yul\":2520:2523   */\n      dup6\n        /* \"#utility.yul\":2483:2537   */\n      tag_51\n      jump\t// in\n    tag_112:\n        /* \"#utility.yul\":2202:2543   */\n      pop\n        /* \"#utility.yul\":2118:2543   */\n      swap4\n      swap3\n      pop\n      pop\n      pop\n      jump\t// out\n        /* \"#utility.yul\":2563:2903   */\n    tag_53:\n        /* \"#utility.yul\":2619:2624   */\n      0x00\n        /* \"#utility.yul\":2668:2671   */\n      dup3\n        /* \"#utility.yul\":2661:2665   */\n      0x1f\n        /* \"#utility.yul\":2653:2659   */\n      dup4\n        /* \"#utility.yul\":2649:2666   */\n      add\n        /* \"#utility.yul\":2645:2672   */\n      slt\n        /* \"#utility.yul\":2635:2757   */\n      tag_114\n      jumpi\n        /* \"#utility.yul\":2676:2755   */\n      tag_115\n      tag_44\n      jump\t// in\n    tag_115:\n        /* \"#utility.yul\":2635:2757   */\n    tag_114:\n        /* \"#utility.yul\":2793:2799   */\n      dup2\n        /* \"#utility.yul\":2780:2800   */\n      calldataload\n        /* \"#utility.yul\":2818:2897   */\n      tag_116\n        /* \"#utility.yul\":2893:2896   */\n      dup5\n        /* \"#utility.yul\":2885:2891   */\n      dup3\n        /* \"#utility.yul\":2878:2882   */\n      0x20\n        /* \"#utility.yul\":2870:2876   */\n      dup7\n        /* \"#utility.yul\":2866:2883   */\n      add\n        /* \"#utility.yul\":2818:2897   */\n      tag_52\n      jump\t// in\n    tag_116:\n        /* \"#utility.yul\":2809:2897   */\n      swap2\n      pop\n        /* \"#utility.yul\":2625:2903   */\n      pop\n        /* \"#utility.yul\":2563:2903   */\n      swap3\n      swap2\n      pop\n      pop\n      jump\t// out\n        /* \"#utility.yul\":2909:4180   */\n    tag_7:\n        /* \"#utility.yul\":3024:3030   */\n      0x00\n        /* \"#utility.yul\":3032:3038   */\n      dup1\n        /* \"#utility.yul\":3040:3046   */\n      0x00\n        /* \"#utility.yul\":3048:3054   */\n      dup1\n        /* \"#utility.yul\":3056:3062   */\n      0x00\n        /* \"#utility.yul\":3105:3108   */\n      0xa0\n        /* \"#utility.yul\":3093:3102   */\n      dup7\n        /* \"#utility.yul\":3084:3091   */\n      dup9\n        /* \"#utility.yul\":3080:3103   */\n      sub\n        /* \"#utility.yul\":3076:3109   */\n      slt\n        /* \"#utility.yul\":3073:3193   */\n      iszero\n      tag_118\n      jumpi\n        /* \"#utility.yul\":3112:3191   */\n      tag_119\n      tag_39\n      jump\t// in\n    tag_119:\n        /* \"#utility.yul\":3073:3193   */\n    tag_118:\n        /* \"#utility.yul\":3232:3233   */\n      0x00\n        /* \"#utility.yul\":3257:3310   */\n      tag_120\n        /* \"#utility.yul\":3302:3309   */\n      dup9\n        /* \"#utility.yul\":3293:3299   */\n      dup3\n        /* \"#utility.yul\":3282:3291   */\n      dup10\n        /* \"#utility.yul\":3278:3300   */\n      add\n        /* \"#utility.yul\":3257:3310   */\n      tag_43\n      jump\t// in\n    tag_120:\n        /* \"#utility.yul\":3247:3310   */\n      swap6\n      pop\n        /* \"#utility.yul\":3203:3320   */\n      pop\n        /* \"#utility.yul\":3387:3389   */\n      0x20\n        /* \"#utility.yul\":3376:3385   */\n      dup7\n        /* \"#utility.yul\":3372:3390   */\n      add\n        /* \"#utility.yul\":3359:3391   */\n      calldataload\n        /* \"#utility.yul\":3418:3436   */\n      0xffffffffffffffff\n        /* \"#utility.yul\":3410:3416   */\n      dup2\n        /* \"#utility.yul\":3407:3437   */\n      gt\n        /* \"#utility.yul\":3404:3521   */\n      iszero\n      tag_121\n      jumpi\n        /* \"#utility.yul\":3440:3519   */\n      tag_122\n      tag_40\n      jump\t// in\n    tag_122:\n        /* \"#utility.yul\":3404:3521   */\n    tag_121:\n        /* \"#utility.yul\":3545:3608   */\n      tag_123\n        /* \"#utility.yul\":3600:3607   */\n      dup9\n        /* \"#utility.yul\":3591:3597   */\n      dup3\n        /* \"#utility.yul\":3580:3589   */\n      dup10\n        /* \"#utility.yul\":3576:3598   */\n      add\n        /* \"#utility.yul\":3545:3608   */\n      tag_53\n      jump\t// in\n    tag_123:\n        /* \"#utility.yul\":3535:3608   */\n      swap5\n      pop\n        /* \"#utility.yul\":3330:3618   */\n      pop\n        /* \"#utility.yul\":3685:3687   */\n      0x40\n        /* \"#utility.yul\":3674:3683   */\n      dup7\n        /* \"#utility.yul\":3670:3688   */\n      add\n        /* \"#utility.yul\":3657:3689   */\n      calldataload\n        /* \"#utility.yul\":3716:3734   */\n      0xffffffffffffffff\n        /* \"#utility.yul\":3708:3714   */\n      dup2\n        /* \"#utility.yul\":3705:3735   */\n      gt\n        /* \"#utility.yul\":3702:3819   */\n      iszero\n      tag_124\n      jumpi\n        /* \"#utility.yul\":3738:3817   */\n      tag_125\n      tag_40\n      jump\t// in\n    tag_125:\n        /* \"#utility.yul\":3702:3819   */\n    tag_124:\n        /* \"#utility.yul\":3843:3906   */\n      tag_126\n        /* \"#utility.yul\":3898:3905   */\n      dup9\n        /* \"#utility.yul\":3889:3895   */\n      dup3\n        /* \"#utility.yul\":3878:3887   */\n      dup10\n        /* \"#utility.yul\":3874:3896   */\n      add\n        /* \"#utility.yul\":3843:3906   */\n      tag_53\n      jump\t// in\n    tag_126:\n        /* \"#utility.yul\":3833:3906   */\n      swap4\n      pop\n        /* \"#utility.yul\":3628:3916   */\n      pop\n        /* \"#utility.yul\":3955:3957   */\n      0x60\n        /* \"#utility.yul\":3981:4034   */\n      tag_127\n        /* \"#utility.yul\":4026:4033   */\n      dup9\n        /* \"#utility.yul\":4017:4023   */\n      dup3\n        /* \"#utility.yul\":4006:4015   */\n      dup10\n        /* \"#utility.yul\":4002:4024   */\n      add\n        /* \"#utility.yul\":3981:4034   */\n      tag_43\n      jump\t// in\n    tag_127:\n        /* \"#utility.yul\":3971:4034   */\n      swap3\n      pop\n        /* \"#utility.yul\":3926:4044   */\n      pop\n        /* \"#utility.yul\":4083:4086   */\n      0x80\n        /* \"#utility.yul\":4110:4163   */\n      tag_128\n        /* \"#utility.yul\":4155:4162   */\n      dup9\n        /* \"#utility.yul\":4146:4152   */\n      dup3\n        /* \"#utility.yul\":4135:4144   */\n      dup10\n        /* \"#utility.yul\":4131:4153   */\n      add\n        /* \"#utility.yul\":4110:4163   */\n      tag_43\n      jump\t// in\n    tag_128:\n        /* \"#utility.yul\":4100:4163   */\n      swap2\n      pop\n        /* \"#utility.yul\":4054:4173   */\n      pop\n        /* \"#utility.yul\":2909:4180   */\n      swap3\n      swap6\n      pop\n      swap3\n      swap6\n      swap1\n      swap4\n      pop\n      jump\t// out\n        /* \"#utility.yul\":4186:4304   */\n    tag_54:\n        /* \"#utility.yul\":4273:4297   */\n      tag_130\n        /* \"#utility.yul\":4291:4296   */\n      dup2\n        /* \"#utility.yul\":4273:4297   */\n      tag_41\n      jump\t// in\n    tag_130:\n        /* \"#utility.yul\":4268:4271   */\n      dup3\n        /* \"#utility.yul\":4261:4298   */\n      mstore\n        /* \"#utility.yul\":4186:4304   */\n      pop\n      pop\n      jump\t// out\n        /* \"#utility.yul\":4310:4409   */\n    tag_55:\n        /* \"#utility.yul\":4362:4368   */\n      0x00\n        /* \"#utility.yul\":4396:4401   */\n      dup2\n        /* \"#utility.yul\":4390:4402   */\n      mload\n        /* \"#utility.yul\":4380:4402   */\n      swap1\n      pop\n        /* \"#utility.yul\":4310:4409   */\n      swap2\n      swap1\n      pop\n      jump\t// out\n        /* \"#utility.yul\":4415:4584   */\n    tag_56:\n        /* \"#utility.yul\":4499:4510   */\n      0x00\n        /* \"#utility.yul\":4533:4539   */\n      dup3\n        /* \"#utility.yul\":4528:4531   */\n      dup3\n        /* \"#utility.yul\":4521:4540   */\n      mstore\n        /* \"#utility.yul\":4573:4577   */\n      0x20\n        /* \"#utility.yul\":4568:4571   */\n      dup3\n        /* \"#utility.yul\":4564:4578   */\n      add\n        /* \"#utility.yul\":4549:4578   */\n      swap1\n      pop\n        /* \"#utility.yul\":4415:4584   */\n      swap3\n      swap2\n      pop\n      pop\n      jump\t// out\n        /* \"#utility.yul\":4590:4836   */\n    tag_57:\n        /* \"#utility.yul\":4671:4672   */\n      0x00\n        /* \"#utility.yul\":4681:4794   */\n    tag_134:\n        /* \"#utility.yul\":4695:4701   */\n      dup4\n        /* \"#utility.yul\":4692:4693   */\n      dup2\n        /* \"#utility.yul\":4689:4702   */\n      lt\n        /* \"#utility.yul\":4681:4794   */\n      iszero\n      tag_136\n      jumpi\n        /* \"#utility.yul\":4780:4781   */\n      dup1\n        /* \"#utility.yul\":4775:4778   */\n      dup3\n        /* \"#utility.yul\":4771:4782   */\n      add\n        /* \"#utility.yul\":4765:4783   */\n      mload\n        /* \"#utility.yul\":4761:4762   */\n      dup2\n        /* \"#utility.yul\":4756:4759   */\n      dup5\n        /* \"#utility.yul\":4752:4763   */\n      add\n        /* \"#utility.yul\":4745:4784   */\n      mstore\n        /* \"#utility.yul\":4717:4719   */\n      0x20\n        /* \"#utility.yul\":4714:4715   */\n      dup2\n        /* \"#utility.yul\":4710:4720   */\n      add\n        /* \"#utility.yul\":4705:4720   */\n      swap1\n      pop\n        /* \"#utility.yul\":4681:4794   */\n      jump(tag_134)\n    tag_136:\n        /* \"#utility.yul\":4828:4829   */\n      0x00\n        /* \"#utility.yul\":4819:4825   */\n      dup5\n        /* \"#utility.yul\":4814:4817   */\n      dup5\n        /* \"#utility.yul\":4810:4826   */\n      add\n        /* \"#utility.yul\":4803:4830   */\n      mstore\n        /* \"#utility.yul\":4652:4836   */\n      pop\n        /* \"#utility.yul\":4590:4836   */\n      pop\n      pop\n      pop\n      jump\t// out\n        /* \"#utility.yul\":4842:5219   */\n    tag_58:\n        /* \"#utility.yul\":4930:4933   */\n      0x00\n        /* \"#utility.yul\":4958:4997   */\n      tag_138\n        /* \"#utility.yul\":4991:4996   */\n      dup3\n        /* \"#utility.yul\":4958:4997   */\n      tag_55\n      jump\t// in\n    tag_138:\n        /* \"#utility.yul\":5013:5084   */\n      tag_139\n        /* \"#utility.yul\":5077:5083   */\n      dup2\n        /* \"#utility.yul\":5072:5075   */\n      dup6\n        /* \"#utility.yul\":5013:5084   */\n      tag_56\n      jump\t// in\n    tag_139:\n        /* \"#utility.yul\":5006:5084   */\n      swap4\n      pop\n        /* \"#utility.yul\":5093:5158   */\n      tag_140\n        /* \"#utility.yul\":5151:5157   */\n      dup2\n        /* \"#utility.yul\":5146:5149   */\n      dup6\n        /* \"#utility.yul\":5139:5143   */\n      0x20\n        /* \"#utility.yul\":5132:5137   */\n      dup7\n        /* \"#utility.yul\":5128:5144   */\n      add\n        /* \"#utility.yul\":5093:5158   */\n      tag_57\n      jump\t// in\n    tag_140:\n        /* \"#utility.yul\":5183:5212   */\n      tag_141\n        /* \"#utility.yul\":5205:5211   */\n      dup2\n        /* \"#utility.yul\":5183:5212   */\n      tag_46\n      jump\t// in\n    tag_141:\n        /* \"#utility.yul\":5178:5181   */\n      dup5\n        /* \"#utility.yul\":5174:5213   */\n      add\n        /* \"#utility.yul\":5167:5213   */\n      swap2\n      pop\n        /* \"#utility.yul\":4934:5219   */\n      pop\n        /* \"#utility.yul\":4842:5219   */\n      swap3\n      swap2\n      pop\n      pop\n      jump\t// out\n        /* \"#utility.yul\":5225:6071   */\n    tag_12:\n        /* \"#utility.yul\":5470:5474   */\n      0x00\n        /* \"#utility.yul\":5508:5511   */\n      0xa0\n        /* \"#utility.yul\":5497:5506   */\n      dup3\n        /* \"#utility.yul\":5493:5512   */\n      add\n        /* \"#utility.yul\":5485:5512   */\n      swap1\n      pop\n        /* \"#utility.yul\":5522:5593   */\n      tag_143\n        /* \"#utility.yul\":5590:5591   */\n      0x00\n        /* \"#utility.yul\":5579:5588   */\n      dup4\n        /* \"#utility.yul\":5575:5592   */\n      add\n        /* \"#utility.yul\":5566:5572   */\n      dup9\n        /* \"#utility.yul\":5522:5593   */\n      tag_54\n      jump\t// in\n    tag_143:\n        /* \"#utility.yul\":5640:5649   */\n      dup2\n        /* \"#utility.yul\":5634:5638   */\n      dup2\n        /* \"#utility.yul\":5630:5650   */\n      sub\n        /* \"#utility.yul\":5625:5627   */\n      0x20\n        /* \"#utility.yul\":5614:5623   */\n      dup4\n        /* \"#utility.yul\":5610:5628   */\n      add\n        /* \"#utility.yul\":5603:5651   */\n      mstore\n        /* \"#utility.yul\":5668:5746   */\n      tag_144\n        /* \"#utility.yul\":5741:5745   */\n      dup2\n        /* \"#utility.yul\":5732:5738   */\n      dup8\n        /* \"#utility.yul\":5668:5746   */\n      tag_58\n      jump\t// in\n    tag_144:\n        /* \"#utility.yul\":5660:5746   */\n      swap1\n      pop\n        /* \"#utility.yul\":5793:5802   */\n      dup2\n        /* \"#utility.yul\":5787:5791   */\n      dup2\n        /* \"#utility.yul\":5783:5803   */\n      sub\n        /* \"#utility.yul\":5778:5780   */\n      0x40\n        /* \"#utility.yul\":5767:5776   */\n      dup4\n        /* \"#utility.yul\":5763:5781   */\n      add\n        /* \"#utility.yul\":5756:5804   */\n      mstore\n        /* \"#utility.yul\":5821:5899   */\n      tag_145\n        /* \"#utility.yul\":5894:5898   */\n      dup2\n        /* \"#utility.yul\":5885:5891   */\n      dup7\n        /* \"#utility.yul\":5821:5899   */\n      tag_58\n      jump\t// in\n    tag_145:\n        /* \"#utility.yul\":5813:5899   */\n      swap1\n      pop\n        /* \"#utility.yul\":5909:5981   */\n      tag_146\n        /* \"#utility.yul\":5977:5979   */\n      0x60\n        /* \"#utility.yul\":5966:5975   */\n      dup4\n        /* \"#utility.yul\":5962:5980   */\n      add\n        /* \"#utility.yul\":5953:5959   */\n      dup6\n        /* \"#utility.yul\":5909:5981   */\n      tag_54\n      jump\t// in\n    tag_146:\n        /* \"#utility.yul\":5991:6064   */\n      tag_147\n        /* \"#utility.yul\":6059:6062   */\n      0x80\n        /* \"#utility.yul\":6048:6057   */\n      dup4\n        /* \"#utility.yul\":6044:6063   */\n      add\n        /* \"#utility.yul\":6035:6041   */\n      dup5\n        /* \"#utility.yul\":5991:6064   */\n      tag_54\n      jump\t// in\n    tag_147:\n        /* \"#utility.yul\":5225:6071   */\n      swap7\n      swap6\n      pop\n      pop\n      pop\n      pop\n      pop\n      pop\n      jump\t// out\n        /* \"#utility.yul\":6077:6246   */\n    tag_59:\n        /* \"#utility.yul\":6217:6238   */\n      0x496e76616c696420726f6c6c206e756d62657200000000000000000000000000\n        /* \"#utility.yul\":6213:6214   */\n      0x00\n        /* \"#utility.yul\":6205:6211   */\n      dup3\n        /* \"#utility.yul\":6201:6215   */\n      add\n        /* \"#utility.yul\":6194:6239   */\n      mstore\n        /* \"#utility.yul\":6077:6246   */\n      pop\n      jump\t// out\n        /* \"#utility.yul\":6252:6618   */\n    tag_60:\n        /* \"#utility.yul\":6394:6397   */\n      0x00\n        /* \"#utility.yul\":6415:6482   */\n      tag_150\n        /* \"#utility.yul\":6479:6481   */\n      0x13\n        /* \"#utility.yul\":6474:6477   */\n      dup4\n        /* \"#utility.yul\":6415:6482   */\n      tag_56\n      jump\t// in\n    tag_150:\n        /* \"#utility.yul\":6408:6482   */\n      swap2\n      pop\n        /* \"#utility.yul\":6491:6584   */\n      tag_151\n        /* \"#utility.yul\":6580:6583   */\n      dup3\n        /* \"#utility.yul\":6491:6584   */\n      tag_59\n      jump\t// in\n    tag_151:\n        /* \"#utility.yul\":6609:6611   */\n      0x20\n        /* \"#utility.yul\":6604:6607   */\n      dup3\n        /* \"#utility.yul\":6600:6612   */\n      add\n        /* \"#utility.yul\":6593:6612   */\n      swap1\n      pop\n        /* \"#utility.yul\":6252:6618   */\n      swap2\n      swap1\n      pop\n      jump\t// out\n        /* \"#utility.yul\":6624:7043   */\n    tag_16:\n        /* \"#utility.yul\":6790:6794   */\n      0x00\n        /* \"#utility.yul\":6828:6830   */\n      0x20\n        /* \"#utility.yul\":6817:6826   */\n      dup3\n        /* \"#utility.yul\":6813:6831   */\n      add\n        /* \"#utility.yul\":6805:6831   */\n      swap1\n      pop\n        /* \"#utility.yul\":6877:6886   */\n      dup2\n        /* \"#utility.yul\":6871:6875   */\n      dup2\n        /* \"#utility.yul\":6867:6887   */\n      sub\n        /* \"#utility.yul\":6863:6864   */\n      0x00\n        /* \"#utility.yul\":6852:6861   */\n      dup4\n        /* \"#utility.yul\":6848:6865   */\n      add\n        /* \"#utility.yul\":6841:6888   */\n      mstore\n        /* \"#utility.yul\":6905:7036   */\n      tag_153\n        /* \"#utility.yul\":7031:7035   */\n      dup2\n        /* \"#utility.yul\":6905:7036   */\n      tag_60\n      jump\t// in\n    tag_153:\n        /* \"#utility.yul\":6897:7036   */\n      swap1\n      pop\n        /* \"#utility.yul\":6624:7043   */\n      swap2\n      swap1\n      pop\n      jump\t// out\n        /* \"#utility.yul\":7049:7217   */\n    tag_61:\n        /* \"#utility.yul\":7189:7209   */\n      0x496e76616c696420746f74616c206d61726b0000000000000000000000000000\n        /* \"#utility.yul\":7185:7186   */\n      0x00\n        /* \"#utility.yul\":7177:7183   */\n      dup3\n        /* \"#utility.yul\":7173:7187   */\n      add\n        /* \"#utility.yul\":7166:7210   */\n      mstore\n        /* \"#utility.yul\":7049:7217   */\n      pop\n      jump\t// out\n        /* \"#utility.yul\":7223:7589   */\n    tag_62:\n        /* \"#utility.yul\":7365:7368   */\n      0x00\n        /* \"#utility.yul\":7386:7453   */\n      tag_156\n        /* \"#utility.yul\":7450:7452   */\n      0x12\n        /* \"#utility.yul\":7445:7448   */\n      dup4\n        /* \"#utility.yul\":7386:7453   */\n      tag_56\n      jump\t// in\n    tag_156:\n        /* \"#utility.yul\":7379:7453   */\n      swap2\n      pop\n        /* \"#utility.yul\":7462:7555   */\n      tag_157\n        /* \"#utility.yul\":7551:7554   */\n      dup3\n        /* \"#utility.yul\":7462:7555   */\n      tag_61\n      jump\t// in\n    tag_157:\n        /* \"#utility.yul\":7580:7582   */\n      0x20\n        /* \"#utility.yul\":7575:7578   */\n      dup3\n        /* \"#utility.yul\":7571:7583   */\n      add\n        /* \"#utility.yul\":7564:7583   */\n      swap1\n      pop\n        /* \"#utility.yul\":7223:7589   */\n      swap2\n      swap1\n      pop\n      jump\t// out\n        /* \"#utility.yul\":7595:8014   */\n    tag_19:\n        /* \"#utility.yul\":7761:7765   */\n      0x00\n        /* \"#utility.yul\":7799:7801   */\n      0x20\n        /* \"#utility.yul\":7788:7797   */\n      dup3\n        /* \"#utility.yul\":7784:7802   */\n      add\n        /* \"#utility.yul\":7776:7802   */\n      swap1\n      pop\n        /* \"#utility.yul\":7848:7857   */\n      dup2\n        /* \"#utility.yul\":7842:7846   */\n      dup2\n        /* \"#utility.yul\":7838:7858   */\n      sub\n        /* \"#utility.yul\":7834:7835   */\n      0x00\n        /* \"#utility.yul\":7823:7832   */\n      dup4\n        /* \"#utility.yul\":7819:7836   */\n      add\n        /* \"#utility.yul\":7812:7859   */\n      mstore\n        /* \"#utility.yul\":7876:8007   */\n      tag_159\n        /* \"#utility.yul\":8002:8006   */\n      dup2\n        /* \"#utility.yul\":7876:8007   */\n      tag_62\n      jump\t// in\n    tag_159:\n        /* \"#utility.yul\":7868:8007   */\n      swap1\n      pop\n        /* \"#utility.yul\":7595:8014   */\n      swap2\n      swap1\n      pop\n      jump\t// out\n        /* \"#utility.yul\":8020:8191   */\n    tag_63:\n        /* \"#utility.yul\":8160:8183   */\n      0x496e76616c6964206d6f62696c65206e756d6265720000000000000000000000\n        /* \"#utility.yul\":8156:8157   */\n      0x00\n        /* \"#utility.yul\":8148:8154   */\n      dup3\n        /* \"#utility.yul\":8144:8158   */\n      add\n        /* \"#utility.yul\":8137:8184   */\n      mstore\n        /* \"#utility.yul\":8020:8191   */\n      pop\n      jump\t// out\n        /* \"#utility.yul\":8197:8563   */\n    tag_64:\n        /* \"#utility.yul\":8339:8342   */\n      0x00\n        /* \"#utility.yul\":8360:8427   */\n      tag_162\n        /* \"#utility.yul\":8424:8426   */\n      0x15\n        /* \"#utility.yul\":8419:8422   */\n      dup4\n        /* \"#utility.yul\":8360:8427   */\n      tag_56\n      jump\t// in\n    tag_162:\n        /* \"#utility.yul\":8353:8427   */\n      swap2\n      pop\n        /* \"#utility.yul\":8436:8529   */\n      tag_163\n        /* \"#utility.yul\":8525:8528   */\n      dup3\n        /* \"#utility.yul\":8436:8529   */\n      tag_63\n      jump\t// in\n    tag_163:\n        /* \"#utility.yul\":8554:8556   */\n      0x20\n        /* \"#utility.yul\":8549:8552   */\n      dup3\n        /* \"#utility.yul\":8545:8557   */\n      add\n        /* \"#utility.yul\":8538:8557   */\n      swap1\n      pop\n        /* \"#utility.yul\":8197:8563   */\n      swap2\n      swap1\n      pop\n      jump\t// out\n        /* \"#utility.yul\":8569:8988   */\n    tag_23:\n        /* \"#utility.yul\":8735:8739   */\n      0x00\n        /* \"#utility.yul\":8773:8775   */\n      0x20\n        /* \"#utility.yul\":8762:8771   */\n      dup3\n        /* \"#utility.yul\":8758:8776   */\n      add\n        /* \"#utility.yul\":8750:8776   */\n      swap1\n      pop\n        /* \"#utility.yul\":8822:8831   */\n      dup2\n        /* \"#utility.yul\":8816:8820   */\n      dup2\n        /* \"#utility.yul\":8812:8832   */\n      sub\n        /* \"#utility.yul\":8808:8809   */\n      0x00\n        /* \"#utility.yul\":8797:8806   */\n      dup4\n        /* \"#utility.yul\":8793:8810   */\n      add\n        /* \"#utility.yul\":8786:8833   */\n      mstore\n        /* \"#utility.yul\":8850:8981   */\n      tag_165\n        /* \"#utility.yul\":8976:8980   */\n      dup2\n        /* \"#utility.yul\":8850:8981   */\n      tag_64\n      jump\t// in\n    tag_165:\n        /* \"#utility.yul\":8842:8981   */\n      swap1\n      pop\n        /* \"#utility.yul\":8569:8988   */\n      swap2\n      swap1\n      pop\n      jump\t// out\n        /* \"#utility.yul\":8994:9174   */\n    tag_65:\n        /* \"#utility.yul\":9042:9119   */\n      0x4e487b7100000000000000000000000000000000000000000000000000000000\n        /* \"#utility.yul\":9039:9040   */\n      0x00\n        /* \"#utility.yul\":9032:9120   */\n      mstore\n        /* \"#utility.yul\":9139:9143   */\n      0x22\n        /* \"#utility.yul\":9136:9137   */\n      0x04\n        /* \"#utility.yul\":9129:9144   */\n      mstore\n        /* \"#utility.yul\":9163:9167   */\n      0x24\n        /* \"#utility.yul\":9160:9161   */\n      0x00\n        /* \"#utility.yul\":9153:9168   */\n      revert\n        /* \"#utility.yul\":9180:9500   */\n    tag_28:\n        /* \"#utility.yul\":9224:9230   */\n      0x00\n        /* \"#utility.yul\":9261:9262   */\n      0x02\n        /* \"#utility.yul\":9255:9259   */\n      dup3\n        /* \"#utility.yul\":9251:9263   */\n      div\n        /* \"#utility.yul\":9241:9263   */\n      swap1\n      pop\n        /* \"#utility.yul\":9308:9309   */\n      0x01\n        /* \"#utility.yul\":9302:9306   */\n      dup3\n        /* \"#utility.yul\":9298:9310   */\n      and\n        /* \"#utility.yul\":9329:9347   */\n      dup1\n        /* \"#utility.yul\":9319:9400   */\n      tag_168\n      jumpi\n        /* \"#utility.yul\":9385:9389   */\n      0x7f\n        /* \"#utility.yul\":9377:9383   */\n      dup3\n        /* \"#utility.yul\":9373:9390   */\n      and\n        /* \"#utility.yul\":9363:9390   */\n      swap2\n      pop\n        /* \"#utility.yul\":9319:9400   */\n    tag_168:\n        /* \"#utility.yul\":9447:9449   */\n      0x20\n        /* \"#utility.yul\":9439:9445   */\n      dup3\n        /* \"#utility.yul\":9436:9450   */\n      lt\n        /* \"#utility.yul\":9416:9434   */\n      dup2\n        /* \"#utility.yul\":9413:9451   */\n      sub\n        /* \"#utility.yul\":9410:9494   */\n      tag_169\n      jumpi\n        /* \"#utility.yul\":9466:9484   */\n      tag_170\n      tag_65\n      jump\t// in\n    tag_170:\n        /* \"#utility.yul\":9410:9494   */\n    tag_169:\n        /* \"#utility.yul\":9231:9500   */\n      pop\n        /* \"#utility.yul\":9180:9500   */\n      swap2\n      swap1\n      pop\n      jump\t// out\n        /* \"#utility.yul\":9506:9647   */\n    tag_66:\n        /* \"#utility.yul\":9555:9559   */\n      0x00\n        /* \"#utility.yul\":9578:9581   */\n      dup2\n        /* \"#utility.yul\":9570:9581   */\n      swap1\n      pop\n        /* \"#utility.yul\":9601:9604   */\n      dup2\n        /* \"#utility.yul\":9598:9599   */\n      0x00\n        /* \"#utility.yul\":9591:9605   */\n      mstore\n        /* \"#utility.yul\":9635:9639   */\n      0x20\n        /* \"#utility.yul\":9632:9633   */\n      0x00\n        /* \"#utility.yul\":9622:9640   */\n      keccak256\n        /* \"#utility.yul\":9614:9640   */\n      swap1\n      pop\n        /* \"#utility.yul\":9506:9647   */\n      swap2\n      swap1\n      pop\n      jump\t// out\n        /* \"#utility.yul\":9653:9746   */\n    tag_67:\n        /* \"#utility.yul\":9690:9696   */\n      0x00\n        /* \"#utility.yul\":9737:9739   */\n      0x20\n        /* \"#utility.yul\":9732:9734   */\n      0x1f\n        /* \"#utility.yul\":9725:9730   */\n      dup4\n        /* \"#utility.yul\":9721:9735   */\n      add\n        /* \"#utility.yul\":9717:9740   */\n      div\n        /* \"#utility.yul\":9707:9740   */\n      swap1\n      pop\n        /* \"#utility.yul\":9653:9746   */\n      swap2\n      swap1\n      pop\n      jump\t// out\n        /* \"#utility.yul\":9752:9859   */\n    tag_68:\n        /* \"#utility.yul\":9796:9804   */\n      0x00\n        /* \"#utility.yul\":9846:9851   */\n      dup3\n        /* \"#utility.yul\":9840:9844   */\n      dup3\n        /* \"#utility.yul\":9836:9852   */\n      shl\n        /* \"#utility.yul\":9815:9852   */\n      swap1\n      pop\n        /* \"#utility.yul\":9752:9859   */\n      swap3\n      swap2\n      pop\n      pop\n      jump\t// out\n        /* \"#utility.yul\":9865:10258   */\n    tag_69:\n        /* \"#utility.yul\":9934:9940   */\n      0x00\n        /* \"#utility.yul\":9984:9985   */\n      0x08\n        /* \"#utility.yul\":9972:9982   */\n      dup4\n        /* \"#utility.yul\":9968:9986   */\n      mul\n        /* \"#utility.yul\":10007:10104   */\n      tag_175\n        /* \"#utility.yul\":10037:10103   */\n      0xffffffffffffffffffffffffffffffffffffffffffffffffffffffffffffffff\n        /* \"#utility.yul\":10026:10035   */\n      dup3\n        /* \"#utility.yul\":10007:10104   */\n      tag_68\n      jump\t// in\n    tag_175:\n        /* \"#utility.yul\":10125:10164   */\n      tag_176\n        /* \"#utility.yul\":10155:10163   */\n      dup7\n        /* \"#utility.yul\":10144:10153   */\n      dup4\n        /* \"#utility.yul\":10125:10164   */\n      tag_68\n      jump\t// in\n    tag_176:\n        /* \"#utility.yul\":10113:10164   */\n      swap6\n      pop\n        /* \"#utility.yul\":10197:10201   */\n      dup1\n        /* \"#utility.yul\":10193:10202   */\n      not\n        /* \"#utility.yul\":10186:10191   */\n      dup5\n        /* \"#utility.yul\":10182:10203   */\n      and\n        /* \"#utility.yul\":10173:10203   */\n      swap4\n      pop\n        /* \"#utility.yul\":10246:10250   */\n      dup1\n        /* \"#utility.yul\":10236:10244   */\n      dup7\n        /* \"#utility.yul\":10232:10251   */\n      and\n        /* \"#utility.yul\":10225:10230   */\n      dup5\n        /* \"#utility.yul\":10222:10252   */\n      or\n        /* \"#utility.yul\":10212:10252   */\n      swap3\n      pop\n        /* \"#utility.yul\":9941:10258   */\n      pop\n      pop\n        /* \"#utility.yul\":9865:10258   */\n      swap4\n      swap3\n      pop\n      pop\n      pop\n      jump\t// out\n        /* \"#utility.yul\":10264:10324   */\n    tag_70:\n        /* \"#utility.yul\":10292:10295   */\n      0x00\n        /* \"#utility.yul\":10313:10318   */\n      dup2\n        /* \"#utility.yul\":10306:10318   */\n      swap1\n      pop\n        /* \"#utility.yul\":10264:10324   */\n      swap2\n      swap1\n      pop\n      jump\t// out\n        /* \"#utility.yul\":10330:10472   */\n    tag_71:\n        /* \"#utility.yul\":10380:10389   */\n      0x00\n        /* \"#utility.yul\":10413:10466   */\n      tag_179\n        /* \"#utility.yul\":10431:10465   */\n      tag_180\n        /* \"#utility.yul\":10440:10464   */\n      tag_181\n        /* \"#utility.yul\":10458:10463   */\n      dup5\n        /* \"#utility.yul\":10440:10464   */\n      tag_41\n      jump\t// in\n    tag_181:\n        /* \"#utility.yul\":10431:10465   */\n      tag_70\n      jump\t// in\n    tag_180:\n        /* \"#utility.yul\":10413:10466   */\n      tag_41\n      jump\t// in\n    tag_179:\n        /* \"#utility.yul\":10400:10466   */\n      swap1\n      pop\n        /* \"#utility.yul\":10330:10472   */\n      swap2\n      swap1\n      pop\n      jump\t// out\n        /* \"#utility.yul\":10478:10553   */\n    tag_72:\n        /* \"#utility.yul\":10521:10524   */\n      0x00\n        /* \"#utility.yul\":10542:10547   */\n      dup2\n        /* \"#utility.yul\":10535:10547   */\n      swap1\n      pop\n        /* \"#utility.yul\":10478:10553   */\n      swap2\n      swap1\n      pop\n      jump\t// out\n        /* \"#utility.yul\":10559:10828   */\n    tag_73:\n        /* \"#utility.yul\":10669:10708   */\n      tag_184\n        /* \"#utility.yul\":10700:10707   */\n      dup4\n        /* \"#utility.yul\":10669:10708   */\n      tag_71\n      jump\t// in\n    tag_184:\n        /* \"#utility.yul\":10730:10821   */\n      tag_185\n        /* \"#utility.yul\":10779:10820   */\n      tag_186\n        /* \"#utility.yul\":10803:10819   */\n      dup3\n        /* \"#utility.yul\":10779:10820   */\n      tag_72\n      jump\t// in\n    tag_186:\n        /* \"#utility.yul\":10771:10777   */\n      dup5\n        /* \"#utility.yul\":10764:10768   */\n      dup5\n        /* \"#utility.yul\":10758:10769   */\n      sload\n        /* \"#utility.yul\":10730:10821   */\n      tag_69\n      jump\t// in\n    tag_185:\n        /* \"#utility.yul\":10724:10728   */\n      dup3\n        /* \"#utility.yul\":10717:10822   */\n      sstore\n        /* \"#utility.yul\":10635:10828   */\n      pop\n        /* \"#utility.yul\":10559:10828   */\n      pop\n      pop\n      pop\n      jump\t// out\n        /* \"#utility.yul\":10834:10907   */\n    tag_74:\n        /* \"#utility.yul\":10879:10882   */\n      0x00\n        /* \"#utility.yul\":10834:10907   */\n      swap1\n      jump\t// out\n        /* \"#utility.yul\":10913:11102   */\n    tag_75:\n        /* \"#utility.yul\":10990:11022   */\n      tag_189\n      tag_74\n      jump\t// in\n    tag_189:\n        /* \"#utility.yul\":11031:11096   */\n      tag_190\n        /* \"#utility.yul\":11089:11095   */\n      dup2\n        /* \"#utility.yul\":11081:11087   */\n      dup5\n        /* \"#utility.yul\":11075:11079   */\n      dup5\n        /* \"#utility.yul\":11031:11096   */\n      tag_73\n      jump\t// in\n    tag_190:\n        /* \"#utility.yul\":10966:11102   */\n      pop\n        /* \"#utility.yul\":10913:11102   */\n      pop\n      pop\n      jump\t// out\n        /* \"#utility.yul\":11108:11294   */\n    tag_76:\n        /* \"#utility.yul\":11168:11288   */\n    tag_192:\n        /* \"#utility.yul\":11185:11188   */\n      dup2\n        /* \"#utility.yul\":11178:11183   */\n      dup2\n        /* \"#utility.yul\":11175:11189   */\n      lt\n        /* \"#utility.yul\":11168:11288   */\n      iszero\n      tag_194\n      jumpi\n        /* \"#utility.yul\":11239:11278   */\n      tag_195\n        /* \"#utility.yul\":11276:11277   */\n      0x00\n        /* \"#utility.yul\":11269:11274   */\n      dup3\n        /* \"#utility.yul\":11239:11278   */\n      tag_75\n      jump\t// in\n    tag_195:\n        /* \"#utility.yul\":11212:11213   */\n      0x01\n        /* \"#utility.yul\":11205:11210   */\n      dup2\n        /* \"#utility.yul\":11201:11214   */\n      add\n        /* \"#utility.yul\":11192:11214   */\n      swap1\n      pop\n        /* \"#utility.yul\":11168:11288   */\n      jump(tag_192)\n    tag_194:\n        /* \"#utility.yul\":11108:11294   */\n      pop\n      pop\n      jump\t// out\n        /* \"#utility.yul\":11300:11843   */\n    tag_77:\n        /* \"#utility.yul\":11401:11403   */\n      0x1f\n        /* \"#utility.yul\":11396:11399   */\n      dup3\n        /* \"#utility.yul\":11393:11404   */\n      gt\n        /* \"#utility.yul\":11390:11836   */\n      iszero\n      tag_197\n      jumpi\n        /* \"#utility.yul\":11435:11473   */\n      tag_198\n        /* \"#utility.yul\":11467:11472   */\n      dup2\n        /* \"#utility.yul\":11435:11473   */\n      tag_66\n      jump\t// in\n    tag_198:\n        /* \"#utility.yul\":11519:11548   */\n      tag_199\n        /* \"#utility.yul\":11537:11547   */\n      dup5\n        /* \"#utility.yul\":11519:11548   */\n      tag_67\n      jump\t// in\n    tag_199:\n        /* \"#utility.yul\":11509:11517   */\n      dup2\n        /* \"#utility.yul\":11505:11549   */\n      add\n        /* \"#utility.yul\":11702:11704   */\n      0x20\n        /* \"#utility.yul\":11690:11700   */\n      dup6\n        /* \"#utility.yul\":11687:11705   */\n      lt\n        /* \"#utility.yul\":11684:11733   */\n      iszero\n      tag_200\n      jumpi\n        /* \"#utility.yul\":11723:11731   */\n      dup2\n        /* \"#utility.yul\":11708:11731   */\n      swap1\n      pop\n        /* \"#utility.yul\":11684:11733   */\n    tag_200:\n        /* \"#utility.yul\":11746:11826   */\n      tag_201\n        /* \"#utility.yul\":11802:11824   */\n      tag_202\n        /* \"#utility.yul\":11820:11823   */\n      dup6\n        /* \"#utility.yul\":11802:11824   */\n      tag_67\n      jump\t// in\n    tag_202:\n        /* \"#utility.yul\":11792:11800   */\n      dup4\n        /* \"#utility.yul\":11788:11825   */\n      add\n        /* \"#utility.yul\":11775:11786   */\n      dup3\n        /* \"#utility.yul\":11746:11826   */\n      tag_76\n      jump\t// in\n    tag_201:\n        /* \"#utility.yul\":11405:11836   */\n      pop\n      pop\n        /* \"#utility.yul\":11390:11836   */\n    tag_197:\n        /* \"#utility.yul\":11300:11843   */\n      pop\n      pop\n      pop\n      jump\t// out\n        /* \"#utility.yul\":11849:11966   */\n    tag_78:\n        /* \"#utility.yul\":11903:11911   */\n      0x00\n        /* \"#utility.yul\":11953:11958   */\n      dup3\n        /* \"#utility.yul\":11947:11951   */\n      dup3\n        /* \"#utility.yul\":11943:11959   */\n      shr\n        /* \"#utility.yul\":11922:11959   */\n      swap1\n      pop\n        /* \"#utility.yul\":11849:11966   */\n      swap3\n      swap2\n      pop\n      pop\n      jump\t// out\n        /* \"#utility.yul\":11972:12141   */\n    tag_79:\n        /* \"#utility.yul\":12016:12022   */\n      0x00\n        /* \"#utility.yul\":12049:12100   */\n      tag_205\n        /* \"#utility.yul\":12097:12098   */\n      0x00\n        /* \"#utility.yul\":12093:12099   */\n      not\n        /* \"#utility.yul\":12085:12090   */\n      dup5\n        /* \"#utility.yul\":12082:12083   */\n      0x08\n        /* \"#utility.yul\":12078:12091   */\n      mul\n        /* \"#utility.yul\":12049:12100   */\n      tag_78\n      jump\t// in\n    tag_205:\n        /* \"#utility.yul\":12045:12101   */\n      not\n        /* \"#utility.yul\":12130:12134   */\n      dup1\n        /* \"#utility.yul\":12124:12128   */\n      dup4\n        /* \"#utility.yul\":12120:12135   */\n      and\n        /* \"#utility.yul\":12110:12135   */\n      swap2\n      pop\n        /* \"#utility.yul\":12023:12141   */\n      pop\n        /* \"#utility.yul\":11972:12141   */\n      swap3\n      swap2\n      pop\n      pop\n      jump\t// out\n        /* \"#utility.yul\":12146:12441   */\n    tag_80:\n        /* \"#utility.yul\":12222:12226   */\n      0x00\n        /* \"#utility.yul\":12368:12397   */\n      tag_207\n        /* \"#utility.yul\":12393:12396   */\n      dup4\n        /* \"#utility.yul\":12387:12391   */\n      dup4\n        /* \"#utility.yul\":12368:12397   */\n      tag_79\n      jump\t// in\n    tag_207:\n        /* \"#utility.yul\":12360:12397   */\n      swap2\n      pop\n        /* \"#utility.yul\":12430:12433   */\n      dup3\n        /* \"#utility.yul\":12427:12428   */\n      0x02\n        /* \"#utility.yul\":12423:12434   */\n      mul\n        /* \"#utility.yul\":12417:12421   */\n      dup3\n        /* \"#utility.yul\":12414:12435   */\n      or\n        /* \"#utility.yul\":12406:12435   */\n      swap1\n      pop\n        /* \"#utility.yul\":12146:12441   */\n      swap3\n      swap2\n      pop\n      pop\n      jump\t// out\n        /* \"#utility.yul\":12446:13841   */\n    tag_25:\n        /* \"#utility.yul\":12563:12600   */\n      tag_209\n        /* \"#utility.yul\":12596:12599   */\n      dup3\n        /* \"#utility.yul\":12563:12600   */\n      tag_55\n      jump\t// in\n    tag_209:\n        /* \"#utility.yul\":12665:12683   */\n      0xffffffffffffffff\n        /* \"#utility.yul\":12657:12663   */\n      dup2\n        /* \"#utility.yul\":12654:12684   */\n      gt\n        /* \"#utility.yul\":12651:12707   */\n      iszero\n      tag_210\n      jumpi\n        /* \"#utility.yul\":12687:12705   */\n      tag_211\n      tag_47\n      jump\t// in\n    tag_211:\n        /* \"#utility.yul\":12651:12707   */\n    tag_210:\n        /* \"#utility.yul\":12731:12769   */\n      tag_212\n        /* \"#utility.yul\":12763:12767   */\n      dup3\n        /* \"#utility.yul\":12757:12768   */\n      sload\n        /* \"#utility.yul\":12731:12769   */\n      tag_28\n      jump\t// in\n    tag_212:\n        /* \"#utility.yul\":12816:12883   */\n      tag_213\n        /* \"#utility.yul\":12876:12882   */\n      dup3\n        /* \"#utility.yul\":12868:12874   */\n      dup3\n        /* \"#utility.yul\":12862:12866   */\n      dup6\n        /* \"#utility.yul\":12816:12883   */\n      tag_77\n      jump\t// in\n    tag_213:\n        /* \"#utility.yul\":12910:12911   */\n      0x00\n        /* \"#utility.yul\":12934:12938   */\n      0x20\n        /* \"#utility.yul\":12921:12938   */\n      swap1\n      pop\n        /* \"#utility.yul\":12966:12968   */\n      0x1f\n        /* \"#utility.yul\":12958:12964   */\n      dup4\n        /* \"#utility.yul\":12955:12969   */\n      gt\n        /* \"#utility.yul\":12983:12984   */\n      0x01\n        /* \"#utility.yul\":12978:13596   */\n      dup2\n      eq\n      tag_215\n      jumpi\n        /* \"#utility.yul\":13640:13641   */\n      0x00\n        /* \"#utility.yul\":13657:13663   */\n      dup5\n        /* \"#utility.yul\":13654:13731   */\n      iszero\n      tag_216\n      jumpi\n        /* \"#utility.yul\":13706:13715   */\n      dup3\n        /* \"#utility.yul\":13701:13704   */\n      dup8\n        /* \"#utility.yul\":13697:13716   */\n      add\n        /* \"#utility.yul\":13691:13717   */\n      mload\n        /* \"#utility.yul\":13682:13717   */\n      swap1\n      pop\n        /* \"#utility.yul\":13654:13731   */\n    tag_216:\n        /* \"#utility.yul\":13757:13824   */\n      tag_217\n        /* \"#utility.yul\":13817:13823   */\n      dup6\n        /* \"#utility.yul\":13810:13815   */\n      dup3\n        /* \"#utility.yul\":13757:13824   */\n      tag_80\n      jump\t// in\n    tag_217:\n        /* \"#utility.yul\":13751:13755   */\n      dup7\n        /* \"#utility.yul\":13744:13825   */\n      sstore\n        /* \"#utility.yul\":13613:13835   */\n      pop\n        /* \"#utility.yul\":12948:13835   */\n      jump(tag_214)\n        /* \"#utility.yul\":12978:13596   */\n    tag_215:\n        /* \"#utility.yul\":13030:13034   */\n      0x1f\n        /* \"#utility.yul\":13026:13035   */\n      not\n        /* \"#utility.yul\":13018:13024   */\n      dup5\n        /* \"#utility.yul\":13014:13036   */\n      and\n        /* \"#utility.yul\":13064:13101   */\n      tag_218\n        /* \"#utility.yul\":13096:13100   */\n      dup7\n        /* \"#utility.yul\":13064:13101   */\n      tag_66\n      jump\t// in\n    tag_218:\n        /* \"#utility.yul\":13123:13124   */\n      0x00\n        /* \"#utility.yul\":13137:13345   */\n    tag_219:\n        /* \"#utility.yul\":13151:13158   */\n      dup3\n        /* \"#utility.yul\":13148:13149   */\n      dup2\n        /* \"#utility.yul\":13145:13159   */\n      lt\n        /* \"#utility.yul\":13137:13345   */\n      iszero\n      tag_221\n      jumpi\n        /* \"#utility.yul\":13230:13239   */\n      dup5\n        /* \"#utility.yul\":13225:13228   */\n      dup10\n        /* \"#utility.yul\":13221:13240   */\n      add\n        /* \"#utility.yul\":13215:13241   */\n      mload\n        /* \"#utility.yul\":13207:13213   */\n      dup3\n        /* \"#utility.yul\":13200:13242   */\n      sstore\n        /* \"#utility.yul\":13281:13282   */\n      0x01\n        /* \"#utility.yul\":13273:13279   */\n      dup3\n        /* \"#utility.yul\":13269:13283   */\n      add\n        /* \"#utility.yul\":13259:13283   */\n      swap2\n      pop\n        /* \"#utility.yul\":13328:13330   */\n      0x20\n        /* \"#utility.yul\":13317:13326   */\n      dup6\n        /* \"#utility.yul\":13313:13331   */\n      add\n        /* \"#utility.yul\":13300:13331   */\n      swap5\n      pop\n        /* \"#utility.yul\":13174:13178   */\n      0x20\n        /* \"#utility.yul\":13171:13172   */\n      dup2\n        /* \"#utility.yul\":13167:13179   */\n      add\n        /* \"#utility.yul\":13162:13179   */\n      swap1\n      pop\n        /* \"#utility.yul\":13137:13345   */\n      jump(tag_219)\n    tag_221:\n        /* \"#utility.yul\":13373:13379   */\n      dup7\n        /* \"#utility.yul\":13364:13371   */\n      dup4\n        /* \"#utility.yul\":13361:13380   */\n      lt\n        /* \"#utility.yul\":13358:13537   */\n      iszero\n      tag_222\n      jumpi\n        /* \"#utility.yul\":13431:13440   */\n      dup5\n        /* \"#utility.yul\":13426:13429   */\n      dup10\n        /* \"#utility.yul\":13422:13441   */\n      add\n        /* \"#utility.yul\":13416:13442   */\n      mload\n        /* \"#utility.yul\":13474:13522   */\n      tag_223\n        /* \"#utility.yul\":13516:13520   */\n      0x1f\n        /* \"#utility.yul\":13508:13514   */\n      dup10\n        /* \"#utility.yul\":13504:13521   */\n      and\n        /* \"#utility.yul\":13493:13502   */\n      dup3\n        /* \"#utility.yul\":13474:13522   */\n      tag_79\n      jump\t// in\n    tag_223:\n        /* \"#utility.yul\":13466:13472   */\n      dup4\n        /* \"#utility.yul\":13459:13523   */\n      sstore\n        /* \"#utility.yul\":13381:13537   */\n      pop\n        /* \"#utility.yul\":13358:13537   */\n    tag_222:\n        /* \"#utility.yul\":13583:13584   */\n      0x01\n        /* \"#utility.yul\":13579:13580   */\n      0x02\n        /* \"#utility.yul\":13571:13577   */\n      dup9\n        /* \"#utility.yul\":13567:13581   */\n      mul\n        /* \"#utility.yul\":13563:13585   */\n      add\n        /* \"#utility.yul\":13557:13561   */\n      dup9\n        /* \"#utility.yul\":13550:13586   */\n      sstore\n        /* \"#utility.yul\":12985:13596   */\n      pop\n      pop\n      pop\n        /* \"#utility.yul\":12948:13835   */\n    tag_214:\n      pop\n        /* \"#utility.yul\":12538:13841   */\n      pop\n      pop\n      pop\n        /* \"#utility.yul\":12446:13841   */\n      pop\n      pop\n      jump\t// out\n\n    auxdata: 0xa26469706673582212203f3ce35cc089622d98c2819131ae52a90a3f79031069f0774529d0a9a289866664736f6c63430008180033\n}\n",
				"bytecode": {
					"linkReferences": {},
					"object": "608060405234801561000f575f80fd5b50610a498061001d5f395ff3fe608060405234801561000f575f80fd5b5060043610610034575f3560e01c80634ced04281461003857806359ca098b14610054575b5f80fd5b610052600480360381019061004d919061047b565b610076565b005b61005c6101cd565b60405161006d9594939291906105b3565b60405180910390f35b5f85116100b8576040517f08c379a00000000000000000000000000000000000000000000000000000000081526004016100af9061065c565b60405180910390fd5b5f8110156100fb576040517f08c379a00000000000000000000000000000000000000000000000000000000081526004016100f2906106c4565b60405180910390fd5b633b9aca00821015801561011457506402540be3ff8211155b610153576040517f08c379a000000000000000000000000000000000000000000000000000000000815260040161014a9061072c565b60405180910390fd5b6040518060a00160405280868152602001858152602001848152602001838152602001828152505f80820151815f015560208201518160010190816101989190610944565b5060408201518160020190816101ae9190610944565b5060608201518160030155608082015181600401559050505050505050565b5f805f0154908060010180546101e290610777565b80601f016020809104026020016040519081016040528092919081815260200182805461020e90610777565b80156102595780601f1061023057610100808354040283529160200191610259565b820191905f5260205f20905b81548152906001019060200180831161023c57829003601f168201915b50505050509080600201805461026e90610777565b80601f016020809104026020016040519081016040528092919081815260200182805461029a90610777565b80156102e55780601f106102bc576101008083540402835291602001916102e5565b820191905f5260205f20905b8154815290600101906020018083116102c857829003601f168201915b5050505050908060030154908060040154905085565b5f604051905090565b5f80fd5b5f80fd5b5f819050919050565b61031e8161030c565b8114610328575f80fd5b50565b5f8135905061033981610315565b92915050565b5f80fd5b5f80fd5b5f601f19601f8301169050919050565b7f4e487b71000000000000000000000000000000000000000000000000000000005f52604160045260245ffd5b61038d82610347565b810181811067ffffffffffffffff821117156103ac576103ab610357565b5b80604052505050565b5f6103be6102fb565b90506103ca8282610384565b919050565b5f67ffffffffffffffff8211156103e9576103e8610357565b5b6103f282610347565b9050602081019050919050565b828183375f83830152505050565b5f61041f61041a846103cf565b6103b5565b90508281526020810184848401111561043b5761043a610343565b5b6104468482856103ff565b509392505050565b5f82601f8301126104625761046161033f565b5b813561047284826020860161040d565b91505092915050565b5f805f805f60a0868803121561049457610493610304565b5b5f6104a18882890161032b565b955050602086013567ffffffffffffffff8111156104c2576104c1610308565b5b6104ce8882890161044e565b945050604086013567ffffffffffffffff8111156104ef576104ee610308565b5b6104fb8882890161044e565b935050606061050c8882890161032b565b925050608061051d8882890161032b565b9150509295509295909350565b6105338161030c565b82525050565b5f81519050919050565b5f82825260208201905092915050565b5f5b83811015610570578082015181840152602081019050610555565b5f8484015250505050565b5f61058582610539565b61058f8185610543565b935061059f818560208601610553565b6105a881610347565b840191505092915050565b5f60a0820190506105c65f83018861052a565b81810360208301526105d8818761057b565b905081810360408301526105ec818661057b565b90506105fb606083018561052a565b610608608083018461052a565b9695505050505050565b7f496e76616c696420726f6c6c206e756d626572000000000000000000000000005f82015250565b5f610646601383610543565b915061065182610612565b602082019050919050565b5f6020820190508181035f8301526106738161063a565b9050919050565b7f496e76616c696420746f74616c206d61726b00000000000000000000000000005f82015250565b5f6106ae601283610543565b91506106b98261067a565b602082019050919050565b5f6020820190508181035f8301526106db816106a2565b9050919050565b7f496e76616c6964206d6f62696c65206e756d62657200000000000000000000005f82015250565b5f610716601583610543565b9150610721826106e2565b602082019050919050565b5f6020820190508181035f8301526107438161070a565b9050919050565b7f4e487b71000000000000000000000000000000000000000000000000000000005f52602260045260245ffd5b5f600282049050600182168061078e57607f821691505b6020821081036107a1576107a061074a565b5b50919050565b5f819050815f5260205f209050919050565b5f6020601f8301049050919050565b5f82821b905092915050565b5f600883026108037fffffffffffffffffffffffffffffffffffffffffffffffffffffffffffffffff826107c8565b61080d86836107c8565b95508019841693508086168417925050509392505050565b5f819050919050565b5f61084861084361083e8461030c565b610825565b61030c565b9050919050565b5f819050919050565b6108618361082e565b61087561086d8261084f565b8484546107d4565b825550505050565b5f90565b61088961087d565b610894818484610858565b505050565b5b818110156108b7576108ac5f82610881565b60018101905061089a565b5050565b601f8211156108fc576108cd816107a7565b6108d6846107b9565b810160208510156108e5578190505b6108f96108f1856107b9565b830182610899565b50505b505050565b5f82821c905092915050565b5f61091c5f1984600802610901565b1980831691505092915050565b5f610934838361090d565b9150826002028217905092915050565b61094d82610539565b67ffffffffffffffff81111561096657610965610357565b5b6109708254610777565b61097b8282856108bb565b5f60209050601f8311600181146109ac575f841561099a578287015190505b6109a48582610929565b865550610a0b565b601f1984166109ba866107a7565b5f5b828110156109e1578489015182556001820191506020850194506020810190506109bc565b868310156109fe57848901516109fa601f89168261090d565b8355505b6001600288020188555050505b50505050505056fea26469706673582212203f3ce35cc089622d98c2819131ae52a90a3f79031069f0774529d0a9a289866664736f6c63430008180033",
					"opcodes": "PUSH1 0x80 PUSH1 0x40 MSTORE CALLVALUE DUP1 ISZERO PUSH2 0xF JUMPI PUSH0 DUP1 REVERT JUMPDEST POP PUSH2 0xA49 DUP1 PUSH2 0x1D PUSH0 CODECOPY PUSH0 RETURN INVALID PUSH1 0x80 PUSH1 0x40 MSTORE CALLVALUE DUP1 ISZERO PUSH2 0xF JUMPI PUSH0 DUP1 REVERT JUMPDEST POP PUSH1 0x4 CALLDATASIZE LT PUSH2 0x34 JUMPI PUSH0 CALLDATALOAD PUSH1 0xE0 SHR DUP1 PUSH4 0x4CED0428 EQ PUSH2 0x38 JUMPI DUP1 PUSH4 0x59CA098B EQ PUSH2 0x54 JUMPI JUMPDEST PUSH0 DUP1 REVERT JUMPDEST PUSH2 0x52 PUSH1 0x4 DUP1 CALLDATASIZE SUB DUP2 ADD SWAP1 PUSH2 0x4D SWAP2 SWAP1 PUSH2 0x47B JUMP JUMPDEST PUSH2 0x76 JUMP JUMPDEST STOP JUMPDEST PUSH2 0x5C PUSH2 0x1CD JUMP JUMPDEST PUSH1 0x40 MLOAD PUSH2 0x6D SWAP6 SWAP5 SWAP4 SWAP3 SWAP2 SWAP1 PUSH2 0x5B3 JUMP JUMPDEST PUSH1 0x40 MLOAD DUP1 SWAP2 SUB SWAP1 RETURN JUMPDEST PUSH0 DUP6 GT PUSH2 0xB8 JUMPI PUSH1 0x40 MLOAD PUSH32 0x8C379A000000000000000000000000000000000000000000000000000000000 DUP2 MSTORE PUSH1 0x4 ADD PUSH2 0xAF SWAP1 PUSH2 0x65C JUMP JUMPDEST PUSH1 0x40 MLOAD DUP1 SWAP2 SUB SWAP1 REVERT JUMPDEST PUSH0 DUP2 LT ISZERO PUSH2 0xFB JUMPI PUSH1 0x40 MLOAD PUSH32 0x8C379A000000000000000000000000000000000000000000000000000000000 DUP2 MSTORE PUSH1 0x4 ADD PUSH2 0xF2 SWAP1 PUSH2 0x6C4 JUMP JUMPDEST PUSH1 0x40 MLOAD DUP1 SWAP2 SUB SWAP1 REVERT JUMPDEST PUSH4 0x3B9ACA00 DUP3 LT ISZERO DUP1 ISZERO PUSH2 0x114 JUMPI POP PUSH5 0x2540BE3FF DUP3 GT ISZERO JUMPDEST PUSH2 0x153 JUMPI PUSH1 0x40 MLOAD PUSH32 0x8C379A000000000000000000000000000000000000000000000000000000000 DUP2 MSTORE PUSH1 0x4 ADD PUSH2 0x14A SWAP1 PUSH2 0x72C JUMP JUMPDEST PUSH1 0x40 MLOAD DUP1 SWAP2 SUB SWAP1 REVERT JUMPDEST PUSH1 0x40 MLOAD DUP1 PUSH1 0xA0 ADD PUSH1 0x40 MSTORE DUP1 DUP7 DUP2 MSTORE PUSH1 0x20 ADD DUP6 DUP2 MSTORE PUSH1 0x20 ADD DUP5 DUP2 MSTORE PUSH1 0x20 ADD DUP4 DUP2 MSTORE PUSH1 0x20 ADD DUP3 DUP2 MSTORE POP PUSH0 DUP1 DUP3 ADD MLOAD DUP2 PUSH0 ADD SSTORE PUSH1 0x20 DUP3 ADD MLOAD DUP2 PUSH1 0x1 ADD SWAP1 DUP2 PUSH2 0x198 SWAP2 SWAP1 PUSH2 0x944 JUMP JUMPDEST POP PUSH1 0x40 DUP3 ADD MLOAD DUP2 PUSH1 0x2 ADD SWAP1 DUP2 PUSH2 0x1AE SWAP2 SWAP1 PUSH2 0x944 JUMP JUMPDEST POP PUSH1 0x60 DUP3 ADD MLOAD DUP2 PUSH1 0x3 ADD SSTORE PUSH1 0x80 DUP3 ADD MLOAD DUP2 PUSH1 0x4 ADD SSTORE SWAP1 POP POP POP POP POP POP POP JUMP JUMPDEST PUSH0 DUP1 PUSH0 ADD SLOAD SWAP1 DUP1 PUSH1 0x1 ADD DUP1 SLOAD PUSH2 0x1E2 SWAP1 PUSH2 0x777 JUMP JUMPDEST DUP1 PUSH1 0x1F ADD PUSH1 0x20 DUP1 SWAP2 DIV MUL PUSH1 0x20 ADD PUSH1 0x40 MLOAD SWAP1 DUP2 ADD PUSH1 0x40 MSTORE DUP1 SWAP3 SWAP2 SWAP1 DUP2 DUP2 MSTORE PUSH1 0x20 ADD DUP3 DUP1 SLOAD PUSH2 0x20E SWAP1 PUSH2 0x777 JUMP JUMPDEST DUP1 ISZERO PUSH2 0x259 JUMPI DUP1 PUSH1 0x1F LT PUSH2 0x230 JUMPI PUSH2 0x100 DUP1 DUP4 SLOAD DIV MUL DUP4 MSTORE SWAP2 PUSH1 0x20 ADD SWAP2 PUSH2 0x259 JUMP JUMPDEST DUP3 ADD SWAP2 SWAP1 PUSH0 MSTORE PUSH1 0x20 PUSH0 KECCAK256 SWAP1 JUMPDEST DUP2 SLOAD DUP2 MSTORE SWAP1 PUSH1 0x1 ADD SWAP1 PUSH1 0x20 ADD DUP1 DUP4 GT PUSH2 0x23C JUMPI DUP3 SWAP1 SUB PUSH1 0x1F AND DUP3 ADD SWAP2 JUMPDEST POP POP POP POP POP SWAP1 DUP1 PUSH1 0x2 ADD DUP1 SLOAD PUSH2 0x26E SWAP1 PUSH2 0x777 JUMP JUMPDEST DUP1 PUSH1 0x1F ADD PUSH1 0x20 DUP1 SWAP2 DIV MUL PUSH1 0x20 ADD PUSH1 0x40 MLOAD SWAP1 DUP2 ADD PUSH1 0x40 MSTORE DUP1 SWAP3 SWAP2 SWAP1 DUP2 DUP2 MSTORE PUSH1 0x20 ADD DUP3 DUP1 SLOAD PUSH2 0x29A SWAP1 PUSH2 0x777 JUMP JUMPDEST DUP1 ISZERO PUSH2 0x2E5 JUMPI DUP1 PUSH1 0x1F LT PUSH2 0x2BC JUMPI PUSH2 0x100 DUP1 DUP4 SLOAD DIV MUL DUP4 MSTORE SWAP2 PUSH1 0x20 ADD SWAP2 PUSH2 0x2E5 JUMP JUMPDEST DUP3 ADD SWAP2 SWAP1 PUSH0 MSTORE PUSH1 0x20 PUSH0 KECCAK256 SWAP1 JUMPDEST DUP2 SLOAD DUP2 MSTORE SWAP1 PUSH1 0x1 ADD SWAP1 PUSH1 0x20 ADD DUP1 DUP4 GT PUSH2 0x2C8 JUMPI DUP3 SWAP1 SUB PUSH1 0x1F AND DUP3 ADD SWAP2 JUMPDEST POP POP POP POP POP SWAP1 DUP1 PUSH1 0x3 ADD SLOAD SWAP1 DUP1 PUSH1 0x4 ADD SLOAD SWAP1 POP DUP6 JUMP JUMPDEST PUSH0 PUSH1 0x40 MLOAD SWAP1 POP SWAP1 JUMP JUMPDEST PUSH0 DUP1 REVERT JUMPDEST PUSH0 DUP1 REVERT JUMPDEST PUSH0 DUP2 SWAP1 POP SWAP2 SWAP1 POP JUMP JUMPDEST PUSH2 0x31E DUP2 PUSH2 0x30C JUMP JUMPDEST DUP2 EQ PUSH2 0x328 JUMPI PUSH0 DUP1 REVERT JUMPDEST POP JUMP JUMPDEST PUSH0 DUP2 CALLDATALOAD SWAP1 POP PUSH2 0x339 DUP2 PUSH2 0x315 JUMP JUMPDEST SWAP3 SWAP2 POP POP JUMP JUMPDEST PUSH0 DUP1 REVERT JUMPDEST PUSH0 DUP1 REVERT JUMPDEST PUSH0 PUSH1 0x1F NOT PUSH1 0x1F DUP4 ADD AND SWAP1 POP SWAP2 SWAP1 POP JUMP JUMPDEST PUSH32 0x4E487B7100000000000000000000000000000000000000000000000000000000 PUSH0 MSTORE PUSH1 0x41 PUSH1 0x4 MSTORE PUSH1 0x24 PUSH0 REVERT JUMPDEST PUSH2 0x38D DUP3 PUSH2 0x347 JUMP JUMPDEST DUP2 ADD DUP2 DUP2 LT PUSH8 0xFFFFFFFFFFFFFFFF DUP3 GT OR ISZERO PUSH2 0x3AC JUMPI PUSH2 0x3AB PUSH2 0x357 JUMP JUMPDEST JUMPDEST DUP1 PUSH1 0x40 MSTORE POP POP POP JUMP JUMPDEST PUSH0 PUSH2 0x3BE PUSH2 0x2FB JUMP JUMPDEST SWAP1 POP PUSH2 0x3CA DUP3 DUP3 PUSH2 0x384 JUMP JUMPDEST SWAP2 SWAP1 POP JUMP JUMPDEST PUSH0 PUSH8 0xFFFFFFFFFFFFFFFF DUP3 GT ISZERO PUSH2 0x3E9 JUMPI PUSH2 0x3E8 PUSH2 0x357 JUMP JUMPDEST JUMPDEST PUSH2 0x3F2 DUP3 PUSH2 0x347 JUMP JUMPDEST SWAP1 POP PUSH1 0x20 DUP2 ADD SWAP1 POP SWAP2 SWAP1 POP JUMP JUMPDEST DUP3 DUP2 DUP4 CALLDATACOPY PUSH0 DUP4 DUP4 ADD MSTORE POP POP POP JUMP JUMPDEST PUSH0 PUSH2 0x41F PUSH2 0x41A DUP5 PUSH2 0x3CF JUMP JUMPDEST PUSH2 0x3B5 JUMP JUMPDEST SWAP1 POP DUP3 DUP2 MSTORE PUSH1 0x20 DUP2 ADD DUP5 DUP5 DUP5 ADD GT ISZERO PUSH2 0x43B JUMPI PUSH2 0x43A PUSH2 0x343 JUMP JUMPDEST JUMPDEST PUSH2 0x446 DUP5 DUP3 DUP6 PUSH2 0x3FF JUMP JUMPDEST POP SWAP4 SWAP3 POP POP POP JUMP JUMPDEST PUSH0 DUP3 PUSH1 0x1F DUP4 ADD SLT PUSH2 0x462 JUMPI PUSH2 0x461 PUSH2 0x33F JUMP JUMPDEST JUMPDEST DUP2 CALLDATALOAD PUSH2 0x472 DUP5 DUP3 PUSH1 0x20 DUP7 ADD PUSH2 0x40D JUMP JUMPDEST SWAP2 POP POP SWAP3 SWAP2 POP POP JUMP JUMPDEST PUSH0 DUP1 PUSH0 DUP1 PUSH0 PUSH1 0xA0 DUP7 DUP9 SUB SLT ISZERO PUSH2 0x494 JUMPI PUSH2 0x493 PUSH2 0x304 JUMP JUMPDEST JUMPDEST PUSH0 PUSH2 0x4A1 DUP9 DUP3 DUP10 ADD PUSH2 0x32B JUMP JUMPDEST SWAP6 POP POP PUSH1 0x20 DUP7 ADD CALLDATALOAD PUSH8 0xFFFFFFFFFFFFFFFF DUP2 GT ISZERO PUSH2 0x4C2 JUMPI PUSH2 0x4C1 PUSH2 0x308 JUMP JUMPDEST JUMPDEST PUSH2 0x4CE DUP9 DUP3 DUP10 ADD PUSH2 0x44E JUMP JUMPDEST SWAP5 POP POP PUSH1 0x40 DUP7 ADD CALLDATALOAD PUSH8 0xFFFFFFFFFFFFFFFF DUP2 GT ISZERO PUSH2 0x4EF JUMPI PUSH2 0x4EE PUSH2 0x308 JUMP JUMPDEST JUMPDEST PUSH2 0x4FB DUP9 DUP3 DUP10 ADD PUSH2 0x44E JUMP JUMPDEST SWAP4 POP POP PUSH1 0x60 PUSH2 0x50C DUP9 DUP3 DUP10 ADD PUSH2 0x32B JUMP JUMPDEST SWAP3 POP POP PUSH1 0x80 PUSH2 0x51D DUP9 DUP3 DUP10 ADD PUSH2 0x32B JUMP JUMPDEST SWAP2 POP POP SWAP3 SWAP6 POP SWAP3 SWAP6 SWAP1 SWAP4 POP JUMP JUMPDEST PUSH2 0x533 DUP2 PUSH2 0x30C JUMP JUMPDEST DUP3 MSTORE POP POP JUMP JUMPDEST PUSH0 DUP2 MLOAD SWAP1 POP SWAP2 SWAP1 POP JUMP JUMPDEST PUSH0 DUP3 DUP3 MSTORE PUSH1 0x20 DUP3 ADD SWAP1 POP SWAP3 SWAP2 POP POP JUMP JUMPDEST PUSH0 JUMPDEST DUP4 DUP2 LT ISZERO PUSH2 0x570 JUMPI DUP1 DUP3 ADD MLOAD DUP2 DUP5 ADD MSTORE PUSH1 0x20 DUP2 ADD SWAP1 POP PUSH2 0x555 JUMP JUMPDEST PUSH0 DUP5 DUP5 ADD MSTORE POP POP POP POP JUMP JUMPDEST PUSH0 PUSH2 0x585 DUP3 PUSH2 0x539 JUMP JUMPDEST PUSH2 0x58F DUP2 DUP6 PUSH2 0x543 JUMP JUMPDEST SWAP4 POP PUSH2 0x59F DUP2 DUP6 PUSH1 0x20 DUP7 ADD PUSH2 0x553 JUMP JUMPDEST PUSH2 0x5A8 DUP2 PUSH2 0x347 JUMP JUMPDEST DUP5 ADD SWAP2 POP POP SWAP3 SWAP2 POP POP JUMP JUMPDEST PUSH0 PUSH1 0xA0 DUP3 ADD SWAP1 POP PUSH2 0x5C6 PUSH0 DUP4 ADD DUP9 PUSH2 0x52A JUMP JUMPDEST DUP2 DUP2 SUB PUSH1 0x20 DUP4 ADD MSTORE PUSH2 0x5D8 DUP2 DUP8 PUSH2 0x57B JUMP JUMPDEST SWAP1 POP DUP2 DUP2 SUB PUSH1 0x40 DUP4 ADD MSTORE PUSH2 0x5EC DUP2 DUP7 PUSH2 0x57B JUMP JUMPDEST SWAP1 POP PUSH2 0x5FB PUSH1 0x60 DUP4 ADD DUP6 PUSH2 0x52A JUMP JUMPDEST PUSH2 0x608 PUSH1 0x80 DUP4 ADD DUP5 PUSH2 0x52A JUMP JUMPDEST SWAP7 SWAP6 POP POP POP POP POP POP JUMP JUMPDEST PUSH32 0x496E76616C696420726F6C6C206E756D62657200000000000000000000000000 PUSH0 DUP3 ADD MSTORE POP JUMP JUMPDEST PUSH0 PUSH2 0x646 PUSH1 0x13 DUP4 PUSH2 0x543 JUMP JUMPDEST SWAP2 POP PUSH2 0x651 DUP3 PUSH2 0x612 JUMP JUMPDEST PUSH1 0x20 DUP3 ADD SWAP1 POP SWAP2 SWAP1 POP JUMP JUMPDEST PUSH0 PUSH1 0x20 DUP3 ADD SWAP1 POP DUP2 DUP2 SUB PUSH0 DUP4 ADD MSTORE PUSH2 0x673 DUP2 PUSH2 0x63A JUMP JUMPDEST SWAP1 POP SWAP2 SWAP1 POP JUMP JUMPDEST PUSH32 0x496E76616C696420746F74616C206D61726B0000000000000000000000000000 PUSH0 DUP3 ADD MSTORE POP JUMP JUMPDEST PUSH0 PUSH2 0x6AE PUSH1 0x12 DUP4 PUSH2 0x543 JUMP JUMPDEST SWAP2 POP PUSH2 0x6B9 DUP3 PUSH2 0x67A JUMP JUMPDEST PUSH1 0x20 DUP3 ADD SWAP1 POP SWAP2 SWAP1 POP JUMP JUMPDEST PUSH0 PUSH1 0x20 DUP3 ADD SWAP1 POP DUP2 DUP2 SUB PUSH0 DUP4 ADD MSTORE PUSH2 0x6DB DUP2 PUSH2 0x6A2 JUMP JUMPDEST SWAP1 POP SWAP2 SWAP1 POP JUMP JUMPDEST PUSH32 0x496E76616C6964206D6F62696C65206E756D6265720000000000000000000000 PUSH0 DUP3 ADD MSTORE POP JUMP JUMPDEST PUSH0 PUSH2 0x716 PUSH1 0x15 DUP4 PUSH2 0x543 JUMP JUMPDEST SWAP2 POP PUSH2 0x721 DUP3 PUSH2 0x6E2 JUMP JUMPDEST PUSH1 0x20 DUP3 ADD SWAP1 POP SWAP2 SWAP1 POP JUMP JUMPDEST PUSH0 PUSH1 0x20 DUP3 ADD SWAP1 POP DUP2 DUP2 SUB PUSH0 DUP4 ADD MSTORE PUSH2 0x743 DUP2 PUSH2 0x70A JUMP JUMPDEST SWAP1 POP SWAP2 SWAP1 POP JUMP JUMPDEST PUSH32 0x4E487B7100000000000000000000000000000000000000000000000000000000 PUSH0 MSTORE PUSH1 0x22 PUSH1 0x4 MSTORE PUSH1 0x24 PUSH0 REVERT JUMPDEST PUSH0 PUSH1 0x2 DUP3 DIV SWAP1 POP PUSH1 0x1 DUP3 AND DUP1 PUSH2 0x78E JUMPI PUSH1 0x7F DUP3 AND SWAP2 POP JUMPDEST PUSH1 0x20 DUP3 LT DUP2 SUB PUSH2 0x7A1 JUMPI PUSH2 0x7A0 PUSH2 0x74A JUMP JUMPDEST JUMPDEST POP SWAP2 SWAP1 POP JUMP JUMPDEST PUSH0 DUP2 SWAP1 POP DUP2 PUSH0 MSTORE PUSH1 0x20 PUSH0 KECCAK256 SWAP1 POP SWAP2 SWAP1 POP JUMP JUMPDEST PUSH0 PUSH1 0x20 PUSH1 0x1F DUP4 ADD DIV SWAP1 POP SWAP2 SWAP1 POP JUMP JUMPDEST PUSH0 DUP3 DUP3 SHL SWAP1 POP SWAP3 SWAP2 POP POP JUMP JUMPDEST PUSH0 PUSH1 0x8 DUP4 MUL PUSH2 0x803 PUSH32 0xFFFFFFFFFFFFFFFFFFFFFFFFFFFFFFFFFFFFFFFFFFFFFFFFFFFFFFFFFFFFFFFF DUP3 PUSH2 0x7C8 JUMP JUMPDEST PUSH2 0x80D DUP7 DUP4 PUSH2 0x7C8 JUMP JUMPDEST SWAP6 POP DUP1 NOT DUP5 AND SWAP4 POP DUP1 DUP7 AND DUP5 OR SWAP3 POP POP POP SWAP4 SWAP3 POP POP POP JUMP JUMPDEST PUSH0 DUP2 SWAP1 POP SWAP2 SWAP1 POP JUMP JUMPDEST PUSH0 PUSH2 0x848 PUSH2 0x843 PUSH2 0x83E DUP5 PUSH2 0x30C JUMP JUMPDEST PUSH2 0x825 JUMP JUMPDEST PUSH2 0x30C JUMP JUMPDEST SWAP1 POP SWAP2 SWAP1 POP JUMP JUMPDEST PUSH0 DUP2 SWAP1 POP SWAP2 SWAP1 POP JUMP JUMPDEST PUSH2 0x861 DUP4 PUSH2 0x82E JUMP JUMPDEST PUSH2 0x875 PUSH2 0x86D DUP3 PUSH2 0x84F JUMP JUMPDEST DUP5 DUP5 SLOAD PUSH2 0x7D4 JUMP JUMPDEST DUP3 SSTORE POP POP POP POP JUMP JUMPDEST PUSH0 SWAP1 JUMP JUMPDEST PUSH2 0x889 PUSH2 0x87D JUMP JUMPDEST PUSH2 0x894 DUP2 DUP5 DUP5 PUSH2 0x858 JUMP JUMPDEST POP POP POP JUMP JUMPDEST JUMPDEST DUP2 DUP2 LT ISZERO PUSH2 0x8B7 JUMPI PUSH2 0x8AC PUSH0 DUP3 PUSH2 0x881 JUMP JUMPDEST PUSH1 0x1 DUP2 ADD SWAP1 POP PUSH2 0x89A JUMP JUMPDEST POP POP JUMP JUMPDEST PUSH1 0x1F DUP3 GT ISZERO PUSH2 0x8FC JUMPI PUSH2 0x8CD DUP2 PUSH2 0x7A7 JUMP JUMPDEST PUSH2 0x8D6 DUP5 PUSH2 0x7B9 JUMP JUMPDEST DUP2 ADD PUSH1 0x20 DUP6 LT ISZERO PUSH2 0x8E5 JUMPI DUP2 SWAP1 POP JUMPDEST PUSH2 0x8F9 PUSH2 0x8F1 DUP6 PUSH2 0x7B9 JUMP JUMPDEST DUP4 ADD DUP3 PUSH2 0x899 JUMP JUMPDEST POP POP JUMPDEST POP POP POP JUMP JUMPDEST PUSH0 DUP3 DUP3 SHR SWAP1 POP SWAP3 SWAP2 POP POP JUMP JUMPDEST PUSH0 PUSH2 0x91C PUSH0 NOT DUP5 PUSH1 0x8 MUL PUSH2 0x901 JUMP JUMPDEST NOT DUP1 DUP4 AND SWAP2 POP POP SWAP3 SWAP2 POP POP JUMP JUMPDEST PUSH0 PUSH2 0x934 DUP4 DUP4 PUSH2 0x90D JUMP JUMPDEST SWAP2 POP DUP3 PUSH1 0x2 MUL DUP3 OR SWAP1 POP SWAP3 SWAP2 POP POP JUMP JUMPDEST PUSH2 0x94D DUP3 PUSH2 0x539 JUMP JUMPDEST PUSH8 0xFFFFFFFFFFFFFFFF DUP2 GT ISZERO PUSH2 0x966 JUMPI PUSH2 0x965 PUSH2 0x357 JUMP JUMPDEST JUMPDEST PUSH2 0x970 DUP3 SLOAD PUSH2 0x777 JUMP JUMPDEST PUSH2 0x97B DUP3 DUP3 DUP6 PUSH2 0x8BB JUMP JUMPDEST PUSH0 PUSH1 0x20 SWAP1 POP PUSH1 0x1F DUP4 GT PUSH1 0x1 DUP2 EQ PUSH2 0x9AC JUMPI PUSH0 DUP5 ISZERO PUSH2 0x99A JUMPI DUP3 DUP8 ADD MLOAD SWAP1 POP JUMPDEST PUSH2 0x9A4 DUP6 DUP3 PUSH2 0x929 JUMP JUMPDEST DUP7 SSTORE POP PUSH2 0xA0B JUMP JUMPDEST PUSH1 0x1F NOT DUP5 AND PUSH2 0x9BA DUP7 PUSH2 0x7A7 JUMP JUMPDEST PUSH0 JUMPDEST DUP3 DUP2 LT ISZERO PUSH2 0x9E1 JUMPI DUP5 DUP10 ADD MLOAD DUP3 SSTORE PUSH1 0x1 DUP3 ADD SWAP2 POP PUSH1 0x20 DUP6 ADD SWAP5 POP PUSH1 0x20 DUP2 ADD SWAP1 POP PUSH2 0x9BC JUMP JUMPDEST DUP7 DUP4 LT ISZERO PUSH2 0x9FE JUMPI DUP5 DUP10 ADD MLOAD PUSH2 0x9FA PUSH1 0x1F DUP10 AND DUP3 PUSH2 0x90D JUMP JUMPDEST DUP4 SSTORE POP JUMPDEST PUSH1 0x1 PUSH1 0x2 DUP9 MUL ADD DUP9 SSTORE POP POP POP JUMPDEST POP POP POP POP POP POP JUMP INVALID LOG2 PUSH5 0x6970667358 0x22 SLT KECCAK256 EXTCODEHASH EXTCODECOPY 0xE3 TLOAD 0xC0 DUP10 PUSH3 0x2D98C2 DUP2 SWAP2 BALANCE 0xAE MSTORE 0xA9 EXP EXTCODEHASH PUSH26 0x31069F0774529D0A9A289866664736F6C634300081800330000 "
				},
				"gasEstimates": {
					"creation": {
						"codeDepositCost": "526600",
						"executionCost": "560",
						"totalCost": "527160"
					},
					"external": {
						"Student1()": "infinite",
						"setStruct(uint256,string,string,uint256,uint256)": "infinite"
					}
				},
				"methodIdentifiers": {
					"Student1()": "59ca098b",
					"setStruct(uint256,string,string,uint256,uint256)": "4ced0428"
				}
			},
			"storageLayout": {
				"storage": [
					{
						"astId": 15,
						"contract": "struct.sol:StructExample",
						"label": "Student1",
						"offset": 0,
						"slot": "0",
						"type": "t_struct(student)12_storage"
					}
				],
				"types": {
					"t_string_storage": {
						"encoding": "bytes",
						"label": "string",
						"numberOfBytes": "32"
					},
					"t_struct(student)12_storage": {
						"encoding": "inplace",
						"label": "struct StructExample.student",
						"members": [
							{
								"astId": 3,
								"contract": "struct.sol:StructExample",
								"label": "RollNo",
								"offset": 0,
								"slot": "0",
								"type": "t_uint256"
							},
							{
								"astId": 5,
								"contract": "struct.sol:StructExample",
								"label": "Name",
								"offset": 0,
								"slot": "1",
								"type": "t_string_storage"
							},
							{
								"astId": 7,
								"contract": "struct.sol:StructExample",
								"label": "Email",
								"offset": 0,
								"slot": "2",
								"type": "t_string_storage"
							},
							{
								"astId": 9,
								"contract": "struct.sol:StructExample",
								"label": "Mobile",
								"offset": 0,
								"slot": "3",
								"type": "t_uint256"
							},
							{
								"astId": 11,
								"contract": "struct.sol:StructExample",
								"label": "TotalMark",
								"offset": 0,
								"slot": "4",
								"type": "t_uint256"
							}
						],
						"numberOfBytes": "160"
					},
					"t_uint256": {
						"encoding": "inplace",
						"label": "uint256",
						"numberOfBytes": "32"
					}
				}
			},
			"userdoc": {
				"kind": "user",
				"methods": {},
				"version": 1
			}
		}
	}
}