{
	"16thFeb.sol": {
		"day2": {
			"abi": [
				{
					"inputs": [],
					"name": "A",
					"outputs": [
						{
							"internalType": "uint256",
							"name": "",
							"type": "uint256"
						}
					],
					"stateMutability": "view",
					"type": "function"
				},
				{
					"inputs": [],
					"name": "B",
					"outputs": [
						{
							"internalType": "uint256",
							"name": "",
							"type": "uint256"
						}
					],
					"stateMutability": "view",
					"type": "function"
				},
				{
					"inputs": [],
					"name": "C",
					"outputs": [
						{
							"internalType": "uint256",
							"name": "",
							"type": "uint256"
						}
					],
					"stateMutability": "view",
					"type": "function"
				},
				{
					"inputs": [],
					"name": "addFun1",
					"outputs": [],
					"stateMutability": "nonpayable",
					"type": "function"
				},
				{
					"inputs": [
						{
							"internalType": "uint256",
							"name": "a",
							"type": "uint256"
						},
						{
							"internalType": "uint256",
							"name": "b",
							"type": "uint256"
						}
					],
					"name": "addFun2",
					"outputs": [],
					"stateMutability": "nonpayable",
					"type": "function"
				},
				{
					"inputs": [],
					"name": "addFun3",
					"outputs": [
						{
							"internalType": "uint256",
							"name": "",
							"type": "uint256"
						}
					],
					"stateMutability": "view",
					"type": "function"
				},
				{
					"inputs": [
						{
							"internalType": "uint256",
							"name": "a",
							"type": "uint256"
						},
						{
							"internalType": "uint256",
							"name": "b",
							"type": "uint256"
						}
					],
					"name": "addFun4",
					"outputs": [
						{
							"internalType": "uint256",
							"name": "",
							"type": "uint256"
						}
					],
					"stateMutability": "pure",
					"type": "function"
				},
				{
					"inputs": [],
					"name": "getBlockNumber",
					"outputs": [
						{
							"internalType": "uint256",
							"name": "",
							"type": "uint256"
						}
					],
					"stateMutability": "view",
					"type": "function"
				},
				{
					"inputs": [],
					"name": "getTime",
					"outputs": [
						{
							"internalType": "uint256",
							"name": "",
							"type": "uint256"
						}
					],
					"stateMutability": "view",
					"type": "function"
				},
				{
					"inputs": [
						{
							"internalType": "uint256",
							"name": "_a",
							"type": "uint256"
						},
						{
							"internalType": "uint256",
							"name": "_b",
							"type": "uint256"
						}
					],
					"name": "setterA",
					"outputs": [],
					"stateMutability": "nonpayable",
					"type": "function"
				}
			],
			"devdoc": {
				"kind": "dev",
				"methods": {},
				"version": 1
			},
			"evm": {
				"assembly": "    /* \"16thFeb.sol\":57:704  contract day2 {... */\n  mstore(0x40, 0x80)\n  callvalue\n  dup1\n  iszero\n  tag_1\n  jumpi\n  0x00\n  dup1\n  revert\ntag_1:\n  pop\n  dataSize(sub_0)\n  dup1\n  dataOffset(sub_0)\n  0x00\n  codecopy\n  0x00\n  return\nstop\n\nsub_0: assembly {\n        /* \"16thFeb.sol\":57:704  contract day2 {... */\n      mstore(0x40, 0x80)\n      callvalue\n      dup1\n      iszero\n      tag_1\n      jumpi\n      0x00\n      dup1\n      revert\n    tag_1:\n      pop\n      jumpi(tag_2, lt(calldatasize, 0x04))\n      shr(0xe0, calldataload(0x00))\n      dup1\n      0x61d29989\n      gt\n      tag_13\n      jumpi\n      dup1\n      0x61d29989\n      eq\n      tag_8\n      jumpi\n      dup1\n      0x83dfe5fd\n      eq\n      tag_9\n      jumpi\n      dup1\n      0xa8cc8a39\n      eq\n      tag_10\n      jumpi\n      dup1\n      0xf446c1d0\n      eq\n      tag_11\n      jumpi\n      dup1\n      0xffd5a218\n      eq\n      tag_12\n      jumpi\n      jump(tag_2)\n    tag_13:\n      dup1\n      0x08d2f8ad\n      eq\n      tag_3\n      jumpi\n      dup1\n      0x32e7c5bf\n      eq\n      tag_4\n      jumpi\n      dup1\n      0x40de7b4a\n      eq\n      tag_5\n      jumpi\n      dup1\n      0x42cbb15c\n      eq\n      tag_6\n      jumpi\n      dup1\n      0x557ed1ba\n      eq\n      tag_7\n      jumpi\n    tag_2:\n      0x00\n      dup1\n      revert\n        /* \"16thFeb.sol\":137:216  function setterA(uint _a,uint _b) public  {... */\n    tag_3:\n      tag_14\n      0x04\n      dup1\n      calldatasize\n      sub\n      dup2\n      add\n      swap1\n      tag_15\n      swap2\n      swap1\n      tag_16\n      jump\t// in\n    tag_15:\n      tag_17\n      jump\t// in\n    tag_14:\n      stop\n        /* \"16thFeb.sol\":97:111  uint public  B */\n    tag_4:\n      tag_18\n      tag_19\n      jump\t// in\n    tag_18:\n      mload(0x40)\n      tag_20\n      swap2\n      swap1\n      tag_21\n      jump\t// in\n    tag_20:\n      mload(0x40)\n      dup1\n      swap2\n      sub\n      swap1\n      return\n        /* \"16thFeb.sol\":275:339  function addFun2(uint a ,uint b) public {... */\n    tag_5:\n      tag_22\n      0x04\n      dup1\n      calldatasize\n      sub\n      dup2\n      add\n      swap1\n      tag_23\n      swap2\n      swap1\n      tag_16\n      jump\t// in\n    tag_23:\n      tag_24\n      jump\t// in\n    tag_22:\n      stop\n        /* \"16thFeb.sol\":613:702  function getBlockNumber() public view returns (uint) {... */\n    tag_6:\n      tag_25\n      tag_26\n      jump\t// in\n    tag_25:\n      mload(0x40)\n      tag_27\n      swap2\n      swap1\n      tag_21\n      jump\t// in\n    tag_27:\n      mload(0x40)\n      dup1\n      swap2\n      sub\n      swap1\n      return\n        /* \"16thFeb.sol\":516:601  function getTime() public view returns (uint) {... */\n    tag_7:\n      tag_28\n      tag_29\n      jump\t// in\n    tag_28:\n      mload(0x40)\n      tag_30\n      swap2\n      swap1\n      tag_21\n      jump\t// in\n    tag_30:\n      mload(0x40)\n      dup1\n      swap2\n      sub\n      swap1\n      return\n        /* \"16thFeb.sol\":222:269  function addFun1() public {... */\n    tag_8:\n      tag_31\n      tag_32\n      jump\t// in\n    tag_31:\n      stop\n        /* \"16thFeb.sol\":117:130  uint public C */\n    tag_9:\n      tag_33\n      tag_34\n      jump\t// in\n    tag_33:\n      mload(0x40)\n      tag_35\n      swap2\n      swap1\n      tag_21\n      jump\t// in\n    tag_35:\n      mload(0x40)\n      dup1\n      swap2\n      sub\n      swap1\n      return\n        /* \"16thFeb.sol\":345:417  function addFun3() public view returns(uint) {... */\n    tag_10:\n      tag_36\n      tag_37\n      jump\t// in\n    tag_36:\n      mload(0x40)\n      tag_38\n      swap2\n      swap1\n      tag_21\n      jump\t// in\n    tag_38:\n      mload(0x40)\n      dup1\n      swap2\n      sub\n      swap1\n      return\n        /* \"16thFeb.sol\":77:91  uint public  A */\n    tag_11:\n      tag_39\n      tag_40\n      jump\t// in\n    tag_39:\n      mload(0x40)\n      tag_41\n      swap2\n      swap1\n      tag_21\n      jump\t// in\n    tag_41:\n      mload(0x40)\n      dup1\n      swap2\n      sub\n      swap1\n      return\n        /* \"16thFeb.sol\":423:510  function addFun4(uint a,uint b) public pure returns (uint) {... */\n    tag_12:\n      tag_42\n      0x04\n      dup1\n      calldatasize\n      sub\n      dup2\n      add\n      swap1\n      tag_43\n      swap2\n      swap1\n      tag_16\n      jump\t// in\n    tag_43:\n      tag_44\n      jump\t// in\n    tag_42:\n      mload(0x40)\n      tag_45\n      swap2\n      swap1\n      tag_21\n      jump\t// in\n    tag_45:\n      mload(0x40)\n      dup1\n      swap2\n      sub\n      swap1\n      return\n        /* \"16thFeb.sol\":137:216  function setterA(uint _a,uint _b) public  {... */\n    tag_17:\n        /* \"16thFeb.sol\":192:194  _a */\n      dup2\n        /* \"16thFeb.sol\":188:189  A */\n      0x00\n        /* \"16thFeb.sol\":188:194  A = _a */\n      dup2\n      swap1\n      sstore\n      pop\n        /* \"16thFeb.sol\":207:209  _b */\n      dup1\n        /* \"16thFeb.sol\":203:204  B */\n      0x01\n        /* \"16thFeb.sol\":203:209  B = _b */\n      dup2\n      swap1\n      sstore\n      pop\n        /* \"16thFeb.sol\":137:216  function setterA(uint _a,uint _b) public  {... */\n      pop\n      pop\n      jump\t// out\n        /* \"16thFeb.sol\":97:111  uint public  B */\n    tag_19:\n      sload(0x01)\n      dup2\n      jump\t// out\n        /* \"16thFeb.sol\":275:339  function addFun2(uint a ,uint b) public {... */\n    tag_24:\n        /* \"16thFeb.sol\":331:332  b */\n      dup1\n        /* \"16thFeb.sol\":329:330  a */\n      dup3\n        /* \"16thFeb.sol\":329:332  a+b */\n      tag_48\n      swap2\n      swap1\n      tag_49\n      jump\t// in\n    tag_48:\n        /* \"16thFeb.sol\":326:327  C */\n      0x02\n        /* \"16thFeb.sol\":326:332  C =a+b */\n      dup2\n      swap1\n      sstore\n      pop\n        /* \"16thFeb.sol\":275:339  function addFun2(uint a ,uint b) public {... */\n      pop\n      pop\n      jump\t// out\n        /* \"16thFeb.sol\":613:702  function getBlockNumber() public view returns (uint) {... */\n    tag_26:\n        /* \"16thFeb.sol\":660:664  uint */\n      0x00\n        /* \"16thFeb.sol\":683:695  block.number */\n      number\n        /* \"16thFeb.sol\":676:695  return block.number */\n      swap1\n      pop\n        /* \"16thFeb.sol\":613:702  function getBlockNumber() public view returns (uint) {... */\n      swap1\n      jump\t// out\n        /* \"16thFeb.sol\":516:601  function getTime() public view returns (uint) {... */\n    tag_29:\n        /* \"16thFeb.sol\":556:560  uint */\n      0x00\n        /* \"16thFeb.sol\":579:594  block.timestamp */\n      timestamp\n        /* \"16thFeb.sol\":572:594  return block.timestamp */\n      swap1\n      pop\n        /* \"16thFeb.sol\":516:601  function getTime() public view returns (uint) {... */\n      swap1\n      jump\t// out\n        /* \"16thFeb.sol\":222:269  function addFun1() public {... */\n    tag_32:\n        /* \"16thFeb.sol\":261:262  B */\n      sload(0x01)\n        /* \"16thFeb.sol\":259:260  A */\n      sload(0x00)\n        /* \"16thFeb.sol\":259:262  A+B */\n      tag_53\n      swap2\n      swap1\n      tag_49\n      jump\t// in\n    tag_53:\n        /* \"16thFeb.sol\":256:257  C */\n      0x02\n        /* \"16thFeb.sol\":256:262  C =A+B */\n      dup2\n      swap1\n      sstore\n      pop\n        /* \"16thFeb.sol\":222:269  function addFun1() public {... */\n      jump\t// out\n        /* \"16thFeb.sol\":117:130  uint public C */\n    tag_34:\n      sload(0x02)\n      dup2\n      jump\t// out\n        /* \"16thFeb.sol\":345:417  function addFun3() public view returns(uint) {... */\n    tag_37:\n        /* \"16thFeb.sol\":384:388  uint */\n      0x00\n        /* \"16thFeb.sol\":409:410  B */\n      sload(0x01)\n        /* \"16thFeb.sol\":407:408  A */\n      sload(0x00)\n        /* \"16thFeb.sol\":407:410  A+B */\n      tag_55\n      swap2\n      swap1\n      tag_49\n      jump\t// in\n    tag_55:\n        /* \"16thFeb.sol\":400:410  return A+B */\n      swap1\n      pop\n        /* \"16thFeb.sol\":345:417  function addFun3() public view returns(uint) {... */\n      swap1\n      jump\t// out\n        /* \"16thFeb.sol\":77:91  uint public  A */\n    tag_40:\n      sload(0x00)\n      dup2\n      jump\t// out\n        /* \"16thFeb.sol\":423:510  function addFun4(uint a,uint b) public pure returns (uint) {... */\n    tag_44:\n        /* \"16thFeb.sol\":476:480  uint */\n      0x00\n        /* \"16thFeb.sol\":502:503  b */\n      dup2\n        /* \"16thFeb.sol\":500:501  a */\n      dup4\n        /* \"16thFeb.sol\":500:503  a+b */\n      tag_57\n      swap2\n      swap1\n      tag_49\n      jump\t// in\n    tag_57:\n        /* \"16thFeb.sol\":493:503  return a+b */\n      swap1\n      pop\n        /* \"16thFeb.sol\":423:510  function addFun4(uint a,uint b) public pure returns (uint) {... */\n      swap3\n      swap2\n      pop\n      pop\n      jump\t// out\n        /* \"#utility.yul\":88:205   */\n    tag_59:\n        /* \"#utility.yul\":197:198   */\n      0x00\n        /* \"#utility.yul\":194:195   */\n      dup1\n        /* \"#utility.yul\":187:199   */\n      revert\n        /* \"#utility.yul\":334:411   */\n    tag_61:\n        /* \"#utility.yul\":371:378   */\n      0x00\n        /* \"#utility.yul\":400:405   */\n      dup2\n        /* \"#utility.yul\":389:405   */\n      swap1\n      pop\n        /* \"#utility.yul\":334:411   */\n      swap2\n      swap1\n      pop\n      jump\t// out\n        /* \"#utility.yul\":417:539   */\n    tag_62:\n        /* \"#utility.yul\":490:514   */\n      tag_72\n        /* \"#utility.yul\":508:513   */\n      dup2\n        /* \"#utility.yul\":490:514   */\n      tag_61\n      jump\t// in\n    tag_72:\n        /* \"#utility.yul\":483:488   */\n      dup2\n        /* \"#utility.yul\":480:515   */\n      eq\n        /* \"#utility.yul\":470:533   */\n      tag_73\n      jumpi\n        /* \"#utility.yul\":529:530   */\n      0x00\n        /* \"#utility.yul\":526:527   */\n      dup1\n        /* \"#utility.yul\":519:531   */\n      revert\n        /* \"#utility.yul\":470:533   */\n    tag_73:\n        /* \"#utility.yul\":417:539   */\n      pop\n      jump\t// out\n        /* \"#utility.yul\":545:684   */\n    tag_63:\n        /* \"#utility.yul\":591:596   */\n      0x00\n        /* \"#utility.yul\":629:635   */\n      dup2\n        /* \"#utility.yul\":616:636   */\n      calldataload\n        /* \"#utility.yul\":607:636   */\n      swap1\n      pop\n        /* \"#utility.yul\":645:678   */\n      tag_75\n        /* \"#utility.yul\":672:677   */\n      dup2\n        /* \"#utility.yul\":645:678   */\n      tag_62\n      jump\t// in\n    tag_75:\n        /* \"#utility.yul\":545:684   */\n      swap3\n      swap2\n      pop\n      pop\n      jump\t// out\n        /* \"#utility.yul\":690:1164   */\n    tag_16:\n        /* \"#utility.yul\":758:764   */\n      0x00\n        /* \"#utility.yul\":766:772   */\n      dup1\n        /* \"#utility.yul\":815:817   */\n      0x40\n        /* \"#utility.yul\":803:812   */\n      dup4\n        /* \"#utility.yul\":794:801   */\n      dup6\n        /* \"#utility.yul\":790:813   */\n      sub\n        /* \"#utility.yul\":786:818   */\n      slt\n        /* \"#utility.yul\":783:902   */\n      iszero\n      tag_77\n      jumpi\n        /* \"#utility.yul\":821:900   */\n      tag_78\n      tag_59\n      jump\t// in\n    tag_78:\n        /* \"#utility.yul\":783:902   */\n    tag_77:\n        /* \"#utility.yul\":941:942   */\n      0x00\n        /* \"#utility.yul\":966:1019   */\n      tag_79\n        /* \"#utility.yul\":1011:1018   */\n      dup6\n        /* \"#utility.yul\":1002:1008   */\n      dup3\n        /* \"#utility.yul\":991:1000   */\n      dup7\n        /* \"#utility.yul\":987:1009   */\n      add\n        /* \"#utility.yul\":966:1019   */\n      tag_63\n      jump\t// in\n    tag_79:\n        /* \"#utility.yul\":956:1019   */\n      swap3\n      pop\n        /* \"#utility.yul\":912:1029   */\n      pop\n        /* \"#utility.yul\":1068:1070   */\n      0x20\n        /* \"#utility.yul\":1094:1147   */\n      tag_80\n        /* \"#utility.yul\":1139:1146   */\n      dup6\n        /* \"#utility.yul\":1130:1136   */\n      dup3\n        /* \"#utility.yul\":1119:1128   */\n      dup7\n        /* \"#utility.yul\":1115:1137   */\n      add\n        /* \"#utility.yul\":1094:1147   */\n      tag_63\n      jump\t// in\n    tag_80:\n        /* \"#utility.yul\":1084:1147   */\n      swap2\n      pop\n        /* \"#utility.yul\":1039:1157   */\n      pop\n        /* \"#utility.yul\":690:1164   */\n      swap3\n      pop\n      swap3\n      swap1\n      pop\n      jump\t// out\n        /* \"#utility.yul\":1170:1288   */\n    tag_64:\n        /* \"#utility.yul\":1257:1281   */\n      tag_82\n        /* \"#utility.yul\":1275:1280   */\n      dup2\n        /* \"#utility.yul\":1257:1281   */\n      tag_61\n      jump\t// in\n    tag_82:\n        /* \"#utility.yul\":1252:1255   */\n      dup3\n        /* \"#utility.yul\":1245:1282   */\n      mstore\n        /* \"#utility.yul\":1170:1288   */\n      pop\n      pop\n      jump\t// out\n        /* \"#utility.yul\":1294:1516   */\n    tag_21:\n        /* \"#utility.yul\":1387:1391   */\n      0x00\n        /* \"#utility.yul\":1425:1427   */\n      0x20\n        /* \"#utility.yul\":1414:1423   */\n      dup3\n        /* \"#utility.yul\":1410:1428   */\n      add\n        /* \"#utility.yul\":1402:1428   */\n      swap1\n      pop\n        /* \"#utility.yul\":1438:1509   */\n      tag_84\n        /* \"#utility.yul\":1506:1507   */\n      0x00\n        /* \"#utility.yul\":1495:1504   */\n      dup4\n        /* \"#utility.yul\":1491:1508   */\n      add\n        /* \"#utility.yul\":1482:1488   */\n      dup5\n        /* \"#utility.yul\":1438:1509   */\n      tag_64\n      jump\t// in\n    tag_84:\n        /* \"#utility.yul\":1294:1516   */\n      swap3\n      swap2\n      pop\n      pop\n      jump\t// out\n        /* \"#utility.yul\":1522:1702   */\n    tag_65:\n        /* \"#utility.yul\":1570:1647   */\n      0x4e487b7100000000000000000000000000000000000000000000000000000000\n        /* \"#utility.yul\":1567:1568   */\n      0x00\n        /* \"#utility.yul\":1560:1648   */\n      mstore\n        /* \"#utility.yul\":1667:1671   */\n      0x11\n        /* \"#utility.yul\":1664:1665   */\n      0x04\n        /* \"#utility.yul\":1657:1672   */\n      mstore\n        /* \"#utility.yul\":1691:1695   */\n      0x24\n        /* \"#utility.yul\":1688:1689   */\n      0x00\n        /* \"#utility.yul\":1681:1696   */\n      revert\n        /* \"#utility.yul\":1708:1899   */\n    tag_49:\n        /* \"#utility.yul\":1748:1751   */\n      0x00\n        /* \"#utility.yul\":1767:1787   */\n      tag_87\n        /* \"#utility.yul\":1785:1786   */\n      dup3\n        /* \"#utility.yul\":1767:1787   */\n      tag_61\n      jump\t// in\n    tag_87:\n        /* \"#utility.yul\":1762:1787   */\n      swap2\n      pop\n        /* \"#utility.yul\":1801:1821   */\n      tag_88\n        /* \"#utility.yul\":1819:1820   */\n      dup4\n        /* \"#utility.yul\":1801:1821   */\n      tag_61\n      jump\t// in\n    tag_88:\n        /* \"#utility.yul\":1796:1821   */\n      swap3\n      pop\n        /* \"#utility.yul\":1844:1845   */\n      dup3\n        /* \"#utility.yul\":1841:1842   */\n      dup3\n        /* \"#utility.yul\":1837:1846   */\n      add\n        /* \"#utility.yul\":1830:1846   */\n      swap1\n      pop\n        /* \"#utility.yul\":1865:1868   */\n      dup1\n        /* \"#utility.yul\":1862:1863   */\n      dup3\n        /* \"#utility.yul\":1859:1869   */\n      gt\n        /* \"#utility.yul\":1856:1892   */\n      iszero\n      tag_89\n      jumpi\n        /* \"#utility.yul\":1872:1890   */\n      tag_90\n      tag_65\n      jump\t// in\n    tag_90:\n        /* \"#utility.yul\":1856:1892   */\n    tag_89:\n        /* \"#utility.yul\":1708:1899   */\n      swap3\n      swap2\n      pop\n      pop\n      jump\t// out\n\n    auxdata: 0xa26469706673582212208db570ccdec715c232423dadf59b7717db6735521d74703792f5f2ae5c42b52064736f6c63430008140033\n}\n",
				"bytecode": {
					"linkReferences": {},
					"object": "608060405234801561000f575f80fd5b506103808061001d5f395ff3fe608060405234801561000f575f80fd5b506004361061009c575f3560e01c806361d299891161006457806361d299891461013257806383dfe5fd1461013c578063a8cc8a391461015a578063f446c1d014610178578063ffd5a218146101965761009c565b806308d2f8ad146100a057806332e7c5bf146100bc57806340de7b4a146100da57806342cbb15c146100f6578063557ed1ba14610114575b5f80fd5b6100ba60048036038101906100b59190610284565b6101c6565b005b6100c46101d7565b6040516100d191906102d1565b60405180910390f35b6100f460048036038101906100ef9190610284565b6101dd565b005b6100fe6101f3565b60405161010b91906102d1565b60405180910390f35b61011c6101fa565b60405161012991906102d1565b60405180910390f35b61013a610201565b005b610144610218565b60405161015191906102d1565b60405180910390f35b61016261021e565b60405161016f91906102d1565b60405180910390f35b610180610233565b60405161018d91906102d1565b60405180910390f35b6101b060048036038101906101ab9190610284565b610238565b6040516101bd91906102d1565b60405180910390f35b815f81905550806001819055505050565b60015481565b80826101e99190610317565b6002819055505050565b5f43905090565b5f42905090565b6001545f546102109190610317565b600281905550565b60025481565b5f6001545f5461022e9190610317565b905090565b5f5481565b5f81836102459190610317565b905092915050565b5f80fd5b5f819050919050565b61026381610251565b811461026d575f80fd5b50565b5f8135905061027e8161025a565b92915050565b5f806040838503121561029a5761029961024d565b5b5f6102a785828601610270565b92505060206102b885828601610270565b9150509250929050565b6102cb81610251565b82525050565b5f6020820190506102e45f8301846102c2565b92915050565b7f4e487b71000000000000000000000000000000000000000000000000000000005f52601160045260245ffd5b5f61032182610251565b915061032c83610251565b9250828201905080821115610344576103436102ea565b5b9291505056fea26469706673582212208db570ccdec715c232423dadf59b7717db6735521d74703792f5f2ae5c42b52064736f6c63430008140033",
					"opcodes": "PUSH1 0x80 PUSH1 0x40 MSTORE CALLVALUE DUP1 ISZERO PUSH2 0xF JUMPI PUSH0 DUP1 REVERT JUMPDEST POP PUSH2 0x380 DUP1 PUSH2 0x1D PUSH0 CODECOPY PUSH0 RETURN INVALID PUSH1 0x80 PUSH1 0x40 MSTORE CALLVALUE DUP1 ISZERO PUSH2 0xF JUMPI PUSH0 DUP1 REVERT JUMPDEST POP PUSH1 0x4 CALLDATASIZE LT PUSH2 0x9C JUMPI PUSH0 CALLDATALOAD PUSH1 0xE0 SHR DUP1 PUSH4 0x61D29989 GT PUSH2 0x64 JUMPI DUP1 PUSH4 0x61D29989 EQ PUSH2 0x132 JUMPI DUP1 PUSH4 0x83DFE5FD EQ PUSH2 0x13C JUMPI DUP1 PUSH4 0xA8CC8A39 EQ PUSH2 0x15A JUMPI DUP1 PUSH4 0xF446C1D0 EQ PUSH2 0x178 JUMPI DUP1 PUSH4 0xFFD5A218 EQ PUSH2 0x196 JUMPI PUSH2 0x9C JUMP JUMPDEST DUP1 PUSH4 0x8D2F8AD EQ PUSH2 0xA0 JUMPI DUP1 PUSH4 0x32E7C5BF EQ PUSH2 0xBC JUMPI DUP1 PUSH4 0x40DE7B4A EQ PUSH2 0xDA JUMPI DUP1 PUSH4 0x42CBB15C EQ PUSH2 0xF6 JUMPI DUP1 PUSH4 0x557ED1BA EQ PUSH2 0x114 JUMPI JUMPDEST PUSH0 DUP1 REVERT JUMPDEST PUSH2 0xBA PUSH1 0x4 DUP1 CALLDATASIZE SUB DUP2 ADD SWAP1 PUSH2 0xB5 SWAP2 SWAP1 PUSH2 0x284 JUMP JUMPDEST PUSH2 0x1C6 JUMP JUMPDEST STOP JUMPDEST PUSH2 0xC4 PUSH2 0x1D7 JUMP JUMPDEST PUSH1 0x40 MLOAD PUSH2 0xD1 SWAP2 SWAP1 PUSH2 0x2D1 JUMP JUMPDEST PUSH1 0x40 MLOAD DUP1 SWAP2 SUB SWAP1 RETURN JUMPDEST PUSH2 0xF4 PUSH1 0x4 DUP1 CALLDATASIZE SUB DUP2 ADD SWAP1 PUSH2 0xEF SWAP2 SWAP1 PUSH2 0x284 JUMP JUMPDEST PUSH2 0x1DD JUMP JUMPDEST STOP JUMPDEST PUSH2 0xFE PUSH2 0x1F3 JUMP JUMPDEST PUSH1 0x40 MLOAD PUSH2 0x10B SWAP2 SWAP1 PUSH2 0x2D1 JUMP JUMPDEST PUSH1 0x40 MLOAD DUP1 SWAP2 SUB SWAP1 RETURN JUMPDEST PUSH2 0x11C PUSH2 0x1FA JUMP JUMPDEST PUSH1 0x40 MLOAD PUSH2 0x129 SWAP2 SWAP1 PUSH2 0x2D1 JUMP JUMPDEST PUSH1 0x40 MLOAD DUP1 SWAP2 SUB SWAP1 RETURN JUMPDEST PUSH2 0x13A PUSH2 0x201 JUMP JUMPDEST STOP JUMPDEST PUSH2 0x144 PUSH2 0x218 JUMP JUMPDEST PUSH1 0x40 MLOAD PUSH2 0x151 SWAP2 SWAP1 PUSH2 0x2D1 JUMP JUMPDEST PUSH1 0x40 MLOAD DUP1 SWAP2 SUB SWAP1 RETURN JUMPDEST PUSH2 0x162 PUSH2 0x21E JUMP JUMPDEST PUSH1 0x40 MLOAD PUSH2 0x16F SWAP2 SWAP1 PUSH2 0x2D1 JUMP JUMPDEST PUSH1 0x40 MLOAD DUP1 SWAP2 SUB SWAP1 RETURN JUMPDEST PUSH2 0x180 PUSH2 0x233 JUMP JUMPDEST PUSH1 0x40 MLOAD PUSH2 0x18D SWAP2 SWAP1 PUSH2 0x2D1 JUMP JUMPDEST PUSH1 0x40 MLOAD DUP1 SWAP2 SUB SWAP1 RETURN JUMPDEST PUSH2 0x1B0 PUSH1 0x4 DUP1 CALLDATASIZE SUB DUP2 ADD SWAP1 PUSH2 0x1AB SWAP2 SWAP1 PUSH2 0x284 JUMP JUMPDEST PUSH2 0x238 JUMP JUMPDEST PUSH1 0x40 MLOAD PUSH2 0x1BD SWAP2 SWAP1 PUSH2 0x2D1 JUMP JUMPDEST PUSH1 0x40 MLOAD DUP1 SWAP2 SUB SWAP1 RETURN JUMPDEST DUP2 PUSH0 DUP2 SWAP1 SSTORE POP DUP1 PUSH1 0x1 DUP2 SWAP1 SSTORE POP POP POP JUMP JUMPDEST PUSH1 0x1 SLOAD DUP2 JUMP JUMPDEST DUP1 DUP3 PUSH2 0x1E9 SWAP2 SWAP1 PUSH2 0x317 JUMP JUMPDEST PUSH1 0x2 DUP2 SWAP1 SSTORE POP POP POP JUMP JUMPDEST PUSH0 NUMBER SWAP1 POP SWAP1 JUMP JUMPDEST PUSH0 TIMESTAMP SWAP1 POP SWAP1 JUMP JUMPDEST PUSH1 0x1 SLOAD PUSH0 SLOAD PUSH2 0x210 SWAP2 SWAP1 PUSH2 0x317 JUMP JUMPDEST PUSH1 0x2 DUP2 SWAP1 SSTORE POP JUMP JUMPDEST PUSH1 0x2 SLOAD DUP2 JUMP JUMPDEST PUSH0 PUSH1 0x1 SLOAD PUSH0 SLOAD PUSH2 0x22E SWAP2 SWAP1 PUSH2 0x317 JUMP JUMPDEST SWAP1 POP SWAP1 JUMP JUMPDEST PUSH0 SLOAD DUP2 JUMP JUMPDEST PUSH0 DUP2 DUP4 PUSH2 0x245 SWAP2 SWAP1 PUSH2 0x317 JUMP JUMPDEST SWAP1 POP SWAP3 SWAP2 POP POP JUMP JUMPDEST PUSH0 DUP1 REVERT JUMPDEST PUSH0 DUP2 SWAP1 POP SWAP2 SWAP1 POP JUMP JUMPDEST PUSH2 0x263 DUP2 PUSH2 0x251 JUMP JUMPDEST DUP2 EQ PUSH2 0x26D JUMPI PUSH0 DUP1 REVERT JUMPDEST POP JUMP JUMPDEST PUSH0 DUP2 CALLDATALOAD SWAP1 POP PUSH2 0x27E DUP2 PUSH2 0x25A JUMP JUMPDEST SWAP3 SWAP2 POP POP JUMP JUMPDEST PUSH0 DUP1 PUSH1 0x40 DUP4 DUP6 SUB SLT ISZERO PUSH2 0x29A JUMPI PUSH2 0x299 PUSH2 0x24D JUMP JUMPDEST JUMPDEST PUSH0 PUSH2 0x2A7 DUP6 DUP3 DUP7 ADD PUSH2 0x270 JUMP JUMPDEST SWAP3 POP POP PUSH1 0x20 PUSH2 0x2B8 DUP6 DUP3 DUP7 ADD PUSH2 0x270 JUMP JUMPDEST SWAP2 POP POP SWAP3 POP SWAP3 SWAP1 POP JUMP JUMPDEST PUSH2 0x2CB DUP2 PUSH2 0x251 JUMP JUMPDEST DUP3 MSTORE POP POP JUMP JUMPDEST PUSH0 PUSH1 0x20 DUP3 ADD SWAP1 POP PUSH2 0x2E4 PUSH0 DUP4 ADD DUP5 PUSH2 0x2C2 JUMP JUMPDEST SWAP3 SWAP2 POP POP JUMP JUMPDEST PUSH32 0x4E487B7100000000000000000000000000000000000000000000000000000000 PUSH0 MSTORE PUSH1 0x11 PUSH1 0x4 MSTORE PUSH1 0x24 PUSH0 REVERT JUMPDEST PUSH0 PUSH2 0x321 DUP3 PUSH2 0x251 JUMP JUMPDEST SWAP2 POP PUSH2 0x32C DUP4 PUSH2 0x251 JUMP JUMPDEST SWAP3 POP DUP3 DUP3 ADD SWAP1 POP DUP1 DUP3 GT ISZERO PUSH2 0x344 JUMPI PUSH2 0x343 PUSH2 0x2EA JUMP JUMPDEST JUMPDEST SWAP3 SWAP2 POP POP JUMP INVALID LOG2 PUSH5 0x6970667358 0x22 SLT KECCAK256 DUP14 0xB5 PUSH17 0xCCDEC715C232423DADF59B7717DB673552 SAR PUSH21 0x703792F5F2AE5C42B52064736F6C63430008140033 "
				},
				"gasEstimates": {
					"creation": {
						"codeDepositCost": "179200",
						"executionCost": "218",
						"totalCost": "179418"
					},
					"external": {
						"A()": "2490",
						"B()": "2448",
						"C()": "2447",
						"addFun1()": "infinite",
						"addFun2(uint256,uint256)": "infinite",
						"addFun3()": "infinite",
						"addFun4(uint256,uint256)": "infinite",
						"getBlockNumber()": "398",
						"getTime()": "420",
						"setterA(uint256,uint256)": "infinite"
					}
				},
				"methodIdentifiers": {
					"A()": "f446c1d0",
					"B()": "32e7c5bf",
					"C()": "83dfe5fd",
					"addFun1()": "61d29989",
					"addFun2(uint256,uint256)": "40de7b4a",
					"addFun3()": "a8cc8a39",
					"addFun4(uint256,uint256)": "ffd5a218",
					"getBlockNumber()": "42cbb15c",
					"getTime()": "557ed1ba",
					"setterA(uint256,uint256)": "08d2f8ad"
				}
			},
			"storageLayout": {
				"storage": [
					{
						"astId": 3,
						"contract": "16thFeb.sol:day2",
						"label": "A",
						"offset": 0,
						"slot": "0",
						"type": "t_uint256"
					},
					{
						"astId": 5,
						"contract": "16thFeb.sol:day2",
						"label": "B",
						"offset": 0,
						"slot": "1",
						"type": "t_uint256"
					},
					{
						"astId": 7,
						"contract": "16thFeb.sol:day2",
						"label": "C",
						"offset": 0,
						"slot": "2",
						"type": "t_uint256"
					}
				],
				"types": {
					"t_uint256": {
						"encoding": "inplace",
						"label": "uint256",
						"numberOfBytes": "32"
					}
				}
			},
			"userdoc": {
				"kind": "user",
				"methods": {},
				"version": 1
			}
		}
	}
}