{
	"GradeWithTurnary.sol": {
		"GradeWithTurnary": {
			"abi": [
				{
					"inputs": [
						{
							"internalType": "int256",
							"name": "mark",
							"type": "int256"
						}
					],
					"name": "getGrade",
					"outputs": [
						{
							"internalType": "string",
							"name": "",
							"type": "string"
						}
					],
					"stateMutability": "pure",
					"type": "function"
				}
			],
			"devdoc": {
				"kind": "dev",
				"methods": {},
				"version": 1
			},
			"evm": {
				"assembly": "    /* \"GradeWithTurnary.sol\":57:1015  contract GradeWithTurnary {... */\n  mstore(0x40, 0x80)\n  callvalue\n  dup1\n  iszero\n  tag_1\n  jumpi\n  0x00\n  dup1\n  revert\ntag_1:\n  pop\n  dataSize(sub_0)\n  dup1\n  dataOffset(sub_0)\n  0x00\n  codecopy\n  0x00\n  return\nstop\n\nsub_0: assembly {\n        /* \"GradeWithTurnary.sol\":57:1015  contract GradeWithTurnary {... */\n      mstore(0x40, 0x80)\n      callvalue\n      dup1\n      iszero\n      tag_1\n      jumpi\n      0x00\n      dup1\n      revert\n    tag_1:\n      pop\n      jumpi(tag_2, lt(calldatasize, 0x04))\n      shr(0xe0, calldataload(0x00))\n      dup1\n      0x654b5def\n      eq\n      tag_3\n      jumpi\n    tag_2:\n      0x00\n      dup1\n      revert\n        /* \"GradeWithTurnary.sol\":89:1013  function getGrade(int mark) public pure returns (string memory) {... */\n    tag_3:\n      tag_4\n      0x04\n      dup1\n      calldatasize\n      sub\n      dup2\n      add\n      swap1\n      tag_5\n      swap2\n      swap1\n      tag_6\n      jump\t// in\n    tag_5:\n      tag_7\n      jump\t// in\n    tag_4:\n      mload(0x40)\n      tag_8\n      swap2\n      swap1\n      tag_9\n      jump\t// in\n    tag_8:\n      mload(0x40)\n      dup1\n      swap2\n      sub\n      swap1\n      return\n    tag_7:\n        /* \"GradeWithTurnary.sol\":138:151  string memory */\n      0x60\n        /* \"GradeWithTurnary.sol\":163:182  string memory grade */\n      dup1\n        /* \"GradeWithTurnary.sol\":208:211  100 */\n      0x64\n        /* \"GradeWithTurnary.sol\":200:204  mark */\n      dup4\n        /* \"GradeWithTurnary.sol\":200:211  mark <= 100 */\n      sgt\n      iszero\n        /* \"GradeWithTurnary.sol\":200:224  mark <= 100 && mark >= 0 */\n      dup1\n      iszero\n      tag_11\n      jumpi\n      pop\n        /* \"GradeWithTurnary.sol\":223:224  0 */\n      0x00\n        /* \"GradeWithTurnary.sol\":215:219  mark */\n      dup4\n        /* \"GradeWithTurnary.sol\":215:224  mark >= 0 */\n      slt\n      iszero\n        /* \"GradeWithTurnary.sol\":200:224  mark <= 100 && mark >= 0 */\n    tag_11:\n        /* \"GradeWithTurnary.sol\":192:261  require(mark <= 100 && mark >= 0, \"Mark should be between 0 and 100\") */\n      tag_12\n      jumpi\n      mload(0x40)\n      0x08c379a000000000000000000000000000000000000000000000000000000000\n      dup2\n      mstore\n      0x04\n      add\n      tag_13\n      swap1\n      tag_14\n      jump\t// in\n    tag_13:\n      mload(0x40)\n      dup1\n      swap2\n      sub\n      swap1\n      revert\n    tag_12:\n        /* \"GradeWithTurnary.sol\":278:280  33 */\n      0x21\n        /* \"GradeWithTurnary.sol\":271:275  mark */\n      dup4\n        /* \"GradeWithTurnary.sol\":271:280  mark < 33 */\n      slt\n        /* \"GradeWithTurnary.sol\":271:984  mark < 33... */\n      tag_15\n      jumpi\n        /* \"GradeWithTurnary.sol\":351:354  100 */\n      0x64\n        /* \"GradeWithTurnary.sol\":343:347  mark */\n      dup4\n        /* \"GradeWithTurnary.sol\":343:354  mark <= 100 */\n      sgt\n      iszero\n        /* \"GradeWithTurnary.sol\":343:367  mark <= 100 && mark > 85 */\n      dup1\n      iszero\n      tag_16\n      jumpi\n      pop\n        /* \"GradeWithTurnary.sol\":365:367  85 */\n      0x55\n        /* \"GradeWithTurnary.sol\":358:362  mark */\n      dup4\n        /* \"GradeWithTurnary.sol\":358:367  mark > 85 */\n      sgt\n        /* \"GradeWithTurnary.sol\":343:367  mark <= 100 && mark > 85 */\n    tag_16:\n        /* \"GradeWithTurnary.sol\":342:970  (mark <= 100 && mark > 85)... */\n      tag_17\n      jumpi\n        /* \"GradeWithTurnary.sol\":460:462  85 */\n      0x55\n        /* \"GradeWithTurnary.sol\":452:456  mark */\n      dup4\n        /* \"GradeWithTurnary.sol\":452:462  mark <= 85 */\n      sgt\n      iszero\n        /* \"GradeWithTurnary.sol\":452:475  mark <= 85 && mark > 70 */\n      dup1\n      iszero\n      tag_18\n      jumpi\n      pop\n        /* \"GradeWithTurnary.sol\":473:475  70 */\n      0x46\n        /* \"GradeWithTurnary.sol\":466:470  mark */\n      dup4\n        /* \"GradeWithTurnary.sol\":466:475  mark > 70 */\n      sgt\n        /* \"GradeWithTurnary.sol\":452:475  mark <= 85 && mark > 70 */\n    tag_18:\n        /* \"GradeWithTurnary.sol\":451:948  (mark <= 85 && mark > 70)... */\n      tag_19\n      jumpi\n        /* \"GradeWithTurnary.sol\":592:594  70 */\n      0x46\n        /* \"GradeWithTurnary.sol\":584:588  mark */\n      dup4\n        /* \"GradeWithTurnary.sol\":584:594  mark <= 70 */\n      sgt\n      iszero\n        /* \"GradeWithTurnary.sol\":584:607  mark <= 70 && mark > 55 */\n      dup1\n      iszero\n      tag_20\n      jumpi\n      pop\n        /* \"GradeWithTurnary.sol\":605:607  55 */\n      0x37\n        /* \"GradeWithTurnary.sol\":598:602  mark */\n      dup4\n        /* \"GradeWithTurnary.sol\":598:607  mark > 55 */\n      sgt\n        /* \"GradeWithTurnary.sol\":584:607  mark <= 70 && mark > 55 */\n    tag_20:\n        /* \"GradeWithTurnary.sol\":583:918  (mark <= 70 && mark > 55)... */\n      tag_21\n      jumpi\n        /* \"GradeWithTurnary.sol\":748:750  55 */\n      0x37\n        /* \"GradeWithTurnary.sol\":740:744  mark */\n      dup4\n        /* \"GradeWithTurnary.sol\":740:750  mark <= 55 */\n      sgt\n      iszero\n        /* \"GradeWithTurnary.sol\":740:763  mark <= 55 && mark > 40 */\n      dup1\n      iszero\n      tag_22\n      jumpi\n      pop\n        /* \"GradeWithTurnary.sol\":761:763  40 */\n      0x28\n        /* \"GradeWithTurnary.sol\":754:758  mark */\n      dup4\n        /* \"GradeWithTurnary.sol\":754:763  mark > 40 */\n      sgt\n        /* \"GradeWithTurnary.sol\":740:763  mark <= 55 && mark > 40 */\n    tag_22:\n        /* \"GradeWithTurnary.sol\":739:880  (mark <= 55 && mark > 40)... */\n      tag_23\n      jumpi\n        /* \"GradeWithTurnary.sol\":869:880  grade = \"E\" */\n      mload(0x40)\n      dup1\n      0x40\n      add\n      0x40\n      mstore\n      dup1\n      0x01\n      dup2\n      mstore\n      0x20\n      add\n      0x4500000000000000000000000000000000000000000000000000000000000000\n      dup2\n      mstore\n      pop\n      swap1\n      pop\n      dup1\n        /* \"GradeWithTurnary.sol\":739:880  (mark <= 55 && mark > 40)... */\n      jump(tag_24)\n    tag_23:\n        /* \"GradeWithTurnary.sol\":811:822  grade = \"D\" */\n      mload(0x40)\n      dup1\n      0x40\n      add\n      0x40\n      mstore\n      dup1\n      0x01\n      dup2\n      mstore\n      0x20\n      add\n      0x4400000000000000000000000000000000000000000000000000000000000000\n      dup2\n      mstore\n      pop\n      swap1\n      pop\n      dup1\n        /* \"GradeWithTurnary.sol\":739:880  (mark <= 55 && mark > 40)... */\n    tag_24:\n        /* \"GradeWithTurnary.sol\":583:918  (mark <= 70 && mark > 55)... */\n      jump(tag_25)\n    tag_21:\n        /* \"GradeWithTurnary.sol\":647:658  grade = \"C\" */\n      mload(0x40)\n      dup1\n      0x40\n      add\n      0x40\n      mstore\n      dup1\n      0x01\n      dup2\n      mstore\n      0x20\n      add\n      0x4300000000000000000000000000000000000000000000000000000000000000\n      dup2\n      mstore\n      pop\n      swap1\n      pop\n      dup1\n        /* \"GradeWithTurnary.sol\":583:918  (mark <= 70 && mark > 55)... */\n    tag_25:\n        /* \"GradeWithTurnary.sol\":451:948  (mark <= 85 && mark > 70)... */\n      jump(tag_26)\n    tag_19:\n        /* \"GradeWithTurnary.sol\":507:518  grade = \"B\" */\n      mload(0x40)\n      dup1\n      0x40\n      add\n      0x40\n      mstore\n      dup1\n      0x01\n      dup2\n      mstore\n      0x20\n      add\n      0x4200000000000000000000000000000000000000000000000000000000000000\n      dup2\n      mstore\n      pop\n      swap1\n      pop\n      dup1\n        /* \"GradeWithTurnary.sol\":451:948  (mark <= 85 && mark > 70)... */\n    tag_26:\n        /* \"GradeWithTurnary.sol\":342:970  (mark <= 100 && mark > 85)... */\n      jump(tag_27)\n    tag_17:\n        /* \"GradeWithTurnary.sol\":391:402  grade = \"A\" */\n      mload(0x40)\n      dup1\n      0x40\n      add\n      0x40\n      mstore\n      dup1\n      0x01\n      dup2\n      mstore\n      0x20\n      add\n      0x4100000000000000000000000000000000000000000000000000000000000000\n      dup2\n      mstore\n      pop\n      swap1\n      pop\n      dup1\n        /* \"GradeWithTurnary.sol\":342:970  (mark <= 100 && mark > 85)... */\n    tag_27:\n        /* \"GradeWithTurnary.sol\":271:984  mark < 33... */\n      jump(tag_28)\n    tag_15:\n        /* \"GradeWithTurnary.sol\":295:309  grade = \"Fail\" */\n      mload(0x40)\n      dup1\n      0x40\n      add\n      0x40\n      mstore\n      dup1\n      0x04\n      dup2\n      mstore\n      0x20\n      add\n      0x4661696c00000000000000000000000000000000000000000000000000000000\n      dup2\n      mstore\n      pop\n      swap1\n      pop\n      dup1\n        /* \"GradeWithTurnary.sol\":271:984  mark < 33... */\n    tag_28:\n      pop\n        /* \"GradeWithTurnary.sol\":1001:1006  grade */\n      dup1\n        /* \"GradeWithTurnary.sol\":994:1006  return grade */\n      swap2\n      pop\n      pop\n        /* \"GradeWithTurnary.sol\":89:1013  function getGrade(int mark) public pure returns (string memory) {... */\n      swap2\n      swap1\n      pop\n      jump\t// out\n        /* \"#utility.yul\":88:205   */\n    tag_30:\n        /* \"#utility.yul\":197:198   */\n      0x00\n        /* \"#utility.yul\":194:195   */\n      dup1\n        /* \"#utility.yul\":187:199   */\n      revert\n        /* \"#utility.yul\":334:410   */\n    tag_32:\n        /* \"#utility.yul\":370:377   */\n      0x00\n        /* \"#utility.yul\":399:404   */\n      dup2\n        /* \"#utility.yul\":388:404   */\n      swap1\n      pop\n        /* \"#utility.yul\":334:410   */\n      swap2\n      swap1\n      pop\n      jump\t// out\n        /* \"#utility.yul\":416:536   */\n    tag_33:\n        /* \"#utility.yul\":488:511   */\n      tag_48\n        /* \"#utility.yul\":505:510   */\n      dup2\n        /* \"#utility.yul\":488:511   */\n      tag_32\n      jump\t// in\n    tag_48:\n        /* \"#utility.yul\":481:486   */\n      dup2\n        /* \"#utility.yul\":478:512   */\n      eq\n        /* \"#utility.yul\":468:530   */\n      tag_49\n      jumpi\n        /* \"#utility.yul\":526:527   */\n      0x00\n        /* \"#utility.yul\":523:524   */\n      dup1\n        /* \"#utility.yul\":516:528   */\n      revert\n        /* \"#utility.yul\":468:530   */\n    tag_49:\n        /* \"#utility.yul\":416:536   */\n      pop\n      jump\t// out\n        /* \"#utility.yul\":542:679   */\n    tag_34:\n        /* \"#utility.yul\":587:592   */\n      0x00\n        /* \"#utility.yul\":625:631   */\n      dup2\n        /* \"#utility.yul\":612:632   */\n      calldataload\n        /* \"#utility.yul\":603:632   */\n      swap1\n      pop\n        /* \"#utility.yul\":641:673   */\n      tag_51\n        /* \"#utility.yul\":667:672   */\n      dup2\n        /* \"#utility.yul\":641:673   */\n      tag_33\n      jump\t// in\n    tag_51:\n        /* \"#utility.yul\":542:679   */\n      swap3\n      swap2\n      pop\n      pop\n      jump\t// out\n        /* \"#utility.yul\":685:1012   */\n    tag_6:\n        /* \"#utility.yul\":743:749   */\n      0x00\n        /* \"#utility.yul\":792:794   */\n      0x20\n        /* \"#utility.yul\":780:789   */\n      dup3\n        /* \"#utility.yul\":771:778   */\n      dup5\n        /* \"#utility.yul\":767:790   */\n      sub\n        /* \"#utility.yul\":763:795   */\n      slt\n        /* \"#utility.yul\":760:879   */\n      iszero\n      tag_53\n      jumpi\n        /* \"#utility.yul\":798:877   */\n      tag_54\n      tag_30\n      jump\t// in\n    tag_54:\n        /* \"#utility.yul\":760:879   */\n    tag_53:\n        /* \"#utility.yul\":918:919   */\n      0x00\n        /* \"#utility.yul\":943:995   */\n      tag_55\n        /* \"#utility.yul\":987:994   */\n      dup5\n        /* \"#utility.yul\":978:984   */\n      dup3\n        /* \"#utility.yul\":967:976   */\n      dup6\n        /* \"#utility.yul\":963:985   */\n      add\n        /* \"#utility.yul\":943:995   */\n      tag_34\n      jump\t// in\n    tag_55:\n        /* \"#utility.yul\":933:995   */\n      swap2\n      pop\n        /* \"#utility.yul\":889:1005   */\n      pop\n        /* \"#utility.yul\":685:1012   */\n      swap3\n      swap2\n      pop\n      pop\n      jump\t// out\n        /* \"#utility.yul\":1018:1117   */\n    tag_35:\n        /* \"#utility.yul\":1070:1076   */\n      0x00\n        /* \"#utility.yul\":1104:1109   */\n      dup2\n        /* \"#utility.yul\":1098:1110   */\n      mload\n        /* \"#utility.yul\":1088:1110   */\n      swap1\n      pop\n        /* \"#utility.yul\":1018:1117   */\n      swap2\n      swap1\n      pop\n      jump\t// out\n        /* \"#utility.yul\":1123:1292   */\n    tag_36:\n        /* \"#utility.yul\":1207:1218   */\n      0x00\n        /* \"#utility.yul\":1241:1247   */\n      dup3\n        /* \"#utility.yul\":1236:1239   */\n      dup3\n        /* \"#utility.yul\":1229:1248   */\n      mstore\n        /* \"#utility.yul\":1281:1285   */\n      0x20\n        /* \"#utility.yul\":1276:1279   */\n      dup3\n        /* \"#utility.yul\":1272:1286   */\n      add\n        /* \"#utility.yul\":1257:1286   */\n      swap1\n      pop\n        /* \"#utility.yul\":1123:1292   */\n      swap3\n      swap2\n      pop\n      pop\n      jump\t// out\n        /* \"#utility.yul\":1298:1544   */\n    tag_37:\n        /* \"#utility.yul\":1379:1380   */\n      0x00\n        /* \"#utility.yul\":1389:1502   */\n    tag_59:\n        /* \"#utility.yul\":1403:1409   */\n      dup4\n        /* \"#utility.yul\":1400:1401   */\n      dup2\n        /* \"#utility.yul\":1397:1410   */\n      lt\n        /* \"#utility.yul\":1389:1502   */\n      iszero\n      tag_61\n      jumpi\n        /* \"#utility.yul\":1488:1489   */\n      dup1\n        /* \"#utility.yul\":1483:1486   */\n      dup3\n        /* \"#utility.yul\":1479:1490   */\n      add\n        /* \"#utility.yul\":1473:1491   */\n      mload\n        /* \"#utility.yul\":1469:1470   */\n      dup2\n        /* \"#utility.yul\":1464:1467   */\n      dup5\n        /* \"#utility.yul\":1460:1471   */\n      add\n        /* \"#utility.yul\":1453:1492   */\n      mstore\n        /* \"#utility.yul\":1425:1427   */\n      0x20\n        /* \"#utility.yul\":1422:1423   */\n      dup2\n        /* \"#utility.yul\":1418:1428   */\n      add\n        /* \"#utility.yul\":1413:1428   */\n      swap1\n      pop\n        /* \"#utility.yul\":1389:1502   */\n      jump(tag_59)\n    tag_61:\n        /* \"#utility.yul\":1536:1537   */\n      0x00\n        /* \"#utility.yul\":1527:1533   */\n      dup5\n        /* \"#utility.yul\":1522:1525   */\n      dup5\n        /* \"#utility.yul\":1518:1534   */\n      add\n        /* \"#utility.yul\":1511:1538   */\n      mstore\n        /* \"#utility.yul\":1360:1544   */\n      pop\n        /* \"#utility.yul\":1298:1544   */\n      pop\n      pop\n      pop\n      jump\t// out\n        /* \"#utility.yul\":1550:1652   */\n    tag_38:\n        /* \"#utility.yul\":1591:1597   */\n      0x00\n        /* \"#utility.yul\":1642:1644   */\n      0x1f\n        /* \"#utility.yul\":1638:1645   */\n      not\n        /* \"#utility.yul\":1633:1635   */\n      0x1f\n        /* \"#utility.yul\":1626:1631   */\n      dup4\n        /* \"#utility.yul\":1622:1636   */\n      add\n        /* \"#utility.yul\":1618:1646   */\n      and\n        /* \"#utility.yul\":1608:1646   */\n      swap1\n      pop\n        /* \"#utility.yul\":1550:1652   */\n      swap2\n      swap1\n      pop\n      jump\t// out\n        /* \"#utility.yul\":1658:2035   */\n    tag_39:\n        /* \"#utility.yul\":1746:1749   */\n      0x00\n        /* \"#utility.yul\":1774:1813   */\n      tag_64\n        /* \"#utility.yul\":1807:1812   */\n      dup3\n        /* \"#utility.yul\":1774:1813   */\n      tag_35\n      jump\t// in\n    tag_64:\n        /* \"#utility.yul\":1829:1900   */\n      tag_65\n        /* \"#utility.yul\":1893:1899   */\n      dup2\n        /* \"#utility.yul\":1888:1891   */\n      dup6\n        /* \"#utility.yul\":1829:1900   */\n      tag_36\n      jump\t// in\n    tag_65:\n        /* \"#utility.yul\":1822:1900   */\n      swap4\n      pop\n        /* \"#utility.yul\":1909:1974   */\n      tag_66\n        /* \"#utility.yul\":1967:1973   */\n      dup2\n        /* \"#utility.yul\":1962:1965   */\n      dup6\n        /* \"#utility.yul\":1955:1959   */\n      0x20\n        /* \"#utility.yul\":1948:1953   */\n      dup7\n        /* \"#utility.yul\":1944:1960   */\n      add\n        /* \"#utility.yul\":1909:1974   */\n      tag_37\n      jump\t// in\n    tag_66:\n        /* \"#utility.yul\":1999:2028   */\n      tag_67\n        /* \"#utility.yul\":2021:2027   */\n      dup2\n        /* \"#utility.yul\":1999:2028   */\n      tag_38\n      jump\t// in\n    tag_67:\n        /* \"#utility.yul\":1994:1997   */\n      dup5\n        /* \"#utility.yul\":1990:2029   */\n      add\n        /* \"#utility.yul\":1983:2029   */\n      swap2\n      pop\n        /* \"#utility.yul\":1750:2035   */\n      pop\n        /* \"#utility.yul\":1658:2035   */\n      swap3\n      swap2\n      pop\n      pop\n      jump\t// out\n        /* \"#utility.yul\":2041:2354   */\n    tag_9:\n        /* \"#utility.yul\":2154:2158   */\n      0x00\n        /* \"#utility.yul\":2192:2194   */\n      0x20\n        /* \"#utility.yul\":2181:2190   */\n      dup3\n        /* \"#utility.yul\":2177:2195   */\n      add\n        /* \"#utility.yul\":2169:2195   */\n      swap1\n      pop\n        /* \"#utility.yul\":2241:2250   */\n      dup2\n        /* \"#utility.yul\":2235:2239   */\n      dup2\n        /* \"#utility.yul\":2231:2251   */\n      sub\n        /* \"#utility.yul\":2227:2228   */\n      0x00\n        /* \"#utility.yul\":2216:2225   */\n      dup4\n        /* \"#utility.yul\":2212:2229   */\n      add\n        /* \"#utility.yul\":2205:2252   */\n      mstore\n        /* \"#utility.yul\":2269:2347   */\n      tag_69\n        /* \"#utility.yul\":2342:2346   */\n      dup2\n        /* \"#utility.yul\":2333:2339   */\n      dup5\n        /* \"#utility.yul\":2269:2347   */\n      tag_39\n      jump\t// in\n    tag_69:\n        /* \"#utility.yul\":2261:2347   */\n      swap1\n      pop\n        /* \"#utility.yul\":2041:2354   */\n      swap3\n      swap2\n      pop\n      pop\n      jump\t// out\n        /* \"#utility.yul\":2360:2542   */\n    tag_40:\n        /* \"#utility.yul\":2500:2534   */\n      0x4d61726b2073686f756c64206265206265747765656e203020616e6420313030\n        /* \"#utility.yul\":2496:2497   */\n      0x00\n        /* \"#utility.yul\":2488:2494   */\n      dup3\n        /* \"#utility.yul\":2484:2498   */\n      add\n        /* \"#utility.yul\":2477:2535   */\n      mstore\n        /* \"#utility.yul\":2360:2542   */\n      pop\n      jump\t// out\n        /* \"#utility.yul\":2548:2914   */\n    tag_41:\n        /* \"#utility.yul\":2690:2693   */\n      0x00\n        /* \"#utility.yul\":2711:2778   */\n      tag_72\n        /* \"#utility.yul\":2775:2777   */\n      0x20\n        /* \"#utility.yul\":2770:2773   */\n      dup4\n        /* \"#utility.yul\":2711:2778   */\n      tag_36\n      jump\t// in\n    tag_72:\n        /* \"#utility.yul\":2704:2778   */\n      swap2\n      pop\n        /* \"#utility.yul\":2787:2880   */\n      tag_73\n        /* \"#utility.yul\":2876:2879   */\n      dup3\n        /* \"#utility.yul\":2787:2880   */\n      tag_40\n      jump\t// in\n    tag_73:\n        /* \"#utility.yul\":2905:2907   */\n      0x20\n        /* \"#utility.yul\":2900:2903   */\n      dup3\n        /* \"#utility.yul\":2896:2908   */\n      add\n        /* \"#utility.yul\":2889:2908   */\n      swap1\n      pop\n        /* \"#utility.yul\":2548:2914   */\n      swap2\n      swap1\n      pop\n      jump\t// out\n        /* \"#utility.yul\":2920:3339   */\n    tag_14:\n        /* \"#utility.yul\":3086:3090   */\n      0x00\n        /* \"#utility.yul\":3124:3126   */\n      0x20\n        /* \"#utility.yul\":3113:3122   */\n      dup3\n        /* \"#utility.yul\":3109:3127   */\n      add\n        /* \"#utility.yul\":3101:3127   */\n      swap1\n      pop\n        /* \"#utility.yul\":3173:3182   */\n      dup2\n        /* \"#utility.yul\":3167:3171   */\n      dup2\n        /* \"#utility.yul\":3163:3183   */\n      sub\n        /* \"#utility.yul\":3159:3160   */\n      0x00\n        /* \"#utility.yul\":3148:3157   */\n      dup4\n        /* \"#utility.yul\":3144:3161   */\n      add\n        /* \"#utility.yul\":3137:3184   */\n      mstore\n        /* \"#utility.yul\":3201:3332   */\n      tag_75\n        /* \"#utility.yul\":3327:3331   */\n      dup2\n        /* \"#utility.yul\":3201:3332   */\n      tag_41\n      jump\t// in\n    tag_75:\n        /* \"#utility.yul\":3193:3332   */\n      swap1\n      pop\n        /* \"#utility.yul\":2920:3339   */\n      swap2\n      swap1\n      pop\n      jump\t// out\n\n    auxdata: 0xa2646970667358221220ab4d6d8ce4620399056e8c6ee03584225a6afce0f15089bccb7dc4263affccf064736f6c63430008180033\n}\n",
				"bytecode": {
					"linkReferences": {},
					"object": "608060405234801561000f575f80fd5b506104348061001d5f395ff3fe608060405234801561000f575f80fd5b5060043610610029575f3560e01c8063654b5def1461002d575b5f80fd5b610047600480360381019061004291906102c1565b61005d565b6040516100549190610376565b60405180910390f35b6060806064831315801561007157505f8312155b6100b0576040517f08c379a00000000000000000000000000000000000000000000000000000000081526004016100a7906103e0565b60405180910390fd5b6021831261024657606483131580156100c95750605583135b61020757605583131580156100de5750604683135b6101c857604683131580156100f35750603783135b61018957603783131580156101085750602883135b61014a576040518060400160405280600181526020017f4500000000000000000000000000000000000000000000000000000000000000815250905080610184565b6040518060400160405280600181526020017f44000000000000000000000000000000000000000000000000000000000000008152509050805b6101c3565b6040518060400160405280600181526020017f43000000000000000000000000000000000000000000000000000000000000008152509050805b610202565b6040518060400160405280600181526020017f42000000000000000000000000000000000000000000000000000000000000008152509050805b610241565b6040518060400160405280600181526020017f41000000000000000000000000000000000000000000000000000000000000008152509050805b610280565b6040518060400160405280600481526020017f4661696c000000000000000000000000000000000000000000000000000000008152509050805b5080915050919050565b5f80fd5b5f819050919050565b6102a08161028e565b81146102aa575f80fd5b50565b5f813590506102bb81610297565b92915050565b5f602082840312156102d6576102d561028a565b5b5f6102e3848285016102ad565b91505092915050565b5f81519050919050565b5f82825260208201905092915050565b5f5b83811015610323578082015181840152602081019050610308565b5f8484015250505050565b5f601f19601f8301169050919050565b5f610348826102ec565b61035281856102f6565b9350610362818560208601610306565b61036b8161032e565b840191505092915050565b5f6020820190508181035f83015261038e818461033e565b905092915050565b7f4d61726b2073686f756c64206265206265747765656e203020616e64203130305f82015250565b5f6103ca6020836102f6565b91506103d582610396565b602082019050919050565b5f6020820190508181035f8301526103f7816103be565b905091905056fea2646970667358221220ab4d6d8ce4620399056e8c6ee03584225a6afce0f15089bccb7dc4263affccf064736f6c63430008180033",
					"opcodes": "PUSH1 0x80 PUSH1 0x40 MSTORE CALLVALUE DUP1 ISZERO PUSH2 0xF JUMPI PUSH0 DUP1 REVERT JUMPDEST POP PUSH2 0x434 DUP1 PUSH2 0x1D PUSH0 CODECOPY PUSH0 RETURN INVALID PUSH1 0x80 PUSH1 0x40 MSTORE CALLVALUE DUP1 ISZERO PUSH2 0xF JUMPI PUSH0 DUP1 REVERT JUMPDEST POP PUSH1 0x4 CALLDATASIZE LT PUSH2 0x29 JUMPI PUSH0 CALLDATALOAD PUSH1 0xE0 SHR DUP1 PUSH4 0x654B5DEF EQ PUSH2 0x2D JUMPI JUMPDEST PUSH0 DUP1 REVERT JUMPDEST PUSH2 0x47 PUSH1 0x4 DUP1 CALLDATASIZE SUB DUP2 ADD SWAP1 PUSH2 0x42 SWAP2 SWAP1 PUSH2 0x2C1 JUMP JUMPDEST PUSH2 0x5D JUMP JUMPDEST PUSH1 0x40 MLOAD PUSH2 0x54 SWAP2 SWAP1 PUSH2 0x376 JUMP JUMPDEST PUSH1 0x40 MLOAD DUP1 SWAP2 SUB SWAP1 RETURN JUMPDEST PUSH1 0x60 DUP1 PUSH1 0x64 DUP4 SGT ISZERO DUP1 ISZERO PUSH2 0x71 JUMPI POP PUSH0 DUP4 SLT ISZERO JUMPDEST PUSH2 0xB0 JUMPI PUSH1 0x40 MLOAD PUSH32 0x8C379A000000000000000000000000000000000000000000000000000000000 DUP2 MSTORE PUSH1 0x4 ADD PUSH2 0xA7 SWAP1 PUSH2 0x3E0 JUMP JUMPDEST PUSH1 0x40 MLOAD DUP1 SWAP2 SUB SWAP1 REVERT JUMPDEST PUSH1 0x21 DUP4 SLT PUSH2 0x246 JUMPI PUSH1 0x64 DUP4 SGT ISZERO DUP1 ISZERO PUSH2 0xC9 JUMPI POP PUSH1 0x55 DUP4 SGT JUMPDEST PUSH2 0x207 JUMPI PUSH1 0x55 DUP4 SGT ISZERO DUP1 ISZERO PUSH2 0xDE JUMPI POP PUSH1 0x46 DUP4 SGT JUMPDEST PUSH2 0x1C8 JUMPI PUSH1 0x46 DUP4 SGT ISZERO DUP1 ISZERO PUSH2 0xF3 JUMPI POP PUSH1 0x37 DUP4 SGT JUMPDEST PUSH2 0x189 JUMPI PUSH1 0x37 DUP4 SGT ISZERO DUP1 ISZERO PUSH2 0x108 JUMPI POP PUSH1 0x28 DUP4 SGT JUMPDEST PUSH2 0x14A JUMPI PUSH1 0x40 MLOAD DUP1 PUSH1 0x40 ADD PUSH1 0x40 MSTORE DUP1 PUSH1 0x1 DUP2 MSTORE PUSH1 0x20 ADD PUSH32 0x4500000000000000000000000000000000000000000000000000000000000000 DUP2 MSTORE POP SWAP1 POP DUP1 PUSH2 0x184 JUMP JUMPDEST PUSH1 0x40 MLOAD DUP1 PUSH1 0x40 ADD PUSH1 0x40 MSTORE DUP1 PUSH1 0x1 DUP2 MSTORE PUSH1 0x20 ADD PUSH32 0x4400000000000000000000000000000000000000000000000000000000000000 DUP2 MSTORE POP SWAP1 POP DUP1 JUMPDEST PUSH2 0x1C3 JUMP JUMPDEST PUSH1 0x40 MLOAD DUP1 PUSH1 0x40 ADD PUSH1 0x40 MSTORE DUP1 PUSH1 0x1 DUP2 MSTORE PUSH1 0x20 ADD PUSH32 0x4300000000000000000000000000000000000000000000000000000000000000 DUP2 MSTORE POP SWAP1 POP DUP1 JUMPDEST PUSH2 0x202 JUMP JUMPDEST PUSH1 0x40 MLOAD DUP1 PUSH1 0x40 ADD PUSH1 0x40 MSTORE DUP1 PUSH1 0x1 DUP2 MSTORE PUSH1 0x20 ADD PUSH32 0x4200000000000000000000000000000000000000000000000000000000000000 DUP2 MSTORE POP SWAP1 POP DUP1 JUMPDEST PUSH2 0x241 JUMP JUMPDEST PUSH1 0x40 MLOAD DUP1 PUSH1 0x40 ADD PUSH1 0x40 MSTORE DUP1 PUSH1 0x1 DUP2 MSTORE PUSH1 0x20 ADD PUSH32 0x4100000000000000000000000000000000000000000000000000000000000000 DUP2 MSTORE POP SWAP1 POP DUP1 JUMPDEST PUSH2 0x280 JUMP JUMPDEST PUSH1 0x40 MLOAD DUP1 PUSH1 0x40 ADD PUSH1 0x40 MSTORE DUP1 PUSH1 0x4 DUP2 MSTORE PUSH1 0x20 ADD PUSH32 0x4661696C00000000000000000000000000000000000000000000000000000000 DUP2 MSTORE POP SWAP1 POP DUP1 JUMPDEST POP DUP1 SWAP2 POP POP SWAP2 SWAP1 POP JUMP JUMPDEST PUSH0 DUP1 REVERT JUMPDEST PUSH0 DUP2 SWAP1 POP SWAP2 SWAP1 POP JUMP JUMPDEST PUSH2 0x2A0 DUP2 PUSH2 0x28E JUMP JUMPDEST DUP2 EQ PUSH2 0x2AA JUMPI PUSH0 DUP1 REVERT JUMPDEST POP JUMP JUMPDEST PUSH0 DUP2 CALLDATALOAD SWAP1 POP PUSH2 0x2BB DUP2 PUSH2 0x297 JUMP JUMPDEST SWAP3 SWAP2 POP POP JUMP JUMPDEST PUSH0 PUSH1 0x20 DUP3 DUP5 SUB SLT ISZERO PUSH2 0x2D6 JUMPI PUSH2 0x2D5 PUSH2 0x28A JUMP JUMPDEST JUMPDEST PUSH0 PUSH2 0x2E3 DUP5 DUP3 DUP6 ADD PUSH2 0x2AD JUMP JUMPDEST SWAP2 POP POP SWAP3 SWAP2 POP POP JUMP JUMPDEST PUSH0 DUP2 MLOAD SWAP1 POP SWAP2 SWAP1 POP JUMP JUMPDEST PUSH0 DUP3 DUP3 MSTORE PUSH1 0x20 DUP3 ADD SWAP1 POP SWAP3 SWAP2 POP POP JUMP JUMPDEST PUSH0 JUMPDEST DUP4 DUP2 LT ISZERO PUSH2 0x323 JUMPI DUP1 DUP3 ADD MLOAD DUP2 DUP5 ADD MSTORE PUSH1 0x20 DUP2 ADD SWAP1 POP PUSH2 0x308 JUMP JUMPDEST PUSH0 DUP5 DUP5 ADD MSTORE POP POP POP POP JUMP JUMPDEST PUSH0 PUSH1 0x1F NOT PUSH1 0x1F DUP4 ADD AND SWAP1 POP SWAP2 SWAP1 POP JUMP JUMPDEST PUSH0 PUSH2 0x348 DUP3 PUSH2 0x2EC JUMP JUMPDEST PUSH2 0x352 DUP2 DUP6 PUSH2 0x2F6 JUMP JUMPDEST SWAP4 POP PUSH2 0x362 DUP2 DUP6 PUSH1 0x20 DUP7 ADD PUSH2 0x306 JUMP JUMPDEST PUSH2 0x36B DUP2 PUSH2 0x32E JUMP JUMPDEST DUP5 ADD SWAP2 POP POP SWAP3 SWAP2 POP POP JUMP JUMPDEST PUSH0 PUSH1 0x20 DUP3 ADD SWAP1 POP DUP2 DUP2 SUB PUSH0 DUP4 ADD MSTORE PUSH2 0x38E DUP2 DUP5 PUSH2 0x33E JUMP JUMPDEST SWAP1 POP SWAP3 SWAP2 POP POP JUMP JUMPDEST PUSH32 0x4D61726B2073686F756C64206265206265747765656E203020616E6420313030 PUSH0 DUP3 ADD MSTORE POP JUMP JUMPDEST PUSH0 PUSH2 0x3CA PUSH1 0x20 DUP4 PUSH2 0x2F6 JUMP JUMPDEST SWAP2 POP PUSH2 0x3D5 DUP3 PUSH2 0x396 JUMP JUMPDEST PUSH1 0x20 DUP3 ADD SWAP1 POP SWAP2 SWAP1 POP JUMP JUMPDEST PUSH0 PUSH1 0x20 DUP3 ADD SWAP1 POP DUP2 DUP2 SUB PUSH0 DUP4 ADD MSTORE PUSH2 0x3F7 DUP2 PUSH2 0x3BE JUMP JUMPDEST SWAP1 POP SWAP2 SWAP1 POP JUMP INVALID LOG2 PUSH5 0x6970667358 0x22 SLT KECCAK256 0xAB 0x4D PUSH14 0x8CE4620399056E8C6EE03584225A PUSH11 0xFCE0F15089BCCB7DC4263A SELFDESTRUCT 0xCC CREATE PUSH5 0x736F6C6343 STOP ADDMOD XOR STOP CALLER "
				},
				"gasEstimates": {
					"creation": {
						"codeDepositCost": "215200",
						"executionCost": "255",
						"totalCost": "215455"
					},
					"external": {
						"getGrade(int256)": "infinite"
					}
				},
				"methodIdentifiers": {
					"getGrade(int256)": "654b5def"
				}
			},
			"storageLayout": {
				"storage": [],
				"types": null
			},
			"userdoc": {
				"kind": "user",
				"methods": {},
				"version": 1
			}
		}
	}
}