{
	"20thfeb.sol": {
		"day4": {
			"abi": [
				{
					"inputs": [
						{
							"internalType": "uint256",
							"name": "",
							"type": "uint256"
						}
					],
					"name": "Arr1",
					"outputs": [
						{
							"internalType": "uint256",
							"name": "",
							"type": "uint256"
						}
					],
					"stateMutability": "view",
					"type": "function"
				},
				{
					"inputs": [
						{
							"internalType": "int256",
							"name": "age",
							"type": "int256"
						}
					],
					"name": "canVote",
					"outputs": [
						{
							"internalType": "string",
							"name": "",
							"type": "string"
						}
					],
					"stateMutability": "pure",
					"type": "function"
				},
				{
					"inputs": [],
					"name": "getArray",
					"outputs": [
						{
							"internalType": "uint256[3]",
							"name": "",
							"type": "uint256[3]"
						}
					],
					"stateMutability": "view",
					"type": "function"
				},
				{
					"inputs": [],
					"name": "loop1",
					"outputs": [
						{
							"internalType": "uint256",
							"name": "",
							"type": "uint256"
						}
					],
					"stateMutability": "pure",
					"type": "function"
				},
				{
					"inputs": [],
					"name": "loop2",
					"outputs": [
						{
							"internalType": "uint256",
							"name": "",
							"type": "uint256"
						}
					],
					"stateMutability": "pure",
					"type": "function"
				}
			],
			"devdoc": {
				"kind": "dev",
				"methods": {},
				"version": 1
			},
			"evm": {
				"assembly": "    /* \"20thfeb.sol\":57:841  contract day4 {... */\n  mstore(0x40, 0x80)\n    /* \"20thfeb.sol\":712:746  uint[3] public Arr1 =[100,200,300] */\n  mload(0x40)\n  dup1\n  0x60\n  add\n  0x40\n  mstore\n  dup1\n    /* \"20thfeb.sol\":734:737  100 */\n  0x64\n    /* \"20thfeb.sol\":712:746  uint[3] public Arr1 =[100,200,300] */\n  0xffff\n  and\n  dup2\n  mstore\n  0x20\n  add\n    /* \"20thfeb.sol\":738:741  200 */\n  0xc8\n    /* \"20thfeb.sol\":712:746  uint[3] public Arr1 =[100,200,300] */\n  0xffff\n  and\n  dup2\n  mstore\n  0x20\n  add\n    /* \"20thfeb.sol\":742:745  300 */\n  0x012c\n    /* \"20thfeb.sol\":712:746  uint[3] public Arr1 =[100,200,300] */\n  0xffff\n  and\n  dup2\n  mstore\n  pop\n  0x00\n  swap1\n  0x03\n  tag_1\n  swap3\n  swap2\n  swap1\n  tag_2\n  jump\t// in\ntag_1:\n  pop\n    /* \"20thfeb.sol\":57:841  contract day4 {... */\n  callvalue\n  dup1\n  iszero\n  tag_3\n  jumpi\n  0x00\n  dup1\n  revert\ntag_3:\n  pop\n  jump(tag_4)\ntag_2:\n  dup3\n  0x03\n  dup2\n  add\n  swap3\n  dup3\n  iszero\n  tag_5\n  jumpi\n  swap2\n  0x20\n  mul\n  dup3\n  add\ntag_6:\n  dup3\n  dup2\n  gt\n  iszero\n  tag_7\n  jumpi\n  dup3\n  mload\n  dup3\n  swap1\n  0xffff\n  and\n  swap1\n  sstore\n  swap2\n  0x20\n  add\n  swap2\n  swap1\n  0x01\n  add\n  swap1\n  jump(tag_6)\ntag_7:\ntag_5:\n  pop\n  swap1\n  pop\n  tag_8\n  swap2\n  swap1\n  tag_9\n  jump\t// in\ntag_8:\n  pop\n  swap1\n  jump\t// out\ntag_9:\ntag_10:\n  dup1\n  dup3\n  gt\n  iszero\n  tag_11\n  jumpi\n  0x00\n  dup2\n  0x00\n  swap1\n  sstore\n  pop\n  0x01\n  add\n  jump(tag_10)\ntag_11:\n  pop\n  swap1\n  jump\t// out\ntag_4:\n  dataSize(sub_0)\n  dup1\n  dataOffset(sub_0)\n  0x00\n  codecopy\n  0x00\n  return\nstop\n\nsub_0: assembly {\n        /* \"20thfeb.sol\":57:841  contract day4 {... */\n      mstore(0x40, 0x80)\n      callvalue\n      dup1\n      iszero\n      tag_1\n      jumpi\n      0x00\n      dup1\n      revert\n    tag_1:\n      pop\n      jumpi(tag_2, lt(calldatasize, 0x04))\n      shr(0xe0, calldataload(0x00))\n      dup1\n      0x7cb374c9\n      eq\n      tag_3\n      jumpi\n      dup1\n      0xa89edd59\n      eq\n      tag_4\n      jumpi\n      dup1\n      0xac2a5ad8\n      eq\n      tag_5\n      jumpi\n      dup1\n      0xd504ea1d\n      eq\n      tag_6\n      jumpi\n      dup1\n      0xf5fb1bf8\n      eq\n      tag_7\n      jumpi\n    tag_2:\n      0x00\n      dup1\n      revert\n        /* \"20thfeb.sol\":712:746  uint[3] public Arr1 =[100,200,300] */\n    tag_3:\n      tag_8\n      0x04\n      dup1\n      calldatasize\n      sub\n      dup2\n      add\n      swap1\n      tag_9\n      swap2\n      swap1\n      tag_10\n      jump\t// in\n    tag_9:\n      tag_11\n      jump\t// in\n    tag_8:\n      mload(0x40)\n      tag_12\n      swap2\n      swap1\n      tag_13\n      jump\t// in\n    tag_12:\n      mload(0x40)\n      dup1\n      swap2\n      sub\n      swap1\n      return\n        /* \"20thfeb.sol\":467:706  function loop2() public pure returns (uint256) {... */\n    tag_4:\n      tag_14\n      tag_15\n      jump\t// in\n    tag_14:\n      mload(0x40)\n      tag_16\n      swap2\n      swap1\n      tag_13\n      jump\t// in\n    tag_16:\n      mload(0x40)\n      dup1\n      swap2\n      sub\n      swap1\n      return\n        /* \"20thfeb.sol\":77:234  function canVote(int256 age) public pure returns (string memory) {... */\n    tag_5:\n      tag_17\n      0x04\n      dup1\n      calldatasize\n      sub\n      dup2\n      add\n      swap1\n      tag_18\n      swap2\n      swap1\n      tag_19\n      jump\t// in\n    tag_18:\n      tag_20\n      jump\t// in\n    tag_17:\n      mload(0x40)\n      tag_21\n      swap2\n      swap1\n      tag_22\n      jump\t// in\n    tag_21:\n      mload(0x40)\n      dup1\n      swap2\n      sub\n      swap1\n      return\n        /* \"20thfeb.sol\":753:837  function getArray() public view returns(uint[3] memory){... */\n    tag_6:\n      tag_23\n      tag_24\n      jump\t// in\n    tag_23:\n      mload(0x40)\n      tag_25\n      swap2\n      swap1\n      tag_26\n      jump\t// in\n    tag_25:\n      mload(0x40)\n      dup1\n      swap2\n      sub\n      swap1\n      return\n        /* \"20thfeb.sol\":240:461  function loop1() public pure returns (uint256) {... */\n    tag_7:\n      tag_27\n      tag_28\n      jump\t// in\n    tag_27:\n      mload(0x40)\n      tag_29\n      swap2\n      swap1\n      tag_13\n      jump\t// in\n    tag_29:\n      mload(0x40)\n      dup1\n      swap2\n      sub\n      swap1\n      return\n        /* \"20thfeb.sol\":712:746  uint[3] public Arr1 =[100,200,300] */\n    tag_11:\n      0x00\n      dup2\n      0x03\n      dup2\n      lt\n      tag_30\n      jumpi\n      0x00\n      dup1\n      revert\n    tag_30:\n      add\n      0x00\n      swap2\n      pop\n      swap1\n      pop\n      sload\n      dup2\n      jump\t// out\n        /* \"20thfeb.sol\":467:706  function loop2() public pure returns (uint256) {... */\n    tag_15:\n        /* \"20thfeb.sol\":505:512  uint256 */\n      0x00\n        /* \"20thfeb.sol\":524:533  uint256 i */\n      dup1\n        /* \"20thfeb.sol\":543:549  uint j */\n      0x00\n        /* \"20thfeb.sol\":559:682  while (i < 10) {... */\n    tag_33:\n        /* \"20thfeb.sol\":570:572  10 */\n      0x0a\n        /* \"20thfeb.sol\":566:567  i */\n      dup3\n        /* \"20thfeb.sol\":566:572  i < 10 */\n      lt\n        /* \"20thfeb.sol\":559:682  while (i < 10) {... */\n      iszero\n      tag_34\n      jumpi\n        /* \"20thfeb.sol\":588:591  i++ */\n      dup2\n      dup1\n      tag_35\n      swap1\n      tag_36\n      jump\t// in\n    tag_35:\n      swap3\n      pop\n      pop\n        /* \"20thfeb.sol\":611:612  5 */\n      0x05\n        /* \"20thfeb.sol\":608:609  i */\n      dup3\n        /* \"20thfeb.sol\":608:612  i==5 */\n      sub\n        /* \"20thfeb.sol\":605:655  if(i==5){... */\n      iszero\n        /* \"20thfeb.sol\":631:639  continue */\n      tag_33\n        /* \"20thfeb.sol\":605:655  if(i==5){... */\n      jumpi\n        /* \"20thfeb.sol\":668:671  j++ */\n      dup1\n      dup1\n      tag_38\n      swap1\n      tag_36\n      jump\t// in\n    tag_38:\n      swap2\n      pop\n      pop\n        /* \"20thfeb.sol\":559:682  while (i < 10) {... */\n      jump(tag_33)\n    tag_34:\n        /* \"20thfeb.sol\":698:699  i */\n      dup2\n        /* \"20thfeb.sol\":691:699  return i */\n      swap3\n      pop\n      pop\n      pop\n        /* \"20thfeb.sol\":467:706  function loop2() public pure returns (uint256) {... */\n      swap1\n      jump\t// out\n        /* \"20thfeb.sol\":77:234  function canVote(int256 age) public pure returns (string memory) {... */\n    tag_20:\n        /* \"20thfeb.sol\":127:140  string memory */\n      0x60\n        /* \"20thfeb.sol\":194:196  18 */\n      0x12\n        /* \"20thfeb.sol\":187:190  age */\n      dup3\n        /* \"20thfeb.sol\":187:196  age >= 18 */\n      slt\n      iszero\n        /* \"20thfeb.sol\":187:226  age >= 18 ? \"can Vote\" : \"can not Vote\" */\n      tag_40\n      jumpi\n      mload(0x40)\n      dup1\n      0x40\n      add\n      0x40\n      mstore\n      dup1\n      0x0c\n      dup2\n      mstore\n      0x20\n      add\n      0x63616e206e6f7420566f74650000000000000000000000000000000000000000\n      dup2\n      mstore\n      pop\n      jump(tag_41)\n    tag_40:\n      mload(0x40)\n      dup1\n      0x40\n      add\n      0x40\n      mstore\n      dup1\n      0x08\n      dup2\n      mstore\n      0x20\n      add\n      0x63616e20566f7465000000000000000000000000000000000000000000000000\n      dup2\n      mstore\n      pop\n    tag_41:\n        /* \"20thfeb.sol\":179:227  return (age >= 18 ? \"can Vote\" : \"can not Vote\") */\n      swap1\n      pop\n        /* \"20thfeb.sol\":77:234  function canVote(int256 age) public pure returns (string memory) {... */\n      swap2\n      swap1\n      pop\n      jump\t// out\n        /* \"20thfeb.sol\":753:837  function getArray() public view returns(uint[3] memory){... */\n    tag_24:\n        /* \"20thfeb.sol\":793:807  uint[3] memory */\n      tag_42\n      tag_43\n      jump\t// in\n    tag_42:\n        /* \"20thfeb.sol\":826:830  Arr1 */\n      0x00\n        /* \"20thfeb.sol\":818:830  return  Arr1 */\n      0x03\n      dup1\n      0x20\n      mul\n      mload(0x40)\n      swap1\n      dup2\n      add\n      0x40\n      mstore\n      dup1\n      swap3\n      swap2\n      swap1\n      dup3\n      0x03\n      dup1\n      iszero\n      tag_45\n      jumpi\n      0x20\n      mul\n      dup3\n      add\n      swap2\n    tag_46:\n      dup2\n      sload\n      dup2\n      mstore\n      0x20\n      add\n      swap1\n      0x01\n      add\n      swap1\n      dup1\n      dup4\n      gt\n      tag_46\n      jumpi\n    tag_45:\n      pop\n      pop\n      pop\n      pop\n      pop\n      swap1\n      pop\n        /* \"20thfeb.sol\":753:837  function getArray() public view returns(uint[3] memory){... */\n      swap1\n      jump\t// out\n        /* \"20thfeb.sol\":240:461  function loop1() public pure returns (uint256) {... */\n    tag_28:\n        /* \"20thfeb.sol\":278:285  uint256 */\n      0x00\n        /* \"20thfeb.sol\":297:306  uint256 j */\n      dup1\n        /* \"20thfeb.sol\":321:330  uint256 i */\n      0x00\n        /* \"20thfeb.sol\":316:437  for (uint256 i = 0; i < 10; i++) {... */\n    tag_48:\n        /* \"20thfeb.sol\":340:342  10 */\n      0x0a\n        /* \"20thfeb.sol\":336:337  i */\n      dup2\n        /* \"20thfeb.sol\":336:342  i < 10 */\n      lt\n        /* \"20thfeb.sol\":316:437  for (uint256 i = 0; i < 10; i++) {... */\n      iszero\n      tag_49\n      jumpi\n        /* \"20thfeb.sol\":369:370  5 */\n      0x05\n        /* \"20thfeb.sol\":366:367  i */\n      dup2\n        /* \"20thfeb.sol\":366:370  i==5 */\n      sub\n        /* \"20thfeb.sol\":363:410  if(i==5){... */\n      iszero\n        /* \"20thfeb.sol\":389:394  break */\n      tag_49\n        /* \"20thfeb.sol\":363:410  if(i==5){... */\n      jumpi\n        /* \"20thfeb.sol\":423:426  j++ */\n      dup2\n      dup1\n      tag_52\n      swap1\n      tag_36\n      jump\t// in\n    tag_52:\n      swap3\n      pop\n      pop\n        /* \"20thfeb.sol\":344:347  i++ */\n      dup1\n      dup1\n      0x01\n      add\n      swap2\n      pop\n      pop\n        /* \"20thfeb.sol\":316:437  for (uint256 i = 0; i < 10; i++) {... */\n      jump(tag_48)\n    tag_49:\n      pop\n        /* \"20thfeb.sol\":453:454  j */\n      dup1\n        /* \"20thfeb.sol\":446:454  return j */\n      swap2\n      pop\n      pop\n        /* \"20thfeb.sol\":240:461  function loop1() public pure returns (uint256) {... */\n      swap1\n      jump\t// out\n    tag_43:\n      mload(0x40)\n      dup1\n      0x60\n      add\n      0x40\n      mstore\n      dup1\n      0x03\n      swap1\n      0x20\n      dup3\n      mul\n      dup1\n      calldatasize\n      dup4\n      calldatacopy\n      dup1\n      dup3\n      add\n      swap2\n      pop\n      pop\n      swap1\n      pop\n      pop\n      swap1\n      jump\t// out\n        /* \"#utility.yul\":88:205   */\n    tag_54:\n        /* \"#utility.yul\":197:198   */\n      0x00\n        /* \"#utility.yul\":194:195   */\n      dup1\n        /* \"#utility.yul\":187:199   */\n      revert\n        /* \"#utility.yul\":334:411   */\n    tag_56:\n        /* \"#utility.yul\":371:378   */\n      0x00\n        /* \"#utility.yul\":400:405   */\n      dup2\n        /* \"#utility.yul\":389:405   */\n      swap1\n      pop\n        /* \"#utility.yul\":334:411   */\n      swap2\n      swap1\n      pop\n      jump\t// out\n        /* \"#utility.yul\":417:539   */\n    tag_57:\n        /* \"#utility.yul\":490:514   */\n      tag_82\n        /* \"#utility.yul\":508:513   */\n      dup2\n        /* \"#utility.yul\":490:514   */\n      tag_56\n      jump\t// in\n    tag_82:\n        /* \"#utility.yul\":483:488   */\n      dup2\n        /* \"#utility.yul\":480:515   */\n      eq\n        /* \"#utility.yul\":470:533   */\n      tag_83\n      jumpi\n        /* \"#utility.yul\":529:530   */\n      0x00\n        /* \"#utility.yul\":526:527   */\n      dup1\n        /* \"#utility.yul\":519:531   */\n      revert\n        /* \"#utility.yul\":470:533   */\n    tag_83:\n        /* \"#utility.yul\":417:539   */\n      pop\n      jump\t// out\n        /* \"#utility.yul\":545:684   */\n    tag_58:\n        /* \"#utility.yul\":591:596   */\n      0x00\n        /* \"#utility.yul\":629:635   */\n      dup2\n        /* \"#utility.yul\":616:636   */\n      calldataload\n        /* \"#utility.yul\":607:636   */\n      swap1\n      pop\n        /* \"#utility.yul\":645:678   */\n      tag_85\n        /* \"#utility.yul\":672:677   */\n      dup2\n        /* \"#utility.yul\":645:678   */\n      tag_57\n      jump\t// in\n    tag_85:\n        /* \"#utility.yul\":545:684   */\n      swap3\n      swap2\n      pop\n      pop\n      jump\t// out\n        /* \"#utility.yul\":690:1019   */\n    tag_10:\n        /* \"#utility.yul\":749:755   */\n      0x00\n        /* \"#utility.yul\":798:800   */\n      0x20\n        /* \"#utility.yul\":786:795   */\n      dup3\n        /* \"#utility.yul\":777:784   */\n      dup5\n        /* \"#utility.yul\":773:796   */\n      sub\n        /* \"#utility.yul\":769:801   */\n      slt\n        /* \"#utility.yul\":766:885   */\n      iszero\n      tag_87\n      jumpi\n        /* \"#utility.yul\":804:883   */\n      tag_88\n      tag_54\n      jump\t// in\n    tag_88:\n        /* \"#utility.yul\":766:885   */\n    tag_87:\n        /* \"#utility.yul\":924:925   */\n      0x00\n        /* \"#utility.yul\":949:1002   */\n      tag_89\n        /* \"#utility.yul\":994:1001   */\n      dup5\n        /* \"#utility.yul\":985:991   */\n      dup3\n        /* \"#utility.yul\":974:983   */\n      dup6\n        /* \"#utility.yul\":970:992   */\n      add\n        /* \"#utility.yul\":949:1002   */\n      tag_58\n      jump\t// in\n    tag_89:\n        /* \"#utility.yul\":939:1002   */\n      swap2\n      pop\n        /* \"#utility.yul\":895:1012   */\n      pop\n        /* \"#utility.yul\":690:1019   */\n      swap3\n      swap2\n      pop\n      pop\n      jump\t// out\n        /* \"#utility.yul\":1025:1143   */\n    tag_59:\n        /* \"#utility.yul\":1112:1136   */\n      tag_91\n        /* \"#utility.yul\":1130:1135   */\n      dup2\n        /* \"#utility.yul\":1112:1136   */\n      tag_56\n      jump\t// in\n    tag_91:\n        /* \"#utility.yul\":1107:1110   */\n      dup3\n        /* \"#utility.yul\":1100:1137   */\n      mstore\n        /* \"#utility.yul\":1025:1143   */\n      pop\n      pop\n      jump\t// out\n        /* \"#utility.yul\":1149:1371   */\n    tag_13:\n        /* \"#utility.yul\":1242:1246   */\n      0x00\n        /* \"#utility.yul\":1280:1282   */\n      0x20\n        /* \"#utility.yul\":1269:1278   */\n      dup3\n        /* \"#utility.yul\":1265:1283   */\n      add\n        /* \"#utility.yul\":1257:1283   */\n      swap1\n      pop\n        /* \"#utility.yul\":1293:1364   */\n      tag_93\n        /* \"#utility.yul\":1361:1362   */\n      0x00\n        /* \"#utility.yul\":1350:1359   */\n      dup4\n        /* \"#utility.yul\":1346:1363   */\n      add\n        /* \"#utility.yul\":1337:1343   */\n      dup5\n        /* \"#utility.yul\":1293:1364   */\n      tag_59\n      jump\t// in\n    tag_93:\n        /* \"#utility.yul\":1149:1371   */\n      swap3\n      swap2\n      pop\n      pop\n      jump\t// out\n        /* \"#utility.yul\":1377:1453   */\n    tag_60:\n        /* \"#utility.yul\":1413:1420   */\n      0x00\n        /* \"#utility.yul\":1442:1447   */\n      dup2\n        /* \"#utility.yul\":1431:1447   */\n      swap1\n      pop\n        /* \"#utility.yul\":1377:1453   */\n      swap2\n      swap1\n      pop\n      jump\t// out\n        /* \"#utility.yul\":1459:1579   */\n    tag_61:\n        /* \"#utility.yul\":1531:1554   */\n      tag_96\n        /* \"#utility.yul\":1548:1553   */\n      dup2\n        /* \"#utility.yul\":1531:1554   */\n      tag_60\n      jump\t// in\n    tag_96:\n        /* \"#utility.yul\":1524:1529   */\n      dup2\n        /* \"#utility.yul\":1521:1555   */\n      eq\n        /* \"#utility.yul\":1511:1573   */\n      tag_97\n      jumpi\n        /* \"#utility.yul\":1569:1570   */\n      0x00\n        /* \"#utility.yul\":1566:1567   */\n      dup1\n        /* \"#utility.yul\":1559:1571   */\n      revert\n        /* \"#utility.yul\":1511:1573   */\n    tag_97:\n        /* \"#utility.yul\":1459:1579   */\n      pop\n      jump\t// out\n        /* \"#utility.yul\":1585:1722   */\n    tag_62:\n        /* \"#utility.yul\":1630:1635   */\n      0x00\n        /* \"#utility.yul\":1668:1674   */\n      dup2\n        /* \"#utility.yul\":1655:1675   */\n      calldataload\n        /* \"#utility.yul\":1646:1675   */\n      swap1\n      pop\n        /* \"#utility.yul\":1684:1716   */\n      tag_99\n        /* \"#utility.yul\":1710:1715   */\n      dup2\n        /* \"#utility.yul\":1684:1716   */\n      tag_61\n      jump\t// in\n    tag_99:\n        /* \"#utility.yul\":1585:1722   */\n      swap3\n      swap2\n      pop\n      pop\n      jump\t// out\n        /* \"#utility.yul\":1728:2055   */\n    tag_19:\n        /* \"#utility.yul\":1786:1792   */\n      0x00\n        /* \"#utility.yul\":1835:1837   */\n      0x20\n        /* \"#utility.yul\":1823:1832   */\n      dup3\n        /* \"#utility.yul\":1814:1821   */\n      dup5\n        /* \"#utility.yul\":1810:1833   */\n      sub\n        /* \"#utility.yul\":1806:1838   */\n      slt\n        /* \"#utility.yul\":1803:1922   */\n      iszero\n      tag_101\n      jumpi\n        /* \"#utility.yul\":1841:1920   */\n      tag_102\n      tag_54\n      jump\t// in\n    tag_102:\n        /* \"#utility.yul\":1803:1922   */\n    tag_101:\n        /* \"#utility.yul\":1961:1962   */\n      0x00\n        /* \"#utility.yul\":1986:2038   */\n      tag_103\n        /* \"#utility.yul\":2030:2037   */\n      dup5\n        /* \"#utility.yul\":2021:2027   */\n      dup3\n        /* \"#utility.yul\":2010:2019   */\n      dup6\n        /* \"#utility.yul\":2006:2028   */\n      add\n        /* \"#utility.yul\":1986:2038   */\n      tag_62\n      jump\t// in\n    tag_103:\n        /* \"#utility.yul\":1976:2038   */\n      swap2\n      pop\n        /* \"#utility.yul\":1932:2048   */\n      pop\n        /* \"#utility.yul\":1728:2055   */\n      swap3\n      swap2\n      pop\n      pop\n      jump\t// out\n        /* \"#utility.yul\":2061:2160   */\n    tag_63:\n        /* \"#utility.yul\":2113:2119   */\n      0x00\n        /* \"#utility.yul\":2147:2152   */\n      dup2\n        /* \"#utility.yul\":2141:2153   */\n      mload\n        /* \"#utility.yul\":2131:2153   */\n      swap1\n      pop\n        /* \"#utility.yul\":2061:2160   */\n      swap2\n      swap1\n      pop\n      jump\t// out\n        /* \"#utility.yul\":2166:2335   */\n    tag_64:\n        /* \"#utility.yul\":2250:2261   */\n      0x00\n        /* \"#utility.yul\":2284:2290   */\n      dup3\n        /* \"#utility.yul\":2279:2282   */\n      dup3\n        /* \"#utility.yul\":2272:2291   */\n      mstore\n        /* \"#utility.yul\":2324:2328   */\n      0x20\n        /* \"#utility.yul\":2319:2322   */\n      dup3\n        /* \"#utility.yul\":2315:2329   */\n      add\n        /* \"#utility.yul\":2300:2329   */\n      swap1\n      pop\n        /* \"#utility.yul\":2166:2335   */\n      swap3\n      swap2\n      pop\n      pop\n      jump\t// out\n        /* \"#utility.yul\":2341:2587   */\n    tag_65:\n        /* \"#utility.yul\":2422:2423   */\n      0x00\n        /* \"#utility.yul\":2432:2545   */\n    tag_107:\n        /* \"#utility.yul\":2446:2452   */\n      dup4\n        /* \"#utility.yul\":2443:2444   */\n      dup2\n        /* \"#utility.yul\":2440:2453   */\n      lt\n        /* \"#utility.yul\":2432:2545   */\n      iszero\n      tag_109\n      jumpi\n        /* \"#utility.yul\":2531:2532   */\n      dup1\n        /* \"#utility.yul\":2526:2529   */\n      dup3\n        /* \"#utility.yul\":2522:2533   */\n      add\n        /* \"#utility.yul\":2516:2534   */\n      mload\n        /* \"#utility.yul\":2512:2513   */\n      dup2\n        /* \"#utility.yul\":2507:2510   */\n      dup5\n        /* \"#utility.yul\":2503:2514   */\n      add\n        /* \"#utility.yul\":2496:2535   */\n      mstore\n        /* \"#utility.yul\":2468:2470   */\n      0x20\n        /* \"#utility.yul\":2465:2466   */\n      dup2\n        /* \"#utility.yul\":2461:2471   */\n      add\n        /* \"#utility.yul\":2456:2471   */\n      swap1\n      pop\n        /* \"#utility.yul\":2432:2545   */\n      jump(tag_107)\n    tag_109:\n        /* \"#utility.yul\":2579:2580   */\n      0x00\n        /* \"#utility.yul\":2570:2576   */\n      dup5\n        /* \"#utility.yul\":2565:2568   */\n      dup5\n        /* \"#utility.yul\":2561:2577   */\n      add\n        /* \"#utility.yul\":2554:2581   */\n      mstore\n        /* \"#utility.yul\":2403:2587   */\n      pop\n        /* \"#utility.yul\":2341:2587   */\n      pop\n      pop\n      pop\n      jump\t// out\n        /* \"#utility.yul\":2593:2695   */\n    tag_66:\n        /* \"#utility.yul\":2634:2640   */\n      0x00\n        /* \"#utility.yul\":2685:2687   */\n      0x1f\n        /* \"#utility.yul\":2681:2688   */\n      not\n        /* \"#utility.yul\":2676:2678   */\n      0x1f\n        /* \"#utility.yul\":2669:2674   */\n      dup4\n        /* \"#utility.yul\":2665:2679   */\n      add\n        /* \"#utility.yul\":2661:2689   */\n      and\n        /* \"#utility.yul\":2651:2689   */\n      swap1\n      pop\n        /* \"#utility.yul\":2593:2695   */\n      swap2\n      swap1\n      pop\n      jump\t// out\n        /* \"#utility.yul\":2701:3078   */\n    tag_67:\n        /* \"#utility.yul\":2789:2792   */\n      0x00\n        /* \"#utility.yul\":2817:2856   */\n      tag_112\n        /* \"#utility.yul\":2850:2855   */\n      dup3\n        /* \"#utility.yul\":2817:2856   */\n      tag_63\n      jump\t// in\n    tag_112:\n        /* \"#utility.yul\":2872:2943   */\n      tag_113\n        /* \"#utility.yul\":2936:2942   */\n      dup2\n        /* \"#utility.yul\":2931:2934   */\n      dup6\n        /* \"#utility.yul\":2872:2943   */\n      tag_64\n      jump\t// in\n    tag_113:\n        /* \"#utility.yul\":2865:2943   */\n      swap4\n      pop\n        /* \"#utility.yul\":2952:3017   */\n      tag_114\n        /* \"#utility.yul\":3010:3016   */\n      dup2\n        /* \"#utility.yul\":3005:3008   */\n      dup6\n        /* \"#utility.yul\":2998:3002   */\n      0x20\n        /* \"#utility.yul\":2991:2996   */\n      dup7\n        /* \"#utility.yul\":2987:3003   */\n      add\n        /* \"#utility.yul\":2952:3017   */\n      tag_65\n      jump\t// in\n    tag_114:\n        /* \"#utility.yul\":3042:3071   */\n      tag_115\n        /* \"#utility.yul\":3064:3070   */\n      dup2\n        /* \"#utility.yul\":3042:3071   */\n      tag_66\n      jump\t// in\n    tag_115:\n        /* \"#utility.yul\":3037:3040   */\n      dup5\n        /* \"#utility.yul\":3033:3072   */\n      add\n        /* \"#utility.yul\":3026:3072   */\n      swap2\n      pop\n        /* \"#utility.yul\":2793:3078   */\n      pop\n        /* \"#utility.yul\":2701:3078   */\n      swap3\n      swap2\n      pop\n      pop\n      jump\t// out\n        /* \"#utility.yul\":3084:3397   */\n    tag_22:\n        /* \"#utility.yul\":3197:3201   */\n      0x00\n        /* \"#utility.yul\":3235:3237   */\n      0x20\n        /* \"#utility.yul\":3224:3233   */\n      dup3\n        /* \"#utility.yul\":3220:3238   */\n      add\n        /* \"#utility.yul\":3212:3238   */\n      swap1\n      pop\n        /* \"#utility.yul\":3284:3293   */\n      dup2\n        /* \"#utility.yul\":3278:3282   */\n      dup2\n        /* \"#utility.yul\":3274:3294   */\n      sub\n        /* \"#utility.yul\":3270:3271   */\n      0x00\n        /* \"#utility.yul\":3259:3268   */\n      dup4\n        /* \"#utility.yul\":3255:3272   */\n      add\n        /* \"#utility.yul\":3248:3295   */\n      mstore\n        /* \"#utility.yul\":3312:3390   */\n      tag_117\n        /* \"#utility.yul\":3385:3389   */\n      dup2\n        /* \"#utility.yul\":3376:3382   */\n      dup5\n        /* \"#utility.yul\":3312:3390   */\n      tag_67\n      jump\t// in\n    tag_117:\n        /* \"#utility.yul\":3304:3390   */\n      swap1\n      pop\n        /* \"#utility.yul\":3084:3397   */\n      swap3\n      swap2\n      pop\n      pop\n      jump\t// out\n        /* \"#utility.yul\":3403:3507   */\n    tag_68:\n        /* \"#utility.yul\":3468:3474   */\n      0x00\n        /* \"#utility.yul\":3496:3500   */\n      0x03\n        /* \"#utility.yul\":3486:3500   */\n      swap1\n      pop\n        /* \"#utility.yul\":3403:3507   */\n      swap2\n      swap1\n      pop\n      jump\t// out\n        /* \"#utility.yul\":3513:3656   */\n    tag_69:\n        /* \"#utility.yul\":3610:3621   */\n      0x00\n        /* \"#utility.yul\":3647:3650   */\n      dup2\n        /* \"#utility.yul\":3632:3650   */\n      swap1\n      pop\n        /* \"#utility.yul\":3513:3656   */\n      swap3\n      swap2\n      pop\n      pop\n      jump\t// out\n        /* \"#utility.yul\":3662:3760   */\n    tag_70:\n        /* \"#utility.yul\":3727:3731   */\n      0x00\n        /* \"#utility.yul\":3750:3753   */\n      dup2\n        /* \"#utility.yul\":3742:3753   */\n      swap1\n      pop\n        /* \"#utility.yul\":3662:3760   */\n      swap2\n      swap1\n      pop\n      jump\t// out\n        /* \"#utility.yul\":3766:3874   */\n    tag_71:\n        /* \"#utility.yul\":3843:3867   */\n      tag_122\n        /* \"#utility.yul\":3861:3866   */\n      dup2\n        /* \"#utility.yul\":3843:3867   */\n      tag_56\n      jump\t// in\n    tag_122:\n        /* \"#utility.yul\":3838:3841   */\n      dup3\n        /* \"#utility.yul\":3831:3868   */\n      mstore\n        /* \"#utility.yul\":3766:3874   */\n      pop\n      pop\n      jump\t// out\n        /* \"#utility.yul\":3880:4059   */\n    tag_72:\n        /* \"#utility.yul\":3949:3959   */\n      0x00\n        /* \"#utility.yul\":3970:4016   */\n      tag_124\n        /* \"#utility.yul\":4012:4015   */\n      dup4\n        /* \"#utility.yul\":4004:4010   */\n      dup4\n        /* \"#utility.yul\":3970:4016   */\n      tag_71\n      jump\t// in\n    tag_124:\n        /* \"#utility.yul\":4048:4052   */\n      0x20\n        /* \"#utility.yul\":4043:4046   */\n      dup4\n        /* \"#utility.yul\":4039:4053   */\n      add\n        /* \"#utility.yul\":4025:4053   */\n      swap1\n      pop\n        /* \"#utility.yul\":3880:4059   */\n      swap3\n      swap2\n      pop\n      pop\n      jump\t// out\n        /* \"#utility.yul\":4065:4176   */\n    tag_73:\n        /* \"#utility.yul\":4133:4137   */\n      0x00\n        /* \"#utility.yul\":4165:4169   */\n      0x20\n        /* \"#utility.yul\":4160:4163   */\n      dup3\n        /* \"#utility.yul\":4156:4170   */\n      add\n        /* \"#utility.yul\":4148:4170   */\n      swap1\n      pop\n        /* \"#utility.yul\":4065:4176   */\n      swap2\n      swap1\n      pop\n      jump\t// out\n        /* \"#utility.yul\":4214:4908   */\n    tag_74:\n        /* \"#utility.yul\":4350:4402   */\n      tag_127\n        /* \"#utility.yul\":4396:4401   */\n      dup2\n        /* \"#utility.yul\":4350:4402   */\n      tag_68\n      jump\t// in\n    tag_127:\n        /* \"#utility.yul\":4418:4502   */\n      tag_128\n        /* \"#utility.yul\":4495:4501   */\n      dup2\n        /* \"#utility.yul\":4490:4493   */\n      dup5\n        /* \"#utility.yul\":4418:4502   */\n      tag_69\n      jump\t// in\n    tag_128:\n        /* \"#utility.yul\":4411:4502   */\n      swap3\n      pop\n        /* \"#utility.yul\":4526:4580   */\n      tag_129\n        /* \"#utility.yul\":4574:4579   */\n      dup3\n        /* \"#utility.yul\":4526:4580   */\n      tag_70\n      jump\t// in\n    tag_129:\n        /* \"#utility.yul\":4603:4610   */\n      dup1\n        /* \"#utility.yul\":4634:4635   */\n      0x00\n        /* \"#utility.yul\":4619:4901   */\n    tag_130:\n        /* \"#utility.yul\":4644:4650   */\n      dup4\n        /* \"#utility.yul\":4641:4642   */\n      dup2\n        /* \"#utility.yul\":4638:4651   */\n      lt\n        /* \"#utility.yul\":4619:4901   */\n      iszero\n      tag_132\n      jumpi\n        /* \"#utility.yul\":4720:4726   */\n      dup2\n        /* \"#utility.yul\":4714:4727   */\n      mload\n        /* \"#utility.yul\":4747:4810   */\n      tag_133\n        /* \"#utility.yul\":4806:4809   */\n      dup8\n        /* \"#utility.yul\":4791:4804   */\n      dup3\n        /* \"#utility.yul\":4747:4810   */\n      tag_72\n      jump\t// in\n    tag_133:\n        /* \"#utility.yul\":4740:4810   */\n      swap7\n      pop\n        /* \"#utility.yul\":4833:4891   */\n      tag_134\n        /* \"#utility.yul\":4884:4890   */\n      dup4\n        /* \"#utility.yul\":4833:4891   */\n      tag_73\n      jump\t// in\n    tag_134:\n        /* \"#utility.yul\":4823:4891   */\n      swap3\n      pop\n        /* \"#utility.yul\":4679:4901   */\n      pop\n        /* \"#utility.yul\":4666:4667   */\n      0x01\n        /* \"#utility.yul\":4663:4664   */\n      dup2\n        /* \"#utility.yul\":4659:4668   */\n      add\n        /* \"#utility.yul\":4654:4668   */\n      swap1\n      pop\n        /* \"#utility.yul\":4619:4901   */\n      jump(tag_130)\n    tag_132:\n        /* \"#utility.yul\":4623:4637   */\n      pop\n        /* \"#utility.yul\":4326:4908   */\n      pop\n      pop\n      pop\n        /* \"#utility.yul\":4214:4908   */\n      pop\n      pop\n      jump\t// out\n        /* \"#utility.yul\":4914:5228   */\n    tag_26:\n        /* \"#utility.yul\":5053:5057   */\n      0x00\n        /* \"#utility.yul\":5091:5093   */\n      0x60\n        /* \"#utility.yul\":5080:5089   */\n      dup3\n        /* \"#utility.yul\":5076:5094   */\n      add\n        /* \"#utility.yul\":5068:5094   */\n      swap1\n      pop\n        /* \"#utility.yul\":5104:5221   */\n      tag_136\n        /* \"#utility.yul\":5218:5219   */\n      0x00\n        /* \"#utility.yul\":5207:5216   */\n      dup4\n        /* \"#utility.yul\":5203:5220   */\n      add\n        /* \"#utility.yul\":5194:5200   */\n      dup5\n        /* \"#utility.yul\":5104:5221   */\n      tag_74\n      jump\t// in\n    tag_136:\n        /* \"#utility.yul\":4914:5228   */\n      swap3\n      swap2\n      pop\n      pop\n      jump\t// out\n        /* \"#utility.yul\":5234:5414   */\n    tag_75:\n        /* \"#utility.yul\":5282:5359   */\n      0x4e487b7100000000000000000000000000000000000000000000000000000000\n        /* \"#utility.yul\":5279:5280   */\n      0x00\n        /* \"#utility.yul\":5272:5360   */\n      mstore\n        /* \"#utility.yul\":5379:5383   */\n      0x11\n        /* \"#utility.yul\":5376:5377   */\n      0x04\n        /* \"#utility.yul\":5369:5384   */\n      mstore\n        /* \"#utility.yul\":5403:5407   */\n      0x24\n        /* \"#utility.yul\":5400:5401   */\n      0x00\n        /* \"#utility.yul\":5393:5408   */\n      revert\n        /* \"#utility.yul\":5420:5653   */\n    tag_36:\n        /* \"#utility.yul\":5459:5462   */\n      0x00\n        /* \"#utility.yul\":5482:5506   */\n      tag_139\n        /* \"#utility.yul\":5500:5505   */\n      dup3\n        /* \"#utility.yul\":5482:5506   */\n      tag_56\n      jump\t// in\n    tag_139:\n        /* \"#utility.yul\":5473:5506   */\n      swap2\n      pop\n        /* \"#utility.yul\":5528:5594   */\n      0xffffffffffffffffffffffffffffffffffffffffffffffffffffffffffffffff\n        /* \"#utility.yul\":5521:5526   */\n      dup3\n        /* \"#utility.yul\":5518:5595   */\n      sub\n        /* \"#utility.yul\":5515:5618   */\n      tag_140\n      jumpi\n        /* \"#utility.yul\":5598:5616   */\n      tag_141\n      tag_75\n      jump\t// in\n    tag_141:\n        /* \"#utility.yul\":5515:5618   */\n    tag_140:\n        /* \"#utility.yul\":5645:5646   */\n      0x01\n        /* \"#utility.yul\":5638:5643   */\n      dup3\n        /* \"#utility.yul\":5634:5647   */\n      add\n        /* \"#utility.yul\":5627:5647   */\n      swap1\n      pop\n        /* \"#utility.yul\":5420:5653   */\n      swap2\n      swap1\n      pop\n      jump\t// out\n\n    auxdata: 0xa2646970667358221220e8dc513548e6fed784dc25c91d23d189ca5ad7d945cf657b6c863571e82c91f664736f6c63430008180033\n}\n",
				"bytecode": {
					"linkReferences": {},
					"object": "60806040526040518060600160405280606461ffff16815260200160c861ffff16815260200161012c61ffff168152505f90600361003e929190610050565b5034801561004a575f80fd5b506100b1565b8260038101928215610085579160200282015b82811115610084578251829061ffff16905591602001919060010190610063565b5b5090506100929190610096565b5090565b5b808211156100ad575f815f905550600101610097565b5090565b61058d806100be5f395ff3fe608060405234801561000f575f80fd5b5060043610610055575f3560e01c80637cb374c914610059578063a89edd5914610089578063ac2a5ad8146100a7578063d504ea1d146100d7578063f5fb1bf8146100f5575b5f80fd5b610073600480360381019061006e91906102ca565b610113565b6040516100809190610304565b60405180910390f35b61009161012b565b60405161009e9190610304565b60405180910390f35b6100c160048036038101906100bc9190610350565b61016a565b6040516100ce9190610405565b60405180910390f35b6100df6101ee565b6040516100ec91906104ca565b60405180910390f35b6100fd610238565b60405161010a9190610304565b60405180910390f35b5f8160038110610121575f80fd5b015f915090505481565b5f805f5b600a82101561016257818061014390610510565b925050600582031561012f57808061015a90610510565b91505061012f565b819250505090565b606060128212156101b0576040518060400160405280600c81526020017f63616e206e6f7420566f746500000000000000000000000000000000000000008152506101e7565b6040518060400160405280600881526020017f63616e20566f74650000000000000000000000000000000000000000000000008152505b9050919050565b6101f6610271565b5f60038060200260405190810160405280929190826003801561022e576020028201915b81548152602001906001019080831161021a575b5050505050905090565b5f805f5b600a81101561026957600581031561026957818061025990610510565b925050808060010191505061023c565b508091505090565b6040518060600160405280600390602082028036833780820191505090505090565b5f80fd5b5f819050919050565b6102a981610297565b81146102b3575f80fd5b50565b5f813590506102c4816102a0565b92915050565b5f602082840312156102df576102de610293565b5b5f6102ec848285016102b6565b91505092915050565b6102fe81610297565b82525050565b5f6020820190506103175f8301846102f5565b92915050565b5f819050919050565b61032f8161031d565b8114610339575f80fd5b50565b5f8135905061034a81610326565b92915050565b5f6020828403121561036557610364610293565b5b5f6103728482850161033c565b91505092915050565b5f81519050919050565b5f82825260208201905092915050565b5f5b838110156103b2578082015181840152602081019050610397565b5f8484015250505050565b5f601f19601f8301169050919050565b5f6103d78261037b565b6103e18185610385565b93506103f1818560208601610395565b6103fa816103bd565b840191505092915050565b5f6020820190508181035f83015261041d81846103cd565b905092915050565b5f60039050919050565b5f81905092915050565b5f819050919050565b61044b81610297565b82525050565b5f61045c8383610442565b60208301905092915050565b5f602082019050919050565b61047d81610425565b610487818461042f565b925061049282610439565b805f5b838110156104c25781516104a98782610451565b96506104b483610468565b925050600181019050610495565b505050505050565b5f6060820190506104dd5f830184610474565b92915050565b7f4e487b71000000000000000000000000000000000000000000000000000000005f52601160045260245ffd5b5f61051a82610297565b91507fffffffffffffffffffffffffffffffffffffffffffffffffffffffffffffffff820361054c5761054b6104e3565b5b60018201905091905056fea2646970667358221220e8dc513548e6fed784dc25c91d23d189ca5ad7d945cf657b6c863571e82c91f664736f6c63430008180033",
					"opcodes": "PUSH1 0x80 PUSH1 0x40 MSTORE PUSH1 0x40 MLOAD DUP1 PUSH1 0x60 ADD PUSH1 0x40 MSTORE DUP1 PUSH1 0x64 PUSH2 0xFFFF AND DUP2 MSTORE PUSH1 0x20 ADD PUSH1 0xC8 PUSH2 0xFFFF AND DUP2 MSTORE PUSH1 0x20 ADD PUSH2 0x12C PUSH2 0xFFFF AND DUP2 MSTORE POP PUSH0 SWAP1 PUSH1 0x3 PUSH2 0x3E SWAP3 SWAP2 SWAP1 PUSH2 0x50 JUMP JUMPDEST POP CALLVALUE DUP1 ISZERO PUSH2 0x4A JUMPI PUSH0 DUP1 REVERT JUMPDEST POP PUSH2 0xB1 JUMP JUMPDEST DUP3 PUSH1 0x3 DUP2 ADD SWAP3 DUP3 ISZERO PUSH2 0x85 JUMPI SWAP2 PUSH1 0x20 MUL DUP3 ADD JUMPDEST DUP3 DUP2 GT ISZERO PUSH2 0x84 JUMPI DUP3 MLOAD DUP3 SWAP1 PUSH2 0xFFFF AND SWAP1 SSTORE SWAP2 PUSH1 0x20 ADD SWAP2 SWAP1 PUSH1 0x1 ADD SWAP1 PUSH2 0x63 JUMP JUMPDEST JUMPDEST POP SWAP1 POP PUSH2 0x92 SWAP2 SWAP1 PUSH2 0x96 JUMP JUMPDEST POP SWAP1 JUMP JUMPDEST JUMPDEST DUP1 DUP3 GT ISZERO PUSH2 0xAD JUMPI PUSH0 DUP2 PUSH0 SWAP1 SSTORE POP PUSH1 0x1 ADD PUSH2 0x97 JUMP JUMPDEST POP SWAP1 JUMP JUMPDEST PUSH2 0x58D DUP1 PUSH2 0xBE PUSH0 CODECOPY PUSH0 RETURN INVALID PUSH1 0x80 PUSH1 0x40 MSTORE CALLVALUE DUP1 ISZERO PUSH2 0xF JUMPI PUSH0 DUP1 REVERT JUMPDEST POP PUSH1 0x4 CALLDATASIZE LT PUSH2 0x55 JUMPI PUSH0 CALLDATALOAD PUSH1 0xE0 SHR DUP1 PUSH4 0x7CB374C9 EQ PUSH2 0x59 JUMPI DUP1 PUSH4 0xA89EDD59 EQ PUSH2 0x89 JUMPI DUP1 PUSH4 0xAC2A5AD8 EQ PUSH2 0xA7 JUMPI DUP1 PUSH4 0xD504EA1D EQ PUSH2 0xD7 JUMPI DUP1 PUSH4 0xF5FB1BF8 EQ PUSH2 0xF5 JUMPI JUMPDEST PUSH0 DUP1 REVERT JUMPDEST PUSH2 0x73 PUSH1 0x4 DUP1 CALLDATASIZE SUB DUP2 ADD SWAP1 PUSH2 0x6E SWAP2 SWAP1 PUSH2 0x2CA JUMP JUMPDEST PUSH2 0x113 JUMP JUMPDEST PUSH1 0x40 MLOAD PUSH2 0x80 SWAP2 SWAP1 PUSH2 0x304 JUMP JUMPDEST PUSH1 0x40 MLOAD DUP1 SWAP2 SUB SWAP1 RETURN JUMPDEST PUSH2 0x91 PUSH2 0x12B JUMP JUMPDEST PUSH1 0x40 MLOAD PUSH2 0x9E SWAP2 SWAP1 PUSH2 0x304 JUMP JUMPDEST PUSH1 0x40 MLOAD DUP1 SWAP2 SUB SWAP1 RETURN JUMPDEST PUSH2 0xC1 PUSH1 0x4 DUP1 CALLDATASIZE SUB DUP2 ADD SWAP1 PUSH2 0xBC SWAP2 SWAP1 PUSH2 0x350 JUMP JUMPDEST PUSH2 0x16A JUMP JUMPDEST PUSH1 0x40 MLOAD PUSH2 0xCE SWAP2 SWAP1 PUSH2 0x405 JUMP JUMPDEST PUSH1 0x40 MLOAD DUP1 SWAP2 SUB SWAP1 RETURN JUMPDEST PUSH2 0xDF PUSH2 0x1EE JUMP JUMPDEST PUSH1 0x40 MLOAD PUSH2 0xEC SWAP2 SWAP1 PUSH2 0x4CA JUMP JUMPDEST PUSH1 0x40 MLOAD DUP1 SWAP2 SUB SWAP1 RETURN JUMPDEST PUSH2 0xFD PUSH2 0x238 JUMP JUMPDEST PUSH1 0x40 MLOAD PUSH2 0x10A SWAP2 SWAP1 PUSH2 0x304 JUMP JUMPDEST PUSH1 0x40 MLOAD DUP1 SWAP2 SUB SWAP1 RETURN JUMPDEST PUSH0 DUP2 PUSH1 0x3 DUP2 LT PUSH2 0x121 JUMPI PUSH0 DUP1 REVERT JUMPDEST ADD PUSH0 SWAP2 POP SWAP1 POP SLOAD DUP2 JUMP JUMPDEST PUSH0 DUP1 PUSH0 JUMPDEST PUSH1 0xA DUP3 LT ISZERO PUSH2 0x162 JUMPI DUP2 DUP1 PUSH2 0x143 SWAP1 PUSH2 0x510 JUMP JUMPDEST SWAP3 POP POP PUSH1 0x5 DUP3 SUB ISZERO PUSH2 0x12F JUMPI DUP1 DUP1 PUSH2 0x15A SWAP1 PUSH2 0x510 JUMP JUMPDEST SWAP2 POP POP PUSH2 0x12F JUMP JUMPDEST DUP2 SWAP3 POP POP POP SWAP1 JUMP JUMPDEST PUSH1 0x60 PUSH1 0x12 DUP3 SLT ISZERO PUSH2 0x1B0 JUMPI PUSH1 0x40 MLOAD DUP1 PUSH1 0x40 ADD PUSH1 0x40 MSTORE DUP1 PUSH1 0xC DUP2 MSTORE PUSH1 0x20 ADD PUSH32 0x63616E206E6F7420566F74650000000000000000000000000000000000000000 DUP2 MSTORE POP PUSH2 0x1E7 JUMP JUMPDEST PUSH1 0x40 MLOAD DUP1 PUSH1 0x40 ADD PUSH1 0x40 MSTORE DUP1 PUSH1 0x8 DUP2 MSTORE PUSH1 0x20 ADD PUSH32 0x63616E20566F7465000000000000000000000000000000000000000000000000 DUP2 MSTORE POP JUMPDEST SWAP1 POP SWAP2 SWAP1 POP JUMP JUMPDEST PUSH2 0x1F6 PUSH2 0x271 JUMP JUMPDEST PUSH0 PUSH1 0x3 DUP1 PUSH1 0x20 MUL PUSH1 0x40 MLOAD SWAP1 DUP2 ADD PUSH1 0x40 MSTORE DUP1 SWAP3 SWAP2 SWAP1 DUP3 PUSH1 0x3 DUP1 ISZERO PUSH2 0x22E JUMPI PUSH1 0x20 MUL DUP3 ADD SWAP2 JUMPDEST DUP2 SLOAD DUP2 MSTORE PUSH1 0x20 ADD SWAP1 PUSH1 0x1 ADD SWAP1 DUP1 DUP4 GT PUSH2 0x21A JUMPI JUMPDEST POP POP POP POP POP SWAP1 POP SWAP1 JUMP JUMPDEST PUSH0 DUP1 PUSH0 JUMPDEST PUSH1 0xA DUP2 LT ISZERO PUSH2 0x269 JUMPI PUSH1 0x5 DUP2 SUB ISZERO PUSH2 0x269 JUMPI DUP2 DUP1 PUSH2 0x259 SWAP1 PUSH2 0x510 JUMP JUMPDEST SWAP3 POP POP DUP1 DUP1 PUSH1 0x1 ADD SWAP2 POP POP PUSH2 0x23C JUMP JUMPDEST POP DUP1 SWAP2 POP POP SWAP1 JUMP JUMPDEST PUSH1 0x40 MLOAD DUP1 PUSH1 0x60 ADD PUSH1 0x40 MSTORE DUP1 PUSH1 0x3 SWAP1 PUSH1 0x20 DUP3 MUL DUP1 CALLDATASIZE DUP4 CALLDATACOPY DUP1 DUP3 ADD SWAP2 POP POP SWAP1 POP POP SWAP1 JUMP JUMPDEST PUSH0 DUP1 REVERT JUMPDEST PUSH0 DUP2 SWAP1 POP SWAP2 SWAP1 POP JUMP JUMPDEST PUSH2 0x2A9 DUP2 PUSH2 0x297 JUMP JUMPDEST DUP2 EQ PUSH2 0x2B3 JUMPI PUSH0 DUP1 REVERT JUMPDEST POP JUMP JUMPDEST PUSH0 DUP2 CALLDATALOAD SWAP1 POP PUSH2 0x2C4 DUP2 PUSH2 0x2A0 JUMP JUMPDEST SWAP3 SWAP2 POP POP JUMP JUMPDEST PUSH0 PUSH1 0x20 DUP3 DUP5 SUB SLT ISZERO PUSH2 0x2DF JUMPI PUSH2 0x2DE PUSH2 0x293 JUMP JUMPDEST JUMPDEST PUSH0 PUSH2 0x2EC DUP5 DUP3 DUP6 ADD PUSH2 0x2B6 JUMP JUMPDEST SWAP2 POP POP SWAP3 SWAP2 POP POP JUMP JUMPDEST PUSH2 0x2FE DUP2 PUSH2 0x297 JUMP JUMPDEST DUP3 MSTORE POP POP JUMP JUMPDEST PUSH0 PUSH1 0x20 DUP3 ADD SWAP1 POP PUSH2 0x317 PUSH0 DUP4 ADD DUP5 PUSH2 0x2F5 JUMP JUMPDEST SWAP3 SWAP2 POP POP JUMP JUMPDEST PUSH0 DUP2 SWAP1 POP SWAP2 SWAP1 POP JUMP JUMPDEST PUSH2 0x32F DUP2 PUSH2 0x31D JUMP JUMPDEST DUP2 EQ PUSH2 0x339 JUMPI PUSH0 DUP1 REVERT JUMPDEST POP JUMP JUMPDEST PUSH0 DUP2 CALLDATALOAD SWAP1 POP PUSH2 0x34A DUP2 PUSH2 0x326 JUMP JUMPDEST SWAP3 SWAP2 POP POP JUMP JUMPDEST PUSH0 PUSH1 0x20 DUP3 DUP5 SUB SLT ISZERO PUSH2 0x365 JUMPI PUSH2 0x364 PUSH2 0x293 JUMP JUMPDEST JUMPDEST PUSH0 PUSH2 0x372 DUP5 DUP3 DUP6 ADD PUSH2 0x33C JUMP JUMPDEST SWAP2 POP POP SWAP3 SWAP2 POP POP JUMP JUMPDEST PUSH0 DUP2 MLOAD SWAP1 POP SWAP2 SWAP1 POP JUMP JUMPDEST PUSH0 DUP3 DUP3 MSTORE PUSH1 0x20 DUP3 ADD SWAP1 POP SWAP3 SWAP2 POP POP JUMP JUMPDEST PUSH0 JUMPDEST DUP4 DUP2 LT ISZERO PUSH2 0x3B2 JUMPI DUP1 DUP3 ADD MLOAD DUP2 DUP5 ADD MSTORE PUSH1 0x20 DUP2 ADD SWAP1 POP PUSH2 0x397 JUMP JUMPDEST PUSH0 DUP5 DUP5 ADD MSTORE POP POP POP POP JUMP JUMPDEST PUSH0 PUSH1 0x1F NOT PUSH1 0x1F DUP4 ADD AND SWAP1 POP SWAP2 SWAP1 POP JUMP JUMPDEST PUSH0 PUSH2 0x3D7 DUP3 PUSH2 0x37B JUMP JUMPDEST PUSH2 0x3E1 DUP2 DUP6 PUSH2 0x385 JUMP JUMPDEST SWAP4 POP PUSH2 0x3F1 DUP2 DUP6 PUSH1 0x20 DUP7 ADD PUSH2 0x395 JUMP JUMPDEST PUSH2 0x3FA DUP2 PUSH2 0x3BD JUMP JUMPDEST DUP5 ADD SWAP2 POP POP SWAP3 SWAP2 POP POP JUMP JUMPDEST PUSH0 PUSH1 0x20 DUP3 ADD SWAP1 POP DUP2 DUP2 SUB PUSH0 DUP4 ADD MSTORE PUSH2 0x41D DUP2 DUP5 PUSH2 0x3CD JUMP JUMPDEST SWAP1 POP SWAP3 SWAP2 POP POP JUMP JUMPDEST PUSH0 PUSH1 0x3 SWAP1 POP SWAP2 SWAP1 POP JUMP JUMPDEST PUSH0 DUP2 SWAP1 POP SWAP3 SWAP2 POP POP JUMP JUMPDEST PUSH0 DUP2 SWAP1 POP SWAP2 SWAP1 POP JUMP JUMPDEST PUSH2 0x44B DUP2 PUSH2 0x297 JUMP JUMPDEST DUP3 MSTORE POP POP JUMP JUMPDEST PUSH0 PUSH2 0x45C DUP4 DUP4 PUSH2 0x442 JUMP JUMPDEST PUSH1 0x20 DUP4 ADD SWAP1 POP SWAP3 SWAP2 POP POP JUMP JUMPDEST PUSH0 PUSH1 0x20 DUP3 ADD SWAP1 POP SWAP2 SWAP1 POP JUMP JUMPDEST PUSH2 0x47D DUP2 PUSH2 0x425 JUMP JUMPDEST PUSH2 0x487 DUP2 DUP5 PUSH2 0x42F JUMP JUMPDEST SWAP3 POP PUSH2 0x492 DUP3 PUSH2 0x439 JUMP JUMPDEST DUP1 PUSH0 JUMPDEST DUP4 DUP2 LT ISZERO PUSH2 0x4C2 JUMPI DUP2 MLOAD PUSH2 0x4A9 DUP8 DUP3 PUSH2 0x451 JUMP JUMPDEST SWAP7 POP PUSH2 0x4B4 DUP4 PUSH2 0x468 JUMP JUMPDEST SWAP3 POP POP PUSH1 0x1 DUP2 ADD SWAP1 POP PUSH2 0x495 JUMP JUMPDEST POP POP POP POP POP POP JUMP JUMPDEST PUSH0 PUSH1 0x60 DUP3 ADD SWAP1 POP PUSH2 0x4DD PUSH0 DUP4 ADD DUP5 PUSH2 0x474 JUMP JUMPDEST SWAP3 SWAP2 POP POP JUMP JUMPDEST PUSH32 0x4E487B7100000000000000000000000000000000000000000000000000000000 PUSH0 MSTORE PUSH1 0x11 PUSH1 0x4 MSTORE PUSH1 0x24 PUSH0 REVERT JUMPDEST PUSH0 PUSH2 0x51A DUP3 PUSH2 0x297 JUMP JUMPDEST SWAP2 POP PUSH32 0xFFFFFFFFFFFFFFFFFFFFFFFFFFFFFFFFFFFFFFFFFFFFFFFFFFFFFFFFFFFFFFFF DUP3 SUB PUSH2 0x54C JUMPI PUSH2 0x54B PUSH2 0x4E3 JUMP JUMPDEST JUMPDEST PUSH1 0x1 DUP3 ADD SWAP1 POP SWAP2 SWAP1 POP JUMP INVALID LOG2 PUSH5 0x6970667358 0x22 SLT KECCAK256 0xE8 0xDC MLOAD CALLDATALOAD BASEFEE 0xE6 INVALID 0xD7 DUP5 0xDC 0x25 0xC9 SAR 0x23 0xD1 DUP10 0xCA GAS 0xD7 0xD9 GASLIMIT 0xCF PUSH6 0x7B6C863571E8 0x2C SWAP2 0xF6 PUSH5 0x736F6C6343 STOP ADDMOD XOR STOP CALLER "
				},
				"gasEstimates": {
					"creation": {
						"codeDepositCost": "284200",
						"executionCost": "infinite",
						"totalCost": "infinite"
					},
					"external": {
						"Arr1(uint256)": "infinite",
						"canVote(int256)": "infinite",
						"getArray()": "infinite",
						"loop1()": "infinite",
						"loop2()": "infinite"
					}
				},
				"methodIdentifiers": {
					"Arr1(uint256)": "7cb374c9",
					"canVote(int256)": "ac2a5ad8",
					"getArray()": "d504ea1d",
					"loop1()": "f5fb1bf8",
					"loop2()": "a89edd59"
				}
			},
			"storageLayout": {
				"storage": [
					{
						"astId": 88,
						"contract": "20thfeb.sol:day4",
						"label": "Arr1",
						"offset": 0,
						"slot": "0",
						"type": "t_array(t_uint256)3_storage"
					}
				],
				"types": {
					"t_array(t_uint256)3_storage": {
						"base": "t_uint256",
						"encoding": "inplace",
						"label": "uint256[3]",
						"numberOfBytes": "96"
					},
					"t_uint256": {
						"encoding": "inplace",
						"label": "uint256",
						"numberOfBytes": "32"
					}
				}
			},
			"userdoc": {
				"kind": "user",
				"methods": {},
				"version": 1
			}
		}
	}
}