{
	"Result.sol": {
		"Result": {
			"abi": [
				{
					"inputs": [],
					"name": "getSender",
					"outputs": [
						{
							"internalType": "uint256",
							"name": "rollNo",
							"type": "uint256"
						},
						{
							"internalType": "string",
							"name": "name",
							"type": "string"
						},
						{
							"internalType": "uint256",
							"name": "subject1",
							"type": "uint256"
						},
						{
							"internalType": "uint256",
							"name": "subject2",
							"type": "uint256"
						},
						{
							"internalType": "uint256",
							"name": "subject3",
							"type": "uint256"
						},
						{
							"internalType": "uint256",
							"name": "totalMark",
							"type": "uint256"
						}
					],
					"stateMutability": "view",
					"type": "function"
				},
				{
					"inputs": [
						{
							"internalType": "uint256",
							"name": "rollNo",
							"type": "uint256"
						},
						{
							"internalType": "string",
							"name": "name",
							"type": "string"
						},
						{
							"internalType": "uint256",
							"name": "subject1",
							"type": "uint256"
						},
						{
							"internalType": "uint256",
							"name": "subject2",
							"type": "uint256"
						},
						{
							"internalType": "uint256",
							"name": "subject3",
							"type": "uint256"
						}
					],
					"name": "setStudentDetail",
					"outputs": [],
					"stateMutability": "nonpayable",
					"type": "function"
				},
				{
					"inputs": [
						{
							"internalType": "address",
							"name": "",
							"type": "address"
						}
					],
					"name": "studentsDetailsWithWalletAddess",
					"outputs": [
						{
							"internalType": "uint256",
							"name": "RollNo",
							"type": "uint256"
						},
						{
							"internalType": "string",
							"name": "Name",
							"type": "string"
						},
						{
							"internalType": "uint256",
							"name": "Subject1",
							"type": "uint256"
						},
						{
							"internalType": "uint256",
							"name": "Subject2",
							"type": "uint256"
						},
						{
							"internalType": "uint256",
							"name": "Subject3",
							"type": "uint256"
						},
						{
							"internalType": "uint256",
							"name": "TotalMark",
							"type": "uint256"
						}
					],
					"stateMutability": "view",
					"type": "function"
				}
			],
			"devdoc": {
				"kind": "dev",
				"methods": {},
				"version": 1
			},
			"evm": {
				"assembly": "    /* \"Result.sol\":57:2880  contract Result {... */\n  mstore(0x40, 0x80)\n  callvalue\n  dup1\n  iszero\n  tag_1\n  jumpi\n  0x00\n  dup1\n  revert\ntag_1:\n  pop\n  dataSize(sub_0)\n  dup1\n  dataOffset(sub_0)\n  0x00\n  codecopy\n  0x00\n  return\nstop\n\nsub_0: assembly {\n        /* \"Result.sol\":57:2880  contract Result {... */\n      mstore(0x40, 0x80)\n      callvalue\n      dup1\n      iszero\n      tag_1\n      jumpi\n      0x00\n      dup1\n      revert\n    tag_1:\n      pop\n      jumpi(tag_2, lt(calldatasize, 0x04))\n      shr(0xe0, calldataload(0x00))\n      dup1\n      0x5e01eb5a\n      eq\n      tag_3\n      jumpi\n      dup1\n      0xb7d6095b\n      eq\n      tag_4\n      jumpi\n      dup1\n      0xe321f781\n      eq\n      tag_5\n      jumpi\n    tag_2:\n      0x00\n      dup1\n      revert\n        /* \"Result.sol\":873:1424  function getSender()... */\n    tag_3:\n      tag_6\n      tag_7\n      jump\t// in\n    tag_6:\n      mload(0x40)\n      tag_8\n      swap7\n      swap6\n      swap5\n      swap4\n      swap3\n      swap2\n      swap1\n      tag_9\n      jump\t// in\n    tag_8:\n      mload(0x40)\n      dup1\n      swap2\n      sub\n      swap1\n      return\n        /* \"Result.sol\":257:323  mapping(address => student) public studentsDetailsWithWalletAddess */\n    tag_4:\n      tag_10\n      0x04\n      dup1\n      calldatasize\n      sub\n      dup2\n      add\n      swap1\n      tag_11\n      swap2\n      swap1\n      tag_12\n      jump\t// in\n    tag_11:\n      tag_13\n      jump\t// in\n    tag_10:\n      mload(0x40)\n      tag_14\n      swap7\n      swap6\n      swap5\n      swap4\n      swap3\n      swap2\n      swap1\n      tag_9\n      jump\t// in\n    tag_14:\n      mload(0x40)\n      dup1\n      swap2\n      sub\n      swap1\n      return\n        /* \"Result.sol\":330:727  function setStudentDetail(... */\n    tag_5:\n      tag_15\n      0x04\n      dup1\n      calldatasize\n      sub\n      dup2\n      add\n      swap1\n      tag_16\n      swap2\n      swap1\n      tag_17\n      jump\t// in\n    tag_16:\n      tag_18\n      jump\t// in\n    tag_15:\n      stop\n        /* \"Result.sol\":873:1424  function getSender()... */\n    tag_7:\n        /* \"Result.sol\":952:966  uint256 rollNo */\n      0x00\n        /* \"Result.sol\":980:998  string memory name */\n      0x60\n        /* \"Result.sol\":1012:1028  uint256 subject1 */\n      0x00\n        /* \"Result.sol\":1042:1058  uint256 subject2 */\n      dup1\n        /* \"Result.sol\":1072:1088  uint256 subject3 */\n      0x00\n        /* \"Result.sol\":1102:1119  uint256 totalMark */\n      dup1\n        /* \"Result.sol\":1144:1165  student memory sender */\n      0x00\n        /* \"Result.sol\":1168:1199  studentsDetailsWithWalletAddess */\n      dup1\n        /* \"Result.sol\":1168:1211  studentsDetailsWithWalletAddess[msg.sender] */\n      0x00\n        /* \"Result.sol\":1200:1210  msg.sender */\n      caller\n        /* \"Result.sol\":1168:1211  studentsDetailsWithWalletAddess[msg.sender] */\n      0xffffffffffffffffffffffffffffffffffffffff\n      and\n      0xffffffffffffffffffffffffffffffffffffffff\n      and\n      dup2\n      mstore\n      0x20\n      add\n      swap1\n      dup2\n      mstore\n      0x20\n      add\n      0x00\n      keccak256\n        /* \"Result.sol\":1144:1211  student memory sender = studentsDetailsWithWalletAddess[msg.sender] */\n      mload(0x40)\n      dup1\n      0xc0\n      add\n      0x40\n      mstore\n      swap1\n      dup2\n      0x00\n      dup3\n      add\n      sload\n      dup2\n      mstore\n      0x20\n      add\n      0x01\n      dup3\n      add\n      dup1\n      sload\n      tag_20\n      swap1\n      tag_21\n      jump\t// in\n    tag_20:\n      dup1\n      0x1f\n      add\n      0x20\n      dup1\n      swap2\n      div\n      mul\n      0x20\n      add\n      mload(0x40)\n      swap1\n      dup2\n      add\n      0x40\n      mstore\n      dup1\n      swap3\n      swap2\n      swap1\n      dup2\n      dup2\n      mstore\n      0x20\n      add\n      dup3\n      dup1\n      sload\n      tag_22\n      swap1\n      tag_21\n      jump\t// in\n    tag_22:\n      dup1\n      iszero\n      tag_23\n      jumpi\n      dup1\n      0x1f\n      lt\n      tag_24\n      jumpi\n      0x0100\n      dup1\n      dup4\n      sload\n      div\n      mul\n      dup4\n      mstore\n      swap2\n      0x20\n      add\n      swap2\n      jump(tag_23)\n    tag_24:\n      dup3\n      add\n      swap2\n      swap1\n      0x00\n      mstore\n      keccak256(0x00, 0x20)\n      swap1\n    tag_25:\n      dup2\n      sload\n      dup2\n      mstore\n      swap1\n      0x01\n      add\n      swap1\n      0x20\n      add\n      dup1\n      dup4\n      gt\n      tag_25\n      jumpi\n      dup3\n      swap1\n      sub\n      0x1f\n      and\n      dup3\n      add\n      swap2\n    tag_23:\n      pop\n      pop\n      pop\n      pop\n      pop\n      dup2\n      mstore\n      0x20\n      add\n      0x02\n      dup3\n      add\n      sload\n      dup2\n      mstore\n      0x20\n      add\n      0x03\n      dup3\n      add\n      sload\n      dup2\n      mstore\n      0x20\n      add\n      0x04\n      dup3\n      add\n      sload\n      dup2\n      mstore\n      0x20\n      add\n      0x05\n      dup3\n      add\n      sload\n      dup2\n      mstore\n      pop\n      pop\n      swap1\n      pop\n        /* \"Result.sol\":1230:1236  sender */\n      dup1\n        /* \"Result.sol\":1230:1243  sender.RollNo */\n      0x00\n      add\n      mload\n        /* \"Result.sol\":1221:1243  rollNo = sender.RollNo */\n      swap7\n      pop\n        /* \"Result.sol\":1260:1266  sender */\n      dup1\n        /* \"Result.sol\":1260:1271  sender.Name */\n      0x20\n      add\n      mload\n        /* \"Result.sol\":1253:1271  name = sender.Name */\n      swap6\n      pop\n        /* \"Result.sol\":1292:1298  sender */\n      dup1\n        /* \"Result.sol\":1292:1307  sender.Subject1 */\n      0x40\n      add\n      mload\n        /* \"Result.sol\":1281:1307  subject1 = sender.Subject1 */\n      swap5\n      pop\n        /* \"Result.sol\":1328:1334  sender */\n      dup1\n        /* \"Result.sol\":1328:1343  sender.Subject2 */\n      0x60\n      add\n      mload\n        /* \"Result.sol\":1317:1343  subject2 = sender.Subject2 */\n      swap4\n      pop\n        /* \"Result.sol\":1364:1370  sender */\n      dup1\n        /* \"Result.sol\":1364:1379  sender.Subject3 */\n      0x80\n      add\n      mload\n        /* \"Result.sol\":1353:1379  subject3 = sender.Subject3 */\n      swap3\n      pop\n        /* \"Result.sol\":1401:1407  sender */\n      dup1\n        /* \"Result.sol\":1401:1417  sender.TotalMark */\n      0xa0\n      add\n      mload\n        /* \"Result.sol\":1389:1417  totalMark = sender.TotalMark */\n      swap2\n      pop\n        /* \"Result.sol\":1134:1424  {... */\n      pop\n        /* \"Result.sol\":873:1424  function getSender()... */\n      swap1\n      swap2\n      swap3\n      swap4\n      swap5\n      swap6\n      jump\t// out\n        /* \"Result.sol\":257:323  mapping(address => student) public studentsDetailsWithWalletAddess */\n    tag_13:\n      mstore(0x20, 0x00)\n      dup1\n      0x00\n      mstore\n      keccak256(0x00, 0x40)\n      0x00\n      swap2\n      pop\n      swap1\n      pop\n      dup1\n      0x00\n      add\n      sload\n      swap1\n      dup1\n      0x01\n      add\n      dup1\n      sload\n      tag_26\n      swap1\n      tag_21\n      jump\t// in\n    tag_26:\n      dup1\n      0x1f\n      add\n      0x20\n      dup1\n      swap2\n      div\n      mul\n      0x20\n      add\n      mload(0x40)\n      swap1\n      dup2\n      add\n      0x40\n      mstore\n      dup1\n      swap3\n      swap2\n      swap1\n      dup2\n      dup2\n      mstore\n      0x20\n      add\n      dup3\n      dup1\n      sload\n      tag_27\n      swap1\n      tag_21\n      jump\t// in\n    tag_27:\n      dup1\n      iszero\n      tag_28\n      jumpi\n      dup1\n      0x1f\n      lt\n      tag_29\n      jumpi\n      0x0100\n      dup1\n      dup4\n      sload\n      div\n      mul\n      dup4\n      mstore\n      swap2\n      0x20\n      add\n      swap2\n      jump(tag_28)\n    tag_29:\n      dup3\n      add\n      swap2\n      swap1\n      0x00\n      mstore\n      keccak256(0x00, 0x20)\n      swap1\n    tag_30:\n      dup2\n      sload\n      dup2\n      mstore\n      swap1\n      0x01\n      add\n      swap1\n      0x20\n      add\n      dup1\n      dup4\n      gt\n      tag_30\n      jumpi\n      dup3\n      swap1\n      sub\n      0x1f\n      and\n      dup3\n      add\n      swap2\n    tag_28:\n      pop\n      pop\n      pop\n      pop\n      pop\n      swap1\n      dup1\n      0x02\n      add\n      sload\n      swap1\n      dup1\n      0x03\n      add\n      sload\n      swap1\n      dup1\n      0x04\n      add\n      sload\n      swap1\n      dup1\n      0x05\n      add\n      sload\n      swap1\n      pop\n      dup7\n      jump\t// out\n        /* \"Result.sol\":330:727  function setStudentDetail(... */\n    tag_18:\n        /* \"Result.sol\":555:720  student(... */\n      mload(0x40)\n      dup1\n      0xc0\n      add\n      0x40\n      mstore\n      dup1\n        /* \"Result.sol\":576:582  rollNo */\n      dup7\n        /* \"Result.sol\":555:720  student(... */\n      dup2\n      mstore\n      0x20\n      add\n        /* \"Result.sol\":596:600  name */\n      dup6\n        /* \"Result.sol\":555:720  student(... */\n      dup2\n      mstore\n      0x20\n      add\n        /* \"Result.sol\":614:622  subject1 */\n      dup5\n        /* \"Result.sol\":555:720  student(... */\n      dup2\n      mstore\n      0x20\n      add\n        /* \"Result.sol\":636:644  subject2 */\n      dup4\n        /* \"Result.sol\":555:720  student(... */\n      dup2\n      mstore\n      0x20\n      add\n        /* \"Result.sol\":658:666  subject3 */\n      dup3\n        /* \"Result.sol\":555:720  student(... */\n      dup2\n      mstore\n      0x20\n      add\n        /* \"Result.sol\":702:710  subject3 */\n      dup3\n        /* \"Result.sol\":691:699  subject2 */\n      dup5\n        /* \"Result.sol\":680:688  subject1 */\n      dup7\n        /* \"Result.sol\":680:699  subject1 + subject2 */\n      tag_32\n      swap2\n      swap1\n      tag_33\n      jump\t// in\n    tag_32:\n        /* \"Result.sol\":680:710  subject1 + subject2 + subject3 */\n      tag_34\n      swap2\n      swap1\n      tag_33\n      jump\t// in\n    tag_34:\n        /* \"Result.sol\":555:720  student(... */\n      dup2\n      mstore\n      pop\n        /* \"Result.sol\":509:540  studentsDetailsWithWalletAddess */\n      0x00\n        /* \"Result.sol\":509:552  studentsDetailsWithWalletAddess[msg.sender] */\n      dup1\n        /* \"Result.sol\":541:551  msg.sender */\n      caller\n        /* \"Result.sol\":509:552  studentsDetailsWithWalletAddess[msg.sender] */\n      0xffffffffffffffffffffffffffffffffffffffff\n      and\n      0xffffffffffffffffffffffffffffffffffffffff\n      and\n      dup2\n      mstore\n      0x20\n      add\n      swap1\n      dup2\n      mstore\n      0x20\n      add\n      0x00\n      keccak256\n        /* \"Result.sol\":509:720  studentsDetailsWithWalletAddess[msg.sender] = student(... */\n      0x00\n      dup3\n      add\n      mload\n      dup2\n      0x00\n      add\n      sstore\n      0x20\n      dup3\n      add\n      mload\n      dup2\n      0x01\n      add\n      swap1\n      dup2\n      tag_35\n      swap2\n      swap1\n      tag_36\n      jump\t// in\n    tag_35:\n      pop\n      0x40\n      dup3\n      add\n      mload\n      dup2\n      0x02\n      add\n      sstore\n      0x60\n      dup3\n      add\n      mload\n      dup2\n      0x03\n      add\n      sstore\n      0x80\n      dup3\n      add\n      mload\n      dup2\n      0x04\n      add\n      sstore\n      0xa0\n      dup3\n      add\n      mload\n      dup2\n      0x05\n      add\n      sstore\n      swap1\n      pop\n      pop\n        /* \"Result.sol\":330:727  function setStudentDetail(... */\n      pop\n      pop\n      pop\n      pop\n      pop\n      jump\t// out\n        /* \"#utility.yul\":7:84   */\n    tag_37:\n        /* \"#utility.yul\":44:51   */\n      0x00\n        /* \"#utility.yul\":73:78   */\n      dup2\n        /* \"#utility.yul\":62:78   */\n      swap1\n      pop\n        /* \"#utility.yul\":7:84   */\n      swap2\n      swap1\n      pop\n      jump\t// out\n        /* \"#utility.yul\":90:208   */\n    tag_38:\n        /* \"#utility.yul\":177:201   */\n      tag_82\n        /* \"#utility.yul\":195:200   */\n      dup2\n        /* \"#utility.yul\":177:201   */\n      tag_37\n      jump\t// in\n    tag_82:\n        /* \"#utility.yul\":172:175   */\n      dup3\n        /* \"#utility.yul\":165:202   */\n      mstore\n        /* \"#utility.yul\":90:208   */\n      pop\n      pop\n      jump\t// out\n        /* \"#utility.yul\":214:313   */\n    tag_39:\n        /* \"#utility.yul\":266:272   */\n      0x00\n        /* \"#utility.yul\":300:305   */\n      dup2\n        /* \"#utility.yul\":294:306   */\n      mload\n        /* \"#utility.yul\":284:306   */\n      swap1\n      pop\n        /* \"#utility.yul\":214:313   */\n      swap2\n      swap1\n      pop\n      jump\t// out\n        /* \"#utility.yul\":319:488   */\n    tag_40:\n        /* \"#utility.yul\":403:414   */\n      0x00\n        /* \"#utility.yul\":437:443   */\n      dup3\n        /* \"#utility.yul\":432:435   */\n      dup3\n        /* \"#utility.yul\":425:444   */\n      mstore\n        /* \"#utility.yul\":477:481   */\n      0x20\n        /* \"#utility.yul\":472:475   */\n      dup3\n        /* \"#utility.yul\":468:482   */\n      add\n        /* \"#utility.yul\":453:482   */\n      swap1\n      pop\n        /* \"#utility.yul\":319:488   */\n      swap3\n      swap2\n      pop\n      pop\n      jump\t// out\n        /* \"#utility.yul\":494:740   */\n    tag_41:\n        /* \"#utility.yul\":575:576   */\n      0x00\n        /* \"#utility.yul\":585:698   */\n    tag_86:\n        /* \"#utility.yul\":599:605   */\n      dup4\n        /* \"#utility.yul\":596:597   */\n      dup2\n        /* \"#utility.yul\":593:606   */\n      lt\n        /* \"#utility.yul\":585:698   */\n      iszero\n      tag_88\n      jumpi\n        /* \"#utility.yul\":684:685   */\n      dup1\n        /* \"#utility.yul\":679:682   */\n      dup3\n        /* \"#utility.yul\":675:686   */\n      add\n        /* \"#utility.yul\":669:687   */\n      mload\n        /* \"#utility.yul\":665:666   */\n      dup2\n        /* \"#utility.yul\":660:663   */\n      dup5\n        /* \"#utility.yul\":656:667   */\n      add\n        /* \"#utility.yul\":649:688   */\n      mstore\n        /* \"#utility.yul\":621:623   */\n      0x20\n        /* \"#utility.yul\":618:619   */\n      dup2\n        /* \"#utility.yul\":614:624   */\n      add\n        /* \"#utility.yul\":609:624   */\n      swap1\n      pop\n        /* \"#utility.yul\":585:698   */\n      jump(tag_86)\n    tag_88:\n        /* \"#utility.yul\":732:733   */\n      0x00\n        /* \"#utility.yul\":723:729   */\n      dup5\n        /* \"#utility.yul\":718:721   */\n      dup5\n        /* \"#utility.yul\":714:730   */\n      add\n        /* \"#utility.yul\":707:734   */\n      mstore\n        /* \"#utility.yul\":556:740   */\n      pop\n        /* \"#utility.yul\":494:740   */\n      pop\n      pop\n      pop\n      jump\t// out\n        /* \"#utility.yul\":746:848   */\n    tag_42:\n        /* \"#utility.yul\":787:793   */\n      0x00\n        /* \"#utility.yul\":838:840   */\n      0x1f\n        /* \"#utility.yul\":834:841   */\n      not\n        /* \"#utility.yul\":829:831   */\n      0x1f\n        /* \"#utility.yul\":822:827   */\n      dup4\n        /* \"#utility.yul\":818:832   */\n      add\n        /* \"#utility.yul\":814:842   */\n      and\n        /* \"#utility.yul\":804:842   */\n      swap1\n      pop\n        /* \"#utility.yul\":746:848   */\n      swap2\n      swap1\n      pop\n      jump\t// out\n        /* \"#utility.yul\":854:1231   */\n    tag_43:\n        /* \"#utility.yul\":942:945   */\n      0x00\n        /* \"#utility.yul\":970:1009   */\n      tag_91\n        /* \"#utility.yul\":1003:1008   */\n      dup3\n        /* \"#utility.yul\":970:1009   */\n      tag_39\n      jump\t// in\n    tag_91:\n        /* \"#utility.yul\":1025:1096   */\n      tag_92\n        /* \"#utility.yul\":1089:1095   */\n      dup2\n        /* \"#utility.yul\":1084:1087   */\n      dup6\n        /* \"#utility.yul\":1025:1096   */\n      tag_40\n      jump\t// in\n    tag_92:\n        /* \"#utility.yul\":1018:1096   */\n      swap4\n      pop\n        /* \"#utility.yul\":1105:1170   */\n      tag_93\n        /* \"#utility.yul\":1163:1169   */\n      dup2\n        /* \"#utility.yul\":1158:1161   */\n      dup6\n        /* \"#utility.yul\":1151:1155   */\n      0x20\n        /* \"#utility.yul\":1144:1149   */\n      dup7\n        /* \"#utility.yul\":1140:1156   */\n      add\n        /* \"#utility.yul\":1105:1170   */\n      tag_41\n      jump\t// in\n    tag_93:\n        /* \"#utility.yul\":1195:1224   */\n      tag_94\n        /* \"#utility.yul\":1217:1223   */\n      dup2\n        /* \"#utility.yul\":1195:1224   */\n      tag_42\n      jump\t// in\n    tag_94:\n        /* \"#utility.yul\":1190:1193   */\n      dup5\n        /* \"#utility.yul\":1186:1225   */\n      add\n        /* \"#utility.yul\":1179:1225   */\n      swap2\n      pop\n        /* \"#utility.yul\":946:1231   */\n      pop\n        /* \"#utility.yul\":854:1231   */\n      swap3\n      swap2\n      pop\n      pop\n      jump\t// out\n        /* \"#utility.yul\":1237:2103   */\n    tag_9:\n        /* \"#utility.yul\":1490:1494   */\n      0x00\n        /* \"#utility.yul\":1528:1531   */\n      0xc0\n        /* \"#utility.yul\":1517:1526   */\n      dup3\n        /* \"#utility.yul\":1513:1532   */\n      add\n        /* \"#utility.yul\":1505:1532   */\n      swap1\n      pop\n        /* \"#utility.yul\":1542:1613   */\n      tag_96\n        /* \"#utility.yul\":1610:1611   */\n      0x00\n        /* \"#utility.yul\":1599:1608   */\n      dup4\n        /* \"#utility.yul\":1595:1612   */\n      add\n        /* \"#utility.yul\":1586:1592   */\n      dup10\n        /* \"#utility.yul\":1542:1613   */\n      tag_38\n      jump\t// in\n    tag_96:\n        /* \"#utility.yul\":1660:1669   */\n      dup2\n        /* \"#utility.yul\":1654:1658   */\n      dup2\n        /* \"#utility.yul\":1650:1670   */\n      sub\n        /* \"#utility.yul\":1645:1647   */\n      0x20\n        /* \"#utility.yul\":1634:1643   */\n      dup4\n        /* \"#utility.yul\":1630:1648   */\n      add\n        /* \"#utility.yul\":1623:1671   */\n      mstore\n        /* \"#utility.yul\":1688:1766   */\n      tag_97\n        /* \"#utility.yul\":1761:1765   */\n      dup2\n        /* \"#utility.yul\":1752:1758   */\n      dup9\n        /* \"#utility.yul\":1688:1766   */\n      tag_43\n      jump\t// in\n    tag_97:\n        /* \"#utility.yul\":1680:1766   */\n      swap1\n      pop\n        /* \"#utility.yul\":1776:1848   */\n      tag_98\n        /* \"#utility.yul\":1844:1846   */\n      0x40\n        /* \"#utility.yul\":1833:1842   */\n      dup4\n        /* \"#utility.yul\":1829:1847   */\n      add\n        /* \"#utility.yul\":1820:1826   */\n      dup8\n        /* \"#utility.yul\":1776:1848   */\n      tag_38\n      jump\t// in\n    tag_98:\n        /* \"#utility.yul\":1858:1930   */\n      tag_99\n        /* \"#utility.yul\":1926:1928   */\n      0x60\n        /* \"#utility.yul\":1915:1924   */\n      dup4\n        /* \"#utility.yul\":1911:1929   */\n      add\n        /* \"#utility.yul\":1902:1908   */\n      dup7\n        /* \"#utility.yul\":1858:1930   */\n      tag_38\n      jump\t// in\n    tag_99:\n        /* \"#utility.yul\":1940:2013   */\n      tag_100\n        /* \"#utility.yul\":2008:2011   */\n      0x80\n        /* \"#utility.yul\":1997:2006   */\n      dup4\n        /* \"#utility.yul\":1993:2012   */\n      add\n        /* \"#utility.yul\":1984:1990   */\n      dup6\n        /* \"#utility.yul\":1940:2013   */\n      tag_38\n      jump\t// in\n    tag_100:\n        /* \"#utility.yul\":2023:2096   */\n      tag_101\n        /* \"#utility.yul\":2091:2094   */\n      0xa0\n        /* \"#utility.yul\":2080:2089   */\n      dup4\n        /* \"#utility.yul\":2076:2095   */\n      add\n        /* \"#utility.yul\":2067:2073   */\n      dup5\n        /* \"#utility.yul\":2023:2096   */\n      tag_38\n      jump\t// in\n    tag_101:\n        /* \"#utility.yul\":1237:2103   */\n      swap8\n      swap7\n      pop\n      pop\n      pop\n      pop\n      pop\n      pop\n      pop\n      jump\t// out\n        /* \"#utility.yul\":2109:2184   */\n    tag_44:\n        /* \"#utility.yul\":2142:2148   */\n      0x00\n        /* \"#utility.yul\":2175:2177   */\n      0x40\n        /* \"#utility.yul\":2169:2178   */\n      mload\n        /* \"#utility.yul\":2159:2178   */\n      swap1\n      pop\n        /* \"#utility.yul\":2109:2184   */\n      swap1\n      jump\t// out\n        /* \"#utility.yul\":2190:2307   */\n    tag_45:\n        /* \"#utility.yul\":2299:2300   */\n      0x00\n        /* \"#utility.yul\":2296:2297   */\n      dup1\n        /* \"#utility.yul\":2289:2301   */\n      revert\n        /* \"#utility.yul\":2313:2430   */\n    tag_46:\n        /* \"#utility.yul\":2422:2423   */\n      0x00\n        /* \"#utility.yul\":2419:2420   */\n      dup1\n        /* \"#utility.yul\":2412:2424   */\n      revert\n        /* \"#utility.yul\":2436:2562   */\n    tag_47:\n        /* \"#utility.yul\":2473:2480   */\n      0x00\n        /* \"#utility.yul\":2513:2555   */\n      0xffffffffffffffffffffffffffffffffffffffff\n        /* \"#utility.yul\":2506:2511   */\n      dup3\n        /* \"#utility.yul\":2502:2556   */\n      and\n        /* \"#utility.yul\":2491:2556   */\n      swap1\n      pop\n        /* \"#utility.yul\":2436:2562   */\n      swap2\n      swap1\n      pop\n      jump\t// out\n        /* \"#utility.yul\":2568:2664   */\n    tag_48:\n        /* \"#utility.yul\":2605:2612   */\n      0x00\n        /* \"#utility.yul\":2634:2658   */\n      tag_107\n        /* \"#utility.yul\":2652:2657   */\n      dup3\n        /* \"#utility.yul\":2634:2658   */\n      tag_47\n      jump\t// in\n    tag_107:\n        /* \"#utility.yul\":2623:2658   */\n      swap1\n      pop\n        /* \"#utility.yul\":2568:2664   */\n      swap2\n      swap1\n      pop\n      jump\t// out\n        /* \"#utility.yul\":2670:2792   */\n    tag_49:\n        /* \"#utility.yul\":2743:2767   */\n      tag_109\n        /* \"#utility.yul\":2761:2766   */\n      dup2\n        /* \"#utility.yul\":2743:2767   */\n      tag_48\n      jump\t// in\n    tag_109:\n        /* \"#utility.yul\":2736:2741   */\n      dup2\n        /* \"#utility.yul\":2733:2768   */\n      eq\n        /* \"#utility.yul\":2723:2786   */\n      tag_110\n      jumpi\n        /* \"#utility.yul\":2782:2783   */\n      0x00\n        /* \"#utility.yul\":2779:2780   */\n      dup1\n        /* \"#utility.yul\":2772:2784   */\n      revert\n        /* \"#utility.yul\":2723:2786   */\n    tag_110:\n        /* \"#utility.yul\":2670:2792   */\n      pop\n      jump\t// out\n        /* \"#utility.yul\":2798:2937   */\n    tag_50:\n        /* \"#utility.yul\":2844:2849   */\n      0x00\n        /* \"#utility.yul\":2882:2888   */\n      dup2\n        /* \"#utility.yul\":2869:2889   */\n      calldataload\n        /* \"#utility.yul\":2860:2889   */\n      swap1\n      pop\n        /* \"#utility.yul\":2898:2931   */\n      tag_112\n        /* \"#utility.yul\":2925:2930   */\n      dup2\n        /* \"#utility.yul\":2898:2931   */\n      tag_49\n      jump\t// in\n    tag_112:\n        /* \"#utility.yul\":2798:2937   */\n      swap3\n      swap2\n      pop\n      pop\n      jump\t// out\n        /* \"#utility.yul\":2943:3272   */\n    tag_12:\n        /* \"#utility.yul\":3002:3008   */\n      0x00\n        /* \"#utility.yul\":3051:3053   */\n      0x20\n        /* \"#utility.yul\":3039:3048   */\n      dup3\n        /* \"#utility.yul\":3030:3037   */\n      dup5\n        /* \"#utility.yul\":3026:3049   */\n      sub\n        /* \"#utility.yul\":3022:3054   */\n      slt\n        /* \"#utility.yul\":3019:3138   */\n      iszero\n      tag_114\n      jumpi\n        /* \"#utility.yul\":3057:3136   */\n      tag_115\n      tag_45\n      jump\t// in\n    tag_115:\n        /* \"#utility.yul\":3019:3138   */\n    tag_114:\n        /* \"#utility.yul\":3177:3178   */\n      0x00\n        /* \"#utility.yul\":3202:3255   */\n      tag_116\n        /* \"#utility.yul\":3247:3254   */\n      dup5\n        /* \"#utility.yul\":3238:3244   */\n      dup3\n        /* \"#utility.yul\":3227:3236   */\n      dup6\n        /* \"#utility.yul\":3223:3245   */\n      add\n        /* \"#utility.yul\":3202:3255   */\n      tag_50\n      jump\t// in\n    tag_116:\n        /* \"#utility.yul\":3192:3255   */\n      swap2\n      pop\n        /* \"#utility.yul\":3148:3265   */\n      pop\n        /* \"#utility.yul\":2943:3272   */\n      swap3\n      swap2\n      pop\n      pop\n      jump\t// out\n        /* \"#utility.yul\":3278:3400   */\n    tag_51:\n        /* \"#utility.yul\":3351:3375   */\n      tag_118\n        /* \"#utility.yul\":3369:3374   */\n      dup2\n        /* \"#utility.yul\":3351:3375   */\n      tag_37\n      jump\t// in\n    tag_118:\n        /* \"#utility.yul\":3344:3349   */\n      dup2\n        /* \"#utility.yul\":3341:3376   */\n      eq\n        /* \"#utility.yul\":3331:3394   */\n      tag_119\n      jumpi\n        /* \"#utility.yul\":3390:3391   */\n      0x00\n        /* \"#utility.yul\":3387:3388   */\n      dup1\n        /* \"#utility.yul\":3380:3392   */\n      revert\n        /* \"#utility.yul\":3331:3394   */\n    tag_119:\n        /* \"#utility.yul\":3278:3400   */\n      pop\n      jump\t// out\n        /* \"#utility.yul\":3406:3545   */\n    tag_52:\n        /* \"#utility.yul\":3452:3457   */\n      0x00\n        /* \"#utility.yul\":3490:3496   */\n      dup2\n        /* \"#utility.yul\":3477:3497   */\n      calldataload\n        /* \"#utility.yul\":3468:3497   */\n      swap1\n      pop\n        /* \"#utility.yul\":3506:3539   */\n      tag_121\n        /* \"#utility.yul\":3533:3538   */\n      dup2\n        /* \"#utility.yul\":3506:3539   */\n      tag_51\n      jump\t// in\n    tag_121:\n        /* \"#utility.yul\":3406:3545   */\n      swap3\n      swap2\n      pop\n      pop\n      jump\t// out\n        /* \"#utility.yul\":3551:3668   */\n    tag_53:\n        /* \"#utility.yul\":3660:3661   */\n      0x00\n        /* \"#utility.yul\":3657:3658   */\n      dup1\n        /* \"#utility.yul\":3650:3662   */\n      revert\n        /* \"#utility.yul\":3674:3791   */\n    tag_54:\n        /* \"#utility.yul\":3783:3784   */\n      0x00\n        /* \"#utility.yul\":3780:3781   */\n      dup1\n        /* \"#utility.yul\":3773:3785   */\n      revert\n        /* \"#utility.yul\":3797:3977   */\n    tag_55:\n        /* \"#utility.yul\":3845:3922   */\n      0x4e487b7100000000000000000000000000000000000000000000000000000000\n        /* \"#utility.yul\":3842:3843   */\n      0x00\n        /* \"#utility.yul\":3835:3923   */\n      mstore\n        /* \"#utility.yul\":3942:3946   */\n      0x41\n        /* \"#utility.yul\":3939:3940   */\n      0x04\n        /* \"#utility.yul\":3932:3947   */\n      mstore\n        /* \"#utility.yul\":3966:3970   */\n      0x24\n        /* \"#utility.yul\":3963:3964   */\n      0x00\n        /* \"#utility.yul\":3956:3971   */\n      revert\n        /* \"#utility.yul\":3983:4264   */\n    tag_56:\n        /* \"#utility.yul\":4066:4093   */\n      tag_126\n        /* \"#utility.yul\":4088:4092   */\n      dup3\n        /* \"#utility.yul\":4066:4093   */\n      tag_42\n      jump\t// in\n    tag_126:\n        /* \"#utility.yul\":4058:4064   */\n      dup2\n        /* \"#utility.yul\":4054:4094   */\n      add\n        /* \"#utility.yul\":4196:4202   */\n      dup2\n        /* \"#utility.yul\":4184:4194   */\n      dup2\n        /* \"#utility.yul\":4181:4203   */\n      lt\n        /* \"#utility.yul\":4160:4178   */\n      0xffffffffffffffff\n        /* \"#utility.yul\":4148:4158   */\n      dup3\n        /* \"#utility.yul\":4145:4179   */\n      gt\n        /* \"#utility.yul\":4142:4204   */\n      or\n        /* \"#utility.yul\":4139:4227   */\n      iszero\n      tag_127\n      jumpi\n        /* \"#utility.yul\":4207:4225   */\n      tag_128\n      tag_55\n      jump\t// in\n    tag_128:\n        /* \"#utility.yul\":4139:4227   */\n    tag_127:\n        /* \"#utility.yul\":4247:4257   */\n      dup1\n        /* \"#utility.yul\":4243:4245   */\n      0x40\n        /* \"#utility.yul\":4236:4258   */\n      mstore\n        /* \"#utility.yul\":4026:4264   */\n      pop\n        /* \"#utility.yul\":3983:4264   */\n      pop\n      pop\n      jump\t// out\n        /* \"#utility.yul\":4270:4399   */\n    tag_57:\n        /* \"#utility.yul\":4304:4310   */\n      0x00\n        /* \"#utility.yul\":4331:4351   */\n      tag_130\n      tag_44\n      jump\t// in\n    tag_130:\n        /* \"#utility.yul\":4321:4351   */\n      swap1\n      pop\n        /* \"#utility.yul\":4360:4393   */\n      tag_131\n        /* \"#utility.yul\":4388:4392   */\n      dup3\n        /* \"#utility.yul\":4380:4386   */\n      dup3\n        /* \"#utility.yul\":4360:4393   */\n      tag_56\n      jump\t// in\n    tag_131:\n        /* \"#utility.yul\":4270:4399   */\n      swap2\n      swap1\n      pop\n      jump\t// out\n        /* \"#utility.yul\":4405:4713   */\n    tag_58:\n        /* \"#utility.yul\":4467:4471   */\n      0x00\n        /* \"#utility.yul\":4557:4575   */\n      0xffffffffffffffff\n        /* \"#utility.yul\":4549:4555   */\n      dup3\n        /* \"#utility.yul\":4546:4576   */\n      gt\n        /* \"#utility.yul\":4543:4599   */\n      iszero\n      tag_133\n      jumpi\n        /* \"#utility.yul\":4579:4597   */\n      tag_134\n      tag_55\n      jump\t// in\n    tag_134:\n        /* \"#utility.yul\":4543:4599   */\n    tag_133:\n        /* \"#utility.yul\":4617:4646   */\n      tag_135\n        /* \"#utility.yul\":4639:4645   */\n      dup3\n        /* \"#utility.yul\":4617:4646   */\n      tag_42\n      jump\t// in\n    tag_135:\n        /* \"#utility.yul\":4609:4646   */\n      swap1\n      pop\n        /* \"#utility.yul\":4701:4705   */\n      0x20\n        /* \"#utility.yul\":4695:4699   */\n      dup2\n        /* \"#utility.yul\":4691:4706   */\n      add\n        /* \"#utility.yul\":4683:4706   */\n      swap1\n      pop\n        /* \"#utility.yul\":4405:4713   */\n      swap2\n      swap1\n      pop\n      jump\t// out\n        /* \"#utility.yul\":4719:4865   */\n    tag_59:\n        /* \"#utility.yul\":4816:4822   */\n      dup3\n        /* \"#utility.yul\":4811:4814   */\n      dup2\n        /* \"#utility.yul\":4806:4809   */\n      dup4\n        /* \"#utility.yul\":4793:4823   */\n      calldatacopy\n        /* \"#utility.yul\":4857:4858   */\n      0x00\n        /* \"#utility.yul\":4848:4854   */\n      dup4\n        /* \"#utility.yul\":4843:4846   */\n      dup4\n        /* \"#utility.yul\":4839:4855   */\n      add\n        /* \"#utility.yul\":4832:4859   */\n      mstore\n        /* \"#utility.yul\":4719:4865   */\n      pop\n      pop\n      pop\n      jump\t// out\n        /* \"#utility.yul\":4871:5296   */\n    tag_60:\n        /* \"#utility.yul\":4949:4954   */\n      0x00\n        /* \"#utility.yul\":4974:5040   */\n      tag_138\n        /* \"#utility.yul\":4990:5039   */\n      tag_139\n        /* \"#utility.yul\":5032:5038   */\n      dup5\n        /* \"#utility.yul\":4990:5039   */\n      tag_58\n      jump\t// in\n    tag_139:\n        /* \"#utility.yul\":4974:5040   */\n      tag_57\n      jump\t// in\n    tag_138:\n        /* \"#utility.yul\":4965:5040   */\n      swap1\n      pop\n        /* \"#utility.yul\":5063:5069   */\n      dup3\n        /* \"#utility.yul\":5056:5061   */\n      dup2\n        /* \"#utility.yul\":5049:5070   */\n      mstore\n        /* \"#utility.yul\":5101:5105   */\n      0x20\n        /* \"#utility.yul\":5094:5099   */\n      dup2\n        /* \"#utility.yul\":5090:5106   */\n      add\n        /* \"#utility.yul\":5139:5142   */\n      dup5\n        /* \"#utility.yul\":5130:5136   */\n      dup5\n        /* \"#utility.yul\":5125:5128   */\n      dup5\n        /* \"#utility.yul\":5121:5137   */\n      add\n        /* \"#utility.yul\":5118:5143   */\n      gt\n        /* \"#utility.yul\":5115:5227   */\n      iszero\n      tag_140\n      jumpi\n        /* \"#utility.yul\":5146:5225   */\n      tag_141\n      tag_54\n      jump\t// in\n    tag_141:\n        /* \"#utility.yul\":5115:5227   */\n    tag_140:\n        /* \"#utility.yul\":5236:5290   */\n      tag_142\n        /* \"#utility.yul\":5283:5289   */\n      dup5\n        /* \"#utility.yul\":5278:5281   */\n      dup3\n        /* \"#utility.yul\":5273:5276   */\n      dup6\n        /* \"#utility.yul\":5236:5290   */\n      tag_59\n      jump\t// in\n    tag_142:\n        /* \"#utility.yul\":4955:5296   */\n      pop\n        /* \"#utility.yul\":4871:5296   */\n      swap4\n      swap3\n      pop\n      pop\n      pop\n      jump\t// out\n        /* \"#utility.yul\":5316:5656   */\n    tag_61:\n        /* \"#utility.yul\":5372:5377   */\n      0x00\n        /* \"#utility.yul\":5421:5424   */\n      dup3\n        /* \"#utility.yul\":5414:5418   */\n      0x1f\n        /* \"#utility.yul\":5406:5412   */\n      dup4\n        /* \"#utility.yul\":5402:5419   */\n      add\n        /* \"#utility.yul\":5398:5425   */\n      slt\n        /* \"#utility.yul\":5388:5510   */\n      tag_144\n      jumpi\n        /* \"#utility.yul\":5429:5508   */\n      tag_145\n      tag_53\n      jump\t// in\n    tag_145:\n        /* \"#utility.yul\":5388:5510   */\n    tag_144:\n        /* \"#utility.yul\":5546:5552   */\n      dup2\n        /* \"#utility.yul\":5533:5553   */\n      calldataload\n        /* \"#utility.yul\":5571:5650   */\n      tag_146\n        /* \"#utility.yul\":5646:5649   */\n      dup5\n        /* \"#utility.yul\":5638:5644   */\n      dup3\n        /* \"#utility.yul\":5631:5635   */\n      0x20\n        /* \"#utility.yul\":5623:5629   */\n      dup7\n        /* \"#utility.yul\":5619:5636   */\n      add\n        /* \"#utility.yul\":5571:5650   */\n      tag_60\n      jump\t// in\n    tag_146:\n        /* \"#utility.yul\":5562:5650   */\n      swap2\n      pop\n        /* \"#utility.yul\":5378:5656   */\n      pop\n        /* \"#utility.yul\":5316:5656   */\n      swap3\n      swap2\n      pop\n      pop\n      jump\t// out\n        /* \"#utility.yul\":5662:6753   */\n    tag_17:\n        /* \"#utility.yul\":5767:5773   */\n      0x00\n        /* \"#utility.yul\":5775:5781   */\n      dup1\n        /* \"#utility.yul\":5783:5789   */\n      0x00\n        /* \"#utility.yul\":5791:5797   */\n      dup1\n        /* \"#utility.yul\":5799:5805   */\n      0x00\n        /* \"#utility.yul\":5848:5851   */\n      0xa0\n        /* \"#utility.yul\":5836:5845   */\n      dup7\n        /* \"#utility.yul\":5827:5834   */\n      dup9\n        /* \"#utility.yul\":5823:5846   */\n      sub\n        /* \"#utility.yul\":5819:5852   */\n      slt\n        /* \"#utility.yul\":5816:5936   */\n      iszero\n      tag_148\n      jumpi\n        /* \"#utility.yul\":5855:5934   */\n      tag_149\n      tag_45\n      jump\t// in\n    tag_149:\n        /* \"#utility.yul\":5816:5936   */\n    tag_148:\n        /* \"#utility.yul\":5975:5976   */\n      0x00\n        /* \"#utility.yul\":6000:6053   */\n      tag_150\n        /* \"#utility.yul\":6045:6052   */\n      dup9\n        /* \"#utility.yul\":6036:6042   */\n      dup3\n        /* \"#utility.yul\":6025:6034   */\n      dup10\n        /* \"#utility.yul\":6021:6043   */\n      add\n        /* \"#utility.yul\":6000:6053   */\n      tag_52\n      jump\t// in\n    tag_150:\n        /* \"#utility.yul\":5990:6053   */\n      swap6\n      pop\n        /* \"#utility.yul\":5946:6063   */\n      pop\n        /* \"#utility.yul\":6130:6132   */\n      0x20\n        /* \"#utility.yul\":6119:6128   */\n      dup7\n        /* \"#utility.yul\":6115:6133   */\n      add\n        /* \"#utility.yul\":6102:6134   */\n      calldataload\n        /* \"#utility.yul\":6161:6179   */\n      0xffffffffffffffff\n        /* \"#utility.yul\":6153:6159   */\n      dup2\n        /* \"#utility.yul\":6150:6180   */\n      gt\n        /* \"#utility.yul\":6147:6264   */\n      iszero\n      tag_151\n      jumpi\n        /* \"#utility.yul\":6183:6262   */\n      tag_152\n      tag_46\n      jump\t// in\n    tag_152:\n        /* \"#utility.yul\":6147:6264   */\n    tag_151:\n        /* \"#utility.yul\":6288:6351   */\n      tag_153\n        /* \"#utility.yul\":6343:6350   */\n      dup9\n        /* \"#utility.yul\":6334:6340   */\n      dup3\n        /* \"#utility.yul\":6323:6332   */\n      dup10\n        /* \"#utility.yul\":6319:6341   */\n      add\n        /* \"#utility.yul\":6288:6351   */\n      tag_61\n      jump\t// in\n    tag_153:\n        /* \"#utility.yul\":6278:6351   */\n      swap5\n      pop\n        /* \"#utility.yul\":6073:6361   */\n      pop\n        /* \"#utility.yul\":6400:6402   */\n      0x40\n        /* \"#utility.yul\":6426:6479   */\n      tag_154\n        /* \"#utility.yul\":6471:6478   */\n      dup9\n        /* \"#utility.yul\":6462:6468   */\n      dup3\n        /* \"#utility.yul\":6451:6460   */\n      dup10\n        /* \"#utility.yul\":6447:6469   */\n      add\n        /* \"#utility.yul\":6426:6479   */\n      tag_52\n      jump\t// in\n    tag_154:\n        /* \"#utility.yul\":6416:6479   */\n      swap4\n      pop\n        /* \"#utility.yul\":6371:6489   */\n      pop\n        /* \"#utility.yul\":6528:6530   */\n      0x60\n        /* \"#utility.yul\":6554:6607   */\n      tag_155\n        /* \"#utility.yul\":6599:6606   */\n      dup9\n        /* \"#utility.yul\":6590:6596   */\n      dup3\n        /* \"#utility.yul\":6579:6588   */\n      dup10\n        /* \"#utility.yul\":6575:6597   */\n      add\n        /* \"#utility.yul\":6554:6607   */\n      tag_52\n      jump\t// in\n    tag_155:\n        /* \"#utility.yul\":6544:6607   */\n      swap3\n      pop\n        /* \"#utility.yul\":6499:6617   */\n      pop\n        /* \"#utility.yul\":6656:6659   */\n      0x80\n        /* \"#utility.yul\":6683:6736   */\n      tag_156\n        /* \"#utility.yul\":6728:6735   */\n      dup9\n        /* \"#utility.yul\":6719:6725   */\n      dup3\n        /* \"#utility.yul\":6708:6717   */\n      dup10\n        /* \"#utility.yul\":6704:6726   */\n      add\n        /* \"#utility.yul\":6683:6736   */\n      tag_52\n      jump\t// in\n    tag_156:\n        /* \"#utility.yul\":6673:6736   */\n      swap2\n      pop\n        /* \"#utility.yul\":6627:6746   */\n      pop\n        /* \"#utility.yul\":5662:6753   */\n      swap3\n      swap6\n      pop\n      swap3\n      swap6\n      swap1\n      swap4\n      pop\n      jump\t// out\n        /* \"#utility.yul\":6759:6939   */\n    tag_62:\n        /* \"#utility.yul\":6807:6884   */\n      0x4e487b7100000000000000000000000000000000000000000000000000000000\n        /* \"#utility.yul\":6804:6805   */\n      0x00\n        /* \"#utility.yul\":6797:6885   */\n      mstore\n        /* \"#utility.yul\":6904:6908   */\n      0x22\n        /* \"#utility.yul\":6901:6902   */\n      0x04\n        /* \"#utility.yul\":6894:6909   */\n      mstore\n        /* \"#utility.yul\":6928:6932   */\n      0x24\n        /* \"#utility.yul\":6925:6926   */\n      0x00\n        /* \"#utility.yul\":6918:6933   */\n      revert\n        /* \"#utility.yul\":6945:7265   */\n    tag_21:\n        /* \"#utility.yul\":6989:6995   */\n      0x00\n        /* \"#utility.yul\":7026:7027   */\n      0x02\n        /* \"#utility.yul\":7020:7024   */\n      dup3\n        /* \"#utility.yul\":7016:7028   */\n      div\n        /* \"#utility.yul\":7006:7028   */\n      swap1\n      pop\n        /* \"#utility.yul\":7073:7074   */\n      0x01\n        /* \"#utility.yul\":7067:7071   */\n      dup3\n        /* \"#utility.yul\":7063:7075   */\n      and\n        /* \"#utility.yul\":7094:7112   */\n      dup1\n        /* \"#utility.yul\":7084:7165   */\n      tag_159\n      jumpi\n        /* \"#utility.yul\":7150:7154   */\n      0x7f\n        /* \"#utility.yul\":7142:7148   */\n      dup3\n        /* \"#utility.yul\":7138:7155   */\n      and\n        /* \"#utility.yul\":7128:7155   */\n      swap2\n      pop\n        /* \"#utility.yul\":7084:7165   */\n    tag_159:\n        /* \"#utility.yul\":7212:7214   */\n      0x20\n        /* \"#utility.yul\":7204:7210   */\n      dup3\n        /* \"#utility.yul\":7201:7215   */\n      lt\n        /* \"#utility.yul\":7181:7199   */\n      dup2\n        /* \"#utility.yul\":7178:7216   */\n      sub\n        /* \"#utility.yul\":7175:7259   */\n      tag_160\n      jumpi\n        /* \"#utility.yul\":7231:7249   */\n      tag_161\n      tag_62\n      jump\t// in\n    tag_161:\n        /* \"#utility.yul\":7175:7259   */\n    tag_160:\n        /* \"#utility.yul\":6996:7265   */\n      pop\n        /* \"#utility.yul\":6945:7265   */\n      swap2\n      swap1\n      pop\n      jump\t// out\n        /* \"#utility.yul\":7271:7451   */\n    tag_63:\n        /* \"#utility.yul\":7319:7396   */\n      0x4e487b7100000000000000000000000000000000000000000000000000000000\n        /* \"#utility.yul\":7316:7317   */\n      0x00\n        /* \"#utility.yul\":7309:7397   */\n      mstore\n        /* \"#utility.yul\":7416:7420   */\n      0x11\n        /* \"#utility.yul\":7413:7414   */\n      0x04\n        /* \"#utility.yul\":7406:7421   */\n      mstore\n        /* \"#utility.yul\":7440:7444   */\n      0x24\n        /* \"#utility.yul\":7437:7438   */\n      0x00\n        /* \"#utility.yul\":7430:7445   */\n      revert\n        /* \"#utility.yul\":7457:7648   */\n    tag_33:\n        /* \"#utility.yul\":7497:7500   */\n      0x00\n        /* \"#utility.yul\":7516:7536   */\n      tag_164\n        /* \"#utility.yul\":7534:7535   */\n      dup3\n        /* \"#utility.yul\":7516:7536   */\n      tag_37\n      jump\t// in\n    tag_164:\n        /* \"#utility.yul\":7511:7536   */\n      swap2\n      pop\n        /* \"#utility.yul\":7550:7570   */\n      tag_165\n        /* \"#utility.yul\":7568:7569   */\n      dup4\n        /* \"#utility.yul\":7550:7570   */\n      tag_37\n      jump\t// in\n    tag_165:\n        /* \"#utility.yul\":7545:7570   */\n      swap3\n      pop\n        /* \"#utility.yul\":7593:7594   */\n      dup3\n        /* \"#utility.yul\":7590:7591   */\n      dup3\n        /* \"#utility.yul\":7586:7595   */\n      add\n        /* \"#utility.yul\":7579:7595   */\n      swap1\n      pop\n        /* \"#utility.yul\":7614:7617   */\n      dup1\n        /* \"#utility.yul\":7611:7612   */\n      dup3\n        /* \"#utility.yul\":7608:7618   */\n      gt\n        /* \"#utility.yul\":7605:7641   */\n      iszero\n      tag_166\n      jumpi\n        /* \"#utility.yul\":7621:7639   */\n      tag_167\n      tag_63\n      jump\t// in\n    tag_167:\n        /* \"#utility.yul\":7605:7641   */\n    tag_166:\n        /* \"#utility.yul\":7457:7648   */\n      swap3\n      swap2\n      pop\n      pop\n      jump\t// out\n        /* \"#utility.yul\":7654:7795   */\n    tag_64:\n        /* \"#utility.yul\":7703:7707   */\n      0x00\n        /* \"#utility.yul\":7726:7729   */\n      dup2\n        /* \"#utility.yul\":7718:7729   */\n      swap1\n      pop\n        /* \"#utility.yul\":7749:7752   */\n      dup2\n        /* \"#utility.yul\":7746:7747   */\n      0x00\n        /* \"#utility.yul\":7739:7753   */\n      mstore\n        /* \"#utility.yul\":7783:7787   */\n      0x20\n        /* \"#utility.yul\":7780:7781   */\n      0x00\n        /* \"#utility.yul\":7770:7788   */\n      keccak256\n        /* \"#utility.yul\":7762:7788   */\n      swap1\n      pop\n        /* \"#utility.yul\":7654:7795   */\n      swap2\n      swap1\n      pop\n      jump\t// out\n        /* \"#utility.yul\":7801:7894   */\n    tag_65:\n        /* \"#utility.yul\":7838:7844   */\n      0x00\n        /* \"#utility.yul\":7885:7887   */\n      0x20\n        /* \"#utility.yul\":7880:7882   */\n      0x1f\n        /* \"#utility.yul\":7873:7878   */\n      dup4\n        /* \"#utility.yul\":7869:7883   */\n      add\n        /* \"#utility.yul\":7865:7888   */\n      div\n        /* \"#utility.yul\":7855:7888   */\n      swap1\n      pop\n        /* \"#utility.yul\":7801:7894   */\n      swap2\n      swap1\n      pop\n      jump\t// out\n        /* \"#utility.yul\":7900:8007   */\n    tag_66:\n        /* \"#utility.yul\":7944:7952   */\n      0x00\n        /* \"#utility.yul\":7994:7999   */\n      dup3\n        /* \"#utility.yul\":7988:7992   */\n      dup3\n        /* \"#utility.yul\":7984:8000   */\n      shl\n        /* \"#utility.yul\":7963:8000   */\n      swap1\n      pop\n        /* \"#utility.yul\":7900:8007   */\n      swap3\n      swap2\n      pop\n      pop\n      jump\t// out\n        /* \"#utility.yul\":8013:8406   */\n    tag_67:\n        /* \"#utility.yul\":8082:8088   */\n      0x00\n        /* \"#utility.yul\":8132:8133   */\n      0x08\n        /* \"#utility.yul\":8120:8130   */\n      dup4\n        /* \"#utility.yul\":8116:8134   */\n      mul\n        /* \"#utility.yul\":8155:8252   */\n      tag_172\n        /* \"#utility.yul\":8185:8251   */\n      0xffffffffffffffffffffffffffffffffffffffffffffffffffffffffffffffff\n        /* \"#utility.yul\":8174:8183   */\n      dup3\n        /* \"#utility.yul\":8155:8252   */\n      tag_66\n      jump\t// in\n    tag_172:\n        /* \"#utility.yul\":8273:8312   */\n      tag_173\n        /* \"#utility.yul\":8303:8311   */\n      dup7\n        /* \"#utility.yul\":8292:8301   */\n      dup4\n        /* \"#utility.yul\":8273:8312   */\n      tag_66\n      jump\t// in\n    tag_173:\n        /* \"#utility.yul\":8261:8312   */\n      swap6\n      pop\n        /* \"#utility.yul\":8345:8349   */\n      dup1\n        /* \"#utility.yul\":8341:8350   */\n      not\n        /* \"#utility.yul\":8334:8339   */\n      dup5\n        /* \"#utility.yul\":8330:8351   */\n      and\n        /* \"#utility.yul\":8321:8351   */\n      swap4\n      pop\n        /* \"#utility.yul\":8394:8398   */\n      dup1\n        /* \"#utility.yul\":8384:8392   */\n      dup7\n        /* \"#utility.yul\":8380:8399   */\n      and\n        /* \"#utility.yul\":8373:8378   */\n      dup5\n        /* \"#utility.yul\":8370:8400   */\n      or\n        /* \"#utility.yul\":8360:8400   */\n      swap3\n      pop\n        /* \"#utility.yul\":8089:8406   */\n      pop\n      pop\n        /* \"#utility.yul\":8013:8406   */\n      swap4\n      swap3\n      pop\n      pop\n      pop\n      jump\t// out\n        /* \"#utility.yul\":8412:8472   */\n    tag_68:\n        /* \"#utility.yul\":8440:8443   */\n      0x00\n        /* \"#utility.yul\":8461:8466   */\n      dup2\n        /* \"#utility.yul\":8454:8466   */\n      swap1\n      pop\n        /* \"#utility.yul\":8412:8472   */\n      swap2\n      swap1\n      pop\n      jump\t// out\n        /* \"#utility.yul\":8478:8620   */\n    tag_69:\n        /* \"#utility.yul\":8528:8537   */\n      0x00\n        /* \"#utility.yul\":8561:8614   */\n      tag_176\n        /* \"#utility.yul\":8579:8613   */\n      tag_177\n        /* \"#utility.yul\":8588:8612   */\n      tag_178\n        /* \"#utility.yul\":8606:8611   */\n      dup5\n        /* \"#utility.yul\":8588:8612   */\n      tag_37\n      jump\t// in\n    tag_178:\n        /* \"#utility.yul\":8579:8613   */\n      tag_68\n      jump\t// in\n    tag_177:\n        /* \"#utility.yul\":8561:8614   */\n      tag_37\n      jump\t// in\n    tag_176:\n        /* \"#utility.yul\":8548:8614   */\n      swap1\n      pop\n        /* \"#utility.yul\":8478:8620   */\n      swap2\n      swap1\n      pop\n      jump\t// out\n        /* \"#utility.yul\":8626:8701   */\n    tag_70:\n        /* \"#utility.yul\":8669:8672   */\n      0x00\n        /* \"#utility.yul\":8690:8695   */\n      dup2\n        /* \"#utility.yul\":8683:8695   */\n      swap1\n      pop\n        /* \"#utility.yul\":8626:8701   */\n      swap2\n      swap1\n      pop\n      jump\t// out\n        /* \"#utility.yul\":8707:8976   */\n    tag_71:\n        /* \"#utility.yul\":8817:8856   */\n      tag_181\n        /* \"#utility.yul\":8848:8855   */\n      dup4\n        /* \"#utility.yul\":8817:8856   */\n      tag_69\n      jump\t// in\n    tag_181:\n        /* \"#utility.yul\":8878:8969   */\n      tag_182\n        /* \"#utility.yul\":8927:8968   */\n      tag_183\n        /* \"#utility.yul\":8951:8967   */\n      dup3\n        /* \"#utility.yul\":8927:8968   */\n      tag_70\n      jump\t// in\n    tag_183:\n        /* \"#utility.yul\":8919:8925   */\n      dup5\n        /* \"#utility.yul\":8912:8916   */\n      dup5\n        /* \"#utility.yul\":8906:8917   */\n      sload\n        /* \"#utility.yul\":8878:8969   */\n      tag_67\n      jump\t// in\n    tag_182:\n        /* \"#utility.yul\":8872:8876   */\n      dup3\n        /* \"#utility.yul\":8865:8970   */\n      sstore\n        /* \"#utility.yul\":8783:8976   */\n      pop\n        /* \"#utility.yul\":8707:8976   */\n      pop\n      pop\n      pop\n      jump\t// out\n        /* \"#utility.yul\":8982:9055   */\n    tag_72:\n        /* \"#utility.yul\":9027:9030   */\n      0x00\n        /* \"#utility.yul\":8982:9055   */\n      swap1\n      jump\t// out\n        /* \"#utility.yul\":9061:9250   */\n    tag_73:\n        /* \"#utility.yul\":9138:9170   */\n      tag_186\n      tag_72\n      jump\t// in\n    tag_186:\n        /* \"#utility.yul\":9179:9244   */\n      tag_187\n        /* \"#utility.yul\":9237:9243   */\n      dup2\n        /* \"#utility.yul\":9229:9235   */\n      dup5\n        /* \"#utility.yul\":9223:9227   */\n      dup5\n        /* \"#utility.yul\":9179:9244   */\n      tag_71\n      jump\t// in\n    tag_187:\n        /* \"#utility.yul\":9114:9250   */\n      pop\n        /* \"#utility.yul\":9061:9250   */\n      pop\n      pop\n      jump\t// out\n        /* \"#utility.yul\":9256:9442   */\n    tag_74:\n        /* \"#utility.yul\":9316:9436   */\n    tag_189:\n        /* \"#utility.yul\":9333:9336   */\n      dup2\n        /* \"#utility.yul\":9326:9331   */\n      dup2\n        /* \"#utility.yul\":9323:9337   */\n      lt\n        /* \"#utility.yul\":9316:9436   */\n      iszero\n      tag_191\n      jumpi\n        /* \"#utility.yul\":9387:9426   */\n      tag_192\n        /* \"#utility.yul\":9424:9425   */\n      0x00\n        /* \"#utility.yul\":9417:9422   */\n      dup3\n        /* \"#utility.yul\":9387:9426   */\n      tag_73\n      jump\t// in\n    tag_192:\n        /* \"#utility.yul\":9360:9361   */\n      0x01\n        /* \"#utility.yul\":9353:9358   */\n      dup2\n        /* \"#utility.yul\":9349:9362   */\n      add\n        /* \"#utility.yul\":9340:9362   */\n      swap1\n      pop\n        /* \"#utility.yul\":9316:9436   */\n      jump(tag_189)\n    tag_191:\n        /* \"#utility.yul\":9256:9442   */\n      pop\n      pop\n      jump\t// out\n        /* \"#utility.yul\":9448:9991   */\n    tag_75:\n        /* \"#utility.yul\":9549:9551   */\n      0x1f\n        /* \"#utility.yul\":9544:9547   */\n      dup3\n        /* \"#utility.yul\":9541:9552   */\n      gt\n        /* \"#utility.yul\":9538:9984   */\n      iszero\n      tag_194\n      jumpi\n        /* \"#utility.yul\":9583:9621   */\n      tag_195\n        /* \"#utility.yul\":9615:9620   */\n      dup2\n        /* \"#utility.yul\":9583:9621   */\n      tag_64\n      jump\t// in\n    tag_195:\n        /* \"#utility.yul\":9667:9696   */\n      tag_196\n        /* \"#utility.yul\":9685:9695   */\n      dup5\n        /* \"#utility.yul\":9667:9696   */\n      tag_65\n      jump\t// in\n    tag_196:\n        /* \"#utility.yul\":9657:9665   */\n      dup2\n        /* \"#utility.yul\":9653:9697   */\n      add\n        /* \"#utility.yul\":9850:9852   */\n      0x20\n        /* \"#utility.yul\":9838:9848   */\n      dup6\n        /* \"#utility.yul\":9835:9853   */\n      lt\n        /* \"#utility.yul\":9832:9881   */\n      iszero\n      tag_197\n      jumpi\n        /* \"#utility.yul\":9871:9879   */\n      dup2\n        /* \"#utility.yul\":9856:9879   */\n      swap1\n      pop\n        /* \"#utility.yul\":9832:9881   */\n    tag_197:\n        /* \"#utility.yul\":9894:9974   */\n      tag_198\n        /* \"#utility.yul\":9950:9972   */\n      tag_199\n        /* \"#utility.yul\":9968:9971   */\n      dup6\n        /* \"#utility.yul\":9950:9972   */\n      tag_65\n      jump\t// in\n    tag_199:\n        /* \"#utility.yul\":9940:9948   */\n      dup4\n        /* \"#utility.yul\":9936:9973   */\n      add\n        /* \"#utility.yul\":9923:9934   */\n      dup3\n        /* \"#utility.yul\":9894:9974   */\n      tag_74\n      jump\t// in\n    tag_198:\n        /* \"#utility.yul\":9553:9984   */\n      pop\n      pop\n        /* \"#utility.yul\":9538:9984   */\n    tag_194:\n        /* \"#utility.yul\":9448:9991   */\n      pop\n      pop\n      pop\n      jump\t// out\n        /* \"#utility.yul\":9997:10114   */\n    tag_76:\n        /* \"#utility.yul\":10051:10059   */\n      0x00\n        /* \"#utility.yul\":10101:10106   */\n      dup3\n        /* \"#utility.yul\":10095:10099   */\n      dup3\n        /* \"#utility.yul\":10091:10107   */\n      shr\n        /* \"#utility.yul\":10070:10107   */\n      swap1\n      pop\n        /* \"#utility.yul\":9997:10114   */\n      swap3\n      swap2\n      pop\n      pop\n      jump\t// out\n        /* \"#utility.yul\":10120:10289   */\n    tag_77:\n        /* \"#utility.yul\":10164:10170   */\n      0x00\n        /* \"#utility.yul\":10197:10248   */\n      tag_202\n        /* \"#utility.yul\":10245:10246   */\n      0x00\n        /* \"#utility.yul\":10241:10247   */\n      not\n        /* \"#utility.yul\":10233:10238   */\n      dup5\n        /* \"#utility.yul\":10230:10231   */\n      0x08\n        /* \"#utility.yul\":10226:10239   */\n      mul\n        /* \"#utility.yul\":10197:10248   */\n      tag_76\n      jump\t// in\n    tag_202:\n        /* \"#utility.yul\":10193:10249   */\n      not\n        /* \"#utility.yul\":10278:10282   */\n      dup1\n        /* \"#utility.yul\":10272:10276   */\n      dup4\n        /* \"#utility.yul\":10268:10283   */\n      and\n        /* \"#utility.yul\":10258:10283   */\n      swap2\n      pop\n        /* \"#utility.yul\":10171:10289   */\n      pop\n        /* \"#utility.yul\":10120:10289   */\n      swap3\n      swap2\n      pop\n      pop\n      jump\t// out\n        /* \"#utility.yul\":10294:10589   */\n    tag_78:\n        /* \"#utility.yul\":10370:10374   */\n      0x00\n        /* \"#utility.yul\":10516:10545   */\n      tag_204\n        /* \"#utility.yul\":10541:10544   */\n      dup4\n        /* \"#utility.yul\":10535:10539   */\n      dup4\n        /* \"#utility.yul\":10516:10545   */\n      tag_77\n      jump\t// in\n    tag_204:\n        /* \"#utility.yul\":10508:10545   */\n      swap2\n      pop\n        /* \"#utility.yul\":10578:10581   */\n      dup3\n        /* \"#utility.yul\":10575:10576   */\n      0x02\n        /* \"#utility.yul\":10571:10582   */\n      mul\n        /* \"#utility.yul\":10565:10569   */\n      dup3\n        /* \"#utility.yul\":10562:10583   */\n      or\n        /* \"#utility.yul\":10554:10583   */\n      swap1\n      pop\n        /* \"#utility.yul\":10294:10589   */\n      swap3\n      swap2\n      pop\n      pop\n      jump\t// out\n        /* \"#utility.yul\":10594:11989   */\n    tag_36:\n        /* \"#utility.yul\":10711:10748   */\n      tag_206\n        /* \"#utility.yul\":10744:10747   */\n      dup3\n        /* \"#utility.yul\":10711:10748   */\n      tag_39\n      jump\t// in\n    tag_206:\n        /* \"#utility.yul\":10813:10831   */\n      0xffffffffffffffff\n        /* \"#utility.yul\":10805:10811   */\n      dup2\n        /* \"#utility.yul\":10802:10832   */\n      gt\n        /* \"#utility.yul\":10799:10855   */\n      iszero\n      tag_207\n      jumpi\n        /* \"#utility.yul\":10835:10853   */\n      tag_208\n      tag_55\n      jump\t// in\n    tag_208:\n        /* \"#utility.yul\":10799:10855   */\n    tag_207:\n        /* \"#utility.yul\":10879:10917   */\n      tag_209\n        /* \"#utility.yul\":10911:10915   */\n      dup3\n        /* \"#utility.yul\":10905:10916   */\n      sload\n        /* \"#utility.yul\":10879:10917   */\n      tag_21\n      jump\t// in\n    tag_209:\n        /* \"#utility.yul\":10964:11031   */\n      tag_210\n        /* \"#utility.yul\":11024:11030   */\n      dup3\n        /* \"#utility.yul\":11016:11022   */\n      dup3\n        /* \"#utility.yul\":11010:11014   */\n      dup6\n        /* \"#utility.yul\":10964:11031   */\n      tag_75\n      jump\t// in\n    tag_210:\n        /* \"#utility.yul\":11058:11059   */\n      0x00\n        /* \"#utility.yul\":11082:11086   */\n      0x20\n        /* \"#utility.yul\":11069:11086   */\n      swap1\n      pop\n        /* \"#utility.yul\":11114:11116   */\n      0x1f\n        /* \"#utility.yul\":11106:11112   */\n      dup4\n        /* \"#utility.yul\":11103:11117   */\n      gt\n        /* \"#utility.yul\":11131:11132   */\n      0x01\n        /* \"#utility.yul\":11126:11744   */\n      dup2\n      eq\n      tag_212\n      jumpi\n        /* \"#utility.yul\":11788:11789   */\n      0x00\n        /* \"#utility.yul\":11805:11811   */\n      dup5\n        /* \"#utility.yul\":11802:11879   */\n      iszero\n      tag_213\n      jumpi\n        /* \"#utility.yul\":11854:11863   */\n      dup3\n        /* \"#utility.yul\":11849:11852   */\n      dup8\n        /* \"#utility.yul\":11845:11864   */\n      add\n        /* \"#utility.yul\":11839:11865   */\n      mload\n        /* \"#utility.yul\":11830:11865   */\n      swap1\n      pop\n        /* \"#utility.yul\":11802:11879   */\n    tag_213:\n        /* \"#utility.yul\":11905:11972   */\n      tag_214\n        /* \"#utility.yul\":11965:11971   */\n      dup6\n        /* \"#utility.yul\":11958:11963   */\n      dup3\n        /* \"#utility.yul\":11905:11972   */\n      tag_78\n      jump\t// in\n    tag_214:\n        /* \"#utility.yul\":11899:11903   */\n      dup7\n        /* \"#utility.yul\":11892:11973   */\n      sstore\n        /* \"#utility.yul\":11761:11983   */\n      pop\n        /* \"#utility.yul\":11096:11983   */\n      jump(tag_211)\n        /* \"#utility.yul\":11126:11744   */\n    tag_212:\n        /* \"#utility.yul\":11178:11182   */\n      0x1f\n        /* \"#utility.yul\":11174:11183   */\n      not\n        /* \"#utility.yul\":11166:11172   */\n      dup5\n        /* \"#utility.yul\":11162:11184   */\n      and\n        /* \"#utility.yul\":11212:11249   */\n      tag_215\n        /* \"#utility.yul\":11244:11248   */\n      dup7\n        /* \"#utility.yul\":11212:11249   */\n      tag_64\n      jump\t// in\n    tag_215:\n        /* \"#utility.yul\":11271:11272   */\n      0x00\n        /* \"#utility.yul\":11285:11493   */\n    tag_216:\n        /* \"#utility.yul\":11299:11306   */\n      dup3\n        /* \"#utility.yul\":11296:11297   */\n      dup2\n        /* \"#utility.yul\":11293:11307   */\n      lt\n        /* \"#utility.yul\":11285:11493   */\n      iszero\n      tag_218\n      jumpi\n        /* \"#utility.yul\":11378:11387   */\n      dup5\n        /* \"#utility.yul\":11373:11376   */\n      dup10\n        /* \"#utility.yul\":11369:11388   */\n      add\n        /* \"#utility.yul\":11363:11389   */\n      mload\n        /* \"#utility.yul\":11355:11361   */\n      dup3\n        /* \"#utility.yul\":11348:11390   */\n      sstore\n        /* \"#utility.yul\":11429:11430   */\n      0x01\n        /* \"#utility.yul\":11421:11427   */\n      dup3\n        /* \"#utility.yul\":11417:11431   */\n      add\n        /* \"#utility.yul\":11407:11431   */\n      swap2\n      pop\n        /* \"#utility.yul\":11476:11478   */\n      0x20\n        /* \"#utility.yul\":11465:11474   */\n      dup6\n        /* \"#utility.yul\":11461:11479   */\n      add\n        /* \"#utility.yul\":11448:11479   */\n      swap5\n      pop\n        /* \"#utility.yul\":11322:11326   */\n      0x20\n        /* \"#utility.yul\":11319:11320   */\n      dup2\n        /* \"#utility.yul\":11315:11327   */\n      add\n        /* \"#utility.yul\":11310:11327   */\n      swap1\n      pop\n        /* \"#utility.yul\":11285:11493   */\n      jump(tag_216)\n    tag_218:\n        /* \"#utility.yul\":11521:11527   */\n      dup7\n        /* \"#utility.yul\":11512:11519   */\n      dup4\n        /* \"#utility.yul\":11509:11528   */\n      lt\n        /* \"#utility.yul\":11506:11685   */\n      iszero\n      tag_219\n      jumpi\n        /* \"#utility.yul\":11579:11588   */\n      dup5\n        /* \"#utility.yul\":11574:11577   */\n      dup10\n        /* \"#utility.yul\":11570:11589   */\n      add\n        /* \"#utility.yul\":11564:11590   */\n      mload\n        /* \"#utility.yul\":11622:11670   */\n      tag_220\n        /* \"#utility.yul\":11664:11668   */\n      0x1f\n        /* \"#utility.yul\":11656:11662   */\n      dup10\n        /* \"#utility.yul\":11652:11669   */\n      and\n        /* \"#utility.yul\":11641:11650   */\n      dup3\n        /* \"#utility.yul\":11622:11670   */\n      tag_77\n      jump\t// in\n    tag_220:\n        /* \"#utility.yul\":11614:11620   */\n      dup4\n        /* \"#utility.yul\":11607:11671   */\n      sstore\n        /* \"#utility.yul\":11529:11685   */\n      pop\n        /* \"#utility.yul\":11506:11685   */\n    tag_219:\n        /* \"#utility.yul\":11731:11732   */\n      0x01\n        /* \"#utility.yul\":11727:11728   */\n      0x02\n        /* \"#utility.yul\":11719:11725   */\n      dup9\n        /* \"#utility.yul\":11715:11729   */\n      mul\n        /* \"#utility.yul\":11711:11733   */\n      add\n        /* \"#utility.yul\":11705:11709   */\n      dup9\n        /* \"#utility.yul\":11698:11734   */\n      sstore\n        /* \"#utility.yul\":11133:11744   */\n      pop\n      pop\n      pop\n        /* \"#utility.yul\":11096:11983   */\n    tag_211:\n      pop\n        /* \"#utility.yul\":10686:11989   */\n      pop\n      pop\n      pop\n        /* \"#utility.yul\":10594:11989   */\n      pop\n      pop\n      jump\t// out\n\n    auxdata: 0xa264697066735822122036f79a620b1ef2f38a2d92d192d1a8cd1208df9a35aefa3ba64ddf57ed6dd0ed64736f6c63430008180033\n}\n",
				"bytecode": {
					"linkReferences": {},
					"object": "608060405234801561000f575f80fd5b50610a6d8061001d5f395ff3fe608060405234801561000f575f80fd5b506004361061003f575f3560e01c80635e01eb5a14610043578063b7d6095b14610066578063e321f7811461009b575b5f80fd5b61004b6100b7565b60405161005d96959493929190610429565b60405180910390f35b610080600480360381019061007b91906104fa565b6101fb565b60405161009296959493929190610429565b60405180910390f35b6100b560048036038101906100b0919061067b565b6102b8565b005b5f60605f805f805f805f3373ffffffffffffffffffffffffffffffffffffffff1673ffffffffffffffffffffffffffffffffffffffff1681526020019081526020015f206040518060c00160405290815f820154815260200160018201805461011f9061073b565b80601f016020809104026020016040519081016040528092919081815260200182805461014b9061073b565b80156101965780601f1061016d57610100808354040283529160200191610196565b820191905f5260205f20905b81548152906001019060200180831161017957829003601f168201915b505050505081526020016002820154815260200160038201548152602001600482015481526020016005820154815250509050805f01519650806020015195508060400151945080606001519350806080015192508060a00151915050909192939495565b5f602052805f5260405f205f91509050805f01549080600101805461021f9061073b565b80601f016020809104026020016040519081016040528092919081815260200182805461024b9061073b565b80156102965780601f1061026d57610100808354040283529160200191610296565b820191905f5260205f20905b81548152906001019060200180831161027957829003601f168201915b5050505050908060020154908060030154908060040154908060050154905086565b6040518060c001604052808681526020018581526020018481526020018381526020018281526020018284866102ee9190610798565b6102f89190610798565b8152505f803373ffffffffffffffffffffffffffffffffffffffff1673ffffffffffffffffffffffffffffffffffffffff1681526020019081526020015f205f820151815f015560208201518160010190816103549190610968565b5060408201518160020155606082015181600301556080820151816004015560a082015181600501559050505050505050565b5f819050919050565b61039981610387565b82525050565b5f81519050919050565b5f82825260208201905092915050565b5f5b838110156103d65780820151818401526020810190506103bb565b5f8484015250505050565b5f601f19601f8301169050919050565b5f6103fb8261039f565b61040581856103a9565b93506104158185602086016103b9565b61041e816103e1565b840191505092915050565b5f60c08201905061043c5f830189610390565b818103602083015261044e81886103f1565b905061045d6040830187610390565b61046a6060830186610390565b6104776080830185610390565b61048460a0830184610390565b979650505050505050565b5f604051905090565b5f80fd5b5f80fd5b5f73ffffffffffffffffffffffffffffffffffffffff82169050919050565b5f6104c9826104a0565b9050919050565b6104d9816104bf565b81146104e3575f80fd5b50565b5f813590506104f4816104d0565b92915050565b5f6020828403121561050f5761050e610498565b5b5f61051c848285016104e6565b91505092915050565b61052e81610387565b8114610538575f80fd5b50565b5f8135905061054981610525565b92915050565b5f80fd5b5f80fd5b7f4e487b71000000000000000000000000000000000000000000000000000000005f52604160045260245ffd5b61058d826103e1565b810181811067ffffffffffffffff821117156105ac576105ab610557565b5b80604052505050565b5f6105be61048f565b90506105ca8282610584565b919050565b5f67ffffffffffffffff8211156105e9576105e8610557565b5b6105f2826103e1565b9050602081019050919050565b828183375f83830152505050565b5f61061f61061a846105cf565b6105b5565b90508281526020810184848401111561063b5761063a610553565b5b6106468482856105ff565b509392505050565b5f82601f8301126106625761066161054f565b5b813561067284826020860161060d565b91505092915050565b5f805f805f60a0868803121561069457610693610498565b5b5f6106a18882890161053b565b955050602086013567ffffffffffffffff8111156106c2576106c161049c565b5b6106ce8882890161064e565b94505060406106df8882890161053b565b93505060606106f08882890161053b565b92505060806107018882890161053b565b9150509295509295909350565b7f4e487b71000000000000000000000000000000000000000000000000000000005f52602260045260245ffd5b5f600282049050600182168061075257607f821691505b6020821081036107655761076461070e565b5b50919050565b7f4e487b71000000000000000000000000000000000000000000000000000000005f52601160045260245ffd5b5f6107a282610387565b91506107ad83610387565b92508282019050808211156107c5576107c461076b565b5b92915050565b5f819050815f5260205f209050919050565b5f6020601f8301049050919050565b5f82821b905092915050565b5f600883026108277fffffffffffffffffffffffffffffffffffffffffffffffffffffffffffffffff826107ec565b61083186836107ec565b95508019841693508086168417925050509392505050565b5f819050919050565b5f61086c61086761086284610387565b610849565b610387565b9050919050565b5f819050919050565b61088583610852565b61089961089182610873565b8484546107f8565b825550505050565b5f90565b6108ad6108a1565b6108b881848461087c565b505050565b5b818110156108db576108d05f826108a5565b6001810190506108be565b5050565b601f821115610920576108f1816107cb565b6108fa846107dd565b81016020851015610909578190505b61091d610915856107dd565b8301826108bd565b50505b505050565b5f82821c905092915050565b5f6109405f1984600802610925565b1980831691505092915050565b5f6109588383610931565b9150826002028217905092915050565b6109718261039f565b67ffffffffffffffff81111561098a57610989610557565b5b610994825461073b565b61099f8282856108df565b5f60209050601f8311600181146109d0575f84156109be578287015190505b6109c8858261094d565b865550610a2f565b601f1984166109de866107cb565b5f5b82811015610a05578489015182556001820191506020850194506020810190506109e0565b86831015610a225784890151610a1e601f891682610931565b8355505b6001600288020188555050505b50505050505056fea264697066735822122036f79a620b1ef2f38a2d92d192d1a8cd1208df9a35aefa3ba64ddf57ed6dd0ed64736f6c63430008180033",
					"opcodes": "PUSH1 0x80 PUSH1 0x40 MSTORE CALLVALUE DUP1 ISZERO PUSH2 0xF JUMPI PUSH0 DUP1 REVERT JUMPDEST POP PUSH2 0xA6D DUP1 PUSH2 0x1D PUSH0 CODECOPY PUSH0 RETURN INVALID PUSH1 0x80 PUSH1 0x40 MSTORE CALLVALUE DUP1 ISZERO PUSH2 0xF JUMPI PUSH0 DUP1 REVERT JUMPDEST POP PUSH1 0x4 CALLDATASIZE LT PUSH2 0x3F JUMPI PUSH0 CALLDATALOAD PUSH1 0xE0 SHR DUP1 PUSH4 0x5E01EB5A EQ PUSH2 0x43 JUMPI DUP1 PUSH4 0xB7D6095B EQ PUSH2 0x66 JUMPI DUP1 PUSH4 0xE321F781 EQ PUSH2 0x9B JUMPI JUMPDEST PUSH0 DUP1 REVERT JUMPDEST PUSH2 0x4B PUSH2 0xB7 JUMP JUMPDEST PUSH1 0x40 MLOAD PUSH2 0x5D SWAP7 SWAP6 SWAP5 SWAP4 SWAP3 SWAP2 SWAP1 PUSH2 0x429 JUMP JUMPDEST PUSH1 0x40 MLOAD DUP1 SWAP2 SUB SWAP1 RETURN JUMPDEST PUSH2 0x80 PUSH1 0x4 DUP1 CALLDATASIZE SUB DUP2 ADD SWAP1 PUSH2 0x7B SWAP2 SWAP1 PUSH2 0x4FA JUMP JUMPDEST PUSH2 0x1FB JUMP JUMPDEST PUSH1 0x40 MLOAD PUSH2 0x92 SWAP7 SWAP6 SWAP5 SWAP4 SWAP3 SWAP2 SWAP1 PUSH2 0x429 JUMP JUMPDEST PUSH1 0x40 MLOAD DUP1 SWAP2 SUB SWAP1 RETURN JUMPDEST PUSH2 0xB5 PUSH1 0x4 DUP1 CALLDATASIZE SUB DUP2 ADD SWAP1 PUSH2 0xB0 SWAP2 SWAP1 PUSH2 0x67B JUMP JUMPDEST PUSH2 0x2B8 JUMP JUMPDEST STOP JUMPDEST PUSH0 PUSH1 0x60 PUSH0 DUP1 PUSH0 DUP1 PUSH0 DUP1 PUSH0 CALLER PUSH20 0xFFFFFFFFFFFFFFFFFFFFFFFFFFFFFFFFFFFFFFFF AND PUSH20 0xFFFFFFFFFFFFFFFFFFFFFFFFFFFFFFFFFFFFFFFF AND DUP2 MSTORE PUSH1 0x20 ADD SWAP1 DUP2 MSTORE PUSH1 0x20 ADD PUSH0 KECCAK256 PUSH1 0x40 MLOAD DUP1 PUSH1 0xC0 ADD PUSH1 0x40 MSTORE SWAP1 DUP2 PUSH0 DUP3 ADD SLOAD DUP2 MSTORE PUSH1 0x20 ADD PUSH1 0x1 DUP3 ADD DUP1 SLOAD PUSH2 0x11F SWAP1 PUSH2 0x73B JUMP JUMPDEST DUP1 PUSH1 0x1F ADD PUSH1 0x20 DUP1 SWAP2 DIV MUL PUSH1 0x20 ADD PUSH1 0x40 MLOAD SWAP1 DUP2 ADD PUSH1 0x40 MSTORE DUP1 SWAP3 SWAP2 SWAP1 DUP2 DUP2 MSTORE PUSH1 0x20 ADD DUP3 DUP1 SLOAD PUSH2 0x14B SWAP1 PUSH2 0x73B JUMP JUMPDEST DUP1 ISZERO PUSH2 0x196 JUMPI DUP1 PUSH1 0x1F LT PUSH2 0x16D JUMPI PUSH2 0x100 DUP1 DUP4 SLOAD DIV MUL DUP4 MSTORE SWAP2 PUSH1 0x20 ADD SWAP2 PUSH2 0x196 JUMP JUMPDEST DUP3 ADD SWAP2 SWAP1 PUSH0 MSTORE PUSH1 0x20 PUSH0 KECCAK256 SWAP1 JUMPDEST DUP2 SLOAD DUP2 MSTORE SWAP1 PUSH1 0x1 ADD SWAP1 PUSH1 0x20 ADD DUP1 DUP4 GT PUSH2 0x179 JUMPI DUP3 SWAP1 SUB PUSH1 0x1F AND DUP3 ADD SWAP2 JUMPDEST POP POP POP POP POP DUP2 MSTORE PUSH1 0x20 ADD PUSH1 0x2 DUP3 ADD SLOAD DUP2 MSTORE PUSH1 0x20 ADD PUSH1 0x3 DUP3 ADD SLOAD DUP2 MSTORE PUSH1 0x20 ADD PUSH1 0x4 DUP3 ADD SLOAD DUP2 MSTORE PUSH1 0x20 ADD PUSH1 0x5 DUP3 ADD SLOAD DUP2 MSTORE POP POP SWAP1 POP DUP1 PUSH0 ADD MLOAD SWAP7 POP DUP1 PUSH1 0x20 ADD MLOAD SWAP6 POP DUP1 PUSH1 0x40 ADD MLOAD SWAP5 POP DUP1 PUSH1 0x60 ADD MLOAD SWAP4 POP DUP1 PUSH1 0x80 ADD MLOAD SWAP3 POP DUP1 PUSH1 0xA0 ADD MLOAD SWAP2 POP POP SWAP1 SWAP2 SWAP3 SWAP4 SWAP5 SWAP6 JUMP JUMPDEST PUSH0 PUSH1 0x20 MSTORE DUP1 PUSH0 MSTORE PUSH1 0x40 PUSH0 KECCAK256 PUSH0 SWAP2 POP SWAP1 POP DUP1 PUSH0 ADD SLOAD SWAP1 DUP1 PUSH1 0x1 ADD DUP1 SLOAD PUSH2 0x21F SWAP1 PUSH2 0x73B JUMP JUMPDEST DUP1 PUSH1 0x1F ADD PUSH1 0x20 DUP1 SWAP2 DIV MUL PUSH1 0x20 ADD PUSH1 0x40 MLOAD SWAP1 DUP2 ADD PUSH1 0x40 MSTORE DUP1 SWAP3 SWAP2 SWAP1 DUP2 DUP2 MSTORE PUSH1 0x20 ADD DUP3 DUP1 SLOAD PUSH2 0x24B SWAP1 PUSH2 0x73B JUMP JUMPDEST DUP1 ISZERO PUSH2 0x296 JUMPI DUP1 PUSH1 0x1F LT PUSH2 0x26D JUMPI PUSH2 0x100 DUP1 DUP4 SLOAD DIV MUL DUP4 MSTORE SWAP2 PUSH1 0x20 ADD SWAP2 PUSH2 0x296 JUMP JUMPDEST DUP3 ADD SWAP2 SWAP1 PUSH0 MSTORE PUSH1 0x20 PUSH0 KECCAK256 SWAP1 JUMPDEST DUP2 SLOAD DUP2 MSTORE SWAP1 PUSH1 0x1 ADD SWAP1 PUSH1 0x20 ADD DUP1 DUP4 GT PUSH2 0x279 JUMPI DUP3 SWAP1 SUB PUSH1 0x1F AND DUP3 ADD SWAP2 JUMPDEST POP POP POP POP POP SWAP1 DUP1 PUSH1 0x2 ADD SLOAD SWAP1 DUP1 PUSH1 0x3 ADD SLOAD SWAP1 DUP1 PUSH1 0x4 ADD SLOAD SWAP1 DUP1 PUSH1 0x5 ADD SLOAD SWAP1 POP DUP7 JUMP JUMPDEST PUSH1 0x40 MLOAD DUP1 PUSH1 0xC0 ADD PUSH1 0x40 MSTORE DUP1 DUP7 DUP2 MSTORE PUSH1 0x20 ADD DUP6 DUP2 MSTORE PUSH1 0x20 ADD DUP5 DUP2 MSTORE PUSH1 0x20 ADD DUP4 DUP2 MSTORE PUSH1 0x20 ADD DUP3 DUP2 MSTORE PUSH1 0x20 ADD DUP3 DUP5 DUP7 PUSH2 0x2EE SWAP2 SWAP1 PUSH2 0x798 JUMP JUMPDEST PUSH2 0x2F8 SWAP2 SWAP1 PUSH2 0x798 JUMP JUMPDEST DUP2 MSTORE POP PUSH0 DUP1 CALLER PUSH20 0xFFFFFFFFFFFFFFFFFFFFFFFFFFFFFFFFFFFFFFFF AND PUSH20 0xFFFFFFFFFFFFFFFFFFFFFFFFFFFFFFFFFFFFFFFF AND DUP2 MSTORE PUSH1 0x20 ADD SWAP1 DUP2 MSTORE PUSH1 0x20 ADD PUSH0 KECCAK256 PUSH0 DUP3 ADD MLOAD DUP2 PUSH0 ADD SSTORE PUSH1 0x20 DUP3 ADD MLOAD DUP2 PUSH1 0x1 ADD SWAP1 DUP2 PUSH2 0x354 SWAP2 SWAP1 PUSH2 0x968 JUMP JUMPDEST POP PUSH1 0x40 DUP3 ADD MLOAD DUP2 PUSH1 0x2 ADD SSTORE PUSH1 0x60 DUP3 ADD MLOAD DUP2 PUSH1 0x3 ADD SSTORE PUSH1 0x80 DUP3 ADD MLOAD DUP2 PUSH1 0x4 ADD SSTORE PUSH1 0xA0 DUP3 ADD MLOAD DUP2 PUSH1 0x5 ADD SSTORE SWAP1 POP POP POP POP POP POP POP JUMP JUMPDEST PUSH0 DUP2 SWAP1 POP SWAP2 SWAP1 POP JUMP JUMPDEST PUSH2 0x399 DUP2 PUSH2 0x387 JUMP JUMPDEST DUP3 MSTORE POP POP JUMP JUMPDEST PUSH0 DUP2 MLOAD SWAP1 POP SWAP2 SWAP1 POP JUMP JUMPDEST PUSH0 DUP3 DUP3 MSTORE PUSH1 0x20 DUP3 ADD SWAP1 POP SWAP3 SWAP2 POP POP JUMP JUMPDEST PUSH0 JUMPDEST DUP4 DUP2 LT ISZERO PUSH2 0x3D6 JUMPI DUP1 DUP3 ADD MLOAD DUP2 DUP5 ADD MSTORE PUSH1 0x20 DUP2 ADD SWAP1 POP PUSH2 0x3BB JUMP JUMPDEST PUSH0 DUP5 DUP5 ADD MSTORE POP POP POP POP JUMP JUMPDEST PUSH0 PUSH1 0x1F NOT PUSH1 0x1F DUP4 ADD AND SWAP1 POP SWAP2 SWAP1 POP JUMP JUMPDEST PUSH0 PUSH2 0x3FB DUP3 PUSH2 0x39F JUMP JUMPDEST PUSH2 0x405 DUP2 DUP6 PUSH2 0x3A9 JUMP JUMPDEST SWAP4 POP PUSH2 0x415 DUP2 DUP6 PUSH1 0x20 DUP7 ADD PUSH2 0x3B9 JUMP JUMPDEST PUSH2 0x41E DUP2 PUSH2 0x3E1 JUMP JUMPDEST DUP5 ADD SWAP2 POP POP SWAP3 SWAP2 POP POP JUMP JUMPDEST PUSH0 PUSH1 0xC0 DUP3 ADD SWAP1 POP PUSH2 0x43C PUSH0 DUP4 ADD DUP10 PUSH2 0x390 JUMP JUMPDEST DUP2 DUP2 SUB PUSH1 0x20 DUP4 ADD MSTORE PUSH2 0x44E DUP2 DUP9 PUSH2 0x3F1 JUMP JUMPDEST SWAP1 POP PUSH2 0x45D PUSH1 0x40 DUP4 ADD DUP8 PUSH2 0x390 JUMP JUMPDEST PUSH2 0x46A PUSH1 0x60 DUP4 ADD DUP7 PUSH2 0x390 JUMP JUMPDEST PUSH2 0x477 PUSH1 0x80 DUP4 ADD DUP6 PUSH2 0x390 JUMP JUMPDEST PUSH2 0x484 PUSH1 0xA0 DUP4 ADD DUP5 PUSH2 0x390 JUMP JUMPDEST SWAP8 SWAP7 POP POP POP POP POP POP POP JUMP JUMPDEST PUSH0 PUSH1 0x40 MLOAD SWAP1 POP SWAP1 JUMP JUMPDEST PUSH0 DUP1 REVERT JUMPDEST PUSH0 DUP1 REVERT JUMPDEST PUSH0 PUSH20 0xFFFFFFFFFFFFFFFFFFFFFFFFFFFFFFFFFFFFFFFF DUP3 AND SWAP1 POP SWAP2 SWAP1 POP JUMP JUMPDEST PUSH0 PUSH2 0x4C9 DUP3 PUSH2 0x4A0 JUMP JUMPDEST SWAP1 POP SWAP2 SWAP1 POP JUMP JUMPDEST PUSH2 0x4D9 DUP2 PUSH2 0x4BF JUMP JUMPDEST DUP2 EQ PUSH2 0x4E3 JUMPI PUSH0 DUP1 REVERT JUMPDEST POP JUMP JUMPDEST PUSH0 DUP2 CALLDATALOAD SWAP1 POP PUSH2 0x4F4 DUP2 PUSH2 0x4D0 JUMP JUMPDEST SWAP3 SWAP2 POP POP JUMP JUMPDEST PUSH0 PUSH1 0x20 DUP3 DUP5 SUB SLT ISZERO PUSH2 0x50F JUMPI PUSH2 0x50E PUSH2 0x498 JUMP JUMPDEST JUMPDEST PUSH0 PUSH2 0x51C DUP5 DUP3 DUP6 ADD PUSH2 0x4E6 JUMP JUMPDEST SWAP2 POP POP SWAP3 SWAP2 POP POP JUMP JUMPDEST PUSH2 0x52E DUP2 PUSH2 0x387 JUMP JUMPDEST DUP2 EQ PUSH2 0x538 JUMPI PUSH0 DUP1 REVERT JUMPDEST POP JUMP JUMPDEST PUSH0 DUP2 CALLDATALOAD SWAP1 POP PUSH2 0x549 DUP2 PUSH2 0x525 JUMP JUMPDEST SWAP3 SWAP2 POP POP JUMP JUMPDEST PUSH0 DUP1 REVERT JUMPDEST PUSH0 DUP1 REVERT JUMPDEST PUSH32 0x4E487B7100000000000000000000000000000000000000000000000000000000 PUSH0 MSTORE PUSH1 0x41 PUSH1 0x4 MSTORE PUSH1 0x24 PUSH0 REVERT JUMPDEST PUSH2 0x58D DUP3 PUSH2 0x3E1 JUMP JUMPDEST DUP2 ADD DUP2 DUP2 LT PUSH8 0xFFFFFFFFFFFFFFFF DUP3 GT OR ISZERO PUSH2 0x5AC JUMPI PUSH2 0x5AB PUSH2 0x557 JUMP JUMPDEST JUMPDEST DUP1 PUSH1 0x40 MSTORE POP POP POP JUMP JUMPDEST PUSH0 PUSH2 0x5BE PUSH2 0x48F JUMP JUMPDEST SWAP1 POP PUSH2 0x5CA DUP3 DUP3 PUSH2 0x584 JUMP JUMPDEST SWAP2 SWAP1 POP JUMP JUMPDEST PUSH0 PUSH8 0xFFFFFFFFFFFFFFFF DUP3 GT ISZERO PUSH2 0x5E9 JUMPI PUSH2 0x5E8 PUSH2 0x557 JUMP JUMPDEST JUMPDEST PUSH2 0x5F2 DUP3 PUSH2 0x3E1 JUMP JUMPDEST SWAP1 POP PUSH1 0x20 DUP2 ADD SWAP1 POP SWAP2 SWAP1 POP JUMP JUMPDEST DUP3 DUP2 DUP4 CALLDATACOPY PUSH0 DUP4 DUP4 ADD MSTORE POP POP POP JUMP JUMPDEST PUSH0 PUSH2 0x61F PUSH2 0x61A DUP5 PUSH2 0x5CF JUMP JUMPDEST PUSH2 0x5B5 JUMP JUMPDEST SWAP1 POP DUP3 DUP2 MSTORE PUSH1 0x20 DUP2 ADD DUP5 DUP5 DUP5 ADD GT ISZERO PUSH2 0x63B JUMPI PUSH2 0x63A PUSH2 0x553 JUMP JUMPDEST JUMPDEST PUSH2 0x646 DUP5 DUP3 DUP6 PUSH2 0x5FF JUMP JUMPDEST POP SWAP4 SWAP3 POP POP POP JUMP JUMPDEST PUSH0 DUP3 PUSH1 0x1F DUP4 ADD SLT PUSH2 0x662 JUMPI PUSH2 0x661 PUSH2 0x54F JUMP JUMPDEST JUMPDEST DUP2 CALLDATALOAD PUSH2 0x672 DUP5 DUP3 PUSH1 0x20 DUP7 ADD PUSH2 0x60D JUMP JUMPDEST SWAP2 POP POP SWAP3 SWAP2 POP POP JUMP JUMPDEST PUSH0 DUP1 PUSH0 DUP1 PUSH0 PUSH1 0xA0 DUP7 DUP9 SUB SLT ISZERO PUSH2 0x694 JUMPI PUSH2 0x693 PUSH2 0x498 JUMP JUMPDEST JUMPDEST PUSH0 PUSH2 0x6A1 DUP9 DUP3 DUP10 ADD PUSH2 0x53B JUMP JUMPDEST SWAP6 POP POP PUSH1 0x20 DUP7 ADD CALLDATALOAD PUSH8 0xFFFFFFFFFFFFFFFF DUP2 GT ISZERO PUSH2 0x6C2 JUMPI PUSH2 0x6C1 PUSH2 0x49C JUMP JUMPDEST JUMPDEST PUSH2 0x6CE DUP9 DUP3 DUP10 ADD PUSH2 0x64E JUMP JUMPDEST SWAP5 POP POP PUSH1 0x40 PUSH2 0x6DF DUP9 DUP3 DUP10 ADD PUSH2 0x53B JUMP JUMPDEST SWAP4 POP POP PUSH1 0x60 PUSH2 0x6F0 DUP9 DUP3 DUP10 ADD PUSH2 0x53B JUMP JUMPDEST SWAP3 POP POP PUSH1 0x80 PUSH2 0x701 DUP9 DUP3 DUP10 ADD PUSH2 0x53B JUMP JUMPDEST SWAP2 POP POP SWAP3 SWAP6 POP SWAP3 SWAP6 SWAP1 SWAP4 POP JUMP JUMPDEST PUSH32 0x4E487B7100000000000000000000000000000000000000000000000000000000 PUSH0 MSTORE PUSH1 0x22 PUSH1 0x4 MSTORE PUSH1 0x24 PUSH0 REVERT JUMPDEST PUSH0 PUSH1 0x2 DUP3 DIV SWAP1 POP PUSH1 0x1 DUP3 AND DUP1 PUSH2 0x752 JUMPI PUSH1 0x7F DUP3 AND SWAP2 POP JUMPDEST PUSH1 0x20 DUP3 LT DUP2 SUB PUSH2 0x765 JUMPI PUSH2 0x764 PUSH2 0x70E JUMP JUMPDEST JUMPDEST POP SWAP2 SWAP1 POP JUMP JUMPDEST PUSH32 0x4E487B7100000000000000000000000000000000000000000000000000000000 PUSH0 MSTORE PUSH1 0x11 PUSH1 0x4 MSTORE PUSH1 0x24 PUSH0 REVERT JUMPDEST PUSH0 PUSH2 0x7A2 DUP3 PUSH2 0x387 JUMP JUMPDEST SWAP2 POP PUSH2 0x7AD DUP4 PUSH2 0x387 JUMP JUMPDEST SWAP3 POP DUP3 DUP3 ADD SWAP1 POP DUP1 DUP3 GT ISZERO PUSH2 0x7C5 JUMPI PUSH2 0x7C4 PUSH2 0x76B JUMP JUMPDEST JUMPDEST SWAP3 SWAP2 POP POP JUMP JUMPDEST PUSH0 DUP2 SWAP1 POP DUP2 PUSH0 MSTORE PUSH1 0x20 PUSH0 KECCAK256 SWAP1 POP SWAP2 SWAP1 POP JUMP JUMPDEST PUSH0 PUSH1 0x20 PUSH1 0x1F DUP4 ADD DIV SWAP1 POP SWAP2 SWAP1 POP JUMP JUMPDEST PUSH0 DUP3 DUP3 SHL SWAP1 POP SWAP3 SWAP2 POP POP JUMP JUMPDEST PUSH0 PUSH1 0x8 DUP4 MUL PUSH2 0x827 PUSH32 0xFFFFFFFFFFFFFFFFFFFFFFFFFFFFFFFFFFFFFFFFFFFFFFFFFFFFFFFFFFFFFFFF DUP3 PUSH2 0x7EC JUMP JUMPDEST PUSH2 0x831 DUP7 DUP4 PUSH2 0x7EC JUMP JUMPDEST SWAP6 POP DUP1 NOT DUP5 AND SWAP4 POP DUP1 DUP7 AND DUP5 OR SWAP3 POP POP POP SWAP4 SWAP3 POP POP POP JUMP JUMPDEST PUSH0 DUP2 SWAP1 POP SWAP2 SWAP1 POP JUMP JUMPDEST PUSH0 PUSH2 0x86C PUSH2 0x867 PUSH2 0x862 DUP5 PUSH2 0x387 JUMP JUMPDEST PUSH2 0x849 JUMP JUMPDEST PUSH2 0x387 JUMP JUMPDEST SWAP1 POP SWAP2 SWAP1 POP JUMP JUMPDEST PUSH0 DUP2 SWAP1 POP SWAP2 SWAP1 POP JUMP JUMPDEST PUSH2 0x885 DUP4 PUSH2 0x852 JUMP JUMPDEST PUSH2 0x899 PUSH2 0x891 DUP3 PUSH2 0x873 JUMP JUMPDEST DUP5 DUP5 SLOAD PUSH2 0x7F8 JUMP JUMPDEST DUP3 SSTORE POP POP POP POP JUMP JUMPDEST PUSH0 SWAP1 JUMP JUMPDEST PUSH2 0x8AD PUSH2 0x8A1 JUMP JUMPDEST PUSH2 0x8B8 DUP2 DUP5 DUP5 PUSH2 0x87C JUMP JUMPDEST POP POP POP JUMP JUMPDEST JUMPDEST DUP2 DUP2 LT ISZERO PUSH2 0x8DB JUMPI PUSH2 0x8D0 PUSH0 DUP3 PUSH2 0x8A5 JUMP JUMPDEST PUSH1 0x1 DUP2 ADD SWAP1 POP PUSH2 0x8BE JUMP JUMPDEST POP POP JUMP JUMPDEST PUSH1 0x1F DUP3 GT ISZERO PUSH2 0x920 JUMPI PUSH2 0x8F1 DUP2 PUSH2 0x7CB JUMP JUMPDEST PUSH2 0x8FA DUP5 PUSH2 0x7DD JUMP JUMPDEST DUP2 ADD PUSH1 0x20 DUP6 LT ISZERO PUSH2 0x909 JUMPI DUP2 SWAP1 POP JUMPDEST PUSH2 0x91D PUSH2 0x915 DUP6 PUSH2 0x7DD JUMP JUMPDEST DUP4 ADD DUP3 PUSH2 0x8BD JUMP JUMPDEST POP POP JUMPDEST POP POP POP JUMP JUMPDEST PUSH0 DUP3 DUP3 SHR SWAP1 POP SWAP3 SWAP2 POP POP JUMP JUMPDEST PUSH0 PUSH2 0x940 PUSH0 NOT DUP5 PUSH1 0x8 MUL PUSH2 0x925 JUMP JUMPDEST NOT DUP1 DUP4 AND SWAP2 POP POP SWAP3 SWAP2 POP POP JUMP JUMPDEST PUSH0 PUSH2 0x958 DUP4 DUP4 PUSH2 0x931 JUMP JUMPDEST SWAP2 POP DUP3 PUSH1 0x2 MUL DUP3 OR SWAP1 POP SWAP3 SWAP2 POP POP JUMP JUMPDEST PUSH2 0x971 DUP3 PUSH2 0x39F JUMP JUMPDEST PUSH8 0xFFFFFFFFFFFFFFFF DUP2 GT ISZERO PUSH2 0x98A JUMPI PUSH2 0x989 PUSH2 0x557 JUMP JUMPDEST JUMPDEST PUSH2 0x994 DUP3 SLOAD PUSH2 0x73B JUMP JUMPDEST PUSH2 0x99F DUP3 DUP3 DUP6 PUSH2 0x8DF JUMP JUMPDEST PUSH0 PUSH1 0x20 SWAP1 POP PUSH1 0x1F DUP4 GT PUSH1 0x1 DUP2 EQ PUSH2 0x9D0 JUMPI PUSH0 DUP5 ISZERO PUSH2 0x9BE JUMPI DUP3 DUP8 ADD MLOAD SWAP1 POP JUMPDEST PUSH2 0x9C8 DUP6 DUP3 PUSH2 0x94D JUMP JUMPDEST DUP7 SSTORE POP PUSH2 0xA2F JUMP JUMPDEST PUSH1 0x1F NOT DUP5 AND PUSH2 0x9DE DUP7 PUSH2 0x7CB JUMP JUMPDEST PUSH0 JUMPDEST DUP3 DUP2 LT ISZERO PUSH2 0xA05 JUMPI DUP5 DUP10 ADD MLOAD DUP3 SSTORE PUSH1 0x1 DUP3 ADD SWAP2 POP PUSH1 0x20 DUP6 ADD SWAP5 POP PUSH1 0x20 DUP2 ADD SWAP1 POP PUSH2 0x9E0 JUMP JUMPDEST DUP7 DUP4 LT ISZERO PUSH2 0xA22 JUMPI DUP5 DUP10 ADD MLOAD PUSH2 0xA1E PUSH1 0x1F DUP10 AND DUP3 PUSH2 0x931 JUMP JUMPDEST DUP4 SSTORE POP JUMPDEST PUSH1 0x1 PUSH1 0x2 DUP9 MUL ADD DUP9 SSTORE POP POP POP JUMPDEST POP POP POP POP POP POP JUMP INVALID LOG2 PUSH5 0x6970667358 0x22 SLT KECCAK256 CALLDATASIZE 0xF7 SWAP11 PUSH3 0xB1EF2 RETURN DUP11 0x2D SWAP3 0xD1 SWAP3 0xD1 0xA8 0xCD SLT ADDMOD 0xDF SWAP11 CALLDATALOAD 0xAE STATICCALL EXTCODESIZE 0xA6 0x4D 0xDF JUMPI 0xED PUSH14 0xD0ED64736F6C6343000818003300 "
				},
				"gasEstimates": {
					"creation": {
						"codeDepositCost": "533800",
						"executionCost": "566",
						"totalCost": "534366"
					},
					"external": {
						"getSender()": "infinite",
						"setStudentDetail(uint256,string,uint256,uint256,uint256)": "infinite",
						"studentsDetailsWithWalletAddess(address)": "infinite"
					}
				},
				"methodIdentifiers": {
					"getSender()": "5e01eb5a",
					"setStudentDetail(uint256,string,uint256,uint256,uint256)": "e321f781",
					"studentsDetailsWithWalletAddess(address)": "b7d6095b"
				}
			},
			"storageLayout": {
				"storage": [
					{
						"astId": 19,
						"contract": "Result.sol:Result",
						"label": "studentsDetailsWithWalletAddess",
						"offset": 0,
						"slot": "0",
						"type": "t_mapping(t_address,t_struct(student)14_storage)"
					}
				],
				"types": {
					"t_address": {
						"encoding": "inplace",
						"label": "address",
						"numberOfBytes": "20"
					},
					"t_mapping(t_address,t_struct(student)14_storage)": {
						"encoding": "mapping",
						"key": "t_address",
						"label": "mapping(address => struct Result.student)",
						"numberOfBytes": "32",
						"value": "t_struct(student)14_storage"
					},
					"t_string_storage": {
						"encoding": "bytes",
						"label": "string",
						"numberOfBytes": "32"
					},
					"t_struct(student)14_storage": {
						"encoding": "inplace",
						"label": "struct Result.student",
						"members": [
							{
								"astId": 3,
								"contract": "Result.sol:Result",
								"label": "RollNo",
								"offset": 0,
								"slot": "0",
								"type": "t_uint256"
							},
							{
								"astId": 5,
								"contract": "Result.sol:Result",
								"label": "Name",
								"offset": 0,
								"slot": "1",
								"type": "t_string_storage"
							},
							{
								"astId": 7,
								"contract": "Result.sol:Result",
								"label": "Subject1",
								"offset": 0,
								"slot": "2",
								"type": "t_uint256"
							},
							{
								"astId": 9,
								"contract": "Result.sol:Result",
								"label": "Subject2",
								"offset": 0,
								"slot": "3",
								"type": "t_uint256"
							},
							{
								"astId": 11,
								"contract": "Result.sol:Result",
								"label": "Subject3",
								"offset": 0,
								"slot": "4",
								"type": "t_uint256"
							},
							{
								"astId": 13,
								"contract": "Result.sol:Result",
								"label": "TotalMark",
								"offset": 0,
								"slot": "5",
								"type": "t_uint256"
							}
						],
						"numberOfBytes": "192"
					},
					"t_uint256": {
						"encoding": "inplace",
						"label": "uint256",
						"numberOfBytes": "32"
					}
				}
			},
			"userdoc": {
				"kind": "user",
				"methods": {},
				"version": 1
			}
		}
	}
}