{
	"artifacts/gradeSystem.sol": {
		"Grade": {
			"abi": [
				{
					"inputs": [
						{
							"internalType": "int256",
							"name": "mark",
							"type": "int256"
						}
					],
					"name": "getGrade",
					"outputs": [
						{
							"internalType": "string",
							"name": "",
							"type": "string"
						}
					],
					"stateMutability": "pure",
					"type": "function"
				}
			],
			"devdoc": {
				"kind": "dev",
				"methods": {},
				"version": 1
			},
			"evm": {
				"assembly": "    /* \"artifacts/gradeSystem.sol\":57:762  contract Grade {... */\n  mstore(0x40, 0x80)\n  callvalue\n  dup1\n  iszero\n  tag_1\n  jumpi\n  0x00\n  dup1\n  revert\ntag_1:\n  pop\n  dataSize(sub_0)\n  dup1\n  dataOffset(sub_0)\n  0x00\n  codecopy\n  0x00\n  return\nstop\n\nsub_0: assembly {\n        /* \"artifacts/gradeSystem.sol\":57:762  contract Grade {... */\n      mstore(0x40, 0x80)\n      callvalue\n      dup1\n      iszero\n      tag_1\n      jumpi\n      0x00\n      dup1\n      revert\n    tag_1:\n      pop\n      jumpi(tag_2, lt(calldatasize, 0x04))\n      shr(0xe0, calldataload(0x00))\n      dup1\n      0x654b5def\n      eq\n      tag_3\n      jumpi\n    tag_2:\n      0x00\n      dup1\n      revert\n        /* \"artifacts/gradeSystem.sol\":78:760  function getGrade(int mark) public pure returns(string memory){... */\n    tag_3:\n      tag_4\n      0x04\n      dup1\n      calldatasize\n      sub\n      dup2\n      add\n      swap1\n      tag_5\n      swap2\n      swap1\n      tag_6\n      jump\t// in\n    tag_5:\n      tag_7\n      jump\t// in\n    tag_4:\n      mload(0x40)\n      tag_8\n      swap2\n      swap1\n      tag_9\n      jump\t// in\n    tag_8:\n      mload(0x40)\n      dup1\n      swap2\n      sub\n      swap1\n      return\n    tag_7:\n        /* \"artifacts/gradeSystem.sol\":126:139  string memory */\n      0x60\n        /* \"artifacts/gradeSystem.sol\":150:169  string memory grade */\n      dup1\n        /* \"artifacts/gradeSystem.sol\":195:198  100 */\n      0x64\n        /* \"artifacts/gradeSystem.sol\":187:191  mark */\n      dup4\n        /* \"artifacts/gradeSystem.sol\":187:198  mark <= 100 */\n      sgt\n      iszero\n        /* \"artifacts/gradeSystem.sol\":187:210  mark <= 100 && mark >=0 */\n      dup1\n      iszero\n      tag_11\n      jumpi\n      pop\n        /* \"artifacts/gradeSystem.sol\":209:210  0 */\n      0x00\n        /* \"artifacts/gradeSystem.sol\":202:206  mark */\n      dup4\n        /* \"artifacts/gradeSystem.sol\":202:210  mark >=0 */\n      slt\n      iszero\n        /* \"artifacts/gradeSystem.sol\":187:210  mark <= 100 && mark >=0 */\n    tag_11:\n        /* \"artifacts/gradeSystem.sol\":179:247  require(mark <= 100 && mark >=0 ,\"Mark should be between 0 and 100\") */\n      tag_12\n      jumpi\n      mload(0x40)\n      0x08c379a000000000000000000000000000000000000000000000000000000000\n      dup2\n      mstore\n      0x04\n      add\n      tag_13\n      swap1\n      tag_14\n      jump\t// in\n    tag_13:\n      mload(0x40)\n      dup1\n      swap2\n      sub\n      swap1\n      revert\n    tag_12:\n        /* \"artifacts/gradeSystem.sol\":267:269  33 */\n      0x21\n        /* \"artifacts/gradeSystem.sol\":261:265  mark */\n      dup4\n        /* \"artifacts/gradeSystem.sol\":261:269  mark >33 */\n      sgt\n        /* \"artifacts/gradeSystem.sol\":257:730  if (mark >33){... */\n      iszero\n      tag_15\n      jumpi\n        /* \"artifacts/gradeSystem.sol\":293:296  100 */\n      0x64\n        /* \"artifacts/gradeSystem.sol\":287:291  mark */\n      dup4\n        /* \"artifacts/gradeSystem.sol\":287:296  mark<=100 */\n      sgt\n      iszero\n        /* \"artifacts/gradeSystem.sol\":287:308  mark<=100 && mark >85 */\n      dup1\n      iszero\n      tag_16\n      jumpi\n      pop\n        /* \"artifacts/gradeSystem.sol\":306:308  85 */\n      0x55\n        /* \"artifacts/gradeSystem.sol\":300:304  mark */\n      dup4\n        /* \"artifacts/gradeSystem.sol\":300:308  mark >85 */\n      sgt\n        /* \"artifacts/gradeSystem.sol\":287:308  mark<=100 && mark >85 */\n    tag_16:\n        /* \"artifacts/gradeSystem.sol\":284:353  if(mark<=100 && mark >85){... */\n      iszero\n      tag_17\n      jumpi\n        /* \"artifacts/gradeSystem.sol\":327:338  grade = \"A\" */\n      mload(0x40)\n      dup1\n      0x40\n      add\n      0x40\n      mstore\n      dup1\n      0x01\n      dup2\n      mstore\n      0x20\n      add\n      0x4100000000000000000000000000000000000000000000000000000000000000\n      dup2\n      mstore\n      pop\n      swap1\n      pop\n        /* \"artifacts/gradeSystem.sol\":284:353  if(mark<=100 && mark >85){... */\n    tag_17:\n        /* \"artifacts/gradeSystem.sol\":375:377  85 */\n      0x55\n        /* \"artifacts/gradeSystem.sol\":369:373  mark */\n      dup4\n        /* \"artifacts/gradeSystem.sol\":369:377  mark<=85 */\n      sgt\n      iszero\n        /* \"artifacts/gradeSystem.sol\":369:389  mark<=85 && mark >70 */\n      dup1\n      iszero\n      tag_18\n      jumpi\n      pop\n        /* \"artifacts/gradeSystem.sol\":387:389  70 */\n      0x46\n        /* \"artifacts/gradeSystem.sol\":381:385  mark */\n      dup4\n        /* \"artifacts/gradeSystem.sol\":381:389  mark >70 */\n      sgt\n        /* \"artifacts/gradeSystem.sol\":369:389  mark<=85 && mark >70 */\n    tag_18:\n        /* \"artifacts/gradeSystem.sol\":366:434  if(mark<=85 && mark >70){... */\n      iszero\n      tag_19\n      jumpi\n        /* \"artifacts/gradeSystem.sol\":408:419  grade = \"B\" */\n      mload(0x40)\n      dup1\n      0x40\n      add\n      0x40\n      mstore\n      dup1\n      0x01\n      dup2\n      mstore\n      0x20\n      add\n      0x4200000000000000000000000000000000000000000000000000000000000000\n      dup2\n      mstore\n      pop\n      swap1\n      pop\n        /* \"artifacts/gradeSystem.sol\":366:434  if(mark<=85 && mark >70){... */\n    tag_19:\n        /* \"artifacts/gradeSystem.sol\":456:458  70 */\n      0x46\n        /* \"artifacts/gradeSystem.sol\":450:454  mark */\n      dup4\n        /* \"artifacts/gradeSystem.sol\":450:458  mark<=70 */\n      sgt\n      iszero\n        /* \"artifacts/gradeSystem.sol\":450:470  mark<=70 && mark >55 */\n      dup1\n      iszero\n      tag_20\n      jumpi\n      pop\n        /* \"artifacts/gradeSystem.sol\":468:470  55 */\n      0x37\n        /* \"artifacts/gradeSystem.sol\":462:466  mark */\n      dup4\n        /* \"artifacts/gradeSystem.sol\":462:470  mark >55 */\n      sgt\n        /* \"artifacts/gradeSystem.sol\":450:470  mark<=70 && mark >55 */\n    tag_20:\n        /* \"artifacts/gradeSystem.sol\":447:515  if(mark<=70 && mark >55){... */\n      iszero\n      tag_21\n      jumpi\n        /* \"artifacts/gradeSystem.sol\":489:500  grade = \"C\" */\n      mload(0x40)\n      dup1\n      0x40\n      add\n      0x40\n      mstore\n      dup1\n      0x01\n      dup2\n      mstore\n      0x20\n      add\n      0x4300000000000000000000000000000000000000000000000000000000000000\n      dup2\n      mstore\n      pop\n      swap1\n      pop\n        /* \"artifacts/gradeSystem.sol\":447:515  if(mark<=70 && mark >55){... */\n    tag_21:\n        /* \"artifacts/gradeSystem.sol\":537:539  55 */\n      0x37\n        /* \"artifacts/gradeSystem.sol\":531:535  mark */\n      dup4\n        /* \"artifacts/gradeSystem.sol\":531:539  mark<=55 */\n      sgt\n      iszero\n        /* \"artifacts/gradeSystem.sol\":531:551  mark<=55 && mark >40 */\n      dup1\n      iszero\n      tag_22\n      jumpi\n      pop\n        /* \"artifacts/gradeSystem.sol\":549:551  40 */\n      0x28\n        /* \"artifacts/gradeSystem.sol\":543:547  mark */\n      dup4\n        /* \"artifacts/gradeSystem.sol\":543:551  mark >40 */\n      sgt\n        /* \"artifacts/gradeSystem.sol\":531:551  mark<=55 && mark >40 */\n    tag_22:\n        /* \"artifacts/gradeSystem.sol\":528:596  if(mark<=55 && mark >40){... */\n      iszero\n      tag_23\n      jumpi\n        /* \"artifacts/gradeSystem.sol\":570:581  grade = \"D\" */\n      mload(0x40)\n      dup1\n      0x40\n      add\n      0x40\n      mstore\n      dup1\n      0x01\n      dup2\n      mstore\n      0x20\n      add\n      0x4400000000000000000000000000000000000000000000000000000000000000\n      dup2\n      mstore\n      pop\n      swap1\n      pop\n        /* \"artifacts/gradeSystem.sol\":528:596  if(mark<=55 && mark >40){... */\n    tag_23:\n        /* \"artifacts/gradeSystem.sol\":618:620  40 */\n      0x28\n        /* \"artifacts/gradeSystem.sol\":612:616  mark */\n      dup4\n        /* \"artifacts/gradeSystem.sol\":612:620  mark<=40 */\n      sgt\n      iszero\n        /* \"artifacts/gradeSystem.sol\":612:632  mark<=40 && mark >33 */\n      dup1\n      iszero\n      tag_24\n      jumpi\n      pop\n        /* \"artifacts/gradeSystem.sol\":630:632  33 */\n      0x21\n        /* \"artifacts/gradeSystem.sol\":624:628  mark */\n      dup4\n        /* \"artifacts/gradeSystem.sol\":624:632  mark >33 */\n      sgt\n        /* \"artifacts/gradeSystem.sol\":612:632  mark<=40 && mark >33 */\n    tag_24:\n        /* \"artifacts/gradeSystem.sol\":609:677  if(mark<=40 && mark >33){... */\n      iszero\n      tag_25\n      jumpi\n        /* \"artifacts/gradeSystem.sol\":651:662  grade = \"E\" */\n      mload(0x40)\n      dup1\n      0x40\n      add\n      0x40\n      mstore\n      dup1\n      0x01\n      dup2\n      mstore\n      0x20\n      add\n      0x4500000000000000000000000000000000000000000000000000000000000000\n      dup2\n      mstore\n      pop\n      swap1\n      pop\n        /* \"artifacts/gradeSystem.sol\":609:677  if(mark<=40 && mark >33){... */\n    tag_25:\n        /* \"artifacts/gradeSystem.sol\":257:730  if (mark >33){... */\n      jump(tag_26)\n    tag_15:\n        /* \"artifacts/gradeSystem.sol\":706:719  grade =\"Fail\" */\n      mload(0x40)\n      dup1\n      0x40\n      add\n      0x40\n      mstore\n      dup1\n      0x04\n      dup2\n      mstore\n      0x20\n      add\n      0x4661696c00000000000000000000000000000000000000000000000000000000\n      dup2\n      mstore\n      pop\n      swap1\n      pop\n        /* \"artifacts/gradeSystem.sol\":257:730  if (mark >33){... */\n    tag_26:\n        /* \"artifacts/gradeSystem.sol\":747:752  grade */\n      dup1\n        /* \"artifacts/gradeSystem.sol\":740:752  return grade */\n      swap2\n      pop\n      pop\n        /* \"artifacts/gradeSystem.sol\":78:760  function getGrade(int mark) public pure returns(string memory){... */\n      swap2\n      swap1\n      pop\n      jump\t// out\n        /* \"#utility.yul\":88:205   */\n    tag_28:\n        /* \"#utility.yul\":197:198   */\n      0x00\n        /* \"#utility.yul\":194:195   */\n      dup1\n        /* \"#utility.yul\":187:199   */\n      revert\n        /* \"#utility.yul\":334:410   */\n    tag_30:\n        /* \"#utility.yul\":370:377   */\n      0x00\n        /* \"#utility.yul\":399:404   */\n      dup2\n        /* \"#utility.yul\":388:404   */\n      swap1\n      pop\n        /* \"#utility.yul\":334:410   */\n      swap2\n      swap1\n      pop\n      jump\t// out\n        /* \"#utility.yul\":416:536   */\n    tag_31:\n        /* \"#utility.yul\":488:511   */\n      tag_46\n        /* \"#utility.yul\":505:510   */\n      dup2\n        /* \"#utility.yul\":488:511   */\n      tag_30\n      jump\t// in\n    tag_46:\n        /* \"#utility.yul\":481:486   */\n      dup2\n        /* \"#utility.yul\":478:512   */\n      eq\n        /* \"#utility.yul\":468:530   */\n      tag_47\n      jumpi\n        /* \"#utility.yul\":526:527   */\n      0x00\n        /* \"#utility.yul\":523:524   */\n      dup1\n        /* \"#utility.yul\":516:528   */\n      revert\n        /* \"#utility.yul\":468:530   */\n    tag_47:\n        /* \"#utility.yul\":416:536   */\n      pop\n      jump\t// out\n        /* \"#utility.yul\":542:679   */\n    tag_32:\n        /* \"#utility.yul\":587:592   */\n      0x00\n        /* \"#utility.yul\":625:631   */\n      dup2\n        /* \"#utility.yul\":612:632   */\n      calldataload\n        /* \"#utility.yul\":603:632   */\n      swap1\n      pop\n        /* \"#utility.yul\":641:673   */\n      tag_49\n        /* \"#utility.yul\":667:672   */\n      dup2\n        /* \"#utility.yul\":641:673   */\n      tag_31\n      jump\t// in\n    tag_49:\n        /* \"#utility.yul\":542:679   */\n      swap3\n      swap2\n      pop\n      pop\n      jump\t// out\n        /* \"#utility.yul\":685:1012   */\n    tag_6:\n        /* \"#utility.yul\":743:749   */\n      0x00\n        /* \"#utility.yul\":792:794   */\n      0x20\n        /* \"#utility.yul\":780:789   */\n      dup3\n        /* \"#utility.yul\":771:778   */\n      dup5\n        /* \"#utility.yul\":767:790   */\n      sub\n        /* \"#utility.yul\":763:795   */\n      slt\n        /* \"#utility.yul\":760:879   */\n      iszero\n      tag_51\n      jumpi\n        /* \"#utility.yul\":798:877   */\n      tag_52\n      tag_28\n      jump\t// in\n    tag_52:\n        /* \"#utility.yul\":760:879   */\n    tag_51:\n        /* \"#utility.yul\":918:919   */\n      0x00\n        /* \"#utility.yul\":943:995   */\n      tag_53\n        /* \"#utility.yul\":987:994   */\n      dup5\n        /* \"#utility.yul\":978:984   */\n      dup3\n        /* \"#utility.yul\":967:976   */\n      dup6\n        /* \"#utility.yul\":963:985   */\n      add\n        /* \"#utility.yul\":943:995   */\n      tag_32\n      jump\t// in\n    tag_53:\n        /* \"#utility.yul\":933:995   */\n      swap2\n      pop\n        /* \"#utility.yul\":889:1005   */\n      pop\n        /* \"#utility.yul\":685:1012   */\n      swap3\n      swap2\n      pop\n      pop\n      jump\t// out\n        /* \"#utility.yul\":1018:1117   */\n    tag_33:\n        /* \"#utility.yul\":1070:1076   */\n      0x00\n        /* \"#utility.yul\":1104:1109   */\n      dup2\n        /* \"#utility.yul\":1098:1110   */\n      mload\n        /* \"#utility.yul\":1088:1110   */\n      swap1\n      pop\n        /* \"#utility.yul\":1018:1117   */\n      swap2\n      swap1\n      pop\n      jump\t// out\n        /* \"#utility.yul\":1123:1292   */\n    tag_34:\n        /* \"#utility.yul\":1207:1218   */\n      0x00\n        /* \"#utility.yul\":1241:1247   */\n      dup3\n        /* \"#utility.yul\":1236:1239   */\n      dup3\n        /* \"#utility.yul\":1229:1248   */\n      mstore\n        /* \"#utility.yul\":1281:1285   */\n      0x20\n        /* \"#utility.yul\":1276:1279   */\n      dup3\n        /* \"#utility.yul\":1272:1286   */\n      add\n        /* \"#utility.yul\":1257:1286   */\n      swap1\n      pop\n        /* \"#utility.yul\":1123:1292   */\n      swap3\n      swap2\n      pop\n      pop\n      jump\t// out\n        /* \"#utility.yul\":1298:1544   */\n    tag_35:\n        /* \"#utility.yul\":1379:1380   */\n      0x00\n        /* \"#utility.yul\":1389:1502   */\n    tag_57:\n        /* \"#utility.yul\":1403:1409   */\n      dup4\n        /* \"#utility.yul\":1400:1401   */\n      dup2\n        /* \"#utility.yul\":1397:1410   */\n      lt\n        /* \"#utility.yul\":1389:1502   */\n      iszero\n      tag_59\n      jumpi\n        /* \"#utility.yul\":1488:1489   */\n      dup1\n        /* \"#utility.yul\":1483:1486   */\n      dup3\n        /* \"#utility.yul\":1479:1490   */\n      add\n        /* \"#utility.yul\":1473:1491   */\n      mload\n        /* \"#utility.yul\":1469:1470   */\n      dup2\n        /* \"#utility.yul\":1464:1467   */\n      dup5\n        /* \"#utility.yul\":1460:1471   */\n      add\n        /* \"#utility.yul\":1453:1492   */\n      mstore\n        /* \"#utility.yul\":1425:1427   */\n      0x20\n        /* \"#utility.yul\":1422:1423   */\n      dup2\n        /* \"#utility.yul\":1418:1428   */\n      add\n        /* \"#utility.yul\":1413:1428   */\n      swap1\n      pop\n        /* \"#utility.yul\":1389:1502   */\n      jump(tag_57)\n    tag_59:\n        /* \"#utility.yul\":1536:1537   */\n      0x00\n        /* \"#utility.yul\":1527:1533   */\n      dup5\n        /* \"#utility.yul\":1522:1525   */\n      dup5\n        /* \"#utility.yul\":1518:1534   */\n      add\n        /* \"#utility.yul\":1511:1538   */\n      mstore\n        /* \"#utility.yul\":1360:1544   */\n      pop\n        /* \"#utility.yul\":1298:1544   */\n      pop\n      pop\n      pop\n      jump\t// out\n        /* \"#utility.yul\":1550:1652   */\n    tag_36:\n        /* \"#utility.yul\":1591:1597   */\n      0x00\n        /* \"#utility.yul\":1642:1644   */\n      0x1f\n        /* \"#utility.yul\":1638:1645   */\n      not\n        /* \"#utility.yul\":1633:1635   */\n      0x1f\n        /* \"#utility.yul\":1626:1631   */\n      dup4\n        /* \"#utility.yul\":1622:1636   */\n      add\n        /* \"#utility.yul\":1618:1646   */\n      and\n        /* \"#utility.yul\":1608:1646   */\n      swap1\n      pop\n        /* \"#utility.yul\":1550:1652   */\n      swap2\n      swap1\n      pop\n      jump\t// out\n        /* \"#utility.yul\":1658:2035   */\n    tag_37:\n        /* \"#utility.yul\":1746:1749   */\n      0x00\n        /* \"#utility.yul\":1774:1813   */\n      tag_62\n        /* \"#utility.yul\":1807:1812   */\n      dup3\n        /* \"#utility.yul\":1774:1813   */\n      tag_33\n      jump\t// in\n    tag_62:\n        /* \"#utility.yul\":1829:1900   */\n      tag_63\n        /* \"#utility.yul\":1893:1899   */\n      dup2\n        /* \"#utility.yul\":1888:1891   */\n      dup6\n        /* \"#utility.yul\":1829:1900   */\n      tag_34\n      jump\t// in\n    tag_63:\n        /* \"#utility.yul\":1822:1900   */\n      swap4\n      pop\n        /* \"#utility.yul\":1909:1974   */\n      tag_64\n        /* \"#utility.yul\":1967:1973   */\n      dup2\n        /* \"#utility.yul\":1962:1965   */\n      dup6\n        /* \"#utility.yul\":1955:1959   */\n      0x20\n        /* \"#utility.yul\":1948:1953   */\n      dup7\n        /* \"#utility.yul\":1944:1960   */\n      add\n        /* \"#utility.yul\":1909:1974   */\n      tag_35\n      jump\t// in\n    tag_64:\n        /* \"#utility.yul\":1999:2028   */\n      tag_65\n        /* \"#utility.yul\":2021:2027   */\n      dup2\n        /* \"#utility.yul\":1999:2028   */\n      tag_36\n      jump\t// in\n    tag_65:\n        /* \"#utility.yul\":1994:1997   */\n      dup5\n        /* \"#utility.yul\":1990:2029   */\n      add\n        /* \"#utility.yul\":1983:2029   */\n      swap2\n      pop\n        /* \"#utility.yul\":1750:2035   */\n      pop\n        /* \"#utility.yul\":1658:2035   */\n      swap3\n      swap2\n      pop\n      pop\n      jump\t// out\n        /* \"#utility.yul\":2041:2354   */\n    tag_9:\n        /* \"#utility.yul\":2154:2158   */\n      0x00\n        /* \"#utility.yul\":2192:2194   */\n      0x20\n        /* \"#utility.yul\":2181:2190   */\n      dup3\n        /* \"#utility.yul\":2177:2195   */\n      add\n        /* \"#utility.yul\":2169:2195   */\n      swap1\n      pop\n        /* \"#utility.yul\":2241:2250   */\n      dup2\n        /* \"#utility.yul\":2235:2239   */\n      dup2\n        /* \"#utility.yul\":2231:2251   */\n      sub\n        /* \"#utility.yul\":2227:2228   */\n      0x00\n        /* \"#utility.yul\":2216:2225   */\n      dup4\n        /* \"#utility.yul\":2212:2229   */\n      add\n        /* \"#utility.yul\":2205:2252   */\n      mstore\n        /* \"#utility.yul\":2269:2347   */\n      tag_67\n        /* \"#utility.yul\":2342:2346   */\n      dup2\n        /* \"#utility.yul\":2333:2339   */\n      dup5\n        /* \"#utility.yul\":2269:2347   */\n      tag_37\n      jump\t// in\n    tag_67:\n        /* \"#utility.yul\":2261:2347   */\n      swap1\n      pop\n        /* \"#utility.yul\":2041:2354   */\n      swap3\n      swap2\n      pop\n      pop\n      jump\t// out\n        /* \"#utility.yul\":2360:2542   */\n    tag_38:\n        /* \"#utility.yul\":2500:2534   */\n      0x4d61726b2073686f756c64206265206265747765656e203020616e6420313030\n        /* \"#utility.yul\":2496:2497   */\n      0x00\n        /* \"#utility.yul\":2488:2494   */\n      dup3\n        /* \"#utility.yul\":2484:2498   */\n      add\n        /* \"#utility.yul\":2477:2535   */\n      mstore\n        /* \"#utility.yul\":2360:2542   */\n      pop\n      jump\t// out\n        /* \"#utility.yul\":2548:2914   */\n    tag_39:\n        /* \"#utility.yul\":2690:2693   */\n      0x00\n        /* \"#utility.yul\":2711:2778   */\n      tag_70\n        /* \"#utility.yul\":2775:2777   */\n      0x20\n        /* \"#utility.yul\":2770:2773   */\n      dup4\n        /* \"#utility.yul\":2711:2778   */\n      tag_34\n      jump\t// in\n    tag_70:\n        /* \"#utility.yul\":2704:2778   */\n      swap2\n      pop\n        /* \"#utility.yul\":2787:2880   */\n      tag_71\n        /* \"#utility.yul\":2876:2879   */\n      dup3\n        /* \"#utility.yul\":2787:2880   */\n      tag_38\n      jump\t// in\n    tag_71:\n        /* \"#utility.yul\":2905:2907   */\n      0x20\n        /* \"#utility.yul\":2900:2903   */\n      dup3\n        /* \"#utility.yul\":2896:2908   */\n      add\n        /* \"#utility.yul\":2889:2908   */\n      swap1\n      pop\n        /* \"#utility.yul\":2548:2914   */\n      swap2\n      swap1\n      pop\n      jump\t// out\n        /* \"#utility.yul\":2920:3339   */\n    tag_14:\n        /* \"#utility.yul\":3086:3090   */\n      0x00\n        /* \"#utility.yul\":3124:3126   */\n      0x20\n        /* \"#utility.yul\":3113:3122   */\n      dup3\n        /* \"#utility.yul\":3109:3127   */\n      add\n        /* \"#utility.yul\":3101:3127   */\n      swap1\n      pop\n        /* \"#utility.yul\":3173:3182   */\n      dup2\n        /* \"#utility.yul\":3167:3171   */\n      dup2\n        /* \"#utility.yul\":3163:3183   */\n      sub\n        /* \"#utility.yul\":3159:3160   */\n      0x00\n        /* \"#utility.yul\":3148:3157   */\n      dup4\n        /* \"#utility.yul\":3144:3161   */\n      add\n        /* \"#utility.yul\":3137:3184   */\n      mstore\n        /* \"#utility.yul\":3201:3332   */\n      tag_73\n        /* \"#utility.yul\":3327:3331   */\n      dup2\n        /* \"#utility.yul\":3201:3332   */\n      tag_39\n      jump\t// in\n    tag_73:\n        /* \"#utility.yul\":3193:3332   */\n      swap1\n      pop\n        /* \"#utility.yul\":2920:3339   */\n      swap2\n      swap1\n      pop\n      jump\t// out\n\n    auxdata: 0xa26469706673582212208e4f714e331476a5d9c5f05db42907e616f0ceac9c1575d7d050c456287b364064736f6c63430008180033\n}\n",
				"bytecode": {
					"linkReferences": {},
					"object": "608060405234801561000f575f80fd5b506104358061001d5f395ff3fe608060405234801561000f575f80fd5b5060043610610029575f3560e01c8063654b5def1461002d575b5f80fd5b610047600480360381019061004291906102c2565b61005d565b6040516100549190610377565b60405180910390f35b6060806064831315801561007157505f8312155b6100b0576040517f08c379a00000000000000000000000000000000000000000000000000000000081526004016100a7906103e1565b60405180910390fd5b602183131561024957606483131580156100ca5750605583135b15610108576040518060400160405280600181526020017f410000000000000000000000000000000000000000000000000000000000000081525090505b605583131580156101195750604683135b15610157576040518060400160405280600181526020017f420000000000000000000000000000000000000000000000000000000000000081525090505b604683131580156101685750603783135b156101a6576040518060400160405280600181526020017f430000000000000000000000000000000000000000000000000000000000000081525090505b603783131580156101b75750602883135b156101f5576040518060400160405280600181526020017f440000000000000000000000000000000000000000000000000000000000000081525090505b602883131580156102065750602183135b15610244576040518060400160405280600181526020017f450000000000000000000000000000000000000000000000000000000000000081525090505b610282565b6040518060400160405280600481526020017f4661696c0000000000000000000000000000000000000000000000000000000081525090505b80915050919050565b5f80fd5b5f819050919050565b6102a18161028f565b81146102ab575f80fd5b50565b5f813590506102bc81610298565b92915050565b5f602082840312156102d7576102d661028b565b5b5f6102e4848285016102ae565b91505092915050565b5f81519050919050565b5f82825260208201905092915050565b5f5b83811015610324578082015181840152602081019050610309565b5f8484015250505050565b5f601f19601f8301169050919050565b5f610349826102ed565b61035381856102f7565b9350610363818560208601610307565b61036c8161032f565b840191505092915050565b5f6020820190508181035f83015261038f818461033f565b905092915050565b7f4d61726b2073686f756c64206265206265747765656e203020616e64203130305f82015250565b5f6103cb6020836102f7565b91506103d682610397565b602082019050919050565b5f6020820190508181035f8301526103f8816103bf565b905091905056fea26469706673582212208e4f714e331476a5d9c5f05db42907e616f0ceac9c1575d7d050c456287b364064736f6c63430008180033",
					"opcodes": "PUSH1 0x80 PUSH1 0x40 MSTORE CALLVALUE DUP1 ISZERO PUSH2 0xF JUMPI PUSH0 DUP1 REVERT JUMPDEST POP PUSH2 0x435 DUP1 PUSH2 0x1D PUSH0 CODECOPY PUSH0 RETURN INVALID PUSH1 0x80 PUSH1 0x40 MSTORE CALLVALUE DUP1 ISZERO PUSH2 0xF JUMPI PUSH0 DUP1 REVERT JUMPDEST POP PUSH1 0x4 CALLDATASIZE LT PUSH2 0x29 JUMPI PUSH0 CALLDATALOAD PUSH1 0xE0 SHR DUP1 PUSH4 0x654B5DEF EQ PUSH2 0x2D JUMPI JUMPDEST PUSH0 DUP1 REVERT JUMPDEST PUSH2 0x47 PUSH1 0x4 DUP1 CALLDATASIZE SUB DUP2 ADD SWAP1 PUSH2 0x42 SWAP2 SWAP1 PUSH2 0x2C2 JUMP JUMPDEST PUSH2 0x5D JUMP JUMPDEST PUSH1 0x40 MLOAD PUSH2 0x54 SWAP2 SWAP1 PUSH2 0x377 JUMP JUMPDEST PUSH1 0x40 MLOAD DUP1 SWAP2 SUB SWAP1 RETURN JUMPDEST PUSH1 0x60 DUP1 PUSH1 0x64 DUP4 SGT ISZERO DUP1 ISZERO PUSH2 0x71 JUMPI POP PUSH0 DUP4 SLT ISZERO JUMPDEST PUSH2 0xB0 JUMPI PUSH1 0x40 MLOAD PUSH32 0x8C379A000000000000000000000000000000000000000000000000000000000 DUP2 MSTORE PUSH1 0x4 ADD PUSH2 0xA7 SWAP1 PUSH2 0x3E1 JUMP JUMPDEST PUSH1 0x40 MLOAD DUP1 SWAP2 SUB SWAP1 REVERT JUMPDEST PUSH1 0x21 DUP4 SGT ISZERO PUSH2 0x249 JUMPI PUSH1 0x64 DUP4 SGT ISZERO DUP1 ISZERO PUSH2 0xCA JUMPI POP PUSH1 0x55 DUP4 SGT JUMPDEST ISZERO PUSH2 0x108 JUMPI PUSH1 0x40 MLOAD DUP1 PUSH1 0x40 ADD PUSH1 0x40 MSTORE DUP1 PUSH1 0x1 DUP2 MSTORE PUSH1 0x20 ADD PUSH32 0x4100000000000000000000000000000000000000000000000000000000000000 DUP2 MSTORE POP SWAP1 POP JUMPDEST PUSH1 0x55 DUP4 SGT ISZERO DUP1 ISZERO PUSH2 0x119 JUMPI POP PUSH1 0x46 DUP4 SGT JUMPDEST ISZERO PUSH2 0x157 JUMPI PUSH1 0x40 MLOAD DUP1 PUSH1 0x40 ADD PUSH1 0x40 MSTORE DUP1 PUSH1 0x1 DUP2 MSTORE PUSH1 0x20 ADD PUSH32 0x4200000000000000000000000000000000000000000000000000000000000000 DUP2 MSTORE POP SWAP1 POP JUMPDEST PUSH1 0x46 DUP4 SGT ISZERO DUP1 ISZERO PUSH2 0x168 JUMPI POP PUSH1 0x37 DUP4 SGT JUMPDEST ISZERO PUSH2 0x1A6 JUMPI PUSH1 0x40 MLOAD DUP1 PUSH1 0x40 ADD PUSH1 0x40 MSTORE DUP1 PUSH1 0x1 DUP2 MSTORE PUSH1 0x20 ADD PUSH32 0x4300000000000000000000000000000000000000000000000000000000000000 DUP2 MSTORE POP SWAP1 POP JUMPDEST PUSH1 0x37 DUP4 SGT ISZERO DUP1 ISZERO PUSH2 0x1B7 JUMPI POP PUSH1 0x28 DUP4 SGT JUMPDEST ISZERO PUSH2 0x1F5 JUMPI PUSH1 0x40 MLOAD DUP1 PUSH1 0x40 ADD PUSH1 0x40 MSTORE DUP1 PUSH1 0x1 DUP2 MSTORE PUSH1 0x20 ADD PUSH32 0x4400000000000000000000000000000000000000000000000000000000000000 DUP2 MSTORE POP SWAP1 POP JUMPDEST PUSH1 0x28 DUP4 SGT ISZERO DUP1 ISZERO PUSH2 0x206 JUMPI POP PUSH1 0x21 DUP4 SGT JUMPDEST ISZERO PUSH2 0x244 JUMPI PUSH1 0x40 MLOAD DUP1 PUSH1 0x40 ADD PUSH1 0x40 MSTORE DUP1 PUSH1 0x1 DUP2 MSTORE PUSH1 0x20 ADD PUSH32 0x4500000000000000000000000000000000000000000000000000000000000000 DUP2 MSTORE POP SWAP1 POP JUMPDEST PUSH2 0x282 JUMP JUMPDEST PUSH1 0x40 MLOAD DUP1 PUSH1 0x40 ADD PUSH1 0x40 MSTORE DUP1 PUSH1 0x4 DUP2 MSTORE PUSH1 0x20 ADD PUSH32 0x4661696C00000000000000000000000000000000000000000000000000000000 DUP2 MSTORE POP SWAP1 POP JUMPDEST DUP1 SWAP2 POP POP SWAP2 SWAP1 POP JUMP JUMPDEST PUSH0 DUP1 REVERT JUMPDEST PUSH0 DUP2 SWAP1 POP SWAP2 SWAP1 POP JUMP JUMPDEST PUSH2 0x2A1 DUP2 PUSH2 0x28F JUMP JUMPDEST DUP2 EQ PUSH2 0x2AB JUMPI PUSH0 DUP1 REVERT JUMPDEST POP JUMP JUMPDEST PUSH0 DUP2 CALLDATALOAD SWAP1 POP PUSH2 0x2BC DUP2 PUSH2 0x298 JUMP JUMPDEST SWAP3 SWAP2 POP POP JUMP JUMPDEST PUSH0 PUSH1 0x20 DUP3 DUP5 SUB SLT ISZERO PUSH2 0x2D7 JUMPI PUSH2 0x2D6 PUSH2 0x28B JUMP JUMPDEST JUMPDEST PUSH0 PUSH2 0x2E4 DUP5 DUP3 DUP6 ADD PUSH2 0x2AE JUMP JUMPDEST SWAP2 POP POP SWAP3 SWAP2 POP POP JUMP JUMPDEST PUSH0 DUP2 MLOAD SWAP1 POP SWAP2 SWAP1 POP JUMP JUMPDEST PUSH0 DUP3 DUP3 MSTORE PUSH1 0x20 DUP3 ADD SWAP1 POP SWAP3 SWAP2 POP POP JUMP JUMPDEST PUSH0 JUMPDEST DUP4 DUP2 LT ISZERO PUSH2 0x324 JUMPI DUP1 DUP3 ADD MLOAD DUP2 DUP5 ADD MSTORE PUSH1 0x20 DUP2 ADD SWAP1 POP PUSH2 0x309 JUMP JUMPDEST PUSH0 DUP5 DUP5 ADD MSTORE POP POP POP POP JUMP JUMPDEST PUSH0 PUSH1 0x1F NOT PUSH1 0x1F DUP4 ADD AND SWAP1 POP SWAP2 SWAP1 POP JUMP JUMPDEST PUSH0 PUSH2 0x349 DUP3 PUSH2 0x2ED JUMP JUMPDEST PUSH2 0x353 DUP2 DUP6 PUSH2 0x2F7 JUMP JUMPDEST SWAP4 POP PUSH2 0x363 DUP2 DUP6 PUSH1 0x20 DUP7 ADD PUSH2 0x307 JUMP JUMPDEST PUSH2 0x36C DUP2 PUSH2 0x32F JUMP JUMPDEST DUP5 ADD SWAP2 POP POP SWAP3 SWAP2 POP POP JUMP JUMPDEST PUSH0 PUSH1 0x20 DUP3 ADD SWAP1 POP DUP2 DUP2 SUB PUSH0 DUP4 ADD MSTORE PUSH2 0x38F DUP2 DUP5 PUSH2 0x33F JUMP JUMPDEST SWAP1 POP SWAP3 SWAP2 POP POP JUMP JUMPDEST PUSH32 0x4D61726B2073686F756C64206265206265747765656E203020616E6420313030 PUSH0 DUP3 ADD MSTORE POP JUMP JUMPDEST PUSH0 PUSH2 0x3CB PUSH1 0x20 DUP4 PUSH2 0x2F7 JUMP JUMPDEST SWAP2 POP PUSH2 0x3D6 DUP3 PUSH2 0x397 JUMP JUMPDEST PUSH1 0x20 DUP3 ADD SWAP1 POP SWAP2 SWAP1 POP JUMP JUMPDEST PUSH0 PUSH1 0x20 DUP3 ADD SWAP1 POP DUP2 DUP2 SUB PUSH0 DUP4 ADD MSTORE PUSH2 0x3F8 DUP2 PUSH2 0x3BF JUMP JUMPDEST SWAP1 POP SWAP2 SWAP1 POP JUMP INVALID LOG2 PUSH5 0x6970667358 0x22 SLT KECCAK256 DUP15 0x4F PUSH18 0x4E331476A5D9C5F05DB42907E616F0CEAC9C ISZERO PUSH22 0xD7D050C456287B364064736F6C634300081800330000 "
				},
				"gasEstimates": {
					"creation": {
						"codeDepositCost": "215400",
						"executionCost": "255",
						"totalCost": "215655"
					},
					"external": {
						"getGrade(int256)": "infinite"
					}
				},
				"methodIdentifiers": {
					"getGrade(int256)": "654b5def"
				}
			},
			"storageLayout": {
				"storage": [],
				"types": null
			},
			"userdoc": {
				"kind": "user",
				"methods": {},
				"version": 1
			}
		}
	}
}