{
	"data": {
		"bytecode": {
			"linkReferences": {},
			"object": "608060405234801561000f575f80fd5b506104a88061001d5f395ff3fe608060405234801561000f575f80fd5b506004361061004a575f3560e01c806309b7cdda1461004e578063c2d85baf1461007e578063d3526471146100ae578063ed169e39146100de575b5f80fd5b610068600480360381019061006391906101db565b61010e565b6040516100759190610228565b60405180910390f35b610098600480360381019061009391906101db565b610165565b6040516100a59190610228565b60405180910390f35b6100c860048036038101906100c391906101db565b61017a565b6040516100d59190610228565b60405180910390f35b6100f860048036038101906100f391906101db565b61018f565b6040516101059190610228565b60405180910390f35b5f808203610151576040517f08c379a00000000000000000000000000000000000000000000000000000000081526004016101489061029b565b60405180910390fd5b818361015d9190610313565b905092915050565b5f8183610172919061037b565b905092915050565b5f818361018791906103bc565b905092915050565b5f818361019c9190610432565b905092915050565b5f80fd5b5f819050919050565b6101ba816101a8565b81146101c4575f80fd5b50565b5f813590506101d5816101b1565b92915050565b5f80604083850312156101f1576101f06101a4565b5b5f6101fe858286016101c7565b925050602061020f858286016101c7565b9150509250929050565b610222816101a8565b82525050565b5f60208201905061023b5f830184610219565b92915050565b5f82825260208201905092915050565b7f4469766973696f6e206279207a65726f206973206e6f7420616c6c6f776564005f82015250565b5f610285601f83610241565b915061029082610251565b602082019050919050565b5f6020820190508181035f8301526102b281610279565b9050919050565b7f4e487b71000000000000000000000000000000000000000000000000000000005f52601260045260245ffd5b7f4e487b71000000000000000000000000000000000000000000000000000000005f52601160045260245ffd5b5f61031d826101a8565b9150610328836101a8565b925082610338576103376102b9565b5b60015f0383147f8000000000000000000000000000000000000000000000000000000000000000831416156103705761036f6102e6565b5b828205905092915050565b5f610385826101a8565b9150610390836101a8565b92508282019050828112155f8312168382125f8412151617156103b6576103b56102e6565b5b92915050565b5f6103c6826101a8565b91506103d1836101a8565b92508282026103df816101a8565b91507f800000000000000000000000000000000000000000000000000000000000000084145f84121615610416576104156102e6565b5b828205841483151761042b5761042a6102e6565b5b5092915050565b5f61043c826101a8565b9150610447836101a8565b925082820390508181125f8412168282135f85121516171561046c5761046b6102e6565b5b9291505056fea2646970667358221220f81510c7ca163f8492384b4d2b369381f1d35a58634d44e27f61d566256d6cc164736f6c63430008140033",
			"opcodes": "PUSH1 0x80 PUSH1 0x40 MSTORE CALLVALUE DUP1 ISZERO PUSH2 0xF JUMPI PUSH0 DUP1 REVERT JUMPDEST POP PUSH2 0x4A8 DUP1 PUSH2 0x1D PUSH0 CODECOPY PUSH0 RETURN INVALID PUSH1 0x80 PUSH1 0x40 MSTORE CALLVALUE DUP1 ISZERO PUSH2 0xF JUMPI PUSH0 DUP1 REVERT JUMPDEST POP PUSH1 0x4 CALLDATASIZE LT PUSH2 0x4A JUMPI PUSH0 CALLDATALOAD PUSH1 0xE0 SHR DUP1 PUSH4 0x9B7CDDA EQ PUSH2 0x4E JUMPI DUP1 PUSH4 0xC2D85BAF EQ PUSH2 0x7E JUMPI DUP1 PUSH4 0xD3526471 EQ PUSH2 0xAE JUMPI DUP1 PUSH4 0xED169E39 EQ PUSH2 0xDE JUMPI JUMPDEST PUSH0 DUP1 REVERT JUMPDEST PUSH2 0x68 PUSH1 0x4 DUP1 CALLDATASIZE SUB DUP2 ADD SWAP1 PUSH2 0x63 SWAP2 SWAP1 PUSH2 0x1DB JUMP JUMPDEST PUSH2 0x10E JUMP JUMPDEST PUSH1 0x40 MLOAD PUSH2 0x75 SWAP2 SWAP1 PUSH2 0x228 JUMP JUMPDEST PUSH1 0x40 MLOAD DUP1 SWAP2 SUB SWAP1 RETURN JUMPDEST PUSH2 0x98 PUSH1 0x4 DUP1 CALLDATASIZE SUB DUP2 ADD SWAP1 PUSH2 0x93 SWAP2 SWAP1 PUSH2 0x1DB JUMP JUMPDEST PUSH2 0x165 JUMP JUMPDEST PUSH1 0x40 MLOAD PUSH2 0xA5 SWAP2 SWAP1 PUSH2 0x228 JUMP JUMPDEST PUSH1 0x40 MLOAD DUP1 SWAP2 SUB SWAP1 RETURN JUMPDEST PUSH2 0xC8 PUSH1 0x4 DUP1 CALLDATASIZE SUB DUP2 ADD SWAP1 PUSH2 0xC3 SWAP2 SWAP1 PUSH2 0x1DB JUMP JUMPDEST PUSH2 0x17A JUMP JUMPDEST PUSH1 0x40 MLOAD PUSH2 0xD5 SWAP2 SWAP1 PUSH2 0x228 JUMP JUMPDEST PUSH1 0x40 MLOAD DUP1 SWAP2 SUB SWAP1 RETURN JUMPDEST PUSH2 0xF8 PUSH1 0x4 DUP1 CALLDATASIZE SUB DUP2 ADD SWAP1 PUSH2 0xF3 SWAP2 SWAP1 PUSH2 0x1DB JUMP JUMPDEST PUSH2 0x18F JUMP JUMPDEST PUSH1 0x40 MLOAD PUSH2 0x105 SWAP2 SWAP1 PUSH2 0x228 JUMP JUMPDEST PUSH1 0x40 MLOAD DUP1 SWAP2 SUB SWAP1 RETURN JUMPDEST PUSH0 DUP1 DUP3 SUB PUSH2 0x151 JUMPI PUSH1 0x40 MLOAD PUSH32 0x8C379A000000000000000000000000000000000000000000000000000000000 DUP2 MSTORE PUSH1 0x4 ADD PUSH2 0x148 SWAP1 PUSH2 0x29B JUMP JUMPDEST PUSH1 0x40 MLOAD DUP1 SWAP2 SUB SWAP1 REVERT JUMPDEST DUP2 DUP4 PUSH2 0x15D SWAP2 SWAP1 PUSH2 0x313 JUMP JUMPDEST SWAP1 POP SWAP3 SWAP2 POP POP JUMP JUMPDEST PUSH0 DUP2 DUP4 PUSH2 0x172 SWAP2 SWAP1 PUSH2 0x37B JUMP JUMPDEST SWAP1 POP SWAP3 SWAP2 POP POP JUMP JUMPDEST PUSH0 DUP2 DUP4 PUSH2 0x187 SWAP2 SWAP1 PUSH2 0x3BC JUMP JUMPDEST SWAP1 POP SWAP3 SWAP2 POP POP JUMP JUMPDEST PUSH0 DUP2 DUP4 PUSH2 0x19C SWAP2 SWAP1 PUSH2 0x432 JUMP JUMPDEST SWAP1 POP SWAP3 SWAP2 POP POP JUMP JUMPDEST PUSH0 DUP1 REVERT JUMPDEST PUSH0 DUP2 SWAP1 POP SWAP2 SWAP1 POP JUMP JUMPDEST PUSH2 0x1BA DUP2 PUSH2 0x1A8 JUMP JUMPDEST DUP2 EQ PUSH2 0x1C4 JUMPI PUSH0 DUP1 REVERT JUMPDEST POP JUMP JUMPDEST PUSH0 DUP2 CALLDATALOAD SWAP1 POP PUSH2 0x1D5 DUP2 PUSH2 0x1B1 JUMP JUMPDEST SWAP3 SWAP2 POP POP JUMP JUMPDEST PUSH0 DUP1 PUSH1 0x40 DUP4 DUP6 SUB SLT ISZERO PUSH2 0x1F1 JUMPI PUSH2 0x1F0 PUSH2 0x1A4 JUMP JUMPDEST JUMPDEST PUSH0 PUSH2 0x1FE DUP6 DUP3 DUP7 ADD PUSH2 0x1C7 JUMP JUMPDEST SWAP3 POP POP PUSH1 0x20 PUSH2 0x20F DUP6 DUP3 DUP7 ADD PUSH2 0x1C7 JUMP JUMPDEST SWAP2 POP POP SWAP3 POP SWAP3 SWAP1 POP JUMP JUMPDEST PUSH2 0x222 DUP2 PUSH2 0x1A8 JUMP JUMPDEST DUP3 MSTORE POP POP JUMP JUMPDEST PUSH0 PUSH1 0x20 DUP3 ADD SWAP1 POP PUSH2 0x23B PUSH0 DUP4 ADD DUP5 PUSH2 0x219 JUMP JUMPDEST SWAP3 SWAP2 POP POP JUMP JUMPDEST PUSH0 DUP3 DUP3 MSTORE PUSH1 0x20 DUP3 ADD SWAP1 POP SWAP3 SWAP2 POP POP JUMP JUMPDEST PUSH32 0x4469766973696F6E206279207A65726F206973206E6F7420616C6C6F77656400 PUSH0 DUP3 ADD MSTORE POP JUMP JUMPDEST PUSH0 PUSH2 0x285 PUSH1 0x1F DUP4 PUSH2 0x241 JUMP JUMPDEST SWAP2 POP PUSH2 0x290 DUP3 PUSH2 0x251 JUMP JUMPDEST PUSH1 0x20 DUP3 ADD SWAP1 POP SWAP2 SWAP1 POP JUMP JUMPDEST PUSH0 PUSH1 0x20 DUP3 ADD SWAP1 POP DUP2 DUP2 SUB PUSH0 DUP4 ADD MSTORE PUSH2 0x2B2 DUP2 PUSH2 0x279 JUMP JUMPDEST SWAP1 POP SWAP2 SWAP1 POP JUMP JUMPDEST PUSH32 0x4E487B7100000000000000000000000000000000000000000000000000000000 PUSH0 MSTORE PUSH1 0x12 PUSH1 0x4 MSTORE PUSH1 0x24 PUSH0 REVERT JUMPDEST PUSH32 0x4E487B7100000000000000000000000000000000000000000000000000000000 PUSH0 MSTORE PUSH1 0x11 PUSH1 0x4 MSTORE PUSH1 0x24 PUSH0 REVERT JUMPDEST PUSH0 PUSH2 0x31D DUP3 PUSH2 0x1A8 JUMP JUMPDEST SWAP2 POP PUSH2 0x328 DUP4 PUSH2 0x1A8 JUMP JUMPDEST SWAP3 POP DUP3 PUSH2 0x338 JUMPI PUSH2 0x337 PUSH2 0x2B9 JUMP JUMPDEST JUMPDEST PUSH1 0x1 PUSH0 SUB DUP4 EQ PUSH32 0x8000000000000000000000000000000000000000000000000000000000000000 DUP4 EQ AND ISZERO PUSH2 0x370 JUMPI PUSH2 0x36F PUSH2 0x2E6 JUMP JUMPDEST JUMPDEST DUP3 DUP3 SDIV SWAP1 POP SWAP3 SWAP2 POP POP JUMP JUMPDEST PUSH0 PUSH2 0x385 DUP3 PUSH2 0x1A8 JUMP JUMPDEST SWAP2 POP PUSH2 0x390 DUP4 PUSH2 0x1A8 JUMP JUMPDEST SWAP3 POP DUP3 DUP3 ADD SWAP1 POP DUP3 DUP2 SLT ISZERO PUSH0 DUP4 SLT AND DUP4 DUP3 SLT PUSH0 DUP5 SLT ISZERO AND OR ISZERO PUSH2 0x3B6 JUMPI PUSH2 0x3B5 PUSH2 0x2E6 JUMP JUMPDEST JUMPDEST SWAP3 SWAP2 POP POP JUMP JUMPDEST PUSH0 PUSH2 0x3C6 DUP3 PUSH2 0x1A8 JUMP JUMPDEST SWAP2 POP PUSH2 0x3D1 DUP4 PUSH2 0x1A8 JUMP JUMPDEST SWAP3 POP DUP3 DUP3 MUL PUSH2 0x3DF DUP2 PUSH2 0x1A8 JUMP JUMPDEST SWAP2 POP PUSH32 0x8000000000000000000000000000000000000000000000000000000000000000 DUP5 EQ PUSH0 DUP5 SLT AND ISZERO PUSH2 0x416 JUMPI PUSH2 0x415 PUSH2 0x2E6 JUMP JUMPDEST JUMPDEST DUP3 DUP3 SDIV DUP5 EQ DUP4 ISZERO OR PUSH2 0x42B JUMPI PUSH2 0x42A PUSH2 0x2E6 JUMP JUMPDEST JUMPDEST POP SWAP3 SWAP2 POP POP JUMP JUMPDEST PUSH0 PUSH2 0x43C DUP3 PUSH2 0x1A8 JUMP JUMPDEST SWAP2 POP PUSH2 0x447 DUP4 PUSH2 0x1A8 JUMP JUMPDEST SWAP3 POP DUP3 DUP3 SUB SWAP1 POP DUP2 DUP2 SLT PUSH0 DUP5 SLT AND DUP3 DUP3 SGT PUSH0 DUP6 SLT ISZERO AND OR ISZERO PUSH2 0x46C JUMPI PUSH2 0x46B PUSH2 0x2E6 JUMP JUMPDEST JUMPDEST SWAP3 SWAP2 POP POP JUMP INVALID LOG2 PUSH5 0x6970667358 0x22 SLT KECCAK256 0xF8 ISZERO LT 0xC7 0xCA AND EXTCODEHASH DUP5 SWAP3 CODESIZE 0x4B 0x4D 0x2B CALLDATASIZE SWAP4 DUP2 CALL 0xD3 GAS PC PUSH4 0x4D44E27F PUSH2 0xD566 0x25 PUSH14 0x6CC164736F6C6343000814003300 "
		},
		"gasEstimates": {
			"creation": {
				"codeDepositCost": "238400",
				"executionCost": "279",
				"totalCost": "238679"
			},
			"external": {
				"addition(int256,int256)": "infinite",
				"division(int256,int256)": "infinite",
				"mutilple(int256,int256)": "infinite",
				"subtarction(int256,int256)": "infinite"
			}
		},
		"methodIdentifiers": {
			"addition(int256,int256)": "c2d85baf",
			"division(int256,int256)": "09b7cdda",
			"mutilple(int256,int256)": "d3526471",
			"subtarction(int256,int256)": "ed169e39"
		}
	},
	"abi": [
		{
			"inputs": [
				{
					"internalType": "int256",
					"name": "a",
					"type": "int256"
				},
				{
					"internalType": "int256",
					"name": "b",
					"type": "int256"
				}
			],
			"name": "addition",
			"outputs": [
				{
					"internalType": "int256",
					"name": "",
					"type": "int256"
				}
			],
			"stateMutability": "pure",
			"type": "function"
		},
		{
			"inputs": [
				{
					"internalType": "int256",
					"name": "a",
					"type": "int256"
				},
				{
					"internalType": "int256",
					"name": "b",
					"type": "int256"
				}
			],
			"name": "division",
			"outputs": [
				{
					"internalType": "int256",
					"name": "",
					"type": "int256"
				}
			],
			"stateMutability": "pure",
			"type": "function"
		},
		{
			"inputs": [
				{
					"internalType": "int256",
					"name": "a",
					"type": "int256"
				},
				{
					"internalType": "int256",
					"name": "b",
					"type": "int256"
				}
			],
			"name": "mutilple",
			"outputs": [
				{
					"internalType": "int256",
					"name": "",
					"type": "int256"
				}
			],
			"stateMutability": "pure",
			"type": "function"
		},
		{
			"inputs": [
				{
					"internalType": "int256",
					"name": "a",
					"type": "int256"
				},
				{
					"internalType": "int256",
					"name": "b",
					"type": "int256"
				}
			],
			"name": "subtarction",
			"outputs": [
				{
					"internalType": "int256",
					"name": "",
					"type": "int256"
				}
			],
			"stateMutability": "pure",
			"type": "function"
		}
	]
}