{
	"data": {
		"bytecode": {
			"linkReferences": {},
			"object": "60806040526040518060600160405280606461ffff16815260200160c861ffff16815260200161012c61ffff168152505f90600361003e929190610050565b5034801561004a575f80fd5b506100b1565b8260038101928215610085579160200282015b82811115610084578251829061ffff16905591602001919060010190610063565b5b5090506100929190610096565b5090565b5b808211156100ad575f815f905550600101610097565b5090565b6108a0806100be5f395ff3fe608060405234801561000f575f80fd5b506004361061009c575f3560e01c806389945c381161006457806389945c3814610156578063bbb755ca14610172578063d504ea1d1461018e578063f15f7369146101ac578063ff7fc0d6146101b65761009c565b8063173a70dd146100a05780631de5fe09146100bc57806329774d87146100ec5780635c56eef71461010857806365a5eb7514610138575b5f80fd5b6100ba60048036038101906100b59190610457565b6101d2565b005b6100d660048036038101906100d19190610495565b6101ef565b6040516100e391906104cf565b60405180910390f35b61010660048036038101906101019190610495565b610207565b005b610122600480360381019061011d9190610495565b610224565b60405161012f91906104cf565b60405180910390f35b610140610244565b60405161014d919061059f565b60405180910390f35b610170600480360381019061016b9190610495565b61029a565b005b61018c600480360381019061018791906105bf565b6102c3565b005b610196610315565b6040516101a3919061068e565b60405180910390f35b6101b461035f565b005b6101d060048036038101906101cb91906107e5565b610386565b005b805f83600381106101e6576101e5610810565b5b01819055505050565b5f81600381106101fd575f80fd5b015f915090505481565b805f60026003811061021c5761021b610810565b5b018190555050565b60038181548110610233575f80fd5b905f5260205f20015f915090505481565b6060600380548060200260200160405190810160405280929190818152602001828054801561029057602002820191905f5260205f20905b81548152602001906001019080831161027c575b5050505050905090565b600381908060018154018082558091505060019003905f5260205f20015f909190919091505550565b825f80600381106102d7576102d6610810565b5b0181905550815f6001600381106102f1576102f0610810565b5b0181905550805f60026003811061030b5761030a610810565b5b0181905550505050565b61031d61039a565b5f600380602002604051908101604052809291908260038015610355576020028201915b815481526020019060010190808311610341575b5050505050905090565b60038054806103715761037061083d565b5b600190038181905f5260205f20015f90559055565b805f9060036103969291906103bc565b5050565b6040518060600160405280600390602082028036833780820191505090505090565b82600381019282156103eb579160200282015b828111156103ea5782518255916020019190600101906103cf565b5b5090506103f891906103fc565b5090565b5b80821115610413575f815f9055506001016103fd565b5090565b5f604051905090565b5f80fd5b5f819050919050565b61043681610424565b8114610440575f80fd5b50565b5f813590506104518161042d565b92915050565b5f806040838503121561046d5761046c610420565b5b5f61047a85828601610443565b925050602061048b85828601610443565b9150509250929050565b5f602082840312156104aa576104a9610420565b5b5f6104b784828501610443565b91505092915050565b6104c981610424565b82525050565b5f6020820190506104e25f8301846104c0565b92915050565b5f81519050919050565b5f82825260208201905092915050565b5f819050602082019050919050565b61051a81610424565b82525050565b5f61052b8383610511565b60208301905092915050565b5f602082019050919050565b5f61054d826104e8565b61055781856104f2565b935061056283610502565b805f5b838110156105925781516105798882610520565b975061058483610537565b925050600181019050610565565b5085935050505092915050565b5f6020820190508181035f8301526105b78184610543565b905092915050565b5f805f606084860312156105d6576105d5610420565b5b5f6105e386828701610443565b93505060206105f486828701610443565b925050604061060586828701610443565b9150509250925092565b5f60039050919050565b5f81905092915050565b5f819050919050565b5f602082019050919050565b6106418161060f565b61064b8184610619565b925061065682610623565b805f5b8381101561068657815161066d8782610520565b96506106788361062c565b925050600181019050610659565b505050505050565b5f6060820190506106a15f830184610638565b92915050565b5f80fd5b5f601f19601f8301169050919050565b7f4e487b71000000000000000000000000000000000000000000000000000000005f52604160045260245ffd5b6106f1826106ab565b810181811067ffffffffffffffff821117156107105761070f6106bb565b5b80604052505050565b5f610722610417565b905061072e82826106e8565b919050565b5f67ffffffffffffffff82111561074d5761074c6106bb565b5b602082029050919050565b5f80fd5b5f61076e61076984610733565b610719565b9050806020840283018581111561078857610787610758565b5b835b818110156107b1578061079d8882610443565b84526020840193505060208101905061078a565b5050509392505050565b5f82601f8301126107cf576107ce6106a7565b5b60036107dc84828561075c565b91505092915050565b5f606082840312156107fa576107f9610420565b5b5f610807848285016107bb565b91505092915050565b7f4e487b71000000000000000000000000000000000000000000000000000000005f52603260045260245ffd5b7f4e487b71000000000000000000000000000000000000000000000000000000005f52603160045260245ffdfea2646970667358221220ae83510ee4622b66b24216b4494cb552d04ab30849b69d71b921c84091fa765e64736f6c63430008180033",
			"opcodes": "PUSH1 0x80 PUSH1 0x40 MSTORE PUSH1 0x40 MLOAD DUP1 PUSH1 0x60 ADD PUSH1 0x40 MSTORE DUP1 PUSH1 0x64 PUSH2 0xFFFF AND DUP2 MSTORE PUSH1 0x20 ADD PUSH1 0xC8 PUSH2 0xFFFF AND DUP2 MSTORE PUSH1 0x20 ADD PUSH2 0x12C PUSH2 0xFFFF AND DUP2 MSTORE POP PUSH0 SWAP1 PUSH1 0x3 PUSH2 0x3E SWAP3 SWAP2 SWAP1 PUSH2 0x50 JUMP JUMPDEST POP CALLVALUE DUP1 ISZERO PUSH2 0x4A JUMPI PUSH0 DUP1 REVERT JUMPDEST POP PUSH2 0xB1 JUMP JUMPDEST DUP3 PUSH1 0x3 DUP2 ADD SWAP3 DUP3 ISZERO PUSH2 0x85 JUMPI SWAP2 PUSH1 0x20 MUL DUP3 ADD JUMPDEST DUP3 DUP2 GT ISZERO PUSH2 0x84 JUMPI DUP3 MLOAD DUP3 SWAP1 PUSH2 0xFFFF AND SWAP1 SSTORE SWAP2 PUSH1 0x20 ADD SWAP2 SWAP1 PUSH1 0x1 ADD SWAP1 PUSH2 0x63 JUMP JUMPDEST JUMPDEST POP SWAP1 POP PUSH2 0x92 SWAP2 SWAP1 PUSH2 0x96 JUMP JUMPDEST POP SWAP1 JUMP JUMPDEST JUMPDEST DUP1 DUP3 GT ISZERO PUSH2 0xAD JUMPI PUSH0 DUP2 PUSH0 SWAP1 SSTORE POP PUSH1 0x1 ADD PUSH2 0x97 JUMP JUMPDEST POP SWAP1 JUMP JUMPDEST PUSH2 0x8A0 DUP1 PUSH2 0xBE PUSH0 CODECOPY PUSH0 RETURN INVALID PUSH1 0x80 PUSH1 0x40 MSTORE CALLVALUE DUP1 ISZERO PUSH2 0xF JUMPI PUSH0 DUP1 REVERT JUMPDEST POP PUSH1 0x4 CALLDATASIZE LT PUSH2 0x9C JUMPI PUSH0 CALLDATALOAD PUSH1 0xE0 SHR DUP1 PUSH4 0x89945C38 GT PUSH2 0x64 JUMPI DUP1 PUSH4 0x89945C38 EQ PUSH2 0x156 JUMPI DUP1 PUSH4 0xBBB755CA EQ PUSH2 0x172 JUMPI DUP1 PUSH4 0xD504EA1D EQ PUSH2 0x18E JUMPI DUP1 PUSH4 0xF15F7369 EQ PUSH2 0x1AC JUMPI DUP1 PUSH4 0xFF7FC0D6 EQ PUSH2 0x1B6 JUMPI PUSH2 0x9C JUMP JUMPDEST DUP1 PUSH4 0x173A70DD EQ PUSH2 0xA0 JUMPI DUP1 PUSH4 0x1DE5FE09 EQ PUSH2 0xBC JUMPI DUP1 PUSH4 0x29774D87 EQ PUSH2 0xEC JUMPI DUP1 PUSH4 0x5C56EEF7 EQ PUSH2 0x108 JUMPI DUP1 PUSH4 0x65A5EB75 EQ PUSH2 0x138 JUMPI JUMPDEST PUSH0 DUP1 REVERT JUMPDEST PUSH2 0xBA PUSH1 0x4 DUP1 CALLDATASIZE SUB DUP2 ADD SWAP1 PUSH2 0xB5 SWAP2 SWAP1 PUSH2 0x457 JUMP JUMPDEST PUSH2 0x1D2 JUMP JUMPDEST STOP JUMPDEST PUSH2 0xD6 PUSH1 0x4 DUP1 CALLDATASIZE SUB DUP2 ADD SWAP1 PUSH2 0xD1 SWAP2 SWAP1 PUSH2 0x495 JUMP JUMPDEST PUSH2 0x1EF JUMP JUMPDEST PUSH1 0x40 MLOAD PUSH2 0xE3 SWAP2 SWAP1 PUSH2 0x4CF JUMP JUMPDEST PUSH1 0x40 MLOAD DUP1 SWAP2 SUB SWAP1 RETURN JUMPDEST PUSH2 0x106 PUSH1 0x4 DUP1 CALLDATASIZE SUB DUP2 ADD SWAP1 PUSH2 0x101 SWAP2 SWAP1 PUSH2 0x495 JUMP JUMPDEST PUSH2 0x207 JUMP JUMPDEST STOP JUMPDEST PUSH2 0x122 PUSH1 0x4 DUP1 CALLDATASIZE SUB DUP2 ADD SWAP1 PUSH2 0x11D SWAP2 SWAP1 PUSH2 0x495 JUMP JUMPDEST PUSH2 0x224 JUMP JUMPDEST PUSH1 0x40 MLOAD PUSH2 0x12F SWAP2 SWAP1 PUSH2 0x4CF JUMP JUMPDEST PUSH1 0x40 MLOAD DUP1 SWAP2 SUB SWAP1 RETURN JUMPDEST PUSH2 0x140 PUSH2 0x244 JUMP JUMPDEST PUSH1 0x40 MLOAD PUSH2 0x14D SWAP2 SWAP1 PUSH2 0x59F JUMP JUMPDEST PUSH1 0x40 MLOAD DUP1 SWAP2 SUB SWAP1 RETURN JUMPDEST PUSH2 0x170 PUSH1 0x4 DUP1 CALLDATASIZE SUB DUP2 ADD SWAP1 PUSH2 0x16B SWAP2 SWAP1 PUSH2 0x495 JUMP JUMPDEST PUSH2 0x29A JUMP JUMPDEST STOP JUMPDEST PUSH2 0x18C PUSH1 0x4 DUP1 CALLDATASIZE SUB DUP2 ADD SWAP1 PUSH2 0x187 SWAP2 SWAP1 PUSH2 0x5BF JUMP JUMPDEST PUSH2 0x2C3 JUMP JUMPDEST STOP JUMPDEST PUSH2 0x196 PUSH2 0x315 JUMP JUMPDEST PUSH1 0x40 MLOAD PUSH2 0x1A3 SWAP2 SWAP1 PUSH2 0x68E JUMP JUMPDEST PUSH1 0x40 MLOAD DUP1 SWAP2 SUB SWAP1 RETURN JUMPDEST PUSH2 0x1B4 PUSH2 0x35F JUMP JUMPDEST STOP JUMPDEST PUSH2 0x1D0 PUSH1 0x4 DUP1 CALLDATASIZE SUB DUP2 ADD SWAP1 PUSH2 0x1CB SWAP2 SWAP1 PUSH2 0x7E5 JUMP JUMPDEST PUSH2 0x386 JUMP JUMPDEST STOP JUMPDEST DUP1 PUSH0 DUP4 PUSH1 0x3 DUP2 LT PUSH2 0x1E6 JUMPI PUSH2 0x1E5 PUSH2 0x810 JUMP JUMPDEST JUMPDEST ADD DUP2 SWAP1 SSTORE POP POP POP JUMP JUMPDEST PUSH0 DUP2 PUSH1 0x3 DUP2 LT PUSH2 0x1FD JUMPI PUSH0 DUP1 REVERT JUMPDEST ADD PUSH0 SWAP2 POP SWAP1 POP SLOAD DUP2 JUMP JUMPDEST DUP1 PUSH0 PUSH1 0x2 PUSH1 0x3 DUP2 LT PUSH2 0x21C JUMPI PUSH2 0x21B PUSH2 0x810 JUMP JUMPDEST JUMPDEST ADD DUP2 SWAP1 SSTORE POP POP JUMP JUMPDEST PUSH1 0x3 DUP2 DUP2 SLOAD DUP2 LT PUSH2 0x233 JUMPI PUSH0 DUP1 REVERT JUMPDEST SWAP1 PUSH0 MSTORE PUSH1 0x20 PUSH0 KECCAK256 ADD PUSH0 SWAP2 POP SWAP1 POP SLOAD DUP2 JUMP JUMPDEST PUSH1 0x60 PUSH1 0x3 DUP1 SLOAD DUP1 PUSH1 0x20 MUL PUSH1 0x20 ADD PUSH1 0x40 MLOAD SWAP1 DUP2 ADD PUSH1 0x40 MSTORE DUP1 SWAP3 SWAP2 SWAP1 DUP2 DUP2 MSTORE PUSH1 0x20 ADD DUP3 DUP1 SLOAD DUP1 ISZERO PUSH2 0x290 JUMPI PUSH1 0x20 MUL DUP3 ADD SWAP2 SWAP1 PUSH0 MSTORE PUSH1 0x20 PUSH0 KECCAK256 SWAP1 JUMPDEST DUP2 SLOAD DUP2 MSTORE PUSH1 0x20 ADD SWAP1 PUSH1 0x1 ADD SWAP1 DUP1 DUP4 GT PUSH2 0x27C JUMPI JUMPDEST POP POP POP POP POP SWAP1 POP SWAP1 JUMP JUMPDEST PUSH1 0x3 DUP2 SWAP1 DUP1 PUSH1 0x1 DUP2 SLOAD ADD DUP1 DUP3 SSTORE DUP1 SWAP2 POP POP PUSH1 0x1 SWAP1 SUB SWAP1 PUSH0 MSTORE PUSH1 0x20 PUSH0 KECCAK256 ADD PUSH0 SWAP1 SWAP2 SWAP1 SWAP2 SWAP1 SWAP2 POP SSTORE POP JUMP JUMPDEST DUP3 PUSH0 DUP1 PUSH1 0x3 DUP2 LT PUSH2 0x2D7 JUMPI PUSH2 0x2D6 PUSH2 0x810 JUMP JUMPDEST JUMPDEST ADD DUP2 SWAP1 SSTORE POP DUP2 PUSH0 PUSH1 0x1 PUSH1 0x3 DUP2 LT PUSH2 0x2F1 JUMPI PUSH2 0x2F0 PUSH2 0x810 JUMP JUMPDEST JUMPDEST ADD DUP2 SWAP1 SSTORE POP DUP1 PUSH0 PUSH1 0x2 PUSH1 0x3 DUP2 LT PUSH2 0x30B JUMPI PUSH2 0x30A PUSH2 0x810 JUMP JUMPDEST JUMPDEST ADD DUP2 SWAP1 SSTORE POP POP POP POP JUMP JUMPDEST PUSH2 0x31D PUSH2 0x39A JUMP JUMPDEST PUSH0 PUSH1 0x3 DUP1 PUSH1 0x20 MUL PUSH1 0x40 MLOAD SWAP1 DUP2 ADD PUSH1 0x40 MSTORE DUP1 SWAP3 SWAP2 SWAP1 DUP3 PUSH1 0x3 DUP1 ISZERO PUSH2 0x355 JUMPI PUSH1 0x20 MUL DUP3 ADD SWAP2 JUMPDEST DUP2 SLOAD DUP2 MSTORE PUSH1 0x20 ADD SWAP1 PUSH1 0x1 ADD SWAP1 DUP1 DUP4 GT PUSH2 0x341 JUMPI JUMPDEST POP POP POP POP POP SWAP1 POP SWAP1 JUMP JUMPDEST PUSH1 0x3 DUP1 SLOAD DUP1 PUSH2 0x371 JUMPI PUSH2 0x370 PUSH2 0x83D JUMP JUMPDEST JUMPDEST PUSH1 0x1 SWAP1 SUB DUP2 DUP2 SWAP1 PUSH0 MSTORE PUSH1 0x20 PUSH0 KECCAK256 ADD PUSH0 SWAP1 SSTORE SWAP1 SSTORE JUMP JUMPDEST DUP1 PUSH0 SWAP1 PUSH1 0x3 PUSH2 0x396 SWAP3 SWAP2 SWAP1 PUSH2 0x3BC JUMP JUMPDEST POP POP JUMP JUMPDEST PUSH1 0x40 MLOAD DUP1 PUSH1 0x60 ADD PUSH1 0x40 MSTORE DUP1 PUSH1 0x3 SWAP1 PUSH1 0x20 DUP3 MUL DUP1 CALLDATASIZE DUP4 CALLDATACOPY DUP1 DUP3 ADD SWAP2 POP POP SWAP1 POP POP SWAP1 JUMP JUMPDEST DUP3 PUSH1 0x3 DUP2 ADD SWAP3 DUP3 ISZERO PUSH2 0x3EB JUMPI SWAP2 PUSH1 0x20 MUL DUP3 ADD JUMPDEST DUP3 DUP2 GT ISZERO PUSH2 0x3EA JUMPI DUP3 MLOAD DUP3 SSTORE SWAP2 PUSH1 0x20 ADD SWAP2 SWAP1 PUSH1 0x1 ADD SWAP1 PUSH2 0x3CF JUMP JUMPDEST JUMPDEST POP SWAP1 POP PUSH2 0x3F8 SWAP2 SWAP1 PUSH2 0x3FC JUMP JUMPDEST POP SWAP1 JUMP JUMPDEST JUMPDEST DUP1 DUP3 GT ISZERO PUSH2 0x413 JUMPI PUSH0 DUP2 PUSH0 SWAP1 SSTORE POP PUSH1 0x1 ADD PUSH2 0x3FD JUMP JUMPDEST POP SWAP1 JUMP JUMPDEST PUSH0 PUSH1 0x40 MLOAD SWAP1 POP SWAP1 JUMP JUMPDEST PUSH0 DUP1 REVERT JUMPDEST PUSH0 DUP2 SWAP1 POP SWAP2 SWAP1 POP JUMP JUMPDEST PUSH2 0x436 DUP2 PUSH2 0x424 JUMP JUMPDEST DUP2 EQ PUSH2 0x440 JUMPI PUSH0 DUP1 REVERT JUMPDEST POP JUMP JUMPDEST PUSH0 DUP2 CALLDATALOAD SWAP1 POP PUSH2 0x451 DUP2 PUSH2 0x42D JUMP JUMPDEST SWAP3 SWAP2 POP POP JUMP JUMPDEST PUSH0 DUP1 PUSH1 0x40 DUP4 DUP6 SUB SLT ISZERO PUSH2 0x46D JUMPI PUSH2 0x46C PUSH2 0x420 JUMP JUMPDEST JUMPDEST PUSH0 PUSH2 0x47A DUP6 DUP3 DUP7 ADD PUSH2 0x443 JUMP JUMPDEST SWAP3 POP POP PUSH1 0x20 PUSH2 0x48B DUP6 DUP3 DUP7 ADD PUSH2 0x443 JUMP JUMPDEST SWAP2 POP POP SWAP3 POP SWAP3 SWAP1 POP JUMP JUMPDEST PUSH0 PUSH1 0x20 DUP3 DUP5 SUB SLT ISZERO PUSH2 0x4AA JUMPI PUSH2 0x4A9 PUSH2 0x420 JUMP JUMPDEST JUMPDEST PUSH0 PUSH2 0x4B7 DUP5 DUP3 DUP6 ADD PUSH2 0x443 JUMP JUMPDEST SWAP2 POP POP SWAP3 SWAP2 POP POP JUMP JUMPDEST PUSH2 0x4C9 DUP2 PUSH2 0x424 JUMP JUMPDEST DUP3 MSTORE POP POP JUMP JUMPDEST PUSH0 PUSH1 0x20 DUP3 ADD SWAP1 POP PUSH2 0x4E2 PUSH0 DUP4 ADD DUP5 PUSH2 0x4C0 JUMP JUMPDEST SWAP3 SWAP2 POP POP JUMP JUMPDEST PUSH0 DUP2 MLOAD SWAP1 POP SWAP2 SWAP1 POP JUMP JUMPDEST PUSH0 DUP3 DUP3 MSTORE PUSH1 0x20 DUP3 ADD SWAP1 POP SWAP3 SWAP2 POP POP JUMP JUMPDEST PUSH0 DUP2 SWAP1 POP PUSH1 0x20 DUP3 ADD SWAP1 POP SWAP2 SWAP1 POP JUMP JUMPDEST PUSH2 0x51A DUP2 PUSH2 0x424 JUMP JUMPDEST DUP3 MSTORE POP POP JUMP JUMPDEST PUSH0 PUSH2 0x52B DUP4 DUP4 PUSH2 0x511 JUMP JUMPDEST PUSH1 0x20 DUP4 ADD SWAP1 POP SWAP3 SWAP2 POP POP JUMP JUMPDEST PUSH0 PUSH1 0x20 DUP3 ADD SWAP1 POP SWAP2 SWAP1 POP JUMP JUMPDEST PUSH0 PUSH2 0x54D DUP3 PUSH2 0x4E8 JUMP JUMPDEST PUSH2 0x557 DUP2 DUP6 PUSH2 0x4F2 JUMP JUMPDEST SWAP4 POP PUSH2 0x562 DUP4 PUSH2 0x502 JUMP JUMPDEST DUP1 PUSH0 JUMPDEST DUP4 DUP2 LT ISZERO PUSH2 0x592 JUMPI DUP2 MLOAD PUSH2 0x579 DUP9 DUP3 PUSH2 0x520 JUMP JUMPDEST SWAP8 POP PUSH2 0x584 DUP4 PUSH2 0x537 JUMP JUMPDEST SWAP3 POP POP PUSH1 0x1 DUP2 ADD SWAP1 POP PUSH2 0x565 JUMP JUMPDEST POP DUP6 SWAP4 POP POP POP POP SWAP3 SWAP2 POP POP JUMP JUMPDEST PUSH0 PUSH1 0x20 DUP3 ADD SWAP1 POP DUP2 DUP2 SUB PUSH0 DUP4 ADD MSTORE PUSH2 0x5B7 DUP2 DUP5 PUSH2 0x543 JUMP JUMPDEST SWAP1 POP SWAP3 SWAP2 POP POP JUMP JUMPDEST PUSH0 DUP1 PUSH0 PUSH1 0x60 DUP5 DUP7 SUB SLT ISZERO PUSH2 0x5D6 JUMPI PUSH2 0x5D5 PUSH2 0x420 JUMP JUMPDEST JUMPDEST PUSH0 PUSH2 0x5E3 DUP7 DUP3 DUP8 ADD PUSH2 0x443 JUMP JUMPDEST SWAP4 POP POP PUSH1 0x20 PUSH2 0x5F4 DUP7 DUP3 DUP8 ADD PUSH2 0x443 JUMP JUMPDEST SWAP3 POP POP PUSH1 0x40 PUSH2 0x605 DUP7 DUP3 DUP8 ADD PUSH2 0x443 JUMP JUMPDEST SWAP2 POP POP SWAP3 POP SWAP3 POP SWAP3 JUMP JUMPDEST PUSH0 PUSH1 0x3 SWAP1 POP SWAP2 SWAP1 POP JUMP JUMPDEST PUSH0 DUP2 SWAP1 POP SWAP3 SWAP2 POP POP JUMP JUMPDEST PUSH0 DUP2 SWAP1 POP SWAP2 SWAP1 POP JUMP JUMPDEST PUSH0 PUSH1 0x20 DUP3 ADD SWAP1 POP SWAP2 SWAP1 POP JUMP JUMPDEST PUSH2 0x641 DUP2 PUSH2 0x60F JUMP JUMPDEST PUSH2 0x64B DUP2 DUP5 PUSH2 0x619 JUMP JUMPDEST SWAP3 POP PUSH2 0x656 DUP3 PUSH2 0x623 JUMP JUMPDEST DUP1 PUSH0 JUMPDEST DUP4 DUP2 LT ISZERO PUSH2 0x686 JUMPI DUP2 MLOAD PUSH2 0x66D DUP8 DUP3 PUSH2 0x520 JUMP JUMPDEST SWAP7 POP PUSH2 0x678 DUP4 PUSH2 0x62C JUMP JUMPDEST SWAP3 POP POP PUSH1 0x1 DUP2 ADD SWAP1 POP PUSH2 0x659 JUMP JUMPDEST POP POP POP POP POP POP JUMP JUMPDEST PUSH0 PUSH1 0x60 DUP3 ADD SWAP1 POP PUSH2 0x6A1 PUSH0 DUP4 ADD DUP5 PUSH2 0x638 JUMP JUMPDEST SWAP3 SWAP2 POP POP JUMP JUMPDEST PUSH0 DUP1 REVERT JUMPDEST PUSH0 PUSH1 0x1F NOT PUSH1 0x1F DUP4 ADD AND SWAP1 POP SWAP2 SWAP1 POP JUMP JUMPDEST PUSH32 0x4E487B7100000000000000000000000000000000000000000000000000000000 PUSH0 MSTORE PUSH1 0x41 PUSH1 0x4 MSTORE PUSH1 0x24 PUSH0 REVERT JUMPDEST PUSH2 0x6F1 DUP3 PUSH2 0x6AB JUMP JUMPDEST DUP2 ADD DUP2 DUP2 LT PUSH8 0xFFFFFFFFFFFFFFFF DUP3 GT OR ISZERO PUSH2 0x710 JUMPI PUSH2 0x70F PUSH2 0x6BB JUMP JUMPDEST JUMPDEST DUP1 PUSH1 0x40 MSTORE POP POP POP JUMP JUMPDEST PUSH0 PUSH2 0x722 PUSH2 0x417 JUMP JUMPDEST SWAP1 POP PUSH2 0x72E DUP3 DUP3 PUSH2 0x6E8 JUMP JUMPDEST SWAP2 SWAP1 POP JUMP JUMPDEST PUSH0 PUSH8 0xFFFFFFFFFFFFFFFF DUP3 GT ISZERO PUSH2 0x74D JUMPI PUSH2 0x74C PUSH2 0x6BB JUMP JUMPDEST JUMPDEST PUSH1 0x20 DUP3 MUL SWAP1 POP SWAP2 SWAP1 POP JUMP JUMPDEST PUSH0 DUP1 REVERT JUMPDEST PUSH0 PUSH2 0x76E PUSH2 0x769 DUP5 PUSH2 0x733 JUMP JUMPDEST PUSH2 0x719 JUMP JUMPDEST SWAP1 POP DUP1 PUSH1 0x20 DUP5 MUL DUP4 ADD DUP6 DUP2 GT ISZERO PUSH2 0x788 JUMPI PUSH2 0x787 PUSH2 0x758 JUMP JUMPDEST JUMPDEST DUP4 JUMPDEST DUP2 DUP2 LT ISZERO PUSH2 0x7B1 JUMPI DUP1 PUSH2 0x79D DUP9 DUP3 PUSH2 0x443 JUMP JUMPDEST DUP5 MSTORE PUSH1 0x20 DUP5 ADD SWAP4 POP POP PUSH1 0x20 DUP2 ADD SWAP1 POP PUSH2 0x78A JUMP JUMPDEST POP POP POP SWAP4 SWAP3 POP POP POP JUMP JUMPDEST PUSH0 DUP3 PUSH1 0x1F DUP4 ADD SLT PUSH2 0x7CF JUMPI PUSH2 0x7CE PUSH2 0x6A7 JUMP JUMPDEST JUMPDEST PUSH1 0x3 PUSH2 0x7DC DUP5 DUP3 DUP6 PUSH2 0x75C JUMP JUMPDEST SWAP2 POP POP SWAP3 SWAP2 POP POP JUMP JUMPDEST PUSH0 PUSH1 0x60 DUP3 DUP5 SUB SLT ISZERO PUSH2 0x7FA JUMPI PUSH2 0x7F9 PUSH2 0x420 JUMP JUMPDEST JUMPDEST PUSH0 PUSH2 0x807 DUP5 DUP3 DUP6 ADD PUSH2 0x7BB JUMP JUMPDEST SWAP2 POP POP SWAP3 SWAP2 POP POP JUMP JUMPDEST PUSH32 0x4E487B7100000000000000000000000000000000000000000000000000000000 PUSH0 MSTORE PUSH1 0x32 PUSH1 0x4 MSTORE PUSH1 0x24 PUSH0 REVERT JUMPDEST PUSH32 0x4E487B7100000000000000000000000000000000000000000000000000000000 PUSH0 MSTORE PUSH1 0x31 PUSH1 0x4 MSTORE PUSH1 0x24 PUSH0 REVERT INVALID LOG2 PUSH5 0x6970667358 0x22 SLT KECCAK256 0xAE DUP4 MLOAD 0xE 0xE4 PUSH3 0x2B66B2 TIMESTAMP AND 0xB4 BLOBHASH 0x4C 0xB5 MSTORE 0xD0 BLOBBASEFEE 0xB3 ADDMOD BLOBHASH 0xB6 SWAP14 PUSH18 0xB921C84091FA765E64736F6C634300081800 CALLER "
		},
		"gasEstimates": {
			"creation": {
				"codeDepositCost": "441600",
				"executionCost": "infinite",
				"totalCost": "infinite"
			},
			"external": {
				"Array1(uint256)": "infinite",
				"SetArray(uint256)": "22588",
				"SetArrayAll(uint256,uint256,uint256)": "infinite",
				"SetArrayAllWithArray(uint256[3])": "infinite",
				"SetArrayWithIndex(uint256,uint256)": "infinite",
				"dynArray(uint256)": "infinite",
				"getArray()": "infinite",
				"getDynArray()": "infinite",
				"removeLastElmentDymArray()": "29507",
				"setDymArray(uint256)": "46821"
			}
		},
		"methodIdentifiers": {
			"Array1(uint256)": "1de5fe09",
			"SetArray(uint256)": "29774d87",
			"SetArrayAll(uint256,uint256,uint256)": "bbb755ca",
			"SetArrayAllWithArray(uint256[3])": "ff7fc0d6",
			"SetArrayWithIndex(uint256,uint256)": "173a70dd",
			"dynArray(uint256)": "5c56eef7",
			"getArray()": "d504ea1d",
			"getDynArray()": "65a5eb75",
			"removeLastElmentDymArray()": "f15f7369",
			"setDymArray(uint256)": "89945c38"
		}
	},
	"abi": [
		{
			"inputs": [
				{
					"internalType": "uint256",
					"name": "",
					"type": "uint256"
				}
			],
			"name": "Array1",
			"outputs": [
				{
					"internalType": "uint256",
					"name": "",
					"type": "uint256"
				}
			],
			"stateMutability": "view",
			"type": "function"
		},
		{
			"inputs": [
				{
					"internalType": "uint256",
					"name": "value",
					"type": "uint256"
				}
			],
			"name": "SetArray",
			"outputs": [],
			"stateMutability": "nonpayable",
			"type": "function"
		},
		{
			"inputs": [
				{
					"internalType": "uint256",
					"name": "value1",
					"type": "uint256"
				},
				{
					"internalType": "uint256",
					"name": "value2",
					"type": "uint256"
				},
				{
					"internalType": "uint256",
					"name": "value3",
					"type": "uint256"
				}
			],
			"name": "SetArrayAll",
			"outputs": [],
			"stateMutability": "nonpayable",
			"type": "function"
		},
		{
			"inputs": [
				{
					"internalType": "uint256[3]",
					"name": "newArray",
					"type": "uint256[3]"
				}
			],
			"name": "SetArrayAllWithArray",
			"outputs": [],
			"stateMutability": "nonpayable",
			"type": "function"
		},
		{
			"inputs": [
				{
					"internalType": "uint256",
					"name": "index",
					"type": "uint256"
				},
				{
					"internalType": "uint256",
					"name": "value",
					"type": "uint256"
				}
			],
			"name": "SetArrayWithIndex",
			"outputs": [],
			"stateMutability": "nonpayable",
			"type": "function"
		},
		{
			"inputs": [
				{
					"internalType": "uint256",
					"name": "",
					"type": "uint256"
				}
			],
			"name": "dynArray",
			"outputs": [
				{
					"internalType": "uint256",
					"name": "",
					"type": "uint256"
				}
			],
			"stateMutability": "view",
			"type": "function"
		},
		{
			"inputs": [],
			"name": "getArray",
			"outputs": [
				{
					"internalType": "uint256[3]",
					"name": "",
					"type": "uint256[3]"
				}
			],
			"stateMutability": "view",
			"type": "function"
		},
		{
			"inputs": [],
			"name": "getDynArray",
			"outputs": [
				{
					"internalType": "uint256[]",
					"name": "",
					"type": "uint256[]"
				}
			],
			"stateMutability": "view",
			"type": "function"
		},
		{
			"inputs": [],
			"name": "removeLastElmentDymArray",
			"outputs": [],
			"stateMutability": "nonpayable",
			"type": "function"
		},
		{
			"inputs": [
				{
					"internalType": "uint256",
					"name": "element",
					"type": "uint256"
				}
			],
			"name": "setDymArray",
			"outputs": [],
			"stateMutability": "nonpayable",
			"type": "function"
		}
	]
}