{
	"data": {
		"bytecode": {
			"linkReferences": {},
			"object": "608060405234801561000f575f80fd5b506104358061001d5f395ff3fe608060405234801561000f575f80fd5b5060043610610029575f3560e01c8063654b5def1461002d575b5f80fd5b610047600480360381019061004291906102c2565b61005d565b6040516100549190610377565b60405180910390f35b6060806064831315801561007157505f8312155b6100b0576040517f08c379a00000000000000000000000000000000000000000000000000000000081526004016100a7906103e1565b60405180910390fd5b602183131561024957606483131580156100ca5750605583135b15610108576040518060400160405280600181526020017f410000000000000000000000000000000000000000000000000000000000000081525090505b605583131580156101195750604683135b15610157576040518060400160405280600181526020017f420000000000000000000000000000000000000000000000000000000000000081525090505b604683131580156101685750603783135b156101a6576040518060400160405280600181526020017f430000000000000000000000000000000000000000000000000000000000000081525090505b603783131580156101b75750602883135b156101f5576040518060400160405280600181526020017f440000000000000000000000000000000000000000000000000000000000000081525090505b602883131580156102065750602183135b15610244576040518060400160405280600181526020017f450000000000000000000000000000000000000000000000000000000000000081525090505b610282565b6040518060400160405280600481526020017f4661696c0000000000000000000000000000000000000000000000000000000081525090505b80915050919050565b5f80fd5b5f819050919050565b6102a18161028f565b81146102ab575f80fd5b50565b5f813590506102bc81610298565b92915050565b5f602082840312156102d7576102d661028b565b5b5f6102e4848285016102ae565b91505092915050565b5f81519050919050565b5f82825260208201905092915050565b5f5b83811015610324578082015181840152602081019050610309565b5f8484015250505050565b5f601f19601f8301169050919050565b5f610349826102ed565b61035381856102f7565b9350610363818560208601610307565b61036c8161032f565b840191505092915050565b5f6020820190508181035f83015261038f818461033f565b905092915050565b7f4d61726b2073686f756c64206265206265747765656e203020616e64203130305f82015250565b5f6103cb6020836102f7565b91506103d682610397565b602082019050919050565b5f6020820190508181035f8301526103f8816103bf565b905091905056fea264697066735822122018a622cf0f929ec6e599964abb969c1fdc794468b050a7c2e7b85af58ef8185a64736f6c63430008180033",
			"opcodes": "PUSH1 0x80 PUSH1 0x40 MSTORE CALLVALUE DUP1 ISZERO PUSH2 0xF JUMPI PUSH0 DUP1 REVERT JUMPDEST POP PUSH2 0x435 DUP1 PUSH2 0x1D PUSH0 CODECOPY PUSH0 RETURN INVALID PUSH1 0x80 PUSH1 0x40 MSTORE CALLVALUE DUP1 ISZERO PUSH2 0xF JUMPI PUSH0 DUP1 REVERT JUMPDEST POP PUSH1 0x4 CALLDATASIZE LT PUSH2 0x29 JUMPI PUSH0 CALLDATALOAD PUSH1 0xE0 SHR DUP1 PUSH4 0x654B5DEF EQ PUSH2 0x2D JUMPI JUMPDEST PUSH0 DUP1 REVERT JUMPDEST PUSH2 0x47 PUSH1 0x4 DUP1 CALLDATASIZE SUB DUP2 ADD SWAP1 PUSH2 0x42 SWAP2 SWAP1 PUSH2 0x2C2 JUMP JUMPDEST PUSH2 0x5D JUMP JUMPDEST PUSH1 0x40 MLOAD PUSH2 0x54 SWAP2 SWAP1 PUSH2 0x377 JUMP JUMPDEST PUSH1 0x40 MLOAD DUP1 SWAP2 SUB SWAP1 RETURN JUMPDEST PUSH1 0x60 DUP1 PUSH1 0x64 DUP4 SGT ISZERO DUP1 ISZERO PUSH2 0x71 JUMPI POP PUSH0 DUP4 SLT ISZERO JUMPDEST PUSH2 0xB0 JUMPI PUSH1 0x40 MLOAD PUSH32 0x8C379A000000000000000000000000000000000000000000000000000000000 DUP2 MSTORE PUSH1 0x4 ADD PUSH2 0xA7 SWAP1 PUSH2 0x3E1 JUMP JUMPDEST PUSH1 0x40 MLOAD DUP1 SWAP2 SUB SWAP1 REVERT JUMPDEST PUSH1 0x21 DUP4 SGT ISZERO PUSH2 0x249 JUMPI PUSH1 0x64 DUP4 SGT ISZERO DUP1 ISZERO PUSH2 0xCA JUMPI POP PUSH1 0x55 DUP4 SGT JUMPDEST ISZERO PUSH2 0x108 JUMPI PUSH1 0x40 MLOAD DUP1 PUSH1 0x40 ADD PUSH1 0x40 MSTORE DUP1 PUSH1 0x1 DUP2 MSTORE PUSH1 0x20 ADD PUSH32 0x4100000000000000000000000000000000000000000000000000000000000000 DUP2 MSTORE POP SWAP1 POP JUMPDEST PUSH1 0x55 DUP4 SGT ISZERO DUP1 ISZERO PUSH2 0x119 JUMPI POP PUSH1 0x46 DUP4 SGT JUMPDEST ISZERO PUSH2 0x157 JUMPI PUSH1 0x40 MLOAD DUP1 PUSH1 0x40 ADD PUSH1 0x40 MSTORE DUP1 PUSH1 0x1 DUP2 MSTORE PUSH1 0x20 ADD PUSH32 0x4200000000000000000000000000000000000000000000000000000000000000 DUP2 MSTORE POP SWAP1 POP JUMPDEST PUSH1 0x46 DUP4 SGT ISZERO DUP1 ISZERO PUSH2 0x168 JUMPI POP PUSH1 0x37 DUP4 SGT JUMPDEST ISZERO PUSH2 0x1A6 JUMPI PUSH1 0x40 MLOAD DUP1 PUSH1 0x40 ADD PUSH1 0x40 MSTORE DUP1 PUSH1 0x1 DUP2 MSTORE PUSH1 0x20 ADD PUSH32 0x4300000000000000000000000000000000000000000000000000000000000000 DUP2 MSTORE POP SWAP1 POP JUMPDEST PUSH1 0x37 DUP4 SGT ISZERO DUP1 ISZERO PUSH2 0x1B7 JUMPI POP PUSH1 0x28 DUP4 SGT JUMPDEST ISZERO PUSH2 0x1F5 JUMPI PUSH1 0x40 MLOAD DUP1 PUSH1 0x40 ADD PUSH1 0x40 MSTORE DUP1 PUSH1 0x1 DUP2 MSTORE PUSH1 0x20 ADD PUSH32 0x4400000000000000000000000000000000000000000000000000000000000000 DUP2 MSTORE POP SWAP1 POP JUMPDEST PUSH1 0x28 DUP4 SGT ISZERO DUP1 ISZERO PUSH2 0x206 JUMPI POP PUSH1 0x21 DUP4 SGT JUMPDEST ISZERO PUSH2 0x244 JUMPI PUSH1 0x40 MLOAD DUP1 PUSH1 0x40 ADD PUSH1 0x40 MSTORE DUP1 PUSH1 0x1 DUP2 MSTORE PUSH1 0x20 ADD PUSH32 0x4500000000000000000000000000000000000000000000000000000000000000 DUP2 MSTORE POP SWAP1 POP JUMPDEST PUSH2 0x282 JUMP JUMPDEST PUSH1 0x40 MLOAD DUP1 PUSH1 0x40 ADD PUSH1 0x40 MSTORE DUP1 PUSH1 0x4 DUP2 MSTORE PUSH1 0x20 ADD PUSH32 0x4661696C00000000000000000000000000000000000000000000000000000000 DUP2 MSTORE POP SWAP1 POP JUMPDEST DUP1 SWAP2 POP POP SWAP2 SWAP1 POP JUMP JUMPDEST PUSH0 DUP1 REVERT JUMPDEST PUSH0 DUP2 SWAP1 POP SWAP2 SWAP1 POP JUMP JUMPDEST PUSH2 0x2A1 DUP2 PUSH2 0x28F JUMP JUMPDEST DUP2 EQ PUSH2 0x2AB JUMPI PUSH0 DUP1 REVERT JUMPDEST POP JUMP JUMPDEST PUSH0 DUP2 CALLDATALOAD SWAP1 POP PUSH2 0x2BC DUP2 PUSH2 0x298 JUMP JUMPDEST SWAP3 SWAP2 POP POP JUMP JUMPDEST PUSH0 PUSH1 0x20 DUP3 DUP5 SUB SLT ISZERO PUSH2 0x2D7 JUMPI PUSH2 0x2D6 PUSH2 0x28B JUMP JUMPDEST JUMPDEST PUSH0 PUSH2 0x2E4 DUP5 DUP3 DUP6 ADD PUSH2 0x2AE JUMP JUMPDEST SWAP2 POP POP SWAP3 SWAP2 POP POP JUMP JUMPDEST PUSH0 DUP2 MLOAD SWAP1 POP SWAP2 SWAP1 POP JUMP JUMPDEST PUSH0 DUP3 DUP3 MSTORE PUSH1 0x20 DUP3 ADD SWAP1 POP SWAP3 SWAP2 POP POP JUMP JUMPDEST PUSH0 JUMPDEST DUP4 DUP2 LT ISZERO PUSH2 0x324 JUMPI DUP1 DUP3 ADD MLOAD DUP2 DUP5 ADD MSTORE PUSH1 0x20 DUP2 ADD SWAP1 POP PUSH2 0x309 JUMP JUMPDEST PUSH0 DUP5 DUP5 ADD MSTORE POP POP POP POP JUMP JUMPDEST PUSH0 PUSH1 0x1F NOT PUSH1 0x1F DUP4 ADD AND SWAP1 POP SWAP2 SWAP1 POP JUMP JUMPDEST PUSH0 PUSH2 0x349 DUP3 PUSH2 0x2ED JUMP JUMPDEST PUSH2 0x353 DUP2 DUP6 PUSH2 0x2F7 JUMP JUMPDEST SWAP4 POP PUSH2 0x363 DUP2 DUP6 PUSH1 0x20 DUP7 ADD PUSH2 0x307 JUMP JUMPDEST PUSH2 0x36C DUP2 PUSH2 0x32F JUMP JUMPDEST DUP5 ADD SWAP2 POP POP SWAP3 SWAP2 POP POP JUMP JUMPDEST PUSH0 PUSH1 0x20 DUP3 ADD SWAP1 POP DUP2 DUP2 SUB PUSH0 DUP4 ADD MSTORE PUSH2 0x38F DUP2 DUP5 PUSH2 0x33F JUMP JUMPDEST SWAP1 POP SWAP3 SWAP2 POP POP JUMP JUMPDEST PUSH32 0x4D61726B2073686F756C64206265206265747765656E203020616E6420313030 PUSH0 DUP3 ADD MSTORE POP JUMP JUMPDEST PUSH0 PUSH2 0x3CB PUSH1 0x20 DUP4 PUSH2 0x2F7 JUMP JUMPDEST SWAP2 POP PUSH2 0x3D6 DUP3 PUSH2 0x397 JUMP JUMPDEST PUSH1 0x20 DUP3 ADD SWAP1 POP SWAP2 SWAP1 POP JUMP JUMPDEST PUSH0 PUSH1 0x20 DUP3 ADD SWAP1 POP DUP2 DUP2 SUB PUSH0 DUP4 ADD MSTORE PUSH2 0x3F8 DUP2 PUSH2 0x3BF JUMP JUMPDEST SWAP1 POP SWAP2 SWAP1 POP JUMP INVALID LOG2 PUSH5 0x6970667358 0x22 SLT KECCAK256 XOR 0xA6 0x22 0xCF 0xF SWAP3 SWAP15 0xC6 0xE5 SWAP10 SWAP7 BLOBBASEFEE 0xBB SWAP7 SWAP13 0x1F 0xDC PUSH26 0x4468B050A7C2E7B85AF58EF8185A64736F6C6343000818003300 "
		},
		"gasEstimates": {
			"creation": {
				"codeDepositCost": "215400",
				"executionCost": "255",
				"totalCost": "215655"
			},
			"external": {
				"getGrade(int256)": "infinite"
			}
		},
		"methodIdentifiers": {
			"getGrade(int256)": "654b5def"
		}
	},
	"abi": [
		{
			"inputs": [
				{
					"internalType": "int256",
					"name": "mark",
					"type": "int256"
				}
			],
			"name": "getGrade",
			"outputs": [
				{
					"internalType": "string",
					"name": "",
					"type": "string"
				}
			],
			"stateMutability": "pure",
			"type": "function"
		}
	]
}